{"contracts/vanilla/OneCard.sol":{"OneCard":{"abi":[{"inputs":[],"stateMutability":"nonpayable","type":"constructor"},{"anonymous":false,"inputs":[{"indexed":true,"internalType":"uint256","name":"gameId","type":"uint256"}],"name":"BettingPhaseStarted","type":"event"},{"anonymous":false,"inputs":[{"indexed":true,"internalType":"uint256","name":"gameId","type":"uint256"},{"indexed":true,"internalType":"address","name":"player","type":"address"}],"name":"CardDealt","type":"event"},{"anonymous":false,"inputs":[{"indexed":true,"internalType":"address","name":"player","type":"address"},{"indexed":false,"internalType":"uint8","name":"value","type":"uint8"},{"indexed":false,"internalType":"uint8","name":"suit","type":"uint8"}],"name":"CardPeeked","type":"event"},{"anonymous":false,"inputs":[{"indexed":true,"internalType":"uint256","name":"gameId","type":"uint256"},{"indexed":false,"internalType":"address","name":"player","type":"address"}],"name":"CardSwapped","type":"event"},{"anonymous":false,"inputs":[{"indexed":true,"internalType":"uint256","name":"gameId","type":"uint256"},{"indexed":false,"internalType":"address","name":"keeper","type":"address"},{"indexed":false,"internalType":"address","name":"creator","type":"address"}],"name":"GameCreated","type":"event"},{"anonymous":false,"inputs":[{"indexed":true,"internalType":"uint256","name":"gameId","type":"uint256"},{"indexed":false,"internalType":"address","name":"winner","type":"address"},{"indexed":false,"internalType":"uint256","name":"potAmount","type":"uint256"}],"name":"GameEnded","type":"event"},{"anonymous":false,"inputs":[{"indexed":true,"internalType":"uint256","name":"gameId","type":"uint256"}],"name":"PeekPhaseStarted","type":"event"},{"anonymous":false,"inputs":[{"indexed":true,"internalType":"uint256","name":"gameId","type":"uint256"},{"indexed":true,"internalType":"address","name":"player","type":"address"},{"indexed":false,"internalType":"string","name":"action","type":"string"},{"indexed":false,"internalType":"uint256","name":"amount","type":"uint256"}],"name":"PlayerAction","type":"event"},{"anonymous":false,"inputs":[{"indexed":true,"internalType":"uint256","name":"gameId","type":"uint256"},{"indexed":false,"internalType":"address","name":"player","type":"address"}],"name":"PlayerJoined","type":"event"},{"anonymous":false,"inputs":[{"indexed":true,"internalType":"uint256","name":"gameId","type":"uint256"},{"indexed":false,"internalType":"address","name":"player","type":"address"}],"name":"PlayerPeeked","type":"event"},{"anonymous":false,"inputs":[{"indexed":true,"internalType":"uint256","name":"gameId","type":"uint256"}],"name":"ShowdownStarted","type":"event"},{"inputs":[],"name":"BETTING_PHASE_DURATION","outputs":[{"internalType":"uint256","name":"","type":"uint256"}],"stateMutability":"view","type":"function"},{"inputs":[],"name":"INITIAL_CHIPS","outputs":[{"internalType":"uint256","name":"","type":"uint256"}],"stateMutability":"view","type":"function"},{"inputs":[],"name":"MAX_PLAYERS","outputs":[{"internalType":"uint8","name":"","type":"uint8"}],"stateMutability":"view","type":"function"},{"inputs":[],"name":"MINIMUM_BET","outputs":[{"internalType":"uint256","name":"","type":"uint256"}],"stateMutability":"view","type":"function"},{"inputs":[],"name":"PEEK_FEE","outputs":[{"internalType":"uint256","name":"","type":"uint256"}],"stateMutability":"view","type":"function"},{"inputs":[],"name":"PEEK_PHASE_DURATION","outputs":[{"internalType":"uint256","name":"","type":"uint256"}],"stateMutability":"view","type":"function"},{"inputs":[],"name":"STANDARD_DECK_SIZE","outputs":[{"internalType":"uint8","name":"","type":"uint8"}],"stateMutability":"view","type":"function"},{"inputs":[],"name":"SWAP_FEE","outputs":[{"internalType":"uint256","name":"","type":"uint256"}],"stateMutability":"view","type":"function"},{"inputs":[{"internalType":"address","name":"keeper","type":"address"}],"name":"addKeeper","outputs":[],"stateMutability":"nonpayable","type":"function"},{"inputs":[{"internalType":"uint256","name":"gameId","type":"uint256"}],"name":"checkAllPlayersMatched","outputs":[{"internalType":"bool","name":"","type":"bool"}],"stateMutability":"view","type":"function"},{"inputs":[{"internalType":"uint256","name":"gameId","type":"uint256"}],"name":"cleanup","outputs":[],"stateMutability":"nonpayable","type":"function"},{"inputs":[],"name":"createGame","outputs":[{"internalType":"uint256","name":"","type":"uint256"}],"stateMutability":"nonpayable","type":"function"},{"inputs":[],"name":"currentGameId","outputs":[{"internalType":"uint256","name":"","type":"uint256"}],"stateMutability":"view","type":"function"},{"inputs":[{"internalType":"uint256","name":"gameId","type":"uint256"}],"name":"endBettingPhase","outputs":[],"stateMutability":"nonpayable","type":"function"},{"inputs":[{"internalType":"uint256","name":"gameId","type":"uint256"}],"name":"endPeekPhase","outputs":[],"stateMutability":"nonpayable","type":"function"},{"inputs":[{"internalType":"uint256","name":"gameId","type":"uint256"}],"name":"fold","outputs":[],"stateMutability":"nonpayable","type":"function"},{"inputs":[{"internalType":"uint256","name":"gameId","type":"uint256"}],"name":"getActivePlayerCount","outputs":[{"internalType":"uint256","name":"","type":"uint256"}],"stateMutability":"view","type":"function"},{"inputs":[{"internalType":"uint256","name":"gameId","type":"uint256"}],"name":"getActivePlayers","outputs":[{"internalType":"address[]","name":"activePlayers","type":"address[]"}],"stateMutability":"view","type":"function"},{"inputs":[{"internalType":"uint256","name":"gameId","type":"uint256"}],"name":"getGameInfo","outputs":[{"internalType":"enum GameLibrary.GameState","name":"state","type":"uint8"},{"internalType":"uint256","name":"potAmount","type":"uint256"},{"internalType":"uint256","name":"currentBet","type":"uint256"},{"internalType":"uint256","name":"phaseEndTime","type":"uint256"},{"internalType":"uint256","name":"remainingTime","type":"uint256"},{"internalType":"uint256","name":"playerCount","type":"uint256"},{"internalType":"uint256","name":"activeCount","type":"uint256"},{"internalType":"address","name":"creator","type":"address"},{"internalType":"bool","name":"isCleanedUp","type":"bool"}],"stateMutability":"view","type":"function"},{"inputs":[{"internalType":"uint256","name":"gameId","type":"uint256"},{"internalType":"address","name":"player","type":"address"}],"name":"getPlayerInfo","outputs":[{"internalType":"bool","name":"isActive","type":"bool"},{"internalType":"bool","name":"hasPeeked","type":"bool"},{"internalType":"bool","name":"hasSwappedCard","type":"bool"},{"internalType":"bool","name":"hasFolded","type":"bool"},{"internalType":"uint256","name":"chipBalance","type":"uint256"},{"internalType":"uint256","name":"currentBet","type":"uint256"}],"stateMutability":"view","type":"function"},{"inputs":[{"internalType":"uint256","name":"gameId","type":"uint256"}],"name":"getPlayers","outputs":[{"internalType":"address[]","name":"players","type":"address[]"}],"stateMutability":"view","type":"function"},{"inputs":[{"internalType":"address","name":"keeper","type":"address"}],"name":"isKeeper","outputs":[{"internalType":"bool","name":"","type":"bool"}],"stateMutability":"view","type":"function"},{"inputs":[{"internalType":"uint256","name":"gameId","type":"uint256"}],"name":"joinGame","outputs":[],"stateMutability":"nonpayable","type":"function"},{"inputs":[{"internalType":"uint256","name":"gameId","type":"uint256"}],"name":"leaveGame","outputs":[],"stateMutability":"nonpayable","type":"function"},{"inputs":[],"name":"owner","outputs":[{"internalType":"address","name":"","type":"address"}],"stateMutability":"view","type":"function"},{"inputs":[{"internalType":"uint256","name":"gameId","type":"uint256"}],"name":"peekAtCard","outputs":[],"stateMutability":"nonpayable","type":"function"},{"inputs":[{"internalType":"uint256","name":"gameId","type":"uint256"},{"internalType":"uint256","name":"betAmount","type":"uint256"}],"name":"placeBet","outputs":[],"stateMutability":"nonpayable","type":"function"},{"inputs":[{"internalType":"address","name":"","type":"address"}],"name":"playerCurrentGame","outputs":[{"internalType":"uint256","name":"","type":"uint256"}],"stateMutability":"view","type":"function"},{"inputs":[{"internalType":"address","name":"keeper","type":"address"}],"name":"removeKeeper","outputs":[],"stateMutability":"nonpayable","type":"function"},{"inputs":[{"internalType":"uint256","name":"gameId","type":"uint256"}],"name":"startGame","outputs":[],"stateMutability":"nonpayable","type":"function"},{"inputs":[{"internalType":"uint256","name":"gameId","type":"uint256"}],"name":"swapCard","outputs":[],"stateMutability":"nonpayable","type":"function"}],"evm":{"bytecode":{"linkReferences":{},"object":"60a060405234801561001057600080fd5b5033606081901b6080526000818152600360205260408120805460ff1916600117905561356d9061006090396000818161070901528181611379015281816118660152611909015261356d6000f3fe608060405234801561001057600080fd5b50600436106101e45760003560e01c80634afe62b51161010f5780639c861bc5116100a2578063c493153a11610071578063c493153a146103fa578063e5ed1d5914610402578063efaa55a014610415578063fc2217c414610428576101e4565b80639c861bc5146103b9578063a410274c146103c1578063ba3a9520146103d4578063bff7a00b146103e7576101e4565b80637255d729116100de5780637255d7291461038c578063768aebde146103945780638da5cb5b1461039c578063935aae40146103b1576101e4565b80634afe62b514610349578063536a3ddc1461035c5780635d27e072146103645780636ba42aaa1461036c576101e4565b8063342ed956116101875780634032b72b116101565780634032b72b146102e65780634411b3eb146102f9578063460e20491461030e57806347e1d55014610321576101e4565b8063342ed9561461027b5780633a5ff2001461029b5780633ccd10e9146102ae5780633feef58a146102d3576101e4565b806314ae9f2e116101c357806314ae9f2e1461022f578063265026481461024257806330be62b214610255578063318ff5d114610268576101e4565b8062028e6e146101e957806309734764146102075780630aa400181461021c575b600080fd5b6101f1610430565b6040516101fe91906133f0565b60405180910390f35b61021a610215366004612bbb565b610435565b005b61021a61022a366004612bbb565b61059b565b61021a61023d366004612ba1565b6106fe565b61021a610250366004612bbb565b610767565b61021a610263366004612bbb565b610a42565b61021a610276366004612bbb565b610b5b565b61028e610289366004612bbb565b610dfb565b6040516101fe9190612c74565b6101f16102a9366004612ba1565b610f80565b6102c16102bc366004612bd3565b610f92565b6040516101fe96959493929190612ccc565b61021a6102e1366004612bbb565b61107f565b61021a6102f4366004612ba1565b61136e565b6103016113da565b6040516101fe91906133f9565b61028e61031c366004612bbb565b6113df565b61033461032f366004612bbb565b61147f565b6040516101fe99989796959493929190612cf8565b61021a610357366004612bfe565b61156e565b6101f16117d3565b6101f16113da565b61037f61037a366004612ba1565b6117d9565b6040516101fe9190612cc1565b6101f16117fb565b6101f1611902565b6103a4611907565b6040516101fe9190612c2d565b6101f161192b565b610301611930565b6101f16103cf366004612bbb565b611935565b61037f6103e2366004612bbb565b61197b565b61021a6103f5366004612bbb565b611ab1565b6101f1611d0e565b61021a610410366004612bbb565b611d14565b61021a610423366004612bbb565b611e8d565b6101f1612044565b607881565b3360009081526003602052604090205460ff1661046d5760405162461bcd60e51b815260040161046490612e51565b60405180910390fd5b6000818152600160205260409020548190811461049c5760405162461bcd60e51b81526004016104649061308b565b6000828152600160205260409020600c0154829060ff16156104d05760405162461bcd60e51b815260040161046490613276565b600083815260016020819052604090912090600182015460ff16600481111561050957634e487b7160e01b600052602160045260246000fd5b146105265760405162461bcd60e51b815260040161046490613063565b80600b015442101561054a5760405162461bcd60e51b8152600401610464906133b9565b61055661012c4261341b565b600b82015560018101805460ff1916600217905560405184907f359ad7e63db5f06f70341a18e68dba0ef153ef9adbff2af9293fc13daf6fc09590600090a250505050565b3360009081526003602052604090205460ff166105ca5760405162461bcd60e51b815260040161046490612e51565b600081815260016020526040902054819081146105f95760405162461bcd60e51b81526004016104649061308b565b6000828152600160205260409020600c0154829060ff161561062d5760405162461bcd60e51b815260040161046490613276565b60008381526001602052604090206004600182015460ff16600481111561066457634e487b7160e01b600052602160045260246000fd5b146106815760405162461bcd60e51b815260040161046490613364565b60005b60028201548110156106ea5760008260020182815481106106b557634e487b7160e01b600052603260045260246000fd5b60009182526020808320909101546001600160a01b0316825260029052604081205550806106e2816134a6565b915050610684565b50600c01805460ff19166001179055505050565b336001600160a01b037f000000000000000000000000000000000000000000000000000000000000000016146107465760405162461bcd60e51b81526004016104649061314c565b6001600160a01b03166000908152600360205260409020805460ff19169055565b600081815260016020526040902054819081146107965760405162461bcd60e51b81526004016104649061308b565b6000828152600160209081526040808320338452600401909152902054829060ff166107d45760405162461bcd60e51b815260040161046490612dfa565b6000838152600160205260409020600c0154839060ff16156108085760405162461bcd60e51b815260040161046490613276565b60008481526001602081815260408084203385526004810190925290922090600183015460ff16600481111561084e57634e487b7160e01b600052602160045260246000fd5b1461086b5760405162461bcd60e51b815260040161046490613063565b81600b0154421061088e5760405162461bcd60e51b815260040161046490612d99565b8054610100900460ff166108b45760405162461bcd60e51b815260040161046490613006565b805462010000900460ff16156108dc5760405162461bcd60e51b815260040161046490612d62565b6007816001015410156109015760405162461bcd60e51b815260040161046490612e25565b60018082018054600619019055815462ff000019166201000017808355426003840155600483018054909201909155640100000000900460ff166109458782612049565b60006109508861207e565b905060008160ff161180156109685750603460ff8216105b6109845760405162461bcd60e51b8152600401610464906131cd565b61098e88826121c5565b156109ab5760405162461bcd60e51b8152600401610464906132ff565b6109b588826121e8565b825464ff00000000191664010000000060ff83160217835560405188907f885764703e2aefc4846ebb38d0f5da9044c8ade279e4fa2f48f13d993f5fb3bf906109ff903390612c2d565b60405180910390a2336001600160a01b0316886000805160206135188339815191526007604051610a30919061303d565b60405180910390a35050505050505050565b3360009081526003602052604090205460ff16610a715760405162461bcd60e51b815260040161046490612e51565b60008181526001602052604090205481908114610aa05760405162461bcd60e51b81526004016104649061308b565b6000828152600160205260409020600c0154829060ff1615610ad45760405162461bcd60e51b815260040161046490613276565b60008381526001602052604090206002600182015460ff166004811115610b0b57634e487b7160e01b600052602160045260246000fd5b14610b285760405162461bcd60e51b815260040161046490612f47565b80600b0154421015610b4c5760405162461bcd60e51b815260040161046490613196565b610b5584612204565b50505050565b60008181526001602052604090205481908114610b8a5760405162461bcd60e51b81526004016104649061308b565b6000828152600160209081526040808320338452600401909152902054829060ff16610bc85760405162461bcd60e51b815260040161046490612dfa565b6000838152600160205260409020600c0154839060ff1615610bfc5760405162461bcd60e51b815260040161046490613276565b60008481526001602081815260408084203385526004810190925290922090600183015460ff166004811115610c4257634e487b7160e01b600052602160045260246000fd5b14610c5f5760405162461bcd60e51b815260040161046490613063565b81600b01544210610c825760405162461bcd60e51b815260040161046490612d99565b8054610100900460ff1615610ca95760405162461bcd60e51b8152600401610464906132d7565b600581600101541015610cce5760405162461bcd60e51b815260040161046490612e25565b60018082018054600419019055815461ff0019166101001780835542600384015560048301805490920190915560058301805464010000000090920460ff16916000919083908110610d3057634e487b7160e01b600052603260045260246000fd5b6000918252602091829020604080518082018252929091015460ff80821680855261010090920416938301849052905191935033927fbdf2f0687b7c6f0b8dde29a86969ba9a1e60ce7d560dc87e0bc637aead3a8c1c92610d92929190613407565b60405180910390a2877fbd3a6d7726f96a60006b9be9178cd721a199630ff7daaac35c2566c74e725fba33604051610dca9190612c2d565b60405180910390a2336001600160a01b0316886000805160206135188339815191526005604051610a3091906131fd565b60008181526001602052604090205460609082908114610e2d5760405162461bcd60e51b81526004016104649061308b565b6000838152600160205260409020600381015467ffffffffffffffff811115610e6657634e487b7160e01b600052604160045260246000fd5b604051908082528060200260200182016040528015610e8f578160200160208202803683370190505b509250806003015460001415610ea55750610f7a565b6000805b6002830154811015610f76576000836002018281548110610eda57634e487b7160e01b600052603260045260246000fd5b60009182526020808320909101546001600160a01b03168083526004870190915260409091205490915060ff630100000090910416610f635780868481518110610f3457634e487b7160e01b600052603260045260246000fd5b6001600160a01b039092166020928302919091019091015260038401546001909301928310610f635750610f76565b5080610f6e816134a6565b915050610ea9565b5050505b50919050565b60026020526000908152604090205481565b6000828152600160205260408120548190819081908190819088908114610fcb5760405162461bcd60e51b81526004016104649061308b565b60008981526001602090815260408083206001600160a01b038c16808552600482019093529220903314611039578054600182015460029092015460ff8083169b50610100830481169a50620100008304811699506301000000909204909116965090945092506110749050565b8054600182015460029092015460ff8083169b50610100830481169a5062010000830481169950630100000090920490911696509094509250505b509295509295509295565b600081815260016020526040902054819081146110ae5760405162461bcd60e51b81526004016104649061308b565b6000828152600160205260409020600c0154829060ff16156110e25760405162461bcd60e51b815260040161046490613276565b6000838152600160209081526040808320338452600481019092529091205460ff166111205760405162461bcd60e51b8152600401610464906130b3565b6000600182015460ff16600481111561114957634e487b7160e01b600052602160045260246000fd5b146111665760405162461bcd60e51b815260040161046490613336565b600a8101546001600160a01b031633141580611186575060028101546001145b6111a25760405162461bcd60e51b815260040161046490612e75565b60005b60028201548110156112ed57336001600160a01b03168260020182815481106111de57634e487b7160e01b600052603260045260246000fd5b6000918252602090912001546001600160a01b031614156112db5760028201805461120b90600190613433565b8154811061122957634e487b7160e01b600052603260045260246000fd5b6000918252602090912001546002830180546001600160a01b03909216918390811061126557634e487b7160e01b600052603260045260246000fd5b9060005260206000200160006101000a8154816001600160a01b0302191690836001600160a01b03160217905550816002018054806112b457634e487b7160e01b600052603160045260246000fd5b600082815260209020810160001990810180546001600160a01b03191690550190556112ed565b806112e5816134a6565b9150506111a5565b5060038082018054600019019055336000818152600480850160209081526040808420805464ffffffffff19168155600181018590556002808201869055968101859055909201839055939093528281208190559151909186916000805160206135188339815191529161136091613125565b60405180910390a350505050565b336001600160a01b037f000000000000000000000000000000000000000000000000000000000000000016146113b65760405162461bcd60e51b81526004016104649061314c565b6001600160a01b03166000908152600360205260409020805460ff19166001179055565b600581565b600081815260016020526040902054606090829081146114115760405162461bcd60e51b81526004016104649061308b565b6000838152600160209081526040918290206002018054835181840281018401909452808452909183018282801561147257602002820191906000526020600020905b81546001600160a01b03168152600190910190602001808311611454575b5050505050915050919050565b600080600080600080600080600089806001600083815260200190815260200160002060000154146114c35760405162461bcd60e51b81526004016104649061308b565b60008b8152600160205260408120600b8101549091904210156114f3574282600b01546114f09190613433565b90505b8160010160009054906101000a900460ff168260070154836008015484600b0154848660020180549050876003015488600a0160009054906101000a90046001600160a01b031689600c0160009054906101000a900460ff169b509b509b509b509b509b509b509b509b505050509193959799909294969850565b6000828152600160205260409020548290811461159d5760405162461bcd60e51b81526004016104649061308b565b6000838152600160209081526040808320338452600401909152902054839060ff166115db5760405162461bcd60e51b815260040161046490612dfa565b6000848152600160205260409020600c0154849060ff161561160f5760405162461bcd60e51b815260040161046490613276565b6000858152600160209081526040808320338452600481019092529091206002600183015460ff16600481111561165657634e487b7160e01b600052602160045260246000fd5b146116735760405162461bcd60e51b815260040161046490612f47565b81600b015442106116965760405162461bcd60e51b81526004016104649061338c565b80546301000000900460ff16156116bf5760405162461bcd60e51b815260040161046490613223565b60018610156116e05760405162461bcd60e51b81526004016104649061316f565b6002810154156117025760405162461bcd60e51b815260040161046490612ec0565b6008820154156117305781600801548610156117305760405162461bcd60e51b815260040161046490612eee565b85816001015410156117545760405162461bcd60e51b815260040161046490612e25565b6004810180546001908101909155810180548790039055600281018681556007830180548801905542600383015560088301549054111561179a57600281015460088301555b336001600160a01b031687600080516020613518833981519152886040516117c291906130dd565b60405180910390a350505050505050565b60005481565b6001600160a01b03811660009081526003602052604090205460ff165b919050565b33600090815260026020526040812054156118285760405162461bcd60e51b81526004016104649061324b565b60008054600190810180835580835260208290526040808420828155928301805460ff199081169091556009840180546001600160a01b03199081167f00000000000000000000000000000000000000000000000000000000000000006001600160a01b03811691909117909255600a86018054339216821790556003860196909655600c850180549092169091559051919384927f8946648bc1dbc670d3f07e2c4de91731227b6d4ccc53b8ab1e951e84d960577e926118ea929091612c41565b60405180910390a26118fc8233612259565b50905090565b600781565b7f000000000000000000000000000000000000000000000000000000000000000090565b600181565b603481565b600081815260016020526040812054829081146119645760405162461bcd60e51b81526004016104649061308b565b505060009081526001602052604090206003015490565b600081815260016020526040812054829081146119aa5760405162461bcd60e51b81526004016104649061308b565b60008381526001602052604090206002600182015460ff1660048111156119e157634e487b7160e01b600052602160045260246000fd5b146119f0576000925050610f7a565b60005b6002820154811015611aa6576000826002018281548110611a2457634e487b7160e01b600052603260045260246000fd5b60009182526020808320909101546001600160a01b03168083526004860190915260409091205490915060ff63010000009091041615611a645750611a94565b6001600160a01b0381166000908152600484016020526040902060020154611a925760009450505050610f7a565b505b80611a9e816134a6565b9150506119f3565b506001949350505050565b60008181526001602052604090205481908114611ae05760405162461bcd60e51b81526004016104649061308b565b6000828152600160209081526040808320338452600401909152902054829060ff16611b1e5760405162461bcd60e51b815260040161046490612dfa565b6000838152600160205260409020600c0154839060ff1615611b525760405162461bcd60e51b815260040161046490613276565b6000848152600160209081526040808320338452600481019092529091206002600183015460ff166004811115611b9957634e487b7160e01b600052602160045260246000fd5b14611bb65760405162461bcd60e51b815260040161046490612f47565b81600b01544210611bd95760405162461bcd60e51b81526004016104649061338c565b80546301000000900460ff1615611c025760405162461bcd60e51b815260040161046490613223565b6004810180546001019055805463ff0000001916630100000017815542600380830191909155820180546000190190556040513390879060008051602061351883398151915290611c5590600090612fe0565b60405180910390a3816003015460011415611d06576000611c7587612343565b6007840180546001600160a01b03831660009081526004808801602052604091829020600190810180549094019093559254918701805460ff191690931790925590519192509088907ff1898de79c348962fab7695532341027e5bceb0ea2a8785790fa7d7efeeee12990611ced9085908590612c5b565b60405180910390a2505060006007830181905560088301555b505050505050565b61012c81565b60008181526001602052604090205481908114611d435760405162461bcd60e51b81526004016104649061308b565b6000828152600160205260409020600c0154829060ff1615611d775760405162461bcd60e51b815260040161046490613276565b6000838152600160205260409020600a015483906001600160a01b03163314611db25760405162461bcd60e51b8152600401610464906132ad565b600084815260016020526040812090600182015460ff166004811115611de857634e487b7160e01b600052602160045260246000fd5b14611e055760405162461bcd60e51b815260040161046490612fa9565b6002818101541015611e295760405162461bcd60e51b815260040161046490612f1e565b611e3460784261341b565b600b8201556001808201805460ff19169091179055611e52856123f3565b611e5b8561257b565b60405185907f1a2ba96bf245728c460e13d78a1591bcb45e67de1240b6654190f8c0bbdd070090600090a25050505050565b60008181526001602052604090205481908114611ebc5760405162461bcd60e51b81526004016104649061308b565b6000828152600160205260409020600c0154829060ff1615611ef05760405162461bcd60e51b815260040161046490613276565b600083815260016020526040812090600182015460ff166004811115611f2657634e487b7160e01b600052602160045260246000fd5b14611f435760405162461bcd60e51b815260040161046490612fa9565b6002810154600511611f675760405162461bcd60e51b815260040161046490613102565b3360009081526002602052604090205415611f945760405162461bcd60e51b81526004016104649061324b565b60028082018054600181810183556000928352602080842090920180546001600160a01b03191633908117909155808452600480870184526040808620805460ff191685178155601981860155426003808301919091559281018790559690945293839020899055928501805490910190555186917f87969bc7faf902221a147b95ceba76e011c5efb0339a0a8ee7a2bb82d9cfbbd6916120359190612c2d565b60405180910390a25050505050565b601981565b6000828152600160205260409020600601546120659082612662565b6000928352600160205260409092206006019190915550565b6000818152600160209081526040808320815160348082526106a0820190935290928492908201610680803683370190505090506000805b600584015460ff8216101561212a576120cf86826121c5565b6121185780838361ffff16815181106120f857634e487b7160e01b600052603260045260246000fd5b60ff909216602092830291909101909101528161211481613484565b9250505b80612122816134c1565b9150506120b6565b5060008161ffff161161214f5760405162461bcd60e51b815260040161046490612f72565b60008161ffff164442604051602001612169929190612c1f565b6040516020818303038152906040528051906020012060001c61218c91906134e1565b9050828161ffff16815181106121b257634e487b7160e01b600052603260045260246000fd5b6020026020010151945050505050919050565b6000828152600160205260408120600601546121e19083612670565b9392505050565b600082815260016020526040902060060154612065908261267f565b6000818152600160208190526040808320918201805460ff1916600317905551909183917fcfeaa304021cfd684ad30c51a76ffd4139eb4b36c6e97d94cce4df46b71ee9779190a26122558261268c565b5050565b60008281526001602090815260408083206001600160a01b03851684526002909252909120541561228a5750612255565b60028181018054600180820183556000928352602080842090920180546001600160a01b0319166001600160a01b0388169081179091558352600480860183526040808520805460ff19168417815560198185015542600380830191909155928101869055959093529282902087905591840180549092019091555184907f87969bc7faf902221a147b95ceba76e011c5efb0339a0a8ee7a2bb82d9cfbbd690612335908690612c2d565b60405180910390a250505050565b6000818152600160205260408120815b60028201548110156123da57600082600201828154811061238457634e487b7160e01b600052603260045260246000fd5b60009182526020808320909101546001600160a01b03168083526004860190915260409091205490915060ff6301000000909104166123c75792506117f6915050565b50806123d2816134a6565b915050612353565b5060405162461bcd60e51b815260040161046490612dc3565b600081815260016020526040812090612410906005830190612b34565b6040805160348082526106a08201909252600091816020015b612431612b55565b8152602001906001900390816124295790505090506000805b60048160ff1610156124e15760025b600e8160ff16116124ce5760405180604001604052808260ff1681526020018360ff16815250848460ff16815181106124a257634e487b7160e01b600052603260045260246000fd5b602002602001018190525082806124b8906134c1565b93505080806124c6906134c1565b915050612459565b50806124d9816134c1565b91505061244a565b5060006124ed83612881565b905060005b6034811015611d06578460050182828151811061251f57634e487b7160e01b600052603260045260246000fd5b6020908102919091018101518254600181018455600093845292829020815193018054919092015160ff9081166101000261ff00199190941660ff19909216919091171691909117905580612573816134a6565b9150506124f2565b6000818152600160205260409020612592826129ab565b60005b600282015481101561265d5760008260020182815481106125c657634e487b7160e01b600052603260045260246000fd5b6000918252602080832091909101546001600160a01b0316808352600486019091526040909120805464ff00000000191664010000000060ff86160217905590508161261285826121e8565b6040516001600160a01b0383169086907fce005d12bca3b432651fa3635a44056e071a659e4c958fc7e9ad8ba2b6221a0490600090a350508080612655906134a6565b915050612595565b505050565b600160ff919091161b191690565b600160ff919091161b16151590565b600160ff919091161b1790565b6000818152600160205260408120906126a4836129c8565b905060005b60028301548110156127f05760008360020182815481106126da57634e487b7160e01b600052603260045260246000fd5b60009182526020808320909101546001600160a01b03168083526004870190915260409091205490915060ff6301000000909104161561271a57506127de565b6001600160a01b038116600090815260048501602052604081205460058601805464010000000090920460ff1692918390811061276757634e487b7160e01b600052603260045260246000fd5b6000918252602091829020604080518082018252929091015460ff8082168085526101009092041693830184905290519193506001600160a01b038616927fbdf2f0687b7c6f0b8dde29a86969ba9a1e60ce7d560dc87e0bc637aead3a8c1c926127d2929190613407565b60405180910390a25050505b806127e8816134a6565b9150506126a9565b506007820180546001600160a01b03831660009081526004808601602052604091829020600190810180549094019093559254918501805460ff1916909317909255905184907ff1898de79c348962fab7695532341027e5bceb0ea2a8785790fa7d7efeeee129906128659085908590612c5b565b60405180910390a2505060006007820181905560089091015550565b60604460006128926001603461344a565b60ff1690505b80156129a35760006128ab82600161341b565b83836040516020016128be929190612c1f565b6040516020818303038152906040528051906020012060001c6128e191906134e1565b9050600085838151811061290557634e487b7160e01b600052603260045260246000fd5b6020026020010151905085828151811061292f57634e487b7160e01b600052603260045260246000fd5b602002602001015186848151811061295757634e487b7160e01b600052603260045260246000fd5b60200260200101819052508086838151811061298357634e487b7160e01b600052603260045260246000fd5b60200260200101819052505050808061299b9061346d565b915050612898565b509192915050565b6129b3612b2f565b60009182526001602052604090912060060155565b6000818152600160205260408120818080805b6002850154811015612b24576000856002018281548110612a0c57634e487b7160e01b600052603260045260246000fd5b60009182526020808320909101546001600160a01b03168083526004890190915260409091205490915060ff63010000009091041615612a4c5750612b12565b6001600160a01b038116600090815260048701602052604081205460058801805464010000000090920460ff16929183908110612a9957634e487b7160e01b600052603260045260246000fd5b60009182526020918290206040805180820190915291015460ff8082168084526101009092048116938301939093529092509087161080612af757508560ff16816000015160ff16148015612af757508460ff16816020015160ff16115b15612b0e5780600001519550806020015194508296505b5050505b80612b1c816134a6565b9150506129db565b509195945050505050565b600090565b5080546000825590600052602060002090810190612b529190612b6c565b50565b604080518082019091526000808252602082015290565b5b80821115612b8657805461ffff19168155600101612b6d565b5090565b80356001600160a01b03811681146117f657600080fd5b600060208284031215612bb2578081fd5b6121e182612b8a565b600060208284031215612bcc578081fd5b5035919050565b60008060408385031215612be5578081fd5b82359150612bf560208401612b8a565b90509250929050565b60008060408385031215612c10578182fd5b50508035926020909101359150565b918252602082015260400190565b6001600160a01b0391909116815260200190565b6001600160a01b0392831681529116602082015260400190565b6001600160a01b03929092168252602082015260400190565b6020808252825182820181905260009190848201906040850190845b81811015612cb55783516001600160a01b031683529284019291840191600101612c90565b50909695505050505050565b901515815260200190565b95151586529315156020860152911515604085015215156060840152608083015260a082015260c00190565b610120810160058b10612d1b57634e487b7160e01b600052602160045260246000fd5b998152602081019890985260408801969096526060870194909452608086019290925260a085015260c08401526001600160a01b031660e083015215156101009091015290565b60208082526018908201527f416c726561647920757365642073776170206f7074696f6e0000000000000000604082015260600190565b60208082526010908201526f1419595ac81c1a185cd948195b99195960821b604082015260600190565b60208082526017908201527f4e6f2061637469766520706c617965727320666f756e64000000000000000000604082015260600190565b6020808252601190820152702737ba1030b1ba34bb3290383630bcb2b960791b604082015260600190565b602080825260129082015271496e73756666696369656e7420636869707360701b604082015260600190565b6020808252600a90820152692737ba1035b2b2b832b960b11b604082015260600190565b6020808252602b908201527f43726561746f722063616e2774206c656176652067616d652077697468206f7460408201526a68657220706c617965727360a81b606082015260800190565b602080825260149082015273105b1c9958591e481c1b1858d95908184818995d60621b604082015260600190565b602080825260169082015275135d5cdd081b585d18da0818dd5c9c995b9d0818995d60521b604082015260600190565b6020808252600f908201526e4e65656420322b20706c617965727360881b604082015260600190565b6020808252601190820152704e6f742062657474696e6720706861736560781b604082015260600190565b6020808252601b908201527f4e6f20617661696c61626c6520636172647320666f7220737761700000000000604082015260600190565b60208082526018908201527f47616d652068617320616c726561647920737461727465640000000000000000604082015260600190565b604080825260049082015263199bdb1960e21b6060820152602081019190915260800190565b60208082526017908201527f4d757374207065656b2061742063617264206669727374000000000000000000604082015260600190565b6040808252600490820152630737761760e41b6060820152602081019190915260800190565b6020808252600e908201526d4e6f74207065656b20706861736560901b604082015260600190565b6020808252600e908201526d11d85b59481b9bdd08199bdd5b9960921b604082015260600190565b60208082526010908201526f4e6f7420696e20746869732067616d6560801b604082015260600190565b60408082526003908201526218995d60ea1b6060820152602081019190915260800190565b60208082526009908201526811d85b5948199d5b1b60ba1b604082015260600190565b6040808252600590820152646c6561766560d81b6060820152602081019190915260800190565b6020808252600990820152682737ba1037bbb732b960b91b604082015260600190565b6020808252600d908201526c10995d081d1bdbc81cdb585b1b609a1b604082015260600190565b6020808252601a908201527f42657474696e67207068617365206e6f742066696e6973686564000000000000604082015260600190565b602080825260169082015275092dcecc2d8d2c840dccaee40c6c2e4c840d2dcc8caf60531b604082015260600190565b6040808252600490820152637065656b60e01b6060820152602081019190915260800190565b6020808252600e908201526d105b1c9958591e48199bdb19195960921b604082015260600190565b602080825260119082015270416c726561647920696e20612067616d6560781b604082015260600190565b60208082526017908201527f47616d6520616c726561647920636c65616e6564207570000000000000000000604082015260600190565b60208082526010908201526f2737ba1033b0b6b29031b932b0ba37b960811b604082015260600190565b6020808252600e908201526d105b1c9958591e481c19595ad95960921b604082015260600190565b60208082526019908201527f4e6577206361726420616c72656164792061737369676e656400000000000000604082015260600190565b60208082526014908201527311d85b5948185b1c9958591e481cdd185c9d195960621b604082015260600190565b6020808252600e908201526d11d85b59481b9bdd08195b99195960921b604082015260600190565b60208082526013908201527210995d1d1a5b99c81c1a185cd948195b991959606a1b604082015260600190565b60208082526017908201527f5065656b207068617365206e6f742066696e6973686564000000000000000000604082015260600190565b90815260200190565b60ff91909116815260200190565b60ff92831681529116602082015260400190565b6000821982111561342e5761342e613501565b500190565b60008282101561344557613445613501565b500390565b600060ff821660ff84168082101561346457613464613501565b90039392505050565b60008161347c5761347c613501565b506000190190565b600061ffff8083168181141561349c5761349c613501565b6001019392505050565b60006000198214156134ba576134ba613501565b5060010190565b600060ff821660ff8114156134d8576134d8613501565b60010192915050565b6000826134fc57634e487b7160e01b81526012600452602481fd5b500690565b634e487b7160e01b600052601160045260246000fdfef3d4f57e05aae06b4017c0b2ed81f62aa6f19deef046d6a78ad2a4223858c4f0a264697066735822122068e9aa47d11b68796542a148066a0bce6ead5705b991ccdb0734b622c52bcfd564736f6c63430008000033","opcodes":"PUSH1 0xA0 PUSH1 0x40 MSTORE CALLVALUE DUP1 ISZERO PUSH2 0x10 JUMPI PUSH1 0x0 DUP1 REVERT JUMPDEST POP CALLER PUSH1 0x60 DUP2 SWAP1 SHL PUSH1 0x80 MSTORE PUSH1 0x0 DUP2 DUP2 MSTORE PUSH1 0x3 PUSH1 0x20 MSTORE PUSH1 0x40 DUP2 KECCAK256 DUP1 SLOAD PUSH1 0xFF NOT AND PUSH1 0x1 OR SWAP1 SSTORE PUSH2 0x356D SWAP1 PUSH2 0x60 SWAP1 CODECOPY PUSH1 0x0 DUP2 DUP2 PUSH2 0x709 ADD MSTORE DUP2 DUP2 PUSH2 0x1379 ADD MSTORE DUP2 DUP2 PUSH2 0x1866 ADD MSTORE PUSH2 0x1909 ADD MSTORE PUSH2 0x356D PUSH1 0x0 RETURN INVALID PUSH1 0x80 PUSH1 0x40 MSTORE CALLVALUE DUP1 ISZERO PUSH2 0x10 JUMPI PUSH1 0x0 DUP1 REVERT JUMPDEST POP PUSH1 0x4 CALLDATASIZE LT PUSH2 0x1E4 JUMPI PUSH1 0x0 CALLDATALOAD PUSH1 0xE0 SHR DUP1 PUSH4 0x4AFE62B5 GT PUSH2 0x10F JUMPI DUP1 PUSH4 0x9C861BC5 GT PUSH2 0xA2 JUMPI DUP1 PUSH4 0xC493153A GT PUSH2 0x71 JUMPI DUP1 PUSH4 0xC493153A EQ PUSH2 0x3FA JUMPI DUP1 PUSH4 0xE5ED1D59 EQ PUSH2 0x402 JUMPI DUP1 PUSH4 0xEFAA55A0 EQ PUSH2 0x415 JUMPI DUP1 PUSH4 0xFC2217C4 EQ PUSH2 0x428 JUMPI PUSH2 0x1E4 JUMP JUMPDEST DUP1 PUSH4 0x9C861BC5 EQ PUSH2 0x3B9 JUMPI DUP1 PUSH4 0xA410274C EQ PUSH2 0x3C1 JUMPI DUP1 PUSH4 0xBA3A9520 EQ PUSH2 0x3D4 JUMPI DUP1 PUSH4 0xBFF7A00B EQ PUSH2 0x3E7 JUMPI PUSH2 0x1E4 JUMP JUMPDEST DUP1 PUSH4 0x7255D729 GT PUSH2 0xDE JUMPI DUP1 PUSH4 0x7255D729 EQ PUSH2 0x38C JUMPI DUP1 PUSH4 0x768AEBDE EQ PUSH2 0x394 JUMPI DUP1 PUSH4 0x8DA5CB5B EQ PUSH2 0x39C JUMPI DUP1 PUSH4 0x935AAE40 EQ PUSH2 0x3B1 JUMPI PUSH2 0x1E4 JUMP JUMPDEST DUP1 PUSH4 0x4AFE62B5 EQ PUSH2 0x349 JUMPI DUP1 PUSH4 0x536A3DDC EQ PUSH2 0x35C JUMPI DUP1 PUSH4 0x5D27E072 EQ PUSH2 0x364 JUMPI DUP1 PUSH4 0x6BA42AAA EQ PUSH2 0x36C JUMPI PUSH2 0x1E4 JUMP JUMPDEST DUP1 PUSH4 0x342ED956 GT PUSH2 0x187 JUMPI DUP1 PUSH4 0x4032B72B GT PUSH2 0x156 JUMPI DUP1 PUSH4 0x4032B72B EQ PUSH2 0x2E6 JUMPI DUP1 PUSH4 0x4411B3EB EQ PUSH2 0x2F9 JUMPI DUP1 PUSH4 0x460E2049 EQ PUSH2 0x30E JUMPI DUP1 PUSH4 0x47E1D550 EQ PUSH2 0x321 JUMPI PUSH2 0x1E4 JUMP JUMPDEST DUP1 PUSH4 0x342ED956 EQ PUSH2 0x27B JUMPI DUP1 PUSH4 0x3A5FF200 EQ PUSH2 0x29B JUMPI DUP1 PUSH4 0x3CCD10E9 EQ PUSH2 0x2AE JUMPI DUP1 PUSH4 0x3FEEF58A EQ PUSH2 0x2D3 JUMPI PUSH2 0x1E4 JUMP JUMPDEST DUP1 PUSH4 0x14AE9F2E GT PUSH2 0x1C3 JUMPI DUP1 PUSH4 0x14AE9F2E EQ PUSH2 0x22F JUMPI DUP1 PUSH4 0x26502648 EQ PUSH2 0x242 JUMPI DUP1 PUSH4 0x30BE62B2 EQ PUSH2 0x255 JUMPI DUP1 PUSH4 0x318FF5D1 EQ PUSH2 0x268 JUMPI PUSH2 0x1E4 JUMP JUMPDEST DUP1 PUSH3 0x28E6E EQ PUSH2 0x1E9 JUMPI DUP1 PUSH4 0x9734764 EQ PUSH2 0x207 JUMPI DUP1 PUSH4 0xAA40018 EQ PUSH2 0x21C JUMPI JUMPDEST PUSH1 0x0 DUP1 REVERT JUMPDEST PUSH2 0x1F1 PUSH2 0x430 JUMP JUMPDEST PUSH1 0x40 MLOAD PUSH2 0x1FE SWAP2 SWAP1 PUSH2 0x33F0 JUMP JUMPDEST PUSH1 0x40 MLOAD DUP1 SWAP2 SUB SWAP1 RETURN JUMPDEST PUSH2 0x21A PUSH2 0x215 CALLDATASIZE PUSH1 0x4 PUSH2 0x2BBB JUMP JUMPDEST PUSH2 0x435 JUMP JUMPDEST STOP JUMPDEST PUSH2 0x21A PUSH2 0x22A CALLDATASIZE PUSH1 0x4 PUSH2 0x2BBB JUMP JUMPDEST PUSH2 0x59B JUMP JUMPDEST PUSH2 0x21A PUSH2 0x23D CALLDATASIZE PUSH1 0x4 PUSH2 0x2BA1 JUMP JUMPDEST PUSH2 0x6FE JUMP JUMPDEST PUSH2 0x21A PUSH2 0x250 CALLDATASIZE PUSH1 0x4 PUSH2 0x2BBB JUMP JUMPDEST PUSH2 0x767 JUMP JUMPDEST PUSH2 0x21A PUSH2 0x263 CALLDATASIZE PUSH1 0x4 PUSH2 0x2BBB JUMP JUMPDEST PUSH2 0xA42 JUMP JUMPDEST PUSH2 0x21A PUSH2 0x276 CALLDATASIZE PUSH1 0x4 PUSH2 0x2BBB JUMP JUMPDEST PUSH2 0xB5B JUMP JUMPDEST PUSH2 0x28E PUSH2 0x289 CALLDATASIZE PUSH1 0x4 PUSH2 0x2BBB JUMP JUMPDEST PUSH2 0xDFB JUMP JUMPDEST PUSH1 0x40 MLOAD PUSH2 0x1FE SWAP2 SWAP1 PUSH2 0x2C74 JUMP JUMPDEST PUSH2 0x1F1 PUSH2 0x2A9 CALLDATASIZE PUSH1 0x4 PUSH2 0x2BA1 JUMP JUMPDEST PUSH2 0xF80 JUMP JUMPDEST PUSH2 0x2C1 PUSH2 0x2BC CALLDATASIZE PUSH1 0x4 PUSH2 0x2BD3 JUMP JUMPDEST PUSH2 0xF92 JUMP JUMPDEST PUSH1 0x40 MLOAD PUSH2 0x1FE SWAP7 SWAP6 SWAP5 SWAP4 SWAP3 SWAP2 SWAP1 PUSH2 0x2CCC JUMP JUMPDEST PUSH2 0x21A PUSH2 0x2E1 CALLDATASIZE PUSH1 0x4 PUSH2 0x2BBB JUMP JUMPDEST PUSH2 0x107F JUMP JUMPDEST PUSH2 0x21A PUSH2 0x2F4 CALLDATASIZE PUSH1 0x4 PUSH2 0x2BA1 JUMP JUMPDEST PUSH2 0x136E JUMP JUMPDEST PUSH2 0x301 PUSH2 0x13DA JUMP JUMPDEST PUSH1 0x40 MLOAD PUSH2 0x1FE SWAP2 SWAP1 PUSH2 0x33F9 JUMP JUMPDEST PUSH2 0x28E PUSH2 0x31C CALLDATASIZE PUSH1 0x4 PUSH2 0x2BBB JUMP JUMPDEST PUSH2 0x13DF JUMP JUMPDEST PUSH2 0x334 PUSH2 0x32F CALLDATASIZE PUSH1 0x4 PUSH2 0x2BBB JUMP JUMPDEST PUSH2 0x147F JUMP JUMPDEST PUSH1 0x40 MLOAD PUSH2 0x1FE SWAP10 SWAP9 SWAP8 SWAP7 SWAP6 SWAP5 SWAP4 SWAP3 SWAP2 SWAP1 PUSH2 0x2CF8 JUMP JUMPDEST PUSH2 0x21A PUSH2 0x357 CALLDATASIZE PUSH1 0x4 PUSH2 0x2BFE JUMP JUMPDEST PUSH2 0x156E JUMP JUMPDEST PUSH2 0x1F1 PUSH2 0x17D3 JUMP JUMPDEST PUSH2 0x1F1 PUSH2 0x13DA JUMP JUMPDEST PUSH2 0x37F PUSH2 0x37A CALLDATASIZE PUSH1 0x4 PUSH2 0x2BA1 JUMP JUMPDEST PUSH2 0x17D9 JUMP JUMPDEST PUSH1 0x40 MLOAD PUSH2 0x1FE SWAP2 SWAP1 PUSH2 0x2CC1 JUMP JUMPDEST PUSH2 0x1F1 PUSH2 0x17FB JUMP JUMPDEST PUSH2 0x1F1 PUSH2 0x1902 JUMP JUMPDEST PUSH2 0x3A4 PUSH2 0x1907 JUMP JUMPDEST PUSH1 0x40 MLOAD PUSH2 0x1FE SWAP2 SWAP1 PUSH2 0x2C2D JUMP JUMPDEST PUSH2 0x1F1 PUSH2 0x192B JUMP JUMPDEST PUSH2 0x301 PUSH2 0x1930 JUMP JUMPDEST PUSH2 0x1F1 PUSH2 0x3CF CALLDATASIZE PUSH1 0x4 PUSH2 0x2BBB JUMP JUMPDEST PUSH2 0x1935 JUMP JUMPDEST PUSH2 0x37F PUSH2 0x3E2 CALLDATASIZE PUSH1 0x4 PUSH2 0x2BBB JUMP JUMPDEST PUSH2 0x197B JUMP JUMPDEST PUSH2 0x21A PUSH2 0x3F5 CALLDATASIZE PUSH1 0x4 PUSH2 0x2BBB JUMP JUMPDEST PUSH2 0x1AB1 JUMP JUMPDEST PUSH2 0x1F1 PUSH2 0x1D0E JUMP JUMPDEST PUSH2 0x21A PUSH2 0x410 CALLDATASIZE PUSH1 0x4 PUSH2 0x2BBB JUMP JUMPDEST PUSH2 0x1D14 JUMP JUMPDEST PUSH2 0x21A PUSH2 0x423 CALLDATASIZE PUSH1 0x4 PUSH2 0x2BBB JUMP JUMPDEST PUSH2 0x1E8D JUMP JUMPDEST PUSH2 0x1F1 PUSH2 0x2044 JUMP JUMPDEST PUSH1 0x78 DUP2 JUMP JUMPDEST CALLER PUSH1 0x0 SWAP1 DUP2 MSTORE PUSH1 0x3 PUSH1 0x20 MSTORE PUSH1 0x40 SWAP1 KECCAK256 SLOAD PUSH1 0xFF AND PUSH2 0x46D JUMPI PUSH1 0x40 MLOAD PUSH3 0x461BCD PUSH1 0xE5 SHL DUP2 MSTORE PUSH1 0x4 ADD PUSH2 0x464 SWAP1 PUSH2 0x2E51 JUMP JUMPDEST PUSH1 0x40 MLOAD DUP1 SWAP2 SUB SWAP1 REVERT JUMPDEST PUSH1 0x0 DUP2 DUP2 MSTORE PUSH1 0x1 PUSH1 0x20 MSTORE PUSH1 0x40 SWAP1 KECCAK256 SLOAD DUP2 SWAP1 DUP2 EQ PUSH2 0x49C JUMPI PUSH1 0x40 MLOAD PUSH3 0x461BCD PUSH1 0xE5 SHL DUP2 MSTORE PUSH1 0x4 ADD PUSH2 0x464 SWAP1 PUSH2 0x308B JUMP JUMPDEST PUSH1 0x0 DUP3 DUP2 MSTORE PUSH1 0x1 PUSH1 0x20 MSTORE PUSH1 0x40 SWAP1 KECCAK256 PUSH1 0xC ADD SLOAD DUP3 SWAP1 PUSH1 0xFF AND ISZERO PUSH2 0x4D0 JUMPI PUSH1 0x40 MLOAD PUSH3 0x461BCD PUSH1 0xE5 SHL DUP2 MSTORE PUSH1 0x4 ADD PUSH2 0x464 SWAP1 PUSH2 0x3276 JUMP JUMPDEST PUSH1 0x0 DUP4 DUP2 MSTORE PUSH1 0x1 PUSH1 0x20 DUP2 SWAP1 MSTORE PUSH1 0x40 SWAP1 SWAP2 KECCAK256 SWAP1 PUSH1 0x1 DUP3 ADD SLOAD PUSH1 0xFF AND PUSH1 0x4 DUP2 GT ISZERO PUSH2 0x509 JUMPI PUSH4 0x4E487B71 PUSH1 0xE0 SHL PUSH1 0x0 MSTORE PUSH1 0x21 PUSH1 0x4 MSTORE PUSH1 0x24 PUSH1 0x0 REVERT JUMPDEST EQ PUSH2 0x526 JUMPI PUSH1 0x40 MLOAD PUSH3 0x461BCD PUSH1 0xE5 SHL DUP2 MSTORE PUSH1 0x4 ADD PUSH2 0x464 SWAP1 PUSH2 0x3063 JUMP JUMPDEST DUP1 PUSH1 0xB ADD SLOAD TIMESTAMP LT ISZERO PUSH2 0x54A JUMPI PUSH1 0x40 MLOAD PUSH3 0x461BCD PUSH1 0xE5 SHL DUP2 MSTORE PUSH1 0x4 ADD PUSH2 0x464 SWAP1 PUSH2 0x33B9 JUMP JUMPDEST PUSH2 0x556 PUSH2 0x12C TIMESTAMP PUSH2 0x341B JUMP JUMPDEST PUSH1 0xB DUP3 ADD SSTORE PUSH1 0x1 DUP2 ADD DUP1 SLOAD PUSH1 0xFF NOT AND PUSH1 0x2 OR SWAP1 SSTORE PUSH1 0x40 MLOAD DUP5 SWAP1 PUSH32 0x359AD7E63DB5F06F70341A18E68DBA0EF153EF9ADBFF2AF9293FC13DAF6FC095 SWAP1 PUSH1 0x0 SWAP1 LOG2 POP POP POP POP JUMP JUMPDEST CALLER PUSH1 0x0 SWAP1 DUP2 MSTORE PUSH1 0x3 PUSH1 0x20 MSTORE PUSH1 0x40 SWAP1 KECCAK256 SLOAD PUSH1 0xFF AND PUSH2 0x5CA JUMPI PUSH1 0x40 MLOAD PUSH3 0x461BCD PUSH1 0xE5 SHL DUP2 MSTORE PUSH1 0x4 ADD PUSH2 0x464 SWAP1 PUSH2 0x2E51 JUMP JUMPDEST PUSH1 0x0 DUP2 DUP2 MSTORE PUSH1 0x1 PUSH1 0x20 MSTORE PUSH1 0x40 SWAP1 KECCAK256 SLOAD DUP2 SWAP1 DUP2 EQ PUSH2 0x5F9 JUMPI PUSH1 0x40 MLOAD PUSH3 0x461BCD PUSH1 0xE5 SHL DUP2 MSTORE PUSH1 0x4 ADD PUSH2 0x464 SWAP1 PUSH2 0x308B JUMP JUMPDEST PUSH1 0x0 DUP3 DUP2 MSTORE PUSH1 0x1 PUSH1 0x20 MSTORE PUSH1 0x40 SWAP1 KECCAK256 PUSH1 0xC ADD SLOAD DUP3 SWAP1 PUSH1 0xFF AND ISZERO PUSH2 0x62D JUMPI PUSH1 0x40 MLOAD PUSH3 0x461BCD PUSH1 0xE5 SHL DUP2 MSTORE PUSH1 0x4 ADD PUSH2 0x464 SWAP1 PUSH2 0x3276 JUMP JUMPDEST PUSH1 0x0 DUP4 DUP2 MSTORE PUSH1 0x1 PUSH1 0x20 MSTORE PUSH1 0x40 SWAP1 KECCAK256 PUSH1 0x4 PUSH1 0x1 DUP3 ADD SLOAD PUSH1 0xFF AND PUSH1 0x4 DUP2 GT ISZERO PUSH2 0x664 JUMPI PUSH4 0x4E487B71 PUSH1 0xE0 SHL PUSH1 0x0 MSTORE PUSH1 0x21 PUSH1 0x4 MSTORE PUSH1 0x24 PUSH1 0x0 REVERT JUMPDEST EQ PUSH2 0x681 JUMPI PUSH1 0x40 MLOAD PUSH3 0x461BCD PUSH1 0xE5 SHL DUP2 MSTORE PUSH1 0x4 ADD PUSH2 0x464 SWAP1 PUSH2 0x3364 JUMP JUMPDEST PUSH1 0x0 JUMPDEST PUSH1 0x2 DUP3 ADD SLOAD DUP2 LT ISZERO PUSH2 0x6EA JUMPI PUSH1 0x0 DUP3 PUSH1 0x2 ADD DUP3 DUP2 SLOAD DUP2 LT PUSH2 0x6B5 JUMPI PUSH4 0x4E487B71 PUSH1 0xE0 SHL PUSH1 0x0 MSTORE PUSH1 0x32 PUSH1 0x4 MSTORE PUSH1 0x24 PUSH1 0x0 REVERT JUMPDEST PUSH1 0x0 SWAP2 DUP3 MSTORE PUSH1 0x20 DUP1 DUP4 KECCAK256 SWAP1 SWAP2 ADD SLOAD PUSH1 0x1 PUSH1 0x1 PUSH1 0xA0 SHL SUB AND DUP3 MSTORE PUSH1 0x2 SWAP1 MSTORE PUSH1 0x40 DUP2 KECCAK256 SSTORE POP DUP1 PUSH2 0x6E2 DUP2 PUSH2 0x34A6 JUMP JUMPDEST SWAP2 POP POP PUSH2 0x684 JUMP JUMPDEST POP PUSH1 0xC ADD DUP1 SLOAD PUSH1 0xFF NOT AND PUSH1 0x1 OR SWAP1 SSTORE POP POP POP JUMP JUMPDEST CALLER PUSH1 0x1 PUSH1 0x1 PUSH1 0xA0 SHL SUB PUSH32 0x0 AND EQ PUSH2 0x746 JUMPI PUSH1 0x40 MLOAD PUSH3 0x461BCD PUSH1 0xE5 SHL DUP2 MSTORE PUSH1 0x4 ADD PUSH2 0x464 SWAP1 PUSH2 0x314C JUMP JUMPDEST PUSH1 0x1 PUSH1 0x1 PUSH1 0xA0 SHL SUB AND PUSH1 0x0 SWAP1 DUP2 MSTORE PUSH1 0x3 PUSH1 0x20 MSTORE PUSH1 0x40 SWAP1 KECCAK256 DUP1 SLOAD PUSH1 0xFF NOT AND SWAP1 SSTORE JUMP JUMPDEST PUSH1 0x0 DUP2 DUP2 MSTORE PUSH1 0x1 PUSH1 0x20 MSTORE PUSH1 0x40 SWAP1 KECCAK256 SLOAD DUP2 SWAP1 DUP2 EQ PUSH2 0x796 JUMPI PUSH1 0x40 MLOAD PUSH3 0x461BCD PUSH1 0xE5 SHL DUP2 MSTORE PUSH1 0x4 ADD PUSH2 0x464 SWAP1 PUSH2 0x308B JUMP JUMPDEST PUSH1 0x0 DUP3 DUP2 MSTORE PUSH1 0x1 PUSH1 0x20 SWAP1 DUP2 MSTORE PUSH1 0x40 DUP1 DUP4 KECCAK256 CALLER DUP5 MSTORE PUSH1 0x4 ADD SWAP1 SWAP2 MSTORE SWAP1 KECCAK256 SLOAD DUP3 SWAP1 PUSH1 0xFF AND PUSH2 0x7D4 JUMPI PUSH1 0x40 MLOAD PUSH3 0x461BCD PUSH1 0xE5 SHL DUP2 MSTORE PUSH1 0x4 ADD PUSH2 0x464 SWAP1 PUSH2 0x2DFA JUMP JUMPDEST PUSH1 0x0 DUP4 DUP2 MSTORE PUSH1 0x1 PUSH1 0x20 MSTORE PUSH1 0x40 SWAP1 KECCAK256 PUSH1 0xC ADD SLOAD DUP4 SWAP1 PUSH1 0xFF AND ISZERO PUSH2 0x808 JUMPI PUSH1 0x40 MLOAD PUSH3 0x461BCD PUSH1 0xE5 SHL DUP2 MSTORE PUSH1 0x4 ADD PUSH2 0x464 SWAP1 PUSH2 0x3276 JUMP JUMPDEST PUSH1 0x0 DUP5 DUP2 MSTORE PUSH1 0x1 PUSH1 0x20 DUP2 DUP2 MSTORE PUSH1 0x40 DUP1 DUP5 KECCAK256 CALLER DUP6 MSTORE PUSH1 0x4 DUP2 ADD SWAP1 SWAP3 MSTORE SWAP1 SWAP3 KECCAK256 SWAP1 PUSH1 0x1 DUP4 ADD SLOAD PUSH1 0xFF AND PUSH1 0x4 DUP2 GT ISZERO PUSH2 0x84E JUMPI PUSH4 0x4E487B71 PUSH1 0xE0 SHL PUSH1 0x0 MSTORE PUSH1 0x21 PUSH1 0x4 MSTORE PUSH1 0x24 PUSH1 0x0 REVERT JUMPDEST EQ PUSH2 0x86B JUMPI PUSH1 0x40 MLOAD PUSH3 0x461BCD PUSH1 0xE5 SHL DUP2 MSTORE PUSH1 0x4 ADD PUSH2 0x464 SWAP1 PUSH2 0x3063 JUMP JUMPDEST DUP2 PUSH1 0xB ADD SLOAD TIMESTAMP LT PUSH2 0x88E JUMPI PUSH1 0x40 MLOAD PUSH3 0x461BCD PUSH1 0xE5 SHL DUP2 MSTORE PUSH1 0x4 ADD PUSH2 0x464 SWAP1 PUSH2 0x2D99 JUMP JUMPDEST DUP1 SLOAD PUSH2 0x100 SWAP1 DIV PUSH1 0xFF AND PUSH2 0x8B4 JUMPI PUSH1 0x40 MLOAD PUSH3 0x461BCD PUSH1 0xE5 SHL DUP2 MSTORE PUSH1 0x4 ADD PUSH2 0x464 SWAP1 PUSH2 0x3006 JUMP JUMPDEST DUP1 SLOAD PUSH3 0x10000 SWAP1 DIV PUSH1 0xFF AND ISZERO PUSH2 0x8DC JUMPI PUSH1 0x40 MLOAD PUSH3 0x461BCD PUSH1 0xE5 SHL DUP2 MSTORE PUSH1 0x4 ADD PUSH2 0x464 SWAP1 PUSH2 0x2D62 JUMP JUMPDEST PUSH1 0x7 DUP2 PUSH1 0x1 ADD SLOAD LT ISZERO PUSH2 0x901 JUMPI PUSH1 0x40 MLOAD PUSH3 0x461BCD PUSH1 0xE5 SHL DUP2 MSTORE PUSH1 0x4 ADD PUSH2 0x464 SWAP1 PUSH2 0x2E25 JUMP JUMPDEST PUSH1 0x1 DUP1 DUP3 ADD DUP1 SLOAD PUSH1 0x6 NOT ADD SWAP1 SSTORE DUP2 SLOAD PUSH3 0xFF0000 NOT AND PUSH3 0x10000 OR DUP1 DUP4 SSTORE TIMESTAMP PUSH1 0x3 DUP5 ADD SSTORE PUSH1 0x4 DUP4 ADD DUP1 SLOAD SWAP1 SWAP3 ADD SWAP1 SWAP2 SSTORE PUSH5 0x100000000 SWAP1 DIV PUSH1 0xFF AND PUSH2 0x945 DUP8 DUP3 PUSH2 0x2049 JUMP JUMPDEST PUSH1 0x0 PUSH2 0x950 DUP9 PUSH2 0x207E JUMP JUMPDEST SWAP1 POP PUSH1 0x0 DUP2 PUSH1 0xFF AND GT DUP1 ISZERO PUSH2 0x968 JUMPI POP PUSH1 0x34 PUSH1 0xFF DUP3 AND LT JUMPDEST PUSH2 0x984 JUMPI PUSH1 0x40 MLOAD PUSH3 0x461BCD PUSH1 0xE5 SHL DUP2 MSTORE PUSH1 0x4 ADD PUSH2 0x464 SWAP1 PUSH2 0x31CD JUMP JUMPDEST PUSH2 0x98E DUP9 DUP3 PUSH2 0x21C5 JUMP JUMPDEST ISZERO PUSH2 0x9AB JUMPI PUSH1 0x40 MLOAD PUSH3 0x461BCD PUSH1 0xE5 SHL DUP2 MSTORE PUSH1 0x4 ADD PUSH2 0x464 SWAP1 PUSH2 0x32FF JUMP JUMPDEST PUSH2 0x9B5 DUP9 DUP3 PUSH2 0x21E8 JUMP JUMPDEST DUP3 SLOAD PUSH5 0xFF00000000 NOT AND PUSH5 0x100000000 PUSH1 0xFF DUP4 AND MUL OR DUP4 SSTORE PUSH1 0x40 MLOAD DUP9 SWAP1 PUSH32 0x885764703E2AEFC4846EBB38D0F5DA9044C8ADE279E4FA2F48F13D993F5FB3BF SWAP1 PUSH2 0x9FF SWAP1 CALLER SWAP1 PUSH2 0x2C2D JUMP JUMPDEST PUSH1 0x40 MLOAD DUP1 SWAP2 SUB SWAP1 LOG2 CALLER PUSH1 0x1 PUSH1 0x1 PUSH1 0xA0 SHL SUB AND DUP9 PUSH1 0x0 DUP1 MLOAD PUSH1 0x20 PUSH2 0x3518 DUP4 CODECOPY DUP2 MLOAD SWAP2 MSTORE PUSH1 0x7 PUSH1 0x40 MLOAD PUSH2 0xA30 SWAP2 SWAP1 PUSH2 0x303D JUMP JUMPDEST PUSH1 0x40 MLOAD DUP1 SWAP2 SUB SWAP1 LOG3 POP POP POP POP POP POP POP POP JUMP JUMPDEST CALLER PUSH1 0x0 SWAP1 DUP2 MSTORE PUSH1 0x3 PUSH1 0x20 MSTORE PUSH1 0x40 SWAP1 KECCAK256 SLOAD PUSH1 0xFF AND PUSH2 0xA71 JUMPI PUSH1 0x40 MLOAD PUSH3 0x461BCD PUSH1 0xE5 SHL DUP2 MSTORE PUSH1 0x4 ADD PUSH2 0x464 SWAP1 PUSH2 0x2E51 JUMP JUMPDEST PUSH1 0x0 DUP2 DUP2 MSTORE PUSH1 0x1 PUSH1 0x20 MSTORE PUSH1 0x40 SWAP1 KECCAK256 SLOAD DUP2 SWAP1 DUP2 EQ PUSH2 0xAA0 JUMPI PUSH1 0x40 MLOAD PUSH3 0x461BCD PUSH1 0xE5 SHL DUP2 MSTORE PUSH1 0x4 ADD PUSH2 0x464 SWAP1 PUSH2 0x308B JUMP JUMPDEST PUSH1 0x0 DUP3 DUP2 MSTORE PUSH1 0x1 PUSH1 0x20 MSTORE PUSH1 0x40 SWAP1 KECCAK256 PUSH1 0xC ADD SLOAD DUP3 SWAP1 PUSH1 0xFF AND ISZERO PUSH2 0xAD4 JUMPI PUSH1 0x40 MLOAD PUSH3 0x461BCD PUSH1 0xE5 SHL DUP2 MSTORE PUSH1 0x4 ADD PUSH2 0x464 SWAP1 PUSH2 0x3276 JUMP JUMPDEST PUSH1 0x0 DUP4 DUP2 MSTORE PUSH1 0x1 PUSH1 0x20 MSTORE PUSH1 0x40 SWAP1 KECCAK256 PUSH1 0x2 PUSH1 0x1 DUP3 ADD SLOAD PUSH1 0xFF AND PUSH1 0x4 DUP2 GT ISZERO PUSH2 0xB0B JUMPI PUSH4 0x4E487B71 PUSH1 0xE0 SHL PUSH1 0x0 MSTORE PUSH1 0x21 PUSH1 0x4 MSTORE PUSH1 0x24 PUSH1 0x0 REVERT JUMPDEST EQ PUSH2 0xB28 JUMPI PUSH1 0x40 MLOAD PUSH3 0x461BCD PUSH1 0xE5 SHL DUP2 MSTORE PUSH1 0x4 ADD PUSH2 0x464 SWAP1 PUSH2 0x2F47 JUMP JUMPDEST DUP1 PUSH1 0xB ADD SLOAD TIMESTAMP LT ISZERO PUSH2 0xB4C JUMPI PUSH1 0x40 MLOAD PUSH3 0x461BCD PUSH1 0xE5 SHL DUP2 MSTORE PUSH1 0x4 ADD PUSH2 0x464 SWAP1 PUSH2 0x3196 JUMP JUMPDEST PUSH2 0xB55 DUP5 PUSH2 0x2204 JUMP JUMPDEST POP POP POP POP JUMP JUMPDEST PUSH1 0x0 DUP2 DUP2 MSTORE PUSH1 0x1 PUSH1 0x20 MSTORE PUSH1 0x40 SWAP1 KECCAK256 SLOAD DUP2 SWAP1 DUP2 EQ PUSH2 0xB8A JUMPI PUSH1 0x40 MLOAD PUSH3 0x461BCD PUSH1 0xE5 SHL DUP2 MSTORE PUSH1 0x4 ADD PUSH2 0x464 SWAP1 PUSH2 0x308B JUMP JUMPDEST PUSH1 0x0 DUP3 DUP2 MSTORE PUSH1 0x1 PUSH1 0x20 SWAP1 DUP2 MSTORE PUSH1 0x40 DUP1 DUP4 KECCAK256 CALLER DUP5 MSTORE PUSH1 0x4 ADD SWAP1 SWAP2 MSTORE SWAP1 KECCAK256 SLOAD DUP3 SWAP1 PUSH1 0xFF AND PUSH2 0xBC8 JUMPI PUSH1 0x40 MLOAD PUSH3 0x461BCD PUSH1 0xE5 SHL DUP2 MSTORE PUSH1 0x4 ADD PUSH2 0x464 SWAP1 PUSH2 0x2DFA JUMP JUMPDEST PUSH1 0x0 DUP4 DUP2 MSTORE PUSH1 0x1 PUSH1 0x20 MSTORE PUSH1 0x40 SWAP1 KECCAK256 PUSH1 0xC ADD SLOAD DUP4 SWAP1 PUSH1 0xFF AND ISZERO PUSH2 0xBFC JUMPI PUSH1 0x40 MLOAD PUSH3 0x461BCD PUSH1 0xE5 SHL DUP2 MSTORE PUSH1 0x4 ADD PUSH2 0x464 SWAP1 PUSH2 0x3276 JUMP JUMPDEST PUSH1 0x0 DUP5 DUP2 MSTORE PUSH1 0x1 PUSH1 0x20 DUP2 DUP2 MSTORE PUSH1 0x40 DUP1 DUP5 KECCAK256 CALLER DUP6 MSTORE PUSH1 0x4 DUP2 ADD SWAP1 SWAP3 MSTORE SWAP1 SWAP3 KECCAK256 SWAP1 PUSH1 0x1 DUP4 ADD SLOAD PUSH1 0xFF AND PUSH1 0x4 DUP2 GT ISZERO PUSH2 0xC42 JUMPI PUSH4 0x4E487B71 PUSH1 0xE0 SHL PUSH1 0x0 MSTORE PUSH1 0x21 PUSH1 0x4 MSTORE PUSH1 0x24 PUSH1 0x0 REVERT JUMPDEST EQ PUSH2 0xC5F JUMPI PUSH1 0x40 MLOAD PUSH3 0x461BCD PUSH1 0xE5 SHL DUP2 MSTORE PUSH1 0x4 ADD PUSH2 0x464 SWAP1 PUSH2 0x3063 JUMP JUMPDEST DUP2 PUSH1 0xB ADD SLOAD TIMESTAMP LT PUSH2 0xC82 JUMPI PUSH1 0x40 MLOAD PUSH3 0x461BCD PUSH1 0xE5 SHL DUP2 MSTORE PUSH1 0x4 ADD PUSH2 0x464 SWAP1 PUSH2 0x2D99 JUMP JUMPDEST DUP1 SLOAD PUSH2 0x100 SWAP1 DIV PUSH1 0xFF AND ISZERO PUSH2 0xCA9 JUMPI PUSH1 0x40 MLOAD PUSH3 0x461BCD PUSH1 0xE5 SHL DUP2 MSTORE PUSH1 0x4 ADD PUSH2 0x464 SWAP1 PUSH2 0x32D7 JUMP JUMPDEST PUSH1 0x5 DUP2 PUSH1 0x1 ADD SLOAD LT ISZERO PUSH2 0xCCE JUMPI PUSH1 0x40 MLOAD PUSH3 0x461BCD PUSH1 0xE5 SHL DUP2 MSTORE PUSH1 0x4 ADD PUSH2 0x464 SWAP1 PUSH2 0x2E25 JUMP JUMPDEST PUSH1 0x1 DUP1 DUP3 ADD DUP1 SLOAD PUSH1 0x4 NOT ADD SWAP1 SSTORE DUP2 SLOAD PUSH2 0xFF00 NOT AND PUSH2 0x100 OR DUP1 DUP4 SSTORE TIMESTAMP PUSH1 0x3 DUP5 ADD SSTORE PUSH1 0x4 DUP4 ADD DUP1 SLOAD SWAP1 SWAP3 ADD SWAP1 SWAP2 SSTORE PUSH1 0x5 DUP4 ADD DUP1 SLOAD PUSH5 0x100000000 SWAP1 SWAP3 DIV PUSH1 0xFF AND SWAP2 PUSH1 0x0 SWAP2 SWAP1 DUP4 SWAP1 DUP2 LT PUSH2 0xD30 JUMPI PUSH4 0x4E487B71 PUSH1 0xE0 SHL PUSH1 0x0 MSTORE PUSH1 0x32 PUSH1 0x4 MSTORE PUSH1 0x24 PUSH1 0x0 REVERT JUMPDEST PUSH1 0x0 SWAP2 DUP3 MSTORE PUSH1 0x20 SWAP2 DUP3 SWAP1 KECCAK256 PUSH1 0x40 DUP1 MLOAD DUP1 DUP3 ADD DUP3 MSTORE SWAP3 SWAP1 SWAP2 ADD SLOAD PUSH1 0xFF DUP1 DUP3 AND DUP1 DUP6 MSTORE PUSH2 0x100 SWAP1 SWAP3 DIV AND SWAP4 DUP4 ADD DUP5 SWAP1 MSTORE SWAP1 MLOAD SWAP2 SWAP4 POP CALLER SWAP3 PUSH32 0xBDF2F0687B7C6F0B8DDE29A86969BA9A1E60CE7D560DC87E0BC637AEAD3A8C1C SWAP3 PUSH2 0xD92 SWAP3 SWAP2 SWAP1 PUSH2 0x3407 JUMP JUMPDEST PUSH1 0x40 MLOAD DUP1 SWAP2 SUB SWAP1 LOG2 DUP8 PUSH32 0xBD3A6D7726F96A60006B9BE9178CD721A199630FF7DAAAC35C2566C74E725FBA CALLER PUSH1 0x40 MLOAD PUSH2 0xDCA SWAP2 SWAP1 PUSH2 0x2C2D JUMP JUMPDEST PUSH1 0x40 MLOAD DUP1 SWAP2 SUB SWAP1 LOG2 CALLER PUSH1 0x1 PUSH1 0x1 PUSH1 0xA0 SHL SUB AND DUP9 PUSH1 0x0 DUP1 MLOAD PUSH1 0x20 PUSH2 0x3518 DUP4 CODECOPY DUP2 MLOAD SWAP2 MSTORE PUSH1 0x5 PUSH1 0x40 MLOAD PUSH2 0xA30 SWAP2 SWAP1 PUSH2 0x31FD JUMP JUMPDEST PUSH1 0x0 DUP2 DUP2 MSTORE PUSH1 0x1 PUSH1 0x20 MSTORE PUSH1 0x40 SWAP1 KECCAK256 SLOAD PUSH1 0x60 SWAP1 DUP3 SWAP1 DUP2 EQ PUSH2 0xE2D JUMPI PUSH1 0x40 MLOAD PUSH3 0x461BCD PUSH1 0xE5 SHL DUP2 MSTORE PUSH1 0x4 ADD PUSH2 0x464 SWAP1 PUSH2 0x308B JUMP JUMPDEST PUSH1 0x0 DUP4 DUP2 MSTORE PUSH1 0x1 PUSH1 0x20 MSTORE PUSH1 0x40 SWAP1 KECCAK256 PUSH1 0x3 DUP2 ADD SLOAD PUSH8 0xFFFFFFFFFFFFFFFF DUP2 GT ISZERO PUSH2 0xE66 JUMPI PUSH4 0x4E487B71 PUSH1 0xE0 SHL PUSH1 0x0 MSTORE PUSH1 0x41 PUSH1 0x4 MSTORE PUSH1 0x24 PUSH1 0x0 REVERT JUMPDEST PUSH1 0x40 MLOAD SWAP1 DUP1 DUP3 MSTORE DUP1 PUSH1 0x20 MUL PUSH1 0x20 ADD DUP3 ADD PUSH1 0x40 MSTORE DUP1 ISZERO PUSH2 0xE8F JUMPI DUP2 PUSH1 0x20 ADD PUSH1 0x20 DUP3 MUL DUP1 CALLDATASIZE DUP4 CALLDATACOPY ADD SWAP1 POP JUMPDEST POP SWAP3 POP DUP1 PUSH1 0x3 ADD SLOAD PUSH1 0x0 EQ ISZERO PUSH2 0xEA5 JUMPI POP PUSH2 0xF7A JUMP JUMPDEST PUSH1 0x0 DUP1 JUMPDEST PUSH1 0x2 DUP4 ADD SLOAD DUP2 LT ISZERO PUSH2 0xF76 JUMPI PUSH1 0x0 DUP4 PUSH1 0x2 ADD DUP3 DUP2 SLOAD DUP2 LT PUSH2 0xEDA JUMPI PUSH4 0x4E487B71 PUSH1 0xE0 SHL PUSH1 0x0 MSTORE PUSH1 0x32 PUSH1 0x4 MSTORE PUSH1 0x24 PUSH1 0x0 REVERT JUMPDEST PUSH1 0x0 SWAP2 DUP3 MSTORE PUSH1 0x20 DUP1 DUP4 KECCAK256 SWAP1 SWAP2 ADD SLOAD PUSH1 0x1 PUSH1 0x1 PUSH1 0xA0 SHL SUB AND DUP1 DUP4 MSTORE PUSH1 0x4 DUP8 ADD SWAP1 SWAP2 MSTORE PUSH1 0x40 SWAP1 SWAP2 KECCAK256 SLOAD SWAP1 SWAP2 POP PUSH1 0xFF PUSH4 0x1000000 SWAP1 SWAP2 DIV AND PUSH2 0xF63 JUMPI DUP1 DUP7 DUP5 DUP2 MLOAD DUP2 LT PUSH2 0xF34 JUMPI PUSH4 0x4E487B71 PUSH1 0xE0 SHL PUSH1 0x0 MSTORE PUSH1 0x32 PUSH1 0x4 MSTORE PUSH1 0x24 PUSH1 0x0 REVERT JUMPDEST PUSH1 0x1 PUSH1 0x1 PUSH1 0xA0 SHL SUB SWAP1 SWAP3 AND PUSH1 0x20 SWAP3 DUP4 MUL SWAP2 SWAP1 SWAP2 ADD SWAP1 SWAP2 ADD MSTORE PUSH1 0x3 DUP5 ADD SLOAD PUSH1 0x1 SWAP1 SWAP4 ADD SWAP3 DUP4 LT PUSH2 0xF63 JUMPI POP PUSH2 0xF76 JUMP JUMPDEST POP DUP1 PUSH2 0xF6E DUP2 PUSH2 0x34A6 JUMP JUMPDEST SWAP2 POP POP PUSH2 0xEA9 JUMP JUMPDEST POP POP POP JUMPDEST POP SWAP2 SWAP1 POP JUMP JUMPDEST PUSH1 0x2 PUSH1 0x20 MSTORE PUSH1 0x0 SWAP1 DUP2 MSTORE PUSH1 0x40 SWAP1 KECCAK256 SLOAD DUP2 JUMP JUMPDEST PUSH1 0x0 DUP3 DUP2 MSTORE PUSH1 0x1 PUSH1 0x20 MSTORE PUSH1 0x40 DUP2 KECCAK256 SLOAD DUP2 SWAP1 DUP2 SWAP1 DUP2 SWAP1 DUP2 SWAP1 DUP2 SWAP1 DUP9 SWAP1 DUP2 EQ PUSH2 0xFCB JUMPI PUSH1 0x40 MLOAD PUSH3 0x461BCD PUSH1 0xE5 SHL DUP2 MSTORE PUSH1 0x4 ADD PUSH2 0x464 SWAP1 PUSH2 0x308B JUMP JUMPDEST PUSH1 0x0 DUP10 DUP2 MSTORE PUSH1 0x1 PUSH1 0x20 SWAP1 DUP2 MSTORE PUSH1 0x40 DUP1 DUP4 KECCAK256 PUSH1 0x1 PUSH1 0x1 PUSH1 0xA0 SHL SUB DUP13 AND DUP1 DUP6 MSTORE PUSH1 0x4 DUP3 ADD SWAP1 SWAP4 MSTORE SWAP3 KECCAK256 SWAP1 CALLER EQ PUSH2 0x1039 JUMPI DUP1 SLOAD PUSH1 0x1 DUP3 ADD SLOAD PUSH1 0x2 SWAP1 SWAP3 ADD SLOAD PUSH1 0xFF DUP1 DUP4 AND SWAP12 POP PUSH2 0x100 DUP4 DIV DUP2 AND SWAP11 POP PUSH3 0x10000 DUP4 DIV DUP2 AND SWAP10 POP PUSH4 0x1000000 SWAP1 SWAP3 DIV SWAP1 SWAP2 AND SWAP7 POP SWAP1 SWAP5 POP SWAP3 POP PUSH2 0x1074 SWAP1 POP JUMP JUMPDEST DUP1 SLOAD PUSH1 0x1 DUP3 ADD SLOAD PUSH1 0x2 SWAP1 SWAP3 ADD SLOAD PUSH1 0xFF DUP1 DUP4 AND SWAP12 POP PUSH2 0x100 DUP4 DIV DUP2 AND SWAP11 POP PUSH3 0x10000 DUP4 DIV DUP2 AND SWAP10 POP PUSH4 0x1000000 SWAP1 SWAP3 DIV SWAP1 SWAP2 AND SWAP7 POP SWAP1 SWAP5 POP SWAP3 POP POP JUMPDEST POP SWAP3 SWAP6 POP SWAP3 SWAP6 POP SWAP3 SWAP6 JUMP JUMPDEST PUSH1 0x0 DUP2 DUP2 MSTORE PUSH1 0x1 PUSH1 0x20 MSTORE PUSH1 0x40 SWAP1 KECCAK256 SLOAD DUP2 SWAP1 DUP2 EQ PUSH2 0x10AE JUMPI PUSH1 0x40 MLOAD PUSH3 0x461BCD PUSH1 0xE5 SHL DUP2 MSTORE PUSH1 0x4 ADD PUSH2 0x464 SWAP1 PUSH2 0x308B JUMP JUMPDEST PUSH1 0x0 DUP3 DUP2 MSTORE PUSH1 0x1 PUSH1 0x20 MSTORE PUSH1 0x40 SWAP1 KECCAK256 PUSH1 0xC ADD SLOAD DUP3 SWAP1 PUSH1 0xFF AND ISZERO PUSH2 0x10E2 JUMPI PUSH1 0x40 MLOAD PUSH3 0x461BCD PUSH1 0xE5 SHL DUP2 MSTORE PUSH1 0x4 ADD PUSH2 0x464 SWAP1 PUSH2 0x3276 JUMP JUMPDEST PUSH1 0x0 DUP4 DUP2 MSTORE PUSH1 0x1 PUSH1 0x20 SWAP1 DUP2 MSTORE PUSH1 0x40 DUP1 DUP4 KECCAK256 CALLER DUP5 MSTORE PUSH1 0x4 DUP2 ADD SWAP1 SWAP3 MSTORE SWAP1 SWAP2 KECCAK256 SLOAD PUSH1 0xFF AND PUSH2 0x1120 JUMPI PUSH1 0x40 MLOAD PUSH3 0x461BCD PUSH1 0xE5 SHL DUP2 MSTORE PUSH1 0x4 ADD PUSH2 0x464 SWAP1 PUSH2 0x30B3 JUMP JUMPDEST PUSH1 0x0 PUSH1 0x1 DUP3 ADD SLOAD PUSH1 0xFF AND PUSH1 0x4 DUP2 GT ISZERO PUSH2 0x1149 JUMPI PUSH4 0x4E487B71 PUSH1 0xE0 SHL PUSH1 0x0 MSTORE PUSH1 0x21 PUSH1 0x4 MSTORE PUSH1 0x24 PUSH1 0x0 REVERT JUMPDEST EQ PUSH2 0x1166 JUMPI PUSH1 0x40 MLOAD PUSH3 0x461BCD PUSH1 0xE5 SHL DUP2 MSTORE PUSH1 0x4 ADD PUSH2 0x464 SWAP1 PUSH2 0x3336 JUMP JUMPDEST PUSH1 0xA DUP2 ADD SLOAD PUSH1 0x1 PUSH1 0x1 PUSH1 0xA0 SHL SUB AND CALLER EQ ISZERO DUP1 PUSH2 0x1186 JUMPI POP PUSH1 0x2 DUP2 ADD SLOAD PUSH1 0x1 EQ JUMPDEST PUSH2 0x11A2 JUMPI PUSH1 0x40 MLOAD PUSH3 0x461BCD PUSH1 0xE5 SHL DUP2 MSTORE PUSH1 0x4 ADD PUSH2 0x464 SWAP1 PUSH2 0x2E75 JUMP JUMPDEST PUSH1 0x0 JUMPDEST PUSH1 0x2 DUP3 ADD SLOAD DUP2 LT ISZERO PUSH2 0x12ED JUMPI CALLER PUSH1 0x1 PUSH1 0x1 PUSH1 0xA0 SHL SUB AND DUP3 PUSH1 0x2 ADD DUP3 DUP2 SLOAD DUP2 LT PUSH2 0x11DE JUMPI PUSH4 0x4E487B71 PUSH1 0xE0 SHL PUSH1 0x0 MSTORE PUSH1 0x32 PUSH1 0x4 MSTORE PUSH1 0x24 PUSH1 0x0 REVERT JUMPDEST PUSH1 0x0 SWAP2 DUP3 MSTORE PUSH1 0x20 SWAP1 SWAP2 KECCAK256 ADD SLOAD PUSH1 0x1 PUSH1 0x1 PUSH1 0xA0 SHL SUB AND EQ ISZERO PUSH2 0x12DB JUMPI PUSH1 0x2 DUP3 ADD DUP1 SLOAD PUSH2 0x120B SWAP1 PUSH1 0x1 SWAP1 PUSH2 0x3433 JUMP JUMPDEST DUP2 SLOAD DUP2 LT PUSH2 0x1229 JUMPI PUSH4 0x4E487B71 PUSH1 0xE0 SHL PUSH1 0x0 MSTORE PUSH1 0x32 PUSH1 0x4 MSTORE PUSH1 0x24 PUSH1 0x0 REVERT JUMPDEST PUSH1 0x0 SWAP2 DUP3 MSTORE PUSH1 0x20 SWAP1 SWAP2 KECCAK256 ADD SLOAD PUSH1 0x2 DUP4 ADD DUP1 SLOAD PUSH1 0x1 PUSH1 0x1 PUSH1 0xA0 SHL SUB SWAP1 SWAP3 AND SWAP2 DUP4 SWAP1 DUP2 LT PUSH2 0x1265 JUMPI PUSH4 0x4E487B71 PUSH1 0xE0 SHL PUSH1 0x0 MSTORE PUSH1 0x32 PUSH1 0x4 MSTORE PUSH1 0x24 PUSH1 0x0 REVERT JUMPDEST SWAP1 PUSH1 0x0 MSTORE PUSH1 0x20 PUSH1 0x0 KECCAK256 ADD PUSH1 0x0 PUSH2 0x100 EXP DUP2 SLOAD DUP2 PUSH1 0x1 PUSH1 0x1 PUSH1 0xA0 SHL SUB MUL NOT AND SWAP1 DUP4 PUSH1 0x1 PUSH1 0x1 PUSH1 0xA0 SHL SUB AND MUL OR SWAP1 SSTORE POP DUP2 PUSH1 0x2 ADD DUP1 SLOAD DUP1 PUSH2 0x12B4 JUMPI PUSH4 0x4E487B71 PUSH1 0xE0 SHL PUSH1 0x0 MSTORE PUSH1 0x31 PUSH1 0x4 MSTORE PUSH1 0x24 PUSH1 0x0 REVERT JUMPDEST PUSH1 0x0 DUP3 DUP2 MSTORE PUSH1 0x20 SWAP1 KECCAK256 DUP2 ADD PUSH1 0x0 NOT SWAP1 DUP2 ADD DUP1 SLOAD PUSH1 0x1 PUSH1 0x1 PUSH1 0xA0 SHL SUB NOT AND SWAP1 SSTORE ADD SWAP1 SSTORE PUSH2 0x12ED JUMP JUMPDEST DUP1 PUSH2 0x12E5 DUP2 PUSH2 0x34A6 JUMP JUMPDEST SWAP2 POP POP PUSH2 0x11A5 JUMP JUMPDEST POP PUSH1 0x3 DUP1 DUP3 ADD DUP1 SLOAD PUSH1 0x0 NOT ADD SWAP1 SSTORE CALLER PUSH1 0x0 DUP2 DUP2 MSTORE PUSH1 0x4 DUP1 DUP6 ADD PUSH1 0x20 SWAP1 DUP2 MSTORE PUSH1 0x40 DUP1 DUP5 KECCAK256 DUP1 SLOAD PUSH5 0xFFFFFFFFFF NOT AND DUP2 SSTORE PUSH1 0x1 DUP2 ADD DUP6 SWAP1 SSTORE PUSH1 0x2 DUP1 DUP3 ADD DUP7 SWAP1 SSTORE SWAP7 DUP2 ADD DUP6 SWAP1 SSTORE SWAP1 SWAP3 ADD DUP4 SWAP1 SSTORE SWAP4 SWAP1 SWAP4 MSTORE DUP3 DUP2 KECCAK256 DUP2 SWAP1 SSTORE SWAP2 MLOAD SWAP1 SWAP2 DUP7 SWAP2 PUSH1 0x0 DUP1 MLOAD PUSH1 0x20 PUSH2 0x3518 DUP4 CODECOPY DUP2 MLOAD SWAP2 MSTORE SWAP2 PUSH2 0x1360 SWAP2 PUSH2 0x3125 JUMP JUMPDEST PUSH1 0x40 MLOAD DUP1 SWAP2 SUB SWAP1 LOG3 POP POP POP POP JUMP JUMPDEST CALLER PUSH1 0x1 PUSH1 0x1 PUSH1 0xA0 SHL SUB PUSH32 0x0 AND EQ PUSH2 0x13B6 JUMPI PUSH1 0x40 MLOAD PUSH3 0x461BCD PUSH1 0xE5 SHL DUP2 MSTORE PUSH1 0x4 ADD PUSH2 0x464 SWAP1 PUSH2 0x314C JUMP JUMPDEST PUSH1 0x1 PUSH1 0x1 PUSH1 0xA0 SHL SUB AND PUSH1 0x0 SWAP1 DUP2 MSTORE PUSH1 0x3 PUSH1 0x20 MSTORE PUSH1 0x40 SWAP1 KECCAK256 DUP1 SLOAD PUSH1 0xFF NOT AND PUSH1 0x1 OR SWAP1 SSTORE JUMP JUMPDEST PUSH1 0x5 DUP2 JUMP JUMPDEST PUSH1 0x0 DUP2 DUP2 MSTORE PUSH1 0x1 PUSH1 0x20 MSTORE PUSH1 0x40 SWAP1 KECCAK256 SLOAD PUSH1 0x60 SWAP1 DUP3 SWAP1 DUP2 EQ PUSH2 0x1411 JUMPI PUSH1 0x40 MLOAD PUSH3 0x461BCD PUSH1 0xE5 SHL DUP2 MSTORE PUSH1 0x4 ADD PUSH2 0x464 SWAP1 PUSH2 0x308B JUMP JUMPDEST PUSH1 0x0 DUP4 DUP2 MSTORE PUSH1 0x1 PUSH1 0x20 SWAP1 DUP2 MSTORE PUSH1 0x40 SWAP2 DUP3 SWAP1 KECCAK256 PUSH1 0x2 ADD DUP1 SLOAD DUP4 MLOAD DUP2 DUP5 MUL DUP2 ADD DUP5 ADD SWAP1 SWAP5 MSTORE DUP1 DUP5 MSTORE SWAP1 SWAP2 DUP4 ADD DUP3 DUP3 DUP1 ISZERO PUSH2 0x1472 JUMPI PUSH1 0x20 MUL DUP3 ADD SWAP2 SWAP1 PUSH1 0x0 MSTORE PUSH1 0x20 PUSH1 0x0 KECCAK256 SWAP1 JUMPDEST DUP2 SLOAD PUSH1 0x1 PUSH1 0x1 PUSH1 0xA0 SHL SUB AND DUP2 MSTORE PUSH1 0x1 SWAP1 SWAP2 ADD SWAP1 PUSH1 0x20 ADD DUP1 DUP4 GT PUSH2 0x1454 JUMPI JUMPDEST POP POP POP POP POP SWAP2 POP POP SWAP2 SWAP1 POP JUMP JUMPDEST PUSH1 0x0 DUP1 PUSH1 0x0 DUP1 PUSH1 0x0 DUP1 PUSH1 0x0 DUP1 PUSH1 0x0 DUP10 DUP1 PUSH1 0x1 PUSH1 0x0 DUP4 DUP2 MSTORE PUSH1 0x20 ADD SWAP1 DUP2 MSTORE PUSH1 0x20 ADD PUSH1 0x0 KECCAK256 PUSH1 0x0 ADD SLOAD EQ PUSH2 0x14C3 JUMPI PUSH1 0x40 MLOAD PUSH3 0x461BCD PUSH1 0xE5 SHL DUP2 MSTORE PUSH1 0x4 ADD PUSH2 0x464 SWAP1 PUSH2 0x308B JUMP JUMPDEST PUSH1 0x0 DUP12 DUP2 MSTORE PUSH1 0x1 PUSH1 0x20 MSTORE PUSH1 0x40 DUP2 KECCAK256 PUSH1 0xB DUP2 ADD SLOAD SWAP1 SWAP2 SWAP1 TIMESTAMP LT ISZERO PUSH2 0x14F3 JUMPI TIMESTAMP DUP3 PUSH1 0xB ADD SLOAD PUSH2 0x14F0 SWAP2 SWAP1 PUSH2 0x3433 JUMP JUMPDEST SWAP1 POP JUMPDEST DUP2 PUSH1 0x1 ADD PUSH1 0x0 SWAP1 SLOAD SWAP1 PUSH2 0x100 EXP SWAP1 DIV PUSH1 0xFF AND DUP3 PUSH1 0x7 ADD SLOAD DUP4 PUSH1 0x8 ADD SLOAD DUP5 PUSH1 0xB ADD SLOAD DUP5 DUP7 PUSH1 0x2 ADD DUP1 SLOAD SWAP1 POP DUP8 PUSH1 0x3 ADD SLOAD DUP9 PUSH1 0xA ADD PUSH1 0x0 SWAP1 SLOAD SWAP1 PUSH2 0x100 EXP SWAP1 DIV PUSH1 0x1 PUSH1 0x1 PUSH1 0xA0 SHL SUB AND DUP10 PUSH1 0xC ADD PUSH1 0x0 SWAP1 SLOAD SWAP1 PUSH2 0x100 EXP SWAP1 DIV PUSH1 0xFF AND SWAP12 POP SWAP12 POP SWAP12 POP SWAP12 POP SWAP12 POP SWAP12 POP SWAP12 POP SWAP12 POP SWAP12 POP POP POP POP SWAP2 SWAP4 SWAP6 SWAP8 SWAP10 SWAP1 SWAP3 SWAP5 SWAP7 SWAP9 POP JUMP JUMPDEST PUSH1 0x0 DUP3 DUP2 MSTORE PUSH1 0x1 PUSH1 0x20 MSTORE PUSH1 0x40 SWAP1 KECCAK256 SLOAD DUP3 SWAP1 DUP2 EQ PUSH2 0x159D JUMPI PUSH1 0x40 MLOAD PUSH3 0x461BCD PUSH1 0xE5 SHL DUP2 MSTORE PUSH1 0x4 ADD PUSH2 0x464 SWAP1 PUSH2 0x308B JUMP JUMPDEST PUSH1 0x0 DUP4 DUP2 MSTORE PUSH1 0x1 PUSH1 0x20 SWAP1 DUP2 MSTORE PUSH1 0x40 DUP1 DUP4 KECCAK256 CALLER DUP5 MSTORE PUSH1 0x4 ADD SWAP1 SWAP2 MSTORE SWAP1 KECCAK256 SLOAD DUP4 SWAP1 PUSH1 0xFF AND PUSH2 0x15DB JUMPI PUSH1 0x40 MLOAD PUSH3 0x461BCD PUSH1 0xE5 SHL DUP2 MSTORE PUSH1 0x4 ADD PUSH2 0x464 SWAP1 PUSH2 0x2DFA JUMP JUMPDEST PUSH1 0x0 DUP5 DUP2 MSTORE PUSH1 0x1 PUSH1 0x20 MSTORE PUSH1 0x40 SWAP1 KECCAK256 PUSH1 0xC ADD SLOAD DUP5 SWAP1 PUSH1 0xFF AND ISZERO PUSH2 0x160F JUMPI PUSH1 0x40 MLOAD PUSH3 0x461BCD PUSH1 0xE5 SHL DUP2 MSTORE PUSH1 0x4 ADD PUSH2 0x464 SWAP1 PUSH2 0x3276 JUMP JUMPDEST PUSH1 0x0 DUP6 DUP2 MSTORE PUSH1 0x1 PUSH1 0x20 SWAP1 DUP2 MSTORE PUSH1 0x40 DUP1 DUP4 KECCAK256 CALLER DUP5 MSTORE PUSH1 0x4 DUP2 ADD SWAP1 SWAP3 MSTORE SWAP1 SWAP2 KECCAK256 PUSH1 0x2 PUSH1 0x1 DUP4 ADD SLOAD PUSH1 0xFF AND PUSH1 0x4 DUP2 GT ISZERO PUSH2 0x1656 JUMPI PUSH4 0x4E487B71 PUSH1 0xE0 SHL PUSH1 0x0 MSTORE PUSH1 0x21 PUSH1 0x4 MSTORE PUSH1 0x24 PUSH1 0x0 REVERT JUMPDEST EQ PUSH2 0x1673 JUMPI PUSH1 0x40 MLOAD PUSH3 0x461BCD PUSH1 0xE5 SHL DUP2 MSTORE PUSH1 0x4 ADD PUSH2 0x464 SWAP1 PUSH2 0x2F47 JUMP JUMPDEST DUP2 PUSH1 0xB ADD SLOAD TIMESTAMP LT PUSH2 0x1696 JUMPI PUSH1 0x40 MLOAD PUSH3 0x461BCD PUSH1 0xE5 SHL DUP2 MSTORE PUSH1 0x4 ADD PUSH2 0x464 SWAP1 PUSH2 0x338C JUMP JUMPDEST DUP1 SLOAD PUSH4 0x1000000 SWAP1 DIV PUSH1 0xFF AND ISZERO PUSH2 0x16BF JUMPI PUSH1 0x40 MLOAD PUSH3 0x461BCD PUSH1 0xE5 SHL DUP2 MSTORE PUSH1 0x4 ADD PUSH2 0x464 SWAP1 PUSH2 0x3223 JUMP JUMPDEST PUSH1 0x1 DUP7 LT ISZERO PUSH2 0x16E0 JUMPI PUSH1 0x40 MLOAD PUSH3 0x461BCD PUSH1 0xE5 SHL DUP2 MSTORE PUSH1 0x4 ADD PUSH2 0x464 SWAP1 PUSH2 0x316F JUMP JUMPDEST PUSH1 0x2 DUP2 ADD SLOAD ISZERO PUSH2 0x1702 JUMPI PUSH1 0x40 MLOAD PUSH3 0x461BCD PUSH1 0xE5 SHL DUP2 MSTORE PUSH1 0x4 ADD PUSH2 0x464 SWAP1 PUSH2 0x2EC0 JUMP JUMPDEST PUSH1 0x8 DUP3 ADD SLOAD ISZERO PUSH2 0x1730 JUMPI DUP2 PUSH1 0x8 ADD SLOAD DUP7 LT ISZERO PUSH2 0x1730 JUMPI PUSH1 0x40 MLOAD PUSH3 0x461BCD PUSH1 0xE5 SHL DUP2 MSTORE PUSH1 0x4 ADD PUSH2 0x464 SWAP1 PUSH2 0x2EEE JUMP JUMPDEST DUP6 DUP2 PUSH1 0x1 ADD SLOAD LT ISZERO PUSH2 0x1754 JUMPI PUSH1 0x40 MLOAD PUSH3 0x461BCD PUSH1 0xE5 SHL DUP2 MSTORE PUSH1 0x4 ADD PUSH2 0x464 SWAP1 PUSH2 0x2E25 JUMP JUMPDEST PUSH1 0x4 DUP2 ADD DUP1 SLOAD PUSH1 0x1 SWAP1 DUP2 ADD SWAP1 SWAP2 SSTORE DUP2 ADD DUP1 SLOAD DUP8 SWAP1 SUB SWAP1 SSTORE PUSH1 0x2 DUP2 ADD DUP7 DUP2 SSTORE PUSH1 0x7 DUP4 ADD DUP1 SLOAD DUP9 ADD SWAP1 SSTORE TIMESTAMP PUSH1 0x3 DUP4 ADD SSTORE PUSH1 0x8 DUP4 ADD SLOAD SWAP1 SLOAD GT ISZERO PUSH2 0x179A JUMPI PUSH1 0x2 DUP2 ADD SLOAD PUSH1 0x8 DUP4 ADD SSTORE JUMPDEST CALLER PUSH1 0x1 PUSH1 0x1 PUSH1 0xA0 SHL SUB AND DUP8 PUSH1 0x0 DUP1 MLOAD PUSH1 0x20 PUSH2 0x3518 DUP4 CODECOPY DUP2 MLOAD SWAP2 MSTORE DUP9 PUSH1 0x40 MLOAD PUSH2 0x17C2 SWAP2 SWAP1 PUSH2 0x30DD JUMP JUMPDEST PUSH1 0x40 MLOAD DUP1 SWAP2 SUB SWAP1 LOG3 POP POP POP POP POP POP POP JUMP JUMPDEST PUSH1 0x0 SLOAD DUP2 JUMP JUMPDEST PUSH1 0x1 PUSH1 0x1 PUSH1 0xA0 SHL SUB DUP2 AND PUSH1 0x0 SWAP1 DUP2 MSTORE PUSH1 0x3 PUSH1 0x20 MSTORE PUSH1 0x40 SWAP1 KECCAK256 SLOAD PUSH1 0xFF AND JUMPDEST SWAP2 SWAP1 POP JUMP JUMPDEST CALLER PUSH1 0x0 SWAP1 DUP2 MSTORE PUSH1 0x2 PUSH1 0x20 MSTORE PUSH1 0x40 DUP2 KECCAK256 SLOAD ISZERO PUSH2 0x1828 JUMPI PUSH1 0x40 MLOAD PUSH3 0x461BCD PUSH1 0xE5 SHL DUP2 MSTORE PUSH1 0x4 ADD PUSH2 0x464 SWAP1 PUSH2 0x324B JUMP JUMPDEST PUSH1 0x0 DUP1 SLOAD PUSH1 0x1 SWAP1 DUP2 ADD DUP1 DUP4 SSTORE DUP1 DUP4 MSTORE PUSH1 0x20 DUP3 SWAP1 MSTORE PUSH1 0x40 DUP1 DUP5 KECCAK256 DUP3 DUP2 SSTORE SWAP3 DUP4 ADD DUP1 SLOAD PUSH1 0xFF NOT SWAP1 DUP2 AND SWAP1 SWAP2 SSTORE PUSH1 0x9 DUP5 ADD DUP1 SLOAD PUSH1 0x1 PUSH1 0x1 PUSH1 0xA0 SHL SUB NOT SWAP1 DUP2 AND PUSH32 0x0 PUSH1 0x1 PUSH1 0x1 PUSH1 0xA0 SHL SUB DUP2 AND SWAP2 SWAP1 SWAP2 OR SWAP1 SWAP3 SSTORE PUSH1 0xA DUP7 ADD DUP1 SLOAD CALLER SWAP3 AND DUP3 OR SWAP1 SSTORE PUSH1 0x3 DUP7 ADD SWAP7 SWAP1 SWAP7 SSTORE PUSH1 0xC DUP6 ADD DUP1 SLOAD SWAP1 SWAP3 AND SWAP1 SWAP2 SSTORE SWAP1 MLOAD SWAP2 SWAP4 DUP5 SWAP3 PUSH32 0x8946648BC1DBC670D3F07E2C4DE91731227B6D4CCC53B8AB1E951E84D960577E SWAP3 PUSH2 0x18EA SWAP3 SWAP1 SWAP2 PUSH2 0x2C41 JUMP JUMPDEST PUSH1 0x40 MLOAD DUP1 SWAP2 SUB SWAP1 LOG2 PUSH2 0x18FC DUP3 CALLER PUSH2 0x2259 JUMP JUMPDEST POP SWAP1 POP SWAP1 JUMP JUMPDEST PUSH1 0x7 DUP2 JUMP JUMPDEST PUSH32 0x0 SWAP1 JUMP JUMPDEST PUSH1 0x1 DUP2 JUMP JUMPDEST PUSH1 0x34 DUP2 JUMP JUMPDEST PUSH1 0x0 DUP2 DUP2 MSTORE PUSH1 0x1 PUSH1 0x20 MSTORE PUSH1 0x40 DUP2 KECCAK256 SLOAD DUP3 SWAP1 DUP2 EQ PUSH2 0x1964 JUMPI PUSH1 0x40 MLOAD PUSH3 0x461BCD PUSH1 0xE5 SHL DUP2 MSTORE PUSH1 0x4 ADD PUSH2 0x464 SWAP1 PUSH2 0x308B JUMP JUMPDEST POP POP PUSH1 0x0 SWAP1 DUP2 MSTORE PUSH1 0x1 PUSH1 0x20 MSTORE PUSH1 0x40 SWAP1 KECCAK256 PUSH1 0x3 ADD SLOAD SWAP1 JUMP JUMPDEST PUSH1 0x0 DUP2 DUP2 MSTORE PUSH1 0x1 PUSH1 0x20 MSTORE PUSH1 0x40 DUP2 KECCAK256 SLOAD DUP3 SWAP1 DUP2 EQ PUSH2 0x19AA JUMPI PUSH1 0x40 MLOAD PUSH3 0x461BCD PUSH1 0xE5 SHL DUP2 MSTORE PUSH1 0x4 ADD PUSH2 0x464 SWAP1 PUSH2 0x308B JUMP JUMPDEST PUSH1 0x0 DUP4 DUP2 MSTORE PUSH1 0x1 PUSH1 0x20 MSTORE PUSH1 0x40 SWAP1 KECCAK256 PUSH1 0x2 PUSH1 0x1 DUP3 ADD SLOAD PUSH1 0xFF AND PUSH1 0x4 DUP2 GT ISZERO PUSH2 0x19E1 JUMPI PUSH4 0x4E487B71 PUSH1 0xE0 SHL PUSH1 0x0 MSTORE PUSH1 0x21 PUSH1 0x4 MSTORE PUSH1 0x24 PUSH1 0x0 REVERT JUMPDEST EQ PUSH2 0x19F0 JUMPI PUSH1 0x0 SWAP3 POP POP PUSH2 0xF7A JUMP JUMPDEST PUSH1 0x0 JUMPDEST PUSH1 0x2 DUP3 ADD SLOAD DUP2 LT ISZERO PUSH2 0x1AA6 JUMPI PUSH1 0x0 DUP3 PUSH1 0x2 ADD DUP3 DUP2 SLOAD DUP2 LT PUSH2 0x1A24 JUMPI PUSH4 0x4E487B71 PUSH1 0xE0 SHL PUSH1 0x0 MSTORE PUSH1 0x32 PUSH1 0x4 MSTORE PUSH1 0x24 PUSH1 0x0 REVERT JUMPDEST PUSH1 0x0 SWAP2 DUP3 MSTORE PUSH1 0x20 DUP1 DUP4 KECCAK256 SWAP1 SWAP2 ADD SLOAD PUSH1 0x1 PUSH1 0x1 PUSH1 0xA0 SHL SUB AND DUP1 DUP4 MSTORE PUSH1 0x4 DUP7 ADD SWAP1 SWAP2 MSTORE PUSH1 0x40 SWAP1 SWAP2 KECCAK256 SLOAD SWAP1 SWAP2 POP PUSH1 0xFF PUSH4 0x1000000 SWAP1 SWAP2 DIV AND ISZERO PUSH2 0x1A64 JUMPI POP PUSH2 0x1A94 JUMP JUMPDEST PUSH1 0x1 PUSH1 0x1 PUSH1 0xA0 SHL SUB DUP2 AND PUSH1 0x0 SWAP1 DUP2 MSTORE PUSH1 0x4 DUP5 ADD PUSH1 0x20 MSTORE PUSH1 0x40 SWAP1 KECCAK256 PUSH1 0x2 ADD SLOAD PUSH2 0x1A92 JUMPI PUSH1 0x0 SWAP5 POP POP POP POP PUSH2 0xF7A JUMP JUMPDEST POP JUMPDEST DUP1 PUSH2 0x1A9E DUP2 PUSH2 0x34A6 JUMP JUMPDEST SWAP2 POP POP PUSH2 0x19F3 JUMP JUMPDEST POP PUSH1 0x1 SWAP5 SWAP4 POP POP POP POP JUMP JUMPDEST PUSH1 0x0 DUP2 DUP2 MSTORE PUSH1 0x1 PUSH1 0x20 MSTORE PUSH1 0x40 SWAP1 KECCAK256 SLOAD DUP2 SWAP1 DUP2 EQ PUSH2 0x1AE0 JUMPI PUSH1 0x40 MLOAD PUSH3 0x461BCD PUSH1 0xE5 SHL DUP2 MSTORE PUSH1 0x4 ADD PUSH2 0x464 SWAP1 PUSH2 0x308B JUMP JUMPDEST PUSH1 0x0 DUP3 DUP2 MSTORE PUSH1 0x1 PUSH1 0x20 SWAP1 DUP2 MSTORE PUSH1 0x40 DUP1 DUP4 KECCAK256 CALLER DUP5 MSTORE PUSH1 0x4 ADD SWAP1 SWAP2 MSTORE SWAP1 KECCAK256 SLOAD DUP3 SWAP1 PUSH1 0xFF AND PUSH2 0x1B1E JUMPI PUSH1 0x40 MLOAD PUSH3 0x461BCD PUSH1 0xE5 SHL DUP2 MSTORE PUSH1 0x4 ADD PUSH2 0x464 SWAP1 PUSH2 0x2DFA JUMP JUMPDEST PUSH1 0x0 DUP4 DUP2 MSTORE PUSH1 0x1 PUSH1 0x20 MSTORE PUSH1 0x40 SWAP1 KECCAK256 PUSH1 0xC ADD SLOAD DUP4 SWAP1 PUSH1 0xFF AND ISZERO PUSH2 0x1B52 JUMPI PUSH1 0x40 MLOAD PUSH3 0x461BCD PUSH1 0xE5 SHL DUP2 MSTORE PUSH1 0x4 ADD PUSH2 0x464 SWAP1 PUSH2 0x3276 JUMP JUMPDEST PUSH1 0x0 DUP5 DUP2 MSTORE PUSH1 0x1 PUSH1 0x20 SWAP1 DUP2 MSTORE PUSH1 0x40 DUP1 DUP4 KECCAK256 CALLER DUP5 MSTORE PUSH1 0x4 DUP2 ADD SWAP1 SWAP3 MSTORE SWAP1 SWAP2 KECCAK256 PUSH1 0x2 PUSH1 0x1 DUP4 ADD SLOAD PUSH1 0xFF AND PUSH1 0x4 DUP2 GT ISZERO PUSH2 0x1B99 JUMPI PUSH4 0x4E487B71 PUSH1 0xE0 SHL PUSH1 0x0 MSTORE PUSH1 0x21 PUSH1 0x4 MSTORE PUSH1 0x24 PUSH1 0x0 REVERT JUMPDEST EQ PUSH2 0x1BB6 JUMPI PUSH1 0x40 MLOAD PUSH3 0x461BCD PUSH1 0xE5 SHL DUP2 MSTORE PUSH1 0x4 ADD PUSH2 0x464 SWAP1 PUSH2 0x2F47 JUMP JUMPDEST DUP2 PUSH1 0xB ADD SLOAD TIMESTAMP LT PUSH2 0x1BD9 JUMPI PUSH1 0x40 MLOAD PUSH3 0x461BCD PUSH1 0xE5 SHL DUP2 MSTORE PUSH1 0x4 ADD PUSH2 0x464 SWAP1 PUSH2 0x338C JUMP JUMPDEST DUP1 SLOAD PUSH4 0x1000000 SWAP1 DIV PUSH1 0xFF AND ISZERO PUSH2 0x1C02 JUMPI PUSH1 0x40 MLOAD PUSH3 0x461BCD PUSH1 0xE5 SHL DUP2 MSTORE PUSH1 0x4 ADD PUSH2 0x464 SWAP1 PUSH2 0x3223 JUMP JUMPDEST PUSH1 0x4 DUP2 ADD DUP1 SLOAD PUSH1 0x1 ADD SWAP1 SSTORE DUP1 SLOAD PUSH4 0xFF000000 NOT AND PUSH4 0x1000000 OR DUP2 SSTORE TIMESTAMP PUSH1 0x3 DUP1 DUP4 ADD SWAP2 SWAP1 SWAP2 SSTORE DUP3 ADD DUP1 SLOAD PUSH1 0x0 NOT ADD SWAP1 SSTORE PUSH1 0x40 MLOAD CALLER SWAP1 DUP8 SWAP1 PUSH1 0x0 DUP1 MLOAD PUSH1 0x20 PUSH2 0x3518 DUP4 CODECOPY DUP2 MLOAD SWAP2 MSTORE SWAP1 PUSH2 0x1C55 SWAP1 PUSH1 0x0 SWAP1 PUSH2 0x2FE0 JUMP JUMPDEST PUSH1 0x40 MLOAD DUP1 SWAP2 SUB SWAP1 LOG3 DUP2 PUSH1 0x3 ADD SLOAD PUSH1 0x1 EQ ISZERO PUSH2 0x1D06 JUMPI PUSH1 0x0 PUSH2 0x1C75 DUP8 PUSH2 0x2343 JUMP JUMPDEST PUSH1 0x7 DUP5 ADD DUP1 SLOAD PUSH1 0x1 PUSH1 0x1 PUSH1 0xA0 SHL SUB DUP4 AND PUSH1 0x0 SWAP1 DUP2 MSTORE PUSH1 0x4 DUP1 DUP9 ADD PUSH1 0x20 MSTORE PUSH1 0x40 SWAP2 DUP3 SWAP1 KECCAK256 PUSH1 0x1 SWAP1 DUP2 ADD DUP1 SLOAD SWAP1 SWAP5 ADD SWAP1 SWAP4 SSTORE SWAP3 SLOAD SWAP2 DUP8 ADD DUP1 SLOAD PUSH1 0xFF NOT AND SWAP1 SWAP4 OR SWAP1 SWAP3 SSTORE SWAP1 MLOAD SWAP2 SWAP3 POP SWAP1 DUP9 SWAP1 PUSH32 0xF1898DE79C348962FAB7695532341027E5BCEB0EA2A8785790FA7D7EFEEEE129 SWAP1 PUSH2 0x1CED SWAP1 DUP6 SWAP1 DUP6 SWAP1 PUSH2 0x2C5B JUMP JUMPDEST PUSH1 0x40 MLOAD DUP1 SWAP2 SUB SWAP1 LOG2 POP POP PUSH1 0x0 PUSH1 0x7 DUP4 ADD DUP2 SWAP1 SSTORE PUSH1 0x8 DUP4 ADD SSTORE JUMPDEST POP POP POP POP POP POP JUMP JUMPDEST PUSH2 0x12C DUP2 JUMP JUMPDEST PUSH1 0x0 DUP2 DUP2 MSTORE PUSH1 0x1 PUSH1 0x20 MSTORE PUSH1 0x40 SWAP1 KECCAK256 SLOAD DUP2 SWAP1 DUP2 EQ PUSH2 0x1D43 JUMPI PUSH1 0x40 MLOAD PUSH3 0x461BCD PUSH1 0xE5 SHL DUP2 MSTORE PUSH1 0x4 ADD PUSH2 0x464 SWAP1 PUSH2 0x308B JUMP JUMPDEST PUSH1 0x0 DUP3 DUP2 MSTORE PUSH1 0x1 PUSH1 0x20 MSTORE PUSH1 0x40 SWAP1 KECCAK256 PUSH1 0xC ADD SLOAD DUP3 SWAP1 PUSH1 0xFF AND ISZERO PUSH2 0x1D77 JUMPI PUSH1 0x40 MLOAD PUSH3 0x461BCD PUSH1 0xE5 SHL DUP2 MSTORE PUSH1 0x4 ADD PUSH2 0x464 SWAP1 PUSH2 0x3276 JUMP JUMPDEST PUSH1 0x0 DUP4 DUP2 MSTORE PUSH1 0x1 PUSH1 0x20 MSTORE PUSH1 0x40 SWAP1 KECCAK256 PUSH1 0xA ADD SLOAD DUP4 SWAP1 PUSH1 0x1 PUSH1 0x1 PUSH1 0xA0 SHL SUB AND CALLER EQ PUSH2 0x1DB2 JUMPI PUSH1 0x40 MLOAD PUSH3 0x461BCD PUSH1 0xE5 SHL DUP2 MSTORE PUSH1 0x4 ADD PUSH2 0x464 SWAP1 PUSH2 0x32AD JUMP JUMPDEST PUSH1 0x0 DUP5 DUP2 MSTORE PUSH1 0x1 PUSH1 0x20 MSTORE PUSH1 0x40 DUP2 KECCAK256 SWAP1 PUSH1 0x1 DUP3 ADD SLOAD PUSH1 0xFF AND PUSH1 0x4 DUP2 GT ISZERO PUSH2 0x1DE8 JUMPI PUSH4 0x4E487B71 PUSH1 0xE0 SHL PUSH1 0x0 MSTORE PUSH1 0x21 PUSH1 0x4 MSTORE PUSH1 0x24 PUSH1 0x0 REVERT JUMPDEST EQ PUSH2 0x1E05 JUMPI PUSH1 0x40 MLOAD PUSH3 0x461BCD PUSH1 0xE5 SHL DUP2 MSTORE PUSH1 0x4 ADD PUSH2 0x464 SWAP1 PUSH2 0x2FA9 JUMP JUMPDEST PUSH1 0x2 DUP2 DUP2 ADD SLOAD LT ISZERO PUSH2 0x1E29 JUMPI PUSH1 0x40 MLOAD PUSH3 0x461BCD PUSH1 0xE5 SHL DUP2 MSTORE PUSH1 0x4 ADD PUSH2 0x464 SWAP1 PUSH2 0x2F1E JUMP JUMPDEST PUSH2 0x1E34 PUSH1 0x78 TIMESTAMP PUSH2 0x341B JUMP JUMPDEST PUSH1 0xB DUP3 ADD SSTORE PUSH1 0x1 DUP1 DUP3 ADD DUP1 SLOAD PUSH1 0xFF NOT AND SWAP1 SWAP2 OR SWAP1 SSTORE PUSH2 0x1E52 DUP6 PUSH2 0x23F3 JUMP JUMPDEST PUSH2 0x1E5B DUP6 PUSH2 0x257B JUMP JUMPDEST PUSH1 0x40 MLOAD DUP6 SWAP1 PUSH32 0x1A2BA96BF245728C460E13D78A1591BCB45E67DE1240B6654190F8C0BBDD0700 SWAP1 PUSH1 0x0 SWAP1 LOG2 POP POP POP POP POP JUMP JUMPDEST PUSH1 0x0 DUP2 DUP2 MSTORE PUSH1 0x1 PUSH1 0x20 MSTORE PUSH1 0x40 SWAP1 KECCAK256 SLOAD DUP2 SWAP1 DUP2 EQ PUSH2 0x1EBC JUMPI PUSH1 0x40 MLOAD PUSH3 0x461BCD PUSH1 0xE5 SHL DUP2 MSTORE PUSH1 0x4 ADD PUSH2 0x464 SWAP1 PUSH2 0x308B JUMP JUMPDEST PUSH1 0x0 DUP3 DUP2 MSTORE PUSH1 0x1 PUSH1 0x20 MSTORE PUSH1 0x40 SWAP1 KECCAK256 PUSH1 0xC ADD SLOAD DUP3 SWAP1 PUSH1 0xFF AND ISZERO PUSH2 0x1EF0 JUMPI PUSH1 0x40 MLOAD PUSH3 0x461BCD PUSH1 0xE5 SHL DUP2 MSTORE PUSH1 0x4 ADD PUSH2 0x464 SWAP1 PUSH2 0x3276 JUMP JUMPDEST PUSH1 0x0 DUP4 DUP2 MSTORE PUSH1 0x1 PUSH1 0x20 MSTORE PUSH1 0x40 DUP2 KECCAK256 SWAP1 PUSH1 0x1 DUP3 ADD SLOAD PUSH1 0xFF AND PUSH1 0x4 DUP2 GT ISZERO PUSH2 0x1F26 JUMPI PUSH4 0x4E487B71 PUSH1 0xE0 SHL PUSH1 0x0 MSTORE PUSH1 0x21 PUSH1 0x4 MSTORE PUSH1 0x24 PUSH1 0x0 REVERT JUMPDEST EQ PUSH2 0x1F43 JUMPI PUSH1 0x40 MLOAD PUSH3 0x461BCD PUSH1 0xE5 SHL DUP2 MSTORE PUSH1 0x4 ADD PUSH2 0x464 SWAP1 PUSH2 0x2FA9 JUMP JUMPDEST PUSH1 0x2 DUP2 ADD SLOAD PUSH1 0x5 GT PUSH2 0x1F67 JUMPI PUSH1 0x40 MLOAD PUSH3 0x461BCD PUSH1 0xE5 SHL DUP2 MSTORE PUSH1 0x4 ADD PUSH2 0x464 SWAP1 PUSH2 0x3102 JUMP JUMPDEST CALLER PUSH1 0x0 SWAP1 DUP2 MSTORE PUSH1 0x2 PUSH1 0x20 MSTORE PUSH1 0x40 SWAP1 KECCAK256 SLOAD ISZERO PUSH2 0x1F94 JUMPI PUSH1 0x40 MLOAD PUSH3 0x461BCD PUSH1 0xE5 SHL DUP2 MSTORE PUSH1 0x4 ADD PUSH2 0x464 SWAP1 PUSH2 0x324B JUMP JUMPDEST PUSH1 0x2 DUP1 DUP3 ADD DUP1 SLOAD PUSH1 0x1 DUP2 DUP2 ADD DUP4 SSTORE PUSH1 0x0 SWAP3 DUP4 MSTORE PUSH1 0x20 DUP1 DUP5 KECCAK256 SWAP1 SWAP3 ADD DUP1 SLOAD PUSH1 0x1 PUSH1 0x1 PUSH1 0xA0 SHL SUB NOT AND CALLER SWAP1 DUP2 OR SWAP1 SWAP2 SSTORE DUP1 DUP5 MSTORE PUSH1 0x4 DUP1 DUP8 ADD DUP5 MSTORE PUSH1 0x40 DUP1 DUP7 KECCAK256 DUP1 SLOAD PUSH1 0xFF NOT AND DUP6 OR DUP2 SSTORE PUSH1 0x19 DUP2 DUP7 ADD SSTORE TIMESTAMP PUSH1 0x3 DUP1 DUP4 ADD SWAP2 SWAP1 SWAP2 SSTORE SWAP3 DUP2 ADD DUP8 SWAP1 SSTORE SWAP7 SWAP1 SWAP5 MSTORE SWAP4 DUP4 SWAP1 KECCAK256 DUP10 SWAP1 SSTORE SWAP3 DUP6 ADD DUP1 SLOAD SWAP1 SWAP2 ADD SWAP1 SSTORE MLOAD DUP7 SWAP2 PUSH32 0x87969BC7FAF902221A147B95CEBA76E011C5EFB0339A0A8EE7A2BB82D9CFBBD6 SWAP2 PUSH2 0x2035 SWAP2 SWAP1 PUSH2 0x2C2D JUMP JUMPDEST PUSH1 0x40 MLOAD DUP1 SWAP2 SUB SWAP1 LOG2 POP POP POP POP POP JUMP JUMPDEST PUSH1 0x19 DUP2 JUMP JUMPDEST PUSH1 0x0 DUP3 DUP2 MSTORE PUSH1 0x1 PUSH1 0x20 MSTORE PUSH1 0x40 SWAP1 KECCAK256 PUSH1 0x6 ADD SLOAD PUSH2 0x2065 SWAP1 DUP3 PUSH2 0x2662 JUMP JUMPDEST PUSH1 0x0 SWAP3 DUP4 MSTORE PUSH1 0x1 PUSH1 0x20 MSTORE PUSH1 0x40 SWAP1 SWAP3 KECCAK256 PUSH1 0x6 ADD SWAP2 SWAP1 SWAP2 SSTORE POP JUMP JUMPDEST PUSH1 0x0 DUP2 DUP2 MSTORE PUSH1 0x1 PUSH1 0x20 SWAP1 DUP2 MSTORE PUSH1 0x40 DUP1 DUP4 KECCAK256 DUP2 MLOAD PUSH1 0x34 DUP1 DUP3 MSTORE PUSH2 0x6A0 DUP3 ADD SWAP1 SWAP4 MSTORE SWAP1 SWAP3 DUP5 SWAP3 SWAP1 DUP3 ADD PUSH2 0x680 DUP1 CALLDATASIZE DUP4 CALLDATACOPY ADD SWAP1 POP POP SWAP1 POP PUSH1 0x0 DUP1 JUMPDEST PUSH1 0x5 DUP5 ADD SLOAD PUSH1 0xFF DUP3 AND LT ISZERO PUSH2 0x212A JUMPI PUSH2 0x20CF DUP7 DUP3 PUSH2 0x21C5 JUMP JUMPDEST PUSH2 0x2118 JUMPI DUP1 DUP4 DUP4 PUSH2 0xFFFF AND DUP2 MLOAD DUP2 LT PUSH2 0x20F8 JUMPI PUSH4 0x4E487B71 PUSH1 0xE0 SHL PUSH1 0x0 MSTORE PUSH1 0x32 PUSH1 0x4 MSTORE PUSH1 0x24 PUSH1 0x0 REVERT JUMPDEST PUSH1 0xFF SWAP1 SWAP3 AND PUSH1 0x20 SWAP3 DUP4 MUL SWAP2 SWAP1 SWAP2 ADD SWAP1 SWAP2 ADD MSTORE DUP2 PUSH2 0x2114 DUP2 PUSH2 0x3484 JUMP JUMPDEST SWAP3 POP POP JUMPDEST DUP1 PUSH2 0x2122 DUP2 PUSH2 0x34C1 JUMP JUMPDEST SWAP2 POP POP PUSH2 0x20B6 JUMP JUMPDEST POP PUSH1 0x0 DUP2 PUSH2 0xFFFF AND GT PUSH2 0x214F JUMPI PUSH1 0x40 MLOAD PUSH3 0x461BCD PUSH1 0xE5 SHL DUP2 MSTORE PUSH1 0x4 ADD PUSH2 0x464 SWAP1 PUSH2 0x2F72 JUMP JUMPDEST PUSH1 0x0 DUP2 PUSH2 0xFFFF AND DIFFICULTY TIMESTAMP PUSH1 0x40 MLOAD PUSH1 0x20 ADD PUSH2 0x2169 SWAP3 SWAP2 SWAP1 PUSH2 0x2C1F JUMP JUMPDEST PUSH1 0x40 MLOAD PUSH1 0x20 DUP2 DUP4 SUB SUB DUP2 MSTORE SWAP1 PUSH1 0x40 MSTORE DUP1 MLOAD SWAP1 PUSH1 0x20 ADD KECCAK256 PUSH1 0x0 SHR PUSH2 0x218C SWAP2 SWAP1 PUSH2 0x34E1 JUMP JUMPDEST SWAP1 POP DUP3 DUP2 PUSH2 0xFFFF AND DUP2 MLOAD DUP2 LT PUSH2 0x21B2 JUMPI PUSH4 0x4E487B71 PUSH1 0xE0 SHL PUSH1 0x0 MSTORE PUSH1 0x32 PUSH1 0x4 MSTORE PUSH1 0x24 PUSH1 0x0 REVERT JUMPDEST PUSH1 0x20 MUL PUSH1 0x20 ADD ADD MLOAD SWAP5 POP POP POP POP POP SWAP2 SWAP1 POP JUMP JUMPDEST PUSH1 0x0 DUP3 DUP2 MSTORE PUSH1 0x1 PUSH1 0x20 MSTORE PUSH1 0x40 DUP2 KECCAK256 PUSH1 0x6 ADD SLOAD PUSH2 0x21E1 SWAP1 DUP4 PUSH2 0x2670 JUMP JUMPDEST SWAP4 SWAP3 POP POP POP JUMP JUMPDEST PUSH1 0x0 DUP3 DUP2 MSTORE PUSH1 0x1 PUSH1 0x20 MSTORE PUSH1 0x40 SWAP1 KECCAK256 PUSH1 0x6 ADD SLOAD PUSH2 0x2065 SWAP1 DUP3 PUSH2 0x267F JUMP JUMPDEST PUSH1 0x0 DUP2 DUP2 MSTORE PUSH1 0x1 PUSH1 0x20 DUP2 SWAP1 MSTORE PUSH1 0x40 DUP1 DUP4 KECCAK256 SWAP2 DUP3 ADD DUP1 SLOAD PUSH1 0xFF NOT AND PUSH1 0x3 OR SWAP1 SSTORE MLOAD SWAP1 SWAP2 DUP4 SWAP2 PUSH32 0xCFEAA304021CFD684AD30C51A76FFD4139EB4B36C6E97D94CCE4DF46B71EE977 SWAP2 SWAP1 LOG2 PUSH2 0x2255 DUP3 PUSH2 0x268C JUMP JUMPDEST POP POP JUMP JUMPDEST PUSH1 0x0 DUP3 DUP2 MSTORE PUSH1 0x1 PUSH1 0x20 SWAP1 DUP2 MSTORE PUSH1 0x40 DUP1 DUP4 KECCAK256 PUSH1 0x1 PUSH1 0x1 PUSH1 0xA0 SHL SUB DUP6 AND DUP5 MSTORE PUSH1 0x2 SWAP1 SWAP3 MSTORE SWAP1 SWAP2 KECCAK256 SLOAD ISZERO PUSH2 0x228A JUMPI POP PUSH2 0x2255 JUMP JUMPDEST PUSH1 0x2 DUP2 DUP2 ADD DUP1 SLOAD PUSH1 0x1 DUP1 DUP3 ADD DUP4 SSTORE PUSH1 0x0 SWAP3 DUP4 MSTORE PUSH1 0x20 DUP1 DUP5 KECCAK256 SWAP1 SWAP3 ADD DUP1 SLOAD PUSH1 0x1 PUSH1 0x1 PUSH1 0xA0 SHL SUB NOT AND PUSH1 0x1 PUSH1 0x1 PUSH1 0xA0 SHL SUB DUP9 AND SWAP1 DUP2 OR SWAP1 SWAP2 SSTORE DUP4 MSTORE PUSH1 0x4 DUP1 DUP7 ADD DUP4 MSTORE PUSH1 0x40 DUP1 DUP6 KECCAK256 DUP1 SLOAD PUSH1 0xFF NOT AND DUP5 OR DUP2 SSTORE PUSH1 0x19 DUP2 DUP6 ADD SSTORE TIMESTAMP PUSH1 0x3 DUP1 DUP4 ADD SWAP2 SWAP1 SWAP2 SSTORE SWAP3 DUP2 ADD DUP7 SWAP1 SSTORE SWAP6 SWAP1 SWAP4 MSTORE SWAP3 DUP3 SWAP1 KECCAK256 DUP8 SWAP1 SSTORE SWAP2 DUP5 ADD DUP1 SLOAD SWAP1 SWAP3 ADD SWAP1 SWAP2 SSTORE MLOAD DUP5 SWAP1 PUSH32 0x87969BC7FAF902221A147B95CEBA76E011C5EFB0339A0A8EE7A2BB82D9CFBBD6 SWAP1 PUSH2 0x2335 SWAP1 DUP7 SWAP1 PUSH2 0x2C2D JUMP JUMPDEST PUSH1 0x40 MLOAD DUP1 SWAP2 SUB SWAP1 LOG2 POP POP POP POP JUMP JUMPDEST PUSH1 0x0 DUP2 DUP2 MSTORE PUSH1 0x1 PUSH1 0x20 MSTORE PUSH1 0x40 DUP2 KECCAK256 DUP2 JUMPDEST PUSH1 0x2 DUP3 ADD SLOAD DUP2 LT ISZERO PUSH2 0x23DA JUMPI PUSH1 0x0 DUP3 PUSH1 0x2 ADD DUP3 DUP2 SLOAD DUP2 LT PUSH2 0x2384 JUMPI PUSH4 0x4E487B71 PUSH1 0xE0 SHL PUSH1 0x0 MSTORE PUSH1 0x32 PUSH1 0x4 MSTORE PUSH1 0x24 PUSH1 0x0 REVERT JUMPDEST PUSH1 0x0 SWAP2 DUP3 MSTORE PUSH1 0x20 DUP1 DUP4 KECCAK256 SWAP1 SWAP2 ADD SLOAD PUSH1 0x1 PUSH1 0x1 PUSH1 0xA0 SHL SUB AND DUP1 DUP4 MSTORE PUSH1 0x4 DUP7 ADD SWAP1 SWAP2 MSTORE PUSH1 0x40 SWAP1 SWAP2 KECCAK256 SLOAD SWAP1 SWAP2 POP PUSH1 0xFF PUSH4 0x1000000 SWAP1 SWAP2 DIV AND PUSH2 0x23C7 JUMPI SWAP3 POP PUSH2 0x17F6 SWAP2 POP POP JUMP JUMPDEST POP DUP1 PUSH2 0x23D2 DUP2 PUSH2 0x34A6 JUMP JUMPDEST SWAP2 POP POP PUSH2 0x2353 JUMP JUMPDEST POP PUSH1 0x40 MLOAD PUSH3 0x461BCD PUSH1 0xE5 SHL DUP2 MSTORE PUSH1 0x4 ADD PUSH2 0x464 SWAP1 PUSH2 0x2DC3 JUMP JUMPDEST PUSH1 0x0 DUP2 DUP2 MSTORE PUSH1 0x1 PUSH1 0x20 MSTORE PUSH1 0x40 DUP2 KECCAK256 SWAP1 PUSH2 0x2410 SWAP1 PUSH1 0x5 DUP4 ADD SWAP1 PUSH2 0x2B34 JUMP JUMPDEST PUSH1 0x40 DUP1 MLOAD PUSH1 0x34 DUP1 DUP3 MSTORE PUSH2 0x6A0 DUP3 ADD SWAP1 SWAP3 MSTORE PUSH1 0x0 SWAP2 DUP2 PUSH1 0x20 ADD JUMPDEST PUSH2 0x2431 PUSH2 0x2B55 JUMP JUMPDEST DUP2 MSTORE PUSH1 0x20 ADD SWAP1 PUSH1 0x1 SWAP1 SUB SWAP1 DUP2 PUSH2 0x2429 JUMPI SWAP1 POP POP SWAP1 POP PUSH1 0x0 DUP1 JUMPDEST PUSH1 0x4 DUP2 PUSH1 0xFF AND LT ISZERO PUSH2 0x24E1 JUMPI PUSH1 0x2 JUMPDEST PUSH1 0xE DUP2 PUSH1 0xFF AND GT PUSH2 0x24CE JUMPI PUSH1 0x40 MLOAD DUP1 PUSH1 0x40 ADD PUSH1 0x40 MSTORE DUP1 DUP3 PUSH1 0xFF AND DUP2 MSTORE PUSH1 0x20 ADD DUP4 PUSH1 0xFF AND DUP2 MSTORE POP DUP5 DUP5 PUSH1 0xFF AND DUP2 MLOAD DUP2 LT PUSH2 0x24A2 JUMPI PUSH4 0x4E487B71 PUSH1 0xE0 SHL PUSH1 0x0 MSTORE PUSH1 0x32 PUSH1 0x4 MSTORE PUSH1 0x24 PUSH1 0x0 REVERT JUMPDEST PUSH1 0x20 MUL PUSH1 0x20 ADD ADD DUP2 SWAP1 MSTORE POP DUP3 DUP1 PUSH2 0x24B8 SWAP1 PUSH2 0x34C1 JUMP JUMPDEST SWAP4 POP POP DUP1 DUP1 PUSH2 0x24C6 SWAP1 PUSH2 0x34C1 JUMP JUMPDEST SWAP2 POP POP PUSH2 0x2459 JUMP JUMPDEST POP DUP1 PUSH2 0x24D9 DUP2 PUSH2 0x34C1 JUMP JUMPDEST SWAP2 POP POP PUSH2 0x244A JUMP JUMPDEST POP PUSH1 0x0 PUSH2 0x24ED DUP4 PUSH2 0x2881 JUMP JUMPDEST SWAP1 POP PUSH1 0x0 JUMPDEST PUSH1 0x34 DUP2 LT ISZERO PUSH2 0x1D06 JUMPI DUP5 PUSH1 0x5 ADD DUP3 DUP3 DUP2 MLOAD DUP2 LT PUSH2 0x251F JUMPI PUSH4 0x4E487B71 PUSH1 0xE0 SHL PUSH1 0x0 MSTORE PUSH1 0x32 PUSH1 0x4 MSTORE PUSH1 0x24 PUSH1 0x0 REVERT JUMPDEST PUSH1 0x20 SWAP1 DUP2 MUL SWAP2 SWAP1 SWAP2 ADD DUP2 ADD MLOAD DUP3 SLOAD PUSH1 0x1 DUP2 ADD DUP5 SSTORE PUSH1 0x0 SWAP4 DUP5 MSTORE SWAP3 DUP3 SWAP1 KECCAK256 DUP2 MLOAD SWAP4 ADD DUP1 SLOAD SWAP2 SWAP1 SWAP3 ADD MLOAD PUSH1 0xFF SWAP1 DUP2 AND PUSH2 0x100 MUL PUSH2 0xFF00 NOT SWAP2 SWAP1 SWAP5 AND PUSH1 0xFF NOT SWAP1 SWAP3 AND SWAP2 SWAP1 SWAP2 OR AND SWAP2 SWAP1 SWAP2 OR SWAP1 SSTORE DUP1 PUSH2 0x2573 DUP2 PUSH2 0x34A6 JUMP JUMPDEST SWAP2 POP POP PUSH2 0x24F2 JUMP JUMPDEST PUSH1 0x0 DUP2 DUP2 MSTORE PUSH1 0x1 PUSH1 0x20 MSTORE PUSH1 0x40 SWAP1 KECCAK256 PUSH2 0x2592 DUP3 PUSH2 0x29AB JUMP JUMPDEST PUSH1 0x0 JUMPDEST PUSH1 0x2 DUP3 ADD SLOAD DUP2 LT ISZERO PUSH2 0x265D JUMPI PUSH1 0x0 DUP3 PUSH1 0x2 ADD DUP3 DUP2 SLOAD DUP2 LT PUSH2 0x25C6 JUMPI PUSH4 0x4E487B71 PUSH1 0xE0 SHL PUSH1 0x0 MSTORE PUSH1 0x32 PUSH1 0x4 MSTORE PUSH1 0x24 PUSH1 0x0 REVERT JUMPDEST PUSH1 0x0 SWAP2 DUP3 MSTORE PUSH1 0x20 DUP1 DUP4 KECCAK256 SWAP2 SWAP1 SWAP2 ADD SLOAD PUSH1 0x1 PUSH1 0x1 PUSH1 0xA0 SHL SUB AND DUP1 DUP4 MSTORE PUSH1 0x4 DUP7 ADD SWAP1 SWAP2 MSTORE PUSH1 0x40 SWAP1 SWAP2 KECCAK256 DUP1 SLOAD PUSH5 0xFF00000000 NOT AND PUSH5 0x100000000 PUSH1 0xFF DUP7 AND MUL OR SWAP1 SSTORE SWAP1 POP DUP2 PUSH2 0x2612 DUP6 DUP3 PUSH2 0x21E8 JUMP JUMPDEST PUSH1 0x40 MLOAD PUSH1 0x1 PUSH1 0x1 PUSH1 0xA0 SHL SUB DUP4 AND SWAP1 DUP7 SWAP1 PUSH32 0xCE005D12BCA3B432651FA3635A44056E071A659E4C958FC7E9AD8BA2B6221A04 SWAP1 PUSH1 0x0 SWAP1 LOG3 POP POP DUP1 DUP1 PUSH2 0x2655 SWAP1 PUSH2 0x34A6 JUMP JUMPDEST SWAP2 POP POP PUSH2 0x2595 JUMP JUMPDEST POP POP POP JUMP JUMPDEST PUSH1 0x1 PUSH1 0xFF SWAP2 SWAP1 SWAP2 AND SHL NOT AND SWAP1 JUMP JUMPDEST PUSH1 0x1 PUSH1 0xFF SWAP2 SWAP1 SWAP2 AND SHL AND ISZERO ISZERO SWAP1 JUMP JUMPDEST PUSH1 0x1 PUSH1 0xFF SWAP2 SWAP1 SWAP2 AND SHL OR SWAP1 JUMP JUMPDEST PUSH1 0x0 DUP2 DUP2 MSTORE PUSH1 0x1 PUSH1 0x20 MSTORE PUSH1 0x40 DUP2 KECCAK256 SWAP1 PUSH2 0x26A4 DUP4 PUSH2 0x29C8 JUMP JUMPDEST SWAP1 POP PUSH1 0x0 JUMPDEST PUSH1 0x2 DUP4 ADD SLOAD DUP2 LT ISZERO PUSH2 0x27F0 JUMPI PUSH1 0x0 DUP4 PUSH1 0x2 ADD DUP3 DUP2 SLOAD DUP2 LT PUSH2 0x26DA JUMPI PUSH4 0x4E487B71 PUSH1 0xE0 SHL PUSH1 0x0 MSTORE PUSH1 0x32 PUSH1 0x4 MSTORE PUSH1 0x24 PUSH1 0x0 REVERT JUMPDEST PUSH1 0x0 SWAP2 DUP3 MSTORE PUSH1 0x20 DUP1 DUP4 KECCAK256 SWAP1 SWAP2 ADD SLOAD PUSH1 0x1 PUSH1 0x1 PUSH1 0xA0 SHL SUB AND DUP1 DUP4 MSTORE PUSH1 0x4 DUP8 ADD SWAP1 SWAP2 MSTORE PUSH1 0x40 SWAP1 SWAP2 KECCAK256 SLOAD SWAP1 SWAP2 POP PUSH1 0xFF PUSH4 0x1000000 SWAP1 SWAP2 DIV AND ISZERO PUSH2 0x271A JUMPI POP PUSH2 0x27DE JUMP JUMPDEST PUSH1 0x1 PUSH1 0x1 PUSH1 0xA0 SHL SUB DUP2 AND PUSH1 0x0 SWAP1 DUP2 MSTORE PUSH1 0x4 DUP6 ADD PUSH1 0x20 MSTORE PUSH1 0x40 DUP2 KECCAK256 SLOAD PUSH1 0x5 DUP7 ADD DUP1 SLOAD PUSH5 0x100000000 SWAP1 SWAP3 DIV PUSH1 0xFF AND SWAP3 SWAP2 DUP4 SWAP1 DUP2 LT PUSH2 0x2767 JUMPI PUSH4 0x4E487B71 PUSH1 0xE0 SHL PUSH1 0x0 MSTORE PUSH1 0x32 PUSH1 0x4 MSTORE PUSH1 0x24 PUSH1 0x0 REVERT JUMPDEST PUSH1 0x0 SWAP2 DUP3 MSTORE PUSH1 0x20 SWAP2 DUP3 SWAP1 KECCAK256 PUSH1 0x40 DUP1 MLOAD DUP1 DUP3 ADD DUP3 MSTORE SWAP3 SWAP1 SWAP2 ADD SLOAD PUSH1 0xFF DUP1 DUP3 AND DUP1 DUP6 MSTORE PUSH2 0x100 SWAP1 SWAP3 DIV AND SWAP4 DUP4 ADD DUP5 SWAP1 MSTORE SWAP1 MLOAD SWAP2 SWAP4 POP PUSH1 0x1 PUSH1 0x1 PUSH1 0xA0 SHL SUB DUP7 AND SWAP3 PUSH32 0xBDF2F0687B7C6F0B8DDE29A86969BA9A1E60CE7D560DC87E0BC637AEAD3A8C1C SWAP3 PUSH2 0x27D2 SWAP3 SWAP2 SWAP1 PUSH2 0x3407 JUMP JUMPDEST PUSH1 0x40 MLOAD DUP1 SWAP2 SUB SWAP1 LOG2 POP POP POP JUMPDEST DUP1 PUSH2 0x27E8 DUP2 PUSH2 0x34A6 JUMP JUMPDEST SWAP2 POP POP PUSH2 0x26A9 JUMP JUMPDEST POP PUSH1 0x7 DUP3 ADD DUP1 SLOAD PUSH1 0x1 PUSH1 0x1 PUSH1 0xA0 SHL SUB DUP4 AND PUSH1 0x0 SWAP1 DUP2 MSTORE PUSH1 0x4 DUP1 DUP7 ADD PUSH1 0x20 MSTORE PUSH1 0x40 SWAP2 DUP3 SWAP1 KECCAK256 PUSH1 0x1 SWAP1 DUP2 ADD DUP1 SLOAD SWAP1 SWAP5 ADD SWAP1 SWAP4 SSTORE SWAP3 SLOAD SWAP2 DUP6 ADD DUP1 SLOAD PUSH1 0xFF NOT AND SWAP1 SWAP4 OR SWAP1 SWAP3 SSTORE SWAP1 MLOAD DUP5 SWAP1 PUSH32 0xF1898DE79C348962FAB7695532341027E5BCEB0EA2A8785790FA7D7EFEEEE129 SWAP1 PUSH2 0x2865 SWAP1 DUP6 SWAP1 DUP6 SWAP1 PUSH2 0x2C5B JUMP JUMPDEST PUSH1 0x40 MLOAD DUP1 SWAP2 SUB SWAP1 LOG2 POP POP PUSH1 0x0 PUSH1 0x7 DUP3 ADD DUP2 SWAP1 SSTORE PUSH1 0x8 SWAP1 SWAP2 ADD SSTORE POP JUMP JUMPDEST PUSH1 0x60 DIFFICULTY PUSH1 0x0 PUSH2 0x2892 PUSH1 0x1 PUSH1 0x34 PUSH2 0x344A JUMP JUMPDEST PUSH1 0xFF AND SWAP1 POP JUMPDEST DUP1 ISZERO PUSH2 0x29A3 JUMPI PUSH1 0x0 PUSH2 0x28AB DUP3 PUSH1 0x1 PUSH2 0x341B JUMP JUMPDEST DUP4 DUP4 PUSH1 0x40 MLOAD PUSH1 0x20 ADD PUSH2 0x28BE SWAP3 SWAP2 SWAP1 PUSH2 0x2C1F JUMP JUMPDEST PUSH1 0x40 MLOAD PUSH1 0x20 DUP2 DUP4 SUB SUB DUP2 MSTORE SWAP1 PUSH1 0x40 MSTORE DUP1 MLOAD SWAP1 PUSH1 0x20 ADD KECCAK256 PUSH1 0x0 SHR PUSH2 0x28E1 SWAP2 SWAP1 PUSH2 0x34E1 JUMP JUMPDEST SWAP1 POP PUSH1 0x0 DUP6 DUP4 DUP2 MLOAD DUP2 LT PUSH2 0x2905 JUMPI PUSH4 0x4E487B71 PUSH1 0xE0 SHL PUSH1 0x0 MSTORE PUSH1 0x32 PUSH1 0x4 MSTORE PUSH1 0x24 PUSH1 0x0 REVERT JUMPDEST PUSH1 0x20 MUL PUSH1 0x20 ADD ADD MLOAD SWAP1 POP DUP6 DUP3 DUP2 MLOAD DUP2 LT PUSH2 0x292F JUMPI PUSH4 0x4E487B71 PUSH1 0xE0 SHL PUSH1 0x0 MSTORE PUSH1 0x32 PUSH1 0x4 MSTORE PUSH1 0x24 PUSH1 0x0 REVERT JUMPDEST PUSH1 0x20 MUL PUSH1 0x20 ADD ADD MLOAD DUP7 DUP5 DUP2 MLOAD DUP2 LT PUSH2 0x2957 JUMPI PUSH4 0x4E487B71 PUSH1 0xE0 SHL PUSH1 0x0 MSTORE PUSH1 0x32 PUSH1 0x4 MSTORE PUSH1 0x24 PUSH1 0x0 REVERT JUMPDEST PUSH1 0x20 MUL PUSH1 0x20 ADD ADD DUP2 SWAP1 MSTORE POP DUP1 DUP7 DUP4 DUP2 MLOAD DUP2 LT PUSH2 0x2983 JUMPI PUSH4 0x4E487B71 PUSH1 0xE0 SHL PUSH1 0x0 MSTORE PUSH1 0x32 PUSH1 0x4 MSTORE PUSH1 0x24 PUSH1 0x0 REVERT JUMPDEST PUSH1 0x20 MUL PUSH1 0x20 ADD ADD DUP2 SWAP1 MSTORE POP POP POP DUP1 DUP1 PUSH2 0x299B SWAP1 PUSH2 0x346D JUMP JUMPDEST SWAP2 POP POP PUSH2 0x2898 JUMP JUMPDEST POP SWAP2 SWAP3 SWAP2 POP POP JUMP JUMPDEST PUSH2 0x29B3 PUSH2 0x2B2F JUMP JUMPDEST PUSH1 0x0 SWAP2 DUP3 MSTORE PUSH1 0x1 PUSH1 0x20 MSTORE PUSH1 0x40 SWAP1 SWAP2 KECCAK256 PUSH1 0x6 ADD SSTORE JUMP JUMPDEST PUSH1 0x0 DUP2 DUP2 MSTORE PUSH1 0x1 PUSH1 0x20 MSTORE PUSH1 0x40 DUP2 KECCAK256 DUP2 DUP1 DUP1 DUP1 JUMPDEST PUSH1 0x2 DUP6 ADD SLOAD DUP2 LT ISZERO PUSH2 0x2B24 JUMPI PUSH1 0x0 DUP6 PUSH1 0x2 ADD DUP3 DUP2 SLOAD DUP2 LT PUSH2 0x2A0C JUMPI PUSH4 0x4E487B71 PUSH1 0xE0 SHL PUSH1 0x0 MSTORE PUSH1 0x32 PUSH1 0x4 MSTORE PUSH1 0x24 PUSH1 0x0 REVERT JUMPDEST PUSH1 0x0 SWAP2 DUP3 MSTORE PUSH1 0x20 DUP1 DUP4 KECCAK256 SWAP1 SWAP2 ADD SLOAD PUSH1 0x1 PUSH1 0x1 PUSH1 0xA0 SHL SUB AND DUP1 DUP4 MSTORE PUSH1 0x4 DUP10 ADD SWAP1 SWAP2 MSTORE PUSH1 0x40 SWAP1 SWAP2 KECCAK256 SLOAD SWAP1 SWAP2 POP PUSH1 0xFF PUSH4 0x1000000 SWAP1 SWAP2 DIV AND ISZERO PUSH2 0x2A4C JUMPI POP PUSH2 0x2B12 JUMP JUMPDEST PUSH1 0x1 PUSH1 0x1 PUSH1 0xA0 SHL SUB DUP2 AND PUSH1 0x0 SWAP1 DUP2 MSTORE PUSH1 0x4 DUP8 ADD PUSH1 0x20 MSTORE PUSH1 0x40 DUP2 KECCAK256 SLOAD PUSH1 0x5 DUP9 ADD DUP1 SLOAD PUSH5 0x100000000 SWAP1 SWAP3 DIV PUSH1 0xFF AND SWAP3 SWAP2 DUP4 SWAP1 DUP2 LT PUSH2 0x2A99 JUMPI PUSH4 0x4E487B71 PUSH1 0xE0 SHL PUSH1 0x0 MSTORE PUSH1 0x32 PUSH1 0x4 MSTORE PUSH1 0x24 PUSH1 0x0 REVERT JUMPDEST PUSH1 0x0 SWAP2 DUP3 MSTORE PUSH1 0x20 SWAP2 DUP3 SWAP1 KECCAK256 PUSH1 0x40 DUP1 MLOAD DUP1 DUP3 ADD SWAP1 SWAP2 MSTORE SWAP2 ADD SLOAD PUSH1 0xFF DUP1 DUP3 AND DUP1 DUP5 MSTORE PUSH2 0x100 SWAP1 SWAP3 DIV DUP2 AND SWAP4 DUP4 ADD SWAP4 SWAP1 SWAP4 MSTORE SWAP1 SWAP3 POP SWAP1 DUP8 AND LT DUP1 PUSH2 0x2AF7 JUMPI POP DUP6 PUSH1 0xFF AND DUP2 PUSH1 0x0 ADD MLOAD PUSH1 0xFF AND EQ DUP1 ISZERO PUSH2 0x2AF7 JUMPI POP DUP5 PUSH1 0xFF AND DUP2 PUSH1 0x20 ADD MLOAD PUSH1 0xFF AND GT JUMPDEST ISZERO PUSH2 0x2B0E JUMPI DUP1 PUSH1 0x0 ADD MLOAD SWAP6 POP DUP1 PUSH1 0x20 ADD MLOAD SWAP5 POP DUP3 SWAP7 POP JUMPDEST POP POP POP JUMPDEST DUP1 PUSH2 0x2B1C DUP2 PUSH2 0x34A6 JUMP JUMPDEST SWAP2 POP POP PUSH2 0x29DB JUMP JUMPDEST POP SWAP2 SWAP6 SWAP5 POP POP POP POP POP JUMP JUMPDEST PUSH1 0x0 SWAP1 JUMP JUMPDEST POP DUP1 SLOAD PUSH1 0x0 DUP3 SSTORE SWAP1 PUSH1 0x0 MSTORE PUSH1 0x20 PUSH1 0x0 KECCAK256 SWAP1 DUP2 ADD SWAP1 PUSH2 0x2B52 SWAP2 SWAP1 PUSH2 0x2B6C JUMP JUMPDEST POP JUMP JUMPDEST PUSH1 0x40 DUP1 MLOAD DUP1 DUP3 ADD SWAP1 SWAP2 MSTORE PUSH1 0x0 DUP1 DUP3 MSTORE PUSH1 0x20 DUP3 ADD MSTORE SWAP1 JUMP JUMPDEST JUMPDEST DUP1 DUP3 GT ISZERO PUSH2 0x2B86 JUMPI DUP1 SLOAD PUSH2 0xFFFF NOT AND DUP2 SSTORE PUSH1 0x1 ADD PUSH2 0x2B6D JUMP JUMPDEST POP SWAP1 JUMP JUMPDEST DUP1 CALLDATALOAD PUSH1 0x1 PUSH1 0x1 PUSH1 0xA0 SHL SUB DUP2 AND DUP2 EQ PUSH2 0x17F6 JUMPI PUSH1 0x0 DUP1 REVERT JUMPDEST PUSH1 0x0 PUSH1 0x20 DUP3 DUP5 SUB SLT ISZERO PUSH2 0x2BB2 JUMPI DUP1 DUP2 REVERT JUMPDEST PUSH2 0x21E1 DUP3 PUSH2 0x2B8A JUMP JUMPDEST PUSH1 0x0 PUSH1 0x20 DUP3 DUP5 SUB SLT ISZERO PUSH2 0x2BCC JUMPI DUP1 DUP2 REVERT JUMPDEST POP CALLDATALOAD SWAP2 SWAP1 POP JUMP JUMPDEST PUSH1 0x0 DUP1 PUSH1 0x40 DUP4 DUP6 SUB SLT ISZERO PUSH2 0x2BE5 JUMPI DUP1 DUP2 REVERT JUMPDEST DUP3 CALLDATALOAD SWAP2 POP PUSH2 0x2BF5 PUSH1 0x20 DUP5 ADD PUSH2 0x2B8A JUMP JUMPDEST SWAP1 POP SWAP3 POP SWAP3 SWAP1 POP JUMP JUMPDEST PUSH1 0x0 DUP1 PUSH1 0x40 DUP4 DUP6 SUB SLT ISZERO PUSH2 0x2C10 JUMPI DUP2 DUP3 REVERT JUMPDEST POP POP DUP1 CALLDATALOAD SWAP3 PUSH1 0x20 SWAP1 SWAP2 ADD CALLDATALOAD SWAP2 POP JUMP JUMPDEST SWAP2 DUP3 MSTORE PUSH1 0x20 DUP3 ADD MSTORE PUSH1 0x40 ADD SWAP1 JUMP JUMPDEST PUSH1 0x1 PUSH1 0x1 PUSH1 0xA0 SHL SUB SWAP2 SWAP1 SWAP2 AND DUP2 MSTORE PUSH1 0x20 ADD SWAP1 JUMP JUMPDEST PUSH1 0x1 PUSH1 0x1 PUSH1 0xA0 SHL SUB SWAP3 DUP4 AND DUP2 MSTORE SWAP2 AND PUSH1 0x20 DUP3 ADD MSTORE PUSH1 0x40 ADD SWAP1 JUMP JUMPDEST PUSH1 0x1 PUSH1 0x1 PUSH1 0xA0 SHL SUB SWAP3 SWAP1 SWAP3 AND DUP3 MSTORE PUSH1 0x20 DUP3 ADD MSTORE PUSH1 0x40 ADD SWAP1 JUMP JUMPDEST PUSH1 0x20 DUP1 DUP3 MSTORE DUP3 MLOAD DUP3 DUP3 ADD DUP2 SWAP1 MSTORE PUSH1 0x0 SWAP2 SWAP1 DUP5 DUP3 ADD SWAP1 PUSH1 0x40 DUP6 ADD SWAP1 DUP5 JUMPDEST DUP2 DUP2 LT ISZERO PUSH2 0x2CB5 JUMPI DUP4 MLOAD PUSH1 0x1 PUSH1 0x1 PUSH1 0xA0 SHL SUB AND DUP4 MSTORE SWAP3 DUP5 ADD SWAP3 SWAP2 DUP5 ADD SWAP2 PUSH1 0x1 ADD PUSH2 0x2C90 JUMP JUMPDEST POP SWAP1 SWAP7 SWAP6 POP POP POP POP POP POP JUMP JUMPDEST SWAP1 ISZERO ISZERO DUP2 MSTORE PUSH1 0x20 ADD SWAP1 JUMP JUMPDEST SWAP6 ISZERO ISZERO DUP7 MSTORE SWAP4 ISZERO ISZERO PUSH1 0x20 DUP7 ADD MSTORE SWAP2 ISZERO ISZERO PUSH1 0x40 DUP6 ADD MSTORE ISZERO ISZERO PUSH1 0x60 DUP5 ADD MSTORE PUSH1 0x80 DUP4 ADD MSTORE PUSH1 0xA0 DUP3 ADD MSTORE PUSH1 0xC0 ADD SWAP1 JUMP JUMPDEST PUSH2 0x120 DUP2 ADD PUSH1 0x5 DUP12 LT PUSH2 0x2D1B JUMPI PUSH4 0x4E487B71 PUSH1 0xE0 SHL PUSH1 0x0 MSTORE PUSH1 0x21 PUSH1 0x4 MSTORE PUSH1 0x24 PUSH1 0x0 REVERT JUMPDEST SWAP10 DUP2 MSTORE PUSH1 0x20 DUP2 ADD SWAP9 SWAP1 SWAP9 MSTORE PUSH1 0x40 DUP9 ADD SWAP7 SWAP1 SWAP7 MSTORE PUSH1 0x60 DUP8 ADD SWAP5 SWAP1 SWAP5 MSTORE PUSH1 0x80 DUP7 ADD SWAP3 SWAP1 SWAP3 MSTORE PUSH1 0xA0 DUP6 ADD MSTORE PUSH1 0xC0 DUP5 ADD MSTORE PUSH1 0x1 PUSH1 0x1 PUSH1 0xA0 SHL SUB AND PUSH1 0xE0 DUP4 ADD MSTORE ISZERO ISZERO PUSH2 0x100 SWAP1 SWAP2 ADD MSTORE SWAP1 JUMP JUMPDEST PUSH1 0x20 DUP1 DUP3 MSTORE PUSH1 0x18 SWAP1 DUP3 ADD MSTORE PUSH32 0x416C726561647920757365642073776170206F7074696F6E0000000000000000 PUSH1 0x40 DUP3 ADD MSTORE PUSH1 0x60 ADD SWAP1 JUMP JUMPDEST PUSH1 0x20 DUP1 DUP3 MSTORE PUSH1 0x10 SWAP1 DUP3 ADD MSTORE PUSH16 0x1419595AC81C1A185CD948195B991959 PUSH1 0x82 SHL PUSH1 0x40 DUP3 ADD MSTORE PUSH1 0x60 ADD SWAP1 JUMP JUMPDEST PUSH1 0x20 DUP1 DUP3 MSTORE PUSH1 0x17 SWAP1 DUP3 ADD MSTORE PUSH32 0x4E6F2061637469766520706C617965727320666F756E64000000000000000000 PUSH1 0x40 DUP3 ADD MSTORE PUSH1 0x60 ADD SWAP1 JUMP JUMPDEST PUSH1 0x20 DUP1 DUP3 MSTORE PUSH1 0x11 SWAP1 DUP3 ADD MSTORE PUSH17 0x2737BA1030B1BA34BB3290383630BCB2B9 PUSH1 0x79 SHL PUSH1 0x40 DUP3 ADD MSTORE PUSH1 0x60 ADD SWAP1 JUMP JUMPDEST PUSH1 0x20 DUP1 DUP3 MSTORE PUSH1 0x12 SWAP1 DUP3 ADD MSTORE PUSH18 0x496E73756666696369656E74206368697073 PUSH1 0x70 SHL PUSH1 0x40 DUP3 ADD MSTORE PUSH1 0x60 ADD SWAP1 JUMP JUMPDEST PUSH1 0x20 DUP1 DUP3 MSTORE PUSH1 0xA SWAP1 DUP3 ADD MSTORE PUSH10 0x2737BA1035B2B2B832B9 PUSH1 0xB1 SHL PUSH1 0x40 DUP3 ADD MSTORE PUSH1 0x60 ADD SWAP1 JUMP JUMPDEST PUSH1 0x20 DUP1 DUP3 MSTORE PUSH1 0x2B SWAP1 DUP3 ADD MSTORE PUSH32 0x43726561746F722063616E2774206C656176652067616D652077697468206F74 PUSH1 0x40 DUP3 ADD MSTORE PUSH11 0x68657220706C6179657273 PUSH1 0xA8 SHL PUSH1 0x60 DUP3 ADD MSTORE PUSH1 0x80 ADD SWAP1 JUMP JUMPDEST PUSH1 0x20 DUP1 DUP3 MSTORE PUSH1 0x14 SWAP1 DUP3 ADD MSTORE PUSH20 0x105B1C9958591E481C1B1858D95908184818995D PUSH1 0x62 SHL PUSH1 0x40 DUP3 ADD MSTORE PUSH1 0x60 ADD SWAP1 JUMP JUMPDEST PUSH1 0x20 DUP1 DUP3 MSTORE PUSH1 0x16 SWAP1 DUP3 ADD MSTORE PUSH22 0x135D5CDD081B585D18DA0818DD5C9C995B9D0818995D PUSH1 0x52 SHL PUSH1 0x40 DUP3 ADD MSTORE PUSH1 0x60 ADD SWAP1 JUMP JUMPDEST PUSH1 0x20 DUP1 DUP3 MSTORE PUSH1 0xF SWAP1 DUP3 ADD MSTORE PUSH15 0x4E65656420322B20706C6179657273 PUSH1 0x88 SHL PUSH1 0x40 DUP3 ADD MSTORE PUSH1 0x60 ADD SWAP1 JUMP JUMPDEST PUSH1 0x20 DUP1 DUP3 MSTORE PUSH1 0x11 SWAP1 DUP3 ADD MSTORE PUSH17 0x4E6F742062657474696E67207068617365 PUSH1 0x78 SHL PUSH1 0x40 DUP3 ADD MSTORE PUSH1 0x60 ADD SWAP1 JUMP JUMPDEST PUSH1 0x20 DUP1 DUP3 MSTORE PUSH1 0x1B SWAP1 DUP3 ADD MSTORE PUSH32 0x4E6F20617661696C61626C6520636172647320666F7220737761700000000000 PUSH1 0x40 DUP3 ADD MSTORE PUSH1 0x60 ADD SWAP1 JUMP JUMPDEST PUSH1 0x20 DUP1 DUP3 MSTORE PUSH1 0x18 SWAP1 DUP3 ADD MSTORE PUSH32 0x47616D652068617320616C726561647920737461727465640000000000000000 PUSH1 0x40 DUP3 ADD MSTORE PUSH1 0x60 ADD SWAP1 JUMP JUMPDEST PUSH1 0x40 DUP1 DUP3 MSTORE PUSH1 0x4 SWAP1 DUP3 ADD MSTORE PUSH4 0x199BDB19 PUSH1 0xE2 SHL PUSH1 0x60 DUP3 ADD MSTORE PUSH1 0x20 DUP2 ADD SWAP2 SWAP1 SWAP2 MSTORE PUSH1 0x80 ADD SWAP1 JUMP JUMPDEST PUSH1 0x20 DUP1 DUP3 MSTORE PUSH1 0x17 SWAP1 DUP3 ADD MSTORE PUSH32 0x4D757374207065656B2061742063617264206669727374000000000000000000 PUSH1 0x40 DUP3 ADD MSTORE PUSH1 0x60 ADD SWAP1 JUMP JUMPDEST PUSH1 0x40 DUP1 DUP3 MSTORE PUSH1 0x4 SWAP1 DUP3 ADD MSTORE PUSH4 0x7377617 PUSH1 0xE4 SHL PUSH1 0x60 DUP3 ADD MSTORE PUSH1 0x20 DUP2 ADD SWAP2 SWAP1 SWAP2 MSTORE PUSH1 0x80 ADD SWAP1 JUMP JUMPDEST PUSH1 0x20 DUP1 DUP3 MSTORE PUSH1 0xE SWAP1 DUP3 ADD MSTORE PUSH14 0x4E6F74207065656B207068617365 PUSH1 0x90 SHL PUSH1 0x40 DUP3 ADD MSTORE PUSH1 0x60 ADD SWAP1 JUMP JUMPDEST PUSH1 0x20 DUP1 DUP3 MSTORE PUSH1 0xE SWAP1 DUP3 ADD MSTORE PUSH14 0x11D85B59481B9BDD08199BDD5B99 PUSH1 0x92 SHL PUSH1 0x40 DUP3 ADD MSTORE PUSH1 0x60 ADD SWAP1 JUMP JUMPDEST PUSH1 0x20 DUP1 DUP3 MSTORE PUSH1 0x10 SWAP1 DUP3 ADD MSTORE PUSH16 0x4E6F7420696E20746869732067616D65 PUSH1 0x80 SHL PUSH1 0x40 DUP3 ADD MSTORE PUSH1 0x60 ADD SWAP1 JUMP JUMPDEST PUSH1 0x40 DUP1 DUP3 MSTORE PUSH1 0x3 SWAP1 DUP3 ADD MSTORE PUSH3 0x18995D PUSH1 0xEA SHL PUSH1 0x60 DUP3 ADD MSTORE PUSH1 0x20 DUP2 ADD SWAP2 SWAP1 SWAP2 MSTORE PUSH1 0x80 ADD SWAP1 JUMP JUMPDEST PUSH1 0x20 DUP1 DUP3 MSTORE PUSH1 0x9 SWAP1 DUP3 ADD MSTORE PUSH9 0x11D85B5948199D5B1B PUSH1 0xBA SHL PUSH1 0x40 DUP3 ADD MSTORE PUSH1 0x60 ADD SWAP1 JUMP JUMPDEST PUSH1 0x40 DUP1 DUP3 MSTORE PUSH1 0x5 SWAP1 DUP3 ADD MSTORE PUSH5 0x6C65617665 PUSH1 0xD8 SHL PUSH1 0x60 DUP3 ADD MSTORE PUSH1 0x20 DUP2 ADD SWAP2 SWAP1 SWAP2 MSTORE PUSH1 0x80 ADD SWAP1 JUMP JUMPDEST PUSH1 0x20 DUP1 DUP3 MSTORE PUSH1 0x9 SWAP1 DUP3 ADD MSTORE PUSH9 0x2737BA1037BBB732B9 PUSH1 0xB9 SHL PUSH1 0x40 DUP3 ADD MSTORE PUSH1 0x60 ADD SWAP1 JUMP JUMPDEST PUSH1 0x20 DUP1 DUP3 MSTORE PUSH1 0xD SWAP1 DUP3 ADD MSTORE PUSH13 0x10995D081D1BDBC81CDB585B1B PUSH1 0x9A SHL PUSH1 0x40 DUP3 ADD MSTORE PUSH1 0x60 ADD SWAP1 JUMP JUMPDEST PUSH1 0x20 DUP1 DUP3 MSTORE PUSH1 0x1A SWAP1 DUP3 ADD MSTORE PUSH32 0x42657474696E67207068617365206E6F742066696E6973686564000000000000 PUSH1 0x40 DUP3 ADD MSTORE PUSH1 0x60 ADD SWAP1 JUMP JUMPDEST PUSH1 0x20 DUP1 DUP3 MSTORE PUSH1 0x16 SWAP1 DUP3 ADD MSTORE PUSH22 0x92DCECC2D8D2C840DCCAEE40C6C2E4C840D2DCC8CAF PUSH1 0x53 SHL PUSH1 0x40 DUP3 ADD MSTORE PUSH1 0x60 ADD SWAP1 JUMP JUMPDEST PUSH1 0x40 DUP1 DUP3 MSTORE PUSH1 0x4 SWAP1 DUP3 ADD MSTORE PUSH4 0x7065656B PUSH1 0xE0 SHL PUSH1 0x60 DUP3 ADD MSTORE PUSH1 0x20 DUP2 ADD SWAP2 SWAP1 SWAP2 MSTORE PUSH1 0x80 ADD SWAP1 JUMP JUMPDEST PUSH1 0x20 DUP1 DUP3 MSTORE PUSH1 0xE SWAP1 DUP3 ADD MSTORE PUSH14 0x105B1C9958591E48199BDB191959 PUSH1 0x92 SHL PUSH1 0x40 DUP3 ADD MSTORE PUSH1 0x60 ADD SWAP1 JUMP JUMPDEST PUSH1 0x20 DUP1 DUP3 MSTORE PUSH1 0x11 SWAP1 DUP3 ADD MSTORE PUSH17 0x416C726561647920696E20612067616D65 PUSH1 0x78 SHL PUSH1 0x40 DUP3 ADD MSTORE PUSH1 0x60 ADD SWAP1 JUMP JUMPDEST PUSH1 0x20 DUP1 DUP3 MSTORE PUSH1 0x17 SWAP1 DUP3 ADD MSTORE PUSH32 0x47616D6520616C726561647920636C65616E6564207570000000000000000000 PUSH1 0x40 DUP3 ADD MSTORE PUSH1 0x60 ADD SWAP1 JUMP JUMPDEST PUSH1 0x20 DUP1 DUP3 MSTORE PUSH1 0x10 SWAP1 DUP3 ADD MSTORE PUSH16 0x2737BA1033B0B6B29031B932B0BA37B9 PUSH1 0x81 SHL PUSH1 0x40 DUP3 ADD MSTORE PUSH1 0x60 ADD SWAP1 JUMP JUMPDEST PUSH1 0x20 DUP1 DUP3 MSTORE PUSH1 0xE SWAP1 DUP3 ADD MSTORE PUSH14 0x105B1C9958591E481C19595AD959 PUSH1 0x92 SHL PUSH1 0x40 DUP3 ADD MSTORE PUSH1 0x60 ADD SWAP1 JUMP JUMPDEST PUSH1 0x20 DUP1 DUP3 MSTORE PUSH1 0x19 SWAP1 DUP3 ADD MSTORE PUSH32 0x4E6577206361726420616C72656164792061737369676E656400000000000000 PUSH1 0x40 DUP3 ADD MSTORE PUSH1 0x60 ADD SWAP1 JUMP JUMPDEST PUSH1 0x20 DUP1 DUP3 MSTORE PUSH1 0x14 SWAP1 DUP3 ADD MSTORE PUSH20 0x11D85B5948185B1C9958591E481CDD185C9D1959 PUSH1 0x62 SHL PUSH1 0x40 DUP3 ADD MSTORE PUSH1 0x60 ADD SWAP1 JUMP JUMPDEST PUSH1 0x20 DUP1 DUP3 MSTORE PUSH1 0xE SWAP1 DUP3 ADD MSTORE PUSH14 0x11D85B59481B9BDD08195B991959 PUSH1 0x92 SHL PUSH1 0x40 DUP3 ADD MSTORE PUSH1 0x60 ADD SWAP1 JUMP JUMPDEST PUSH1 0x20 DUP1 DUP3 MSTORE PUSH1 0x13 SWAP1 DUP3 ADD MSTORE PUSH19 0x10995D1D1A5B99C81C1A185CD948195B991959 PUSH1 0x6A SHL PUSH1 0x40 DUP3 ADD MSTORE PUSH1 0x60 ADD SWAP1 JUMP JUMPDEST PUSH1 0x20 DUP1 DUP3 MSTORE PUSH1 0x17 SWAP1 DUP3 ADD MSTORE PUSH32 0x5065656B207068617365206E6F742066696E6973686564000000000000000000 PUSH1 0x40 DUP3 ADD MSTORE PUSH1 0x60 ADD SWAP1 JUMP JUMPDEST SWAP1 DUP2 MSTORE PUSH1 0x20 ADD SWAP1 JUMP JUMPDEST PUSH1 0xFF SWAP2 SWAP1 SWAP2 AND DUP2 MSTORE PUSH1 0x20 ADD SWAP1 JUMP JUMPDEST PUSH1 0xFF SWAP3 DUP4 AND DUP2 MSTORE SWAP2 AND PUSH1 0x20 DUP3 ADD MSTORE PUSH1 0x40 ADD SWAP1 JUMP JUMPDEST PUSH1 0x0 DUP3 NOT DUP3 GT ISZERO PUSH2 0x342E JUMPI PUSH2 0x342E PUSH2 0x3501 JUMP JUMPDEST POP ADD SWAP1 JUMP JUMPDEST PUSH1 0x0 DUP3 DUP3 LT ISZERO PUSH2 0x3445 JUMPI PUSH2 0x3445 PUSH2 0x3501 JUMP JUMPDEST POP SUB SWAP1 JUMP JUMPDEST PUSH1 0x0 PUSH1 0xFF DUP3 AND PUSH1 0xFF DUP5 AND DUP1 DUP3 LT ISZERO PUSH2 0x3464 JUMPI PUSH2 0x3464 PUSH2 0x3501 JUMP JUMPDEST SWAP1 SUB SWAP4 SWAP3 POP POP POP JUMP JUMPDEST PUSH1 0x0 DUP2 PUSH2 0x347C JUMPI PUSH2 0x347C PUSH2 0x3501 JUMP JUMPDEST POP PUSH1 0x0 NOT ADD SWAP1 JUMP JUMPDEST PUSH1 0x0 PUSH2 0xFFFF DUP1 DUP4 AND DUP2 DUP2 EQ ISZERO PUSH2 0x349C JUMPI PUSH2 0x349C PUSH2 0x3501 JUMP JUMPDEST PUSH1 0x1 ADD SWAP4 SWAP3 POP POP POP JUMP JUMPDEST PUSH1 0x0 PUSH1 0x0 NOT DUP3 EQ ISZERO PUSH2 0x34BA JUMPI PUSH2 0x34BA PUSH2 0x3501 JUMP JUMPDEST POP PUSH1 0x1 ADD SWAP1 JUMP JUMPDEST PUSH1 0x0 PUSH1 0xFF DUP3 AND PUSH1 0xFF DUP2 EQ ISZERO PUSH2 0x34D8 JUMPI PUSH2 0x34D8 PUSH2 0x3501 JUMP JUMPDEST PUSH1 0x1 ADD SWAP3 SWAP2 POP POP JUMP JUMPDEST PUSH1 0x0 DUP3 PUSH2 0x34FC JUMPI PUSH4 0x4E487B71 PUSH1 0xE0 SHL DUP2 MSTORE PUSH1 0x12 PUSH1 0x4 MSTORE PUSH1 0x24 DUP2 REVERT JUMPDEST POP MOD SWAP1 JUMP JUMPDEST PUSH4 0x4E487B71 PUSH1 0xE0 SHL PUSH1 0x0 MSTORE PUSH1 0x11 PUSH1 0x4 MSTORE PUSH1 0x24 PUSH1 0x0 REVERT INVALID RETURN 0xD4 CREATE2 PUSH31 0x5AAE06B4017C0B2ED81F62AA6F19DEEF046D6A78AD2A4223858C4F0A26469 PUSH17 0x66735822122068E9AA47D11B68796542A1 0x48 MOD PUSH11 0xBCE6EAD5705B991CCDB07 CALLVALUE 0xB6 0x22 0xC5 0x2B 0xCF 0xD5 PUSH5 0x736F6C6343 STOP ADDMOD STOP STOP CALLER "},"methodIdentifiers":{"BETTING_PHASE_DURATION()":"c493153a","INITIAL_CHIPS()":"fc2217c4","MAX_PLAYERS()":"4411b3eb","MINIMUM_BET()":"935aae40","PEEK_FEE()":"5d27e072","PEEK_PHASE_DURATION()":"00028e6e","STANDARD_DECK_SIZE()":"9c861bc5","SWAP_FEE()":"768aebde","addKeeper(address)":"4032b72b","checkAllPlayersMatched(uint256)":"ba3a9520","cleanup(uint256)":"0aa40018","createGame()":"7255d729","currentGameId()":"536a3ddc","endBettingPhase(uint256)":"30be62b2","endPeekPhase(uint256)":"09734764","fold(uint256)":"bff7a00b","getActivePlayerCount(uint256)":"a410274c","getActivePlayers(uint256)":"342ed956","getGameInfo(uint256)":"47e1d550","getPlayerInfo(uint256,address)":"3ccd10e9","getPlayers(uint256)":"460e2049","isKeeper(address)":"6ba42aaa","joinGame(uint256)":"efaa55a0","leaveGame(uint256)":"3feef58a","owner()":"8da5cb5b","peekAtCard(uint256)":"318ff5d1","placeBet(uint256,uint256)":"4afe62b5","playerCurrentGame(address)":"3a5ff200","removeKeeper(address)":"14ae9f2e","startGame(uint256)":"e5ed1d59","swapCard(uint256)":"26502648"}}}}}