{"contracts/vanilla/OneCard.sol":{"OneCard":{"abi":[{"inputs":[],"stateMutability":"nonpayable","type":"constructor"},{"anonymous":false,"inputs":[{"indexed":true,"internalType":"uint256","name":"gameId","type":"uint256"}],"name":"BettingPhaseStarted","type":"event"},{"anonymous":false,"inputs":[{"indexed":true,"internalType":"uint256","name":"gameId","type":"uint256"},{"indexed":true,"internalType":"address","name":"player","type":"address"}],"name":"CardDealt","type":"event"},{"anonymous":false,"inputs":[{"indexed":true,"internalType":"address","name":"player","type":"address"},{"indexed":false,"internalType":"uint8","name":"value","type":"uint8"},{"indexed":false,"internalType":"uint8","name":"suit","type":"uint8"}],"name":"CardPeeked","type":"event"},{"anonymous":false,"inputs":[{"indexed":true,"internalType":"uint256","name":"gameId","type":"uint256"},{"indexed":false,"internalType":"address","name":"player","type":"address"},{"indexed":false,"internalType":"uint8","name":"value","type":"uint8"},{"indexed":false,"internalType":"uint8","name":"suit","type":"uint8"}],"name":"CardRevealed","type":"event"},{"anonymous":false,"inputs":[{"indexed":true,"internalType":"uint256","name":"gameId","type":"uint256"},{"indexed":false,"internalType":"address","name":"player","type":"address"}],"name":"CardSwapped","type":"event"},{"anonymous":false,"inputs":[{"indexed":true,"internalType":"uint256","name":"gameId","type":"uint256"},{"indexed":false,"internalType":"address","name":"keeper","type":"address"},{"indexed":false,"internalType":"address","name":"creator","type":"address"}],"name":"GameCreated","type":"event"},{"anonymous":false,"inputs":[{"indexed":true,"internalType":"uint256","name":"gameId","type":"uint256"},{"indexed":false,"internalType":"address","name":"winner","type":"address"},{"indexed":false,"internalType":"uint256","name":"potAmount","type":"uint256"}],"name":"GameEnded","type":"event"},{"anonymous":false,"inputs":[{"indexed":true,"internalType":"uint256","name":"gameId","type":"uint256"}],"name":"PeekPhaseStarted","type":"event"},{"anonymous":false,"inputs":[{"indexed":true,"internalType":"uint256","name":"gameId","type":"uint256"},{"indexed":true,"internalType":"address","name":"player","type":"address"},{"indexed":false,"internalType":"string","name":"action","type":"string"},{"indexed":false,"internalType":"uint256","name":"amount","type":"uint256"}],"name":"PlayerAction","type":"event"},{"anonymous":false,"inputs":[{"indexed":true,"internalType":"uint256","name":"gameId","type":"uint256"},{"indexed":false,"internalType":"address","name":"player","type":"address"}],"name":"PlayerJoined","type":"event"},{"anonymous":false,"inputs":[{"indexed":true,"internalType":"uint256","name":"gameId","type":"uint256"},{"indexed":false,"internalType":"address","name":"player","type":"address"}],"name":"PlayerPeeked","type":"event"},{"anonymous":false,"inputs":[{"indexed":true,"internalType":"uint256","name":"gameId","type":"uint256"}],"name":"ShowdownStarted","type":"event"},{"inputs":[],"name":"BETTING_PHASE_DURATION","outputs":[{"internalType":"uint256","name":"","type":"uint256"}],"stateMutability":"view","type":"function"},{"inputs":[],"name":"INITIAL_CHIPS","outputs":[{"internalType":"uint256","name":"","type":"uint256"}],"stateMutability":"view","type":"function"},{"inputs":[],"name":"MAX_PLAYERS","outputs":[{"internalType":"uint8","name":"","type":"uint8"}],"stateMutability":"view","type":"function"},{"inputs":[],"name":"MINIMUM_BET","outputs":[{"internalType":"uint256","name":"","type":"uint256"}],"stateMutability":"view","type":"function"},{"inputs":[],"name":"PEEK_FEE","outputs":[{"internalType":"uint256","name":"","type":"uint256"}],"stateMutability":"view","type":"function"},{"inputs":[],"name":"PEEK_PHASE_DURATION","outputs":[{"internalType":"uint256","name":"","type":"uint256"}],"stateMutability":"view","type":"function"},{"inputs":[],"name":"STANDARD_DECK_SIZE","outputs":[{"internalType":"uint8","name":"","type":"uint8"}],"stateMutability":"view","type":"function"},{"inputs":[],"name":"SWAP_FEE","outputs":[{"internalType":"uint256","name":"","type":"uint256"}],"stateMutability":"view","type":"function"},{"inputs":[{"internalType":"address","name":"keeper","type":"address"}],"name":"addKeeper","outputs":[],"stateMutability":"nonpayable","type":"function"},{"inputs":[{"internalType":"uint256","name":"gameId","type":"uint256"}],"name":"checkAllPlayersMatched","outputs":[{"internalType":"bool","name":"","type":"bool"}],"stateMutability":"view","type":"function"},{"inputs":[{"internalType":"uint256","name":"gameId","type":"uint256"}],"name":"cleanup","outputs":[],"stateMutability":"nonpayable","type":"function"},{"inputs":[],"name":"createGame","outputs":[{"internalType":"uint256","name":"","type":"uint256"}],"stateMutability":"nonpayable","type":"function"},{"inputs":[],"name":"currentGameId","outputs":[{"internalType":"uint256","name":"","type":"uint256"}],"stateMutability":"view","type":"function"},{"inputs":[{"internalType":"uint256","name":"gameId","type":"uint256"}],"name":"endBettingPhase","outputs":[],"stateMutability":"nonpayable","type":"function"},{"inputs":[{"internalType":"uint256","name":"gameId","type":"uint256"}],"name":"endPeekPhase","outputs":[],"stateMutability":"nonpayable","type":"function"},{"inputs":[{"internalType":"uint256","name":"gameId","type":"uint256"}],"name":"fold","outputs":[],"stateMutability":"nonpayable","type":"function"},{"inputs":[{"internalType":"uint256","name":"gameId","type":"uint256"}],"name":"getActivePlayerCount","outputs":[{"internalType":"uint256","name":"","type":"uint256"}],"stateMutability":"view","type":"function"},{"inputs":[{"internalType":"uint256","name":"gameId","type":"uint256"}],"name":"getActivePlayers","outputs":[{"internalType":"address[]","name":"activePlayers","type":"address[]"}],"stateMutability":"view","type":"function"},{"inputs":[{"internalType":"uint256","name":"gameId","type":"uint256"}],"name":"getGameInfo","outputs":[{"internalType":"enum GameLibrary.GameState","name":"state","type":"uint8"},{"internalType":"uint256","name":"potAmount","type":"uint256"},{"internalType":"uint256","name":"currentBet","type":"uint256"},{"internalType":"uint256","name":"phaseEndTime","type":"uint256"},{"internalType":"uint256","name":"remainingTime","type":"uint256"},{"internalType":"uint256","name":"playerCount","type":"uint256"},{"internalType":"uint256","name":"activeCount","type":"uint256"},{"internalType":"address","name":"creator","type":"address"},{"internalType":"bool","name":"isCleanedUp","type":"bool"}],"stateMutability":"view","type":"function"},{"inputs":[{"internalType":"uint256","name":"gameId","type":"uint256"},{"internalType":"address","name":"player","type":"address"}],"name":"getPlayerInfo","outputs":[{"internalType":"bool","name":"isActive","type":"bool"},{"internalType":"bool","name":"hasPeeked","type":"bool"},{"internalType":"bool","name":"hasSwappedCard","type":"bool"},{"internalType":"bool","name":"hasFolded","type":"bool"},{"internalType":"uint256","name":"chipBalance","type":"uint256"},{"internalType":"uint256","name":"currentBet","type":"uint256"}],"stateMutability":"view","type":"function"},{"inputs":[{"internalType":"uint256","name":"gameId","type":"uint256"}],"name":"getPlayers","outputs":[{"internalType":"address[]","name":"players","type":"address[]"}],"stateMutability":"view","type":"function"},{"inputs":[{"internalType":"uint256","name":"gameId","type":"uint256"}],"name":"getRevealedCards","outputs":[{"internalType":"address[]","name":"players","type":"address[]"},{"internalType":"uint8[]","name":"values","type":"uint8[]"},{"internalType":"uint8[]","name":"suits","type":"uint8[]"}],"stateMutability":"view","type":"function"},{"inputs":[{"internalType":"address","name":"keeper","type":"address"}],"name":"isKeeper","outputs":[{"internalType":"bool","name":"","type":"bool"}],"stateMutability":"view","type":"function"},{"inputs":[{"internalType":"uint256","name":"gameId","type":"uint256"}],"name":"joinGame","outputs":[],"stateMutability":"nonpayable","type":"function"},{"inputs":[{"internalType":"uint256","name":"gameId","type":"uint256"}],"name":"leaveGame","outputs":[],"stateMutability":"nonpayable","type":"function"},{"inputs":[],"name":"owner","outputs":[{"internalType":"address","name":"","type":"address"}],"stateMutability":"view","type":"function"},{"inputs":[{"internalType":"uint256","name":"gameId","type":"uint256"}],"name":"peekAtCard","outputs":[],"stateMutability":"nonpayable","type":"function"},{"inputs":[{"internalType":"uint256","name":"gameId","type":"uint256"},{"internalType":"uint256","name":"betAmount","type":"uint256"}],"name":"placeBet","outputs":[],"stateMutability":"nonpayable","type":"function"},{"inputs":[{"internalType":"address","name":"","type":"address"}],"name":"playerCurrentGame","outputs":[{"internalType":"uint256","name":"","type":"uint256"}],"stateMutability":"view","type":"function"},{"inputs":[{"internalType":"address","name":"keeper","type":"address"}],"name":"removeKeeper","outputs":[],"stateMutability":"nonpayable","type":"function"},{"inputs":[{"internalType":"uint256","name":"gameId","type":"uint256"}],"name":"startGame","outputs":[],"stateMutability":"nonpayable","type":"function"},{"inputs":[{"internalType":"uint256","name":"gameId","type":"uint256"}],"name":"swapCard","outputs":[],"stateMutability":"nonpayable","type":"function"}],"evm":{"bytecode":{"linkReferences":{},"object":"60a060405234801561001057600080fd5b5033606081901b6080526000818152600360205260408120805460ff19166001179055613d2590610060903960008181610736015281816113af0152818161189c015261193f0152613d256000f3fe608060405234801561001057600080fd5b50600436106101ef5760003560e01c8063536a3ddc1161010f578063a410274c116100a2578063c493153a11610071578063c493153a14610427578063e5ed1d591461042f578063efaa55a014610442578063fc2217c414610455576101ef565b8063a410274c146103cc578063ba3a9520146103df578063bfd0d6c0146103f2578063bff7a00b14610414576101ef565b8063768aebde116100de578063768aebde1461039f5780638da5cb5b146103a7578063935aae40146103bc5780639c861bc5146103c4576101ef565b8063536a3ddc146103675780635d27e0721461036f5780636ba42aaa146103775780637255d72914610397576101ef565b80633a5ff200116101875780634411b3eb116101565780634411b3eb14610304578063460e20491461031957806347e1d5501461032c5780634afe62b514610354576101ef565b80633a5ff200146102a65780633ccd10e9146102b95780633feef58a146102de5780634032b72b146102f1576101ef565b806326502648116101c3578063265026481461024d57806330be62b214610260578063318ff5d114610273578063342ed95614610286576101ef565b8062028e6e146101f457806309734764146102125780630aa400181461022757806314ae9f2e1461023a575b600080fd5b6101fc61045d565b6040516102099190613ba8565b60405180910390f35b610225610220366004613242565b610462565b005b610225610235366004613242565b6105c8565b610225610248366004613228565b61072b565b61022561025b366004613242565b610794565b61022561026e366004613242565b610a6d565b610225610281366004613242565b610b86565b610299610294366004613242565b610e25565b6040516102099190613394565b6101fc6102b4366004613228565b610faa565b6102cc6102c736600461325a565b610fbc565b604051610209969594939291906133f5565b6102256102ec366004613242565b6110a9565b6102256102ff366004613228565b6113a4565b61030c611410565b6040516102099190613bb1565b610299610327366004613242565b611415565b61033f61033a366004613242565b6114b5565b60405161020999989796959493929190613421565b610225610362366004613285565b6115a4565b6101fc611809565b6101fc611410565b61038a610385366004613228565b61180f565b60405161020991906133ea565b6101fc611831565b6101fc611938565b6103af61193d565b6040516102099190613329565b6101fc611961565b61030c611966565b6101fc6103da366004613242565b61196b565b61038a6103ed366004613242565b6119b1565b610405610400366004613242565b611ae7565b604051610209939291906133a7565b610225610422366004613242565b611efd565b6101fc612295565b61022561043d366004613242565b61229b565b610225610450366004613242565b612414565b6101fc6125cb565b607881565b3360009081526003602052604090205460ff1661049a5760405162461bcd60e51b81526004016104919061357a565b60405180910390fd5b600081815260016020526040902054819081146104c95760405162461bcd60e51b8152600401610491906137b4565b6000828152600160205260409020600c0154829060ff16156104fd5760405162461bcd60e51b815260040161049190613a2e565b600083815260016020819052604090912090600182015460ff16600481111561053657634e487b7160e01b600052602160045260246000fd5b146105535760405162461bcd60e51b81526004016104919061378c565b80600b01544210156105775760405162461bcd60e51b815260040161049190613b71565b61058361012c42613bd3565b600b82015560018101805460ff1916600217905560405184907f359ad7e63db5f06f70341a18e68dba0ef153ef9adbff2af9293fc13daf6fc09590600090a250505050565b3360009081526003602052604090205460ff166105f75760405162461bcd60e51b81526004016104919061357a565b600081815260016020526040902054819081146106265760405162461bcd60e51b8152600401610491906137b4565b6000828152600160205260409020600c0154829060ff161561065a5760405162461bcd60e51b815260040161049190613a2e565b60008381526001602052604090206004600182015460ff16600481111561069157634e487b7160e01b600052602160045260246000fd5b146106ae5760405162461bcd60e51b815260040161049190613b1c565b60005b60028201548110156107175760008260020182815481106106e257634e487b7160e01b600052603260045260246000fd5b60009182526020808320909101546001600160a01b03168252600290526040812055508061070f81613c5e565b9150506106b1565b50600c01805460ff19166001179055505050565b336001600160a01b037f000000000000000000000000000000000000000000000000000000000000000016146107735760405162461bcd60e51b8152600401610491906138d4565b6001600160a01b03166000908152600360205260409020805460ff19169055565b600081815260016020526040902054819081146107c35760405162461bcd60e51b8152600401610491906137b4565b6000828152600160209081526040808320338452600401909152902054829060ff166108015760405162461bcd60e51b815260040161049190613523565b6000838152600160205260409020600c0154839060ff16156108355760405162461bcd60e51b815260040161049190613a2e565b60008481526001602081815260408084203385526004810190925290922090600183015460ff16600481111561087b57634e487b7160e01b600052602160045260246000fd5b146108985760405162461bcd60e51b81526004016104919061378c565b81600b015442106108bb5760405162461bcd60e51b8152600401610491906134c2565b8054610100900460ff166108e15760405162461bcd60e51b81526004016104919061372f565b805462010000900460ff16156109095760405162461bcd60e51b81526004016104919061348b565b60078160010154101561092e5760405162461bcd60e51b81526004016104919061354e565b60018082018054600619019055815462ff000019166201000017808355426003840155600483018054909201909155600160201b900460ff1661097187826125d0565b600061097c88612605565b905060008160ff161180156109945750603460ff8216105b6109b05760405162461bcd60e51b815260040161049190613985565b6109ba888261274c565b156109d75760405162461bcd60e51b815260040161049190613ab7565b6109e1888261276f565b825464ff000000001916600160201b60ff83160217835560405188907f885764703e2aefc4846ebb38d0f5da9044c8ade279e4fa2f48f13d993f5fb3bf90610a2a903390613329565b60405180910390a2336001600160a01b031688600080516020613cd08339815191526007604051610a5b9190613766565b60405180910390a35050505050505050565b3360009081526003602052604090205460ff16610a9c5760405162461bcd60e51b81526004016104919061357a565b60008181526001602052604090205481908114610acb5760405162461bcd60e51b8152600401610491906137b4565b6000828152600160205260409020600c0154829060ff1615610aff5760405162461bcd60e51b815260040161049190613a2e565b60008381526001602052604090206002600182015460ff166004811115610b3657634e487b7160e01b600052602160045260246000fd5b14610b535760405162461bcd60e51b815260040161049190613670565b80600b0154421015610b775760405162461bcd60e51b81526004016104919061391e565b610b808461278b565b50505050565b60008181526001602052604090205481908114610bb55760405162461bcd60e51b8152600401610491906137b4565b6000828152600160209081526040808320338452600401909152902054829060ff16610bf35760405162461bcd60e51b815260040161049190613523565b6000838152600160205260409020600c0154839060ff1615610c275760405162461bcd60e51b815260040161049190613a2e565b60008481526001602081815260408084203385526004810190925290922090600183015460ff166004811115610c6d57634e487b7160e01b600052602160045260246000fd5b14610c8a5760405162461bcd60e51b81526004016104919061378c565b81600b01544210610cad5760405162461bcd60e51b8152600401610491906134c2565b8054610100900460ff1615610cd45760405162461bcd60e51b815260040161049190613a8f565b600581600101541015610cf95760405162461bcd60e51b81526004016104919061354e565b60018082018054600419019055815461ff00191661010017808355426003840155600483018054909201909155600583018054600160201b90920460ff16916000919083908110610d5a57634e487b7160e01b600052603260045260246000fd5b6000918252602091829020604080518082018252929091015460ff80821680855261010090920416938301849052905191935033927fbdf2f0687b7c6f0b8dde29a86969ba9a1e60ce7d560dc87e0bc637aead3a8c1c92610dbc929190613bbf565b60405180910390a2877fbd3a6d7726f96a60006b9be9178cd721a199630ff7daaac35c2566c74e725fba33604051610df49190613329565b60405180910390a2336001600160a01b031688600080516020613cd08339815191526005604051610a5b91906139b5565b60008181526001602052604090205460609082908114610e575760405162461bcd60e51b8152600401610491906137b4565b6000838152600160205260409020600381015467ffffffffffffffff811115610e9057634e487b7160e01b600052604160045260246000fd5b604051908082528060200260200182016040528015610eb9578160200160208202803683370190505b509250806003015460001415610ecf5750610fa4565b6000805b6002830154811015610fa0576000836002018281548110610f0457634e487b7160e01b600052603260045260246000fd5b60009182526020808320909101546001600160a01b03168083526004870190915260409091205490915060ff630100000090910416610f8d5780868481518110610f5e57634e487b7160e01b600052603260045260246000fd5b6001600160a01b039092166020928302919091019091015260038401546001909301928310610f8d5750610fa0565b5080610f9881613c5e565b915050610ed3565b5050505b50919050565b60026020526000908152604090205481565b6000828152600160205260408120548190819081908190819088908114610ff55760405162461bcd60e51b8152600401610491906137b4565b60008981526001602090815260408083206001600160a01b038c16808552600482019093529220903314611063578054600182015460029092015460ff8083169b50610100830481169a506201000083048116995063010000009092049091169650909450925061109e9050565b8054600182015460029092015460ff8083169b50610100830481169a5062010000830481169950630100000090920490911696509094509250505b509295509295509295565b600081815260016020526040902054819081146110d85760405162461bcd60e51b8152600401610491906137b4565b6000828152600160205260409020600c0154829060ff161561110c5760405162461bcd60e51b815260040161049190613a2e565b6000838152600160209081526040808320338452600481019092529091205460ff1661114a5760405162461bcd60e51b81526004016104919061380b565b6000600182015460ff16600481111561117357634e487b7160e01b600052602160045260246000fd5b146111905760405162461bcd60e51b815260040161049190613aee565b600a8101546001600160a01b0316331415806111b0575060028101546001145b6111cc5760405162461bcd60e51b81526004016104919061359e565b60005b600282015481101561131757336001600160a01b031682600201828154811061120857634e487b7160e01b600052603260045260246000fd5b6000918252602090912001546001600160a01b031614156113055760028201805461123590600190613beb565b8154811061125357634e487b7160e01b600052603260045260246000fd5b6000918252602090912001546002830180546001600160a01b03909216918390811061128f57634e487b7160e01b600052603260045260246000fd5b9060005260206000200160006101000a8154816001600160a01b0302191690836001600160a01b03160217905550816002018054806112de57634e487b7160e01b600052603160045260246000fd5b600082815260209020810160001990810180546001600160a01b0319169055019055611317565b8061130f81613c5e565b9150506111cf565b5060038082018054600019019055336000818152600480850160209081526040808420805464ffffffffff1916815560018101859055600280820186905596810185905590920183905593909352828120819055915190918691600080516020613cd08339815191529161138a916138ad565b60405180910390a36002810154610b8057610b80846127e0565b336001600160a01b037f000000000000000000000000000000000000000000000000000000000000000016146113ec5760405162461bcd60e51b8152600401610491906138d4565b6001600160a01b03166000908152600360205260409020805460ff19166001179055565b600581565b600081815260016020526040902054606090829081146114475760405162461bcd60e51b8152600401610491906137b4565b600083815260016020908152604091829020600201805483518184028101840190945280845290918301828280156114a857602002820191906000526020600020905b81546001600160a01b0316815260019091019060200180831161148a575b5050505050915050919050565b600080600080600080600080600089806001600083815260200190815260200160002060000154146114f95760405162461bcd60e51b8152600401610491906137b4565b60008b8152600160205260408120600b810154909190421015611529574282600b01546115269190613beb565b90505b8160010160009054906101000a900460ff168260070154836008015484600b0154848660020180549050876003015488600a0160009054906101000a90046001600160a01b031689600c0160009054906101000a900460ff169b509b509b509b509b509b509b509b509b505050509193959799909294969850565b600082815260016020526040902054829081146115d35760405162461bcd60e51b8152600401610491906137b4565b6000838152600160209081526040808320338452600401909152902054839060ff166116115760405162461bcd60e51b815260040161049190613523565b6000848152600160205260409020600c0154849060ff16156116455760405162461bcd60e51b815260040161049190613a2e565b6000858152600160209081526040808320338452600481019092529091206002600183015460ff16600481111561168c57634e487b7160e01b600052602160045260246000fd5b146116a95760405162461bcd60e51b815260040161049190613670565b81600b015442106116cc5760405162461bcd60e51b815260040161049190613b44565b80546301000000900460ff16156116f55760405162461bcd60e51b8152600401610491906139db565b60018610156117165760405162461bcd60e51b8152600401610491906138f7565b6002810154156117385760405162461bcd60e51b8152600401610491906135e9565b6008820154156117665781600801548610156117665760405162461bcd60e51b815260040161049190613617565b858160010154101561178a5760405162461bcd60e51b81526004016104919061354e565b600481018054600190810190915581018054879003905560028101868155600783018054880190554260038301556008830154905411156117d057600281015460088301555b336001600160a01b031687600080516020613cd0833981519152886040516117f89190613835565b60405180910390a350505050505050565b60005481565b6001600160a01b03811660009081526003602052604090205460ff165b919050565b336000908152600260205260408120541561185e5760405162461bcd60e51b815260040161049190613a03565b60008054600190810180835580835260208290526040808420828155928301805460ff199081169091556009840180546001600160a01b03199081167f00000000000000000000000000000000000000000000000000000000000000006001600160a01b03811691909117909255600a86018054339216821790556003860196909655600c850180549092169091559051919384927f8946648bc1dbc670d3f07e2c4de91731227b6d4ccc53b8ab1e951e84d960577e9261192092909161333d565b60405180910390a2611932823361289f565b50905090565b600781565b7f000000000000000000000000000000000000000000000000000000000000000090565b600181565b603481565b6000818152600160205260408120548290811461199a5760405162461bcd60e51b8152600401610491906137b4565b505060009081526001602052604090206003015490565b600081815260016020526040812054829081146119e05760405162461bcd60e51b8152600401610491906137b4565b60008381526001602052604090206002600182015460ff166004811115611a1757634e487b7160e01b600052602160045260246000fd5b14611a26576000925050610fa4565b60005b6002820154811015611adc576000826002018281548110611a5a57634e487b7160e01b600052603260045260246000fd5b60009182526020808320909101546001600160a01b03168083526004860190915260409091205490915060ff63010000009091041615611a9a5750611aca565b6001600160a01b0381166000908152600484016020526040902060020154611ac85760009450505050610fa4565b505b80611ad481613c5e565b915050611a29565b506001949350505050565b6000818152600160205260409020546060908190819084908114611b1d5760405162461bcd60e51b8152600401610491906137b4565b60008581526001602052604090206003600182015460ff166004811115611b5457634e487b7160e01b600052602160045260246000fd5b1480611b8657506004600182015460ff166004811115611b8457634e487b7160e01b600052602160045260246000fd5b145b611ba25760405162461bcd60e51b815260040161049190613955565b6000805b6002830154811015611c2f57826004016000846002018381548110611bdb57634e487b7160e01b600052603260045260246000fd5b60009182526020808320909101546001600160a01b0316835282019290925260400190205460ff630100000090910416611c1d5781611c1981613c5e565b9250505b80611c2781613c5e565b915050611ba6565b508067ffffffffffffffff811115611c5757634e487b7160e01b600052604160045260246000fd5b604051908082528060200260200182016040528015611c80578160200160208202803683370190505b5095508067ffffffffffffffff811115611caa57634e487b7160e01b600052604160045260246000fd5b604051908082528060200260200182016040528015611cd3578160200160208202803683370190505b5094508067ffffffffffffffff811115611cfd57634e487b7160e01b600052604160045260246000fd5b604051908082528060200260200182016040528015611d26578160200160208202803683370190505b5093506000805b6002840154811015611ef1576000846002018281548110611d5e57634e487b7160e01b600052603260045260246000fd5b60009182526020808320909101546001600160a01b03168083526004880190915260409091205490915060ff63010000009091041615611d9e5750611edf565b6001600160a01b0381166000908152600486016020526040812054600587018054600160201b90920460ff16929183908110611dea57634e487b7160e01b600052603260045260246000fd5b60009182526020918290206040805180820190915291015460ff808216835261010090910416918101919091528b5190915083908c9087908110611e3e57634e487b7160e01b600052603260045260246000fd5b60200260200101906001600160a01b031690816001600160a01b03168152505080600001518a8681518110611e8357634e487b7160e01b600052603260045260246000fd5b602002602001019060ff16908160ff16815250508060200151898681518110611ebc57634e487b7160e01b600052603260045260246000fd5b60ff9092166020928302919091019091015284611ed881613c5e565b9550505050505b80611ee981613c5e565b915050611d2d565b50505050509193909250565b60008181526001602052604090205481908114611f2c5760405162461bcd60e51b8152600401610491906137b4565b6000828152600160209081526040808320338452600401909152902054829060ff16611f6a5760405162461bcd60e51b815260040161049190613523565b6000838152600160205260409020600c0154839060ff1615611f9e5760405162461bcd60e51b815260040161049190613a2e565b6000848152600160209081526040808320338452600481019092529091206002600183015460ff166004811115611fe557634e487b7160e01b600052602160045260246000fd5b146120025760405162461bcd60e51b815260040161049190613670565b81600b015442106120255760405162461bcd60e51b815260040161049190613b44565b80546301000000900460ff161561204e5760405162461bcd60e51b8152600401610491906139db565b6004810180546001019055805463ff00000019166301000000178155426003808301919091558201805460001901905560405133908790600080516020613cd0833981519152906120a190600090613709565b60405180910390a381600301546001141561228d5760006120c187612989565b6007840180546001600160a01b03831660009081526004870160205260408120600101805490920190915590549192505b600285015481101561223057600085600201828154811061212357634e487b7160e01b600052603260045260246000fd5b60009182526020808320909101546001600160a01b03168083526004890190915260409091205490915060ff63010000009091041615612163575061221e565b6001600160a01b0381166000908152600487016020526040812054600588018054600160201b90920460ff169291839081106121af57634e487b7160e01b600052603260045260246000fd5b6000918252602091829020604080518082018252919092015460ff8082168084526101009092041693820184905291519093508e927fe7507dc066a25b8c1a555b221ce4b823fea88b34a900f0800dd90115dcca29809261221292889290613370565b60405180910390a25050505b8061222881613c5e565b9150506120f2565b5060018401805460ff1916600417905560405188907ff1898de79c348962fab7695532341027e5bceb0ea2a8785790fa7d7efeeee129906122749085908590613357565b60405180910390a2505060006007830181905560088301555b505050505050565b61012c81565b600081815260016020526040902054819081146122ca5760405162461bcd60e51b8152600401610491906137b4565b6000828152600160205260409020600c0154829060ff16156122fe5760405162461bcd60e51b815260040161049190613a2e565b6000838152600160205260409020600a015483906001600160a01b031633146123395760405162461bcd60e51b815260040161049190613a65565b600084815260016020526040812090600182015460ff16600481111561236f57634e487b7160e01b600052602160045260246000fd5b1461238c5760405162461bcd60e51b8152600401610491906136d2565b60028181015410156123b05760405162461bcd60e51b815260040161049190613647565b6123bb607842613bd3565b600b8201556001808201805460ff191690911790556123d985612a39565b6123e285612bc1565b60405185907f1a2ba96bf245728c460e13d78a1591bcb45e67de1240b6654190f8c0bbdd070090600090a25050505050565b600081815260016020526040902054819081146124435760405162461bcd60e51b8152600401610491906137b4565b6000828152600160205260409020600c0154829060ff16156124775760405162461bcd60e51b815260040161049190613a2e565b600083815260016020526040812090600182015460ff1660048111156124ad57634e487b7160e01b600052602160045260246000fd5b146124ca5760405162461bcd60e51b8152600401610491906136d2565b60028101546005116124ee5760405162461bcd60e51b81526004016104919061385a565b336000908152600260205260409020541561251b5760405162461bcd60e51b815260040161049190613a03565b60028082018054600181810183556000928352602080842090920180546001600160a01b03191633908117909155808452600480870184526040808620805460ff191685178155601981860155426003808301919091559281018790559690945293839020899055928501805490910190555186917f87969bc7faf902221a147b95ceba76e011c5efb0339a0a8ee7a2bb82d9cfbbd6916125bc9190613329565b60405180910390a25050505050565b601981565b6000828152600160205260409020600601546125ec9082612ca7565b6000928352600160205260409092206006019190915550565b6000818152600160209081526040808320815160348082526106a0820190935290928492908201610680803683370190505090506000805b600584015460ff821610156126b157612656868261274c565b61269f5780838361ffff168151811061267f57634e487b7160e01b600052603260045260246000fd5b60ff909216602092830291909101909101528161269b81613c3c565b9250505b806126a981613c79565b91505061263d565b5060008161ffff16116126d65760405162461bcd60e51b81526004016104919061369b565b60008161ffff1644426040516020016126f092919061331b565b6040516020818303038152906040528051906020012060001c6127139190613c99565b9050828161ffff168151811061273957634e487b7160e01b600052603260045260246000fd5b6020026020010151945050505050919050565b6000828152600160205260408120600601546127689083612cb5565b9392505050565b6000828152600160205260409020600601546125ec9082612cc4565b6000818152600160208190526040808320918201805460ff1916600317905551909183917fcfeaa304021cfd684ad30c51a76ffd4139eb4b36c6e97d94cce4df46b71ee9779190a26127dc82612cd1565b5050565b60008181526001602052604090206002810154156128105760405162461bcd60e51b81526004016104919061387d565b61281e6005820160006131bb565b600c8101805460ff1916600117905560405182907ff1898de79c348962fab7695532341027e5bceb0ea2a8785790fa7d7efeeee12990612862906000908190613357565b60405180910390a2336001600160a01b031682600080516020613cd0833981519152600060405161289391906137dc565b60405180910390a35050565b60008281526001602090815260408083206001600160a01b0385168452600290925290912054156128d057506127dc565b60028181018054600180820183556000928352602080842090920180546001600160a01b0319166001600160a01b0388169081179091558352600480860183526040808520805460ff19168417815560198185015542600380830191909155928101869055959093529282902087905591840180549092019091555184907f87969bc7faf902221a147b95ceba76e011c5efb0339a0a8ee7a2bb82d9cfbbd69061297b908690613329565b60405180910390a250505050565b6000818152600160205260408120815b6002820154811015612a205760008260020182815481106129ca57634e487b7160e01b600052603260045260246000fd5b60009182526020808320909101546001600160a01b03168083526004860190915260409091205490915060ff630100000090910416612a0d57925061182c915050565b5080612a1881613c5e565b915050612999565b5060405162461bcd60e51b8152600401610491906134ec565b600081815260016020526040812090612a569060058301906131bb565b6040805160348082526106a08201909252600091816020015b612a776131dc565b815260200190600190039081612a6f5790505090506000805b60048160ff161015612b275760025b600e8160ff1611612b145760405180604001604052808260ff1681526020018360ff16815250848460ff1681518110612ae857634e487b7160e01b600052603260045260246000fd5b60200260200101819052508280612afe90613c79565b9350508080612b0c90613c79565b915050612a9f565b5080612b1f81613c79565b915050612a90565b506000612b3383612f09565b905060005b603481101561228d5784600501828281518110612b6557634e487b7160e01b600052603260045260246000fd5b6020908102919091018101518254600181018455600093845292829020815193018054919092015160ff9081166101000261ff00199190941660ff19909216919091171691909117905580612bb981613c5e565b915050612b38565b6000818152600160205260409020612bd882613033565b60005b6002820154811015612ca2576000826002018281548110612c0c57634e487b7160e01b600052603260045260246000fd5b6000918252602080832091909101546001600160a01b0316808352600486019091526040909120805464ff000000001916600160201b60ff861602179055905081612c57858261276f565b6040516001600160a01b0383169086907fce005d12bca3b432651fa3635a44056e071a659e4c958fc7e9ad8ba2b6221a0490600090a350508080612c9a90613c5e565b915050612bdb565b505050565b600160ff919091161b191690565b600160ff919091161b16151590565b600160ff919091161b1790565b600081815260016020526040812090612ce983613050565b905060005b6002830154811015612e78576000836002018281548110612d1f57634e487b7160e01b600052603260045260246000fd5b60009182526020808320909101546001600160a01b03168083526004870190915260409091205490915060ff63010000009091041615612d5f5750612e66565b6001600160a01b0381166000908152600485016020526040812054600586018054600160201b90920460ff16929183908110612dab57634e487b7160e01b600052603260045260246000fd5b6000918252602091829020604080518082018252929091015460ff8082168085526101009092041693830184905290519193506001600160a01b038616927fbdf2f0687b7c6f0b8dde29a86969ba9a1e60ce7d560dc87e0bc637aead3a8c1c92612e16929190613bbf565b60405180910390a2867fe7507dc066a25b8c1a555b221ce4b823fea88b34a900f0800dd90115dcca29808483600001518460200151604051612e5a93929190613370565b60405180910390a25050505b80612e7081613c5e565b915050612cee565b506007820180546001600160a01b03831660009081526004808601602052604091829020600190810180549094019093559254918501805460ff1916909317909255905184907ff1898de79c348962fab7695532341027e5bceb0ea2a8785790fa7d7efeeee12990612eed9085908590613357565b60405180910390a2505060006007820181905560089091015550565b6060446000612f1a60016034613c02565b60ff1690505b801561302b576000612f33826001613bd3565b8383604051602001612f4692919061331b565b6040516020818303038152906040528051906020012060001c612f699190613c99565b90506000858381518110612f8d57634e487b7160e01b600052603260045260246000fd5b60200260200101519050858281518110612fb757634e487b7160e01b600052603260045260246000fd5b6020026020010151868481518110612fdf57634e487b7160e01b600052603260045260246000fd5b60200260200101819052508086838151811061300b57634e487b7160e01b600052603260045260246000fd5b60200260200101819052505050808061302390613c25565b915050612f20565b509192915050565b61303b6131b6565b60009182526001602052604090912060060155565b6000818152600160205260408120818080805b60028501548110156131ab57600085600201828154811061309457634e487b7160e01b600052603260045260246000fd5b60009182526020808320909101546001600160a01b03168083526004890190915260409091205490915060ff630100000090910416156130d45750613199565b6001600160a01b0381166000908152600487016020526040812054600588018054600160201b90920460ff1692918390811061312057634e487b7160e01b600052603260045260246000fd5b60009182526020918290206040805180820190915291015460ff808216808452610100909204811693830193909352909250908716108061317e57508560ff16816000015160ff1614801561317e57508460ff16816020015160ff16115b156131955780600001519550806020015194508296505b5050505b806131a381613c5e565b915050613063565b509195945050505050565b600090565b50805460008255906000526020600020908101906131d991906131f3565b50565b604080518082019091526000808252602082015290565b5b8082111561320d57805461ffff191681556001016131f4565b5090565b80356001600160a01b038116811461182c57600080fd5b600060208284031215613239578081fd5b61276882613211565b600060208284031215613253578081fd5b5035919050565b6000806040838503121561326c578081fd5b8235915061327c60208401613211565b90509250929050565b60008060408385031215613297578182fd5b50508035926020909101359150565b6000815180845260208085019450808401835b838110156132de5781516001600160a01b0316875295820195908201906001016132b9565b509495945050505050565b6000815180845260208085019450808401835b838110156132de57815160ff16875295820195908201906001016132fc565b918252602082015260400190565b6001600160a01b0391909116815260200190565b6001600160a01b0392831681529116602082015260400190565b6001600160a01b03929092168252602082015260400190565b6001600160a01b0393909316835260ff918216602084015216604082015260600190565b60006020825261276860208301846132a6565b6000606082526133ba60608301866132a6565b82810360208401526133cc81866132e9565b905082810360408401526133e081856132e9565b9695505050505050565b901515815260200190565b95151586529315156020860152911515604085015215156060840152608083015260a082015260c00190565b610120810160058b1061344457634e487b7160e01b600052602160045260246000fd5b998152602081019890985260408801969096526060870194909452608086019290925260a085015260c08401526001600160a01b031660e083015215156101009091015290565b60208082526018908201527f416c726561647920757365642073776170206f7074696f6e0000000000000000604082015260600190565b60208082526010908201526f1419595ac81c1a185cd948195b99195960821b604082015260600190565b60208082526017908201527f4e6f2061637469766520706c617965727320666f756e64000000000000000000604082015260600190565b6020808252601190820152702737ba1030b1ba34bb3290383630bcb2b960791b604082015260600190565b602080825260129082015271496e73756666696369656e7420636869707360701b604082015260600190565b6020808252600a90820152692737ba1035b2b2b832b960b11b604082015260600190565b6020808252602b908201527f43726561746f722063616e2774206c656176652067616d652077697468206f7460408201526a68657220706c617965727360a81b606082015260800190565b602080825260149082015273105b1c9958591e481c1b1858d95908184818995d60621b604082015260600190565b602080825260169082015275135d5cdd081b585d18da0818dd5c9c995b9d0818995d60521b604082015260600190565b6020808252600f908201526e4e65656420322b20706c617965727360881b604082015260600190565b6020808252601190820152704e6f742062657474696e6720706861736560781b604082015260600190565b6020808252601b908201527f4e6f20617661696c61626c6520636172647320666f7220737761700000000000604082015260600190565b60208082526018908201527f47616d652068617320616c726561647920737461727465640000000000000000604082015260600190565b604080825260049082015263199bdb1960e21b6060820152602081019190915260800190565b60208082526017908201527f4d757374207065656b2061742063617264206669727374000000000000000000604082015260600190565b6040808252600490820152630737761760e41b6060820152602081019190915260800190565b6020808252600e908201526d4e6f74207065656b20706861736560901b604082015260600190565b6020808252600e908201526d11d85b59481b9bdd08199bdd5b9960921b604082015260600190565b6040808252600d908201526c636c65616e75705f656d70747960981b6060820152602081019190915260800190565b60208082526010908201526f4e6f7420696e20746869732067616d6560801b604082015260600190565b60408082526003908201526218995d60ea1b6060820152602081019190915260800190565b60208082526009908201526811d85b5948199d5b1b60ba1b604082015260600190565b60208082526016908201527547616d65207374696c6c2068617320706c617965727360501b604082015260600190565b6040808252600590820152646c6561766560d81b6060820152602081019190915260800190565b6020808252600990820152682737ba1037bbb732b960b91b604082015260600190565b6020808252600d908201526c10995d081d1bdbc81cdb585b1b609a1b604082015260600190565b6020808252601a908201527f42657474696e67207068617365206e6f742066696e6973686564000000000000604082015260600190565b60208082526016908201527510d85c991cc81b9bdd081e595d081c995d99585b195960521b604082015260600190565b602080825260169082015275092dcecc2d8d2c840dccaee40c6c2e4c840d2dcc8caf60531b604082015260600190565b6040808252600490820152637065656b60e01b6060820152602081019190915260800190565b6020808252600e908201526d105b1c9958591e48199bdb19195960921b604082015260600190565b602080825260119082015270416c726561647920696e20612067616d6560781b604082015260600190565b60208082526017908201527f47616d6520616c726561647920636c65616e6564207570000000000000000000604082015260600190565b60208082526010908201526f2737ba1033b0b6b29031b932b0ba37b960811b604082015260600190565b6020808252600e908201526d105b1c9958591e481c19595ad95960921b604082015260600190565b60208082526019908201527f4e6577206361726420616c72656164792061737369676e656400000000000000604082015260600190565b60208082526014908201527311d85b5948185b1c9958591e481cdd185c9d195960621b604082015260600190565b6020808252600e908201526d11d85b59481b9bdd08195b99195960921b604082015260600190565b60208082526013908201527210995d1d1a5b99c81c1a185cd948195b991959606a1b604082015260600190565b60208082526017908201527f5065656b207068617365206e6f742066696e6973686564000000000000000000604082015260600190565b90815260200190565b60ff91909116815260200190565b60ff92831681529116602082015260400190565b60008219821115613be657613be6613cb9565b500190565b600082821015613bfd57613bfd613cb9565b500390565b600060ff821660ff841680821015613c1c57613c1c613cb9565b90039392505050565b600081613c3457613c34613cb9565b506000190190565b600061ffff80831681811415613c5457613c54613cb9565b6001019392505050565b6000600019821415613c7257613c72613cb9565b5060010190565b600060ff821660ff811415613c9057613c90613cb9565b60010192915050565b600082613cb457634e487b7160e01b81526012600452602481fd5b500690565b634e487b7160e01b600052601160045260246000fdfef3d4f57e05aae06b4017c0b2ed81f62aa6f19deef046d6a78ad2a4223858c4f0a2646970667358221220c7f3362e78f32f96b2c78de5eaf655017e4e199a53efd5b8c65cec39cc500b5a64736f6c63430008000033","opcodes":"PUSH1 0xA0 PUSH1 0x40 MSTORE CALLVALUE DUP1 ISZERO PUSH2 0x10 JUMPI PUSH1 0x0 DUP1 REVERT JUMPDEST POP CALLER PUSH1 0x60 DUP2 SWAP1 SHL PUSH1 0x80 MSTORE PUSH1 0x0 DUP2 DUP2 MSTORE PUSH1 0x3 PUSH1 0x20 MSTORE PUSH1 0x40 DUP2 KECCAK256 DUP1 SLOAD PUSH1 0xFF NOT AND PUSH1 0x1 OR SWAP1 SSTORE PUSH2 0x3D25 SWAP1 PUSH2 0x60 SWAP1 CODECOPY PUSH1 0x0 DUP2 DUP2 PUSH2 0x736 ADD MSTORE DUP2 DUP2 PUSH2 0x13AF ADD MSTORE DUP2 DUP2 PUSH2 0x189C ADD MSTORE PUSH2 0x193F ADD MSTORE PUSH2 0x3D25 PUSH1 0x0 RETURN INVALID PUSH1 0x80 PUSH1 0x40 MSTORE CALLVALUE DUP1 ISZERO PUSH2 0x10 JUMPI PUSH1 0x0 DUP1 REVERT JUMPDEST POP PUSH1 0x4 CALLDATASIZE LT PUSH2 0x1EF JUMPI PUSH1 0x0 CALLDATALOAD PUSH1 0xE0 SHR DUP1 PUSH4 0x536A3DDC GT PUSH2 0x10F JUMPI DUP1 PUSH4 0xA410274C GT PUSH2 0xA2 JUMPI DUP1 PUSH4 0xC493153A GT PUSH2 0x71 JUMPI DUP1 PUSH4 0xC493153A EQ PUSH2 0x427 JUMPI DUP1 PUSH4 0xE5ED1D59 EQ PUSH2 0x42F JUMPI DUP1 PUSH4 0xEFAA55A0 EQ PUSH2 0x442 JUMPI DUP1 PUSH4 0xFC2217C4 EQ PUSH2 0x455 JUMPI PUSH2 0x1EF JUMP JUMPDEST DUP1 PUSH4 0xA410274C EQ PUSH2 0x3CC JUMPI DUP1 PUSH4 0xBA3A9520 EQ PUSH2 0x3DF JUMPI DUP1 PUSH4 0xBFD0D6C0 EQ PUSH2 0x3F2 JUMPI DUP1 PUSH4 0xBFF7A00B EQ PUSH2 0x414 JUMPI PUSH2 0x1EF JUMP JUMPDEST DUP1 PUSH4 0x768AEBDE GT PUSH2 0xDE JUMPI DUP1 PUSH4 0x768AEBDE EQ PUSH2 0x39F JUMPI DUP1 PUSH4 0x8DA5CB5B EQ PUSH2 0x3A7 JUMPI DUP1 PUSH4 0x935AAE40 EQ PUSH2 0x3BC JUMPI DUP1 PUSH4 0x9C861BC5 EQ PUSH2 0x3C4 JUMPI PUSH2 0x1EF JUMP JUMPDEST DUP1 PUSH4 0x536A3DDC EQ PUSH2 0x367 JUMPI DUP1 PUSH4 0x5D27E072 EQ PUSH2 0x36F JUMPI DUP1 PUSH4 0x6BA42AAA EQ PUSH2 0x377 JUMPI DUP1 PUSH4 0x7255D729 EQ PUSH2 0x397 JUMPI PUSH2 0x1EF JUMP JUMPDEST DUP1 PUSH4 0x3A5FF200 GT PUSH2 0x187 JUMPI DUP1 PUSH4 0x4411B3EB GT PUSH2 0x156 JUMPI DUP1 PUSH4 0x4411B3EB EQ PUSH2 0x304 JUMPI DUP1 PUSH4 0x460E2049 EQ PUSH2 0x319 JUMPI DUP1 PUSH4 0x47E1D550 EQ PUSH2 0x32C JUMPI DUP1 PUSH4 0x4AFE62B5 EQ PUSH2 0x354 JUMPI PUSH2 0x1EF JUMP JUMPDEST DUP1 PUSH4 0x3A5FF200 EQ PUSH2 0x2A6 JUMPI DUP1 PUSH4 0x3CCD10E9 EQ PUSH2 0x2B9 JUMPI DUP1 PUSH4 0x3FEEF58A EQ PUSH2 0x2DE JUMPI DUP1 PUSH4 0x4032B72B EQ PUSH2 0x2F1 JUMPI PUSH2 0x1EF JUMP JUMPDEST DUP1 PUSH4 0x26502648 GT PUSH2 0x1C3 JUMPI DUP1 PUSH4 0x26502648 EQ PUSH2 0x24D JUMPI DUP1 PUSH4 0x30BE62B2 EQ PUSH2 0x260 JUMPI DUP1 PUSH4 0x318FF5D1 EQ PUSH2 0x273 JUMPI DUP1 PUSH4 0x342ED956 EQ PUSH2 0x286 JUMPI PUSH2 0x1EF JUMP JUMPDEST DUP1 PUSH3 0x28E6E EQ PUSH2 0x1F4 JUMPI DUP1 PUSH4 0x9734764 EQ PUSH2 0x212 JUMPI DUP1 PUSH4 0xAA40018 EQ PUSH2 0x227 JUMPI DUP1 PUSH4 0x14AE9F2E EQ PUSH2 0x23A JUMPI JUMPDEST PUSH1 0x0 DUP1 REVERT JUMPDEST PUSH2 0x1FC PUSH2 0x45D JUMP JUMPDEST PUSH1 0x40 MLOAD PUSH2 0x209 SWAP2 SWAP1 PUSH2 0x3BA8 JUMP JUMPDEST PUSH1 0x40 MLOAD DUP1 SWAP2 SUB SWAP1 RETURN JUMPDEST PUSH2 0x225 PUSH2 0x220 CALLDATASIZE PUSH1 0x4 PUSH2 0x3242 JUMP JUMPDEST PUSH2 0x462 JUMP JUMPDEST STOP JUMPDEST PUSH2 0x225 PUSH2 0x235 CALLDATASIZE PUSH1 0x4 PUSH2 0x3242 JUMP JUMPDEST PUSH2 0x5C8 JUMP JUMPDEST PUSH2 0x225 PUSH2 0x248 CALLDATASIZE PUSH1 0x4 PUSH2 0x3228 JUMP JUMPDEST PUSH2 0x72B JUMP JUMPDEST PUSH2 0x225 PUSH2 0x25B CALLDATASIZE PUSH1 0x4 PUSH2 0x3242 JUMP JUMPDEST PUSH2 0x794 JUMP JUMPDEST PUSH2 0x225 PUSH2 0x26E CALLDATASIZE PUSH1 0x4 PUSH2 0x3242 JUMP JUMPDEST PUSH2 0xA6D JUMP JUMPDEST PUSH2 0x225 PUSH2 0x281 CALLDATASIZE PUSH1 0x4 PUSH2 0x3242 JUMP JUMPDEST PUSH2 0xB86 JUMP JUMPDEST PUSH2 0x299 PUSH2 0x294 CALLDATASIZE PUSH1 0x4 PUSH2 0x3242 JUMP JUMPDEST PUSH2 0xE25 JUMP JUMPDEST PUSH1 0x40 MLOAD PUSH2 0x209 SWAP2 SWAP1 PUSH2 0x3394 JUMP JUMPDEST PUSH2 0x1FC PUSH2 0x2B4 CALLDATASIZE PUSH1 0x4 PUSH2 0x3228 JUMP JUMPDEST PUSH2 0xFAA JUMP JUMPDEST PUSH2 0x2CC PUSH2 0x2C7 CALLDATASIZE PUSH1 0x4 PUSH2 0x325A JUMP JUMPDEST PUSH2 0xFBC JUMP JUMPDEST PUSH1 0x40 MLOAD PUSH2 0x209 SWAP7 SWAP6 SWAP5 SWAP4 SWAP3 SWAP2 SWAP1 PUSH2 0x33F5 JUMP JUMPDEST PUSH2 0x225 PUSH2 0x2EC CALLDATASIZE PUSH1 0x4 PUSH2 0x3242 JUMP JUMPDEST PUSH2 0x10A9 JUMP JUMPDEST PUSH2 0x225 PUSH2 0x2FF CALLDATASIZE PUSH1 0x4 PUSH2 0x3228 JUMP JUMPDEST PUSH2 0x13A4 JUMP JUMPDEST PUSH2 0x30C PUSH2 0x1410 JUMP JUMPDEST PUSH1 0x40 MLOAD PUSH2 0x209 SWAP2 SWAP1 PUSH2 0x3BB1 JUMP JUMPDEST PUSH2 0x299 PUSH2 0x327 CALLDATASIZE PUSH1 0x4 PUSH2 0x3242 JUMP JUMPDEST PUSH2 0x1415 JUMP JUMPDEST PUSH2 0x33F PUSH2 0x33A CALLDATASIZE PUSH1 0x4 PUSH2 0x3242 JUMP JUMPDEST PUSH2 0x14B5 JUMP JUMPDEST PUSH1 0x40 MLOAD PUSH2 0x209 SWAP10 SWAP9 SWAP8 SWAP7 SWAP6 SWAP5 SWAP4 SWAP3 SWAP2 SWAP1 PUSH2 0x3421 JUMP JUMPDEST PUSH2 0x225 PUSH2 0x362 CALLDATASIZE PUSH1 0x4 PUSH2 0x3285 JUMP JUMPDEST PUSH2 0x15A4 JUMP JUMPDEST PUSH2 0x1FC PUSH2 0x1809 JUMP JUMPDEST PUSH2 0x1FC PUSH2 0x1410 JUMP JUMPDEST PUSH2 0x38A PUSH2 0x385 CALLDATASIZE PUSH1 0x4 PUSH2 0x3228 JUMP JUMPDEST PUSH2 0x180F JUMP JUMPDEST PUSH1 0x40 MLOAD PUSH2 0x209 SWAP2 SWAP1 PUSH2 0x33EA JUMP JUMPDEST PUSH2 0x1FC PUSH2 0x1831 JUMP JUMPDEST PUSH2 0x1FC PUSH2 0x1938 JUMP JUMPDEST PUSH2 0x3AF PUSH2 0x193D JUMP JUMPDEST PUSH1 0x40 MLOAD PUSH2 0x209 SWAP2 SWAP1 PUSH2 0x3329 JUMP JUMPDEST PUSH2 0x1FC PUSH2 0x1961 JUMP JUMPDEST PUSH2 0x30C PUSH2 0x1966 JUMP JUMPDEST PUSH2 0x1FC PUSH2 0x3DA CALLDATASIZE PUSH1 0x4 PUSH2 0x3242 JUMP JUMPDEST PUSH2 0x196B JUMP JUMPDEST PUSH2 0x38A PUSH2 0x3ED CALLDATASIZE PUSH1 0x4 PUSH2 0x3242 JUMP JUMPDEST PUSH2 0x19B1 JUMP JUMPDEST PUSH2 0x405 PUSH2 0x400 CALLDATASIZE PUSH1 0x4 PUSH2 0x3242 JUMP JUMPDEST PUSH2 0x1AE7 JUMP JUMPDEST PUSH1 0x40 MLOAD PUSH2 0x209 SWAP4 SWAP3 SWAP2 SWAP1 PUSH2 0x33A7 JUMP JUMPDEST PUSH2 0x225 PUSH2 0x422 CALLDATASIZE PUSH1 0x4 PUSH2 0x3242 JUMP JUMPDEST PUSH2 0x1EFD JUMP JUMPDEST PUSH2 0x1FC PUSH2 0x2295 JUMP JUMPDEST PUSH2 0x225 PUSH2 0x43D CALLDATASIZE PUSH1 0x4 PUSH2 0x3242 JUMP JUMPDEST PUSH2 0x229B JUMP JUMPDEST PUSH2 0x225 PUSH2 0x450 CALLDATASIZE PUSH1 0x4 PUSH2 0x3242 JUMP JUMPDEST PUSH2 0x2414 JUMP JUMPDEST PUSH2 0x1FC PUSH2 0x25CB JUMP JUMPDEST PUSH1 0x78 DUP2 JUMP JUMPDEST CALLER PUSH1 0x0 SWAP1 DUP2 MSTORE PUSH1 0x3 PUSH1 0x20 MSTORE PUSH1 0x40 SWAP1 KECCAK256 SLOAD PUSH1 0xFF AND PUSH2 0x49A JUMPI PUSH1 0x40 MLOAD PUSH3 0x461BCD PUSH1 0xE5 SHL DUP2 MSTORE PUSH1 0x4 ADD PUSH2 0x491 SWAP1 PUSH2 0x357A JUMP JUMPDEST PUSH1 0x40 MLOAD DUP1 SWAP2 SUB SWAP1 REVERT JUMPDEST PUSH1 0x0 DUP2 DUP2 MSTORE PUSH1 0x1 PUSH1 0x20 MSTORE PUSH1 0x40 SWAP1 KECCAK256 SLOAD DUP2 SWAP1 DUP2 EQ PUSH2 0x4C9 JUMPI PUSH1 0x40 MLOAD PUSH3 0x461BCD PUSH1 0xE5 SHL DUP2 MSTORE PUSH1 0x4 ADD PUSH2 0x491 SWAP1 PUSH2 0x37B4 JUMP JUMPDEST PUSH1 0x0 DUP3 DUP2 MSTORE PUSH1 0x1 PUSH1 0x20 MSTORE PUSH1 0x40 SWAP1 KECCAK256 PUSH1 0xC ADD SLOAD DUP3 SWAP1 PUSH1 0xFF AND ISZERO PUSH2 0x4FD JUMPI PUSH1 0x40 MLOAD PUSH3 0x461BCD PUSH1 0xE5 SHL DUP2 MSTORE PUSH1 0x4 ADD PUSH2 0x491 SWAP1 PUSH2 0x3A2E JUMP JUMPDEST PUSH1 0x0 DUP4 DUP2 MSTORE PUSH1 0x1 PUSH1 0x20 DUP2 SWAP1 MSTORE PUSH1 0x40 SWAP1 SWAP2 KECCAK256 SWAP1 PUSH1 0x1 DUP3 ADD SLOAD PUSH1 0xFF AND PUSH1 0x4 DUP2 GT ISZERO PUSH2 0x536 JUMPI PUSH4 0x4E487B71 PUSH1 0xE0 SHL PUSH1 0x0 MSTORE PUSH1 0x21 PUSH1 0x4 MSTORE PUSH1 0x24 PUSH1 0x0 REVERT JUMPDEST EQ PUSH2 0x553 JUMPI PUSH1 0x40 MLOAD PUSH3 0x461BCD PUSH1 0xE5 SHL DUP2 MSTORE PUSH1 0x4 ADD PUSH2 0x491 SWAP1 PUSH2 0x378C JUMP JUMPDEST DUP1 PUSH1 0xB ADD SLOAD TIMESTAMP LT ISZERO PUSH2 0x577 JUMPI PUSH1 0x40 MLOAD PUSH3 0x461BCD PUSH1 0xE5 SHL DUP2 MSTORE PUSH1 0x4 ADD PUSH2 0x491 SWAP1 PUSH2 0x3B71 JUMP JUMPDEST PUSH2 0x583 PUSH2 0x12C TIMESTAMP PUSH2 0x3BD3 JUMP JUMPDEST PUSH1 0xB DUP3 ADD SSTORE PUSH1 0x1 DUP2 ADD DUP1 SLOAD PUSH1 0xFF NOT AND PUSH1 0x2 OR SWAP1 SSTORE PUSH1 0x40 MLOAD DUP5 SWAP1 PUSH32 0x359AD7E63DB5F06F70341A18E68DBA0EF153EF9ADBFF2AF9293FC13DAF6FC095 SWAP1 PUSH1 0x0 SWAP1 LOG2 POP POP POP POP JUMP JUMPDEST CALLER PUSH1 0x0 SWAP1 DUP2 MSTORE PUSH1 0x3 PUSH1 0x20 MSTORE PUSH1 0x40 SWAP1 KECCAK256 SLOAD PUSH1 0xFF AND PUSH2 0x5F7 JUMPI PUSH1 0x40 MLOAD PUSH3 0x461BCD PUSH1 0xE5 SHL DUP2 MSTORE PUSH1 0x4 ADD PUSH2 0x491 SWAP1 PUSH2 0x357A JUMP JUMPDEST PUSH1 0x0 DUP2 DUP2 MSTORE PUSH1 0x1 PUSH1 0x20 MSTORE PUSH1 0x40 SWAP1 KECCAK256 SLOAD DUP2 SWAP1 DUP2 EQ PUSH2 0x626 JUMPI PUSH1 0x40 MLOAD PUSH3 0x461BCD PUSH1 0xE5 SHL DUP2 MSTORE PUSH1 0x4 ADD PUSH2 0x491 SWAP1 PUSH2 0x37B4 JUMP JUMPDEST PUSH1 0x0 DUP3 DUP2 MSTORE PUSH1 0x1 PUSH1 0x20 MSTORE PUSH1 0x40 SWAP1 KECCAK256 PUSH1 0xC ADD SLOAD DUP3 SWAP1 PUSH1 0xFF AND ISZERO PUSH2 0x65A JUMPI PUSH1 0x40 MLOAD PUSH3 0x461BCD PUSH1 0xE5 SHL DUP2 MSTORE PUSH1 0x4 ADD PUSH2 0x491 SWAP1 PUSH2 0x3A2E JUMP JUMPDEST PUSH1 0x0 DUP4 DUP2 MSTORE PUSH1 0x1 PUSH1 0x20 MSTORE PUSH1 0x40 SWAP1 KECCAK256 PUSH1 0x4 PUSH1 0x1 DUP3 ADD SLOAD PUSH1 0xFF AND PUSH1 0x4 DUP2 GT ISZERO PUSH2 0x691 JUMPI PUSH4 0x4E487B71 PUSH1 0xE0 SHL PUSH1 0x0 MSTORE PUSH1 0x21 PUSH1 0x4 MSTORE PUSH1 0x24 PUSH1 0x0 REVERT JUMPDEST EQ PUSH2 0x6AE JUMPI PUSH1 0x40 MLOAD PUSH3 0x461BCD PUSH1 0xE5 SHL DUP2 MSTORE PUSH1 0x4 ADD PUSH2 0x491 SWAP1 PUSH2 0x3B1C JUMP JUMPDEST PUSH1 0x0 JUMPDEST PUSH1 0x2 DUP3 ADD SLOAD DUP2 LT ISZERO PUSH2 0x717 JUMPI PUSH1 0x0 DUP3 PUSH1 0x2 ADD DUP3 DUP2 SLOAD DUP2 LT PUSH2 0x6E2 JUMPI PUSH4 0x4E487B71 PUSH1 0xE0 SHL PUSH1 0x0 MSTORE PUSH1 0x32 PUSH1 0x4 MSTORE PUSH1 0x24 PUSH1 0x0 REVERT JUMPDEST PUSH1 0x0 SWAP2 DUP3 MSTORE PUSH1 0x20 DUP1 DUP4 KECCAK256 SWAP1 SWAP2 ADD SLOAD PUSH1 0x1 PUSH1 0x1 PUSH1 0xA0 SHL SUB AND DUP3 MSTORE PUSH1 0x2 SWAP1 MSTORE PUSH1 0x40 DUP2 KECCAK256 SSTORE POP DUP1 PUSH2 0x70F DUP2 PUSH2 0x3C5E JUMP JUMPDEST SWAP2 POP POP PUSH2 0x6B1 JUMP JUMPDEST POP PUSH1 0xC ADD DUP1 SLOAD PUSH1 0xFF NOT AND PUSH1 0x1 OR SWAP1 SSTORE POP POP POP JUMP JUMPDEST CALLER PUSH1 0x1 PUSH1 0x1 PUSH1 0xA0 SHL SUB PUSH32 0x0 AND EQ PUSH2 0x773 JUMPI PUSH1 0x40 MLOAD PUSH3 0x461BCD PUSH1 0xE5 SHL DUP2 MSTORE PUSH1 0x4 ADD PUSH2 0x491 SWAP1 PUSH2 0x38D4 JUMP JUMPDEST PUSH1 0x1 PUSH1 0x1 PUSH1 0xA0 SHL SUB AND PUSH1 0x0 SWAP1 DUP2 MSTORE PUSH1 0x3 PUSH1 0x20 MSTORE PUSH1 0x40 SWAP1 KECCAK256 DUP1 SLOAD PUSH1 0xFF NOT AND SWAP1 SSTORE JUMP JUMPDEST PUSH1 0x0 DUP2 DUP2 MSTORE PUSH1 0x1 PUSH1 0x20 MSTORE PUSH1 0x40 SWAP1 KECCAK256 SLOAD DUP2 SWAP1 DUP2 EQ PUSH2 0x7C3 JUMPI PUSH1 0x40 MLOAD PUSH3 0x461BCD PUSH1 0xE5 SHL DUP2 MSTORE PUSH1 0x4 ADD PUSH2 0x491 SWAP1 PUSH2 0x37B4 JUMP JUMPDEST PUSH1 0x0 DUP3 DUP2 MSTORE PUSH1 0x1 PUSH1 0x20 SWAP1 DUP2 MSTORE PUSH1 0x40 DUP1 DUP4 KECCAK256 CALLER DUP5 MSTORE PUSH1 0x4 ADD SWAP1 SWAP2 MSTORE SWAP1 KECCAK256 SLOAD DUP3 SWAP1 PUSH1 0xFF AND PUSH2 0x801 JUMPI PUSH1 0x40 MLOAD PUSH3 0x461BCD PUSH1 0xE5 SHL DUP2 MSTORE PUSH1 0x4 ADD PUSH2 0x491 SWAP1 PUSH2 0x3523 JUMP JUMPDEST PUSH1 0x0 DUP4 DUP2 MSTORE PUSH1 0x1 PUSH1 0x20 MSTORE PUSH1 0x40 SWAP1 KECCAK256 PUSH1 0xC ADD SLOAD DUP4 SWAP1 PUSH1 0xFF AND ISZERO PUSH2 0x835 JUMPI PUSH1 0x40 MLOAD PUSH3 0x461BCD PUSH1 0xE5 SHL DUP2 MSTORE PUSH1 0x4 ADD PUSH2 0x491 SWAP1 PUSH2 0x3A2E JUMP JUMPDEST PUSH1 0x0 DUP5 DUP2 MSTORE PUSH1 0x1 PUSH1 0x20 DUP2 DUP2 MSTORE PUSH1 0x40 DUP1 DUP5 KECCAK256 CALLER DUP6 MSTORE PUSH1 0x4 DUP2 ADD SWAP1 SWAP3 MSTORE SWAP1 SWAP3 KECCAK256 SWAP1 PUSH1 0x1 DUP4 ADD SLOAD PUSH1 0xFF AND PUSH1 0x4 DUP2 GT ISZERO PUSH2 0x87B JUMPI PUSH4 0x4E487B71 PUSH1 0xE0 SHL PUSH1 0x0 MSTORE PUSH1 0x21 PUSH1 0x4 MSTORE PUSH1 0x24 PUSH1 0x0 REVERT JUMPDEST EQ PUSH2 0x898 JUMPI PUSH1 0x40 MLOAD PUSH3 0x461BCD PUSH1 0xE5 SHL DUP2 MSTORE PUSH1 0x4 ADD PUSH2 0x491 SWAP1 PUSH2 0x378C JUMP JUMPDEST DUP2 PUSH1 0xB ADD SLOAD TIMESTAMP LT PUSH2 0x8BB JUMPI PUSH1 0x40 MLOAD PUSH3 0x461BCD PUSH1 0xE5 SHL DUP2 MSTORE PUSH1 0x4 ADD PUSH2 0x491 SWAP1 PUSH2 0x34C2 JUMP JUMPDEST DUP1 SLOAD PUSH2 0x100 SWAP1 DIV PUSH1 0xFF AND PUSH2 0x8E1 JUMPI PUSH1 0x40 MLOAD PUSH3 0x461BCD PUSH1 0xE5 SHL DUP2 MSTORE PUSH1 0x4 ADD PUSH2 0x491 SWAP1 PUSH2 0x372F JUMP JUMPDEST DUP1 SLOAD PUSH3 0x10000 SWAP1 DIV PUSH1 0xFF AND ISZERO PUSH2 0x909 JUMPI PUSH1 0x40 MLOAD PUSH3 0x461BCD PUSH1 0xE5 SHL DUP2 MSTORE PUSH1 0x4 ADD PUSH2 0x491 SWAP1 PUSH2 0x348B JUMP JUMPDEST PUSH1 0x7 DUP2 PUSH1 0x1 ADD SLOAD LT ISZERO PUSH2 0x92E JUMPI PUSH1 0x40 MLOAD PUSH3 0x461BCD PUSH1 0xE5 SHL DUP2 MSTORE PUSH1 0x4 ADD PUSH2 0x491 SWAP1 PUSH2 0x354E JUMP JUMPDEST PUSH1 0x1 DUP1 DUP3 ADD DUP1 SLOAD PUSH1 0x6 NOT ADD SWAP1 SSTORE DUP2 SLOAD PUSH3 0xFF0000 NOT AND PUSH3 0x10000 OR DUP1 DUP4 SSTORE TIMESTAMP PUSH1 0x3 DUP5 ADD SSTORE PUSH1 0x4 DUP4 ADD DUP1 SLOAD SWAP1 SWAP3 ADD SWAP1 SWAP2 SSTORE PUSH1 0x1 PUSH1 0x20 SHL SWAP1 DIV PUSH1 0xFF AND PUSH2 0x971 DUP8 DUP3 PUSH2 0x25D0 JUMP JUMPDEST PUSH1 0x0 PUSH2 0x97C DUP9 PUSH2 0x2605 JUMP JUMPDEST SWAP1 POP PUSH1 0x0 DUP2 PUSH1 0xFF AND GT DUP1 ISZERO PUSH2 0x994 JUMPI POP PUSH1 0x34 PUSH1 0xFF DUP3 AND LT JUMPDEST PUSH2 0x9B0 JUMPI PUSH1 0x40 MLOAD PUSH3 0x461BCD PUSH1 0xE5 SHL DUP2 MSTORE PUSH1 0x4 ADD PUSH2 0x491 SWAP1 PUSH2 0x3985 JUMP JUMPDEST PUSH2 0x9BA DUP9 DUP3 PUSH2 0x274C JUMP JUMPDEST ISZERO PUSH2 0x9D7 JUMPI PUSH1 0x40 MLOAD PUSH3 0x461BCD PUSH1 0xE5 SHL DUP2 MSTORE PUSH1 0x4 ADD PUSH2 0x491 SWAP1 PUSH2 0x3AB7 JUMP JUMPDEST PUSH2 0x9E1 DUP9 DUP3 PUSH2 0x276F JUMP JUMPDEST DUP3 SLOAD PUSH5 0xFF00000000 NOT AND PUSH1 0x1 PUSH1 0x20 SHL PUSH1 0xFF DUP4 AND MUL OR DUP4 SSTORE PUSH1 0x40 MLOAD DUP9 SWAP1 PUSH32 0x885764703E2AEFC4846EBB38D0F5DA9044C8ADE279E4FA2F48F13D993F5FB3BF SWAP1 PUSH2 0xA2A SWAP1 CALLER SWAP1 PUSH2 0x3329 JUMP JUMPDEST PUSH1 0x40 MLOAD DUP1 SWAP2 SUB SWAP1 LOG2 CALLER PUSH1 0x1 PUSH1 0x1 PUSH1 0xA0 SHL SUB AND DUP9 PUSH1 0x0 DUP1 MLOAD PUSH1 0x20 PUSH2 0x3CD0 DUP4 CODECOPY DUP2 MLOAD SWAP2 MSTORE PUSH1 0x7 PUSH1 0x40 MLOAD PUSH2 0xA5B SWAP2 SWAP1 PUSH2 0x3766 JUMP JUMPDEST PUSH1 0x40 MLOAD DUP1 SWAP2 SUB SWAP1 LOG3 POP POP POP POP POP POP POP POP JUMP JUMPDEST CALLER PUSH1 0x0 SWAP1 DUP2 MSTORE PUSH1 0x3 PUSH1 0x20 MSTORE PUSH1 0x40 SWAP1 KECCAK256 SLOAD PUSH1 0xFF AND PUSH2 0xA9C JUMPI PUSH1 0x40 MLOAD PUSH3 0x461BCD PUSH1 0xE5 SHL DUP2 MSTORE PUSH1 0x4 ADD PUSH2 0x491 SWAP1 PUSH2 0x357A JUMP JUMPDEST PUSH1 0x0 DUP2 DUP2 MSTORE PUSH1 0x1 PUSH1 0x20 MSTORE PUSH1 0x40 SWAP1 KECCAK256 SLOAD DUP2 SWAP1 DUP2 EQ PUSH2 0xACB JUMPI PUSH1 0x40 MLOAD PUSH3 0x461BCD PUSH1 0xE5 SHL DUP2 MSTORE PUSH1 0x4 ADD PUSH2 0x491 SWAP1 PUSH2 0x37B4 JUMP JUMPDEST PUSH1 0x0 DUP3 DUP2 MSTORE PUSH1 0x1 PUSH1 0x20 MSTORE PUSH1 0x40 SWAP1 KECCAK256 PUSH1 0xC ADD SLOAD DUP3 SWAP1 PUSH1 0xFF AND ISZERO PUSH2 0xAFF JUMPI PUSH1 0x40 MLOAD PUSH3 0x461BCD PUSH1 0xE5 SHL DUP2 MSTORE PUSH1 0x4 ADD PUSH2 0x491 SWAP1 PUSH2 0x3A2E JUMP JUMPDEST PUSH1 0x0 DUP4 DUP2 MSTORE PUSH1 0x1 PUSH1 0x20 MSTORE PUSH1 0x40 SWAP1 KECCAK256 PUSH1 0x2 PUSH1 0x1 DUP3 ADD SLOAD PUSH1 0xFF AND PUSH1 0x4 DUP2 GT ISZERO PUSH2 0xB36 JUMPI PUSH4 0x4E487B71 PUSH1 0xE0 SHL PUSH1 0x0 MSTORE PUSH1 0x21 PUSH1 0x4 MSTORE PUSH1 0x24 PUSH1 0x0 REVERT JUMPDEST EQ PUSH2 0xB53 JUMPI PUSH1 0x40 MLOAD PUSH3 0x461BCD PUSH1 0xE5 SHL DUP2 MSTORE PUSH1 0x4 ADD PUSH2 0x491 SWAP1 PUSH2 0x3670 JUMP JUMPDEST DUP1 PUSH1 0xB ADD SLOAD TIMESTAMP LT ISZERO PUSH2 0xB77 JUMPI PUSH1 0x40 MLOAD PUSH3 0x461BCD PUSH1 0xE5 SHL DUP2 MSTORE PUSH1 0x4 ADD PUSH2 0x491 SWAP1 PUSH2 0x391E JUMP JUMPDEST PUSH2 0xB80 DUP5 PUSH2 0x278B JUMP JUMPDEST POP POP POP POP JUMP JUMPDEST PUSH1 0x0 DUP2 DUP2 MSTORE PUSH1 0x1 PUSH1 0x20 MSTORE PUSH1 0x40 SWAP1 KECCAK256 SLOAD DUP2 SWAP1 DUP2 EQ PUSH2 0xBB5 JUMPI PUSH1 0x40 MLOAD PUSH3 0x461BCD PUSH1 0xE5 SHL DUP2 MSTORE PUSH1 0x4 ADD PUSH2 0x491 SWAP1 PUSH2 0x37B4 JUMP JUMPDEST PUSH1 0x0 DUP3 DUP2 MSTORE PUSH1 0x1 PUSH1 0x20 SWAP1 DUP2 MSTORE PUSH1 0x40 DUP1 DUP4 KECCAK256 CALLER DUP5 MSTORE PUSH1 0x4 ADD SWAP1 SWAP2 MSTORE SWAP1 KECCAK256 SLOAD DUP3 SWAP1 PUSH1 0xFF AND PUSH2 0xBF3 JUMPI PUSH1 0x40 MLOAD PUSH3 0x461BCD PUSH1 0xE5 SHL DUP2 MSTORE PUSH1 0x4 ADD PUSH2 0x491 SWAP1 PUSH2 0x3523 JUMP JUMPDEST PUSH1 0x0 DUP4 DUP2 MSTORE PUSH1 0x1 PUSH1 0x20 MSTORE PUSH1 0x40 SWAP1 KECCAK256 PUSH1 0xC ADD SLOAD DUP4 SWAP1 PUSH1 0xFF AND ISZERO PUSH2 0xC27 JUMPI PUSH1 0x40 MLOAD PUSH3 0x461BCD PUSH1 0xE5 SHL DUP2 MSTORE PUSH1 0x4 ADD PUSH2 0x491 SWAP1 PUSH2 0x3A2E JUMP JUMPDEST PUSH1 0x0 DUP5 DUP2 MSTORE PUSH1 0x1 PUSH1 0x20 DUP2 DUP2 MSTORE PUSH1 0x40 DUP1 DUP5 KECCAK256 CALLER DUP6 MSTORE PUSH1 0x4 DUP2 ADD SWAP1 SWAP3 MSTORE SWAP1 SWAP3 KECCAK256 SWAP1 PUSH1 0x1 DUP4 ADD SLOAD PUSH1 0xFF AND PUSH1 0x4 DUP2 GT ISZERO PUSH2 0xC6D JUMPI PUSH4 0x4E487B71 PUSH1 0xE0 SHL PUSH1 0x0 MSTORE PUSH1 0x21 PUSH1 0x4 MSTORE PUSH1 0x24 PUSH1 0x0 REVERT JUMPDEST EQ PUSH2 0xC8A JUMPI PUSH1 0x40 MLOAD PUSH3 0x461BCD PUSH1 0xE5 SHL DUP2 MSTORE PUSH1 0x4 ADD PUSH2 0x491 SWAP1 PUSH2 0x378C JUMP JUMPDEST DUP2 PUSH1 0xB ADD SLOAD TIMESTAMP LT PUSH2 0xCAD JUMPI PUSH1 0x40 MLOAD PUSH3 0x461BCD PUSH1 0xE5 SHL DUP2 MSTORE PUSH1 0x4 ADD PUSH2 0x491 SWAP1 PUSH2 0x34C2 JUMP JUMPDEST DUP1 SLOAD PUSH2 0x100 SWAP1 DIV PUSH1 0xFF AND ISZERO PUSH2 0xCD4 JUMPI PUSH1 0x40 MLOAD PUSH3 0x461BCD PUSH1 0xE5 SHL DUP2 MSTORE PUSH1 0x4 ADD PUSH2 0x491 SWAP1 PUSH2 0x3A8F JUMP JUMPDEST PUSH1 0x5 DUP2 PUSH1 0x1 ADD SLOAD LT ISZERO PUSH2 0xCF9 JUMPI PUSH1 0x40 MLOAD PUSH3 0x461BCD PUSH1 0xE5 SHL DUP2 MSTORE PUSH1 0x4 ADD PUSH2 0x491 SWAP1 PUSH2 0x354E JUMP JUMPDEST PUSH1 0x1 DUP1 DUP3 ADD DUP1 SLOAD PUSH1 0x4 NOT ADD SWAP1 SSTORE DUP2 SLOAD PUSH2 0xFF00 NOT AND PUSH2 0x100 OR DUP1 DUP4 SSTORE TIMESTAMP PUSH1 0x3 DUP5 ADD SSTORE PUSH1 0x4 DUP4 ADD DUP1 SLOAD SWAP1 SWAP3 ADD SWAP1 SWAP2 SSTORE PUSH1 0x5 DUP4 ADD DUP1 SLOAD PUSH1 0x1 PUSH1 0x20 SHL SWAP1 SWAP3 DIV PUSH1 0xFF AND SWAP2 PUSH1 0x0 SWAP2 SWAP1 DUP4 SWAP1 DUP2 LT PUSH2 0xD5A JUMPI PUSH4 0x4E487B71 PUSH1 0xE0 SHL PUSH1 0x0 MSTORE PUSH1 0x32 PUSH1 0x4 MSTORE PUSH1 0x24 PUSH1 0x0 REVERT JUMPDEST PUSH1 0x0 SWAP2 DUP3 MSTORE PUSH1 0x20 SWAP2 DUP3 SWAP1 KECCAK256 PUSH1 0x40 DUP1 MLOAD DUP1 DUP3 ADD DUP3 MSTORE SWAP3 SWAP1 SWAP2 ADD SLOAD PUSH1 0xFF DUP1 DUP3 AND DUP1 DUP6 MSTORE PUSH2 0x100 SWAP1 SWAP3 DIV AND SWAP4 DUP4 ADD DUP5 SWAP1 MSTORE SWAP1 MLOAD SWAP2 SWAP4 POP CALLER SWAP3 PUSH32 0xBDF2F0687B7C6F0B8DDE29A86969BA9A1E60CE7D560DC87E0BC637AEAD3A8C1C SWAP3 PUSH2 0xDBC SWAP3 SWAP2 SWAP1 PUSH2 0x3BBF JUMP JUMPDEST PUSH1 0x40 MLOAD DUP1 SWAP2 SUB SWAP1 LOG2 DUP8 PUSH32 0xBD3A6D7726F96A60006B9BE9178CD721A199630FF7DAAAC35C2566C74E725FBA CALLER PUSH1 0x40 MLOAD PUSH2 0xDF4 SWAP2 SWAP1 PUSH2 0x3329 JUMP JUMPDEST PUSH1 0x40 MLOAD DUP1 SWAP2 SUB SWAP1 LOG2 CALLER PUSH1 0x1 PUSH1 0x1 PUSH1 0xA0 SHL SUB AND DUP9 PUSH1 0x0 DUP1 MLOAD PUSH1 0x20 PUSH2 0x3CD0 DUP4 CODECOPY DUP2 MLOAD SWAP2 MSTORE PUSH1 0x5 PUSH1 0x40 MLOAD PUSH2 0xA5B SWAP2 SWAP1 PUSH2 0x39B5 JUMP JUMPDEST PUSH1 0x0 DUP2 DUP2 MSTORE PUSH1 0x1 PUSH1 0x20 MSTORE PUSH1 0x40 SWAP1 KECCAK256 SLOAD PUSH1 0x60 SWAP1 DUP3 SWAP1 DUP2 EQ PUSH2 0xE57 JUMPI PUSH1 0x40 MLOAD PUSH3 0x461BCD PUSH1 0xE5 SHL DUP2 MSTORE PUSH1 0x4 ADD PUSH2 0x491 SWAP1 PUSH2 0x37B4 JUMP JUMPDEST PUSH1 0x0 DUP4 DUP2 MSTORE PUSH1 0x1 PUSH1 0x20 MSTORE PUSH1 0x40 SWAP1 KECCAK256 PUSH1 0x3 DUP2 ADD SLOAD PUSH8 0xFFFFFFFFFFFFFFFF DUP2 GT ISZERO PUSH2 0xE90 JUMPI PUSH4 0x4E487B71 PUSH1 0xE0 SHL PUSH1 0x0 MSTORE PUSH1 0x41 PUSH1 0x4 MSTORE PUSH1 0x24 PUSH1 0x0 REVERT JUMPDEST PUSH1 0x40 MLOAD SWAP1 DUP1 DUP3 MSTORE DUP1 PUSH1 0x20 MUL PUSH1 0x20 ADD DUP3 ADD PUSH1 0x40 MSTORE DUP1 ISZERO PUSH2 0xEB9 JUMPI DUP2 PUSH1 0x20 ADD PUSH1 0x20 DUP3 MUL DUP1 CALLDATASIZE DUP4 CALLDATACOPY ADD SWAP1 POP JUMPDEST POP SWAP3 POP DUP1 PUSH1 0x3 ADD SLOAD PUSH1 0x0 EQ ISZERO PUSH2 0xECF JUMPI POP PUSH2 0xFA4 JUMP JUMPDEST PUSH1 0x0 DUP1 JUMPDEST PUSH1 0x2 DUP4 ADD SLOAD DUP2 LT ISZERO PUSH2 0xFA0 JUMPI PUSH1 0x0 DUP4 PUSH1 0x2 ADD DUP3 DUP2 SLOAD DUP2 LT PUSH2 0xF04 JUMPI PUSH4 0x4E487B71 PUSH1 0xE0 SHL PUSH1 0x0 MSTORE PUSH1 0x32 PUSH1 0x4 MSTORE PUSH1 0x24 PUSH1 0x0 REVERT JUMPDEST PUSH1 0x0 SWAP2 DUP3 MSTORE PUSH1 0x20 DUP1 DUP4 KECCAK256 SWAP1 SWAP2 ADD SLOAD PUSH1 0x1 PUSH1 0x1 PUSH1 0xA0 SHL SUB AND DUP1 DUP4 MSTORE PUSH1 0x4 DUP8 ADD SWAP1 SWAP2 MSTORE PUSH1 0x40 SWAP1 SWAP2 KECCAK256 SLOAD SWAP1 SWAP2 POP PUSH1 0xFF PUSH4 0x1000000 SWAP1 SWAP2 DIV AND PUSH2 0xF8D JUMPI DUP1 DUP7 DUP5 DUP2 MLOAD DUP2 LT PUSH2 0xF5E JUMPI PUSH4 0x4E487B71 PUSH1 0xE0 SHL PUSH1 0x0 MSTORE PUSH1 0x32 PUSH1 0x4 MSTORE PUSH1 0x24 PUSH1 0x0 REVERT JUMPDEST PUSH1 0x1 PUSH1 0x1 PUSH1 0xA0 SHL SUB SWAP1 SWAP3 AND PUSH1 0x20 SWAP3 DUP4 MUL SWAP2 SWAP1 SWAP2 ADD SWAP1 SWAP2 ADD MSTORE PUSH1 0x3 DUP5 ADD SLOAD PUSH1 0x1 SWAP1 SWAP4 ADD SWAP3 DUP4 LT PUSH2 0xF8D JUMPI POP PUSH2 0xFA0 JUMP JUMPDEST POP DUP1 PUSH2 0xF98 DUP2 PUSH2 0x3C5E JUMP JUMPDEST SWAP2 POP POP PUSH2 0xED3 JUMP JUMPDEST POP POP POP JUMPDEST POP SWAP2 SWAP1 POP JUMP JUMPDEST PUSH1 0x2 PUSH1 0x20 MSTORE PUSH1 0x0 SWAP1 DUP2 MSTORE PUSH1 0x40 SWAP1 KECCAK256 SLOAD DUP2 JUMP JUMPDEST PUSH1 0x0 DUP3 DUP2 MSTORE PUSH1 0x1 PUSH1 0x20 MSTORE PUSH1 0x40 DUP2 KECCAK256 SLOAD DUP2 SWAP1 DUP2 SWAP1 DUP2 SWAP1 DUP2 SWAP1 DUP2 SWAP1 DUP9 SWAP1 DUP2 EQ PUSH2 0xFF5 JUMPI PUSH1 0x40 MLOAD PUSH3 0x461BCD PUSH1 0xE5 SHL DUP2 MSTORE PUSH1 0x4 ADD PUSH2 0x491 SWAP1 PUSH2 0x37B4 JUMP JUMPDEST PUSH1 0x0 DUP10 DUP2 MSTORE PUSH1 0x1 PUSH1 0x20 SWAP1 DUP2 MSTORE PUSH1 0x40 DUP1 DUP4 KECCAK256 PUSH1 0x1 PUSH1 0x1 PUSH1 0xA0 SHL SUB DUP13 AND DUP1 DUP6 MSTORE PUSH1 0x4 DUP3 ADD SWAP1 SWAP4 MSTORE SWAP3 KECCAK256 SWAP1 CALLER EQ PUSH2 0x1063 JUMPI DUP1 SLOAD PUSH1 0x1 DUP3 ADD SLOAD PUSH1 0x2 SWAP1 SWAP3 ADD SLOAD PUSH1 0xFF DUP1 DUP4 AND SWAP12 POP PUSH2 0x100 DUP4 DIV DUP2 AND SWAP11 POP PUSH3 0x10000 DUP4 DIV DUP2 AND SWAP10 POP PUSH4 0x1000000 SWAP1 SWAP3 DIV SWAP1 SWAP2 AND SWAP7 POP SWAP1 SWAP5 POP SWAP3 POP PUSH2 0x109E SWAP1 POP JUMP JUMPDEST DUP1 SLOAD PUSH1 0x1 DUP3 ADD SLOAD PUSH1 0x2 SWAP1 SWAP3 ADD SLOAD PUSH1 0xFF DUP1 DUP4 AND SWAP12 POP PUSH2 0x100 DUP4 DIV DUP2 AND SWAP11 POP PUSH3 0x10000 DUP4 DIV DUP2 AND SWAP10 POP PUSH4 0x1000000 SWAP1 SWAP3 DIV SWAP1 SWAP2 AND SWAP7 POP SWAP1 SWAP5 POP SWAP3 POP POP JUMPDEST POP SWAP3 SWAP6 POP SWAP3 SWAP6 POP SWAP3 SWAP6 JUMP JUMPDEST PUSH1 0x0 DUP2 DUP2 MSTORE PUSH1 0x1 PUSH1 0x20 MSTORE PUSH1 0x40 SWAP1 KECCAK256 SLOAD DUP2 SWAP1 DUP2 EQ PUSH2 0x10D8 JUMPI PUSH1 0x40 MLOAD PUSH3 0x461BCD PUSH1 0xE5 SHL DUP2 MSTORE PUSH1 0x4 ADD PUSH2 0x491 SWAP1 PUSH2 0x37B4 JUMP JUMPDEST PUSH1 0x0 DUP3 DUP2 MSTORE PUSH1 0x1 PUSH1 0x20 MSTORE PUSH1 0x40 SWAP1 KECCAK256 PUSH1 0xC ADD SLOAD DUP3 SWAP1 PUSH1 0xFF AND ISZERO PUSH2 0x110C JUMPI PUSH1 0x40 MLOAD PUSH3 0x461BCD PUSH1 0xE5 SHL DUP2 MSTORE PUSH1 0x4 ADD PUSH2 0x491 SWAP1 PUSH2 0x3A2E JUMP JUMPDEST PUSH1 0x0 DUP4 DUP2 MSTORE PUSH1 0x1 PUSH1 0x20 SWAP1 DUP2 MSTORE PUSH1 0x40 DUP1 DUP4 KECCAK256 CALLER DUP5 MSTORE PUSH1 0x4 DUP2 ADD SWAP1 SWAP3 MSTORE SWAP1 SWAP2 KECCAK256 SLOAD PUSH1 0xFF AND PUSH2 0x114A JUMPI PUSH1 0x40 MLOAD PUSH3 0x461BCD PUSH1 0xE5 SHL DUP2 MSTORE PUSH1 0x4 ADD PUSH2 0x491 SWAP1 PUSH2 0x380B JUMP JUMPDEST PUSH1 0x0 PUSH1 0x1 DUP3 ADD SLOAD PUSH1 0xFF AND PUSH1 0x4 DUP2 GT ISZERO PUSH2 0x1173 JUMPI PUSH4 0x4E487B71 PUSH1 0xE0 SHL PUSH1 0x0 MSTORE PUSH1 0x21 PUSH1 0x4 MSTORE PUSH1 0x24 PUSH1 0x0 REVERT JUMPDEST EQ PUSH2 0x1190 JUMPI PUSH1 0x40 MLOAD PUSH3 0x461BCD PUSH1 0xE5 SHL DUP2 MSTORE PUSH1 0x4 ADD PUSH2 0x491 SWAP1 PUSH2 0x3AEE JUMP JUMPDEST PUSH1 0xA DUP2 ADD SLOAD PUSH1 0x1 PUSH1 0x1 PUSH1 0xA0 SHL SUB AND CALLER EQ ISZERO DUP1 PUSH2 0x11B0 JUMPI POP PUSH1 0x2 DUP2 ADD SLOAD PUSH1 0x1 EQ JUMPDEST PUSH2 0x11CC JUMPI PUSH1 0x40 MLOAD PUSH3 0x461BCD PUSH1 0xE5 SHL DUP2 MSTORE PUSH1 0x4 ADD PUSH2 0x491 SWAP1 PUSH2 0x359E JUMP JUMPDEST PUSH1 0x0 JUMPDEST PUSH1 0x2 DUP3 ADD SLOAD DUP2 LT ISZERO PUSH2 0x1317 JUMPI CALLER PUSH1 0x1 PUSH1 0x1 PUSH1 0xA0 SHL SUB AND DUP3 PUSH1 0x2 ADD DUP3 DUP2 SLOAD DUP2 LT PUSH2 0x1208 JUMPI PUSH4 0x4E487B71 PUSH1 0xE0 SHL PUSH1 0x0 MSTORE PUSH1 0x32 PUSH1 0x4 MSTORE PUSH1 0x24 PUSH1 0x0 REVERT JUMPDEST PUSH1 0x0 SWAP2 DUP3 MSTORE PUSH1 0x20 SWAP1 SWAP2 KECCAK256 ADD SLOAD PUSH1 0x1 PUSH1 0x1 PUSH1 0xA0 SHL SUB AND EQ ISZERO PUSH2 0x1305 JUMPI PUSH1 0x2 DUP3 ADD DUP1 SLOAD PUSH2 0x1235 SWAP1 PUSH1 0x1 SWAP1 PUSH2 0x3BEB JUMP JUMPDEST DUP2 SLOAD DUP2 LT PUSH2 0x1253 JUMPI PUSH4 0x4E487B71 PUSH1 0xE0 SHL PUSH1 0x0 MSTORE PUSH1 0x32 PUSH1 0x4 MSTORE PUSH1 0x24 PUSH1 0x0 REVERT JUMPDEST PUSH1 0x0 SWAP2 DUP3 MSTORE PUSH1 0x20 SWAP1 SWAP2 KECCAK256 ADD SLOAD PUSH1 0x2 DUP4 ADD DUP1 SLOAD PUSH1 0x1 PUSH1 0x1 PUSH1 0xA0 SHL SUB SWAP1 SWAP3 AND SWAP2 DUP4 SWAP1 DUP2 LT PUSH2 0x128F JUMPI PUSH4 0x4E487B71 PUSH1 0xE0 SHL PUSH1 0x0 MSTORE PUSH1 0x32 PUSH1 0x4 MSTORE PUSH1 0x24 PUSH1 0x0 REVERT JUMPDEST SWAP1 PUSH1 0x0 MSTORE PUSH1 0x20 PUSH1 0x0 KECCAK256 ADD PUSH1 0x0 PUSH2 0x100 EXP DUP2 SLOAD DUP2 PUSH1 0x1 PUSH1 0x1 PUSH1 0xA0 SHL SUB MUL NOT AND SWAP1 DUP4 PUSH1 0x1 PUSH1 0x1 PUSH1 0xA0 SHL SUB AND MUL OR SWAP1 SSTORE POP DUP2 PUSH1 0x2 ADD DUP1 SLOAD DUP1 PUSH2 0x12DE JUMPI PUSH4 0x4E487B71 PUSH1 0xE0 SHL PUSH1 0x0 MSTORE PUSH1 0x31 PUSH1 0x4 MSTORE PUSH1 0x24 PUSH1 0x0 REVERT JUMPDEST PUSH1 0x0 DUP3 DUP2 MSTORE PUSH1 0x20 SWAP1 KECCAK256 DUP2 ADD PUSH1 0x0 NOT SWAP1 DUP2 ADD DUP1 SLOAD PUSH1 0x1 PUSH1 0x1 PUSH1 0xA0 SHL SUB NOT AND SWAP1 SSTORE ADD SWAP1 SSTORE PUSH2 0x1317 JUMP JUMPDEST DUP1 PUSH2 0x130F DUP2 PUSH2 0x3C5E JUMP JUMPDEST SWAP2 POP POP PUSH2 0x11CF JUMP JUMPDEST POP PUSH1 0x3 DUP1 DUP3 ADD DUP1 SLOAD PUSH1 0x0 NOT ADD SWAP1 SSTORE CALLER PUSH1 0x0 DUP2 DUP2 MSTORE PUSH1 0x4 DUP1 DUP6 ADD PUSH1 0x20 SWAP1 DUP2 MSTORE PUSH1 0x40 DUP1 DUP5 KECCAK256 DUP1 SLOAD PUSH5 0xFFFFFFFFFF NOT AND DUP2 SSTORE PUSH1 0x1 DUP2 ADD DUP6 SWAP1 SSTORE PUSH1 0x2 DUP1 DUP3 ADD DUP7 SWAP1 SSTORE SWAP7 DUP2 ADD DUP6 SWAP1 SSTORE SWAP1 SWAP3 ADD DUP4 SWAP1 SSTORE SWAP4 SWAP1 SWAP4 MSTORE DUP3 DUP2 KECCAK256 DUP2 SWAP1 SSTORE SWAP2 MLOAD SWAP1 SWAP2 DUP7 SWAP2 PUSH1 0x0 DUP1 MLOAD PUSH1 0x20 PUSH2 0x3CD0 DUP4 CODECOPY DUP2 MLOAD SWAP2 MSTORE SWAP2 PUSH2 0x138A SWAP2 PUSH2 0x38AD JUMP JUMPDEST PUSH1 0x40 MLOAD DUP1 SWAP2 SUB SWAP1 LOG3 PUSH1 0x2 DUP2 ADD SLOAD PUSH2 0xB80 JUMPI PUSH2 0xB80 DUP5 PUSH2 0x27E0 JUMP JUMPDEST CALLER PUSH1 0x1 PUSH1 0x1 PUSH1 0xA0 SHL SUB PUSH32 0x0 AND EQ PUSH2 0x13EC JUMPI PUSH1 0x40 MLOAD PUSH3 0x461BCD PUSH1 0xE5 SHL DUP2 MSTORE PUSH1 0x4 ADD PUSH2 0x491 SWAP1 PUSH2 0x38D4 JUMP JUMPDEST PUSH1 0x1 PUSH1 0x1 PUSH1 0xA0 SHL SUB AND PUSH1 0x0 SWAP1 DUP2 MSTORE PUSH1 0x3 PUSH1 0x20 MSTORE PUSH1 0x40 SWAP1 KECCAK256 DUP1 SLOAD PUSH1 0xFF NOT AND PUSH1 0x1 OR SWAP1 SSTORE JUMP JUMPDEST PUSH1 0x5 DUP2 JUMP JUMPDEST PUSH1 0x0 DUP2 DUP2 MSTORE PUSH1 0x1 PUSH1 0x20 MSTORE PUSH1 0x40 SWAP1 KECCAK256 SLOAD PUSH1 0x60 SWAP1 DUP3 SWAP1 DUP2 EQ PUSH2 0x1447 JUMPI PUSH1 0x40 MLOAD PUSH3 0x461BCD PUSH1 0xE5 SHL DUP2 MSTORE PUSH1 0x4 ADD PUSH2 0x491 SWAP1 PUSH2 0x37B4 JUMP JUMPDEST PUSH1 0x0 DUP4 DUP2 MSTORE PUSH1 0x1 PUSH1 0x20 SWAP1 DUP2 MSTORE PUSH1 0x40 SWAP2 DUP3 SWAP1 KECCAK256 PUSH1 0x2 ADD DUP1 SLOAD DUP4 MLOAD DUP2 DUP5 MUL DUP2 ADD DUP5 ADD SWAP1 SWAP5 MSTORE DUP1 DUP5 MSTORE SWAP1 SWAP2 DUP4 ADD DUP3 DUP3 DUP1 ISZERO PUSH2 0x14A8 JUMPI PUSH1 0x20 MUL DUP3 ADD SWAP2 SWAP1 PUSH1 0x0 MSTORE PUSH1 0x20 PUSH1 0x0 KECCAK256 SWAP1 JUMPDEST DUP2 SLOAD PUSH1 0x1 PUSH1 0x1 PUSH1 0xA0 SHL SUB AND DUP2 MSTORE PUSH1 0x1 SWAP1 SWAP2 ADD SWAP1 PUSH1 0x20 ADD DUP1 DUP4 GT PUSH2 0x148A JUMPI JUMPDEST POP POP POP POP POP SWAP2 POP POP SWAP2 SWAP1 POP JUMP JUMPDEST PUSH1 0x0 DUP1 PUSH1 0x0 DUP1 PUSH1 0x0 DUP1 PUSH1 0x0 DUP1 PUSH1 0x0 DUP10 DUP1 PUSH1 0x1 PUSH1 0x0 DUP4 DUP2 MSTORE PUSH1 0x20 ADD SWAP1 DUP2 MSTORE PUSH1 0x20 ADD PUSH1 0x0 KECCAK256 PUSH1 0x0 ADD SLOAD EQ PUSH2 0x14F9 JUMPI PUSH1 0x40 MLOAD PUSH3 0x461BCD PUSH1 0xE5 SHL DUP2 MSTORE PUSH1 0x4 ADD PUSH2 0x491 SWAP1 PUSH2 0x37B4 JUMP JUMPDEST PUSH1 0x0 DUP12 DUP2 MSTORE PUSH1 0x1 PUSH1 0x20 MSTORE PUSH1 0x40 DUP2 KECCAK256 PUSH1 0xB DUP2 ADD SLOAD SWAP1 SWAP2 SWAP1 TIMESTAMP LT ISZERO PUSH2 0x1529 JUMPI TIMESTAMP DUP3 PUSH1 0xB ADD SLOAD PUSH2 0x1526 SWAP2 SWAP1 PUSH2 0x3BEB JUMP JUMPDEST SWAP1 POP JUMPDEST DUP2 PUSH1 0x1 ADD PUSH1 0x0 SWAP1 SLOAD SWAP1 PUSH2 0x100 EXP SWAP1 DIV PUSH1 0xFF AND DUP3 PUSH1 0x7 ADD SLOAD DUP4 PUSH1 0x8 ADD SLOAD DUP5 PUSH1 0xB ADD SLOAD DUP5 DUP7 PUSH1 0x2 ADD DUP1 SLOAD SWAP1 POP DUP8 PUSH1 0x3 ADD SLOAD DUP9 PUSH1 0xA ADD PUSH1 0x0 SWAP1 SLOAD SWAP1 PUSH2 0x100 EXP SWAP1 DIV PUSH1 0x1 PUSH1 0x1 PUSH1 0xA0 SHL SUB AND DUP10 PUSH1 0xC ADD PUSH1 0x0 SWAP1 SLOAD SWAP1 PUSH2 0x100 EXP SWAP1 DIV PUSH1 0xFF AND SWAP12 POP SWAP12 POP SWAP12 POP SWAP12 POP SWAP12 POP SWAP12 POP SWAP12 POP SWAP12 POP SWAP12 POP POP POP POP SWAP2 SWAP4 SWAP6 SWAP8 SWAP10 SWAP1 SWAP3 SWAP5 SWAP7 SWAP9 POP JUMP JUMPDEST PUSH1 0x0 DUP3 DUP2 MSTORE PUSH1 0x1 PUSH1 0x20 MSTORE PUSH1 0x40 SWAP1 KECCAK256 SLOAD DUP3 SWAP1 DUP2 EQ PUSH2 0x15D3 JUMPI PUSH1 0x40 MLOAD PUSH3 0x461BCD PUSH1 0xE5 SHL DUP2 MSTORE PUSH1 0x4 ADD PUSH2 0x491 SWAP1 PUSH2 0x37B4 JUMP JUMPDEST PUSH1 0x0 DUP4 DUP2 MSTORE PUSH1 0x1 PUSH1 0x20 SWAP1 DUP2 MSTORE PUSH1 0x40 DUP1 DUP4 KECCAK256 CALLER DUP5 MSTORE PUSH1 0x4 ADD SWAP1 SWAP2 MSTORE SWAP1 KECCAK256 SLOAD DUP4 SWAP1 PUSH1 0xFF AND PUSH2 0x1611 JUMPI PUSH1 0x40 MLOAD PUSH3 0x461BCD PUSH1 0xE5 SHL DUP2 MSTORE PUSH1 0x4 ADD PUSH2 0x491 SWAP1 PUSH2 0x3523 JUMP JUMPDEST PUSH1 0x0 DUP5 DUP2 MSTORE PUSH1 0x1 PUSH1 0x20 MSTORE PUSH1 0x40 SWAP1 KECCAK256 PUSH1 0xC ADD SLOAD DUP5 SWAP1 PUSH1 0xFF AND ISZERO PUSH2 0x1645 JUMPI PUSH1 0x40 MLOAD PUSH3 0x461BCD PUSH1 0xE5 SHL DUP2 MSTORE PUSH1 0x4 ADD PUSH2 0x491 SWAP1 PUSH2 0x3A2E JUMP JUMPDEST PUSH1 0x0 DUP6 DUP2 MSTORE PUSH1 0x1 PUSH1 0x20 SWAP1 DUP2 MSTORE PUSH1 0x40 DUP1 DUP4 KECCAK256 CALLER DUP5 MSTORE PUSH1 0x4 DUP2 ADD SWAP1 SWAP3 MSTORE SWAP1 SWAP2 KECCAK256 PUSH1 0x2 PUSH1 0x1 DUP4 ADD SLOAD PUSH1 0xFF AND PUSH1 0x4 DUP2 GT ISZERO PUSH2 0x168C JUMPI PUSH4 0x4E487B71 PUSH1 0xE0 SHL PUSH1 0x0 MSTORE PUSH1 0x21 PUSH1 0x4 MSTORE PUSH1 0x24 PUSH1 0x0 REVERT JUMPDEST EQ PUSH2 0x16A9 JUMPI PUSH1 0x40 MLOAD PUSH3 0x461BCD PUSH1 0xE5 SHL DUP2 MSTORE PUSH1 0x4 ADD PUSH2 0x491 SWAP1 PUSH2 0x3670 JUMP JUMPDEST DUP2 PUSH1 0xB ADD SLOAD TIMESTAMP LT PUSH2 0x16CC JUMPI PUSH1 0x40 MLOAD PUSH3 0x461BCD PUSH1 0xE5 SHL DUP2 MSTORE PUSH1 0x4 ADD PUSH2 0x491 SWAP1 PUSH2 0x3B44 JUMP JUMPDEST DUP1 SLOAD PUSH4 0x1000000 SWAP1 DIV PUSH1 0xFF AND ISZERO PUSH2 0x16F5 JUMPI PUSH1 0x40 MLOAD PUSH3 0x461BCD PUSH1 0xE5 SHL DUP2 MSTORE PUSH1 0x4 ADD PUSH2 0x491 SWAP1 PUSH2 0x39DB JUMP JUMPDEST PUSH1 0x1 DUP7 LT ISZERO PUSH2 0x1716 JUMPI PUSH1 0x40 MLOAD PUSH3 0x461BCD PUSH1 0xE5 SHL DUP2 MSTORE PUSH1 0x4 ADD PUSH2 0x491 SWAP1 PUSH2 0x38F7 JUMP JUMPDEST PUSH1 0x2 DUP2 ADD SLOAD ISZERO PUSH2 0x1738 JUMPI PUSH1 0x40 MLOAD PUSH3 0x461BCD PUSH1 0xE5 SHL DUP2 MSTORE PUSH1 0x4 ADD PUSH2 0x491 SWAP1 PUSH2 0x35E9 JUMP JUMPDEST PUSH1 0x8 DUP3 ADD SLOAD ISZERO PUSH2 0x1766 JUMPI DUP2 PUSH1 0x8 ADD SLOAD DUP7 LT ISZERO PUSH2 0x1766 JUMPI PUSH1 0x40 MLOAD PUSH3 0x461BCD PUSH1 0xE5 SHL DUP2 MSTORE PUSH1 0x4 ADD PUSH2 0x491 SWAP1 PUSH2 0x3617 JUMP JUMPDEST DUP6 DUP2 PUSH1 0x1 ADD SLOAD LT ISZERO PUSH2 0x178A JUMPI PUSH1 0x40 MLOAD PUSH3 0x461BCD PUSH1 0xE5 SHL DUP2 MSTORE PUSH1 0x4 ADD PUSH2 0x491 SWAP1 PUSH2 0x354E JUMP JUMPDEST PUSH1 0x4 DUP2 ADD DUP1 SLOAD PUSH1 0x1 SWAP1 DUP2 ADD SWAP1 SWAP2 SSTORE DUP2 ADD DUP1 SLOAD DUP8 SWAP1 SUB SWAP1 SSTORE PUSH1 0x2 DUP2 ADD DUP7 DUP2 SSTORE PUSH1 0x7 DUP4 ADD DUP1 SLOAD DUP9 ADD SWAP1 SSTORE TIMESTAMP PUSH1 0x3 DUP4 ADD SSTORE PUSH1 0x8 DUP4 ADD SLOAD SWAP1 SLOAD GT ISZERO PUSH2 0x17D0 JUMPI PUSH1 0x2 DUP2 ADD SLOAD PUSH1 0x8 DUP4 ADD SSTORE JUMPDEST CALLER PUSH1 0x1 PUSH1 0x1 PUSH1 0xA0 SHL SUB AND DUP8 PUSH1 0x0 DUP1 MLOAD PUSH1 0x20 PUSH2 0x3CD0 DUP4 CODECOPY DUP2 MLOAD SWAP2 MSTORE DUP9 PUSH1 0x40 MLOAD PUSH2 0x17F8 SWAP2 SWAP1 PUSH2 0x3835 JUMP JUMPDEST PUSH1 0x40 MLOAD DUP1 SWAP2 SUB SWAP1 LOG3 POP POP POP POP POP POP POP JUMP JUMPDEST PUSH1 0x0 SLOAD DUP2 JUMP JUMPDEST PUSH1 0x1 PUSH1 0x1 PUSH1 0xA0 SHL SUB DUP2 AND PUSH1 0x0 SWAP1 DUP2 MSTORE PUSH1 0x3 PUSH1 0x20 MSTORE PUSH1 0x40 SWAP1 KECCAK256 SLOAD PUSH1 0xFF AND JUMPDEST SWAP2 SWAP1 POP JUMP JUMPDEST CALLER PUSH1 0x0 SWAP1 DUP2 MSTORE PUSH1 0x2 PUSH1 0x20 MSTORE PUSH1 0x40 DUP2 KECCAK256 SLOAD ISZERO PUSH2 0x185E JUMPI PUSH1 0x40 MLOAD PUSH3 0x461BCD PUSH1 0xE5 SHL DUP2 MSTORE PUSH1 0x4 ADD PUSH2 0x491 SWAP1 PUSH2 0x3A03 JUMP JUMPDEST PUSH1 0x0 DUP1 SLOAD PUSH1 0x1 SWAP1 DUP2 ADD DUP1 DUP4 SSTORE DUP1 DUP4 MSTORE PUSH1 0x20 DUP3 SWAP1 MSTORE PUSH1 0x40 DUP1 DUP5 KECCAK256 DUP3 DUP2 SSTORE SWAP3 DUP4 ADD DUP1 SLOAD PUSH1 0xFF NOT SWAP1 DUP2 AND SWAP1 SWAP2 SSTORE PUSH1 0x9 DUP5 ADD DUP1 SLOAD PUSH1 0x1 PUSH1 0x1 PUSH1 0xA0 SHL SUB NOT SWAP1 DUP2 AND PUSH32 0x0 PUSH1 0x1 PUSH1 0x1 PUSH1 0xA0 SHL SUB DUP2 AND SWAP2 SWAP1 SWAP2 OR SWAP1 SWAP3 SSTORE PUSH1 0xA DUP7 ADD DUP1 SLOAD CALLER SWAP3 AND DUP3 OR SWAP1 SSTORE PUSH1 0x3 DUP7 ADD SWAP7 SWAP1 SWAP7 SSTORE PUSH1 0xC DUP6 ADD DUP1 SLOAD SWAP1 SWAP3 AND SWAP1 SWAP2 SSTORE SWAP1 MLOAD SWAP2 SWAP4 DUP5 SWAP3 PUSH32 0x8946648BC1DBC670D3F07E2C4DE91731227B6D4CCC53B8AB1E951E84D960577E SWAP3 PUSH2 0x1920 SWAP3 SWAP1 SWAP2 PUSH2 0x333D JUMP JUMPDEST PUSH1 0x40 MLOAD DUP1 SWAP2 SUB SWAP1 LOG2 PUSH2 0x1932 DUP3 CALLER PUSH2 0x289F JUMP JUMPDEST POP SWAP1 POP SWAP1 JUMP JUMPDEST PUSH1 0x7 DUP2 JUMP JUMPDEST PUSH32 0x0 SWAP1 JUMP JUMPDEST PUSH1 0x1 DUP2 JUMP JUMPDEST PUSH1 0x34 DUP2 JUMP JUMPDEST PUSH1 0x0 DUP2 DUP2 MSTORE PUSH1 0x1 PUSH1 0x20 MSTORE PUSH1 0x40 DUP2 KECCAK256 SLOAD DUP3 SWAP1 DUP2 EQ PUSH2 0x199A JUMPI PUSH1 0x40 MLOAD PUSH3 0x461BCD PUSH1 0xE5 SHL DUP2 MSTORE PUSH1 0x4 ADD PUSH2 0x491 SWAP1 PUSH2 0x37B4 JUMP JUMPDEST POP POP PUSH1 0x0 SWAP1 DUP2 MSTORE PUSH1 0x1 PUSH1 0x20 MSTORE PUSH1 0x40 SWAP1 KECCAK256 PUSH1 0x3 ADD SLOAD SWAP1 JUMP JUMPDEST PUSH1 0x0 DUP2 DUP2 MSTORE PUSH1 0x1 PUSH1 0x20 MSTORE PUSH1 0x40 DUP2 KECCAK256 SLOAD DUP3 SWAP1 DUP2 EQ PUSH2 0x19E0 JUMPI PUSH1 0x40 MLOAD PUSH3 0x461BCD PUSH1 0xE5 SHL DUP2 MSTORE PUSH1 0x4 ADD PUSH2 0x491 SWAP1 PUSH2 0x37B4 JUMP JUMPDEST PUSH1 0x0 DUP4 DUP2 MSTORE PUSH1 0x1 PUSH1 0x20 MSTORE PUSH1 0x40 SWAP1 KECCAK256 PUSH1 0x2 PUSH1 0x1 DUP3 ADD SLOAD PUSH1 0xFF AND PUSH1 0x4 DUP2 GT ISZERO PUSH2 0x1A17 JUMPI PUSH4 0x4E487B71 PUSH1 0xE0 SHL PUSH1 0x0 MSTORE PUSH1 0x21 PUSH1 0x4 MSTORE PUSH1 0x24 PUSH1 0x0 REVERT JUMPDEST EQ PUSH2 0x1A26 JUMPI PUSH1 0x0 SWAP3 POP POP PUSH2 0xFA4 JUMP JUMPDEST PUSH1 0x0 JUMPDEST PUSH1 0x2 DUP3 ADD SLOAD DUP2 LT ISZERO PUSH2 0x1ADC JUMPI PUSH1 0x0 DUP3 PUSH1 0x2 ADD DUP3 DUP2 SLOAD DUP2 LT PUSH2 0x1A5A JUMPI PUSH4 0x4E487B71 PUSH1 0xE0 SHL PUSH1 0x0 MSTORE PUSH1 0x32 PUSH1 0x4 MSTORE PUSH1 0x24 PUSH1 0x0 REVERT JUMPDEST PUSH1 0x0 SWAP2 DUP3 MSTORE PUSH1 0x20 DUP1 DUP4 KECCAK256 SWAP1 SWAP2 ADD SLOAD PUSH1 0x1 PUSH1 0x1 PUSH1 0xA0 SHL SUB AND DUP1 DUP4 MSTORE PUSH1 0x4 DUP7 ADD SWAP1 SWAP2 MSTORE PUSH1 0x40 SWAP1 SWAP2 KECCAK256 SLOAD SWAP1 SWAP2 POP PUSH1 0xFF PUSH4 0x1000000 SWAP1 SWAP2 DIV AND ISZERO PUSH2 0x1A9A JUMPI POP PUSH2 0x1ACA JUMP JUMPDEST PUSH1 0x1 PUSH1 0x1 PUSH1 0xA0 SHL SUB DUP2 AND PUSH1 0x0 SWAP1 DUP2 MSTORE PUSH1 0x4 DUP5 ADD PUSH1 0x20 MSTORE PUSH1 0x40 SWAP1 KECCAK256 PUSH1 0x2 ADD SLOAD PUSH2 0x1AC8 JUMPI PUSH1 0x0 SWAP5 POP POP POP POP PUSH2 0xFA4 JUMP JUMPDEST POP JUMPDEST DUP1 PUSH2 0x1AD4 DUP2 PUSH2 0x3C5E JUMP JUMPDEST SWAP2 POP POP PUSH2 0x1A29 JUMP JUMPDEST POP PUSH1 0x1 SWAP5 SWAP4 POP POP POP POP JUMP JUMPDEST PUSH1 0x0 DUP2 DUP2 MSTORE PUSH1 0x1 PUSH1 0x20 MSTORE PUSH1 0x40 SWAP1 KECCAK256 SLOAD PUSH1 0x60 SWAP1 DUP2 SWAP1 DUP2 SWAP1 DUP5 SWAP1 DUP2 EQ PUSH2 0x1B1D JUMPI PUSH1 0x40 MLOAD PUSH3 0x461BCD PUSH1 0xE5 SHL DUP2 MSTORE PUSH1 0x4 ADD PUSH2 0x491 SWAP1 PUSH2 0x37B4 JUMP JUMPDEST PUSH1 0x0 DUP6 DUP2 MSTORE PUSH1 0x1 PUSH1 0x20 MSTORE PUSH1 0x40 SWAP1 KECCAK256 PUSH1 0x3 PUSH1 0x1 DUP3 ADD SLOAD PUSH1 0xFF AND PUSH1 0x4 DUP2 GT ISZERO PUSH2 0x1B54 JUMPI PUSH4 0x4E487B71 PUSH1 0xE0 SHL PUSH1 0x0 MSTORE PUSH1 0x21 PUSH1 0x4 MSTORE PUSH1 0x24 PUSH1 0x0 REVERT JUMPDEST EQ DUP1 PUSH2 0x1B86 JUMPI POP PUSH1 0x4 PUSH1 0x1 DUP3 ADD SLOAD PUSH1 0xFF AND PUSH1 0x4 DUP2 GT ISZERO PUSH2 0x1B84 JUMPI PUSH4 0x4E487B71 PUSH1 0xE0 SHL PUSH1 0x0 MSTORE PUSH1 0x21 PUSH1 0x4 MSTORE PUSH1 0x24 PUSH1 0x0 REVERT JUMPDEST EQ JUMPDEST PUSH2 0x1BA2 JUMPI PUSH1 0x40 MLOAD PUSH3 0x461BCD PUSH1 0xE5 SHL DUP2 MSTORE PUSH1 0x4 ADD PUSH2 0x491 SWAP1 PUSH2 0x3955 JUMP JUMPDEST PUSH1 0x0 DUP1 JUMPDEST PUSH1 0x2 DUP4 ADD SLOAD DUP2 LT ISZERO PUSH2 0x1C2F JUMPI DUP3 PUSH1 0x4 ADD PUSH1 0x0 DUP5 PUSH1 0x2 ADD DUP4 DUP2 SLOAD DUP2 LT PUSH2 0x1BDB JUMPI PUSH4 0x4E487B71 PUSH1 0xE0 SHL PUSH1 0x0 MSTORE PUSH1 0x32 PUSH1 0x4 MSTORE PUSH1 0x24 PUSH1 0x0 REVERT JUMPDEST PUSH1 0x0 SWAP2 DUP3 MSTORE PUSH1 0x20 DUP1 DUP4 KECCAK256 SWAP1 SWAP2 ADD SLOAD PUSH1 0x1 PUSH1 0x1 PUSH1 0xA0 SHL SUB AND DUP4 MSTORE DUP3 ADD SWAP3 SWAP1 SWAP3 MSTORE PUSH1 0x40 ADD SWAP1 KECCAK256 SLOAD PUSH1 0xFF PUSH4 0x1000000 SWAP1 SWAP2 DIV AND PUSH2 0x1C1D JUMPI DUP2 PUSH2 0x1C19 DUP2 PUSH2 0x3C5E JUMP JUMPDEST SWAP3 POP POP JUMPDEST DUP1 PUSH2 0x1C27 DUP2 PUSH2 0x3C5E JUMP JUMPDEST SWAP2 POP POP PUSH2 0x1BA6 JUMP JUMPDEST POP DUP1 PUSH8 0xFFFFFFFFFFFFFFFF DUP2 GT ISZERO PUSH2 0x1C57 JUMPI PUSH4 0x4E487B71 PUSH1 0xE0 SHL PUSH1 0x0 MSTORE PUSH1 0x41 PUSH1 0x4 MSTORE PUSH1 0x24 PUSH1 0x0 REVERT JUMPDEST PUSH1 0x40 MLOAD SWAP1 DUP1 DUP3 MSTORE DUP1 PUSH1 0x20 MUL PUSH1 0x20 ADD DUP3 ADD PUSH1 0x40 MSTORE DUP1 ISZERO PUSH2 0x1C80 JUMPI DUP2 PUSH1 0x20 ADD PUSH1 0x20 DUP3 MUL DUP1 CALLDATASIZE DUP4 CALLDATACOPY ADD SWAP1 POP JUMPDEST POP SWAP6 POP DUP1 PUSH8 0xFFFFFFFFFFFFFFFF DUP2 GT ISZERO PUSH2 0x1CAA JUMPI PUSH4 0x4E487B71 PUSH1 0xE0 SHL PUSH1 0x0 MSTORE PUSH1 0x41 PUSH1 0x4 MSTORE PUSH1 0x24 PUSH1 0x0 REVERT JUMPDEST PUSH1 0x40 MLOAD SWAP1 DUP1 DUP3 MSTORE DUP1 PUSH1 0x20 MUL PUSH1 0x20 ADD DUP3 ADD PUSH1 0x40 MSTORE DUP1 ISZERO PUSH2 0x1CD3 JUMPI DUP2 PUSH1 0x20 ADD PUSH1 0x20 DUP3 MUL DUP1 CALLDATASIZE DUP4 CALLDATACOPY ADD SWAP1 POP JUMPDEST POP SWAP5 POP DUP1 PUSH8 0xFFFFFFFFFFFFFFFF DUP2 GT ISZERO PUSH2 0x1CFD JUMPI PUSH4 0x4E487B71 PUSH1 0xE0 SHL PUSH1 0x0 MSTORE PUSH1 0x41 PUSH1 0x4 MSTORE PUSH1 0x24 PUSH1 0x0 REVERT JUMPDEST PUSH1 0x40 MLOAD SWAP1 DUP1 DUP3 MSTORE DUP1 PUSH1 0x20 MUL PUSH1 0x20 ADD DUP3 ADD PUSH1 0x40 MSTORE DUP1 ISZERO PUSH2 0x1D26 JUMPI DUP2 PUSH1 0x20 ADD PUSH1 0x20 DUP3 MUL DUP1 CALLDATASIZE DUP4 CALLDATACOPY ADD SWAP1 POP JUMPDEST POP SWAP4 POP PUSH1 0x0 DUP1 JUMPDEST PUSH1 0x2 DUP5 ADD SLOAD DUP2 LT ISZERO PUSH2 0x1EF1 JUMPI PUSH1 0x0 DUP5 PUSH1 0x2 ADD DUP3 DUP2 SLOAD DUP2 LT PUSH2 0x1D5E JUMPI PUSH4 0x4E487B71 PUSH1 0xE0 SHL PUSH1 0x0 MSTORE PUSH1 0x32 PUSH1 0x4 MSTORE PUSH1 0x24 PUSH1 0x0 REVERT JUMPDEST PUSH1 0x0 SWAP2 DUP3 MSTORE PUSH1 0x20 DUP1 DUP4 KECCAK256 SWAP1 SWAP2 ADD SLOAD PUSH1 0x1 PUSH1 0x1 PUSH1 0xA0 SHL SUB AND DUP1 DUP4 MSTORE PUSH1 0x4 DUP9 ADD SWAP1 SWAP2 MSTORE PUSH1 0x40 SWAP1 SWAP2 KECCAK256 SLOAD SWAP1 SWAP2 POP PUSH1 0xFF PUSH4 0x1000000 SWAP1 SWAP2 DIV AND ISZERO PUSH2 0x1D9E JUMPI POP PUSH2 0x1EDF JUMP JUMPDEST PUSH1 0x1 PUSH1 0x1 PUSH1 0xA0 SHL SUB DUP2 AND PUSH1 0x0 SWAP1 DUP2 MSTORE PUSH1 0x4 DUP7 ADD PUSH1 0x20 MSTORE PUSH1 0x40 DUP2 KECCAK256 SLOAD PUSH1 0x5 DUP8 ADD DUP1 SLOAD PUSH1 0x1 PUSH1 0x20 SHL SWAP1 SWAP3 DIV PUSH1 0xFF AND SWAP3 SWAP2 DUP4 SWAP1 DUP2 LT PUSH2 0x1DEA JUMPI PUSH4 0x4E487B71 PUSH1 0xE0 SHL PUSH1 0x0 MSTORE PUSH1 0x32 PUSH1 0x4 MSTORE PUSH1 0x24 PUSH1 0x0 REVERT JUMPDEST PUSH1 0x0 SWAP2 DUP3 MSTORE PUSH1 0x20 SWAP2 DUP3 SWAP1 KECCAK256 PUSH1 0x40 DUP1 MLOAD DUP1 DUP3 ADD SWAP1 SWAP2 MSTORE SWAP2 ADD SLOAD PUSH1 0xFF DUP1 DUP3 AND DUP4 MSTORE PUSH2 0x100 SWAP1 SWAP2 DIV AND SWAP2 DUP2 ADD SWAP2 SWAP1 SWAP2 MSTORE DUP12 MLOAD SWAP1 SWAP2 POP DUP4 SWAP1 DUP13 SWAP1 DUP8 SWAP1 DUP2 LT PUSH2 0x1E3E JUMPI PUSH4 0x4E487B71 PUSH1 0xE0 SHL PUSH1 0x0 MSTORE PUSH1 0x32 PUSH1 0x4 MSTORE PUSH1 0x24 PUSH1 0x0 REVERT JUMPDEST PUSH1 0x20 MUL PUSH1 0x20 ADD ADD SWAP1 PUSH1 0x1 PUSH1 0x1 PUSH1 0xA0 SHL SUB AND SWAP1 DUP2 PUSH1 0x1 PUSH1 0x1 PUSH1 0xA0 SHL SUB AND DUP2 MSTORE POP POP DUP1 PUSH1 0x0 ADD MLOAD DUP11 DUP7 DUP2 MLOAD DUP2 LT PUSH2 0x1E83 JUMPI PUSH4 0x4E487B71 PUSH1 0xE0 SHL PUSH1 0x0 MSTORE PUSH1 0x32 PUSH1 0x4 MSTORE PUSH1 0x24 PUSH1 0x0 REVERT JUMPDEST PUSH1 0x20 MUL PUSH1 0x20 ADD ADD SWAP1 PUSH1 0xFF AND SWAP1 DUP2 PUSH1 0xFF AND DUP2 MSTORE POP POP DUP1 PUSH1 0x20 ADD MLOAD DUP10 DUP7 DUP2 MLOAD DUP2 LT PUSH2 0x1EBC JUMPI PUSH4 0x4E487B71 PUSH1 0xE0 SHL PUSH1 0x0 MSTORE PUSH1 0x32 PUSH1 0x4 MSTORE PUSH1 0x24 PUSH1 0x0 REVERT JUMPDEST PUSH1 0xFF SWAP1 SWAP3 AND PUSH1 0x20 SWAP3 DUP4 MUL SWAP2 SWAP1 SWAP2 ADD SWAP1 SWAP2 ADD MSTORE DUP5 PUSH2 0x1ED8 DUP2 PUSH2 0x3C5E JUMP JUMPDEST SWAP6 POP POP POP POP POP JUMPDEST DUP1 PUSH2 0x1EE9 DUP2 PUSH2 0x3C5E JUMP JUMPDEST SWAP2 POP POP PUSH2 0x1D2D JUMP JUMPDEST POP POP POP POP POP SWAP2 SWAP4 SWAP1 SWAP3 POP JUMP JUMPDEST PUSH1 0x0 DUP2 DUP2 MSTORE PUSH1 0x1 PUSH1 0x20 MSTORE PUSH1 0x40 SWAP1 KECCAK256 SLOAD DUP2 SWAP1 DUP2 EQ PUSH2 0x1F2C JUMPI PUSH1 0x40 MLOAD PUSH3 0x461BCD PUSH1 0xE5 SHL DUP2 MSTORE PUSH1 0x4 ADD PUSH2 0x491 SWAP1 PUSH2 0x37B4 JUMP JUMPDEST PUSH1 0x0 DUP3 DUP2 MSTORE PUSH1 0x1 PUSH1 0x20 SWAP1 DUP2 MSTORE PUSH1 0x40 DUP1 DUP4 KECCAK256 CALLER DUP5 MSTORE PUSH1 0x4 ADD SWAP1 SWAP2 MSTORE SWAP1 KECCAK256 SLOAD DUP3 SWAP1 PUSH1 0xFF AND PUSH2 0x1F6A JUMPI PUSH1 0x40 MLOAD PUSH3 0x461BCD PUSH1 0xE5 SHL DUP2 MSTORE PUSH1 0x4 ADD PUSH2 0x491 SWAP1 PUSH2 0x3523 JUMP JUMPDEST PUSH1 0x0 DUP4 DUP2 MSTORE PUSH1 0x1 PUSH1 0x20 MSTORE PUSH1 0x40 SWAP1 KECCAK256 PUSH1 0xC ADD SLOAD DUP4 SWAP1 PUSH1 0xFF AND ISZERO PUSH2 0x1F9E JUMPI PUSH1 0x40 MLOAD PUSH3 0x461BCD PUSH1 0xE5 SHL DUP2 MSTORE PUSH1 0x4 ADD PUSH2 0x491 SWAP1 PUSH2 0x3A2E JUMP JUMPDEST PUSH1 0x0 DUP5 DUP2 MSTORE PUSH1 0x1 PUSH1 0x20 SWAP1 DUP2 MSTORE PUSH1 0x40 DUP1 DUP4 KECCAK256 CALLER DUP5 MSTORE PUSH1 0x4 DUP2 ADD SWAP1 SWAP3 MSTORE SWAP1 SWAP2 KECCAK256 PUSH1 0x2 PUSH1 0x1 DUP4 ADD SLOAD PUSH1 0xFF AND PUSH1 0x4 DUP2 GT ISZERO PUSH2 0x1FE5 JUMPI PUSH4 0x4E487B71 PUSH1 0xE0 SHL PUSH1 0x0 MSTORE PUSH1 0x21 PUSH1 0x4 MSTORE PUSH1 0x24 PUSH1 0x0 REVERT JUMPDEST EQ PUSH2 0x2002 JUMPI PUSH1 0x40 MLOAD PUSH3 0x461BCD PUSH1 0xE5 SHL DUP2 MSTORE PUSH1 0x4 ADD PUSH2 0x491 SWAP1 PUSH2 0x3670 JUMP JUMPDEST DUP2 PUSH1 0xB ADD SLOAD TIMESTAMP LT PUSH2 0x2025 JUMPI PUSH1 0x40 MLOAD PUSH3 0x461BCD PUSH1 0xE5 SHL DUP2 MSTORE PUSH1 0x4 ADD PUSH2 0x491 SWAP1 PUSH2 0x3B44 JUMP JUMPDEST DUP1 SLOAD PUSH4 0x1000000 SWAP1 DIV PUSH1 0xFF AND ISZERO PUSH2 0x204E JUMPI PUSH1 0x40 MLOAD PUSH3 0x461BCD PUSH1 0xE5 SHL DUP2 MSTORE PUSH1 0x4 ADD PUSH2 0x491 SWAP1 PUSH2 0x39DB JUMP JUMPDEST PUSH1 0x4 DUP2 ADD DUP1 SLOAD PUSH1 0x1 ADD SWAP1 SSTORE DUP1 SLOAD PUSH4 0xFF000000 NOT AND PUSH4 0x1000000 OR DUP2 SSTORE TIMESTAMP PUSH1 0x3 DUP1 DUP4 ADD SWAP2 SWAP1 SWAP2 SSTORE DUP3 ADD DUP1 SLOAD PUSH1 0x0 NOT ADD SWAP1 SSTORE PUSH1 0x40 MLOAD CALLER SWAP1 DUP8 SWAP1 PUSH1 0x0 DUP1 MLOAD PUSH1 0x20 PUSH2 0x3CD0 DUP4 CODECOPY DUP2 MLOAD SWAP2 MSTORE SWAP1 PUSH2 0x20A1 SWAP1 PUSH1 0x0 SWAP1 PUSH2 0x3709 JUMP JUMPDEST PUSH1 0x40 MLOAD DUP1 SWAP2 SUB SWAP1 LOG3 DUP2 PUSH1 0x3 ADD SLOAD PUSH1 0x1 EQ ISZERO PUSH2 0x228D JUMPI PUSH1 0x0 PUSH2 0x20C1 DUP8 PUSH2 0x2989 JUMP JUMPDEST PUSH1 0x7 DUP5 ADD DUP1 SLOAD PUSH1 0x1 PUSH1 0x1 PUSH1 0xA0 SHL SUB DUP4 AND PUSH1 0x0 SWAP1 DUP2 MSTORE PUSH1 0x4 DUP8 ADD PUSH1 0x20 MSTORE PUSH1 0x40 DUP2 KECCAK256 PUSH1 0x1 ADD DUP1 SLOAD SWAP1 SWAP3 ADD SWAP1 SWAP2 SSTORE SWAP1 SLOAD SWAP2 SWAP3 POP JUMPDEST PUSH1 0x2 DUP6 ADD SLOAD DUP2 LT ISZERO PUSH2 0x2230 JUMPI PUSH1 0x0 DUP6 PUSH1 0x2 ADD DUP3 DUP2 SLOAD DUP2 LT PUSH2 0x2123 JUMPI PUSH4 0x4E487B71 PUSH1 0xE0 SHL PUSH1 0x0 MSTORE PUSH1 0x32 PUSH1 0x4 MSTORE PUSH1 0x24 PUSH1 0x0 REVERT JUMPDEST PUSH1 0x0 SWAP2 DUP3 MSTORE PUSH1 0x20 DUP1 DUP4 KECCAK256 SWAP1 SWAP2 ADD SLOAD PUSH1 0x1 PUSH1 0x1 PUSH1 0xA0 SHL SUB AND DUP1 DUP4 MSTORE PUSH1 0x4 DUP10 ADD SWAP1 SWAP2 MSTORE PUSH1 0x40 SWAP1 SWAP2 KECCAK256 SLOAD SWAP1 SWAP2 POP PUSH1 0xFF PUSH4 0x1000000 SWAP1 SWAP2 DIV AND ISZERO PUSH2 0x2163 JUMPI POP PUSH2 0x221E JUMP JUMPDEST PUSH1 0x1 PUSH1 0x1 PUSH1 0xA0 SHL SUB DUP2 AND PUSH1 0x0 SWAP1 DUP2 MSTORE PUSH1 0x4 DUP8 ADD PUSH1 0x20 MSTORE PUSH1 0x40 DUP2 KECCAK256 SLOAD PUSH1 0x5 DUP9 ADD DUP1 SLOAD PUSH1 0x1 PUSH1 0x20 SHL SWAP1 SWAP3 DIV PUSH1 0xFF AND SWAP3 SWAP2 DUP4 SWAP1 DUP2 LT PUSH2 0x21AF JUMPI PUSH4 0x4E487B71 PUSH1 0xE0 SHL PUSH1 0x0 MSTORE PUSH1 0x32 PUSH1 0x4 MSTORE PUSH1 0x24 PUSH1 0x0 REVERT JUMPDEST PUSH1 0x0 SWAP2 DUP3 MSTORE PUSH1 0x20 SWAP2 DUP3 SWAP1 KECCAK256 PUSH1 0x40 DUP1 MLOAD DUP1 DUP3 ADD DUP3 MSTORE SWAP2 SWAP1 SWAP3 ADD SLOAD PUSH1 0xFF DUP1 DUP3 AND DUP1 DUP5 MSTORE PUSH2 0x100 SWAP1 SWAP3 DIV AND SWAP4 DUP3 ADD DUP5 SWAP1 MSTORE SWAP2 MLOAD SWAP1 SWAP4 POP DUP15 SWAP3 PUSH32 0xE7507DC066A25B8C1A555B221CE4B823FEA88B34A900F0800DD90115DCCA2980 SWAP3 PUSH2 0x2212 SWAP3 DUP9 SWAP3 SWAP1 PUSH2 0x3370 JUMP JUMPDEST PUSH1 0x40 MLOAD DUP1 SWAP2 SUB SWAP1 LOG2 POP POP POP JUMPDEST DUP1 PUSH2 0x2228 DUP2 PUSH2 0x3C5E JUMP JUMPDEST SWAP2 POP POP PUSH2 0x20F2 JUMP JUMPDEST POP PUSH1 0x1 DUP5 ADD DUP1 SLOAD PUSH1 0xFF NOT AND PUSH1 0x4 OR SWAP1 SSTORE PUSH1 0x40 MLOAD DUP9 SWAP1 PUSH32 0xF1898DE79C348962FAB7695532341027E5BCEB0EA2A8785790FA7D7EFEEEE129 SWAP1 PUSH2 0x2274 SWAP1 DUP6 SWAP1 DUP6 SWAP1 PUSH2 0x3357 JUMP JUMPDEST PUSH1 0x40 MLOAD DUP1 SWAP2 SUB SWAP1 LOG2 POP POP PUSH1 0x0 PUSH1 0x7 DUP4 ADD DUP2 SWAP1 SSTORE PUSH1 0x8 DUP4 ADD SSTORE JUMPDEST POP POP POP POP POP POP JUMP JUMPDEST PUSH2 0x12C DUP2 JUMP JUMPDEST PUSH1 0x0 DUP2 DUP2 MSTORE PUSH1 0x1 PUSH1 0x20 MSTORE PUSH1 0x40 SWAP1 KECCAK256 SLOAD DUP2 SWAP1 DUP2 EQ PUSH2 0x22CA JUMPI PUSH1 0x40 MLOAD PUSH3 0x461BCD PUSH1 0xE5 SHL DUP2 MSTORE PUSH1 0x4 ADD PUSH2 0x491 SWAP1 PUSH2 0x37B4 JUMP JUMPDEST PUSH1 0x0 DUP3 DUP2 MSTORE PUSH1 0x1 PUSH1 0x20 MSTORE PUSH1 0x40 SWAP1 KECCAK256 PUSH1 0xC ADD SLOAD DUP3 SWAP1 PUSH1 0xFF AND ISZERO PUSH2 0x22FE JUMPI PUSH1 0x40 MLOAD PUSH3 0x461BCD PUSH1 0xE5 SHL DUP2 MSTORE PUSH1 0x4 ADD PUSH2 0x491 SWAP1 PUSH2 0x3A2E JUMP JUMPDEST PUSH1 0x0 DUP4 DUP2 MSTORE PUSH1 0x1 PUSH1 0x20 MSTORE PUSH1 0x40 SWAP1 KECCAK256 PUSH1 0xA ADD SLOAD DUP4 SWAP1 PUSH1 0x1 PUSH1 0x1 PUSH1 0xA0 SHL SUB AND CALLER EQ PUSH2 0x2339 JUMPI PUSH1 0x40 MLOAD PUSH3 0x461BCD PUSH1 0xE5 SHL DUP2 MSTORE PUSH1 0x4 ADD PUSH2 0x491 SWAP1 PUSH2 0x3A65 JUMP JUMPDEST PUSH1 0x0 DUP5 DUP2 MSTORE PUSH1 0x1 PUSH1 0x20 MSTORE PUSH1 0x40 DUP2 KECCAK256 SWAP1 PUSH1 0x1 DUP3 ADD SLOAD PUSH1 0xFF AND PUSH1 0x4 DUP2 GT ISZERO PUSH2 0x236F JUMPI PUSH4 0x4E487B71 PUSH1 0xE0 SHL PUSH1 0x0 MSTORE PUSH1 0x21 PUSH1 0x4 MSTORE PUSH1 0x24 PUSH1 0x0 REVERT JUMPDEST EQ PUSH2 0x238C JUMPI PUSH1 0x40 MLOAD PUSH3 0x461BCD PUSH1 0xE5 SHL DUP2 MSTORE PUSH1 0x4 ADD PUSH2 0x491 SWAP1 PUSH2 0x36D2 JUMP JUMPDEST PUSH1 0x2 DUP2 DUP2 ADD SLOAD LT ISZERO PUSH2 0x23B0 JUMPI PUSH1 0x40 MLOAD PUSH3 0x461BCD PUSH1 0xE5 SHL DUP2 MSTORE PUSH1 0x4 ADD PUSH2 0x491 SWAP1 PUSH2 0x3647 JUMP JUMPDEST PUSH2 0x23BB PUSH1 0x78 TIMESTAMP PUSH2 0x3BD3 JUMP JUMPDEST PUSH1 0xB DUP3 ADD SSTORE PUSH1 0x1 DUP1 DUP3 ADD DUP1 SLOAD PUSH1 0xFF NOT AND SWAP1 SWAP2 OR SWAP1 SSTORE PUSH2 0x23D9 DUP6 PUSH2 0x2A39 JUMP JUMPDEST PUSH2 0x23E2 DUP6 PUSH2 0x2BC1 JUMP JUMPDEST PUSH1 0x40 MLOAD DUP6 SWAP1 PUSH32 0x1A2BA96BF245728C460E13D78A1591BCB45E67DE1240B6654190F8C0BBDD0700 SWAP1 PUSH1 0x0 SWAP1 LOG2 POP POP POP POP POP JUMP JUMPDEST PUSH1 0x0 DUP2 DUP2 MSTORE PUSH1 0x1 PUSH1 0x20 MSTORE PUSH1 0x40 SWAP1 KECCAK256 SLOAD DUP2 SWAP1 DUP2 EQ PUSH2 0x2443 JUMPI PUSH1 0x40 MLOAD PUSH3 0x461BCD PUSH1 0xE5 SHL DUP2 MSTORE PUSH1 0x4 ADD PUSH2 0x491 SWAP1 PUSH2 0x37B4 JUMP JUMPDEST PUSH1 0x0 DUP3 DUP2 MSTORE PUSH1 0x1 PUSH1 0x20 MSTORE PUSH1 0x40 SWAP1 KECCAK256 PUSH1 0xC ADD SLOAD DUP3 SWAP1 PUSH1 0xFF AND ISZERO PUSH2 0x2477 JUMPI PUSH1 0x40 MLOAD PUSH3 0x461BCD PUSH1 0xE5 SHL DUP2 MSTORE PUSH1 0x4 ADD PUSH2 0x491 SWAP1 PUSH2 0x3A2E JUMP JUMPDEST PUSH1 0x0 DUP4 DUP2 MSTORE PUSH1 0x1 PUSH1 0x20 MSTORE PUSH1 0x40 DUP2 KECCAK256 SWAP1 PUSH1 0x1 DUP3 ADD SLOAD PUSH1 0xFF AND PUSH1 0x4 DUP2 GT ISZERO PUSH2 0x24AD JUMPI PUSH4 0x4E487B71 PUSH1 0xE0 SHL PUSH1 0x0 MSTORE PUSH1 0x21 PUSH1 0x4 MSTORE PUSH1 0x24 PUSH1 0x0 REVERT JUMPDEST EQ PUSH2 0x24CA JUMPI PUSH1 0x40 MLOAD PUSH3 0x461BCD PUSH1 0xE5 SHL DUP2 MSTORE PUSH1 0x4 ADD PUSH2 0x491 SWAP1 PUSH2 0x36D2 JUMP JUMPDEST PUSH1 0x2 DUP2 ADD SLOAD PUSH1 0x5 GT PUSH2 0x24EE JUMPI PUSH1 0x40 MLOAD PUSH3 0x461BCD PUSH1 0xE5 SHL DUP2 MSTORE PUSH1 0x4 ADD PUSH2 0x491 SWAP1 PUSH2 0x385A JUMP JUMPDEST CALLER PUSH1 0x0 SWAP1 DUP2 MSTORE PUSH1 0x2 PUSH1 0x20 MSTORE PUSH1 0x40 SWAP1 KECCAK256 SLOAD ISZERO PUSH2 0x251B JUMPI PUSH1 0x40 MLOAD PUSH3 0x461BCD PUSH1 0xE5 SHL DUP2 MSTORE PUSH1 0x4 ADD PUSH2 0x491 SWAP1 PUSH2 0x3A03 JUMP JUMPDEST PUSH1 0x2 DUP1 DUP3 ADD DUP1 SLOAD PUSH1 0x1 DUP2 DUP2 ADD DUP4 SSTORE PUSH1 0x0 SWAP3 DUP4 MSTORE PUSH1 0x20 DUP1 DUP5 KECCAK256 SWAP1 SWAP3 ADD DUP1 SLOAD PUSH1 0x1 PUSH1 0x1 PUSH1 0xA0 SHL SUB NOT AND CALLER SWAP1 DUP2 OR SWAP1 SWAP2 SSTORE DUP1 DUP5 MSTORE PUSH1 0x4 DUP1 DUP8 ADD DUP5 MSTORE PUSH1 0x40 DUP1 DUP7 KECCAK256 DUP1 SLOAD PUSH1 0xFF NOT AND DUP6 OR DUP2 SSTORE PUSH1 0x19 DUP2 DUP7 ADD SSTORE TIMESTAMP PUSH1 0x3 DUP1 DUP4 ADD SWAP2 SWAP1 SWAP2 SSTORE SWAP3 DUP2 ADD DUP8 SWAP1 SSTORE SWAP7 SWAP1 SWAP5 MSTORE SWAP4 DUP4 SWAP1 KECCAK256 DUP10 SWAP1 SSTORE SWAP3 DUP6 ADD DUP1 SLOAD SWAP1 SWAP2 ADD SWAP1 SSTORE MLOAD DUP7 SWAP2 PUSH32 0x87969BC7FAF902221A147B95CEBA76E011C5EFB0339A0A8EE7A2BB82D9CFBBD6 SWAP2 PUSH2 0x25BC SWAP2 SWAP1 PUSH2 0x3329 JUMP JUMPDEST PUSH1 0x40 MLOAD DUP1 SWAP2 SUB SWAP1 LOG2 POP POP POP POP POP JUMP JUMPDEST PUSH1 0x19 DUP2 JUMP JUMPDEST PUSH1 0x0 DUP3 DUP2 MSTORE PUSH1 0x1 PUSH1 0x20 MSTORE PUSH1 0x40 SWAP1 KECCAK256 PUSH1 0x6 ADD SLOAD PUSH2 0x25EC SWAP1 DUP3 PUSH2 0x2CA7 JUMP JUMPDEST PUSH1 0x0 SWAP3 DUP4 MSTORE PUSH1 0x1 PUSH1 0x20 MSTORE PUSH1 0x40 SWAP1 SWAP3 KECCAK256 PUSH1 0x6 ADD SWAP2 SWAP1 SWAP2 SSTORE POP JUMP JUMPDEST PUSH1 0x0 DUP2 DUP2 MSTORE PUSH1 0x1 PUSH1 0x20 SWAP1 DUP2 MSTORE PUSH1 0x40 DUP1 DUP4 KECCAK256 DUP2 MLOAD PUSH1 0x34 DUP1 DUP3 MSTORE PUSH2 0x6A0 DUP3 ADD SWAP1 SWAP4 MSTORE SWAP1 SWAP3 DUP5 SWAP3 SWAP1 DUP3 ADD PUSH2 0x680 DUP1 CALLDATASIZE DUP4 CALLDATACOPY ADD SWAP1 POP POP SWAP1 POP PUSH1 0x0 DUP1 JUMPDEST PUSH1 0x5 DUP5 ADD SLOAD PUSH1 0xFF DUP3 AND LT ISZERO PUSH2 0x26B1 JUMPI PUSH2 0x2656 DUP7 DUP3 PUSH2 0x274C JUMP JUMPDEST PUSH2 0x269F JUMPI DUP1 DUP4 DUP4 PUSH2 0xFFFF AND DUP2 MLOAD DUP2 LT PUSH2 0x267F JUMPI PUSH4 0x4E487B71 PUSH1 0xE0 SHL PUSH1 0x0 MSTORE PUSH1 0x32 PUSH1 0x4 MSTORE PUSH1 0x24 PUSH1 0x0 REVERT JUMPDEST PUSH1 0xFF SWAP1 SWAP3 AND PUSH1 0x20 SWAP3 DUP4 MUL SWAP2 SWAP1 SWAP2 ADD SWAP1 SWAP2 ADD MSTORE DUP2 PUSH2 0x269B DUP2 PUSH2 0x3C3C JUMP JUMPDEST SWAP3 POP POP JUMPDEST DUP1 PUSH2 0x26A9 DUP2 PUSH2 0x3C79 JUMP JUMPDEST SWAP2 POP POP PUSH2 0x263D JUMP JUMPDEST POP PUSH1 0x0 DUP2 PUSH2 0xFFFF AND GT PUSH2 0x26D6 JUMPI PUSH1 0x40 MLOAD PUSH3 0x461BCD PUSH1 0xE5 SHL DUP2 MSTORE PUSH1 0x4 ADD PUSH2 0x491 SWAP1 PUSH2 0x369B JUMP JUMPDEST PUSH1 0x0 DUP2 PUSH2 0xFFFF AND DIFFICULTY TIMESTAMP PUSH1 0x40 MLOAD PUSH1 0x20 ADD PUSH2 0x26F0 SWAP3 SWAP2 SWAP1 PUSH2 0x331B JUMP JUMPDEST PUSH1 0x40 MLOAD PUSH1 0x20 DUP2 DUP4 SUB SUB DUP2 MSTORE SWAP1 PUSH1 0x40 MSTORE DUP1 MLOAD SWAP1 PUSH1 0x20 ADD KECCAK256 PUSH1 0x0 SHR PUSH2 0x2713 SWAP2 SWAP1 PUSH2 0x3C99 JUMP JUMPDEST SWAP1 POP DUP3 DUP2 PUSH2 0xFFFF AND DUP2 MLOAD DUP2 LT PUSH2 0x2739 JUMPI PUSH4 0x4E487B71 PUSH1 0xE0 SHL PUSH1 0x0 MSTORE PUSH1 0x32 PUSH1 0x4 MSTORE PUSH1 0x24 PUSH1 0x0 REVERT JUMPDEST PUSH1 0x20 MUL PUSH1 0x20 ADD ADD MLOAD SWAP5 POP POP POP POP POP SWAP2 SWAP1 POP JUMP JUMPDEST PUSH1 0x0 DUP3 DUP2 MSTORE PUSH1 0x1 PUSH1 0x20 MSTORE PUSH1 0x40 DUP2 KECCAK256 PUSH1 0x6 ADD SLOAD PUSH2 0x2768 SWAP1 DUP4 PUSH2 0x2CB5 JUMP JUMPDEST SWAP4 SWAP3 POP POP POP JUMP JUMPDEST PUSH1 0x0 DUP3 DUP2 MSTORE PUSH1 0x1 PUSH1 0x20 MSTORE PUSH1 0x40 SWAP1 KECCAK256 PUSH1 0x6 ADD SLOAD PUSH2 0x25EC SWAP1 DUP3 PUSH2 0x2CC4 JUMP JUMPDEST PUSH1 0x0 DUP2 DUP2 MSTORE PUSH1 0x1 PUSH1 0x20 DUP2 SWAP1 MSTORE PUSH1 0x40 DUP1 DUP4 KECCAK256 SWAP2 DUP3 ADD DUP1 SLOAD PUSH1 0xFF NOT AND PUSH1 0x3 OR SWAP1 SSTORE MLOAD SWAP1 SWAP2 DUP4 SWAP2 PUSH32 0xCFEAA304021CFD684AD30C51A76FFD4139EB4B36C6E97D94CCE4DF46B71EE977 SWAP2 SWAP1 LOG2 PUSH2 0x27DC DUP3 PUSH2 0x2CD1 JUMP JUMPDEST POP POP JUMP JUMPDEST PUSH1 0x0 DUP2 DUP2 MSTORE PUSH1 0x1 PUSH1 0x20 MSTORE PUSH1 0x40 SWAP1 KECCAK256 PUSH1 0x2 DUP2 ADD SLOAD ISZERO PUSH2 0x2810 JUMPI PUSH1 0x40 MLOAD PUSH3 0x461BCD PUSH1 0xE5 SHL DUP2 MSTORE PUSH1 0x4 ADD PUSH2 0x491 SWAP1 PUSH2 0x387D JUMP JUMPDEST PUSH2 0x281E PUSH1 0x5 DUP3 ADD PUSH1 0x0 PUSH2 0x31BB JUMP JUMPDEST PUSH1 0xC DUP2 ADD DUP1 SLOAD PUSH1 0xFF NOT AND PUSH1 0x1 OR SWAP1 SSTORE PUSH1 0x40 MLOAD DUP3 SWAP1 PUSH32 0xF1898DE79C348962FAB7695532341027E5BCEB0EA2A8785790FA7D7EFEEEE129 SWAP1 PUSH2 0x2862 SWAP1 PUSH1 0x0 SWAP1 DUP2 SWAP1 PUSH2 0x3357 JUMP JUMPDEST PUSH1 0x40 MLOAD DUP1 SWAP2 SUB SWAP1 LOG2 CALLER PUSH1 0x1 PUSH1 0x1 PUSH1 0xA0 SHL SUB AND DUP3 PUSH1 0x0 DUP1 MLOAD PUSH1 0x20 PUSH2 0x3CD0 DUP4 CODECOPY DUP2 MLOAD SWAP2 MSTORE PUSH1 0x0 PUSH1 0x40 MLOAD PUSH2 0x2893 SWAP2 SWAP1 PUSH2 0x37DC JUMP JUMPDEST PUSH1 0x40 MLOAD DUP1 SWAP2 SUB SWAP1 LOG3 POP POP JUMP JUMPDEST PUSH1 0x0 DUP3 DUP2 MSTORE PUSH1 0x1 PUSH1 0x20 SWAP1 DUP2 MSTORE PUSH1 0x40 DUP1 DUP4 KECCAK256 PUSH1 0x1 PUSH1 0x1 PUSH1 0xA0 SHL SUB DUP6 AND DUP5 MSTORE PUSH1 0x2 SWAP1 SWAP3 MSTORE SWAP1 SWAP2 KECCAK256 SLOAD ISZERO PUSH2 0x28D0 JUMPI POP PUSH2 0x27DC JUMP JUMPDEST PUSH1 0x2 DUP2 DUP2 ADD DUP1 SLOAD PUSH1 0x1 DUP1 DUP3 ADD DUP4 SSTORE PUSH1 0x0 SWAP3 DUP4 MSTORE PUSH1 0x20 DUP1 DUP5 KECCAK256 SWAP1 SWAP3 ADD DUP1 SLOAD PUSH1 0x1 PUSH1 0x1 PUSH1 0xA0 SHL SUB NOT AND PUSH1 0x1 PUSH1 0x1 PUSH1 0xA0 SHL SUB DUP9 AND SWAP1 DUP2 OR SWAP1 SWAP2 SSTORE DUP4 MSTORE PUSH1 0x4 DUP1 DUP7 ADD DUP4 MSTORE PUSH1 0x40 DUP1 DUP6 KECCAK256 DUP1 SLOAD PUSH1 0xFF NOT AND DUP5 OR DUP2 SSTORE PUSH1 0x19 DUP2 DUP6 ADD SSTORE TIMESTAMP PUSH1 0x3 DUP1 DUP4 ADD SWAP2 SWAP1 SWAP2 SSTORE SWAP3 DUP2 ADD DUP7 SWAP1 SSTORE SWAP6 SWAP1 SWAP4 MSTORE SWAP3 DUP3 SWAP1 KECCAK256 DUP8 SWAP1 SSTORE SWAP2 DUP5 ADD DUP1 SLOAD SWAP1 SWAP3 ADD SWAP1 SWAP2 SSTORE MLOAD DUP5 SWAP1 PUSH32 0x87969BC7FAF902221A147B95CEBA76E011C5EFB0339A0A8EE7A2BB82D9CFBBD6 SWAP1 PUSH2 0x297B SWAP1 DUP7 SWAP1 PUSH2 0x3329 JUMP JUMPDEST PUSH1 0x40 MLOAD DUP1 SWAP2 SUB SWAP1 LOG2 POP POP POP POP JUMP JUMPDEST PUSH1 0x0 DUP2 DUP2 MSTORE PUSH1 0x1 PUSH1 0x20 MSTORE PUSH1 0x40 DUP2 KECCAK256 DUP2 JUMPDEST PUSH1 0x2 DUP3 ADD SLOAD DUP2 LT ISZERO PUSH2 0x2A20 JUMPI PUSH1 0x0 DUP3 PUSH1 0x2 ADD DUP3 DUP2 SLOAD DUP2 LT PUSH2 0x29CA JUMPI PUSH4 0x4E487B71 PUSH1 0xE0 SHL PUSH1 0x0 MSTORE PUSH1 0x32 PUSH1 0x4 MSTORE PUSH1 0x24 PUSH1 0x0 REVERT JUMPDEST PUSH1 0x0 SWAP2 DUP3 MSTORE PUSH1 0x20 DUP1 DUP4 KECCAK256 SWAP1 SWAP2 ADD SLOAD PUSH1 0x1 PUSH1 0x1 PUSH1 0xA0 SHL SUB AND DUP1 DUP4 MSTORE PUSH1 0x4 DUP7 ADD SWAP1 SWAP2 MSTORE PUSH1 0x40 SWAP1 SWAP2 KECCAK256 SLOAD SWAP1 SWAP2 POP PUSH1 0xFF PUSH4 0x1000000 SWAP1 SWAP2 DIV AND PUSH2 0x2A0D JUMPI SWAP3 POP PUSH2 0x182C SWAP2 POP POP JUMP JUMPDEST POP DUP1 PUSH2 0x2A18 DUP2 PUSH2 0x3C5E JUMP JUMPDEST SWAP2 POP POP PUSH2 0x2999 JUMP JUMPDEST POP PUSH1 0x40 MLOAD PUSH3 0x461BCD PUSH1 0xE5 SHL DUP2 MSTORE PUSH1 0x4 ADD PUSH2 0x491 SWAP1 PUSH2 0x34EC JUMP JUMPDEST PUSH1 0x0 DUP2 DUP2 MSTORE PUSH1 0x1 PUSH1 0x20 MSTORE PUSH1 0x40 DUP2 KECCAK256 SWAP1 PUSH2 0x2A56 SWAP1 PUSH1 0x5 DUP4 ADD SWAP1 PUSH2 0x31BB JUMP JUMPDEST PUSH1 0x40 DUP1 MLOAD PUSH1 0x34 DUP1 DUP3 MSTORE PUSH2 0x6A0 DUP3 ADD SWAP1 SWAP3 MSTORE PUSH1 0x0 SWAP2 DUP2 PUSH1 0x20 ADD JUMPDEST PUSH2 0x2A77 PUSH2 0x31DC JUMP JUMPDEST DUP2 MSTORE PUSH1 0x20 ADD SWAP1 PUSH1 0x1 SWAP1 SUB SWAP1 DUP2 PUSH2 0x2A6F JUMPI SWAP1 POP POP SWAP1 POP PUSH1 0x0 DUP1 JUMPDEST PUSH1 0x4 DUP2 PUSH1 0xFF AND LT ISZERO PUSH2 0x2B27 JUMPI PUSH1 0x2 JUMPDEST PUSH1 0xE DUP2 PUSH1 0xFF AND GT PUSH2 0x2B14 JUMPI PUSH1 0x40 MLOAD DUP1 PUSH1 0x40 ADD PUSH1 0x40 MSTORE DUP1 DUP3 PUSH1 0xFF AND DUP2 MSTORE PUSH1 0x20 ADD DUP4 PUSH1 0xFF AND DUP2 MSTORE POP DUP5 DUP5 PUSH1 0xFF AND DUP2 MLOAD DUP2 LT PUSH2 0x2AE8 JUMPI PUSH4 0x4E487B71 PUSH1 0xE0 SHL PUSH1 0x0 MSTORE PUSH1 0x32 PUSH1 0x4 MSTORE PUSH1 0x24 PUSH1 0x0 REVERT JUMPDEST PUSH1 0x20 MUL PUSH1 0x20 ADD ADD DUP2 SWAP1 MSTORE POP DUP3 DUP1 PUSH2 0x2AFE SWAP1 PUSH2 0x3C79 JUMP JUMPDEST SWAP4 POP POP DUP1 DUP1 PUSH2 0x2B0C SWAP1 PUSH2 0x3C79 JUMP JUMPDEST SWAP2 POP POP PUSH2 0x2A9F JUMP JUMPDEST POP DUP1 PUSH2 0x2B1F DUP2 PUSH2 0x3C79 JUMP JUMPDEST SWAP2 POP POP PUSH2 0x2A90 JUMP JUMPDEST POP PUSH1 0x0 PUSH2 0x2B33 DUP4 PUSH2 0x2F09 JUMP JUMPDEST SWAP1 POP PUSH1 0x0 JUMPDEST PUSH1 0x34 DUP2 LT ISZERO PUSH2 0x228D JUMPI DUP5 PUSH1 0x5 ADD DUP3 DUP3 DUP2 MLOAD DUP2 LT PUSH2 0x2B65 JUMPI PUSH4 0x4E487B71 PUSH1 0xE0 SHL PUSH1 0x0 MSTORE PUSH1 0x32 PUSH1 0x4 MSTORE PUSH1 0x24 PUSH1 0x0 REVERT JUMPDEST PUSH1 0x20 SWAP1 DUP2 MUL SWAP2 SWAP1 SWAP2 ADD DUP2 ADD MLOAD DUP3 SLOAD PUSH1 0x1 DUP2 ADD DUP5 SSTORE PUSH1 0x0 SWAP4 DUP5 MSTORE SWAP3 DUP3 SWAP1 KECCAK256 DUP2 MLOAD SWAP4 ADD DUP1 SLOAD SWAP2 SWAP1 SWAP3 ADD MLOAD PUSH1 0xFF SWAP1 DUP2 AND PUSH2 0x100 MUL PUSH2 0xFF00 NOT SWAP2 SWAP1 SWAP5 AND PUSH1 0xFF NOT SWAP1 SWAP3 AND SWAP2 SWAP1 SWAP2 OR AND SWAP2 SWAP1 SWAP2 OR SWAP1 SSTORE DUP1 PUSH2 0x2BB9 DUP2 PUSH2 0x3C5E JUMP JUMPDEST SWAP2 POP POP PUSH2 0x2B38 JUMP JUMPDEST PUSH1 0x0 DUP2 DUP2 MSTORE PUSH1 0x1 PUSH1 0x20 MSTORE PUSH1 0x40 SWAP1 KECCAK256 PUSH2 0x2BD8 DUP3 PUSH2 0x3033 JUMP JUMPDEST PUSH1 0x0 JUMPDEST PUSH1 0x2 DUP3 ADD SLOAD DUP2 LT ISZERO PUSH2 0x2CA2 JUMPI PUSH1 0x0 DUP3 PUSH1 0x2 ADD DUP3 DUP2 SLOAD DUP2 LT PUSH2 0x2C0C JUMPI PUSH4 0x4E487B71 PUSH1 0xE0 SHL PUSH1 0x0 MSTORE PUSH1 0x32 PUSH1 0x4 MSTORE PUSH1 0x24 PUSH1 0x0 REVERT JUMPDEST PUSH1 0x0 SWAP2 DUP3 MSTORE PUSH1 0x20 DUP1 DUP4 KECCAK256 SWAP2 SWAP1 SWAP2 ADD SLOAD PUSH1 0x1 PUSH1 0x1 PUSH1 0xA0 SHL SUB AND DUP1 DUP4 MSTORE PUSH1 0x4 DUP7 ADD SWAP1 SWAP2 MSTORE PUSH1 0x40 SWAP1 SWAP2 KECCAK256 DUP1 SLOAD PUSH5 0xFF00000000 NOT AND PUSH1 0x1 PUSH1 0x20 SHL PUSH1 0xFF DUP7 AND MUL OR SWAP1 SSTORE SWAP1 POP DUP2 PUSH2 0x2C57 DUP6 DUP3 PUSH2 0x276F JUMP JUMPDEST PUSH1 0x40 MLOAD PUSH1 0x1 PUSH1 0x1 PUSH1 0xA0 SHL SUB DUP4 AND SWAP1 DUP7 SWAP1 PUSH32 0xCE005D12BCA3B432651FA3635A44056E071A659E4C958FC7E9AD8BA2B6221A04 SWAP1 PUSH1 0x0 SWAP1 LOG3 POP POP DUP1 DUP1 PUSH2 0x2C9A SWAP1 PUSH2 0x3C5E JUMP JUMPDEST SWAP2 POP POP PUSH2 0x2BDB JUMP JUMPDEST POP POP POP JUMP JUMPDEST PUSH1 0x1 PUSH1 0xFF SWAP2 SWAP1 SWAP2 AND SHL NOT AND SWAP1 JUMP JUMPDEST PUSH1 0x1 PUSH1 0xFF SWAP2 SWAP1 SWAP2 AND SHL AND ISZERO ISZERO SWAP1 JUMP JUMPDEST PUSH1 0x1 PUSH1 0xFF SWAP2 SWAP1 SWAP2 AND SHL OR SWAP1 JUMP JUMPDEST PUSH1 0x0 DUP2 DUP2 MSTORE PUSH1 0x1 PUSH1 0x20 MSTORE PUSH1 0x40 DUP2 KECCAK256 SWAP1 PUSH2 0x2CE9 DUP4 PUSH2 0x3050 JUMP JUMPDEST SWAP1 POP PUSH1 0x0 JUMPDEST PUSH1 0x2 DUP4 ADD SLOAD DUP2 LT ISZERO PUSH2 0x2E78 JUMPI PUSH1 0x0 DUP4 PUSH1 0x2 ADD DUP3 DUP2 SLOAD DUP2 LT PUSH2 0x2D1F JUMPI PUSH4 0x4E487B71 PUSH1 0xE0 SHL PUSH1 0x0 MSTORE PUSH1 0x32 PUSH1 0x4 MSTORE PUSH1 0x24 PUSH1 0x0 REVERT JUMPDEST PUSH1 0x0 SWAP2 DUP3 MSTORE PUSH1 0x20 DUP1 DUP4 KECCAK256 SWAP1 SWAP2 ADD SLOAD PUSH1 0x1 PUSH1 0x1 PUSH1 0xA0 SHL SUB AND DUP1 DUP4 MSTORE PUSH1 0x4 DUP8 ADD SWAP1 SWAP2 MSTORE PUSH1 0x40 SWAP1 SWAP2 KECCAK256 SLOAD SWAP1 SWAP2 POP PUSH1 0xFF PUSH4 0x1000000 SWAP1 SWAP2 DIV AND ISZERO PUSH2 0x2D5F JUMPI POP PUSH2 0x2E66 JUMP JUMPDEST PUSH1 0x1 PUSH1 0x1 PUSH1 0xA0 SHL SUB DUP2 AND PUSH1 0x0 SWAP1 DUP2 MSTORE PUSH1 0x4 DUP6 ADD PUSH1 0x20 MSTORE PUSH1 0x40 DUP2 KECCAK256 SLOAD PUSH1 0x5 DUP7 ADD DUP1 SLOAD PUSH1 0x1 PUSH1 0x20 SHL SWAP1 SWAP3 DIV PUSH1 0xFF AND SWAP3 SWAP2 DUP4 SWAP1 DUP2 LT PUSH2 0x2DAB JUMPI PUSH4 0x4E487B71 PUSH1 0xE0 SHL PUSH1 0x0 MSTORE PUSH1 0x32 PUSH1 0x4 MSTORE PUSH1 0x24 PUSH1 0x0 REVERT JUMPDEST PUSH1 0x0 SWAP2 DUP3 MSTORE PUSH1 0x20 SWAP2 DUP3 SWAP1 KECCAK256 PUSH1 0x40 DUP1 MLOAD DUP1 DUP3 ADD DUP3 MSTORE SWAP3 SWAP1 SWAP2 ADD SLOAD PUSH1 0xFF DUP1 DUP3 AND DUP1 DUP6 MSTORE PUSH2 0x100 SWAP1 SWAP3 DIV AND SWAP4 DUP4 ADD DUP5 SWAP1 MSTORE SWAP1 MLOAD SWAP2 SWAP4 POP PUSH1 0x1 PUSH1 0x1 PUSH1 0xA0 SHL SUB DUP7 AND SWAP3 PUSH32 0xBDF2F0687B7C6F0B8DDE29A86969BA9A1E60CE7D560DC87E0BC637AEAD3A8C1C SWAP3 PUSH2 0x2E16 SWAP3 SWAP2 SWAP1 PUSH2 0x3BBF JUMP JUMPDEST PUSH1 0x40 MLOAD DUP1 SWAP2 SUB SWAP1 LOG2 DUP7 PUSH32 0xE7507DC066A25B8C1A555B221CE4B823FEA88B34A900F0800DD90115DCCA2980 DUP5 DUP4 PUSH1 0x0 ADD MLOAD DUP5 PUSH1 0x20 ADD MLOAD PUSH1 0x40 MLOAD PUSH2 0x2E5A SWAP4 SWAP3 SWAP2 SWAP1 PUSH2 0x3370 JUMP JUMPDEST PUSH1 0x40 MLOAD DUP1 SWAP2 SUB SWAP1 LOG2 POP POP POP JUMPDEST DUP1 PUSH2 0x2E70 DUP2 PUSH2 0x3C5E JUMP JUMPDEST SWAP2 POP POP PUSH2 0x2CEE JUMP JUMPDEST POP PUSH1 0x7 DUP3 ADD DUP1 SLOAD PUSH1 0x1 PUSH1 0x1 PUSH1 0xA0 SHL SUB DUP4 AND PUSH1 0x0 SWAP1 DUP2 MSTORE PUSH1 0x4 DUP1 DUP7 ADD PUSH1 0x20 MSTORE PUSH1 0x40 SWAP2 DUP3 SWAP1 KECCAK256 PUSH1 0x1 SWAP1 DUP2 ADD DUP1 SLOAD SWAP1 SWAP5 ADD SWAP1 SWAP4 SSTORE SWAP3 SLOAD SWAP2 DUP6 ADD DUP1 SLOAD PUSH1 0xFF NOT AND SWAP1 SWAP4 OR SWAP1 SWAP3 SSTORE SWAP1 MLOAD DUP5 SWAP1 PUSH32 0xF1898DE79C348962FAB7695532341027E5BCEB0EA2A8785790FA7D7EFEEEE129 SWAP1 PUSH2 0x2EED SWAP1 DUP6 SWAP1 DUP6 SWAP1 PUSH2 0x3357 JUMP JUMPDEST PUSH1 0x40 MLOAD DUP1 SWAP2 SUB SWAP1 LOG2 POP POP PUSH1 0x0 PUSH1 0x7 DUP3 ADD DUP2 SWAP1 SSTORE PUSH1 0x8 SWAP1 SWAP2 ADD SSTORE POP JUMP JUMPDEST PUSH1 0x60 DIFFICULTY PUSH1 0x0 PUSH2 0x2F1A PUSH1 0x1 PUSH1 0x34 PUSH2 0x3C02 JUMP JUMPDEST PUSH1 0xFF AND SWAP1 POP JUMPDEST DUP1 ISZERO PUSH2 0x302B JUMPI PUSH1 0x0 PUSH2 0x2F33 DUP3 PUSH1 0x1 PUSH2 0x3BD3 JUMP JUMPDEST DUP4 DUP4 PUSH1 0x40 MLOAD PUSH1 0x20 ADD PUSH2 0x2F46 SWAP3 SWAP2 SWAP1 PUSH2 0x331B JUMP JUMPDEST PUSH1 0x40 MLOAD PUSH1 0x20 DUP2 DUP4 SUB SUB DUP2 MSTORE SWAP1 PUSH1 0x40 MSTORE DUP1 MLOAD SWAP1 PUSH1 0x20 ADD KECCAK256 PUSH1 0x0 SHR PUSH2 0x2F69 SWAP2 SWAP1 PUSH2 0x3C99 JUMP JUMPDEST SWAP1 POP PUSH1 0x0 DUP6 DUP4 DUP2 MLOAD DUP2 LT PUSH2 0x2F8D JUMPI PUSH4 0x4E487B71 PUSH1 0xE0 SHL PUSH1 0x0 MSTORE PUSH1 0x32 PUSH1 0x4 MSTORE PUSH1 0x24 PUSH1 0x0 REVERT JUMPDEST PUSH1 0x20 MUL PUSH1 0x20 ADD ADD MLOAD SWAP1 POP DUP6 DUP3 DUP2 MLOAD DUP2 LT PUSH2 0x2FB7 JUMPI PUSH4 0x4E487B71 PUSH1 0xE0 SHL PUSH1 0x0 MSTORE PUSH1 0x32 PUSH1 0x4 MSTORE PUSH1 0x24 PUSH1 0x0 REVERT JUMPDEST PUSH1 0x20 MUL PUSH1 0x20 ADD ADD MLOAD DUP7 DUP5 DUP2 MLOAD DUP2 LT PUSH2 0x2FDF JUMPI PUSH4 0x4E487B71 PUSH1 0xE0 SHL PUSH1 0x0 MSTORE PUSH1 0x32 PUSH1 0x4 MSTORE PUSH1 0x24 PUSH1 0x0 REVERT JUMPDEST PUSH1 0x20 MUL PUSH1 0x20 ADD ADD DUP2 SWAP1 MSTORE POP DUP1 DUP7 DUP4 DUP2 MLOAD DUP2 LT PUSH2 0x300B JUMPI PUSH4 0x4E487B71 PUSH1 0xE0 SHL PUSH1 0x0 MSTORE PUSH1 0x32 PUSH1 0x4 MSTORE PUSH1 0x24 PUSH1 0x0 REVERT JUMPDEST PUSH1 0x20 MUL PUSH1 0x20 ADD ADD DUP2 SWAP1 MSTORE POP POP POP DUP1 DUP1 PUSH2 0x3023 SWAP1 PUSH2 0x3C25 JUMP JUMPDEST SWAP2 POP POP PUSH2 0x2F20 JUMP JUMPDEST POP SWAP2 SWAP3 SWAP2 POP POP JUMP JUMPDEST PUSH2 0x303B PUSH2 0x31B6 JUMP JUMPDEST PUSH1 0x0 SWAP2 DUP3 MSTORE PUSH1 0x1 PUSH1 0x20 MSTORE PUSH1 0x40 SWAP1 SWAP2 KECCAK256 PUSH1 0x6 ADD SSTORE JUMP JUMPDEST PUSH1 0x0 DUP2 DUP2 MSTORE PUSH1 0x1 PUSH1 0x20 MSTORE PUSH1 0x40 DUP2 KECCAK256 DUP2 DUP1 DUP1 DUP1 JUMPDEST PUSH1 0x2 DUP6 ADD SLOAD DUP2 LT ISZERO PUSH2 0x31AB JUMPI PUSH1 0x0 DUP6 PUSH1 0x2 ADD DUP3 DUP2 SLOAD DUP2 LT PUSH2 0x3094 JUMPI PUSH4 0x4E487B71 PUSH1 0xE0 SHL PUSH1 0x0 MSTORE PUSH1 0x32 PUSH1 0x4 MSTORE PUSH1 0x24 PUSH1 0x0 REVERT JUMPDEST PUSH1 0x0 SWAP2 DUP3 MSTORE PUSH1 0x20 DUP1 DUP4 KECCAK256 SWAP1 SWAP2 ADD SLOAD PUSH1 0x1 PUSH1 0x1 PUSH1 0xA0 SHL SUB AND DUP1 DUP4 MSTORE PUSH1 0x4 DUP10 ADD SWAP1 SWAP2 MSTORE PUSH1 0x40 SWAP1 SWAP2 KECCAK256 SLOAD SWAP1 SWAP2 POP PUSH1 0xFF PUSH4 0x1000000 SWAP1 SWAP2 DIV AND ISZERO PUSH2 0x30D4 JUMPI POP PUSH2 0x3199 JUMP JUMPDEST PUSH1 0x1 PUSH1 0x1 PUSH1 0xA0 SHL SUB DUP2 AND PUSH1 0x0 SWAP1 DUP2 MSTORE PUSH1 0x4 DUP8 ADD PUSH1 0x20 MSTORE PUSH1 0x40 DUP2 KECCAK256 SLOAD PUSH1 0x5 DUP9 ADD DUP1 SLOAD PUSH1 0x1 PUSH1 0x20 SHL SWAP1 SWAP3 DIV PUSH1 0xFF AND SWAP3 SWAP2 DUP4 SWAP1 DUP2 LT PUSH2 0x3120 JUMPI PUSH4 0x4E487B71 PUSH1 0xE0 SHL PUSH1 0x0 MSTORE PUSH1 0x32 PUSH1 0x4 MSTORE PUSH1 0x24 PUSH1 0x0 REVERT JUMPDEST PUSH1 0x0 SWAP2 DUP3 MSTORE PUSH1 0x20 SWAP2 DUP3 SWAP1 KECCAK256 PUSH1 0x40 DUP1 MLOAD DUP1 DUP3 ADD SWAP1 SWAP2 MSTORE SWAP2 ADD SLOAD PUSH1 0xFF DUP1 DUP3 AND DUP1 DUP5 MSTORE PUSH2 0x100 SWAP1 SWAP3 DIV DUP2 AND SWAP4 DUP4 ADD SWAP4 SWAP1 SWAP4 MSTORE SWAP1 SWAP3 POP SWAP1 DUP8 AND LT DUP1 PUSH2 0x317E JUMPI POP DUP6 PUSH1 0xFF AND DUP2 PUSH1 0x0 ADD MLOAD PUSH1 0xFF AND EQ DUP1 ISZERO PUSH2 0x317E JUMPI POP DUP5 PUSH1 0xFF AND DUP2 PUSH1 0x20 ADD MLOAD PUSH1 0xFF AND GT JUMPDEST ISZERO PUSH2 0x3195 JUMPI DUP1 PUSH1 0x0 ADD MLOAD SWAP6 POP DUP1 PUSH1 0x20 ADD MLOAD SWAP5 POP DUP3 SWAP7 POP JUMPDEST POP POP POP JUMPDEST DUP1 PUSH2 0x31A3 DUP2 PUSH2 0x3C5E JUMP JUMPDEST SWAP2 POP POP PUSH2 0x3063 JUMP JUMPDEST POP SWAP2 SWAP6 SWAP5 POP POP POP POP POP JUMP JUMPDEST PUSH1 0x0 SWAP1 JUMP JUMPDEST POP DUP1 SLOAD PUSH1 0x0 DUP3 SSTORE SWAP1 PUSH1 0x0 MSTORE PUSH1 0x20 PUSH1 0x0 KECCAK256 SWAP1 DUP2 ADD SWAP1 PUSH2 0x31D9 SWAP2 SWAP1 PUSH2 0x31F3 JUMP JUMPDEST POP JUMP JUMPDEST PUSH1 0x40 DUP1 MLOAD DUP1 DUP3 ADD SWAP1 SWAP2 MSTORE PUSH1 0x0 DUP1 DUP3 MSTORE PUSH1 0x20 DUP3 ADD MSTORE SWAP1 JUMP JUMPDEST JUMPDEST DUP1 DUP3 GT ISZERO PUSH2 0x320D JUMPI DUP1 SLOAD PUSH2 0xFFFF NOT AND DUP2 SSTORE PUSH1 0x1 ADD PUSH2 0x31F4 JUMP JUMPDEST POP SWAP1 JUMP JUMPDEST DUP1 CALLDATALOAD PUSH1 0x1 PUSH1 0x1 PUSH1 0xA0 SHL SUB DUP2 AND DUP2 EQ PUSH2 0x182C JUMPI PUSH1 0x0 DUP1 REVERT JUMPDEST PUSH1 0x0 PUSH1 0x20 DUP3 DUP5 SUB SLT ISZERO PUSH2 0x3239 JUMPI DUP1 DUP2 REVERT JUMPDEST PUSH2 0x2768 DUP3 PUSH2 0x3211 JUMP JUMPDEST PUSH1 0x0 PUSH1 0x20 DUP3 DUP5 SUB SLT ISZERO PUSH2 0x3253 JUMPI DUP1 DUP2 REVERT JUMPDEST POP CALLDATALOAD SWAP2 SWAP1 POP JUMP JUMPDEST PUSH1 0x0 DUP1 PUSH1 0x40 DUP4 DUP6 SUB SLT ISZERO PUSH2 0x326C JUMPI DUP1 DUP2 REVERT JUMPDEST DUP3 CALLDATALOAD SWAP2 POP PUSH2 0x327C PUSH1 0x20 DUP5 ADD PUSH2 0x3211 JUMP JUMPDEST SWAP1 POP SWAP3 POP SWAP3 SWAP1 POP JUMP JUMPDEST PUSH1 0x0 DUP1 PUSH1 0x40 DUP4 DUP6 SUB SLT ISZERO PUSH2 0x3297 JUMPI DUP2 DUP3 REVERT JUMPDEST POP POP DUP1 CALLDATALOAD SWAP3 PUSH1 0x20 SWAP1 SWAP2 ADD CALLDATALOAD SWAP2 POP JUMP JUMPDEST PUSH1 0x0 DUP2 MLOAD DUP1 DUP5 MSTORE PUSH1 0x20 DUP1 DUP6 ADD SWAP5 POP DUP1 DUP5 ADD DUP4 JUMPDEST DUP4 DUP2 LT ISZERO PUSH2 0x32DE JUMPI DUP2 MLOAD PUSH1 0x1 PUSH1 0x1 PUSH1 0xA0 SHL SUB AND DUP8 MSTORE SWAP6 DUP3 ADD SWAP6 SWAP1 DUP3 ADD SWAP1 PUSH1 0x1 ADD PUSH2 0x32B9 JUMP JUMPDEST POP SWAP5 SWAP6 SWAP5 POP POP POP POP POP JUMP JUMPDEST PUSH1 0x0 DUP2 MLOAD DUP1 DUP5 MSTORE PUSH1 0x20 DUP1 DUP6 ADD SWAP5 POP DUP1 DUP5 ADD DUP4 JUMPDEST DUP4 DUP2 LT ISZERO PUSH2 0x32DE JUMPI DUP2 MLOAD PUSH1 0xFF AND DUP8 MSTORE SWAP6 DUP3 ADD SWAP6 SWAP1 DUP3 ADD SWAP1 PUSH1 0x1 ADD PUSH2 0x32FC JUMP JUMPDEST SWAP2 DUP3 MSTORE PUSH1 0x20 DUP3 ADD MSTORE PUSH1 0x40 ADD SWAP1 JUMP JUMPDEST PUSH1 0x1 PUSH1 0x1 PUSH1 0xA0 SHL SUB SWAP2 SWAP1 SWAP2 AND DUP2 MSTORE PUSH1 0x20 ADD SWAP1 JUMP JUMPDEST PUSH1 0x1 PUSH1 0x1 PUSH1 0xA0 SHL SUB SWAP3 DUP4 AND DUP2 MSTORE SWAP2 AND PUSH1 0x20 DUP3 ADD MSTORE PUSH1 0x40 ADD SWAP1 JUMP JUMPDEST PUSH1 0x1 PUSH1 0x1 PUSH1 0xA0 SHL SUB SWAP3 SWAP1 SWAP3 AND DUP3 MSTORE PUSH1 0x20 DUP3 ADD MSTORE PUSH1 0x40 ADD SWAP1 JUMP JUMPDEST PUSH1 0x1 PUSH1 0x1 PUSH1 0xA0 SHL SUB SWAP4 SWAP1 SWAP4 AND DUP4 MSTORE PUSH1 0xFF SWAP2 DUP3 AND PUSH1 0x20 DUP5 ADD MSTORE AND PUSH1 0x40 DUP3 ADD MSTORE PUSH1 0x60 ADD SWAP1 JUMP JUMPDEST PUSH1 0x0 PUSH1 0x20 DUP3 MSTORE PUSH2 0x2768 PUSH1 0x20 DUP4 ADD DUP5 PUSH2 0x32A6 JUMP JUMPDEST PUSH1 0x0 PUSH1 0x60 DUP3 MSTORE PUSH2 0x33BA PUSH1 0x60 DUP4 ADD DUP7 PUSH2 0x32A6 JUMP JUMPDEST DUP3 DUP2 SUB PUSH1 0x20 DUP5 ADD MSTORE PUSH2 0x33CC DUP2 DUP7 PUSH2 0x32E9 JUMP JUMPDEST SWAP1 POP DUP3 DUP2 SUB PUSH1 0x40 DUP5 ADD MSTORE PUSH2 0x33E0 DUP2 DUP6 PUSH2 0x32E9 JUMP JUMPDEST SWAP7 SWAP6 POP POP POP POP POP POP JUMP JUMPDEST SWAP1 ISZERO ISZERO DUP2 MSTORE PUSH1 0x20 ADD SWAP1 JUMP JUMPDEST SWAP6 ISZERO ISZERO DUP7 MSTORE SWAP4 ISZERO ISZERO PUSH1 0x20 DUP7 ADD MSTORE SWAP2 ISZERO ISZERO PUSH1 0x40 DUP6 ADD MSTORE ISZERO ISZERO PUSH1 0x60 DUP5 ADD MSTORE PUSH1 0x80 DUP4 ADD MSTORE PUSH1 0xA0 DUP3 ADD MSTORE PUSH1 0xC0 ADD SWAP1 JUMP JUMPDEST PUSH2 0x120 DUP2 ADD PUSH1 0x5 DUP12 LT PUSH2 0x3444 JUMPI PUSH4 0x4E487B71 PUSH1 0xE0 SHL PUSH1 0x0 MSTORE PUSH1 0x21 PUSH1 0x4 MSTORE PUSH1 0x24 PUSH1 0x0 REVERT JUMPDEST SWAP10 DUP2 MSTORE PUSH1 0x20 DUP2 ADD SWAP9 SWAP1 SWAP9 MSTORE PUSH1 0x40 DUP9 ADD SWAP7 SWAP1 SWAP7 MSTORE PUSH1 0x60 DUP8 ADD SWAP5 SWAP1 SWAP5 MSTORE PUSH1 0x80 DUP7 ADD SWAP3 SWAP1 SWAP3 MSTORE PUSH1 0xA0 DUP6 ADD MSTORE PUSH1 0xC0 DUP5 ADD MSTORE PUSH1 0x1 PUSH1 0x1 PUSH1 0xA0 SHL SUB AND PUSH1 0xE0 DUP4 ADD MSTORE ISZERO ISZERO PUSH2 0x100 SWAP1 SWAP2 ADD MSTORE SWAP1 JUMP JUMPDEST PUSH1 0x20 DUP1 DUP3 MSTORE PUSH1 0x18 SWAP1 DUP3 ADD MSTORE PUSH32 0x416C726561647920757365642073776170206F7074696F6E0000000000000000 PUSH1 0x40 DUP3 ADD MSTORE PUSH1 0x60 ADD SWAP1 JUMP JUMPDEST PUSH1 0x20 DUP1 DUP3 MSTORE PUSH1 0x10 SWAP1 DUP3 ADD MSTORE PUSH16 0x1419595AC81C1A185CD948195B991959 PUSH1 0x82 SHL PUSH1 0x40 DUP3 ADD MSTORE PUSH1 0x60 ADD SWAP1 JUMP JUMPDEST PUSH1 0x20 DUP1 DUP3 MSTORE PUSH1 0x17 SWAP1 DUP3 ADD MSTORE PUSH32 0x4E6F2061637469766520706C617965727320666F756E64000000000000000000 PUSH1 0x40 DUP3 ADD MSTORE PUSH1 0x60 ADD SWAP1 JUMP JUMPDEST PUSH1 0x20 DUP1 DUP3 MSTORE PUSH1 0x11 SWAP1 DUP3 ADD MSTORE PUSH17 0x2737BA1030B1BA34BB3290383630BCB2B9 PUSH1 0x79 SHL PUSH1 0x40 DUP3 ADD MSTORE PUSH1 0x60 ADD SWAP1 JUMP JUMPDEST PUSH1 0x20 DUP1 DUP3 MSTORE PUSH1 0x12 SWAP1 DUP3 ADD MSTORE PUSH18 0x496E73756666696369656E74206368697073 PUSH1 0x70 SHL PUSH1 0x40 DUP3 ADD MSTORE PUSH1 0x60 ADD SWAP1 JUMP JUMPDEST PUSH1 0x20 DUP1 DUP3 MSTORE PUSH1 0xA SWAP1 DUP3 ADD MSTORE PUSH10 0x2737BA1035B2B2B832B9 PUSH1 0xB1 SHL PUSH1 0x40 DUP3 ADD MSTORE PUSH1 0x60 ADD SWAP1 JUMP JUMPDEST PUSH1 0x20 DUP1 DUP3 MSTORE PUSH1 0x2B SWAP1 DUP3 ADD MSTORE PUSH32 0x43726561746F722063616E2774206C656176652067616D652077697468206F74 PUSH1 0x40 DUP3 ADD MSTORE PUSH11 0x68657220706C6179657273 PUSH1 0xA8 SHL PUSH1 0x60 DUP3 ADD MSTORE PUSH1 0x80 ADD SWAP1 JUMP JUMPDEST PUSH1 0x20 DUP1 DUP3 MSTORE PUSH1 0x14 SWAP1 DUP3 ADD MSTORE PUSH20 0x105B1C9958591E481C1B1858D95908184818995D PUSH1 0x62 SHL PUSH1 0x40 DUP3 ADD MSTORE PUSH1 0x60 ADD SWAP1 JUMP JUMPDEST PUSH1 0x20 DUP1 DUP3 MSTORE PUSH1 0x16 SWAP1 DUP3 ADD MSTORE PUSH22 0x135D5CDD081B585D18DA0818DD5C9C995B9D0818995D PUSH1 0x52 SHL PUSH1 0x40 DUP3 ADD MSTORE PUSH1 0x60 ADD SWAP1 JUMP JUMPDEST PUSH1 0x20 DUP1 DUP3 MSTORE PUSH1 0xF SWAP1 DUP3 ADD MSTORE PUSH15 0x4E65656420322B20706C6179657273 PUSH1 0x88 SHL PUSH1 0x40 DUP3 ADD MSTORE PUSH1 0x60 ADD SWAP1 JUMP JUMPDEST PUSH1 0x20 DUP1 DUP3 MSTORE PUSH1 0x11 SWAP1 DUP3 ADD MSTORE PUSH17 0x4E6F742062657474696E67207068617365 PUSH1 0x78 SHL PUSH1 0x40 DUP3 ADD MSTORE PUSH1 0x60 ADD SWAP1 JUMP JUMPDEST PUSH1 0x20 DUP1 DUP3 MSTORE PUSH1 0x1B SWAP1 DUP3 ADD MSTORE PUSH32 0x4E6F20617661696C61626C6520636172647320666F7220737761700000000000 PUSH1 0x40 DUP3 ADD MSTORE PUSH1 0x60 ADD SWAP1 JUMP JUMPDEST PUSH1 0x20 DUP1 DUP3 MSTORE PUSH1 0x18 SWAP1 DUP3 ADD MSTORE PUSH32 0x47616D652068617320616C726561647920737461727465640000000000000000 PUSH1 0x40 DUP3 ADD MSTORE PUSH1 0x60 ADD SWAP1 JUMP JUMPDEST PUSH1 0x40 DUP1 DUP3 MSTORE PUSH1 0x4 SWAP1 DUP3 ADD MSTORE PUSH4 0x199BDB19 PUSH1 0xE2 SHL PUSH1 0x60 DUP3 ADD MSTORE PUSH1 0x20 DUP2 ADD SWAP2 SWAP1 SWAP2 MSTORE PUSH1 0x80 ADD SWAP1 JUMP JUMPDEST PUSH1 0x20 DUP1 DUP3 MSTORE PUSH1 0x17 SWAP1 DUP3 ADD MSTORE PUSH32 0x4D757374207065656B2061742063617264206669727374000000000000000000 PUSH1 0x40 DUP3 ADD MSTORE PUSH1 0x60 ADD SWAP1 JUMP JUMPDEST PUSH1 0x40 DUP1 DUP3 MSTORE PUSH1 0x4 SWAP1 DUP3 ADD MSTORE PUSH4 0x7377617 PUSH1 0xE4 SHL PUSH1 0x60 DUP3 ADD MSTORE PUSH1 0x20 DUP2 ADD SWAP2 SWAP1 SWAP2 MSTORE PUSH1 0x80 ADD SWAP1 JUMP JUMPDEST PUSH1 0x20 DUP1 DUP3 MSTORE PUSH1 0xE SWAP1 DUP3 ADD MSTORE PUSH14 0x4E6F74207065656B207068617365 PUSH1 0x90 SHL PUSH1 0x40 DUP3 ADD MSTORE PUSH1 0x60 ADD SWAP1 JUMP JUMPDEST PUSH1 0x20 DUP1 DUP3 MSTORE PUSH1 0xE SWAP1 DUP3 ADD MSTORE PUSH14 0x11D85B59481B9BDD08199BDD5B99 PUSH1 0x92 SHL PUSH1 0x40 DUP3 ADD MSTORE PUSH1 0x60 ADD SWAP1 JUMP JUMPDEST PUSH1 0x40 DUP1 DUP3 MSTORE PUSH1 0xD SWAP1 DUP3 ADD MSTORE PUSH13 0x636C65616E75705F656D707479 PUSH1 0x98 SHL PUSH1 0x60 DUP3 ADD MSTORE PUSH1 0x20 DUP2 ADD SWAP2 SWAP1 SWAP2 MSTORE PUSH1 0x80 ADD SWAP1 JUMP JUMPDEST PUSH1 0x20 DUP1 DUP3 MSTORE PUSH1 0x10 SWAP1 DUP3 ADD MSTORE PUSH16 0x4E6F7420696E20746869732067616D65 PUSH1 0x80 SHL PUSH1 0x40 DUP3 ADD MSTORE PUSH1 0x60 ADD SWAP1 JUMP JUMPDEST PUSH1 0x40 DUP1 DUP3 MSTORE PUSH1 0x3 SWAP1 DUP3 ADD MSTORE PUSH3 0x18995D PUSH1 0xEA SHL PUSH1 0x60 DUP3 ADD MSTORE PUSH1 0x20 DUP2 ADD SWAP2 SWAP1 SWAP2 MSTORE PUSH1 0x80 ADD SWAP1 JUMP JUMPDEST PUSH1 0x20 DUP1 DUP3 MSTORE PUSH1 0x9 SWAP1 DUP3 ADD MSTORE PUSH9 0x11D85B5948199D5B1B PUSH1 0xBA SHL PUSH1 0x40 DUP3 ADD MSTORE PUSH1 0x60 ADD SWAP1 JUMP JUMPDEST PUSH1 0x20 DUP1 DUP3 MSTORE PUSH1 0x16 SWAP1 DUP3 ADD MSTORE PUSH22 0x47616D65207374696C6C2068617320706C6179657273 PUSH1 0x50 SHL PUSH1 0x40 DUP3 ADD MSTORE PUSH1 0x60 ADD SWAP1 JUMP JUMPDEST PUSH1 0x40 DUP1 DUP3 MSTORE PUSH1 0x5 SWAP1 DUP3 ADD MSTORE PUSH5 0x6C65617665 PUSH1 0xD8 SHL PUSH1 0x60 DUP3 ADD MSTORE PUSH1 0x20 DUP2 ADD SWAP2 SWAP1 SWAP2 MSTORE PUSH1 0x80 ADD SWAP1 JUMP JUMPDEST PUSH1 0x20 DUP1 DUP3 MSTORE PUSH1 0x9 SWAP1 DUP3 ADD MSTORE PUSH9 0x2737BA1037BBB732B9 PUSH1 0xB9 SHL PUSH1 0x40 DUP3 ADD MSTORE PUSH1 0x60 ADD SWAP1 JUMP JUMPDEST PUSH1 0x20 DUP1 DUP3 MSTORE PUSH1 0xD SWAP1 DUP3 ADD MSTORE PUSH13 0x10995D081D1BDBC81CDB585B1B PUSH1 0x9A SHL PUSH1 0x40 DUP3 ADD MSTORE PUSH1 0x60 ADD SWAP1 JUMP JUMPDEST PUSH1 0x20 DUP1 DUP3 MSTORE PUSH1 0x1A SWAP1 DUP3 ADD MSTORE PUSH32 0x42657474696E67207068617365206E6F742066696E6973686564000000000000 PUSH1 0x40 DUP3 ADD MSTORE PUSH1 0x60 ADD SWAP1 JUMP JUMPDEST PUSH1 0x20 DUP1 DUP3 MSTORE PUSH1 0x16 SWAP1 DUP3 ADD MSTORE PUSH22 0x10D85C991CC81B9BDD081E595D081C995D99585B1959 PUSH1 0x52 SHL PUSH1 0x40 DUP3 ADD MSTORE PUSH1 0x60 ADD SWAP1 JUMP JUMPDEST PUSH1 0x20 DUP1 DUP3 MSTORE PUSH1 0x16 SWAP1 DUP3 ADD MSTORE PUSH22 0x92DCECC2D8D2C840DCCAEE40C6C2E4C840D2DCC8CAF PUSH1 0x53 SHL PUSH1 0x40 DUP3 ADD MSTORE PUSH1 0x60 ADD SWAP1 JUMP JUMPDEST PUSH1 0x40 DUP1 DUP3 MSTORE PUSH1 0x4 SWAP1 DUP3 ADD MSTORE PUSH4 0x7065656B PUSH1 0xE0 SHL PUSH1 0x60 DUP3 ADD MSTORE PUSH1 0x20 DUP2 ADD SWAP2 SWAP1 SWAP2 MSTORE PUSH1 0x80 ADD SWAP1 JUMP JUMPDEST PUSH1 0x20 DUP1 DUP3 MSTORE PUSH1 0xE SWAP1 DUP3 ADD MSTORE PUSH14 0x105B1C9958591E48199BDB191959 PUSH1 0x92 SHL PUSH1 0x40 DUP3 ADD MSTORE PUSH1 0x60 ADD SWAP1 JUMP JUMPDEST PUSH1 0x20 DUP1 DUP3 MSTORE PUSH1 0x11 SWAP1 DUP3 ADD MSTORE PUSH17 0x416C726561647920696E20612067616D65 PUSH1 0x78 SHL PUSH1 0x40 DUP3 ADD MSTORE PUSH1 0x60 ADD SWAP1 JUMP JUMPDEST PUSH1 0x20 DUP1 DUP3 MSTORE PUSH1 0x17 SWAP1 DUP3 ADD MSTORE PUSH32 0x47616D6520616C726561647920636C65616E6564207570000000000000000000 PUSH1 0x40 DUP3 ADD MSTORE PUSH1 0x60 ADD SWAP1 JUMP JUMPDEST PUSH1 0x20 DUP1 DUP3 MSTORE PUSH1 0x10 SWAP1 DUP3 ADD MSTORE PUSH16 0x2737BA1033B0B6B29031B932B0BA37B9 PUSH1 0x81 SHL PUSH1 0x40 DUP3 ADD MSTORE PUSH1 0x60 ADD SWAP1 JUMP JUMPDEST PUSH1 0x20 DUP1 DUP3 MSTORE PUSH1 0xE SWAP1 DUP3 ADD MSTORE PUSH14 0x105B1C9958591E481C19595AD959 PUSH1 0x92 SHL PUSH1 0x40 DUP3 ADD MSTORE PUSH1 0x60 ADD SWAP1 JUMP JUMPDEST PUSH1 0x20 DUP1 DUP3 MSTORE PUSH1 0x19 SWAP1 DUP3 ADD MSTORE PUSH32 0x4E6577206361726420616C72656164792061737369676E656400000000000000 PUSH1 0x40 DUP3 ADD MSTORE PUSH1 0x60 ADD SWAP1 JUMP JUMPDEST PUSH1 0x20 DUP1 DUP3 MSTORE PUSH1 0x14 SWAP1 DUP3 ADD MSTORE PUSH20 0x11D85B5948185B1C9958591E481CDD185C9D1959 PUSH1 0x62 SHL PUSH1 0x40 DUP3 ADD MSTORE PUSH1 0x60 ADD SWAP1 JUMP JUMPDEST PUSH1 0x20 DUP1 DUP3 MSTORE PUSH1 0xE SWAP1 DUP3 ADD MSTORE PUSH14 0x11D85B59481B9BDD08195B991959 PUSH1 0x92 SHL PUSH1 0x40 DUP3 ADD MSTORE PUSH1 0x60 ADD SWAP1 JUMP JUMPDEST PUSH1 0x20 DUP1 DUP3 MSTORE PUSH1 0x13 SWAP1 DUP3 ADD MSTORE PUSH19 0x10995D1D1A5B99C81C1A185CD948195B991959 PUSH1 0x6A SHL PUSH1 0x40 DUP3 ADD MSTORE PUSH1 0x60 ADD SWAP1 JUMP JUMPDEST PUSH1 0x20 DUP1 DUP3 MSTORE PUSH1 0x17 SWAP1 DUP3 ADD MSTORE PUSH32 0x5065656B207068617365206E6F742066696E6973686564000000000000000000 PUSH1 0x40 DUP3 ADD MSTORE PUSH1 0x60 ADD SWAP1 JUMP JUMPDEST SWAP1 DUP2 MSTORE PUSH1 0x20 ADD SWAP1 JUMP JUMPDEST PUSH1 0xFF SWAP2 SWAP1 SWAP2 AND DUP2 MSTORE PUSH1 0x20 ADD SWAP1 JUMP JUMPDEST PUSH1 0xFF SWAP3 DUP4 AND DUP2 MSTORE SWAP2 AND PUSH1 0x20 DUP3 ADD MSTORE PUSH1 0x40 ADD SWAP1 JUMP JUMPDEST PUSH1 0x0 DUP3 NOT DUP3 GT ISZERO PUSH2 0x3BE6 JUMPI PUSH2 0x3BE6 PUSH2 0x3CB9 JUMP JUMPDEST POP ADD SWAP1 JUMP JUMPDEST PUSH1 0x0 DUP3 DUP3 LT ISZERO PUSH2 0x3BFD JUMPI PUSH2 0x3BFD PUSH2 0x3CB9 JUMP JUMPDEST POP SUB SWAP1 JUMP JUMPDEST PUSH1 0x0 PUSH1 0xFF DUP3 AND PUSH1 0xFF DUP5 AND DUP1 DUP3 LT ISZERO PUSH2 0x3C1C JUMPI PUSH2 0x3C1C PUSH2 0x3CB9 JUMP JUMPDEST SWAP1 SUB SWAP4 SWAP3 POP POP POP JUMP JUMPDEST PUSH1 0x0 DUP2 PUSH2 0x3C34 JUMPI PUSH2 0x3C34 PUSH2 0x3CB9 JUMP JUMPDEST POP PUSH1 0x0 NOT ADD SWAP1 JUMP JUMPDEST PUSH1 0x0 PUSH2 0xFFFF DUP1 DUP4 AND DUP2 DUP2 EQ ISZERO PUSH2 0x3C54 JUMPI PUSH2 0x3C54 PUSH2 0x3CB9 JUMP JUMPDEST PUSH1 0x1 ADD SWAP4 SWAP3 POP POP POP JUMP JUMPDEST PUSH1 0x0 PUSH1 0x0 NOT DUP3 EQ ISZERO PUSH2 0x3C72 JUMPI PUSH2 0x3C72 PUSH2 0x3CB9 JUMP JUMPDEST POP PUSH1 0x1 ADD SWAP1 JUMP JUMPDEST PUSH1 0x0 PUSH1 0xFF DUP3 AND PUSH1 0xFF DUP2 EQ ISZERO PUSH2 0x3C90 JUMPI PUSH2 0x3C90 PUSH2 0x3CB9 JUMP JUMPDEST PUSH1 0x1 ADD SWAP3 SWAP2 POP POP JUMP JUMPDEST PUSH1 0x0 DUP3 PUSH2 0x3CB4 JUMPI PUSH4 0x4E487B71 PUSH1 0xE0 SHL DUP2 MSTORE PUSH1 0x12 PUSH1 0x4 MSTORE PUSH1 0x24 DUP2 REVERT JUMPDEST POP MOD SWAP1 JUMP JUMPDEST PUSH4 0x4E487B71 PUSH1 0xE0 SHL PUSH1 0x0 MSTORE PUSH1 0x11 PUSH1 0x4 MSTORE PUSH1 0x24 PUSH1 0x0 REVERT INVALID RETURN 0xD4 CREATE2 PUSH31 0x5AAE06B4017C0B2ED81F62AA6F19DEEF046D6A78AD2A4223858C4F0A26469 PUSH17 0x667358221220C7F3362E78F32F96B2C78D 0xE5 0xEA 0xF6 SSTORE ADD PUSH31 0x4E199A53EFD5B8C65CEC39CC500B5A64736F6C634300080000330000000000 "},"methodIdentifiers":{"BETTING_PHASE_DURATION()":"c493153a","INITIAL_CHIPS()":"fc2217c4","MAX_PLAYERS()":"4411b3eb","MINIMUM_BET()":"935aae40","PEEK_FEE()":"5d27e072","PEEK_PHASE_DURATION()":"00028e6e","STANDARD_DECK_SIZE()":"9c861bc5","SWAP_FEE()":"768aebde","addKeeper(address)":"4032b72b","checkAllPlayersMatched(uint256)":"ba3a9520","cleanup(uint256)":"0aa40018","createGame()":"7255d729","currentGameId()":"536a3ddc","endBettingPhase(uint256)":"30be62b2","endPeekPhase(uint256)":"09734764","fold(uint256)":"bff7a00b","getActivePlayerCount(uint256)":"a410274c","getActivePlayers(uint256)":"342ed956","getGameInfo(uint256)":"47e1d550","getPlayerInfo(uint256,address)":"3ccd10e9","getPlayers(uint256)":"460e2049","getRevealedCards(uint256)":"bfd0d6c0","isKeeper(address)":"6ba42aaa","joinGame(uint256)":"efaa55a0","leaveGame(uint256)":"3feef58a","owner()":"8da5cb5b","peekAtCard(uint256)":"318ff5d1","placeBet(uint256,uint256)":"4afe62b5","playerCurrentGame(address)":"3a5ff200","removeKeeper(address)":"14ae9f2e","startGame(uint256)":"e5ed1d59","swapCard(uint256)":"26502648"}}}}}