{"contracts/OneCard.sol":{"OneCard":{"abi":[{"inputs":[],"stateMutability":"nonpayable","type":"constructor"},{"anonymous":false,"inputs":[{"indexed":true,"internalType":"uint256","name":"gameId","type":"uint256"}],"name":"BettingPhaseStarted","type":"event"},{"anonymous":false,"inputs":[{"indexed":true,"internalType":"uint256","name":"gameId","type":"uint256"},{"indexed":false,"internalType":"enum GameLibrary.GameState","name":"currentState","type":"uint8"},{"indexed":false,"internalType":"enum GameLibrary.GameState","name":"nextState","type":"uint8"}],"name":"BufferPeriodStarted","type":"event"},{"anonymous":false,"inputs":[{"indexed":true,"internalType":"address","name":"player","type":"address"},{"indexed":false,"internalType":"uint8","name":"value","type":"uint8"},{"indexed":false,"internalType":"uint8","name":"suit","type":"uint8"}],"name":"CardRevealed","type":"event"},{"anonymous":false,"inputs":[{"indexed":true,"internalType":"uint256","name":"gameId","type":"uint256"},{"indexed":false,"internalType":"address","name":"keeper","type":"address"}],"name":"GameCreated","type":"event"},{"anonymous":false,"inputs":[{"indexed":true,"internalType":"uint256","name":"gameId","type":"uint256"},{"indexed":true,"internalType":"address","name":"winner","type":"address"},{"indexed":false,"internalType":"uint256","name":"potAmount","type":"uint256"}],"name":"GameEnded","type":"event"},{"anonymous":false,"inputs":[{"indexed":true,"internalType":"uint256","name":"gameId","type":"uint256"}],"name":"GameNoLongerSpectatable","type":"event"},{"anonymous":false,"inputs":[{"indexed":true,"internalType":"uint256","name":"gameId","type":"uint256"},{"indexed":false,"internalType":"enum GameLibrary.GameState","name":"state","type":"uint8"},{"indexed":false,"internalType":"uint256","name":"playerCount","type":"uint256"}],"name":"GameSpectatable","type":"event"},{"anonymous":false,"inputs":[{"indexed":true,"internalType":"uint256","name":"gameId","type":"uint256"},{"indexed":false,"internalType":"enum GameLibrary.GameState","name":"state","type":"uint8"},{"indexed":false,"internalType":"uint256","name":"potAmount","type":"uint256"},{"indexed":false,"internalType":"uint256","name":"currentBet","type":"uint256"},{"indexed":false,"internalType":"uint256","name":"stateVersion","type":"uint256"}],"name":"GameStateUpdated","type":"event"},{"anonymous":false,"inputs":[{"indexed":true,"internalType":"address","name":"player","type":"address"},{"indexed":false,"internalType":"uint8[]","name":"values","type":"uint8[]"},{"indexed":false,"internalType":"uint8[]","name":"suits","type":"uint8[]"}],"name":"MontyHallCardsRevealed","type":"event"},{"anonymous":false,"inputs":[{"indexed":true,"internalType":"address","name":"player","type":"address"},{"indexed":false,"internalType":"uint8","name":"oldValue","type":"uint8"},{"indexed":false,"internalType":"uint8","name":"oldSuit","type":"uint8"},{"indexed":false,"internalType":"uint8","name":"newValue","type":"uint8"},{"indexed":false,"internalType":"uint8","name":"newSuit","type":"uint8"}],"name":"MontyHallSwapResult","type":"event"},{"anonymous":false,"inputs":[{"indexed":true,"internalType":"uint256","name":"gameId","type":"uint256"}],"name":"PeekPhaseStarted","type":"event"},{"anonymous":false,"inputs":[{"indexed":true,"internalType":"uint256","name":"gameId","type":"uint256"},{"indexed":true,"internalType":"address","name":"player","type":"address"},{"indexed":false,"internalType":"string","name":"action","type":"string"},{"indexed":false,"internalType":"uint256","name":"amount","type":"uint256"},{"indexed":false,"internalType":"uint256","name":"nonce","type":"uint256"}],"name":"PlayerAction","type":"event"},{"anonymous":false,"inputs":[{"indexed":true,"internalType":"uint256","name":"gameId","type":"uint256"},{"indexed":true,"internalType":"address","name":"player","type":"address"}],"name":"PlayerJoined","type":"event"},{"anonymous":false,"inputs":[{"indexed":false,"internalType":"address[]","name":"players","type":"address[]"}],"name":"PlayersRemovedFromWhitelist","type":"event"},{"anonymous":false,"inputs":[{"indexed":false,"internalType":"address[]","name":"players","type":"address[]"}],"name":"PlayersWhitelisted","type":"event"},{"anonymous":false,"inputs":[{"indexed":true,"internalType":"uint256","name":"gameId","type":"uint256"}],"name":"ShowdownStarted","type":"event"},{"inputs":[{"internalType":"address","name":"keeper","type":"address"}],"name":"addKeeper","outputs":[],"stateMutability":"nonpayable","type":"function"},{"inputs":[{"internalType":"address[]","name":"players","type":"address[]"}],"name":"addMultipleToWhitelist","outputs":[],"stateMutability":"nonpayable","type":"function"},{"inputs":[{"internalType":"uint256","name":"gameId","type":"uint256"},{"internalType":"address","name":"player","type":"address"}],"name":"addPlayerToGame","outputs":[],"stateMutability":"nonpayable","type":"function"},{"inputs":[{"internalType":"uint256","name":"gameId","type":"uint256"}],"name":"checkAllPlayersMatched","outputs":[{"internalType":"bool","name":"","type":"bool"}],"stateMutability":"view","type":"function"},{"inputs":[{"internalType":"uint256","name":"gameId","type":"uint256"}],"name":"cleanup","outputs":[],"stateMutability":"nonpayable","type":"function"},{"inputs":[],"name":"createGame","outputs":[{"internalType":"uint256","name":"","type":"uint256"}],"stateMutability":"nonpayable","type":"function"},{"inputs":[{"internalType":"uint256","name":"gameId","type":"uint256"}],"name":"endBettingPhase","outputs":[],"stateMutability":"nonpayable","type":"function"},{"inputs":[{"internalType":"uint256","name":"gameId","type":"uint256"}],"name":"endPeekPhase","outputs":[],"stateMutability":"nonpayable","type":"function"},{"inputs":[{"internalType":"uint256","name":"gameId","type":"uint256"}],"name":"fold","outputs":[],"stateMutability":"nonpayable","type":"function"},{"inputs":[],"name":"getActiveGames","outputs":[{"internalType":"uint256[]","name":"","type":"uint256[]"}],"stateMutability":"view","type":"function"},{"inputs":[{"internalType":"uint256","name":"gameId","type":"uint256"}],"name":"getActivePlayerCount","outputs":[{"internalType":"uint256","name":"","type":"uint256"}],"stateMutability":"view","type":"function"},{"inputs":[{"internalType":"uint256","name":"gameId","type":"uint256"}],"name":"getActivePlayers","outputs":[{"internalType":"address[]","name":"activePlayers","type":"address[]"}],"stateMutability":"view","type":"function"},{"inputs":[{"internalType":"uint256","name":"gameId","type":"uint256"}],"name":"getGameBasicInfo","outputs":[{"internalType":"enum GameLibrary.GameState","name":"state","type":"uint8"},{"internalType":"uint256","name":"potAmount","type":"uint256"},{"internalType":"uint256","name":"currentBet","type":"uint256"},{"internalType":"uint256","name":"phaseEndTime","type":"uint256"},{"internalType":"uint256","name":"bufferEndTime","type":"uint256"},{"internalType":"uint256","name":"playerCount","type":"uint256"},{"internalType":"uint256","name":"activeCount","type":"uint256"},{"internalType":"uint256","name":"stateVersion","type":"uint256"},{"internalType":"bool","name":"isCleanedUp","type":"bool"}],"stateMutability":"view","type":"function"},{"inputs":[{"internalType":"uint256","name":"gameId","type":"uint256"}],"name":"getGameInfo","outputs":[{"internalType":"enum GameLibrary.GameState","name":"state","type":"uint8"},{"internalType":"uint256","name":"potAmount","type":"uint256"},{"internalType":"uint256","name":"currentBet","type":"uint256"},{"internalType":"uint256","name":"phaseEndTime","type":"uint256"},{"internalType":"uint256","name":"bufferEndTime","type":"uint256"},{"internalType":"uint256","name":"remainingTime","type":"uint256"},{"internalType":"uint256","name":"playerCount","type":"uint256"},{"internalType":"uint256","name":"activeCount","type":"uint256"},{"internalType":"address","name":"gameKeeper","type":"address"},{"internalType":"uint256","name":"stateVersion","type":"uint256"},{"internalType":"bool","name":"isCleanedUp","type":"bool"}],"stateMutability":"view","type":"function"},{"inputs":[{"internalType":"uint256","name":"gameId","type":"uint256"},{"internalType":"address","name":"player","type":"address"}],"name":"getPlayerInfo","outputs":[{"internalType":"bool","name":"isActive","type":"bool"},{"internalType":"bool","name":"hasPeeked","type":"bool"},{"internalType":"bool","name":"usedMontyHall","type":"bool"},{"internalType":"bool","name":"hasFolded","type":"bool"},{"internalType":"uint256","name":"chipBalance","type":"uint256"},{"internalType":"uint256","name":"currentBet","type":"uint256"},{"internalType":"uint256","name":"lastActionTime","type":"uint256"},{"internalType":"uint256","name":"actionNonce","type":"uint256"}],"stateMutability":"view","type":"function"},{"inputs":[{"internalType":"uint256","name":"gameId","type":"uint256"}],"name":"getPlayers","outputs":[{"internalType":"address[]","name":"players","type":"address[]"}],"stateMutability":"view","type":"function"},{"inputs":[{"internalType":"uint256","name":"gameId","type":"uint256"}],"name":"getPlayersForSpectating","outputs":[{"internalType":"address[]","name":"playerAddresses","type":"address[]"},{"internalType":"bool[]","name":"playerActiveBits","type":"bool[]"},{"internalType":"bool[]","name":"playerFoldedBits","type":"bool[]"},{"internalType":"uint256[]","name":"playerChipBalances","type":"uint256[]"},{"internalType":"uint256[]","name":"playerCurrentBets","type":"uint256[]"},{"internalType":"uint256[]","name":"playerActionNonces","type":"uint256[]"}],"stateMutability":"view","type":"function"},{"inputs":[{"internalType":"uint256","name":"gameId","type":"uint256"}],"name":"getRevealedCardsForSpectating","outputs":[{"internalType":"address[]","name":"playerAddresses","type":"address[]"},{"internalType":"uint8[]","name":"cardValues","type":"uint8[]"},{"internalType":"uint8[]","name":"cardSuits","type":"uint8[]"}],"stateMutability":"view","type":"function"},{"inputs":[{"internalType":"address","name":"keeper","type":"address"}],"name":"isKeeper","outputs":[{"internalType":"bool","name":"","type":"bool"}],"stateMutability":"view","type":"function"},{"inputs":[{"internalType":"address","name":"player","type":"address"}],"name":"isWhitelisted","outputs":[{"internalType":"bool","name":"","type":"bool"}],"stateMutability":"view","type":"function"},{"inputs":[{"internalType":"uint256","name":"gameId","type":"uint256"}],"name":"joinGame","outputs":[],"stateMutability":"nonpayable","type":"function"},{"inputs":[{"internalType":"uint256","name":"gameId","type":"uint256"}],"name":"leaveGame","outputs":[],"stateMutability":"nonpayable","type":"function"},{"inputs":[{"internalType":"uint256","name":"gameId","type":"uint256"},{"internalType":"bool","name":"swapCard","type":"bool"}],"name":"montyHallDecision","outputs":[],"stateMutability":"nonpayable","type":"function"},{"inputs":[],"name":"owner","outputs":[{"internalType":"address","name":"","type":"address"}],"stateMutability":"view","type":"function"},{"inputs":[{"internalType":"uint256","name":"gameId","type":"uint256"}],"name":"peekAtCard","outputs":[],"stateMutability":"nonpayable","type":"function"},{"inputs":[{"internalType":"uint256","name":"gameId","type":"uint256"},{"internalType":"uint256","name":"betAmount","type":"uint256"}],"name":"placeBet","outputs":[],"stateMutability":"nonpayable","type":"function"},{"inputs":[{"internalType":"address","name":"keeper","type":"address"}],"name":"removeKeeper","outputs":[],"stateMutability":"nonpayable","type":"function"},{"inputs":[{"internalType":"address[]","name":"players","type":"address[]"}],"name":"removeMultipleFromWhitelist","outputs":[],"stateMutability":"nonpayable","type":"function"},{"inputs":[{"internalType":"address","name":"_spectatorBettingContract","type":"address"}],"name":"setSpectatorBettingContract","outputs":[],"stateMutability":"nonpayable","type":"function"},{"inputs":[],"name":"spectatorBettingContract","outputs":[{"internalType":"address","name":"","type":"address"}],"stateMutability":"view","type":"function"},{"inputs":[{"internalType":"uint256","name":"gameId","type":"uint256"}],"name":"startPeekPhase","outputs":[],"stateMutability":"nonpayable","type":"function"},{"inputs":[{"internalType":"uint256","name":"gameId","type":"uint256"}],"name":"useMontyHallOption","outputs":[],"stateMutability":"nonpayable","type":"function"}],"evm":{"bytecode":{"linkReferences":{},"object":"60a060405234801561001057600080fd5b5033606081901b60805260008181526007602090815260408083208054600160ff199182168117909255928190529083208054909216811790915560028054918201815582527f405787fa12a823e0f2b7631cc41b3ba8828b3321ca811111fa75cd3aa3bb5ace0180546001600160a01b031916831790556158f890620000c4903960008181610cdd01528181611d1d01528181612483015281816126430152818161347e015261374701526158f86000f3fe608060405234801561001057600080fd5b50600436106101f05760003560e01c80634afe62b51161010f578063b419f9ab116100a2578063ef186e6911610071578063ef186e6914610480578063efaa55a014610488578063f0344e361461049b578063f62a1a98146104c3576101f0565b8063b419f9ab14610434578063ba3a952014610447578063bff7a00b1461045a578063df9b0b7f1461046d576101f0565b80638da5cb5b116100de5780638da5cb5b146103d45780639d36ac19146103e95780639db800a6146103fc578063a410274c14610421576101f0565b80634afe62b5146103865780636ba42aaa146103995780637255d729146103ac5780638401f8d1146103c1576101f0565b8063342ed956116101875780633feef58a116101565780633feef58a146103235780634032b72b14610336578063460e20491461034957806347e1d5501461035c576101f0565b8063342ed9561461029a57806335ac8a47146102ba5780633af32abf146102dc5780633ccd10e9146102fc576101f0565b80631b76929c116101c35780631b76929c146102435780631f452a081461026157806330be62b214610274578063318ff5d114610287576101f0565b806301e09cd8146101f5578063097347641461020a5780630aa400181461021d57806314ae9f2e14610230575b600080fd5b610208610203366004614ad6565b6104d6565b005b610208610218366004614a93565b610902565b61020861022b366004614a93565b610aec565b61020861023e366004614a0a565b610cd2565b61024b610d3b565b6040516102589190614d8a565b60405180910390f35b61020861026f366004614a93565b610d93565b610208610282366004614a93565b611006565b610208610295366004614a93565b61111f565b6102ad6102a8366004614a93565b6113d0565b6040516102589190614cb2565b6102cd6102c8366004614a93565b611555565b60405161025893929190614d47565b6102ef6102ea366004614a0a565b61198a565b6040516102589190614dcb565b61030f61030a366004614aab565b6119ac565b604051610258989796959493929190614dd6565b610208610331366004614a93565b611a5e565b610208610344366004614a0a565b611d12565b6102ad610357366004614a93565b611d7e565b61036f61036a366004614a93565b611e1e565b6040516102589b9a99989796959493929190614e6d565b610208610394366004614b09565b611f20565b6102ef6103a7366004614a0a565b6121f6565b6103b4612214565b60405161025891906156ec565b6102086103cf366004614a24565b612478565b6103dc612641565b6040516102589190614c52565b6102086103f7366004614aab565b612665565b61040f61040a366004614a93565b612852565b60405161025896959493929190614cc5565b6103b461042f366004614a93565b612c2b565b610208610442366004614a93565b612c71565b6102ef610455366004614a93565b6130dd565b610208610468366004614a93565b61321a565b61020861047b366004614a0a565b613473565b6103dc6134dd565b610208610496366004614a93565b6134ec565b6104ae6104a9366004614a93565b613697565b60405161025899989796959493929190614ed4565b6102086104d1366004614a24565b61373c565b6000828152600460205260409020548290811461050e5760405162461bcd60e51b8152600401610505906152b4565b60405180910390fd5b60008381526004602081815260408084203385529092019052902054839060ff1661054b5760405162461bcd60e51b81526004016105059061504f565b6000848152600460205260409020600c0154849042101561057e5760405162461bcd60e51b8152600401610505906153ae565b6000858152600460205260409020600e0154859060ff16156105b25760405162461bcd60e51b81526004016105059061559c565b600086815260046020818152604080842033855292830190915290912060018083015460ff1660048111156105f757634e487b7160e01b600052602160045260246000fd5b146106145760405162461bcd60e51b815260040161050590615255565b81600b015442106106375760405162461bcd60e51b815260040161050590614fb9565b805462010000900460ff1661065e5760405162461bcd60e51b815260040161050590614f52565b6004810180546001019055866106ac57426003820155600481015460405133918a916000805160206158a38339815191529161069d9160009190615306565b60405180910390a350506108fa565b8054600583018054600160201b90920460ff169160009190839081106106e257634e487b7160e01b600052603260045260246000fd5b60009182526020918290206040805180820190915291015460ff80821683526101009091041691810191909152905061071b8a83613892565b60006107268b6138c7565b905060008160ff1611801561073e5750603460ff8216105b61075a5760405162461bcd60e51b8152600401610505906154be565b6107648b82613a23565b156107815760405162461bcd60e51b8152600401610505906155fb565b61078b8b82613a46565b156107a85760405162461bcd60e51b8152600401610505906151f3565b6107b28b82613a62565b835464ff000000001916600160201b60ff83169081029190911785554260038601556005860180546000929081106107fa57634e487b7160e01b600052603260045260246000fd5b6000918252602091829020604080518082018252929091015460ff80821680855261010090920416838501819052875194880151925193955033947fcb7b1c01ca784066a42b03d3c78f5f655174c000da4c11e15ff44c5e56fb237494610865949193919290615720565b60405180910390a28454610100900460ff16156108bc578051602082015160405133927fe1299f54cce9bbbb7b050a7a2e071f3272e75f57d041e1cfb8cc88969634cf06926108b39261570c565b60405180910390a25b336001600160a01b03168c6000805160206158a3833981519152600088600401546040516108eb929190614f23565b60405180910390a35050505050505b505050505050565b3360009081526007602052604090205460ff166109315760405162461bcd60e51b8152600401610505906150dd565b600081815260046020526040902054819081146109605760405162461bcd60e51b8152600401610505906152b4565b6000828152600460205260409020600e0154829060ff16156109945760405162461bcd60e51b81526004016105059061559c565b600083815260046020526040902060018082015460ff1660048111156109ca57634e487b7160e01b600052602160045260246000fd5b146109e75760405162461bcd60e51b815260040161050590615255565b80600b0154421015610a0b5760405162461bcd60e51b8152600401610505906156b5565b610a16601e42615745565b600c8201819055610a2a9061012c90615745565b600b82015560018101805460ff19166002179055610a4784613a7e565b837ff732482ea8c744f957ef9b24c1e98e8add28a3e5dc3deedc3e8419f527c19b9860016002604051610a7b929190614e0e565b60405180910390a260088101546009820154600d830154604051879360008051602061588383398151915293610ab393600293614e44565b60405180910390a260405184907f359ad7e63db5f06f70341a18e68dba0ef153ef9adbff2af9293fc13daf6fc09590600090a250505050565b3360009081526007602052604090205460ff16610b1b5760405162461bcd60e51b8152600401610505906150dd565b60008181526004602052604090205481908114610b4a5760405162461bcd60e51b8152600401610505906152b4565b6000828152600460205260409020600e0154829060ff1615610b7e5760405162461bcd60e51b81526004016105059061559c565b600083815260046020819052604090912090600182015460ff166004811115610bb757634e487b7160e01b600052602160045260246000fd5b14610bd45760405162461bcd60e51b815260040161050590615660565b60005b6002820154811015610c3d576000826002018281548110610c0857634e487b7160e01b600052603260045260246000fd5b60009182526020808320909101546001600160a01b031682526005905260408120555080610c3581615811565b915050610bd7565b50600e8101805460ff19166001179055610c5684613a7e565b610c5f84613a98565b60405184907f35ea2f3c57b868de0f382fd562b24e0f9ef801f09c99190222df2cd1d4d6ddea90600090a2600181015460088201546009830154600d840154604051889460008051602061588383398151915294610cc49460ff909216939092614e44565b60405180910390a250505050565b336001600160a01b037f00000000000000000000000000000000000000000000000000000000000000001614610d1a5760405162461bcd60e51b8152600401610505906153d8565b6001600160a01b03166000908152600760205260409020805460ff19169055565b60606006805480602002602001604051908101604052809291908181526020018280548015610d8957602002820191906000526020600020905b815481526020019060010190808311610d75575b5050505050905090565b3360009081526007602052604090205460ff16610dc25760405162461bcd60e51b8152600401610505906150dd565b60008181526004602052604090205481908114610df15760405162461bcd60e51b8152600401610505906152b4565b6000828152600460205260409020600e0154829060ff1615610e255760405162461bcd60e51b81526004016105059061559c565b600083815260046020526040812090600182015460ff166004811115610e5b57634e487b7160e01b600052602160045260246000fd5b14610e785760405162461bcd60e51b815260040161050590614f89565b6002818101541015610e9c5760405162461bcd60e51b815260040161050590615168565b6000546001600160a01b031615610f0a5760005460405163b4ad06a160e01b81526001600160a01b039091169063b4ad06a190610edd9087906004016156ec565b600060405180830381600087803b158015610ef757600080fd5b505af1925050508015610f08575060015b505b610f15601e42615745565b600c8201819055610f2890607890615745565b600b8201556001808201805460ff19169091179055610f4684613b8e565b610f4f84613d16565b610f5884613dc6565b610f6184613a7e565b837ff732482ea8c744f957ef9b24c1e98e8add28a3e5dc3deedc3e8419f527c19b9860006001604051610f95929190614e0e565b60405180910390a260088101546009820154600d830154604051879360008051602061588383398151915293610fcd93600193614e44565b60405180910390a260405184907f1a2ba96bf245728c460e13d78a1591bcb45e67de1240b6654190f8c0bbdd070090600090a250505050565b3360009081526007602052604090205460ff166110355760405162461bcd60e51b8152600401610505906150dd565b600081815260046020526040902054819081146110645760405162461bcd60e51b8152600401610505906152b4565b6000828152600460205260409020600e0154829060ff16156110985760405162461bcd60e51b81526004016105059061559c565b60008381526004602052604090206002600182015460ff1660048111156110cf57634e487b7160e01b600052602160045260246000fd5b146110ec5760405162461bcd60e51b815260040161050590615191565b80600b01544210156111105760405162461bcd60e51b815260040161050590615457565b61111984613de3565b50505050565b6000818152600460205260409020548190811461114e5760405162461bcd60e51b8152600401610505906152b4565b60008281526004602081815260408084203385529092019052902054829060ff1661118b5760405162461bcd60e51b81526004016105059061504f565b6000838152600460205260409020600c015483904210156111be5760405162461bcd60e51b8152600401610505906153ae565b6000848152600460205260409020600e0154849060ff16156111f25760405162461bcd60e51b81526004016105059061559c565b600085815260046020818152604080842033855292830190915290912060018083015460ff16600481111561123757634e487b7160e01b600052602160045260246000fd5b146112545760405162461bcd60e51b815260040161050590615255565b81600b015442106112775760405162461bcd60e51b815260040161050590614fb9565b8054610100900460ff161561129e5760405162461bcd60e51b8152600401610505906155d3565b6005816001015410156112c35760405162461bcd60e51b8152600401610505906150b1565b60018082018054600419019055815461ff00191661010017808355426003840155600483018054909201909155600583018054600160201b90920460ff1691600091908390811061132457634e487b7160e01b600052603260045260246000fd5b6000918252602091829020604080518082018252929091015460ff80821680855261010090920416938301849052905191935033927fe1299f54cce9bbbb7b050a7a2e071f3272e75f57d041e1cfb8cc88969634cf069261138692919061570c565b60405180910390a2336001600160a01b0316896000805160206158a3833981519152600586600401546040516113bd9291906154ee565b60405180910390a3505050505050505050565b600081815260046020526040902054606090829081146114025760405162461bcd60e51b8152600401610505906152b4565b6000838152600460205260409020600381015467ffffffffffffffff81111561143b57634e487b7160e01b600052604160045260246000fd5b604051908082528060200260200182016040528015611464578160200160208202803683370190505b50925080600301546000141561147a575061154f565b6000805b600283015481101561154b5760008360020182815481106114af57634e487b7160e01b600052603260045260246000fd5b60009182526020808320909101546001600160a01b03168083526004870190915260409091205490915060ff630100000090910416611538578086848151811061150957634e487b7160e01b600052603260045260246000fd5b6001600160a01b039092166020928302919091019091015260038401546001909301928310611538575061154b565b508061154381615811565b91505061147e565b5050505b50919050565b600081815260046020526040902054606090819081908490811461158b5760405162461bcd60e51b8152600401610505906152b4565b60008581526004602052604090206003600182015460ff1660048111156115c257634e487b7160e01b600052602160045260246000fd5b14806115f457506004600182015460ff1660048111156115f257634e487b7160e01b600052602160045260246000fd5b145b6116105760405162461bcd60e51b81526004016105059061548e565b600281015467ffffffffffffffff81111561163b57634e487b7160e01b600052604160045260246000fd5b604051908082528060200260200182016040528015611664578160200160208202803683370190505b50600282015490955067ffffffffffffffff81111561169357634e487b7160e01b600052604160045260246000fd5b6040519080825280602002602001820160405280156116bc578160200160208202803683370190505b50600282015490945067ffffffffffffffff8111156116eb57634e487b7160e01b600052604160045260246000fd5b604051908082528060200260200182016040528015611714578160200160208202803683370190505b50925060005b600282015481101561198057600082600201828154811061174b57634e487b7160e01b600052603260045260246000fd5b60009182526020808320909101546001600160a01b03168083526004860190915260409091205490915060ff6301000000909104161561183857808783815181106117a657634e487b7160e01b600052603260045260246000fd5b60200260200101906001600160a01b031690816001600160a01b03168152505060008683815181106117e857634e487b7160e01b600052603260045260246000fd5b602002602001019060ff16908160ff1681525050600085838151811061181e57634e487b7160e01b600052603260045260246000fd5b602002602001019060ff16908160ff16815250505061196e565b6001600160a01b0381166000908152600484016020526040812054600585018054600160201b90920460ff1692918390811061188457634e487b7160e01b600052603260045260246000fd5b60009182526020918290206040805180820190915291015460ff80821683526101009091041691810191909152895190915083908a90869081106118d857634e487b7160e01b600052603260045260246000fd5b60200260200101906001600160a01b031690816001600160a01b031681525050806000015188858151811061191d57634e487b7160e01b600052603260045260246000fd5b602002602001019060ff16908160ff1681525050806020015187858151811061195657634e487b7160e01b600052603260045260246000fd5b602002602001019060ff16908160ff16815250505050505b8061197881615811565b91505061171a565b5050509193909250565b6001600160a01b03811660009081526001602052604090205460ff165b919050565b60008060008060008060008089806004600083815260200190815260200160002060000154146119ee5760405162461bcd60e51b8152600401610505906152b4565b505050600097885250506004602081815260408089206001600160a01b039890981689529682019052949095208054600182015460028301546003840154939097015460ff8084169a610100850482169a5062010000850482169963010000009095049091169750919550919350565b60008181526004602052604090205481908114611a8d5760405162461bcd60e51b8152600401610505906152b4565b6000828152600460205260409020600e0154829060ff1615611ac15760405162461bcd60e51b81526004016105059061559c565b60008381526004602081815260408084203385529283019091529091205460ff16611afe5760405162461bcd60e51b8152600401610505906152dc565b6000600182015460ff166004811115611b2757634e487b7160e01b600052602160045260246000fd5b14611b445760405162461bcd60e51b815260040161050590615632565b60005b6002820154811015611c8f57336001600160a01b0316826002018281548110611b8057634e487b7160e01b600052603260045260246000fd5b6000918252602090912001546001600160a01b03161415611c7d57600282018054611bad90600190615780565b81548110611bcb57634e487b7160e01b600052603260045260246000fd5b6000918252602090912001546002830180546001600160a01b039092169183908110611c0757634e487b7160e01b600052603260045260246000fd5b9060005260206000200160006101000a8154816001600160a01b0302191690836001600160a01b0316021790555081600201805480611c5657634e487b7160e01b600052603160045260246000fd5b600082815260209020810160001990810180546001600160a01b0319169055019055611c8f565b80611c8781615811565b915050611b47565b5060038082018054600019019055336000818152600480850160209081526040808420805464ffffffffff19168155600181018590556002810185905595860184905594909101829055600590528281208190559151909186916000805160206158a383398151915291611d04918190615382565b60405180910390a350505050565b336001600160a01b037f00000000000000000000000000000000000000000000000000000000000000001614611d5a5760405162461bcd60e51b8152600401610505906153d8565b6001600160a01b03166000908152600760205260409020805460ff19166001179055565b60008181526004602052604090205460609082908114611db05760405162461bcd60e51b8152600401610505906152b4565b60008381526004602090815260409182902060020180548351818402810184019094528084529091830182828015611e1157602002820191906000526020600020905b81546001600160a01b03168152600190910190602001808311611df3575b5050505050915050919050565b60008060008060008060008060008060008b80600460008381526020019081526020016000206000015414611e655760405162461bcd60e51b8152600401610505906152b4565b60008d8152600460205260408120600b810154909190421015611e95574282600b0154611e929190615780565b90505b8160010160009054906101000a900460ff168260080154836009015484600b015485600c0154858760020180549050886003015489600a0160009054906101000a90046001600160a01b03168a600d01548b600e0160009054906101000a900460ff169d509d509d509d509d509d509d509d509d509d509d5050505091939597999b90929496989a50565b60008281526004602052604090205482908114611f4f5760405162461bcd60e51b8152600401610505906152b4565b60008381526004602081815260408084203385529092019052902054839060ff16611f8c5760405162461bcd60e51b81526004016105059061504f565b6000848152600460205260409020600c01548490421015611fbf5760405162461bcd60e51b8152600401610505906153ae565b6000858152600460205260409020600e0154859060ff1615611ff35760405162461bcd60e51b81526004016105059061559c565b60008681526004602081815260408084203385529283019091529091206002600183015460ff16600481111561203957634e487b7160e01b600052602160045260246000fd5b146120565760405162461bcd60e51b815260040161050590615191565b81600b015442106120795760405162461bcd60e51b815260040161050590615688565b80546301000000900460ff16156120a25760405162461bcd60e51b815260040161050590615519565b60018710156120c35760405162461bcd60e51b8152600401610505906153fb565b600982015415612107576000816002015483600901546120e39190615780565b9050808810156121055760405162461bcd60e51b815260040161050590615138565b505b868160010154101561212b5760405162461bcd60e51b8152600401610505906150b1565b6004810180546001908101909155810180548890039055600281018054880181556008830180548901905542600383015560098301549054111561217457600281015460098301555b336001600160a01b0316886000805160206158a38339815191528984600401546040516121a2929190615335565b60405180910390a3600182015460088301546009840154600d8501546040518c94600080516020615883833981519152946121e49460ff909216939092614e44565b60405180910390a25050505050505050565b6001600160a01b031660009081526007602052604090205460ff1690565b3360009081526007602052604081205460ff166122435760405162461bcd60e51b8152600401610505906150dd565b600380546001908101808355600081815260046020526040808220838155808501805460ff19908116909155600a820180546001600160a01b03191633908117909155968201849055600d8201869055600e8201805490911690556006805495860181559092527ff652222313e28459528d920b65115c16c04f3efc82aaedc97be59f3f377c0d3f9093018290559151909283917fc3e0f84839dc888c892a013d10c8f9d6dc05a21a879d0ce468ca558013e9121c9161230291614c52565b60405180910390a2817ff8d27b7cf34386d5d1f7ad30b948b2c8e36bc20003707ce9463ab063cb1412fe60008060405161233d929190614e29565b60405180910390a26000546001600160a01b0316156123b35760005460405163396fc46f60e11b81526001600160a01b03909116906372df88de906123869085906004016156ec565b600060405180830381600087803b1580156123a057600080fd5b505af19250505080156123b1575060015b505b60005b600254811080156123c75750600581105b15612470576000600282815481106123ef57634e487b7160e01b600052603260045260246000fd5b60009182526020808320909101546001600160a01b0316808352600190915260409091205490915060ff16801561243c57506001600160a01b038116600090815260056020526040902054155b1561245d5761244b8482613e75565b600283015460051161245d5750612470565b508061246881615811565b9150506123b6565b509091505090565b336001600160a01b037f000000000000000000000000000000000000000000000000000000000000000016146124c05760405162461bcd60e51b8152600401610505906153d8565b60005b8181101561260357600160008484848181106124ef57634e487b7160e01b600052603260045260246000fd5b90506020020160208101906125049190614a0a565b6001600160a01b0316815260208101919091526040016000205460ff166125f157600180600085858581811061254a57634e487b7160e01b600052603260045260246000fd5b905060200201602081019061255f9190614a0a565b6001600160a01b031681526020810191909152604001600020805460ff191691151591909117905560028383838181106125a957634e487b7160e01b600052603260045260246000fd5b90506020020160208101906125be9190614a0a565b81546001810183556000928352602090922090910180546001600160a01b0319166001600160a01b039092169190911790555b806125fb81615811565b9150506124c3565b507f1e9e37439d2273fafa47a6f54f27ffac0c65726bf94fd2846710e535902062ec8282604051612635929190614c66565b60405180910390a15050565b7f000000000000000000000000000000000000000000000000000000000000000090565b3360009081526007602052604090205460ff166126945760405162461bcd60e51b8152600401610505906150dd565b600082815260046020526040902054829081146126c35760405162461bcd60e51b8152600401610505906152b4565b6000838152600460205260409020600e0154839060ff16156126f75760405162461bcd60e51b81526004016105059061559c565b600084815260046020526040812090600182015460ff16600481111561272d57634e487b7160e01b600052602160045260246000fd5b1461274a5760405162461bcd60e51b815260040161050590614f89565b600281015460051161276e5760405162461bcd60e51b81526004016105059061535f565b6001600160a01b038416600090815260056020526040902054156127a45760405162461bcd60e51b81526004016105059061527d565b600281018054600180820183556000928352602080842090920180546001600160a01b0319166001600160a01b038916908117909155808452600480860184526040808620805460ff1916851781556019818601554260038083019190915592810187905560059095528086208b9055908601805490930190925590519192909188917f87969bc7faf902221a147b95ceba76e011c5efb0339a0a8ee7a2bb82d9cfbbd691a3505050505050565b60608060608060608086806004600083815260200190815260200160002060000154146128915760405162461bcd60e51b8152600401610505906152b4565b6000888152600460209081526040918290206002810180548451818502810185019095528085529193919283908301828280156128f757602002820191906000526020600020905b81546001600160a01b031681526001909101906020018083116128d9575b505050505098508067ffffffffffffffff81111561292557634e487b7160e01b600052604160045260246000fd5b60405190808252806020026020018201604052801561294e578160200160208202803683370190505b5097508067ffffffffffffffff81111561297857634e487b7160e01b600052604160045260246000fd5b6040519080825280602002602001820160405280156129a1578160200160208202803683370190505b5096508067ffffffffffffffff8111156129cb57634e487b7160e01b600052604160045260246000fd5b6040519080825280602002602001820160405280156129f4578160200160208202803683370190505b5095508067ffffffffffffffff811115612a1e57634e487b7160e01b600052604160045260246000fd5b604051908082528060200260200182016040528015612a47578160200160208202803683370190505b5094508067ffffffffffffffff811115612a7157634e487b7160e01b600052604160045260246000fd5b604051908082528060200260200182016040528015612a9a578160200160208202803683370190505b50935060005b81811015612c1e5760008a8281518110612aca57634e487b7160e01b600052603260045260246000fd5b6020908102919091018101516001600160a01b038116600090815260048701909252604090912080548c51929350909160ff909116908c9085908110612b2057634e487b7160e01b600052603260045260246000fd5b6020026020010190151590811515815250508060000160039054906101000a900460ff168a8481518110612b6457634e487b7160e01b600052603260045260246000fd5b6020026020010190151590811515815250508060010154898481518110612b9b57634e487b7160e01b600052603260045260246000fd5b6020026020010181815250508060020154888481518110612bcc57634e487b7160e01b600052603260045260246000fd5b6020026020010181815250508060040154878481518110612bfd57634e487b7160e01b600052603260045260246000fd5b60200260200101818152505050508080612c1690615811565b915050612aa0565b5050505091939550919395565b60008181526004602052604081205482908114612c5a5760405162461bcd60e51b8152600401610505906152b4565b505060009081526004602052604090206003015490565b60008181526004602052604090205481908114612ca05760405162461bcd60e51b8152600401610505906152b4565b60008281526004602081815260408084203385529092019052902054829060ff16612cdd5760405162461bcd60e51b81526004016105059061504f565b6000838152600460205260409020600c01548390421015612d105760405162461bcd60e51b8152600401610505906153ae565b6000848152600460205260409020600e0154849060ff1615612d445760405162461bcd60e51b81526004016105059061559c565b600085815260046020818152604080842033855292830190915290912060018083015460ff166004811115612d8957634e487b7160e01b600052602160045260246000fd5b14612da65760405162461bcd60e51b815260040161050590615255565b81600b01544210612dc95760405162461bcd60e51b815260040161050590614fb9565b805462010000900460ff1615612df15760405162461bcd60e51b81526004016105059061507a565b600781600101541015612e165760405162461bcd60e51b8152600401610505906150b1565b60018181018054600619019055815462ff00001916620100001782554260038301556004820180549091019055604080516002808252606082018352600092602083019080368337505060408051600280825260608201835293945060009390925090602083019080368337505060408051600280825260608201835293945060009390925090602083019080368337019050509050612eba8a6002858585613f52565b60005b600260ff82161015612fca576000828260ff1681518110612eee57634e487b7160e01b600052603260045260246000fd5b602002602001015160ff1611612f165760405162461bcd60e51b815260040161050590615101565b612f4a8b838360ff1681518110612f3d57634e487b7160e01b600052603260045260246000fd5b6020026020010151613a23565b15612f675760405162461bcd60e51b815260040161050590614fe3565b612f9b8b838360ff1681518110612f8e57634e487b7160e01b600052603260045260246000fd5b6020026020010151613a46565b15612fb85760405162461bcd60e51b815260040161050590615422565b80612fc28161582c565b915050612ebd565b5060005b600260ff82161015613056576000828260ff1681518110612fff57634e487b7160e01b600052603260045260246000fd5b602002602001015160ff161115613044576130448b838360ff168151811061303757634e487b7160e01b600052603260045260246000fd5b602002602001015161431d565b8061304e8161582c565b915050612fce565b50336001600160a01b03167f6f8687dd1640e050bb18e188b1e58202e179c438a474793a246d4ca06aa56abd8484604051613092929190614d9d565b60405180910390a2336001600160a01b03168a6000805160206158a3833981519152600787600401546040516130c992919061556c565b60405180910390a350505050505050505050565b6000818152600460205260408120548290811461310c5760405162461bcd60e51b8152600401610505906152b4565b60008381526004602052604090206002600182015460ff16600481111561314357634e487b7160e01b600052602160045260246000fd5b1461315257600092505061154f565b60005b600282015481101561320f57600082600201828154811061318657634e487b7160e01b600052603260045260246000fd5b60009182526020808320909101546001600160a01b03168083526004860190915260409091205490915060ff630100000090910416156131c657506131fd565b60098301546001600160a01b038216600090815260048501602052604090206002015410156131fb576000945050505061154f565b505b8061320781615811565b915050613155565b506001949350505050565b600081815260046020526040902054819081146132495760405162461bcd60e51b8152600401610505906152b4565b60008281526004602081815260408084203385529092019052902054829060ff166132865760405162461bcd60e51b81526004016105059061504f565b6000838152600460205260409020600c015483904210156132b95760405162461bcd60e51b8152600401610505906153ae565b6000848152600460205260409020600e0154849060ff16156132ed5760405162461bcd60e51b81526004016105059061559c565b60008581526004602081815260408084203385529283019091529091206002600183015460ff16600481111561333357634e487b7160e01b600052602160045260246000fd5b146133505760405162461bcd60e51b815260040161050590615191565b81600b015442106133735760405162461bcd60e51b815260040161050590615688565b80546301000000900460ff161561339c5760405162461bcd60e51b815260040161050590615519565b6004810180546001018155815463ff00000019166301000000178255426003808401919091558301805460001901905554604051339189916000805160206158a3833981519152916133f1916000919061522a565b60405180910390a3600182015460088301546009840154600d8501546040518b94600080516020615883833981519152946134339460ff909216939092614e44565b60405180910390a281600301546001141561346a57600061345388614352565b905061345e88613de3565b6134688882614402565b505b50505050505050565b336001600160a01b037f000000000000000000000000000000000000000000000000000000000000000016146134bb5760405162461bcd60e51b8152600401610505906153d8565b600080546001600160a01b0319166001600160a01b0392909216919091179055565b6000546001600160a01b031681565b6000818152600460205260409020548190811461351b5760405162461bcd60e51b8152600401610505906152b4565b6000828152600460205260409020600e0154829060ff161561354f5760405162461bcd60e51b81526004016105059061559c565b600083815260046020526040812090600182015460ff16600481111561358557634e487b7160e01b600052602160045260246000fd5b146135a25760405162461bcd60e51b815260040161050590614f89565b60028101546005116135c65760405162461bcd60e51b81526004016105059061535f565b33600090815260056020526040902054156135f35760405162461bcd60e51b815260040161050590615541565b600281018054600181810183556000928352602080842090920180546001600160a01b03191633908117909155808452600480860184526040808620805460ff1916851781556019818601554260038083019190915592810187905560059095528086208a9055908601805490930190925590519192909187917f87969bc7faf902221a147b95ceba76e011c5efb0339a0a8ee7a2bb82d9cfbbd691a35050505050565b600080600080600080600080600089806004600083815260200190815260200160002060000154146136db5760405162461bcd60e51b8152600401610505906152b4565b50505060009788525050600460205250506040909320600181015460088201546009830154600b840154600c85015460028601546003870154600d880154600e9098015460ff9788169c969b50949950929750909590949193909290911690565b336001600160a01b037f000000000000000000000000000000000000000000000000000000000000000016146137845760405162461bcd60e51b8152600401610505906153d8565b60005b8181101561386057600160008484848181106137b357634e487b7160e01b600052603260045260246000fd5b90506020020160208101906137c89190614a0a565b6001600160a01b0316815260208101919091526040016000205460ff161561384e5760006001600085858581811061381057634e487b7160e01b600052603260045260246000fd5b90506020020160208101906138259190614a0a565b6001600160a01b031681526020810191909152604001600020805460ff19169115159190911790555b8061385881615811565b915050613787565b507fa907e2461cc5dad6c99bdb07ff6b11dafdf6752f8a1377e2070277d17d5e7f758282604051612635929190614c66565b6000828152600460205260409020600601546138ae9082614553565b6000928352600460205260409092206006019190915550565b6000818152600460209081526040808320815160348082526106a0820190935290928492908201610680803683370190505090506000805b600584015460ff82161015613988576139188682613a23565b15801561392c575061392a8682613a46565b155b156139765780838361ffff168151811061395657634e487b7160e01b600052603260045260246000fd5b60ff9092166020928302919091019091015281613972816157ef565b9250505b806139808161582c565b9150506138ff565b5060008161ffff16116139ad5760405162461bcd60e51b8152600401610505906151bc565b60008161ffff1644426040516020016139c7929190614c21565b6040516020818303038152906040528051906020012060001c6139ea919061584c565b9050828161ffff1681518110613a1057634e487b7160e01b600052603260045260246000fd5b6020026020010151945050505050919050565b600082815260046020526040812060060154613a3f9083614561565b9392505050565b600082815260046020526040812060070154613a3f9083614561565b6000828152600460205260409020600601546138ae9082614570565b6000908152600460205260409020600d0180546001019055565b60005b600654811015613b8a578160068281548110613ac757634e487b7160e01b600052603260045260246000fd5b90600052602060002001541415613b785760068054613ae890600190615780565b81548110613b0657634e487b7160e01b600052603260045260246000fd5b906000526020600020015460068281548110613b3257634e487b7160e01b600052603260045260246000fd5b6000918252602090912001556006805480613b5d57634e487b7160e01b600052603160045260246000fd5b60019003818190600052602060002001600090559055613b8a565b80613b8281615811565b915050613a9b565b5050565b600081815260046020526040812090613bab90600583019061499d565b6040805160348082526106a08201909252600091816020015b613bcc6149be565b815260200190600190039081613bc45790505090506000805b60048160ff161015613c7c5760025b600e8160ff1611613c695760405180604001604052808260ff1681526020018360ff16815250848460ff1681518110613c3d57634e487b7160e01b600052603260045260246000fd5b60200260200101819052508280613c539061582c565b9350508080613c619061582c565b915050613bf4565b5080613c748161582c565b915050613be5565b506000613c888361457d565b905060005b60348110156108fa5784600501828281518110613cba57634e487b7160e01b600052603260045260246000fd5b6020908102919091018101518254600181018455600093845292829020815193018054919092015160ff9081166101000261ff00199190941660ff19909216919091171691909117905580613d0e81615811565b915050613c8d565b6000818152600460205260409020613d2d826146a7565b60005b6002820154811015613dc1576000826002018281548110613d6157634e487b7160e01b600052603260045260246000fd5b6000918252602080832091909101546001600160a01b0316808352600486019091526040909120805464ff000000001916600160201b60ff861602179055905081613dac8582613a62565b50508080613db990615811565b915050613d30565b505050565b613dce6146c4565b60009182526004602052604090912060070155565b600081815260046020526040902060018101805460ff19166003179055613e0982613a7e565b60405182907fcfeaa304021cfd684ad30c51a76ffd4139eb4b36c6e97d94cce4df46b71ee97790600090a260088101546009820154600d830154604051859360008051602061588383398151915293613e6493600393614e44565b60405180910390a2613b8a826146c9565b60008281526004602090815260408083206001600160a01b038516845260059092529091205415613ea65750613b8a565b600281018054600180820183556000928352602080842090920180546001600160a01b0319166001600160a01b038716908117909155808452600480860184526040808620805460ff191685178155601981860155426003808301919091559281018790556005909552808620899055908601805490930190925590519192909186917f87969bc7faf902221a147b95ceba76e011c5efb0339a0a8ee7a2bb82d9cfbbd691a350505050565b600085815260046020526040808220815160348082526106a082019093529092918160200160208202803683370190505090506000805b600584015460ff8216101561401257613fa28982613a23565b158015613fb65750613fb48982613a46565b155b156140005780838361ffff1681518110613fe057634e487b7160e01b600052603260045260246000fd5b60ff9092166020928302919091019091015281613ffc816157ef565b9250505b8061400a8161582c565b915050613f89565b5060008760ff168261ffff1610614029578761402b565b815b90504460005b8260ff168160ff1610156142445760008461ffff1683834260405160200161405b93929190614c2f565b6040516020818303038152906040528051906020012060001c61407e919061584c565b90506000868261ffff16815181106140a657634e487b7160e01b600052603260045260246000fd5b602002602001015190506000886005018260ff16815481106140d857634e487b7160e01b600052603260045260246000fd5b60009182526020918290206040805180820190915291015460ff8082168084526101009092048116938301939093528e51919350918e9190871690811061412f57634e487b7160e01b600052603260045260246000fd5b602002602001019060ff16908160ff168152505080602001518b8560ff168151811061416b57634e487b7160e01b600052603260045260246000fd5b602002602001019060ff16908160ff1681525050818a8560ff16815181106141a357634e487b7160e01b600052603260045260246000fd5b60ff90921660209283029190910190910152876141c160018961575d565b61ffff16815181106141e357634e487b7160e01b600052603260045260246000fd5b6020026020010151888461ffff168151811061420f57634e487b7160e01b600052603260045260246000fd5b60ff909216602092830291909101909101528661422b816157ba565b975050505050808061423c9061582c565b915050614031565b50815b8960ff168160ff161015614310576000898260ff168151811061427a57634e487b7160e01b600052603260045260246000fd5b602002602001019060ff16908160ff16815250506000888260ff16815181106142b357634e487b7160e01b600052603260045260246000fd5b602002602001019060ff16908160ff16815250506000878260ff16815181106142ec57634e487b7160e01b600052603260045260246000fd5b60ff90921660209283029190910190910152806143088161582c565b915050614247565b5050505050505050505050565b6000828152600460205260409020600701546143399082614570565b6000928352600460205260409092206007019190915550565b6000818152600460205260408120815b60028201548110156143e957600082600201828154811061439357634e487b7160e01b600052603260045260246000fd5b60009182526020808320909101546001600160a01b03168083526004860190915260409091205490915060ff6301000000909104166143d65792506119a7915050565b50806143e181615811565b915050614362565b5060405162461bcd60e51b815260040161050590615018565b600082815260046020818152604080842060088101546001600160a01b03871686528185019093529320600190810180549092019091558201805460ff1916909117905561444f83613a7e565b600081600801549050826001600160a01b0316847ff1898de79c348962fab7695532341027e5bceb0ea2a8785790fa7d7efeeee1298360405161449291906156ec565b60405180910390a383600080516020615883833981519152600483856009015486600d01546040516144c79493929190614e44565b60405180910390a26000546001600160a01b03161561453f57600054604051637a0e360560e11b81526001600160a01b039091169063f41c6c0a9061451290879087906004016156f5565b600060405180830381600087803b15801561452c57600080fd5b505af192505050801561453d575060015b505b506000600882018190556009909101555050565b600160ff919091161b191690565b600160ff919091161b16151590565b600160ff919091161b1790565b606044600061458e60016034615797565b60ff1690505b801561469f5760006145a7826001615745565b83836040516020016145ba929190614c21565b6040516020818303038152906040528051906020012060001c6145dd919061584c565b9050600085838151811061460157634e487b7160e01b600052603260045260246000fd5b6020026020010151905085828151811061462b57634e487b7160e01b600052603260045260246000fd5b602002602001015186848151811061465357634e487b7160e01b600052603260045260246000fd5b60200260200101819052508086838151811061467f57634e487b7160e01b600052603260045260246000fd5b602002602001018190525050508080614697906157d8565b915050614594565b509192915050565b6146af6146c4565b60009182526004602052604090912060060155565b600090565b6000818152600460205260408120906146e183614837565b905060005b600283015481101561482c57600083600201828154811061471757634e487b7160e01b600052603260045260246000fd5b60009182526020808320909101546001600160a01b03168083526004870190915260409091205490915060ff63010000009091041615614757575061481a565b6001600160a01b0381166000908152600485016020526040812054600586018054600160201b90920460ff169291839081106147a357634e487b7160e01b600052603260045260246000fd5b6000918252602091829020604080518082018252929091015460ff8082168085526101009092041693830184905290519193506001600160a01b038616927fe1299f54cce9bbbb7b050a7a2e071f3272e75f57d041e1cfb8cc88969634cf069261480e92919061570c565b60405180910390a25050505b8061482481615811565b9150506146e6565b50613dc18382614402565b6000818152600460205260408120818080805b600285015481101561499257600085600201828154811061487b57634e487b7160e01b600052603260045260246000fd5b60009182526020808320909101546001600160a01b03168083526004890190915260409091205490915060ff630100000090910416156148bb5750614980565b6001600160a01b0381166000908152600487016020526040812054600588018054600160201b90920460ff1692918390811061490757634e487b7160e01b600052603260045260246000fd5b60009182526020918290206040805180820190915291015460ff808216808452610100909204811693830193909352909250908716108061496557508560ff16816000015160ff1614801561496557508460ff16816020015160ff16115b1561497c5780600001519550806020015194508296505b5050505b8061498a81615811565b91505061484a565b509195945050505050565b50805460008255906000526020600020908101906149bb91906149d5565b50565b604080518082019091526000808252602082015290565b5b808211156149ef57805461ffff191681556001016149d6565b5090565b80356001600160a01b03811681146119a757600080fd5b600060208284031215614a1b578081fd5b613a3f826149f3565b60008060208385031215614a36578081fd5b823567ffffffffffffffff80821115614a4d578283fd5b818501915085601f830112614a60578283fd5b813581811115614a6e578384fd5b8660208083028501011115614a81578384fd5b60209290920196919550909350505050565b600060208284031215614aa4578081fd5b5035919050565b60008060408385031215614abd578182fd5b82359150614acd602084016149f3565b90509250929050565b60008060408385031215614ae8578182fd5b8235915060208301358015158114614afe578182fd5b809150509250929050565b60008060408385031215614b1b578182fd5b50508035926020909101359150565b6000815180845260208085019450808401835b83811015614b625781516001600160a01b031687529582019590820190600101614b3d565b509495945050505050565b6000815180845260208085019450808401835b83811015614b62578151151587529582019590820190600101614b80565b6000815180845260208085019450808401835b83811015614b6257815187529582019590820190600101614bb1565b6000815180845260208085019450808401835b83811015614b6257815160ff1687529582019590820190600101614be0565b60058110614c1d57634e487b7160e01b600052602160045260246000fd5b9052565b918252602082015260400190565b92835260f89190911b6001600160f81b0319166020830152602182015260410190565b6001600160a01b0391909116815260200190565b60208082528181018390526000908460408401835b86811015614ca7576001600160a01b03614c94846149f3565b1682529183019190830190600101614c7b565b509695505050505050565b600060208252613a3f6020830184614b2a565b600060c08252614cd860c0830189614b2a565b8281036020840152614cea8189614b6d565b90508281036040840152614cfe8188614b6d565b90508281036060840152614d128187614b9e565b90508281036080840152614d268186614b9e565b905082810360a0840152614d3a8185614b9e565b9998505050505050505050565b600060608252614d5a6060830186614b2a565b8281036020840152614d6c8186614bcd565b90508281036040840152614d808185614bcd565b9695505050505050565b600060208252613a3f6020830184614b9e565b600060408252614db06040830185614bcd565b8281036020840152614dc28185614bcd565b95945050505050565b901515815260200190565b9715158852951515602088015293151560408701529115156060860152608085015260a084015260c083015260e08201526101000190565b60408101614e1c8285614bff565b613a3f6020830184614bff565b60408101614e378285614bff565b8260208301529392505050565b60808101614e528287614bff565b84602083015283604083015282606083015295945050505050565b6101608101614e7c828e614bff565b602082019b909b5260408101999099526060890197909752608088019590955260a087019390935260c086019190915260e08501526001600160a01b0316610100840152610120830152151561014090910152919050565b6101208101614ee3828c614bff565b602082019990995260408101979097526060870195909552608086019390935260a085019190915260c084015260e0830152151561010090910152919050565b6060808252600890820152671cddd85c10d85c9960c21b60808201526020810192909252604082015260a00190565b6020808252601a908201527f4d6f6e74792048616c6c206f7074696f6e206e6f742075736564000000000000604082015260600190565b6020808252601690820152754e6f7420726567697374726174696f6e20737461746560501b604082015260600190565b60208082526010908201526f1419595ac81c1a185cd948195b99195960821b604082015260600190565b6020808252818101527f4d6f6e74792048616c6c206361726420616c72656164792061737369676e6564604082015260600190565b60208082526017908201527f4e6f2061637469766520706c617965727320666f756e64000000000000000000604082015260600190565b6020808252601190820152702737ba1030b1ba34bb3290383630bcb2b960791b604082015260600190565b6020808252601e908201527f416c72656164792075736564204d6f6e74792048616c6c206f7074696f6e0000604082015260600190565b602080825260129082015271496e73756666696369656e7420636869707360701b604082015260600190565b6020808252600a90820152692737ba1035b2b2b832b960b11b604082015260600190565b6020808252601d908201527f496e76616c6964204d6f6e74792048616c6c206361726420696e646578000000604082015260600190565b602080825260169082015275135d5cdd081b585d18da0818dd5c9c995b9d0818995d60521b604082015260600190565b6020808252600f908201526e4e65656420322b20706c617965727360881b604082015260600190565b6020808252601190820152704e6f742062657474696e6720706861736560781b604082015260600190565b6020808252601b908201527f4e6f20617661696c61626c6520636172647320666f7220737761700000000000604082015260600190565b6020808252601d908201527f4e657720636172642077617320616c72656164792072657665616c6564000000604082015260600190565b606080825260049082015263199bdb1960e21b60808201526020810192909252604082015260a00190565b6020808252600e908201526d4e6f74207065656b20706861736560901b604082015260600190565b60208082526018908201527f506c6179657220616c726561647920696e20612067616d650000000000000000604082015260600190565b6020808252600e908201526d11d85b59481b9bdd08199bdd5b9960921b604082015260600190565b60208082526010908201526f4e6f7420696e20746869732067616d6560801b604082015260600190565b6060808252600890820152671ad9595c10d85c9960c21b60808201526020810192909252604082015260a00190565b60608082526003908201526218995d60ea1b60808201526020810192909252604082015260a00190565b60208082526009908201526811d85b5948199d5b1b60ba1b604082015260600190565b6060808252600590820152646c6561766560d81b60808201526020810192909252604082015260a00190565b60208082526010908201526f125b88189d5999995c881c195c9a5bd960821b604082015260600190565b6020808252600990820152682737ba1037bbb732b960b91b604082015260600190565b6020808252600d908201526c10995d081d1bdbc81cdb585b1b609a1b604082015260600190565b6020808252818101527f4d6f6e74792048616c6c206361726420616c72656164792072657665616c6564604082015260600190565b6020808252601a908201527f42657474696e67207068617365206e6f742066696e6973686564000000000000604082015260600190565b60208082526016908201527510d85c991cc81b9bdd081e595d081c995d99585b195960521b604082015260600190565b602080825260169082015275092dcecc2d8d2c840dccaee40c6c2e4c840d2dcc8caf60531b604082015260600190565b6060808252600490820152637065656b60e01b60808201526020810192909252604082015260a00190565b6020808252600e908201526d105b1c9958591e48199bdb19195960921b604082015260600190565b602080825260119082015270416c726561647920696e20612067616d6560781b604082015260600190565b6060808252600990820152681b5bdb9d1e52185b1b60ba1b60808201526020810192909252604082015260a00190565b60208082526017908201527f47616d6520616c726561647920636c65616e6564207570000000000000000000604082015260600190565b6020808252600e908201526d105b1c9958591e481c19595ad95960921b604082015260600190565b60208082526019908201527f4e6577206361726420616c72656164792061737369676e656400000000000000604082015260600190565b60208082526014908201527311d85b5948185b1c9958591e481cdd185c9d195960621b604082015260600190565b6020808252600e908201526d11d85b59481b9bdd08195b99195960921b604082015260600190565b60208082526013908201527210995d1d1a5b99c81c1a185cd948195b991959606a1b604082015260600190565b60208082526017908201527f5065656b207068617365206e6f742066696e6973686564000000000000000000604082015260600190565b90815260200190565b9182526001600160a01b0316602082015260400190565b60ff92831681529116602082015260400190565b60ff948516815292841660208401529083166040830152909116606082015260800190565b600082198211156157585761575861586c565b500190565b600061ffff838116908316818110156157785761577861586c565b039392505050565b6000828210156157925761579261586c565b500390565b600060ff821660ff8416808210156157b1576157b161586c565b90039392505050565b600061ffff8216806157ce576157ce61586c565b6000190192915050565b6000816157e7576157e761586c565b506000190190565b600061ffff808316818114156158075761580761586c565b6001019392505050565b60006000198214156158255761582561586c565b5060010190565b600060ff821660ff8114156158435761584361586c565b60010192915050565b60008261586757634e487b7160e01b81526012600452602481fd5b500690565b634e487b7160e01b600052601160045260246000fdfe0607341721701a494da2223ee353609ce7a0d98c9c7a4f0d8f7e88da11755e8c6f602f6212c12f2ee3d71aed536ee490592c8c673758d935d479b147252d0434a2646970667358221220b28fdfe358efa844c5841f1d886ba9c57a3a41ee5817e070f1858794c6cc762464736f6c63430008000033","opcodes":"PUSH1 0xA0 PUSH1 0x40 MSTORE CALLVALUE DUP1 ISZERO PUSH2 0x10 JUMPI PUSH1 0x0 DUP1 REVERT JUMPDEST POP CALLER PUSH1 0x60 DUP2 SWAP1 SHL PUSH1 0x80 MSTORE PUSH1 0x0 DUP2 DUP2 MSTORE PUSH1 0x7 PUSH1 0x20 SWAP1 DUP2 MSTORE PUSH1 0x40 DUP1 DUP4 KECCAK256 DUP1 SLOAD PUSH1 0x1 PUSH1 0xFF NOT SWAP2 DUP3 AND DUP2 OR SWAP1 SWAP3 SSTORE SWAP3 DUP2 SWAP1 MSTORE SWAP1 DUP4 KECCAK256 DUP1 SLOAD SWAP1 SWAP3 AND DUP2 OR SWAP1 SWAP2 SSTORE PUSH1 0x2 DUP1 SLOAD SWAP2 DUP3 ADD DUP2 SSTORE DUP3 MSTORE PUSH32 0x405787FA12A823E0F2B7631CC41B3BA8828B3321CA811111FA75CD3AA3BB5ACE ADD DUP1 SLOAD PUSH1 0x1 PUSH1 0x1 PUSH1 0xA0 SHL SUB NOT AND DUP4 OR SWAP1 SSTORE PUSH2 0x58F8 SWAP1 PUSH3 0xC4 SWAP1 CODECOPY PUSH1 0x0 DUP2 DUP2 PUSH2 0xCDD ADD MSTORE DUP2 DUP2 PUSH2 0x1D1D ADD MSTORE DUP2 DUP2 PUSH2 0x2483 ADD MSTORE DUP2 DUP2 PUSH2 0x2643 ADD MSTORE DUP2 DUP2 PUSH2 0x347E ADD MSTORE PUSH2 0x3747 ADD MSTORE PUSH2 0x58F8 PUSH1 0x0 RETURN INVALID PUSH1 0x80 PUSH1 0x40 MSTORE CALLVALUE DUP1 ISZERO PUSH2 0x10 JUMPI PUSH1 0x0 DUP1 REVERT JUMPDEST POP PUSH1 0x4 CALLDATASIZE LT PUSH2 0x1F0 JUMPI PUSH1 0x0 CALLDATALOAD PUSH1 0xE0 SHR DUP1 PUSH4 0x4AFE62B5 GT PUSH2 0x10F JUMPI DUP1 PUSH4 0xB419F9AB GT PUSH2 0xA2 JUMPI DUP1 PUSH4 0xEF186E69 GT PUSH2 0x71 JUMPI DUP1 PUSH4 0xEF186E69 EQ PUSH2 0x480 JUMPI DUP1 PUSH4 0xEFAA55A0 EQ PUSH2 0x488 JUMPI DUP1 PUSH4 0xF0344E36 EQ PUSH2 0x49B JUMPI DUP1 PUSH4 0xF62A1A98 EQ PUSH2 0x4C3 JUMPI PUSH2 0x1F0 JUMP JUMPDEST DUP1 PUSH4 0xB419F9AB EQ PUSH2 0x434 JUMPI DUP1 PUSH4 0xBA3A9520 EQ PUSH2 0x447 JUMPI DUP1 PUSH4 0xBFF7A00B EQ PUSH2 0x45A JUMPI DUP1 PUSH4 0xDF9B0B7F EQ PUSH2 0x46D JUMPI PUSH2 0x1F0 JUMP JUMPDEST DUP1 PUSH4 0x8DA5CB5B GT PUSH2 0xDE JUMPI DUP1 PUSH4 0x8DA5CB5B EQ PUSH2 0x3D4 JUMPI DUP1 PUSH4 0x9D36AC19 EQ PUSH2 0x3E9 JUMPI DUP1 PUSH4 0x9DB800A6 EQ PUSH2 0x3FC JUMPI DUP1 PUSH4 0xA410274C EQ PUSH2 0x421 JUMPI PUSH2 0x1F0 JUMP JUMPDEST DUP1 PUSH4 0x4AFE62B5 EQ PUSH2 0x386 JUMPI DUP1 PUSH4 0x6BA42AAA EQ PUSH2 0x399 JUMPI DUP1 PUSH4 0x7255D729 EQ PUSH2 0x3AC JUMPI DUP1 PUSH4 0x8401F8D1 EQ PUSH2 0x3C1 JUMPI PUSH2 0x1F0 JUMP JUMPDEST DUP1 PUSH4 0x342ED956 GT PUSH2 0x187 JUMPI DUP1 PUSH4 0x3FEEF58A GT PUSH2 0x156 JUMPI DUP1 PUSH4 0x3FEEF58A EQ PUSH2 0x323 JUMPI DUP1 PUSH4 0x4032B72B EQ PUSH2 0x336 JUMPI DUP1 PUSH4 0x460E2049 EQ PUSH2 0x349 JUMPI DUP1 PUSH4 0x47E1D550 EQ PUSH2 0x35C JUMPI PUSH2 0x1F0 JUMP JUMPDEST DUP1 PUSH4 0x342ED956 EQ PUSH2 0x29A JUMPI DUP1 PUSH4 0x35AC8A47 EQ PUSH2 0x2BA JUMPI DUP1 PUSH4 0x3AF32ABF EQ PUSH2 0x2DC JUMPI DUP1 PUSH4 0x3CCD10E9 EQ PUSH2 0x2FC JUMPI PUSH2 0x1F0 JUMP JUMPDEST DUP1 PUSH4 0x1B76929C GT PUSH2 0x1C3 JUMPI DUP1 PUSH4 0x1B76929C EQ PUSH2 0x243 JUMPI DUP1 PUSH4 0x1F452A08 EQ PUSH2 0x261 JUMPI DUP1 PUSH4 0x30BE62B2 EQ PUSH2 0x274 JUMPI DUP1 PUSH4 0x318FF5D1 EQ PUSH2 0x287 JUMPI PUSH2 0x1F0 JUMP JUMPDEST DUP1 PUSH4 0x1E09CD8 EQ PUSH2 0x1F5 JUMPI DUP1 PUSH4 0x9734764 EQ PUSH2 0x20A JUMPI DUP1 PUSH4 0xAA40018 EQ PUSH2 0x21D JUMPI DUP1 PUSH4 0x14AE9F2E EQ PUSH2 0x230 JUMPI JUMPDEST PUSH1 0x0 DUP1 REVERT JUMPDEST PUSH2 0x208 PUSH2 0x203 CALLDATASIZE PUSH1 0x4 PUSH2 0x4AD6 JUMP JUMPDEST PUSH2 0x4D6 JUMP JUMPDEST STOP JUMPDEST PUSH2 0x208 PUSH2 0x218 CALLDATASIZE PUSH1 0x4 PUSH2 0x4A93 JUMP JUMPDEST PUSH2 0x902 JUMP JUMPDEST PUSH2 0x208 PUSH2 0x22B CALLDATASIZE PUSH1 0x4 PUSH2 0x4A93 JUMP JUMPDEST PUSH2 0xAEC JUMP JUMPDEST PUSH2 0x208 PUSH2 0x23E CALLDATASIZE PUSH1 0x4 PUSH2 0x4A0A JUMP JUMPDEST PUSH2 0xCD2 JUMP JUMPDEST PUSH2 0x24B PUSH2 0xD3B JUMP JUMPDEST PUSH1 0x40 MLOAD PUSH2 0x258 SWAP2 SWAP1 PUSH2 0x4D8A JUMP JUMPDEST PUSH1 0x40 MLOAD DUP1 SWAP2 SUB SWAP1 RETURN JUMPDEST PUSH2 0x208 PUSH2 0x26F CALLDATASIZE PUSH1 0x4 PUSH2 0x4A93 JUMP JUMPDEST PUSH2 0xD93 JUMP JUMPDEST PUSH2 0x208 PUSH2 0x282 CALLDATASIZE PUSH1 0x4 PUSH2 0x4A93 JUMP JUMPDEST PUSH2 0x1006 JUMP JUMPDEST PUSH2 0x208 PUSH2 0x295 CALLDATASIZE PUSH1 0x4 PUSH2 0x4A93 JUMP JUMPDEST PUSH2 0x111F JUMP JUMPDEST PUSH2 0x2AD PUSH2 0x2A8 CALLDATASIZE PUSH1 0x4 PUSH2 0x4A93 JUMP JUMPDEST PUSH2 0x13D0 JUMP JUMPDEST PUSH1 0x40 MLOAD PUSH2 0x258 SWAP2 SWAP1 PUSH2 0x4CB2 JUMP JUMPDEST PUSH2 0x2CD PUSH2 0x2C8 CALLDATASIZE PUSH1 0x4 PUSH2 0x4A93 JUMP JUMPDEST PUSH2 0x1555 JUMP JUMPDEST PUSH1 0x40 MLOAD PUSH2 0x258 SWAP4 SWAP3 SWAP2 SWAP1 PUSH2 0x4D47 JUMP JUMPDEST PUSH2 0x2EF PUSH2 0x2EA CALLDATASIZE PUSH1 0x4 PUSH2 0x4A0A JUMP JUMPDEST PUSH2 0x198A JUMP JUMPDEST PUSH1 0x40 MLOAD PUSH2 0x258 SWAP2 SWAP1 PUSH2 0x4DCB JUMP JUMPDEST PUSH2 0x30F PUSH2 0x30A CALLDATASIZE PUSH1 0x4 PUSH2 0x4AAB JUMP JUMPDEST PUSH2 0x19AC JUMP JUMPDEST PUSH1 0x40 MLOAD PUSH2 0x258 SWAP9 SWAP8 SWAP7 SWAP6 SWAP5 SWAP4 SWAP3 SWAP2 SWAP1 PUSH2 0x4DD6 JUMP JUMPDEST PUSH2 0x208 PUSH2 0x331 CALLDATASIZE PUSH1 0x4 PUSH2 0x4A93 JUMP JUMPDEST PUSH2 0x1A5E JUMP JUMPDEST PUSH2 0x208 PUSH2 0x344 CALLDATASIZE PUSH1 0x4 PUSH2 0x4A0A JUMP JUMPDEST PUSH2 0x1D12 JUMP JUMPDEST PUSH2 0x2AD PUSH2 0x357 CALLDATASIZE PUSH1 0x4 PUSH2 0x4A93 JUMP JUMPDEST PUSH2 0x1D7E JUMP JUMPDEST PUSH2 0x36F PUSH2 0x36A CALLDATASIZE PUSH1 0x4 PUSH2 0x4A93 JUMP JUMPDEST PUSH2 0x1E1E JUMP JUMPDEST PUSH1 0x40 MLOAD PUSH2 0x258 SWAP12 SWAP11 SWAP10 SWAP9 SWAP8 SWAP7 SWAP6 SWAP5 SWAP4 SWAP3 SWAP2 SWAP1 PUSH2 0x4E6D JUMP JUMPDEST PUSH2 0x208 PUSH2 0x394 CALLDATASIZE PUSH1 0x4 PUSH2 0x4B09 JUMP JUMPDEST PUSH2 0x1F20 JUMP JUMPDEST PUSH2 0x2EF PUSH2 0x3A7 CALLDATASIZE PUSH1 0x4 PUSH2 0x4A0A JUMP JUMPDEST PUSH2 0x21F6 JUMP JUMPDEST PUSH2 0x3B4 PUSH2 0x2214 JUMP JUMPDEST PUSH1 0x40 MLOAD PUSH2 0x258 SWAP2 SWAP1 PUSH2 0x56EC JUMP JUMPDEST PUSH2 0x208 PUSH2 0x3CF CALLDATASIZE PUSH1 0x4 PUSH2 0x4A24 JUMP JUMPDEST PUSH2 0x2478 JUMP JUMPDEST PUSH2 0x3DC PUSH2 0x2641 JUMP JUMPDEST PUSH1 0x40 MLOAD PUSH2 0x258 SWAP2 SWAP1 PUSH2 0x4C52 JUMP JUMPDEST PUSH2 0x208 PUSH2 0x3F7 CALLDATASIZE PUSH1 0x4 PUSH2 0x4AAB JUMP JUMPDEST PUSH2 0x2665 JUMP JUMPDEST PUSH2 0x40F PUSH2 0x40A CALLDATASIZE PUSH1 0x4 PUSH2 0x4A93 JUMP JUMPDEST PUSH2 0x2852 JUMP JUMPDEST PUSH1 0x40 MLOAD PUSH2 0x258 SWAP7 SWAP6 SWAP5 SWAP4 SWAP3 SWAP2 SWAP1 PUSH2 0x4CC5 JUMP JUMPDEST PUSH2 0x3B4 PUSH2 0x42F CALLDATASIZE PUSH1 0x4 PUSH2 0x4A93 JUMP JUMPDEST PUSH2 0x2C2B JUMP JUMPDEST PUSH2 0x208 PUSH2 0x442 CALLDATASIZE PUSH1 0x4 PUSH2 0x4A93 JUMP JUMPDEST PUSH2 0x2C71 JUMP JUMPDEST PUSH2 0x2EF PUSH2 0x455 CALLDATASIZE PUSH1 0x4 PUSH2 0x4A93 JUMP JUMPDEST PUSH2 0x30DD JUMP JUMPDEST PUSH2 0x208 PUSH2 0x468 CALLDATASIZE PUSH1 0x4 PUSH2 0x4A93 JUMP JUMPDEST PUSH2 0x321A JUMP JUMPDEST PUSH2 0x208 PUSH2 0x47B CALLDATASIZE PUSH1 0x4 PUSH2 0x4A0A JUMP JUMPDEST PUSH2 0x3473 JUMP JUMPDEST PUSH2 0x3DC PUSH2 0x34DD JUMP JUMPDEST PUSH2 0x208 PUSH2 0x496 CALLDATASIZE PUSH1 0x4 PUSH2 0x4A93 JUMP JUMPDEST PUSH2 0x34EC JUMP JUMPDEST PUSH2 0x4AE PUSH2 0x4A9 CALLDATASIZE PUSH1 0x4 PUSH2 0x4A93 JUMP JUMPDEST PUSH2 0x3697 JUMP JUMPDEST PUSH1 0x40 MLOAD PUSH2 0x258 SWAP10 SWAP9 SWAP8 SWAP7 SWAP6 SWAP5 SWAP4 SWAP3 SWAP2 SWAP1 PUSH2 0x4ED4 JUMP JUMPDEST PUSH2 0x208 PUSH2 0x4D1 CALLDATASIZE PUSH1 0x4 PUSH2 0x4A24 JUMP JUMPDEST PUSH2 0x373C JUMP JUMPDEST PUSH1 0x0 DUP3 DUP2 MSTORE PUSH1 0x4 PUSH1 0x20 MSTORE PUSH1 0x40 SWAP1 KECCAK256 SLOAD DUP3 SWAP1 DUP2 EQ PUSH2 0x50E JUMPI PUSH1 0x40 MLOAD PUSH3 0x461BCD PUSH1 0xE5 SHL DUP2 MSTORE PUSH1 0x4 ADD PUSH2 0x505 SWAP1 PUSH2 0x52B4 JUMP JUMPDEST PUSH1 0x40 MLOAD DUP1 SWAP2 SUB SWAP1 REVERT JUMPDEST PUSH1 0x0 DUP4 DUP2 MSTORE PUSH1 0x4 PUSH1 0x20 DUP2 DUP2 MSTORE PUSH1 0x40 DUP1 DUP5 KECCAK256 CALLER DUP6 MSTORE SWAP1 SWAP3 ADD SWAP1 MSTORE SWAP1 KECCAK256 SLOAD DUP4 SWAP1 PUSH1 0xFF AND PUSH2 0x54B JUMPI PUSH1 0x40 MLOAD PUSH3 0x461BCD PUSH1 0xE5 SHL DUP2 MSTORE PUSH1 0x4 ADD PUSH2 0x505 SWAP1 PUSH2 0x504F JUMP JUMPDEST PUSH1 0x0 DUP5 DUP2 MSTORE PUSH1 0x4 PUSH1 0x20 MSTORE PUSH1 0x40 SWAP1 KECCAK256 PUSH1 0xC ADD SLOAD DUP5 SWAP1 TIMESTAMP LT ISZERO PUSH2 0x57E JUMPI PUSH1 0x40 MLOAD PUSH3 0x461BCD PUSH1 0xE5 SHL DUP2 MSTORE PUSH1 0x4 ADD PUSH2 0x505 SWAP1 PUSH2 0x53AE JUMP JUMPDEST PUSH1 0x0 DUP6 DUP2 MSTORE PUSH1 0x4 PUSH1 0x20 MSTORE PUSH1 0x40 SWAP1 KECCAK256 PUSH1 0xE ADD SLOAD DUP6 SWAP1 PUSH1 0xFF AND ISZERO PUSH2 0x5B2 JUMPI PUSH1 0x40 MLOAD PUSH3 0x461BCD PUSH1 0xE5 SHL DUP2 MSTORE PUSH1 0x4 ADD PUSH2 0x505 SWAP1 PUSH2 0x559C JUMP JUMPDEST PUSH1 0x0 DUP7 DUP2 MSTORE PUSH1 0x4 PUSH1 0x20 DUP2 DUP2 MSTORE PUSH1 0x40 DUP1 DUP5 KECCAK256 CALLER DUP6 MSTORE SWAP3 DUP4 ADD SWAP1 SWAP2 MSTORE SWAP1 SWAP2 KECCAK256 PUSH1 0x1 DUP1 DUP4 ADD SLOAD PUSH1 0xFF AND PUSH1 0x4 DUP2 GT ISZERO PUSH2 0x5F7 JUMPI PUSH4 0x4E487B71 PUSH1 0xE0 SHL PUSH1 0x0 MSTORE PUSH1 0x21 PUSH1 0x4 MSTORE PUSH1 0x24 PUSH1 0x0 REVERT JUMPDEST EQ PUSH2 0x614 JUMPI PUSH1 0x40 MLOAD PUSH3 0x461BCD PUSH1 0xE5 SHL DUP2 MSTORE PUSH1 0x4 ADD PUSH2 0x505 SWAP1 PUSH2 0x5255 JUMP JUMPDEST DUP2 PUSH1 0xB ADD SLOAD TIMESTAMP LT PUSH2 0x637 JUMPI PUSH1 0x40 MLOAD PUSH3 0x461BCD PUSH1 0xE5 SHL DUP2 MSTORE PUSH1 0x4 ADD PUSH2 0x505 SWAP1 PUSH2 0x4FB9 JUMP JUMPDEST DUP1 SLOAD PUSH3 0x10000 SWAP1 DIV PUSH1 0xFF AND PUSH2 0x65E JUMPI PUSH1 0x40 MLOAD PUSH3 0x461BCD PUSH1 0xE5 SHL DUP2 MSTORE PUSH1 0x4 ADD PUSH2 0x505 SWAP1 PUSH2 0x4F52 JUMP JUMPDEST PUSH1 0x4 DUP2 ADD DUP1 SLOAD PUSH1 0x1 ADD SWAP1 SSTORE DUP7 PUSH2 0x6AC JUMPI TIMESTAMP PUSH1 0x3 DUP3 ADD SSTORE PUSH1 0x4 DUP2 ADD SLOAD PUSH1 0x40 MLOAD CALLER SWAP2 DUP11 SWAP2 PUSH1 0x0 DUP1 MLOAD PUSH1 0x20 PUSH2 0x58A3 DUP4 CODECOPY DUP2 MLOAD SWAP2 MSTORE SWAP2 PUSH2 0x69D SWAP2 PUSH1 0x0 SWAP2 SWAP1 PUSH2 0x5306 JUMP JUMPDEST PUSH1 0x40 MLOAD DUP1 SWAP2 SUB SWAP1 LOG3 POP POP PUSH2 0x8FA JUMP JUMPDEST DUP1 SLOAD PUSH1 0x5 DUP4 ADD DUP1 SLOAD PUSH1 0x1 PUSH1 0x20 SHL SWAP1 SWAP3 DIV PUSH1 0xFF AND SWAP2 PUSH1 0x0 SWAP2 SWAP1 DUP4 SWAP1 DUP2 LT PUSH2 0x6E2 JUMPI PUSH4 0x4E487B71 PUSH1 0xE0 SHL PUSH1 0x0 MSTORE PUSH1 0x32 PUSH1 0x4 MSTORE PUSH1 0x24 PUSH1 0x0 REVERT JUMPDEST PUSH1 0x0 SWAP2 DUP3 MSTORE PUSH1 0x20 SWAP2 DUP3 SWAP1 KECCAK256 PUSH1 0x40 DUP1 MLOAD DUP1 DUP3 ADD SWAP1 SWAP2 MSTORE SWAP2 ADD SLOAD PUSH1 0xFF DUP1 DUP3 AND DUP4 MSTORE PUSH2 0x100 SWAP1 SWAP2 DIV AND SWAP2 DUP2 ADD SWAP2 SWAP1 SWAP2 MSTORE SWAP1 POP PUSH2 0x71B DUP11 DUP4 PUSH2 0x3892 JUMP JUMPDEST PUSH1 0x0 PUSH2 0x726 DUP12 PUSH2 0x38C7 JUMP JUMPDEST SWAP1 POP PUSH1 0x0 DUP2 PUSH1 0xFF AND GT DUP1 ISZERO PUSH2 0x73E JUMPI POP PUSH1 0x34 PUSH1 0xFF DUP3 AND LT JUMPDEST PUSH2 0x75A JUMPI PUSH1 0x40 MLOAD PUSH3 0x461BCD PUSH1 0xE5 SHL DUP2 MSTORE PUSH1 0x4 ADD PUSH2 0x505 SWAP1 PUSH2 0x54BE JUMP JUMPDEST PUSH2 0x764 DUP12 DUP3 PUSH2 0x3A23 JUMP JUMPDEST ISZERO PUSH2 0x781 JUMPI PUSH1 0x40 MLOAD PUSH3 0x461BCD PUSH1 0xE5 SHL DUP2 MSTORE PUSH1 0x4 ADD PUSH2 0x505 SWAP1 PUSH2 0x55FB JUMP JUMPDEST PUSH2 0x78B DUP12 DUP3 PUSH2 0x3A46 JUMP JUMPDEST ISZERO PUSH2 0x7A8 JUMPI PUSH1 0x40 MLOAD PUSH3 0x461BCD PUSH1 0xE5 SHL DUP2 MSTORE PUSH1 0x4 ADD PUSH2 0x505 SWAP1 PUSH2 0x51F3 JUMP JUMPDEST PUSH2 0x7B2 DUP12 DUP3 PUSH2 0x3A62 JUMP JUMPDEST DUP4 SLOAD PUSH5 0xFF00000000 NOT AND PUSH1 0x1 PUSH1 0x20 SHL PUSH1 0xFF DUP4 AND SWAP1 DUP2 MUL SWAP2 SWAP1 SWAP2 OR DUP6 SSTORE TIMESTAMP PUSH1 0x3 DUP7 ADD SSTORE PUSH1 0x5 DUP7 ADD DUP1 SLOAD PUSH1 0x0 SWAP3 SWAP1 DUP2 LT PUSH2 0x7FA JUMPI PUSH4 0x4E487B71 PUSH1 0xE0 SHL PUSH1 0x0 MSTORE PUSH1 0x32 PUSH1 0x4 MSTORE PUSH1 0x24 PUSH1 0x0 REVERT JUMPDEST PUSH1 0x0 SWAP2 DUP3 MSTORE PUSH1 0x20 SWAP2 DUP3 SWAP1 KECCAK256 PUSH1 0x40 DUP1 MLOAD DUP1 DUP3 ADD DUP3 MSTORE SWAP3 SWAP1 SWAP2 ADD SLOAD PUSH1 0xFF DUP1 DUP3 AND DUP1 DUP6 MSTORE PUSH2 0x100 SWAP1 SWAP3 DIV AND DUP4 DUP6 ADD DUP2 SWAP1 MSTORE DUP8 MLOAD SWAP5 DUP9 ADD MLOAD SWAP3 MLOAD SWAP4 SWAP6 POP CALLER SWAP5 PUSH32 0xCB7B1C01CA784066A42B03D3C78F5F655174C000DA4C11E15FF44C5E56FB2374 SWAP5 PUSH2 0x865 SWAP5 SWAP2 SWAP4 SWAP2 SWAP3 SWAP1 PUSH2 0x5720 JUMP JUMPDEST PUSH1 0x40 MLOAD DUP1 SWAP2 SUB SWAP1 LOG2 DUP5 SLOAD PUSH2 0x100 SWAP1 DIV PUSH1 0xFF AND ISZERO PUSH2 0x8BC JUMPI DUP1 MLOAD PUSH1 0x20 DUP3 ADD MLOAD PUSH1 0x40 MLOAD CALLER SWAP3 PUSH32 0xE1299F54CCE9BBBB7B050A7A2E071F3272E75F57D041E1CFB8CC88969634CF06 SWAP3 PUSH2 0x8B3 SWAP3 PUSH2 0x570C JUMP JUMPDEST PUSH1 0x40 MLOAD DUP1 SWAP2 SUB SWAP1 LOG2 JUMPDEST CALLER PUSH1 0x1 PUSH1 0x1 PUSH1 0xA0 SHL SUB AND DUP13 PUSH1 0x0 DUP1 MLOAD PUSH1 0x20 PUSH2 0x58A3 DUP4 CODECOPY DUP2 MLOAD SWAP2 MSTORE PUSH1 0x0 DUP9 PUSH1 0x4 ADD SLOAD PUSH1 0x40 MLOAD PUSH2 0x8EB SWAP3 SWAP2 SWAP1 PUSH2 0x4F23 JUMP JUMPDEST PUSH1 0x40 MLOAD DUP1 SWAP2 SUB SWAP1 LOG3 POP POP POP POP POP POP JUMPDEST POP POP POP POP POP POP JUMP JUMPDEST CALLER PUSH1 0x0 SWAP1 DUP2 MSTORE PUSH1 0x7 PUSH1 0x20 MSTORE PUSH1 0x40 SWAP1 KECCAK256 SLOAD PUSH1 0xFF AND PUSH2 0x931 JUMPI PUSH1 0x40 MLOAD PUSH3 0x461BCD PUSH1 0xE5 SHL DUP2 MSTORE PUSH1 0x4 ADD PUSH2 0x505 SWAP1 PUSH2 0x50DD JUMP JUMPDEST PUSH1 0x0 DUP2 DUP2 MSTORE PUSH1 0x4 PUSH1 0x20 MSTORE PUSH1 0x40 SWAP1 KECCAK256 SLOAD DUP2 SWAP1 DUP2 EQ PUSH2 0x960 JUMPI PUSH1 0x40 MLOAD PUSH3 0x461BCD PUSH1 0xE5 SHL DUP2 MSTORE PUSH1 0x4 ADD PUSH2 0x505 SWAP1 PUSH2 0x52B4 JUMP JUMPDEST PUSH1 0x0 DUP3 DUP2 MSTORE PUSH1 0x4 PUSH1 0x20 MSTORE PUSH1 0x40 SWAP1 KECCAK256 PUSH1 0xE ADD SLOAD DUP3 SWAP1 PUSH1 0xFF AND ISZERO PUSH2 0x994 JUMPI PUSH1 0x40 MLOAD PUSH3 0x461BCD PUSH1 0xE5 SHL DUP2 MSTORE PUSH1 0x4 ADD PUSH2 0x505 SWAP1 PUSH2 0x559C JUMP JUMPDEST PUSH1 0x0 DUP4 DUP2 MSTORE PUSH1 0x4 PUSH1 0x20 MSTORE PUSH1 0x40 SWAP1 KECCAK256 PUSH1 0x1 DUP1 DUP3 ADD SLOAD PUSH1 0xFF AND PUSH1 0x4 DUP2 GT ISZERO PUSH2 0x9CA JUMPI PUSH4 0x4E487B71 PUSH1 0xE0 SHL PUSH1 0x0 MSTORE PUSH1 0x21 PUSH1 0x4 MSTORE PUSH1 0x24 PUSH1 0x0 REVERT JUMPDEST EQ PUSH2 0x9E7 JUMPI PUSH1 0x40 MLOAD PUSH3 0x461BCD PUSH1 0xE5 SHL DUP2 MSTORE PUSH1 0x4 ADD PUSH2 0x505 SWAP1 PUSH2 0x5255 JUMP JUMPDEST DUP1 PUSH1 0xB ADD SLOAD TIMESTAMP LT ISZERO PUSH2 0xA0B JUMPI PUSH1 0x40 MLOAD PUSH3 0x461BCD PUSH1 0xE5 SHL DUP2 MSTORE PUSH1 0x4 ADD PUSH2 0x505 SWAP1 PUSH2 0x56B5 JUMP JUMPDEST PUSH2 0xA16 PUSH1 0x1E TIMESTAMP PUSH2 0x5745 JUMP JUMPDEST PUSH1 0xC DUP3 ADD DUP2 SWAP1 SSTORE PUSH2 0xA2A SWAP1 PUSH2 0x12C SWAP1 PUSH2 0x5745 JUMP JUMPDEST PUSH1 0xB DUP3 ADD SSTORE PUSH1 0x1 DUP2 ADD DUP1 SLOAD PUSH1 0xFF NOT AND PUSH1 0x2 OR SWAP1 SSTORE PUSH2 0xA47 DUP5 PUSH2 0x3A7E JUMP JUMPDEST DUP4 PUSH32 0xF732482EA8C744F957EF9B24C1E98E8ADD28A3E5DC3DEEDC3E8419F527C19B98 PUSH1 0x1 PUSH1 0x2 PUSH1 0x40 MLOAD PUSH2 0xA7B SWAP3 SWAP2 SWAP1 PUSH2 0x4E0E JUMP JUMPDEST PUSH1 0x40 MLOAD DUP1 SWAP2 SUB SWAP1 LOG2 PUSH1 0x8 DUP2 ADD SLOAD PUSH1 0x9 DUP3 ADD SLOAD PUSH1 0xD DUP4 ADD SLOAD PUSH1 0x40 MLOAD DUP8 SWAP4 PUSH1 0x0 DUP1 MLOAD PUSH1 0x20 PUSH2 0x5883 DUP4 CODECOPY DUP2 MLOAD SWAP2 MSTORE SWAP4 PUSH2 0xAB3 SWAP4 PUSH1 0x2 SWAP4 PUSH2 0x4E44 JUMP JUMPDEST PUSH1 0x40 MLOAD DUP1 SWAP2 SUB SWAP1 LOG2 PUSH1 0x40 MLOAD DUP5 SWAP1 PUSH32 0x359AD7E63DB5F06F70341A18E68DBA0EF153EF9ADBFF2AF9293FC13DAF6FC095 SWAP1 PUSH1 0x0 SWAP1 LOG2 POP POP POP POP JUMP JUMPDEST CALLER PUSH1 0x0 SWAP1 DUP2 MSTORE PUSH1 0x7 PUSH1 0x20 MSTORE PUSH1 0x40 SWAP1 KECCAK256 SLOAD PUSH1 0xFF AND PUSH2 0xB1B JUMPI PUSH1 0x40 MLOAD PUSH3 0x461BCD PUSH1 0xE5 SHL DUP2 MSTORE PUSH1 0x4 ADD PUSH2 0x505 SWAP1 PUSH2 0x50DD JUMP JUMPDEST PUSH1 0x0 DUP2 DUP2 MSTORE PUSH1 0x4 PUSH1 0x20 MSTORE PUSH1 0x40 SWAP1 KECCAK256 SLOAD DUP2 SWAP1 DUP2 EQ PUSH2 0xB4A JUMPI PUSH1 0x40 MLOAD PUSH3 0x461BCD PUSH1 0xE5 SHL DUP2 MSTORE PUSH1 0x4 ADD PUSH2 0x505 SWAP1 PUSH2 0x52B4 JUMP JUMPDEST PUSH1 0x0 DUP3 DUP2 MSTORE PUSH1 0x4 PUSH1 0x20 MSTORE PUSH1 0x40 SWAP1 KECCAK256 PUSH1 0xE ADD SLOAD DUP3 SWAP1 PUSH1 0xFF AND ISZERO PUSH2 0xB7E JUMPI PUSH1 0x40 MLOAD PUSH3 0x461BCD PUSH1 0xE5 SHL DUP2 MSTORE PUSH1 0x4 ADD PUSH2 0x505 SWAP1 PUSH2 0x559C JUMP JUMPDEST PUSH1 0x0 DUP4 DUP2 MSTORE PUSH1 0x4 PUSH1 0x20 DUP2 SWAP1 MSTORE PUSH1 0x40 SWAP1 SWAP2 KECCAK256 SWAP1 PUSH1 0x1 DUP3 ADD SLOAD PUSH1 0xFF AND PUSH1 0x4 DUP2 GT ISZERO PUSH2 0xBB7 JUMPI PUSH4 0x4E487B71 PUSH1 0xE0 SHL PUSH1 0x0 MSTORE PUSH1 0x21 PUSH1 0x4 MSTORE PUSH1 0x24 PUSH1 0x0 REVERT JUMPDEST EQ PUSH2 0xBD4 JUMPI PUSH1 0x40 MLOAD PUSH3 0x461BCD PUSH1 0xE5 SHL DUP2 MSTORE PUSH1 0x4 ADD PUSH2 0x505 SWAP1 PUSH2 0x5660 JUMP JUMPDEST PUSH1 0x0 JUMPDEST PUSH1 0x2 DUP3 ADD SLOAD DUP2 LT ISZERO PUSH2 0xC3D JUMPI PUSH1 0x0 DUP3 PUSH1 0x2 ADD DUP3 DUP2 SLOAD DUP2 LT PUSH2 0xC08 JUMPI PUSH4 0x4E487B71 PUSH1 0xE0 SHL PUSH1 0x0 MSTORE PUSH1 0x32 PUSH1 0x4 MSTORE PUSH1 0x24 PUSH1 0x0 REVERT JUMPDEST PUSH1 0x0 SWAP2 DUP3 MSTORE PUSH1 0x20 DUP1 DUP4 KECCAK256 SWAP1 SWAP2 ADD SLOAD PUSH1 0x1 PUSH1 0x1 PUSH1 0xA0 SHL SUB AND DUP3 MSTORE PUSH1 0x5 SWAP1 MSTORE PUSH1 0x40 DUP2 KECCAK256 SSTORE POP DUP1 PUSH2 0xC35 DUP2 PUSH2 0x5811 JUMP JUMPDEST SWAP2 POP POP PUSH2 0xBD7 JUMP JUMPDEST POP PUSH1 0xE DUP2 ADD DUP1 SLOAD PUSH1 0xFF NOT AND PUSH1 0x1 OR SWAP1 SSTORE PUSH2 0xC56 DUP5 PUSH2 0x3A7E JUMP JUMPDEST PUSH2 0xC5F DUP5 PUSH2 0x3A98 JUMP JUMPDEST PUSH1 0x40 MLOAD DUP5 SWAP1 PUSH32 0x35EA2F3C57B868DE0F382FD562B24E0F9EF801F09C99190222DF2CD1D4D6DDEA SWAP1 PUSH1 0x0 SWAP1 LOG2 PUSH1 0x1 DUP2 ADD SLOAD PUSH1 0x8 DUP3 ADD SLOAD PUSH1 0x9 DUP4 ADD SLOAD PUSH1 0xD DUP5 ADD SLOAD PUSH1 0x40 MLOAD DUP9 SWAP5 PUSH1 0x0 DUP1 MLOAD PUSH1 0x20 PUSH2 0x5883 DUP4 CODECOPY DUP2 MLOAD SWAP2 MSTORE SWAP5 PUSH2 0xCC4 SWAP5 PUSH1 0xFF SWAP1 SWAP3 AND SWAP4 SWAP1 SWAP3 PUSH2 0x4E44 JUMP JUMPDEST PUSH1 0x40 MLOAD DUP1 SWAP2 SUB SWAP1 LOG2 POP POP POP POP JUMP JUMPDEST CALLER PUSH1 0x1 PUSH1 0x1 PUSH1 0xA0 SHL SUB PUSH32 0x0 AND EQ PUSH2 0xD1A JUMPI PUSH1 0x40 MLOAD PUSH3 0x461BCD PUSH1 0xE5 SHL DUP2 MSTORE PUSH1 0x4 ADD PUSH2 0x505 SWAP1 PUSH2 0x53D8 JUMP JUMPDEST PUSH1 0x1 PUSH1 0x1 PUSH1 0xA0 SHL SUB AND PUSH1 0x0 SWAP1 DUP2 MSTORE PUSH1 0x7 PUSH1 0x20 MSTORE PUSH1 0x40 SWAP1 KECCAK256 DUP1 SLOAD PUSH1 0xFF NOT AND SWAP1 SSTORE JUMP JUMPDEST PUSH1 0x60 PUSH1 0x6 DUP1 SLOAD DUP1 PUSH1 0x20 MUL PUSH1 0x20 ADD PUSH1 0x40 MLOAD SWAP1 DUP2 ADD PUSH1 0x40 MSTORE DUP1 SWAP3 SWAP2 SWAP1 DUP2 DUP2 MSTORE PUSH1 0x20 ADD DUP3 DUP1 SLOAD DUP1 ISZERO PUSH2 0xD89 JUMPI PUSH1 0x20 MUL DUP3 ADD SWAP2 SWAP1 PUSH1 0x0 MSTORE PUSH1 0x20 PUSH1 0x0 KECCAK256 SWAP1 JUMPDEST DUP2 SLOAD DUP2 MSTORE PUSH1 0x20 ADD SWAP1 PUSH1 0x1 ADD SWAP1 DUP1 DUP4 GT PUSH2 0xD75 JUMPI JUMPDEST POP POP POP POP POP SWAP1 POP SWAP1 JUMP JUMPDEST CALLER PUSH1 0x0 SWAP1 DUP2 MSTORE PUSH1 0x7 PUSH1 0x20 MSTORE PUSH1 0x40 SWAP1 KECCAK256 SLOAD PUSH1 0xFF AND PUSH2 0xDC2 JUMPI PUSH1 0x40 MLOAD PUSH3 0x461BCD PUSH1 0xE5 SHL DUP2 MSTORE PUSH1 0x4 ADD PUSH2 0x505 SWAP1 PUSH2 0x50DD JUMP JUMPDEST PUSH1 0x0 DUP2 DUP2 MSTORE PUSH1 0x4 PUSH1 0x20 MSTORE PUSH1 0x40 SWAP1 KECCAK256 SLOAD DUP2 SWAP1 DUP2 EQ PUSH2 0xDF1 JUMPI PUSH1 0x40 MLOAD PUSH3 0x461BCD PUSH1 0xE5 SHL DUP2 MSTORE PUSH1 0x4 ADD PUSH2 0x505 SWAP1 PUSH2 0x52B4 JUMP JUMPDEST PUSH1 0x0 DUP3 DUP2 MSTORE PUSH1 0x4 PUSH1 0x20 MSTORE PUSH1 0x40 SWAP1 KECCAK256 PUSH1 0xE ADD SLOAD DUP3 SWAP1 PUSH1 0xFF AND ISZERO PUSH2 0xE25 JUMPI PUSH1 0x40 MLOAD PUSH3 0x461BCD PUSH1 0xE5 SHL DUP2 MSTORE PUSH1 0x4 ADD PUSH2 0x505 SWAP1 PUSH2 0x559C JUMP JUMPDEST PUSH1 0x0 DUP4 DUP2 MSTORE PUSH1 0x4 PUSH1 0x20 MSTORE PUSH1 0x40 DUP2 KECCAK256 SWAP1 PUSH1 0x1 DUP3 ADD SLOAD PUSH1 0xFF AND PUSH1 0x4 DUP2 GT ISZERO PUSH2 0xE5B JUMPI PUSH4 0x4E487B71 PUSH1 0xE0 SHL PUSH1 0x0 MSTORE PUSH1 0x21 PUSH1 0x4 MSTORE PUSH1 0x24 PUSH1 0x0 REVERT JUMPDEST EQ PUSH2 0xE78 JUMPI PUSH1 0x40 MLOAD PUSH3 0x461BCD PUSH1 0xE5 SHL DUP2 MSTORE PUSH1 0x4 ADD PUSH2 0x505 SWAP1 PUSH2 0x4F89 JUMP JUMPDEST PUSH1 0x2 DUP2 DUP2 ADD SLOAD LT ISZERO PUSH2 0xE9C JUMPI PUSH1 0x40 MLOAD PUSH3 0x461BCD PUSH1 0xE5 SHL DUP2 MSTORE PUSH1 0x4 ADD PUSH2 0x505 SWAP1 PUSH2 0x5168 JUMP JUMPDEST PUSH1 0x0 SLOAD PUSH1 0x1 PUSH1 0x1 PUSH1 0xA0 SHL SUB AND ISZERO PUSH2 0xF0A JUMPI PUSH1 0x0 SLOAD PUSH1 0x40 MLOAD PUSH4 0xB4AD06A1 PUSH1 0xE0 SHL DUP2 MSTORE PUSH1 0x1 PUSH1 0x1 PUSH1 0xA0 SHL SUB SWAP1 SWAP2 AND SWAP1 PUSH4 0xB4AD06A1 SWAP1 PUSH2 0xEDD SWAP1 DUP8 SWAP1 PUSH1 0x4 ADD PUSH2 0x56EC JUMP JUMPDEST PUSH1 0x0 PUSH1 0x40 MLOAD DUP1 DUP4 SUB DUP2 PUSH1 0x0 DUP8 DUP1 EXTCODESIZE ISZERO DUP1 ISZERO PUSH2 0xEF7 JUMPI PUSH1 0x0 DUP1 REVERT JUMPDEST POP GAS CALL SWAP3 POP POP POP DUP1 ISZERO PUSH2 0xF08 JUMPI POP PUSH1 0x1 JUMPDEST POP JUMPDEST PUSH2 0xF15 PUSH1 0x1E TIMESTAMP PUSH2 0x5745 JUMP JUMPDEST PUSH1 0xC DUP3 ADD DUP2 SWAP1 SSTORE PUSH2 0xF28 SWAP1 PUSH1 0x78 SWAP1 PUSH2 0x5745 JUMP JUMPDEST PUSH1 0xB DUP3 ADD SSTORE PUSH1 0x1 DUP1 DUP3 ADD DUP1 SLOAD PUSH1 0xFF NOT AND SWAP1 SWAP2 OR SWAP1 SSTORE PUSH2 0xF46 DUP5 PUSH2 0x3B8E JUMP JUMPDEST PUSH2 0xF4F DUP5 PUSH2 0x3D16 JUMP JUMPDEST PUSH2 0xF58 DUP5 PUSH2 0x3DC6 JUMP JUMPDEST PUSH2 0xF61 DUP5 PUSH2 0x3A7E JUMP JUMPDEST DUP4 PUSH32 0xF732482EA8C744F957EF9B24C1E98E8ADD28A3E5DC3DEEDC3E8419F527C19B98 PUSH1 0x0 PUSH1 0x1 PUSH1 0x40 MLOAD PUSH2 0xF95 SWAP3 SWAP2 SWAP1 PUSH2 0x4E0E JUMP JUMPDEST PUSH1 0x40 MLOAD DUP1 SWAP2 SUB SWAP1 LOG2 PUSH1 0x8 DUP2 ADD SLOAD PUSH1 0x9 DUP3 ADD SLOAD PUSH1 0xD DUP4 ADD SLOAD PUSH1 0x40 MLOAD DUP8 SWAP4 PUSH1 0x0 DUP1 MLOAD PUSH1 0x20 PUSH2 0x5883 DUP4 CODECOPY DUP2 MLOAD SWAP2 MSTORE SWAP4 PUSH2 0xFCD SWAP4 PUSH1 0x1 SWAP4 PUSH2 0x4E44 JUMP JUMPDEST PUSH1 0x40 MLOAD DUP1 SWAP2 SUB SWAP1 LOG2 PUSH1 0x40 MLOAD DUP5 SWAP1 PUSH32 0x1A2BA96BF245728C460E13D78A1591BCB45E67DE1240B6654190F8C0BBDD0700 SWAP1 PUSH1 0x0 SWAP1 LOG2 POP POP POP POP JUMP JUMPDEST CALLER PUSH1 0x0 SWAP1 DUP2 MSTORE PUSH1 0x7 PUSH1 0x20 MSTORE PUSH1 0x40 SWAP1 KECCAK256 SLOAD PUSH1 0xFF AND PUSH2 0x1035 JUMPI PUSH1 0x40 MLOAD PUSH3 0x461BCD PUSH1 0xE5 SHL DUP2 MSTORE PUSH1 0x4 ADD PUSH2 0x505 SWAP1 PUSH2 0x50DD JUMP JUMPDEST PUSH1 0x0 DUP2 DUP2 MSTORE PUSH1 0x4 PUSH1 0x20 MSTORE PUSH1 0x40 SWAP1 KECCAK256 SLOAD DUP2 SWAP1 DUP2 EQ PUSH2 0x1064 JUMPI PUSH1 0x40 MLOAD PUSH3 0x461BCD PUSH1 0xE5 SHL DUP2 MSTORE PUSH1 0x4 ADD PUSH2 0x505 SWAP1 PUSH2 0x52B4 JUMP JUMPDEST PUSH1 0x0 DUP3 DUP2 MSTORE PUSH1 0x4 PUSH1 0x20 MSTORE PUSH1 0x40 SWAP1 KECCAK256 PUSH1 0xE ADD SLOAD DUP3 SWAP1 PUSH1 0xFF AND ISZERO PUSH2 0x1098 JUMPI PUSH1 0x40 MLOAD PUSH3 0x461BCD PUSH1 0xE5 SHL DUP2 MSTORE PUSH1 0x4 ADD PUSH2 0x505 SWAP1 PUSH2 0x559C JUMP JUMPDEST PUSH1 0x0 DUP4 DUP2 MSTORE PUSH1 0x4 PUSH1 0x20 MSTORE PUSH1 0x40 SWAP1 KECCAK256 PUSH1 0x2 PUSH1 0x1 DUP3 ADD SLOAD PUSH1 0xFF AND PUSH1 0x4 DUP2 GT ISZERO PUSH2 0x10CF JUMPI PUSH4 0x4E487B71 PUSH1 0xE0 SHL PUSH1 0x0 MSTORE PUSH1 0x21 PUSH1 0x4 MSTORE PUSH1 0x24 PUSH1 0x0 REVERT JUMPDEST EQ PUSH2 0x10EC JUMPI PUSH1 0x40 MLOAD PUSH3 0x461BCD PUSH1 0xE5 SHL DUP2 MSTORE PUSH1 0x4 ADD PUSH2 0x505 SWAP1 PUSH2 0x5191 JUMP JUMPDEST DUP1 PUSH1 0xB ADD SLOAD TIMESTAMP LT ISZERO PUSH2 0x1110 JUMPI PUSH1 0x40 MLOAD PUSH3 0x461BCD PUSH1 0xE5 SHL DUP2 MSTORE PUSH1 0x4 ADD PUSH2 0x505 SWAP1 PUSH2 0x5457 JUMP JUMPDEST PUSH2 0x1119 DUP5 PUSH2 0x3DE3 JUMP JUMPDEST POP POP POP POP JUMP JUMPDEST PUSH1 0x0 DUP2 DUP2 MSTORE PUSH1 0x4 PUSH1 0x20 MSTORE PUSH1 0x40 SWAP1 KECCAK256 SLOAD DUP2 SWAP1 DUP2 EQ PUSH2 0x114E JUMPI PUSH1 0x40 MLOAD PUSH3 0x461BCD PUSH1 0xE5 SHL DUP2 MSTORE PUSH1 0x4 ADD PUSH2 0x505 SWAP1 PUSH2 0x52B4 JUMP JUMPDEST PUSH1 0x0 DUP3 DUP2 MSTORE PUSH1 0x4 PUSH1 0x20 DUP2 DUP2 MSTORE PUSH1 0x40 DUP1 DUP5 KECCAK256 CALLER DUP6 MSTORE SWAP1 SWAP3 ADD SWAP1 MSTORE SWAP1 KECCAK256 SLOAD DUP3 SWAP1 PUSH1 0xFF AND PUSH2 0x118B JUMPI PUSH1 0x40 MLOAD PUSH3 0x461BCD PUSH1 0xE5 SHL DUP2 MSTORE PUSH1 0x4 ADD PUSH2 0x505 SWAP1 PUSH2 0x504F JUMP JUMPDEST PUSH1 0x0 DUP4 DUP2 MSTORE PUSH1 0x4 PUSH1 0x20 MSTORE PUSH1 0x40 SWAP1 KECCAK256 PUSH1 0xC ADD SLOAD DUP4 SWAP1 TIMESTAMP LT ISZERO PUSH2 0x11BE JUMPI PUSH1 0x40 MLOAD PUSH3 0x461BCD PUSH1 0xE5 SHL DUP2 MSTORE PUSH1 0x4 ADD PUSH2 0x505 SWAP1 PUSH2 0x53AE JUMP JUMPDEST PUSH1 0x0 DUP5 DUP2 MSTORE PUSH1 0x4 PUSH1 0x20 MSTORE PUSH1 0x40 SWAP1 KECCAK256 PUSH1 0xE ADD SLOAD DUP5 SWAP1 PUSH1 0xFF AND ISZERO PUSH2 0x11F2 JUMPI PUSH1 0x40 MLOAD PUSH3 0x461BCD PUSH1 0xE5 SHL DUP2 MSTORE PUSH1 0x4 ADD PUSH2 0x505 SWAP1 PUSH2 0x559C JUMP JUMPDEST PUSH1 0x0 DUP6 DUP2 MSTORE PUSH1 0x4 PUSH1 0x20 DUP2 DUP2 MSTORE PUSH1 0x40 DUP1 DUP5 KECCAK256 CALLER DUP6 MSTORE SWAP3 DUP4 ADD SWAP1 SWAP2 MSTORE SWAP1 SWAP2 KECCAK256 PUSH1 0x1 DUP1 DUP4 ADD SLOAD PUSH1 0xFF AND PUSH1 0x4 DUP2 GT ISZERO PUSH2 0x1237 JUMPI PUSH4 0x4E487B71 PUSH1 0xE0 SHL PUSH1 0x0 MSTORE PUSH1 0x21 PUSH1 0x4 MSTORE PUSH1 0x24 PUSH1 0x0 REVERT JUMPDEST EQ PUSH2 0x1254 JUMPI PUSH1 0x40 MLOAD PUSH3 0x461BCD PUSH1 0xE5 SHL DUP2 MSTORE PUSH1 0x4 ADD PUSH2 0x505 SWAP1 PUSH2 0x5255 JUMP JUMPDEST DUP2 PUSH1 0xB ADD SLOAD TIMESTAMP LT PUSH2 0x1277 JUMPI PUSH1 0x40 MLOAD PUSH3 0x461BCD PUSH1 0xE5 SHL DUP2 MSTORE PUSH1 0x4 ADD PUSH2 0x505 SWAP1 PUSH2 0x4FB9 JUMP JUMPDEST DUP1 SLOAD PUSH2 0x100 SWAP1 DIV PUSH1 0xFF AND ISZERO PUSH2 0x129E JUMPI PUSH1 0x40 MLOAD PUSH3 0x461BCD PUSH1 0xE5 SHL DUP2 MSTORE PUSH1 0x4 ADD PUSH2 0x505 SWAP1 PUSH2 0x55D3 JUMP JUMPDEST PUSH1 0x5 DUP2 PUSH1 0x1 ADD SLOAD LT ISZERO PUSH2 0x12C3 JUMPI PUSH1 0x40 MLOAD PUSH3 0x461BCD PUSH1 0xE5 SHL DUP2 MSTORE PUSH1 0x4 ADD PUSH2 0x505 SWAP1 PUSH2 0x50B1 JUMP JUMPDEST PUSH1 0x1 DUP1 DUP3 ADD DUP1 SLOAD PUSH1 0x4 NOT ADD SWAP1 SSTORE DUP2 SLOAD PUSH2 0xFF00 NOT AND PUSH2 0x100 OR DUP1 DUP4 SSTORE TIMESTAMP PUSH1 0x3 DUP5 ADD SSTORE PUSH1 0x4 DUP4 ADD DUP1 SLOAD SWAP1 SWAP3 ADD SWAP1 SWAP2 SSTORE PUSH1 0x5 DUP4 ADD DUP1 SLOAD PUSH1 0x1 PUSH1 0x20 SHL SWAP1 SWAP3 DIV PUSH1 0xFF AND SWAP2 PUSH1 0x0 SWAP2 SWAP1 DUP4 SWAP1 DUP2 LT PUSH2 0x1324 JUMPI PUSH4 0x4E487B71 PUSH1 0xE0 SHL PUSH1 0x0 MSTORE PUSH1 0x32 PUSH1 0x4 MSTORE PUSH1 0x24 PUSH1 0x0 REVERT JUMPDEST PUSH1 0x0 SWAP2 DUP3 MSTORE PUSH1 0x20 SWAP2 DUP3 SWAP1 KECCAK256 PUSH1 0x40 DUP1 MLOAD DUP1 DUP3 ADD DUP3 MSTORE SWAP3 SWAP1 SWAP2 ADD SLOAD PUSH1 0xFF DUP1 DUP3 AND DUP1 DUP6 MSTORE PUSH2 0x100 SWAP1 SWAP3 DIV AND SWAP4 DUP4 ADD DUP5 SWAP1 MSTORE SWAP1 MLOAD SWAP2 SWAP4 POP CALLER SWAP3 PUSH32 0xE1299F54CCE9BBBB7B050A7A2E071F3272E75F57D041E1CFB8CC88969634CF06 SWAP3 PUSH2 0x1386 SWAP3 SWAP2 SWAP1 PUSH2 0x570C JUMP JUMPDEST PUSH1 0x40 MLOAD DUP1 SWAP2 SUB SWAP1 LOG2 CALLER PUSH1 0x1 PUSH1 0x1 PUSH1 0xA0 SHL SUB AND DUP10 PUSH1 0x0 DUP1 MLOAD PUSH1 0x20 PUSH2 0x58A3 DUP4 CODECOPY DUP2 MLOAD SWAP2 MSTORE PUSH1 0x5 DUP7 PUSH1 0x4 ADD SLOAD PUSH1 0x40 MLOAD PUSH2 0x13BD SWAP3 SWAP2 SWAP1 PUSH2 0x54EE JUMP JUMPDEST PUSH1 0x40 MLOAD DUP1 SWAP2 SUB SWAP1 LOG3 POP POP POP POP POP POP POP POP POP JUMP JUMPDEST PUSH1 0x0 DUP2 DUP2 MSTORE PUSH1 0x4 PUSH1 0x20 MSTORE PUSH1 0x40 SWAP1 KECCAK256 SLOAD PUSH1 0x60 SWAP1 DUP3 SWAP1 DUP2 EQ PUSH2 0x1402 JUMPI PUSH1 0x40 MLOAD PUSH3 0x461BCD PUSH1 0xE5 SHL DUP2 MSTORE PUSH1 0x4 ADD PUSH2 0x505 SWAP1 PUSH2 0x52B4 JUMP JUMPDEST PUSH1 0x0 DUP4 DUP2 MSTORE PUSH1 0x4 PUSH1 0x20 MSTORE PUSH1 0x40 SWAP1 KECCAK256 PUSH1 0x3 DUP2 ADD SLOAD PUSH8 0xFFFFFFFFFFFFFFFF DUP2 GT ISZERO PUSH2 0x143B JUMPI PUSH4 0x4E487B71 PUSH1 0xE0 SHL PUSH1 0x0 MSTORE PUSH1 0x41 PUSH1 0x4 MSTORE PUSH1 0x24 PUSH1 0x0 REVERT JUMPDEST PUSH1 0x40 MLOAD SWAP1 DUP1 DUP3 MSTORE DUP1 PUSH1 0x20 MUL PUSH1 0x20 ADD DUP3 ADD PUSH1 0x40 MSTORE DUP1 ISZERO PUSH2 0x1464 JUMPI DUP2 PUSH1 0x20 ADD PUSH1 0x20 DUP3 MUL DUP1 CALLDATASIZE DUP4 CALLDATACOPY ADD SWAP1 POP JUMPDEST POP SWAP3 POP DUP1 PUSH1 0x3 ADD SLOAD PUSH1 0x0 EQ ISZERO PUSH2 0x147A JUMPI POP PUSH2 0x154F JUMP JUMPDEST PUSH1 0x0 DUP1 JUMPDEST PUSH1 0x2 DUP4 ADD SLOAD DUP2 LT ISZERO PUSH2 0x154B JUMPI PUSH1 0x0 DUP4 PUSH1 0x2 ADD DUP3 DUP2 SLOAD DUP2 LT PUSH2 0x14AF JUMPI PUSH4 0x4E487B71 PUSH1 0xE0 SHL PUSH1 0x0 MSTORE PUSH1 0x32 PUSH1 0x4 MSTORE PUSH1 0x24 PUSH1 0x0 REVERT JUMPDEST PUSH1 0x0 SWAP2 DUP3 MSTORE PUSH1 0x20 DUP1 DUP4 KECCAK256 SWAP1 SWAP2 ADD SLOAD PUSH1 0x1 PUSH1 0x1 PUSH1 0xA0 SHL SUB AND DUP1 DUP4 MSTORE PUSH1 0x4 DUP8 ADD SWAP1 SWAP2 MSTORE PUSH1 0x40 SWAP1 SWAP2 KECCAK256 SLOAD SWAP1 SWAP2 POP PUSH1 0xFF PUSH4 0x1000000 SWAP1 SWAP2 DIV AND PUSH2 0x1538 JUMPI DUP1 DUP7 DUP5 DUP2 MLOAD DUP2 LT PUSH2 0x1509 JUMPI PUSH4 0x4E487B71 PUSH1 0xE0 SHL PUSH1 0x0 MSTORE PUSH1 0x32 PUSH1 0x4 MSTORE PUSH1 0x24 PUSH1 0x0 REVERT JUMPDEST PUSH1 0x1 PUSH1 0x1 PUSH1 0xA0 SHL SUB SWAP1 SWAP3 AND PUSH1 0x20 SWAP3 DUP4 MUL SWAP2 SWAP1 SWAP2 ADD SWAP1 SWAP2 ADD MSTORE PUSH1 0x3 DUP5 ADD SLOAD PUSH1 0x1 SWAP1 SWAP4 ADD SWAP3 DUP4 LT PUSH2 0x1538 JUMPI POP PUSH2 0x154B JUMP JUMPDEST POP DUP1 PUSH2 0x1543 DUP2 PUSH2 0x5811 JUMP JUMPDEST SWAP2 POP POP PUSH2 0x147E JUMP JUMPDEST POP POP POP JUMPDEST POP SWAP2 SWAP1 POP JUMP JUMPDEST PUSH1 0x0 DUP2 DUP2 MSTORE PUSH1 0x4 PUSH1 0x20 MSTORE PUSH1 0x40 SWAP1 KECCAK256 SLOAD PUSH1 0x60 SWAP1 DUP2 SWAP1 DUP2 SWAP1 DUP5 SWAP1 DUP2 EQ PUSH2 0x158B JUMPI PUSH1 0x40 MLOAD PUSH3 0x461BCD PUSH1 0xE5 SHL DUP2 MSTORE PUSH1 0x4 ADD PUSH2 0x505 SWAP1 PUSH2 0x52B4 JUMP JUMPDEST PUSH1 0x0 DUP6 DUP2 MSTORE PUSH1 0x4 PUSH1 0x20 MSTORE PUSH1 0x40 SWAP1 KECCAK256 PUSH1 0x3 PUSH1 0x1 DUP3 ADD SLOAD PUSH1 0xFF AND PUSH1 0x4 DUP2 GT ISZERO PUSH2 0x15C2 JUMPI PUSH4 0x4E487B71 PUSH1 0xE0 SHL PUSH1 0x0 MSTORE PUSH1 0x21 PUSH1 0x4 MSTORE PUSH1 0x24 PUSH1 0x0 REVERT JUMPDEST EQ DUP1 PUSH2 0x15F4 JUMPI POP PUSH1 0x4 PUSH1 0x1 DUP3 ADD SLOAD PUSH1 0xFF AND PUSH1 0x4 DUP2 GT ISZERO PUSH2 0x15F2 JUMPI PUSH4 0x4E487B71 PUSH1 0xE0 SHL PUSH1 0x0 MSTORE PUSH1 0x21 PUSH1 0x4 MSTORE PUSH1 0x24 PUSH1 0x0 REVERT JUMPDEST EQ JUMPDEST PUSH2 0x1610 JUMPI PUSH1 0x40 MLOAD PUSH3 0x461BCD PUSH1 0xE5 SHL DUP2 MSTORE PUSH1 0x4 ADD PUSH2 0x505 SWAP1 PUSH2 0x548E JUMP JUMPDEST PUSH1 0x2 DUP2 ADD SLOAD PUSH8 0xFFFFFFFFFFFFFFFF DUP2 GT ISZERO PUSH2 0x163B JUMPI PUSH4 0x4E487B71 PUSH1 0xE0 SHL PUSH1 0x0 MSTORE PUSH1 0x41 PUSH1 0x4 MSTORE PUSH1 0x24 PUSH1 0x0 REVERT JUMPDEST PUSH1 0x40 MLOAD SWAP1 DUP1 DUP3 MSTORE DUP1 PUSH1 0x20 MUL PUSH1 0x20 ADD DUP3 ADD PUSH1 0x40 MSTORE DUP1 ISZERO PUSH2 0x1664 JUMPI DUP2 PUSH1 0x20 ADD PUSH1 0x20 DUP3 MUL DUP1 CALLDATASIZE DUP4 CALLDATACOPY ADD SWAP1 POP JUMPDEST POP PUSH1 0x2 DUP3 ADD SLOAD SWAP1 SWAP6 POP PUSH8 0xFFFFFFFFFFFFFFFF DUP2 GT ISZERO PUSH2 0x1693 JUMPI PUSH4 0x4E487B71 PUSH1 0xE0 SHL PUSH1 0x0 MSTORE PUSH1 0x41 PUSH1 0x4 MSTORE PUSH1 0x24 PUSH1 0x0 REVERT JUMPDEST PUSH1 0x40 MLOAD SWAP1 DUP1 DUP3 MSTORE DUP1 PUSH1 0x20 MUL PUSH1 0x20 ADD DUP3 ADD PUSH1 0x40 MSTORE DUP1 ISZERO PUSH2 0x16BC JUMPI DUP2 PUSH1 0x20 ADD PUSH1 0x20 DUP3 MUL DUP1 CALLDATASIZE DUP4 CALLDATACOPY ADD SWAP1 POP JUMPDEST POP PUSH1 0x2 DUP3 ADD SLOAD SWAP1 SWAP5 POP PUSH8 0xFFFFFFFFFFFFFFFF DUP2 GT ISZERO PUSH2 0x16EB JUMPI PUSH4 0x4E487B71 PUSH1 0xE0 SHL PUSH1 0x0 MSTORE PUSH1 0x41 PUSH1 0x4 MSTORE PUSH1 0x24 PUSH1 0x0 REVERT JUMPDEST PUSH1 0x40 MLOAD SWAP1 DUP1 DUP3 MSTORE DUP1 PUSH1 0x20 MUL PUSH1 0x20 ADD DUP3 ADD PUSH1 0x40 MSTORE DUP1 ISZERO PUSH2 0x1714 JUMPI DUP2 PUSH1 0x20 ADD PUSH1 0x20 DUP3 MUL DUP1 CALLDATASIZE DUP4 CALLDATACOPY ADD SWAP1 POP JUMPDEST POP SWAP3 POP PUSH1 0x0 JUMPDEST PUSH1 0x2 DUP3 ADD SLOAD DUP2 LT ISZERO PUSH2 0x1980 JUMPI PUSH1 0x0 DUP3 PUSH1 0x2 ADD DUP3 DUP2 SLOAD DUP2 LT PUSH2 0x174B JUMPI PUSH4 0x4E487B71 PUSH1 0xE0 SHL PUSH1 0x0 MSTORE PUSH1 0x32 PUSH1 0x4 MSTORE PUSH1 0x24 PUSH1 0x0 REVERT JUMPDEST PUSH1 0x0 SWAP2 DUP3 MSTORE PUSH1 0x20 DUP1 DUP4 KECCAK256 SWAP1 SWAP2 ADD SLOAD PUSH1 0x1 PUSH1 0x1 PUSH1 0xA0 SHL SUB AND DUP1 DUP4 MSTORE PUSH1 0x4 DUP7 ADD SWAP1 SWAP2 MSTORE PUSH1 0x40 SWAP1 SWAP2 KECCAK256 SLOAD SWAP1 SWAP2 POP PUSH1 0xFF PUSH4 0x1000000 SWAP1 SWAP2 DIV AND ISZERO PUSH2 0x1838 JUMPI DUP1 DUP8 DUP4 DUP2 MLOAD DUP2 LT PUSH2 0x17A6 JUMPI PUSH4 0x4E487B71 PUSH1 0xE0 SHL PUSH1 0x0 MSTORE PUSH1 0x32 PUSH1 0x4 MSTORE PUSH1 0x24 PUSH1 0x0 REVERT JUMPDEST PUSH1 0x20 MUL PUSH1 0x20 ADD ADD SWAP1 PUSH1 0x1 PUSH1 0x1 PUSH1 0xA0 SHL SUB AND SWAP1 DUP2 PUSH1 0x1 PUSH1 0x1 PUSH1 0xA0 SHL SUB AND DUP2 MSTORE POP POP PUSH1 0x0 DUP7 DUP4 DUP2 MLOAD DUP2 LT PUSH2 0x17E8 JUMPI PUSH4 0x4E487B71 PUSH1 0xE0 SHL PUSH1 0x0 MSTORE PUSH1 0x32 PUSH1 0x4 MSTORE PUSH1 0x24 PUSH1 0x0 REVERT JUMPDEST PUSH1 0x20 MUL PUSH1 0x20 ADD ADD SWAP1 PUSH1 0xFF AND SWAP1 DUP2 PUSH1 0xFF AND DUP2 MSTORE POP POP PUSH1 0x0 DUP6 DUP4 DUP2 MLOAD DUP2 LT PUSH2 0x181E JUMPI PUSH4 0x4E487B71 PUSH1 0xE0 SHL PUSH1 0x0 MSTORE PUSH1 0x32 PUSH1 0x4 MSTORE PUSH1 0x24 PUSH1 0x0 REVERT JUMPDEST PUSH1 0x20 MUL PUSH1 0x20 ADD ADD SWAP1 PUSH1 0xFF AND SWAP1 DUP2 PUSH1 0xFF AND DUP2 MSTORE POP POP POP PUSH2 0x196E JUMP JUMPDEST PUSH1 0x1 PUSH1 0x1 PUSH1 0xA0 SHL SUB DUP2 AND PUSH1 0x0 SWAP1 DUP2 MSTORE PUSH1 0x4 DUP5 ADD PUSH1 0x20 MSTORE PUSH1 0x40 DUP2 KECCAK256 SLOAD PUSH1 0x5 DUP6 ADD DUP1 SLOAD PUSH1 0x1 PUSH1 0x20 SHL SWAP1 SWAP3 DIV PUSH1 0xFF AND SWAP3 SWAP2 DUP4 SWAP1 DUP2 LT PUSH2 0x1884 JUMPI PUSH4 0x4E487B71 PUSH1 0xE0 SHL PUSH1 0x0 MSTORE PUSH1 0x32 PUSH1 0x4 MSTORE PUSH1 0x24 PUSH1 0x0 REVERT JUMPDEST PUSH1 0x0 SWAP2 DUP3 MSTORE PUSH1 0x20 SWAP2 DUP3 SWAP1 KECCAK256 PUSH1 0x40 DUP1 MLOAD DUP1 DUP3 ADD SWAP1 SWAP2 MSTORE SWAP2 ADD SLOAD PUSH1 0xFF DUP1 DUP3 AND DUP4 MSTORE PUSH2 0x100 SWAP1 SWAP2 DIV AND SWAP2 DUP2 ADD SWAP2 SWAP1 SWAP2 MSTORE DUP10 MLOAD SWAP1 SWAP2 POP DUP4 SWAP1 DUP11 SWAP1 DUP7 SWAP1 DUP2 LT PUSH2 0x18D8 JUMPI PUSH4 0x4E487B71 PUSH1 0xE0 SHL PUSH1 0x0 MSTORE PUSH1 0x32 PUSH1 0x4 MSTORE PUSH1 0x24 PUSH1 0x0 REVERT JUMPDEST PUSH1 0x20 MUL PUSH1 0x20 ADD ADD SWAP1 PUSH1 0x1 PUSH1 0x1 PUSH1 0xA0 SHL SUB AND SWAP1 DUP2 PUSH1 0x1 PUSH1 0x1 PUSH1 0xA0 SHL SUB AND DUP2 MSTORE POP POP DUP1 PUSH1 0x0 ADD MLOAD DUP9 DUP6 DUP2 MLOAD DUP2 LT PUSH2 0x191D JUMPI PUSH4 0x4E487B71 PUSH1 0xE0 SHL PUSH1 0x0 MSTORE PUSH1 0x32 PUSH1 0x4 MSTORE PUSH1 0x24 PUSH1 0x0 REVERT JUMPDEST PUSH1 0x20 MUL PUSH1 0x20 ADD ADD SWAP1 PUSH1 0xFF AND SWAP1 DUP2 PUSH1 0xFF AND DUP2 MSTORE POP POP DUP1 PUSH1 0x20 ADD MLOAD DUP8 DUP6 DUP2 MLOAD DUP2 LT PUSH2 0x1956 JUMPI PUSH4 0x4E487B71 PUSH1 0xE0 SHL PUSH1 0x0 MSTORE PUSH1 0x32 PUSH1 0x4 MSTORE PUSH1 0x24 PUSH1 0x0 REVERT JUMPDEST PUSH1 0x20 MUL PUSH1 0x20 ADD ADD SWAP1 PUSH1 0xFF AND SWAP1 DUP2 PUSH1 0xFF AND DUP2 MSTORE POP POP POP POP POP JUMPDEST DUP1 PUSH2 0x1978 DUP2 PUSH2 0x5811 JUMP JUMPDEST SWAP2 POP POP PUSH2 0x171A JUMP JUMPDEST POP POP POP SWAP2 SWAP4 SWAP1 SWAP3 POP JUMP JUMPDEST PUSH1 0x1 PUSH1 0x1 PUSH1 0xA0 SHL SUB DUP2 AND PUSH1 0x0 SWAP1 DUP2 MSTORE PUSH1 0x1 PUSH1 0x20 MSTORE PUSH1 0x40 SWAP1 KECCAK256 SLOAD PUSH1 0xFF AND JUMPDEST SWAP2 SWAP1 POP JUMP JUMPDEST PUSH1 0x0 DUP1 PUSH1 0x0 DUP1 PUSH1 0x0 DUP1 PUSH1 0x0 DUP1 DUP10 DUP1 PUSH1 0x4 PUSH1 0x0 DUP4 DUP2 MSTORE PUSH1 0x20 ADD SWAP1 DUP2 MSTORE PUSH1 0x20 ADD PUSH1 0x0 KECCAK256 PUSH1 0x0 ADD SLOAD EQ PUSH2 0x19EE JUMPI PUSH1 0x40 MLOAD PUSH3 0x461BCD PUSH1 0xE5 SHL DUP2 MSTORE PUSH1 0x4 ADD PUSH2 0x505 SWAP1 PUSH2 0x52B4 JUMP JUMPDEST POP POP POP PUSH1 0x0 SWAP8 DUP9 MSTORE POP POP PUSH1 0x4 PUSH1 0x20 DUP2 DUP2 MSTORE PUSH1 0x40 DUP1 DUP10 KECCAK256 PUSH1 0x1 PUSH1 0x1 PUSH1 0xA0 SHL SUB SWAP9 SWAP1 SWAP9 AND DUP10 MSTORE SWAP7 DUP3 ADD SWAP1 MSTORE SWAP5 SWAP1 SWAP6 KECCAK256 DUP1 SLOAD PUSH1 0x1 DUP3 ADD SLOAD PUSH1 0x2 DUP4 ADD SLOAD PUSH1 0x3 DUP5 ADD SLOAD SWAP4 SWAP1 SWAP8 ADD SLOAD PUSH1 0xFF DUP1 DUP5 AND SWAP11 PUSH2 0x100 DUP6 DIV DUP3 AND SWAP11 POP PUSH3 0x10000 DUP6 DIV DUP3 AND SWAP10 PUSH4 0x1000000 SWAP1 SWAP6 DIV SWAP1 SWAP2 AND SWAP8 POP SWAP2 SWAP6 POP SWAP2 SWAP4 POP JUMP JUMPDEST PUSH1 0x0 DUP2 DUP2 MSTORE PUSH1 0x4 PUSH1 0x20 MSTORE PUSH1 0x40 SWAP1 KECCAK256 SLOAD DUP2 SWAP1 DUP2 EQ PUSH2 0x1A8D JUMPI PUSH1 0x40 MLOAD PUSH3 0x461BCD PUSH1 0xE5 SHL DUP2 MSTORE PUSH1 0x4 ADD PUSH2 0x505 SWAP1 PUSH2 0x52B4 JUMP JUMPDEST PUSH1 0x0 DUP3 DUP2 MSTORE PUSH1 0x4 PUSH1 0x20 MSTORE PUSH1 0x40 SWAP1 KECCAK256 PUSH1 0xE ADD SLOAD DUP3 SWAP1 PUSH1 0xFF AND ISZERO PUSH2 0x1AC1 JUMPI PUSH1 0x40 MLOAD PUSH3 0x461BCD PUSH1 0xE5 SHL DUP2 MSTORE PUSH1 0x4 ADD PUSH2 0x505 SWAP1 PUSH2 0x559C JUMP JUMPDEST PUSH1 0x0 DUP4 DUP2 MSTORE PUSH1 0x4 PUSH1 0x20 DUP2 DUP2 MSTORE PUSH1 0x40 DUP1 DUP5 KECCAK256 CALLER DUP6 MSTORE SWAP3 DUP4 ADD SWAP1 SWAP2 MSTORE SWAP1 SWAP2 KECCAK256 SLOAD PUSH1 0xFF AND PUSH2 0x1AFE JUMPI PUSH1 0x40 MLOAD PUSH3 0x461BCD PUSH1 0xE5 SHL DUP2 MSTORE PUSH1 0x4 ADD PUSH2 0x505 SWAP1 PUSH2 0x52DC JUMP JUMPDEST PUSH1 0x0 PUSH1 0x1 DUP3 ADD SLOAD PUSH1 0xFF AND PUSH1 0x4 DUP2 GT ISZERO PUSH2 0x1B27 JUMPI PUSH4 0x4E487B71 PUSH1 0xE0 SHL PUSH1 0x0 MSTORE PUSH1 0x21 PUSH1 0x4 MSTORE PUSH1 0x24 PUSH1 0x0 REVERT JUMPDEST EQ PUSH2 0x1B44 JUMPI PUSH1 0x40 MLOAD PUSH3 0x461BCD PUSH1 0xE5 SHL DUP2 MSTORE PUSH1 0x4 ADD PUSH2 0x505 SWAP1 PUSH2 0x5632 JUMP JUMPDEST PUSH1 0x0 JUMPDEST PUSH1 0x2 DUP3 ADD SLOAD DUP2 LT ISZERO PUSH2 0x1C8F JUMPI CALLER PUSH1 0x1 PUSH1 0x1 PUSH1 0xA0 SHL SUB AND DUP3 PUSH1 0x2 ADD DUP3 DUP2 SLOAD DUP2 LT PUSH2 0x1B80 JUMPI PUSH4 0x4E487B71 PUSH1 0xE0 SHL PUSH1 0x0 MSTORE PUSH1 0x32 PUSH1 0x4 MSTORE PUSH1 0x24 PUSH1 0x0 REVERT JUMPDEST PUSH1 0x0 SWAP2 DUP3 MSTORE PUSH1 0x20 SWAP1 SWAP2 KECCAK256 ADD SLOAD PUSH1 0x1 PUSH1 0x1 PUSH1 0xA0 SHL SUB AND EQ ISZERO PUSH2 0x1C7D JUMPI PUSH1 0x2 DUP3 ADD DUP1 SLOAD PUSH2 0x1BAD SWAP1 PUSH1 0x1 SWAP1 PUSH2 0x5780 JUMP JUMPDEST DUP2 SLOAD DUP2 LT PUSH2 0x1BCB JUMPI PUSH4 0x4E487B71 PUSH1 0xE0 SHL PUSH1 0x0 MSTORE PUSH1 0x32 PUSH1 0x4 MSTORE PUSH1 0x24 PUSH1 0x0 REVERT JUMPDEST PUSH1 0x0 SWAP2 DUP3 MSTORE PUSH1 0x20 SWAP1 SWAP2 KECCAK256 ADD SLOAD PUSH1 0x2 DUP4 ADD DUP1 SLOAD PUSH1 0x1 PUSH1 0x1 PUSH1 0xA0 SHL SUB SWAP1 SWAP3 AND SWAP2 DUP4 SWAP1 DUP2 LT PUSH2 0x1C07 JUMPI PUSH4 0x4E487B71 PUSH1 0xE0 SHL PUSH1 0x0 MSTORE PUSH1 0x32 PUSH1 0x4 MSTORE PUSH1 0x24 PUSH1 0x0 REVERT JUMPDEST SWAP1 PUSH1 0x0 MSTORE PUSH1 0x20 PUSH1 0x0 KECCAK256 ADD PUSH1 0x0 PUSH2 0x100 EXP DUP2 SLOAD DUP2 PUSH1 0x1 PUSH1 0x1 PUSH1 0xA0 SHL SUB MUL NOT AND SWAP1 DUP4 PUSH1 0x1 PUSH1 0x1 PUSH1 0xA0 SHL SUB AND MUL OR SWAP1 SSTORE POP DUP2 PUSH1 0x2 ADD DUP1 SLOAD DUP1 PUSH2 0x1C56 JUMPI PUSH4 0x4E487B71 PUSH1 0xE0 SHL PUSH1 0x0 MSTORE PUSH1 0x31 PUSH1 0x4 MSTORE PUSH1 0x24 PUSH1 0x0 REVERT JUMPDEST PUSH1 0x0 DUP3 DUP2 MSTORE PUSH1 0x20 SWAP1 KECCAK256 DUP2 ADD PUSH1 0x0 NOT SWAP1 DUP2 ADD DUP1 SLOAD PUSH1 0x1 PUSH1 0x1 PUSH1 0xA0 SHL SUB NOT AND SWAP1 SSTORE ADD SWAP1 SSTORE PUSH2 0x1C8F JUMP JUMPDEST DUP1 PUSH2 0x1C87 DUP2 PUSH2 0x5811 JUMP JUMPDEST SWAP2 POP POP PUSH2 0x1B47 JUMP JUMPDEST POP PUSH1 0x3 DUP1 DUP3 ADD DUP1 SLOAD PUSH1 0x0 NOT ADD SWAP1 SSTORE CALLER PUSH1 0x0 DUP2 DUP2 MSTORE PUSH1 0x4 DUP1 DUP6 ADD PUSH1 0x20 SWAP1 DUP2 MSTORE PUSH1 0x40 DUP1 DUP5 KECCAK256 DUP1 SLOAD PUSH5 0xFFFFFFFFFF NOT AND DUP2 SSTORE PUSH1 0x1 DUP2 ADD DUP6 SWAP1 SSTORE PUSH1 0x2 DUP2 ADD DUP6 SWAP1 SSTORE SWAP6 DUP7 ADD DUP5 SWAP1 SSTORE SWAP5 SWAP1 SWAP2 ADD DUP3 SWAP1 SSTORE PUSH1 0x5 SWAP1 MSTORE DUP3 DUP2 KECCAK256 DUP2 SWAP1 SSTORE SWAP2 MLOAD SWAP1 SWAP2 DUP7 SWAP2 PUSH1 0x0 DUP1 MLOAD PUSH1 0x20 PUSH2 0x58A3 DUP4 CODECOPY DUP2 MLOAD SWAP2 MSTORE SWAP2 PUSH2 0x1D04 SWAP2 DUP2 SWAP1 PUSH2 0x5382 JUMP JUMPDEST PUSH1 0x40 MLOAD DUP1 SWAP2 SUB SWAP1 LOG3 POP POP POP POP JUMP JUMPDEST CALLER PUSH1 0x1 PUSH1 0x1 PUSH1 0xA0 SHL SUB PUSH32 0x0 AND EQ PUSH2 0x1D5A JUMPI PUSH1 0x40 MLOAD PUSH3 0x461BCD PUSH1 0xE5 SHL DUP2 MSTORE PUSH1 0x4 ADD PUSH2 0x505 SWAP1 PUSH2 0x53D8 JUMP JUMPDEST PUSH1 0x1 PUSH1 0x1 PUSH1 0xA0 SHL SUB AND PUSH1 0x0 SWAP1 DUP2 MSTORE PUSH1 0x7 PUSH1 0x20 MSTORE PUSH1 0x40 SWAP1 KECCAK256 DUP1 SLOAD PUSH1 0xFF NOT AND PUSH1 0x1 OR SWAP1 SSTORE JUMP JUMPDEST PUSH1 0x0 DUP2 DUP2 MSTORE PUSH1 0x4 PUSH1 0x20 MSTORE PUSH1 0x40 SWAP1 KECCAK256 SLOAD PUSH1 0x60 SWAP1 DUP3 SWAP1 DUP2 EQ PUSH2 0x1DB0 JUMPI PUSH1 0x40 MLOAD PUSH3 0x461BCD PUSH1 0xE5 SHL DUP2 MSTORE PUSH1 0x4 ADD PUSH2 0x505 SWAP1 PUSH2 0x52B4 JUMP JUMPDEST PUSH1 0x0 DUP4 DUP2 MSTORE PUSH1 0x4 PUSH1 0x20 SWAP1 DUP2 MSTORE PUSH1 0x40 SWAP2 DUP3 SWAP1 KECCAK256 PUSH1 0x2 ADD DUP1 SLOAD DUP4 MLOAD DUP2 DUP5 MUL DUP2 ADD DUP5 ADD SWAP1 SWAP5 MSTORE DUP1 DUP5 MSTORE SWAP1 SWAP2 DUP4 ADD DUP3 DUP3 DUP1 ISZERO PUSH2 0x1E11 JUMPI PUSH1 0x20 MUL DUP3 ADD SWAP2 SWAP1 PUSH1 0x0 MSTORE PUSH1 0x20 PUSH1 0x0 KECCAK256 SWAP1 JUMPDEST DUP2 SLOAD PUSH1 0x1 PUSH1 0x1 PUSH1 0xA0 SHL SUB AND DUP2 MSTORE PUSH1 0x1 SWAP1 SWAP2 ADD SWAP1 PUSH1 0x20 ADD DUP1 DUP4 GT PUSH2 0x1DF3 JUMPI JUMPDEST POP POP POP POP POP SWAP2 POP POP SWAP2 SWAP1 POP JUMP JUMPDEST PUSH1 0x0 DUP1 PUSH1 0x0 DUP1 PUSH1 0x0 DUP1 PUSH1 0x0 DUP1 PUSH1 0x0 DUP1 PUSH1 0x0 DUP12 DUP1 PUSH1 0x4 PUSH1 0x0 DUP4 DUP2 MSTORE PUSH1 0x20 ADD SWAP1 DUP2 MSTORE PUSH1 0x20 ADD PUSH1 0x0 KECCAK256 PUSH1 0x0 ADD SLOAD EQ PUSH2 0x1E65 JUMPI PUSH1 0x40 MLOAD PUSH3 0x461BCD PUSH1 0xE5 SHL DUP2 MSTORE PUSH1 0x4 ADD PUSH2 0x505 SWAP1 PUSH2 0x52B4 JUMP JUMPDEST PUSH1 0x0 DUP14 DUP2 MSTORE PUSH1 0x4 PUSH1 0x20 MSTORE PUSH1 0x40 DUP2 KECCAK256 PUSH1 0xB DUP2 ADD SLOAD SWAP1 SWAP2 SWAP1 TIMESTAMP LT ISZERO PUSH2 0x1E95 JUMPI TIMESTAMP DUP3 PUSH1 0xB ADD SLOAD PUSH2 0x1E92 SWAP2 SWAP1 PUSH2 0x5780 JUMP JUMPDEST SWAP1 POP JUMPDEST DUP2 PUSH1 0x1 ADD PUSH1 0x0 SWAP1 SLOAD SWAP1 PUSH2 0x100 EXP SWAP1 DIV PUSH1 0xFF AND DUP3 PUSH1 0x8 ADD SLOAD DUP4 PUSH1 0x9 ADD SLOAD DUP5 PUSH1 0xB ADD SLOAD DUP6 PUSH1 0xC ADD SLOAD DUP6 DUP8 PUSH1 0x2 ADD DUP1 SLOAD SWAP1 POP DUP9 PUSH1 0x3 ADD SLOAD DUP10 PUSH1 0xA ADD PUSH1 0x0 SWAP1 SLOAD SWAP1 PUSH2 0x100 EXP SWAP1 DIV PUSH1 0x1 PUSH1 0x1 PUSH1 0xA0 SHL SUB AND DUP11 PUSH1 0xD ADD SLOAD DUP12 PUSH1 0xE ADD PUSH1 0x0 SWAP1 SLOAD SWAP1 PUSH2 0x100 EXP SWAP1 DIV PUSH1 0xFF AND SWAP14 POP SWAP14 POP SWAP14 POP SWAP14 POP SWAP14 POP SWAP14 POP SWAP14 POP SWAP14 POP SWAP14 POP SWAP14 POP SWAP14 POP POP POP POP SWAP2 SWAP4 SWAP6 SWAP8 SWAP10 SWAP12 SWAP1 SWAP3 SWAP5 SWAP7 SWAP9 SWAP11 POP JUMP JUMPDEST PUSH1 0x0 DUP3 DUP2 MSTORE PUSH1 0x4 PUSH1 0x20 MSTORE PUSH1 0x40 SWAP1 KECCAK256 SLOAD DUP3 SWAP1 DUP2 EQ PUSH2 0x1F4F JUMPI PUSH1 0x40 MLOAD PUSH3 0x461BCD PUSH1 0xE5 SHL DUP2 MSTORE PUSH1 0x4 ADD PUSH2 0x505 SWAP1 PUSH2 0x52B4 JUMP JUMPDEST PUSH1 0x0 DUP4 DUP2 MSTORE PUSH1 0x4 PUSH1 0x20 DUP2 DUP2 MSTORE PUSH1 0x40 DUP1 DUP5 KECCAK256 CALLER DUP6 MSTORE SWAP1 SWAP3 ADD SWAP1 MSTORE SWAP1 KECCAK256 SLOAD DUP4 SWAP1 PUSH1 0xFF AND PUSH2 0x1F8C JUMPI PUSH1 0x40 MLOAD PUSH3 0x461BCD PUSH1 0xE5 SHL DUP2 MSTORE PUSH1 0x4 ADD PUSH2 0x505 SWAP1 PUSH2 0x504F JUMP JUMPDEST PUSH1 0x0 DUP5 DUP2 MSTORE PUSH1 0x4 PUSH1 0x20 MSTORE PUSH1 0x40 SWAP1 KECCAK256 PUSH1 0xC ADD SLOAD DUP5 SWAP1 TIMESTAMP LT ISZERO PUSH2 0x1FBF JUMPI PUSH1 0x40 MLOAD PUSH3 0x461BCD PUSH1 0xE5 SHL DUP2 MSTORE PUSH1 0x4 ADD PUSH2 0x505 SWAP1 PUSH2 0x53AE JUMP JUMPDEST PUSH1 0x0 DUP6 DUP2 MSTORE PUSH1 0x4 PUSH1 0x20 MSTORE PUSH1 0x40 SWAP1 KECCAK256 PUSH1 0xE ADD SLOAD DUP6 SWAP1 PUSH1 0xFF AND ISZERO PUSH2 0x1FF3 JUMPI PUSH1 0x40 MLOAD PUSH3 0x461BCD PUSH1 0xE5 SHL DUP2 MSTORE PUSH1 0x4 ADD PUSH2 0x505 SWAP1 PUSH2 0x559C JUMP JUMPDEST PUSH1 0x0 DUP7 DUP2 MSTORE PUSH1 0x4 PUSH1 0x20 DUP2 DUP2 MSTORE PUSH1 0x40 DUP1 DUP5 KECCAK256 CALLER DUP6 MSTORE SWAP3 DUP4 ADD SWAP1 SWAP2 MSTORE SWAP1 SWAP2 KECCAK256 PUSH1 0x2 PUSH1 0x1 DUP4 ADD SLOAD PUSH1 0xFF AND PUSH1 0x4 DUP2 GT ISZERO PUSH2 0x2039 JUMPI PUSH4 0x4E487B71 PUSH1 0xE0 SHL PUSH1 0x0 MSTORE PUSH1 0x21 PUSH1 0x4 MSTORE PUSH1 0x24 PUSH1 0x0 REVERT JUMPDEST EQ PUSH2 0x2056 JUMPI PUSH1 0x40 MLOAD PUSH3 0x461BCD PUSH1 0xE5 SHL DUP2 MSTORE PUSH1 0x4 ADD PUSH2 0x505 SWAP1 PUSH2 0x5191 JUMP JUMPDEST DUP2 PUSH1 0xB ADD SLOAD TIMESTAMP LT PUSH2 0x2079 JUMPI PUSH1 0x40 MLOAD PUSH3 0x461BCD PUSH1 0xE5 SHL DUP2 MSTORE PUSH1 0x4 ADD PUSH2 0x505 SWAP1 PUSH2 0x5688 JUMP JUMPDEST DUP1 SLOAD PUSH4 0x1000000 SWAP1 DIV PUSH1 0xFF AND ISZERO PUSH2 0x20A2 JUMPI PUSH1 0x40 MLOAD PUSH3 0x461BCD PUSH1 0xE5 SHL DUP2 MSTORE PUSH1 0x4 ADD PUSH2 0x505 SWAP1 PUSH2 0x5519 JUMP JUMPDEST PUSH1 0x1 DUP8 LT ISZERO PUSH2 0x20C3 JUMPI PUSH1 0x40 MLOAD PUSH3 0x461BCD PUSH1 0xE5 SHL DUP2 MSTORE PUSH1 0x4 ADD PUSH2 0x505 SWAP1 PUSH2 0x53FB JUMP JUMPDEST PUSH1 0x9 DUP3 ADD SLOAD ISZERO PUSH2 0x2107 JUMPI PUSH1 0x0 DUP2 PUSH1 0x2 ADD SLOAD DUP4 PUSH1 0x9 ADD SLOAD PUSH2 0x20E3 SWAP2 SWAP1 PUSH2 0x5780 JUMP JUMPDEST SWAP1 POP DUP1 DUP9 LT ISZERO PUSH2 0x2105 JUMPI PUSH1 0x40 MLOAD PUSH3 0x461BCD PUSH1 0xE5 SHL DUP2 MSTORE PUSH1 0x4 ADD PUSH2 0x505 SWAP1 PUSH2 0x5138 JUMP JUMPDEST POP JUMPDEST DUP7 DUP2 PUSH1 0x1 ADD SLOAD LT ISZERO PUSH2 0x212B JUMPI PUSH1 0x40 MLOAD PUSH3 0x461BCD PUSH1 0xE5 SHL DUP2 MSTORE PUSH1 0x4 ADD PUSH2 0x505 SWAP1 PUSH2 0x50B1 JUMP JUMPDEST PUSH1 0x4 DUP2 ADD DUP1 SLOAD PUSH1 0x1 SWAP1 DUP2 ADD SWAP1 SWAP2 SSTORE DUP2 ADD DUP1 SLOAD DUP9 SWAP1 SUB SWAP1 SSTORE PUSH1 0x2 DUP2 ADD DUP1 SLOAD DUP9 ADD DUP2 SSTORE PUSH1 0x8 DUP4 ADD DUP1 SLOAD DUP10 ADD SWAP1 SSTORE TIMESTAMP PUSH1 0x3 DUP4 ADD SSTORE PUSH1 0x9 DUP4 ADD SLOAD SWAP1 SLOAD GT ISZERO PUSH2 0x2174 JUMPI PUSH1 0x2 DUP2 ADD SLOAD PUSH1 0x9 DUP4 ADD SSTORE JUMPDEST CALLER PUSH1 0x1 PUSH1 0x1 PUSH1 0xA0 SHL SUB AND DUP9 PUSH1 0x0 DUP1 MLOAD PUSH1 0x20 PUSH2 0x58A3 DUP4 CODECOPY DUP2 MLOAD SWAP2 MSTORE DUP10 DUP5 PUSH1 0x4 ADD SLOAD PUSH1 0x40 MLOAD PUSH2 0x21A2 SWAP3 SWAP2 SWAP1 PUSH2 0x5335 JUMP JUMPDEST PUSH1 0x40 MLOAD DUP1 SWAP2 SUB SWAP1 LOG3 PUSH1 0x1 DUP3 ADD SLOAD PUSH1 0x8 DUP4 ADD SLOAD PUSH1 0x9 DUP5 ADD SLOAD PUSH1 0xD DUP6 ADD SLOAD PUSH1 0x40 MLOAD DUP13 SWAP5 PUSH1 0x0 DUP1 MLOAD PUSH1 0x20 PUSH2 0x5883 DUP4 CODECOPY DUP2 MLOAD SWAP2 MSTORE SWAP5 PUSH2 0x21E4 SWAP5 PUSH1 0xFF SWAP1 SWAP3 AND SWAP4 SWAP1 SWAP3 PUSH2 0x4E44 JUMP JUMPDEST PUSH1 0x40 MLOAD DUP1 SWAP2 SUB SWAP1 LOG2 POP POP POP POP POP POP POP POP JUMP JUMPDEST PUSH1 0x1 PUSH1 0x1 PUSH1 0xA0 SHL SUB AND PUSH1 0x0 SWAP1 DUP2 MSTORE PUSH1 0x7 PUSH1 0x20 MSTORE PUSH1 0x40 SWAP1 KECCAK256 SLOAD PUSH1 0xFF AND SWAP1 JUMP JUMPDEST CALLER PUSH1 0x0 SWAP1 DUP2 MSTORE PUSH1 0x7 PUSH1 0x20 MSTORE PUSH1 0x40 DUP2 KECCAK256 SLOAD PUSH1 0xFF AND PUSH2 0x2243 JUMPI PUSH1 0x40 MLOAD PUSH3 0x461BCD PUSH1 0xE5 SHL DUP2 MSTORE PUSH1 0x4 ADD PUSH2 0x505 SWAP1 PUSH2 0x50DD JUMP JUMPDEST PUSH1 0x3 DUP1 SLOAD PUSH1 0x1 SWAP1 DUP2 ADD DUP1 DUP4 SSTORE PUSH1 0x0 DUP2 DUP2 MSTORE PUSH1 0x4 PUSH1 0x20 MSTORE PUSH1 0x40 DUP1 DUP3 KECCAK256 DUP4 DUP2 SSTORE DUP1 DUP6 ADD DUP1 SLOAD PUSH1 0xFF NOT SWAP1 DUP2 AND SWAP1 SWAP2 SSTORE PUSH1 0xA DUP3 ADD DUP1 SLOAD PUSH1 0x1 PUSH1 0x1 PUSH1 0xA0 SHL SUB NOT AND CALLER SWAP1 DUP2 OR SWAP1 SWAP2 SSTORE SWAP7 DUP3 ADD DUP5 SWAP1 SSTORE PUSH1 0xD DUP3 ADD DUP7 SWAP1 SSTORE PUSH1 0xE DUP3 ADD DUP1 SLOAD SWAP1 SWAP2 AND SWAP1 SSTORE PUSH1 0x6 DUP1 SLOAD SWAP6 DUP7 ADD DUP2 SSTORE SWAP1 SWAP3 MSTORE PUSH32 0xF652222313E28459528D920B65115C16C04F3EFC82AAEDC97BE59F3F377C0D3F SWAP1 SWAP4 ADD DUP3 SWAP1 SSTORE SWAP2 MLOAD SWAP1 SWAP3 DUP4 SWAP2 PUSH32 0xC3E0F84839DC888C892A013D10C8F9D6DC05A21A879D0CE468CA558013E9121C SWAP2 PUSH2 0x2302 SWAP2 PUSH2 0x4C52 JUMP JUMPDEST PUSH1 0x40 MLOAD DUP1 SWAP2 SUB SWAP1 LOG2 DUP2 PUSH32 0xF8D27B7CF34386D5D1F7AD30B948B2C8E36BC20003707CE9463AB063CB1412FE PUSH1 0x0 DUP1 PUSH1 0x40 MLOAD PUSH2 0x233D SWAP3 SWAP2 SWAP1 PUSH2 0x4E29 JUMP JUMPDEST PUSH1 0x40 MLOAD DUP1 SWAP2 SUB SWAP1 LOG2 PUSH1 0x0 SLOAD PUSH1 0x1 PUSH1 0x1 PUSH1 0xA0 SHL SUB AND ISZERO PUSH2 0x23B3 JUMPI PUSH1 0x0 SLOAD PUSH1 0x40 MLOAD PUSH4 0x396FC46F PUSH1 0xE1 SHL DUP2 MSTORE PUSH1 0x1 PUSH1 0x1 PUSH1 0xA0 SHL SUB SWAP1 SWAP2 AND SWAP1 PUSH4 0x72DF88DE SWAP1 PUSH2 0x2386 SWAP1 DUP6 SWAP1 PUSH1 0x4 ADD PUSH2 0x56EC JUMP JUMPDEST PUSH1 0x0 PUSH1 0x40 MLOAD DUP1 DUP4 SUB DUP2 PUSH1 0x0 DUP8 DUP1 EXTCODESIZE ISZERO DUP1 ISZERO PUSH2 0x23A0 JUMPI PUSH1 0x0 DUP1 REVERT JUMPDEST POP GAS CALL SWAP3 POP POP POP DUP1 ISZERO PUSH2 0x23B1 JUMPI POP PUSH1 0x1 JUMPDEST POP JUMPDEST PUSH1 0x0 JUMPDEST PUSH1 0x2 SLOAD DUP2 LT DUP1 ISZERO PUSH2 0x23C7 JUMPI POP PUSH1 0x5 DUP2 LT JUMPDEST ISZERO PUSH2 0x2470 JUMPI PUSH1 0x0 PUSH1 0x2 DUP3 DUP2 SLOAD DUP2 LT PUSH2 0x23EF JUMPI PUSH4 0x4E487B71 PUSH1 0xE0 SHL PUSH1 0x0 MSTORE PUSH1 0x32 PUSH1 0x4 MSTORE PUSH1 0x24 PUSH1 0x0 REVERT JUMPDEST PUSH1 0x0 SWAP2 DUP3 MSTORE PUSH1 0x20 DUP1 DUP4 KECCAK256 SWAP1 SWAP2 ADD SLOAD PUSH1 0x1 PUSH1 0x1 PUSH1 0xA0 SHL SUB AND DUP1 DUP4 MSTORE PUSH1 0x1 SWAP1 SWAP2 MSTORE PUSH1 0x40 SWAP1 SWAP2 KECCAK256 SLOAD SWAP1 SWAP2 POP PUSH1 0xFF AND DUP1 ISZERO PUSH2 0x243C JUMPI POP PUSH1 0x1 PUSH1 0x1 PUSH1 0xA0 SHL SUB DUP2 AND PUSH1 0x0 SWAP1 DUP2 MSTORE PUSH1 0x5 PUSH1 0x20 MSTORE PUSH1 0x40 SWAP1 KECCAK256 SLOAD ISZERO JUMPDEST ISZERO PUSH2 0x245D JUMPI PUSH2 0x244B DUP5 DUP3 PUSH2 0x3E75 JUMP JUMPDEST PUSH1 0x2 DUP4 ADD SLOAD PUSH1 0x5 GT PUSH2 0x245D JUMPI POP PUSH2 0x2470 JUMP JUMPDEST POP DUP1 PUSH2 0x2468 DUP2 PUSH2 0x5811 JUMP JUMPDEST SWAP2 POP POP PUSH2 0x23B6 JUMP JUMPDEST POP SWAP1 SWAP2 POP POP SWAP1 JUMP JUMPDEST CALLER PUSH1 0x1 PUSH1 0x1 PUSH1 0xA0 SHL SUB PUSH32 0x0 AND EQ PUSH2 0x24C0 JUMPI PUSH1 0x40 MLOAD PUSH3 0x461BCD PUSH1 0xE5 SHL DUP2 MSTORE PUSH1 0x4 ADD PUSH2 0x505 SWAP1 PUSH2 0x53D8 JUMP JUMPDEST PUSH1 0x0 JUMPDEST DUP2 DUP2 LT ISZERO PUSH2 0x2603 JUMPI PUSH1 0x1 PUSH1 0x0 DUP5 DUP5 DUP5 DUP2 DUP2 LT PUSH2 0x24EF JUMPI PUSH4 0x4E487B71 PUSH1 0xE0 SHL PUSH1 0x0 MSTORE PUSH1 0x32 PUSH1 0x4 MSTORE PUSH1 0x24 PUSH1 0x0 REVERT JUMPDEST SWAP1 POP PUSH1 0x20 MUL ADD PUSH1 0x20 DUP2 ADD SWAP1 PUSH2 0x2504 SWAP2 SWAP1 PUSH2 0x4A0A JUMP JUMPDEST PUSH1 0x1 PUSH1 0x1 PUSH1 0xA0 SHL SUB AND DUP2 MSTORE PUSH1 0x20 DUP2 ADD SWAP2 SWAP1 SWAP2 MSTORE PUSH1 0x40 ADD PUSH1 0x0 KECCAK256 SLOAD PUSH1 0xFF AND PUSH2 0x25F1 JUMPI PUSH1 0x1 DUP1 PUSH1 0x0 DUP6 DUP6 DUP6 DUP2 DUP2 LT PUSH2 0x254A JUMPI PUSH4 0x4E487B71 PUSH1 0xE0 SHL PUSH1 0x0 MSTORE PUSH1 0x32 PUSH1 0x4 MSTORE PUSH1 0x24 PUSH1 0x0 REVERT JUMPDEST SWAP1 POP PUSH1 0x20 MUL ADD PUSH1 0x20 DUP2 ADD SWAP1 PUSH2 0x255F SWAP2 SWAP1 PUSH2 0x4A0A JUMP JUMPDEST PUSH1 0x1 PUSH1 0x1 PUSH1 0xA0 SHL SUB AND DUP2 MSTORE PUSH1 0x20 DUP2 ADD SWAP2 SWAP1 SWAP2 MSTORE PUSH1 0x40 ADD PUSH1 0x0 KECCAK256 DUP1 SLOAD PUSH1 0xFF NOT AND SWAP2 ISZERO ISZERO SWAP2 SWAP1 SWAP2 OR SWAP1 SSTORE PUSH1 0x2 DUP4 DUP4 DUP4 DUP2 DUP2 LT PUSH2 0x25A9 JUMPI PUSH4 0x4E487B71 PUSH1 0xE0 SHL PUSH1 0x0 MSTORE PUSH1 0x32 PUSH1 0x4 MSTORE PUSH1 0x24 PUSH1 0x0 REVERT JUMPDEST SWAP1 POP PUSH1 0x20 MUL ADD PUSH1 0x20 DUP2 ADD SWAP1 PUSH2 0x25BE SWAP2 SWAP1 PUSH2 0x4A0A JUMP JUMPDEST DUP2 SLOAD PUSH1 0x1 DUP2 ADD DUP4 SSTORE PUSH1 0x0 SWAP3 DUP4 MSTORE PUSH1 0x20 SWAP1 SWAP3 KECCAK256 SWAP1 SWAP2 ADD DUP1 SLOAD PUSH1 0x1 PUSH1 0x1 PUSH1 0xA0 SHL SUB NOT AND PUSH1 0x1 PUSH1 0x1 PUSH1 0xA0 SHL SUB SWAP1 SWAP3 AND SWAP2 SWAP1 SWAP2 OR SWAP1 SSTORE JUMPDEST DUP1 PUSH2 0x25FB DUP2 PUSH2 0x5811 JUMP JUMPDEST SWAP2 POP POP PUSH2 0x24C3 JUMP JUMPDEST POP PUSH32 0x1E9E37439D2273FAFA47A6F54F27FFAC0C65726BF94FD2846710E535902062EC DUP3 DUP3 PUSH1 0x40 MLOAD PUSH2 0x2635 SWAP3 SWAP2 SWAP1 PUSH2 0x4C66 JUMP JUMPDEST PUSH1 0x40 MLOAD DUP1 SWAP2 SUB SWAP1 LOG1 POP POP JUMP JUMPDEST PUSH32 0x0 SWAP1 JUMP JUMPDEST CALLER PUSH1 0x0 SWAP1 DUP2 MSTORE PUSH1 0x7 PUSH1 0x20 MSTORE PUSH1 0x40 SWAP1 KECCAK256 SLOAD PUSH1 0xFF AND PUSH2 0x2694 JUMPI PUSH1 0x40 MLOAD PUSH3 0x461BCD PUSH1 0xE5 SHL DUP2 MSTORE PUSH1 0x4 ADD PUSH2 0x505 SWAP1 PUSH2 0x50DD JUMP JUMPDEST PUSH1 0x0 DUP3 DUP2 MSTORE PUSH1 0x4 PUSH1 0x20 MSTORE PUSH1 0x40 SWAP1 KECCAK256 SLOAD DUP3 SWAP1 DUP2 EQ PUSH2 0x26C3 JUMPI PUSH1 0x40 MLOAD PUSH3 0x461BCD PUSH1 0xE5 SHL DUP2 MSTORE PUSH1 0x4 ADD PUSH2 0x505 SWAP1 PUSH2 0x52B4 JUMP JUMPDEST PUSH1 0x0 DUP4 DUP2 MSTORE PUSH1 0x4 PUSH1 0x20 MSTORE PUSH1 0x40 SWAP1 KECCAK256 PUSH1 0xE ADD SLOAD DUP4 SWAP1 PUSH1 0xFF AND ISZERO PUSH2 0x26F7 JUMPI PUSH1 0x40 MLOAD PUSH3 0x461BCD PUSH1 0xE5 SHL DUP2 MSTORE PUSH1 0x4 ADD PUSH2 0x505 SWAP1 PUSH2 0x559C JUMP JUMPDEST PUSH1 0x0 DUP5 DUP2 MSTORE PUSH1 0x4 PUSH1 0x20 MSTORE PUSH1 0x40 DUP2 KECCAK256 SWAP1 PUSH1 0x1 DUP3 ADD SLOAD PUSH1 0xFF AND PUSH1 0x4 DUP2 GT ISZERO PUSH2 0x272D JUMPI PUSH4 0x4E487B71 PUSH1 0xE0 SHL PUSH1 0x0 MSTORE PUSH1 0x21 PUSH1 0x4 MSTORE PUSH1 0x24 PUSH1 0x0 REVERT JUMPDEST EQ PUSH2 0x274A JUMPI PUSH1 0x40 MLOAD PUSH3 0x461BCD PUSH1 0xE5 SHL DUP2 MSTORE PUSH1 0x4 ADD PUSH2 0x505 SWAP1 PUSH2 0x4F89 JUMP JUMPDEST PUSH1 0x2 DUP2 ADD SLOAD PUSH1 0x5 GT PUSH2 0x276E JUMPI PUSH1 0x40 MLOAD PUSH3 0x461BCD PUSH1 0xE5 SHL DUP2 MSTORE PUSH1 0x4 ADD PUSH2 0x505 SWAP1 PUSH2 0x535F JUMP JUMPDEST PUSH1 0x1 PUSH1 0x1 PUSH1 0xA0 SHL SUB DUP5 AND PUSH1 0x0 SWAP1 DUP2 MSTORE PUSH1 0x5 PUSH1 0x20 MSTORE PUSH1 0x40 SWAP1 KECCAK256 SLOAD ISZERO PUSH2 0x27A4 JUMPI PUSH1 0x40 MLOAD PUSH3 0x461BCD PUSH1 0xE5 SHL DUP2 MSTORE PUSH1 0x4 ADD PUSH2 0x505 SWAP1 PUSH2 0x527D JUMP JUMPDEST PUSH1 0x2 DUP2 ADD DUP1 SLOAD PUSH1 0x1 DUP1 DUP3 ADD DUP4 SSTORE PUSH1 0x0 SWAP3 DUP4 MSTORE PUSH1 0x20 DUP1 DUP5 KECCAK256 SWAP1 SWAP3 ADD DUP1 SLOAD PUSH1 0x1 PUSH1 0x1 PUSH1 0xA0 SHL SUB NOT AND PUSH1 0x1 PUSH1 0x1 PUSH1 0xA0 SHL SUB DUP10 AND SWAP1 DUP2 OR SWAP1 SWAP2 SSTORE DUP1 DUP5 MSTORE PUSH1 0x4 DUP1 DUP7 ADD DUP5 MSTORE PUSH1 0x40 DUP1 DUP7 KECCAK256 DUP1 SLOAD PUSH1 0xFF NOT AND DUP6 OR DUP2 SSTORE PUSH1 0x19 DUP2 DUP7 ADD SSTORE TIMESTAMP PUSH1 0x3 DUP1 DUP4 ADD SWAP2 SWAP1 SWAP2 SSTORE SWAP3 DUP2 ADD DUP8 SWAP1 SSTORE PUSH1 0x5 SWAP1 SWAP6 MSTORE DUP1 DUP7 KECCAK256 DUP12 SWAP1 SSTORE SWAP1 DUP7 ADD DUP1 SLOAD SWAP1 SWAP4 ADD SWAP1 SWAP3 SSTORE SWAP1 MLOAD SWAP2 SWAP3 SWAP1 SWAP2 DUP9 SWAP2 PUSH32 0x87969BC7FAF902221A147B95CEBA76E011C5EFB0339A0A8EE7A2BB82D9CFBBD6 SWAP2 LOG3 POP POP POP POP POP POP JUMP JUMPDEST PUSH1 0x60 DUP1 PUSH1 0x60 DUP1 PUSH1 0x60 DUP1 DUP7 DUP1 PUSH1 0x4 PUSH1 0x0 DUP4 DUP2 MSTORE PUSH1 0x20 ADD SWAP1 DUP2 MSTORE PUSH1 0x20 ADD PUSH1 0x0 KECCAK256 PUSH1 0x0 ADD SLOAD EQ PUSH2 0x2891 JUMPI PUSH1 0x40 MLOAD PUSH3 0x461BCD PUSH1 0xE5 SHL DUP2 MSTORE PUSH1 0x4 ADD PUSH2 0x505 SWAP1 PUSH2 0x52B4 JUMP JUMPDEST PUSH1 0x0 DUP9 DUP2 MSTORE PUSH1 0x4 PUSH1 0x20 SWAP1 DUP2 MSTORE PUSH1 0x40 SWAP2 DUP3 SWAP1 KECCAK256 PUSH1 0x2 DUP2 ADD DUP1 SLOAD DUP5 MLOAD DUP2 DUP6 MUL DUP2 ADD DUP6 ADD SWAP1 SWAP6 MSTORE DUP1 DUP6 MSTORE SWAP2 SWAP4 SWAP2 SWAP3 DUP4 SWAP1 DUP4 ADD DUP3 DUP3 DUP1 ISZERO PUSH2 0x28F7 JUMPI PUSH1 0x20 MUL DUP3 ADD SWAP2 SWAP1 PUSH1 0x0 MSTORE PUSH1 0x20 PUSH1 0x0 KECCAK256 SWAP1 JUMPDEST DUP2 SLOAD PUSH1 0x1 PUSH1 0x1 PUSH1 0xA0 SHL SUB AND DUP2 MSTORE PUSH1 0x1 SWAP1 SWAP2 ADD SWAP1 PUSH1 0x20 ADD DUP1 DUP4 GT PUSH2 0x28D9 JUMPI JUMPDEST POP POP POP POP POP SWAP9 POP DUP1 PUSH8 0xFFFFFFFFFFFFFFFF DUP2 GT ISZERO PUSH2 0x2925 JUMPI PUSH4 0x4E487B71 PUSH1 0xE0 SHL PUSH1 0x0 MSTORE PUSH1 0x41 PUSH1 0x4 MSTORE PUSH1 0x24 PUSH1 0x0 REVERT JUMPDEST PUSH1 0x40 MLOAD SWAP1 DUP1 DUP3 MSTORE DUP1 PUSH1 0x20 MUL PUSH1 0x20 ADD DUP3 ADD PUSH1 0x40 MSTORE DUP1 ISZERO PUSH2 0x294E JUMPI DUP2 PUSH1 0x20 ADD PUSH1 0x20 DUP3 MUL DUP1 CALLDATASIZE DUP4 CALLDATACOPY ADD SWAP1 POP JUMPDEST POP SWAP8 POP DUP1 PUSH8 0xFFFFFFFFFFFFFFFF DUP2 GT ISZERO PUSH2 0x2978 JUMPI PUSH4 0x4E487B71 PUSH1 0xE0 SHL PUSH1 0x0 MSTORE PUSH1 0x41 PUSH1 0x4 MSTORE PUSH1 0x24 PUSH1 0x0 REVERT JUMPDEST PUSH1 0x40 MLOAD SWAP1 DUP1 DUP3 MSTORE DUP1 PUSH1 0x20 MUL PUSH1 0x20 ADD DUP3 ADD PUSH1 0x40 MSTORE DUP1 ISZERO PUSH2 0x29A1 JUMPI DUP2 PUSH1 0x20 ADD PUSH1 0x20 DUP3 MUL DUP1 CALLDATASIZE DUP4 CALLDATACOPY ADD SWAP1 POP JUMPDEST POP SWAP7 POP DUP1 PUSH8 0xFFFFFFFFFFFFFFFF DUP2 GT ISZERO PUSH2 0x29CB JUMPI PUSH4 0x4E487B71 PUSH1 0xE0 SHL PUSH1 0x0 MSTORE PUSH1 0x41 PUSH1 0x4 MSTORE PUSH1 0x24 PUSH1 0x0 REVERT JUMPDEST PUSH1 0x40 MLOAD SWAP1 DUP1 DUP3 MSTORE DUP1 PUSH1 0x20 MUL PUSH1 0x20 ADD DUP3 ADD PUSH1 0x40 MSTORE DUP1 ISZERO PUSH2 0x29F4 JUMPI DUP2 PUSH1 0x20 ADD PUSH1 0x20 DUP3 MUL DUP1 CALLDATASIZE DUP4 CALLDATACOPY ADD SWAP1 POP JUMPDEST POP SWAP6 POP DUP1 PUSH8 0xFFFFFFFFFFFFFFFF DUP2 GT ISZERO PUSH2 0x2A1E JUMPI PUSH4 0x4E487B71 PUSH1 0xE0 SHL PUSH1 0x0 MSTORE PUSH1 0x41 PUSH1 0x4 MSTORE PUSH1 0x24 PUSH1 0x0 REVERT JUMPDEST PUSH1 0x40 MLOAD SWAP1 DUP1 DUP3 MSTORE DUP1 PUSH1 0x20 MUL PUSH1 0x20 ADD DUP3 ADD PUSH1 0x40 MSTORE DUP1 ISZERO PUSH2 0x2A47 JUMPI DUP2 PUSH1 0x20 ADD PUSH1 0x20 DUP3 MUL DUP1 CALLDATASIZE DUP4 CALLDATACOPY ADD SWAP1 POP JUMPDEST POP SWAP5 POP DUP1 PUSH8 0xFFFFFFFFFFFFFFFF DUP2 GT ISZERO PUSH2 0x2A71 JUMPI PUSH4 0x4E487B71 PUSH1 0xE0 SHL PUSH1 0x0 MSTORE PUSH1 0x41 PUSH1 0x4 MSTORE PUSH1 0x24 PUSH1 0x0 REVERT JUMPDEST PUSH1 0x40 MLOAD SWAP1 DUP1 DUP3 MSTORE DUP1 PUSH1 0x20 MUL PUSH1 0x20 ADD DUP3 ADD PUSH1 0x40 MSTORE DUP1 ISZERO PUSH2 0x2A9A JUMPI DUP2 PUSH1 0x20 ADD PUSH1 0x20 DUP3 MUL DUP1 CALLDATASIZE DUP4 CALLDATACOPY ADD SWAP1 POP JUMPDEST POP SWAP4 POP PUSH1 0x0 JUMPDEST DUP2 DUP2 LT ISZERO PUSH2 0x2C1E JUMPI PUSH1 0x0 DUP11 DUP3 DUP2 MLOAD DUP2 LT PUSH2 0x2ACA JUMPI PUSH4 0x4E487B71 PUSH1 0xE0 SHL PUSH1 0x0 MSTORE PUSH1 0x32 PUSH1 0x4 MSTORE PUSH1 0x24 PUSH1 0x0 REVERT JUMPDEST PUSH1 0x20 SWAP1 DUP2 MUL SWAP2 SWAP1 SWAP2 ADD DUP2 ADD MLOAD PUSH1 0x1 PUSH1 0x1 PUSH1 0xA0 SHL SUB DUP2 AND PUSH1 0x0 SWAP1 DUP2 MSTORE PUSH1 0x4 DUP8 ADD SWAP1 SWAP3 MSTORE PUSH1 0x40 SWAP1 SWAP2 KECCAK256 DUP1 SLOAD DUP13 MLOAD SWAP3 SWAP4 POP SWAP1 SWAP2 PUSH1 0xFF SWAP1 SWAP2 AND SWAP1 DUP13 SWAP1 DUP6 SWAP1 DUP2 LT PUSH2 0x2B20 JUMPI PUSH4 0x4E487B71 PUSH1 0xE0 SHL PUSH1 0x0 MSTORE PUSH1 0x32 PUSH1 0x4 MSTORE PUSH1 0x24 PUSH1 0x0 REVERT JUMPDEST PUSH1 0x20 MUL PUSH1 0x20 ADD ADD SWAP1 ISZERO ISZERO SWAP1 DUP2 ISZERO ISZERO DUP2 MSTORE POP POP DUP1 PUSH1 0x0 ADD PUSH1 0x3 SWAP1 SLOAD SWAP1 PUSH2 0x100 EXP SWAP1 DIV PUSH1 0xFF AND DUP11 DUP5 DUP2 MLOAD DUP2 LT PUSH2 0x2B64 JUMPI PUSH4 0x4E487B71 PUSH1 0xE0 SHL PUSH1 0x0 MSTORE PUSH1 0x32 PUSH1 0x4 MSTORE PUSH1 0x24 PUSH1 0x0 REVERT JUMPDEST PUSH1 0x20 MUL PUSH1 0x20 ADD ADD SWAP1 ISZERO ISZERO SWAP1 DUP2 ISZERO ISZERO DUP2 MSTORE POP POP DUP1 PUSH1 0x1 ADD SLOAD DUP10 DUP5 DUP2 MLOAD DUP2 LT PUSH2 0x2B9B JUMPI PUSH4 0x4E487B71 PUSH1 0xE0 SHL PUSH1 0x0 MSTORE PUSH1 0x32 PUSH1 0x4 MSTORE PUSH1 0x24 PUSH1 0x0 REVERT JUMPDEST PUSH1 0x20 MUL PUSH1 0x20 ADD ADD DUP2 DUP2 MSTORE POP POP DUP1 PUSH1 0x2 ADD SLOAD DUP9 DUP5 DUP2 MLOAD DUP2 LT PUSH2 0x2BCC JUMPI PUSH4 0x4E487B71 PUSH1 0xE0 SHL PUSH1 0x0 MSTORE PUSH1 0x32 PUSH1 0x4 MSTORE PUSH1 0x24 PUSH1 0x0 REVERT JUMPDEST PUSH1 0x20 MUL PUSH1 0x20 ADD ADD DUP2 DUP2 MSTORE POP POP DUP1 PUSH1 0x4 ADD SLOAD DUP8 DUP5 DUP2 MLOAD DUP2 LT PUSH2 0x2BFD JUMPI PUSH4 0x4E487B71 PUSH1 0xE0 SHL PUSH1 0x0 MSTORE PUSH1 0x32 PUSH1 0x4 MSTORE PUSH1 0x24 PUSH1 0x0 REVERT JUMPDEST PUSH1 0x20 MUL PUSH1 0x20 ADD ADD DUP2 DUP2 MSTORE POP POP POP POP DUP1 DUP1 PUSH2 0x2C16 SWAP1 PUSH2 0x5811 JUMP JUMPDEST SWAP2 POP POP PUSH2 0x2AA0 JUMP JUMPDEST POP POP POP POP SWAP2 SWAP4 SWAP6 POP SWAP2 SWAP4 SWAP6 JUMP JUMPDEST PUSH1 0x0 DUP2 DUP2 MSTORE PUSH1 0x4 PUSH1 0x20 MSTORE PUSH1 0x40 DUP2 KECCAK256 SLOAD DUP3 SWAP1 DUP2 EQ PUSH2 0x2C5A JUMPI PUSH1 0x40 MLOAD PUSH3 0x461BCD PUSH1 0xE5 SHL DUP2 MSTORE PUSH1 0x4 ADD PUSH2 0x505 SWAP1 PUSH2 0x52B4 JUMP JUMPDEST POP POP PUSH1 0x0 SWAP1 DUP2 MSTORE PUSH1 0x4 PUSH1 0x20 MSTORE PUSH1 0x40 SWAP1 KECCAK256 PUSH1 0x3 ADD SLOAD SWAP1 JUMP JUMPDEST PUSH1 0x0 DUP2 DUP2 MSTORE PUSH1 0x4 PUSH1 0x20 MSTORE PUSH1 0x40 SWAP1 KECCAK256 SLOAD DUP2 SWAP1 DUP2 EQ PUSH2 0x2CA0 JUMPI PUSH1 0x40 MLOAD PUSH3 0x461BCD PUSH1 0xE5 SHL DUP2 MSTORE PUSH1 0x4 ADD PUSH2 0x505 SWAP1 PUSH2 0x52B4 JUMP JUMPDEST PUSH1 0x0 DUP3 DUP2 MSTORE PUSH1 0x4 PUSH1 0x20 DUP2 DUP2 MSTORE PUSH1 0x40 DUP1 DUP5 KECCAK256 CALLER DUP6 MSTORE SWAP1 SWAP3 ADD SWAP1 MSTORE SWAP1 KECCAK256 SLOAD DUP3 SWAP1 PUSH1 0xFF AND PUSH2 0x2CDD JUMPI PUSH1 0x40 MLOAD PUSH3 0x461BCD PUSH1 0xE5 SHL DUP2 MSTORE PUSH1 0x4 ADD PUSH2 0x505 SWAP1 PUSH2 0x504F JUMP JUMPDEST PUSH1 0x0 DUP4 DUP2 MSTORE PUSH1 0x4 PUSH1 0x20 MSTORE PUSH1 0x40 SWAP1 KECCAK256 PUSH1 0xC ADD SLOAD DUP4 SWAP1 TIMESTAMP LT ISZERO PUSH2 0x2D10 JUMPI PUSH1 0x40 MLOAD PUSH3 0x461BCD PUSH1 0xE5 SHL DUP2 MSTORE PUSH1 0x4 ADD PUSH2 0x505 SWAP1 PUSH2 0x53AE JUMP JUMPDEST PUSH1 0x0 DUP5 DUP2 MSTORE PUSH1 0x4 PUSH1 0x20 MSTORE PUSH1 0x40 SWAP1 KECCAK256 PUSH1 0xE ADD SLOAD DUP5 SWAP1 PUSH1 0xFF AND ISZERO PUSH2 0x2D44 JUMPI PUSH1 0x40 MLOAD PUSH3 0x461BCD PUSH1 0xE5 SHL DUP2 MSTORE PUSH1 0x4 ADD PUSH2 0x505 SWAP1 PUSH2 0x559C JUMP JUMPDEST PUSH1 0x0 DUP6 DUP2 MSTORE PUSH1 0x4 PUSH1 0x20 DUP2 DUP2 MSTORE PUSH1 0x40 DUP1 DUP5 KECCAK256 CALLER DUP6 MSTORE SWAP3 DUP4 ADD SWAP1 SWAP2 MSTORE SWAP1 SWAP2 KECCAK256 PUSH1 0x1 DUP1 DUP4 ADD SLOAD PUSH1 0xFF AND PUSH1 0x4 DUP2 GT ISZERO PUSH2 0x2D89 JUMPI PUSH4 0x4E487B71 PUSH1 0xE0 SHL PUSH1 0x0 MSTORE PUSH1 0x21 PUSH1 0x4 MSTORE PUSH1 0x24 PUSH1 0x0 REVERT JUMPDEST EQ PUSH2 0x2DA6 JUMPI PUSH1 0x40 MLOAD PUSH3 0x461BCD PUSH1 0xE5 SHL DUP2 MSTORE PUSH1 0x4 ADD PUSH2 0x505 SWAP1 PUSH2 0x5255 JUMP JUMPDEST DUP2 PUSH1 0xB ADD SLOAD TIMESTAMP LT PUSH2 0x2DC9 JUMPI PUSH1 0x40 MLOAD PUSH3 0x461BCD PUSH1 0xE5 SHL DUP2 MSTORE PUSH1 0x4 ADD PUSH2 0x505 SWAP1 PUSH2 0x4FB9 JUMP JUMPDEST DUP1 SLOAD PUSH3 0x10000 SWAP1 DIV PUSH1 0xFF AND ISZERO PUSH2 0x2DF1 JUMPI PUSH1 0x40 MLOAD PUSH3 0x461BCD PUSH1 0xE5 SHL DUP2 MSTORE PUSH1 0x4 ADD PUSH2 0x505 SWAP1 PUSH2 0x507A JUMP JUMPDEST PUSH1 0x7 DUP2 PUSH1 0x1 ADD SLOAD LT ISZERO PUSH2 0x2E16 JUMPI PUSH1 0x40 MLOAD PUSH3 0x461BCD PUSH1 0xE5 SHL DUP2 MSTORE PUSH1 0x4 ADD PUSH2 0x505 SWAP1 PUSH2 0x50B1 JUMP JUMPDEST PUSH1 0x1 DUP2 DUP2 ADD DUP1 SLOAD PUSH1 0x6 NOT ADD SWAP1 SSTORE DUP2 SLOAD PUSH3 0xFF0000 NOT AND PUSH3 0x10000 OR DUP3 SSTORE TIMESTAMP PUSH1 0x3 DUP4 ADD SSTORE PUSH1 0x4 DUP3 ADD DUP1 SLOAD SWAP1 SWAP2 ADD SWAP1 SSTORE PUSH1 0x40 DUP1 MLOAD PUSH1 0x2 DUP1 DUP3 MSTORE PUSH1 0x60 DUP3 ADD DUP4 MSTORE PUSH1 0x0 SWAP3 PUSH1 0x20 DUP4 ADD SWAP1 DUP1 CALLDATASIZE DUP4 CALLDATACOPY POP POP PUSH1 0x40 DUP1 MLOAD PUSH1 0x2 DUP1 DUP3 MSTORE PUSH1 0x60 DUP3 ADD DUP4 MSTORE SWAP4 SWAP5 POP PUSH1 0x0 SWAP4 SWAP1 SWAP3 POP SWAP1 PUSH1 0x20 DUP4 ADD SWAP1 DUP1 CALLDATASIZE DUP4 CALLDATACOPY POP POP PUSH1 0x40 DUP1 MLOAD PUSH1 0x2 DUP1 DUP3 MSTORE PUSH1 0x60 DUP3 ADD DUP4 MSTORE SWAP4 SWAP5 POP PUSH1 0x0 SWAP4 SWAP1 SWAP3 POP SWAP1 PUSH1 0x20 DUP4 ADD SWAP1 DUP1 CALLDATASIZE DUP4 CALLDATACOPY ADD SWAP1 POP POP SWAP1 POP PUSH2 0x2EBA DUP11 PUSH1 0x2 DUP6 DUP6 DUP6 PUSH2 0x3F52 JUMP JUMPDEST PUSH1 0x0 JUMPDEST PUSH1 0x2 PUSH1 0xFF DUP3 AND LT ISZERO PUSH2 0x2FCA JUMPI PUSH1 0x0 DUP3 DUP3 PUSH1 0xFF AND DUP2 MLOAD DUP2 LT PUSH2 0x2EEE JUMPI PUSH4 0x4E487B71 PUSH1 0xE0 SHL PUSH1 0x0 MSTORE PUSH1 0x32 PUSH1 0x4 MSTORE PUSH1 0x24 PUSH1 0x0 REVERT JUMPDEST PUSH1 0x20 MUL PUSH1 0x20 ADD ADD MLOAD PUSH1 0xFF AND GT PUSH2 0x2F16 JUMPI PUSH1 0x40 MLOAD PUSH3 0x461BCD PUSH1 0xE5 SHL DUP2 MSTORE PUSH1 0x4 ADD PUSH2 0x505 SWAP1 PUSH2 0x5101 JUMP JUMPDEST PUSH2 0x2F4A DUP12 DUP4 DUP4 PUSH1 0xFF AND DUP2 MLOAD DUP2 LT PUSH2 0x2F3D JUMPI PUSH4 0x4E487B71 PUSH1 0xE0 SHL PUSH1 0x0 MSTORE PUSH1 0x32 PUSH1 0x4 MSTORE PUSH1 0x24 PUSH1 0x0 REVERT JUMPDEST PUSH1 0x20 MUL PUSH1 0x20 ADD ADD MLOAD PUSH2 0x3A23 JUMP JUMPDEST ISZERO PUSH2 0x2F67 JUMPI PUSH1 0x40 MLOAD PUSH3 0x461BCD PUSH1 0xE5 SHL DUP2 MSTORE PUSH1 0x4 ADD PUSH2 0x505 SWAP1 PUSH2 0x4FE3 JUMP JUMPDEST PUSH2 0x2F9B DUP12 DUP4 DUP4 PUSH1 0xFF AND DUP2 MLOAD DUP2 LT PUSH2 0x2F8E JUMPI PUSH4 0x4E487B71 PUSH1 0xE0 SHL PUSH1 0x0 MSTORE PUSH1 0x32 PUSH1 0x4 MSTORE PUSH1 0x24 PUSH1 0x0 REVERT JUMPDEST PUSH1 0x20 MUL PUSH1 0x20 ADD ADD MLOAD PUSH2 0x3A46 JUMP JUMPDEST ISZERO PUSH2 0x2FB8 JUMPI PUSH1 0x40 MLOAD PUSH3 0x461BCD PUSH1 0xE5 SHL DUP2 MSTORE PUSH1 0x4 ADD PUSH2 0x505 SWAP1 PUSH2 0x5422 JUMP JUMPDEST DUP1 PUSH2 0x2FC2 DUP2 PUSH2 0x582C JUMP JUMPDEST SWAP2 POP POP PUSH2 0x2EBD JUMP JUMPDEST POP PUSH1 0x0 JUMPDEST PUSH1 0x2 PUSH1 0xFF DUP3 AND LT ISZERO PUSH2 0x3056 JUMPI PUSH1 0x0 DUP3 DUP3 PUSH1 0xFF AND DUP2 MLOAD DUP2 LT PUSH2 0x2FFF JUMPI PUSH4 0x4E487B71 PUSH1 0xE0 SHL PUSH1 0x0 MSTORE PUSH1 0x32 PUSH1 0x4 MSTORE PUSH1 0x24 PUSH1 0x0 REVERT JUMPDEST PUSH1 0x20 MUL PUSH1 0x20 ADD ADD MLOAD PUSH1 0xFF AND GT ISZERO PUSH2 0x3044 JUMPI PUSH2 0x3044 DUP12 DUP4 DUP4 PUSH1 0xFF AND DUP2 MLOAD DUP2 LT PUSH2 0x3037 JUMPI PUSH4 0x4E487B71 PUSH1 0xE0 SHL PUSH1 0x0 MSTORE PUSH1 0x32 PUSH1 0x4 MSTORE PUSH1 0x24 PUSH1 0x0 REVERT JUMPDEST PUSH1 0x20 MUL PUSH1 0x20 ADD ADD MLOAD PUSH2 0x431D JUMP JUMPDEST DUP1 PUSH2 0x304E DUP2 PUSH2 0x582C JUMP JUMPDEST SWAP2 POP POP PUSH2 0x2FCE JUMP JUMPDEST POP CALLER PUSH1 0x1 PUSH1 0x1 PUSH1 0xA0 SHL SUB AND PUSH32 0x6F8687DD1640E050BB18E188B1E58202E179C438A474793A246D4CA06AA56ABD DUP5 DUP5 PUSH1 0x40 MLOAD PUSH2 0x3092 SWAP3 SWAP2 SWAP1 PUSH2 0x4D9D JUMP JUMPDEST PUSH1 0x40 MLOAD DUP1 SWAP2 SUB SWAP1 LOG2 CALLER PUSH1 0x1 PUSH1 0x1 PUSH1 0xA0 SHL SUB AND DUP11 PUSH1 0x0 DUP1 MLOAD PUSH1 0x20 PUSH2 0x58A3 DUP4 CODECOPY DUP2 MLOAD SWAP2 MSTORE PUSH1 0x7 DUP8 PUSH1 0x4 ADD SLOAD PUSH1 0x40 MLOAD PUSH2 0x30C9 SWAP3 SWAP2 SWAP1 PUSH2 0x556C JUMP JUMPDEST PUSH1 0x40 MLOAD DUP1 SWAP2 SUB SWAP1 LOG3 POP POP POP POP POP POP POP POP POP POP JUMP JUMPDEST PUSH1 0x0 DUP2 DUP2 MSTORE PUSH1 0x4 PUSH1 0x20 MSTORE PUSH1 0x40 DUP2 KECCAK256 SLOAD DUP3 SWAP1 DUP2 EQ PUSH2 0x310C JUMPI PUSH1 0x40 MLOAD PUSH3 0x461BCD PUSH1 0xE5 SHL DUP2 MSTORE PUSH1 0x4 ADD PUSH2 0x505 SWAP1 PUSH2 0x52B4 JUMP JUMPDEST PUSH1 0x0 DUP4 DUP2 MSTORE PUSH1 0x4 PUSH1 0x20 MSTORE PUSH1 0x40 SWAP1 KECCAK256 PUSH1 0x2 PUSH1 0x1 DUP3 ADD SLOAD PUSH1 0xFF AND PUSH1 0x4 DUP2 GT ISZERO PUSH2 0x3143 JUMPI PUSH4 0x4E487B71 PUSH1 0xE0 SHL PUSH1 0x0 MSTORE PUSH1 0x21 PUSH1 0x4 MSTORE PUSH1 0x24 PUSH1 0x0 REVERT JUMPDEST EQ PUSH2 0x3152 JUMPI PUSH1 0x0 SWAP3 POP POP PUSH2 0x154F JUMP JUMPDEST PUSH1 0x0 JUMPDEST PUSH1 0x2 DUP3 ADD SLOAD DUP2 LT ISZERO PUSH2 0x320F JUMPI PUSH1 0x0 DUP3 PUSH1 0x2 ADD DUP3 DUP2 SLOAD DUP2 LT PUSH2 0x3186 JUMPI PUSH4 0x4E487B71 PUSH1 0xE0 SHL PUSH1 0x0 MSTORE PUSH1 0x32 PUSH1 0x4 MSTORE PUSH1 0x24 PUSH1 0x0 REVERT JUMPDEST PUSH1 0x0 SWAP2 DUP3 MSTORE PUSH1 0x20 DUP1 DUP4 KECCAK256 SWAP1 SWAP2 ADD SLOAD PUSH1 0x1 PUSH1 0x1 PUSH1 0xA0 SHL SUB AND DUP1 DUP4 MSTORE PUSH1 0x4 DUP7 ADD SWAP1 SWAP2 MSTORE PUSH1 0x40 SWAP1 SWAP2 KECCAK256 SLOAD SWAP1 SWAP2 POP PUSH1 0xFF PUSH4 0x1000000 SWAP1 SWAP2 DIV AND ISZERO PUSH2 0x31C6 JUMPI POP PUSH2 0x31FD JUMP JUMPDEST PUSH1 0x9 DUP4 ADD SLOAD PUSH1 0x1 PUSH1 0x1 PUSH1 0xA0 SHL SUB DUP3 AND PUSH1 0x0 SWAP1 DUP2 MSTORE PUSH1 0x4 DUP6 ADD PUSH1 0x20 MSTORE PUSH1 0x40 SWAP1 KECCAK256 PUSH1 0x2 ADD SLOAD LT ISZERO PUSH2 0x31FB JUMPI PUSH1 0x0 SWAP5 POP POP POP POP PUSH2 0x154F JUMP JUMPDEST POP JUMPDEST DUP1 PUSH2 0x3207 DUP2 PUSH2 0x5811 JUMP JUMPDEST SWAP2 POP POP PUSH2 0x3155 JUMP JUMPDEST POP PUSH1 0x1 SWAP5 SWAP4 POP POP POP POP JUMP JUMPDEST PUSH1 0x0 DUP2 DUP2 MSTORE PUSH1 0x4 PUSH1 0x20 MSTORE PUSH1 0x40 SWAP1 KECCAK256 SLOAD DUP2 SWAP1 DUP2 EQ PUSH2 0x3249 JUMPI PUSH1 0x40 MLOAD PUSH3 0x461BCD PUSH1 0xE5 SHL DUP2 MSTORE PUSH1 0x4 ADD PUSH2 0x505 SWAP1 PUSH2 0x52B4 JUMP JUMPDEST PUSH1 0x0 DUP3 DUP2 MSTORE PUSH1 0x4 PUSH1 0x20 DUP2 DUP2 MSTORE PUSH1 0x40 DUP1 DUP5 KECCAK256 CALLER DUP6 MSTORE SWAP1 SWAP3 ADD SWAP1 MSTORE SWAP1 KECCAK256 SLOAD DUP3 SWAP1 PUSH1 0xFF AND PUSH2 0x3286 JUMPI PUSH1 0x40 MLOAD PUSH3 0x461BCD PUSH1 0xE5 SHL DUP2 MSTORE PUSH1 0x4 ADD PUSH2 0x505 SWAP1 PUSH2 0x504F JUMP JUMPDEST PUSH1 0x0 DUP4 DUP2 MSTORE PUSH1 0x4 PUSH1 0x20 MSTORE PUSH1 0x40 SWAP1 KECCAK256 PUSH1 0xC ADD SLOAD DUP4 SWAP1 TIMESTAMP LT ISZERO PUSH2 0x32B9 JUMPI PUSH1 0x40 MLOAD PUSH3 0x461BCD PUSH1 0xE5 SHL DUP2 MSTORE PUSH1 0x4 ADD PUSH2 0x505 SWAP1 PUSH2 0x53AE JUMP JUMPDEST PUSH1 0x0 DUP5 DUP2 MSTORE PUSH1 0x4 PUSH1 0x20 MSTORE PUSH1 0x40 SWAP1 KECCAK256 PUSH1 0xE ADD SLOAD DUP5 SWAP1 PUSH1 0xFF AND ISZERO PUSH2 0x32ED JUMPI PUSH1 0x40 MLOAD PUSH3 0x461BCD PUSH1 0xE5 SHL DUP2 MSTORE PUSH1 0x4 ADD PUSH2 0x505 SWAP1 PUSH2 0x559C JUMP JUMPDEST PUSH1 0x0 DUP6 DUP2 MSTORE PUSH1 0x4 PUSH1 0x20 DUP2 DUP2 MSTORE PUSH1 0x40 DUP1 DUP5 KECCAK256 CALLER DUP6 MSTORE SWAP3 DUP4 ADD SWAP1 SWAP2 MSTORE SWAP1 SWAP2 KECCAK256 PUSH1 0x2 PUSH1 0x1 DUP4 ADD SLOAD PUSH1 0xFF AND PUSH1 0x4 DUP2 GT ISZERO PUSH2 0x3333 JUMPI PUSH4 0x4E487B71 PUSH1 0xE0 SHL PUSH1 0x0 MSTORE PUSH1 0x21 PUSH1 0x4 MSTORE PUSH1 0x24 PUSH1 0x0 REVERT JUMPDEST EQ PUSH2 0x3350 JUMPI PUSH1 0x40 MLOAD PUSH3 0x461BCD PUSH1 0xE5 SHL DUP2 MSTORE PUSH1 0x4 ADD PUSH2 0x505 SWAP1 PUSH2 0x5191 JUMP JUMPDEST DUP2 PUSH1 0xB ADD SLOAD TIMESTAMP LT PUSH2 0x3373 JUMPI PUSH1 0x40 MLOAD PUSH3 0x461BCD PUSH1 0xE5 SHL DUP2 MSTORE PUSH1 0x4 ADD PUSH2 0x505 SWAP1 PUSH2 0x5688 JUMP JUMPDEST DUP1 SLOAD PUSH4 0x1000000 SWAP1 DIV PUSH1 0xFF AND ISZERO PUSH2 0x339C JUMPI PUSH1 0x40 MLOAD PUSH3 0x461BCD PUSH1 0xE5 SHL DUP2 MSTORE PUSH1 0x4 ADD PUSH2 0x505 SWAP1 PUSH2 0x5519 JUMP JUMPDEST PUSH1 0x4 DUP2 ADD DUP1 SLOAD PUSH1 0x1 ADD DUP2 SSTORE DUP2 SLOAD PUSH4 0xFF000000 NOT AND PUSH4 0x1000000 OR DUP3 SSTORE TIMESTAMP PUSH1 0x3 DUP1 DUP5 ADD SWAP2 SWAP1 SWAP2 SSTORE DUP4 ADD DUP1 SLOAD PUSH1 0x0 NOT ADD SWAP1 SSTORE SLOAD PUSH1 0x40 MLOAD CALLER SWAP2 DUP10 SWAP2 PUSH1 0x0 DUP1 MLOAD PUSH1 0x20 PUSH2 0x58A3 DUP4 CODECOPY DUP2 MLOAD SWAP2 MSTORE SWAP2 PUSH2 0x33F1 SWAP2 PUSH1 0x0 SWAP2 SWAP1 PUSH2 0x522A JUMP JUMPDEST PUSH1 0x40 MLOAD DUP1 SWAP2 SUB SWAP1 LOG3 PUSH1 0x1 DUP3 ADD SLOAD PUSH1 0x8 DUP4 ADD SLOAD PUSH1 0x9 DUP5 ADD SLOAD PUSH1 0xD DUP6 ADD SLOAD PUSH1 0x40 MLOAD DUP12 SWAP5 PUSH1 0x0 DUP1 MLOAD PUSH1 0x20 PUSH2 0x5883 DUP4 CODECOPY DUP2 MLOAD SWAP2 MSTORE SWAP5 PUSH2 0x3433 SWAP5 PUSH1 0xFF SWAP1 SWAP3 AND SWAP4 SWAP1 SWAP3 PUSH2 0x4E44 JUMP JUMPDEST PUSH1 0x40 MLOAD DUP1 SWAP2 SUB SWAP1 LOG2 DUP2 PUSH1 0x3 ADD SLOAD PUSH1 0x1 EQ ISZERO PUSH2 0x346A JUMPI PUSH1 0x0 PUSH2 0x3453 DUP9 PUSH2 0x4352 JUMP JUMPDEST SWAP1 POP PUSH2 0x345E DUP9 PUSH2 0x3DE3 JUMP JUMPDEST PUSH2 0x3468 DUP9 DUP3 PUSH2 0x4402 JUMP JUMPDEST POP JUMPDEST POP POP POP POP POP POP POP JUMP JUMPDEST CALLER PUSH1 0x1 PUSH1 0x1 PUSH1 0xA0 SHL SUB PUSH32 0x0 AND EQ PUSH2 0x34BB JUMPI PUSH1 0x40 MLOAD PUSH3 0x461BCD PUSH1 0xE5 SHL DUP2 MSTORE PUSH1 0x4 ADD PUSH2 0x505 SWAP1 PUSH2 0x53D8 JUMP JUMPDEST PUSH1 0x0 DUP1 SLOAD PUSH1 0x1 PUSH1 0x1 PUSH1 0xA0 SHL SUB NOT AND PUSH1 0x1 PUSH1 0x1 PUSH1 0xA0 SHL SUB SWAP3 SWAP1 SWAP3 AND SWAP2 SWAP1 SWAP2 OR SWAP1 SSTORE JUMP JUMPDEST PUSH1 0x0 SLOAD PUSH1 0x1 PUSH1 0x1 PUSH1 0xA0 SHL SUB AND DUP2 JUMP JUMPDEST PUSH1 0x0 DUP2 DUP2 MSTORE PUSH1 0x4 PUSH1 0x20 MSTORE PUSH1 0x40 SWAP1 KECCAK256 SLOAD DUP2 SWAP1 DUP2 EQ PUSH2 0x351B JUMPI PUSH1 0x40 MLOAD PUSH3 0x461BCD PUSH1 0xE5 SHL DUP2 MSTORE PUSH1 0x4 ADD PUSH2 0x505 SWAP1 PUSH2 0x52B4 JUMP JUMPDEST PUSH1 0x0 DUP3 DUP2 MSTORE PUSH1 0x4 PUSH1 0x20 MSTORE PUSH1 0x40 SWAP1 KECCAK256 PUSH1 0xE ADD SLOAD DUP3 SWAP1 PUSH1 0xFF AND ISZERO PUSH2 0x354F JUMPI PUSH1 0x40 MLOAD PUSH3 0x461BCD PUSH1 0xE5 SHL DUP2 MSTORE PUSH1 0x4 ADD PUSH2 0x505 SWAP1 PUSH2 0x559C JUMP JUMPDEST PUSH1 0x0 DUP4 DUP2 MSTORE PUSH1 0x4 PUSH1 0x20 MSTORE PUSH1 0x40 DUP2 KECCAK256 SWAP1 PUSH1 0x1 DUP3 ADD SLOAD PUSH1 0xFF AND PUSH1 0x4 DUP2 GT ISZERO PUSH2 0x3585 JUMPI PUSH4 0x4E487B71 PUSH1 0xE0 SHL PUSH1 0x0 MSTORE PUSH1 0x21 PUSH1 0x4 MSTORE PUSH1 0x24 PUSH1 0x0 REVERT JUMPDEST EQ PUSH2 0x35A2 JUMPI PUSH1 0x40 MLOAD PUSH3 0x461BCD PUSH1 0xE5 SHL DUP2 MSTORE PUSH1 0x4 ADD PUSH2 0x505 SWAP1 PUSH2 0x4F89 JUMP JUMPDEST PUSH1 0x2 DUP2 ADD SLOAD PUSH1 0x5 GT PUSH2 0x35C6 JUMPI PUSH1 0x40 MLOAD PUSH3 0x461BCD PUSH1 0xE5 SHL DUP2 MSTORE PUSH1 0x4 ADD PUSH2 0x505 SWAP1 PUSH2 0x535F JUMP JUMPDEST CALLER PUSH1 0x0 SWAP1 DUP2 MSTORE PUSH1 0x5 PUSH1 0x20 MSTORE PUSH1 0x40 SWAP1 KECCAK256 SLOAD ISZERO PUSH2 0x35F3 JUMPI PUSH1 0x40 MLOAD PUSH3 0x461BCD PUSH1 0xE5 SHL DUP2 MSTORE PUSH1 0x4 ADD PUSH2 0x505 SWAP1 PUSH2 0x5541 JUMP JUMPDEST PUSH1 0x2 DUP2 ADD DUP1 SLOAD PUSH1 0x1 DUP2 DUP2 ADD DUP4 SSTORE PUSH1 0x0 SWAP3 DUP4 MSTORE PUSH1 0x20 DUP1 DUP5 KECCAK256 SWAP1 SWAP3 ADD DUP1 SLOAD PUSH1 0x1 PUSH1 0x1 PUSH1 0xA0 SHL SUB NOT AND CALLER SWAP1 DUP2 OR SWAP1 SWAP2 SSTORE DUP1 DUP5 MSTORE PUSH1 0x4 DUP1 DUP7 ADD DUP5 MSTORE PUSH1 0x40 DUP1 DUP7 KECCAK256 DUP1 SLOAD PUSH1 0xFF NOT AND DUP6 OR DUP2 SSTORE PUSH1 0x19 DUP2 DUP7 ADD SSTORE TIMESTAMP PUSH1 0x3 DUP1 DUP4 ADD SWAP2 SWAP1 SWAP2 SSTORE SWAP3 DUP2 ADD DUP8 SWAP1 SSTORE PUSH1 0x5 SWAP1 SWAP6 MSTORE DUP1 DUP7 KECCAK256 DUP11 SWAP1 SSTORE SWAP1 DUP7 ADD DUP1 SLOAD SWAP1 SWAP4 ADD SWAP1 SWAP3 SSTORE SWAP1 MLOAD SWAP2 SWAP3 SWAP1 SWAP2 DUP8 SWAP2 PUSH32 0x87969BC7FAF902221A147B95CEBA76E011C5EFB0339A0A8EE7A2BB82D9CFBBD6 SWAP2 LOG3 POP POP POP POP POP JUMP JUMPDEST PUSH1 0x0 DUP1 PUSH1 0x0 DUP1 PUSH1 0x0 DUP1 PUSH1 0x0 DUP1 PUSH1 0x0 DUP10 DUP1 PUSH1 0x4 PUSH1 0x0 DUP4 DUP2 MSTORE PUSH1 0x20 ADD SWAP1 DUP2 MSTORE PUSH1 0x20 ADD PUSH1 0x0 KECCAK256 PUSH1 0x0 ADD SLOAD EQ PUSH2 0x36DB JUMPI PUSH1 0x40 MLOAD PUSH3 0x461BCD PUSH1 0xE5 SHL DUP2 MSTORE PUSH1 0x4 ADD PUSH2 0x505 SWAP1 PUSH2 0x52B4 JUMP JUMPDEST POP POP POP PUSH1 0x0 SWAP8 DUP9 MSTORE POP POP PUSH1 0x4 PUSH1 0x20 MSTORE POP POP PUSH1 0x40 SWAP1 SWAP4 KECCAK256 PUSH1 0x1 DUP2 ADD SLOAD PUSH1 0x8 DUP3 ADD SLOAD PUSH1 0x9 DUP4 ADD SLOAD PUSH1 0xB DUP5 ADD SLOAD PUSH1 0xC DUP6 ADD SLOAD PUSH1 0x2 DUP7 ADD SLOAD PUSH1 0x3 DUP8 ADD SLOAD PUSH1 0xD DUP9 ADD SLOAD PUSH1 0xE SWAP1 SWAP9 ADD SLOAD PUSH1 0xFF SWAP8 DUP9 AND SWAP13 SWAP7 SWAP12 POP SWAP5 SWAP10 POP SWAP3 SWAP8 POP SWAP1 SWAP6 SWAP1 SWAP5 SWAP2 SWAP4 SWAP1 SWAP3 SWAP1 SWAP2 AND SWAP1 JUMP JUMPDEST CALLER PUSH1 0x1 PUSH1 0x1 PUSH1 0xA0 SHL SUB PUSH32 0x0 AND EQ PUSH2 0x3784 JUMPI PUSH1 0x40 MLOAD PUSH3 0x461BCD PUSH1 0xE5 SHL DUP2 MSTORE PUSH1 0x4 ADD PUSH2 0x505 SWAP1 PUSH2 0x53D8 JUMP JUMPDEST PUSH1 0x0 JUMPDEST DUP2 DUP2 LT ISZERO PUSH2 0x3860 JUMPI PUSH1 0x1 PUSH1 0x0 DUP5 DUP5 DUP5 DUP2 DUP2 LT PUSH2 0x37B3 JUMPI PUSH4 0x4E487B71 PUSH1 0xE0 SHL PUSH1 0x0 MSTORE PUSH1 0x32 PUSH1 0x4 MSTORE PUSH1 0x24 PUSH1 0x0 REVERT JUMPDEST SWAP1 POP PUSH1 0x20 MUL ADD PUSH1 0x20 DUP2 ADD SWAP1 PUSH2 0x37C8 SWAP2 SWAP1 PUSH2 0x4A0A JUMP JUMPDEST PUSH1 0x1 PUSH1 0x1 PUSH1 0xA0 SHL SUB AND DUP2 MSTORE PUSH1 0x20 DUP2 ADD SWAP2 SWAP1 SWAP2 MSTORE PUSH1 0x40 ADD PUSH1 0x0 KECCAK256 SLOAD PUSH1 0xFF AND ISZERO PUSH2 0x384E JUMPI PUSH1 0x0 PUSH1 0x1 PUSH1 0x0 DUP6 DUP6 DUP6 DUP2 DUP2 LT PUSH2 0x3810 JUMPI PUSH4 0x4E487B71 PUSH1 0xE0 SHL PUSH1 0x0 MSTORE PUSH1 0x32 PUSH1 0x4 MSTORE PUSH1 0x24 PUSH1 0x0 REVERT JUMPDEST SWAP1 POP PUSH1 0x20 MUL ADD PUSH1 0x20 DUP2 ADD SWAP1 PUSH2 0x3825 SWAP2 SWAP1 PUSH2 0x4A0A JUMP JUMPDEST PUSH1 0x1 PUSH1 0x1 PUSH1 0xA0 SHL SUB AND DUP2 MSTORE PUSH1 0x20 DUP2 ADD SWAP2 SWAP1 SWAP2 MSTORE PUSH1 0x40 ADD PUSH1 0x0 KECCAK256 DUP1 SLOAD PUSH1 0xFF NOT AND SWAP2 ISZERO ISZERO SWAP2 SWAP1 SWAP2 OR SWAP1 SSTORE JUMPDEST DUP1 PUSH2 0x3858 DUP2 PUSH2 0x5811 JUMP JUMPDEST SWAP2 POP POP PUSH2 0x3787 JUMP JUMPDEST POP PUSH32 0xA907E2461CC5DAD6C99BDB07FF6B11DAFDF6752F8A1377E2070277D17D5E7F75 DUP3 DUP3 PUSH1 0x40 MLOAD PUSH2 0x2635 SWAP3 SWAP2 SWAP1 PUSH2 0x4C66 JUMP JUMPDEST PUSH1 0x0 DUP3 DUP2 MSTORE PUSH1 0x4 PUSH1 0x20 MSTORE PUSH1 0x40 SWAP1 KECCAK256 PUSH1 0x6 ADD SLOAD PUSH2 0x38AE SWAP1 DUP3 PUSH2 0x4553 JUMP JUMPDEST PUSH1 0x0 SWAP3 DUP4 MSTORE PUSH1 0x4 PUSH1 0x20 MSTORE PUSH1 0x40 SWAP1 SWAP3 KECCAK256 PUSH1 0x6 ADD SWAP2 SWAP1 SWAP2 SSTORE POP JUMP JUMPDEST PUSH1 0x0 DUP2 DUP2 MSTORE PUSH1 0x4 PUSH1 0x20 SWAP1 DUP2 MSTORE PUSH1 0x40 DUP1 DUP4 KECCAK256 DUP2 MLOAD PUSH1 0x34 DUP1 DUP3 MSTORE PUSH2 0x6A0 DUP3 ADD SWAP1 SWAP4 MSTORE SWAP1 SWAP3 DUP5 SWAP3 SWAP1 DUP3 ADD PUSH2 0x680 DUP1 CALLDATASIZE DUP4 CALLDATACOPY ADD SWAP1 POP POP SWAP1 POP PUSH1 0x0 DUP1 JUMPDEST PUSH1 0x5 DUP5 ADD SLOAD PUSH1 0xFF DUP3 AND LT ISZERO PUSH2 0x3988 JUMPI PUSH2 0x3918 DUP7 DUP3 PUSH2 0x3A23 JUMP JUMPDEST ISZERO DUP1 ISZERO PUSH2 0x392C JUMPI POP PUSH2 0x392A DUP7 DUP3 PUSH2 0x3A46 JUMP JUMPDEST ISZERO JUMPDEST ISZERO PUSH2 0x3976 JUMPI DUP1 DUP4 DUP4 PUSH2 0xFFFF AND DUP2 MLOAD DUP2 LT PUSH2 0x3956 JUMPI PUSH4 0x4E487B71 PUSH1 0xE0 SHL PUSH1 0x0 MSTORE PUSH1 0x32 PUSH1 0x4 MSTORE PUSH1 0x24 PUSH1 0x0 REVERT JUMPDEST PUSH1 0xFF SWAP1 SWAP3 AND PUSH1 0x20 SWAP3 DUP4 MUL SWAP2 SWAP1 SWAP2 ADD SWAP1 SWAP2 ADD MSTORE DUP2 PUSH2 0x3972 DUP2 PUSH2 0x57EF JUMP JUMPDEST SWAP3 POP POP JUMPDEST DUP1 PUSH2 0x3980 DUP2 PUSH2 0x582C JUMP JUMPDEST SWAP2 POP POP PUSH2 0x38FF JUMP JUMPDEST POP PUSH1 0x0 DUP2 PUSH2 0xFFFF AND GT PUSH2 0x39AD JUMPI PUSH1 0x40 MLOAD PUSH3 0x461BCD PUSH1 0xE5 SHL DUP2 MSTORE PUSH1 0x4 ADD PUSH2 0x505 SWAP1 PUSH2 0x51BC JUMP JUMPDEST PUSH1 0x0 DUP2 PUSH2 0xFFFF AND DIFFICULTY TIMESTAMP PUSH1 0x40 MLOAD PUSH1 0x20 ADD PUSH2 0x39C7 SWAP3 SWAP2 SWAP1 PUSH2 0x4C21 JUMP JUMPDEST PUSH1 0x40 MLOAD PUSH1 0x20 DUP2 DUP4 SUB SUB DUP2 MSTORE SWAP1 PUSH1 0x40 MSTORE DUP1 MLOAD SWAP1 PUSH1 0x20 ADD KECCAK256 PUSH1 0x0 SHR PUSH2 0x39EA SWAP2 SWAP1 PUSH2 0x584C JUMP JUMPDEST SWAP1 POP DUP3 DUP2 PUSH2 0xFFFF AND DUP2 MLOAD DUP2 LT PUSH2 0x3A10 JUMPI PUSH4 0x4E487B71 PUSH1 0xE0 SHL PUSH1 0x0 MSTORE PUSH1 0x32 PUSH1 0x4 MSTORE PUSH1 0x24 PUSH1 0x0 REVERT JUMPDEST PUSH1 0x20 MUL PUSH1 0x20 ADD ADD MLOAD SWAP5 POP POP POP POP POP SWAP2 SWAP1 POP JUMP JUMPDEST PUSH1 0x0 DUP3 DUP2 MSTORE PUSH1 0x4 PUSH1 0x20 MSTORE PUSH1 0x40 DUP2 KECCAK256 PUSH1 0x6 ADD SLOAD PUSH2 0x3A3F SWAP1 DUP4 PUSH2 0x4561 JUMP JUMPDEST SWAP4 SWAP3 POP POP POP JUMP JUMPDEST PUSH1 0x0 DUP3 DUP2 MSTORE PUSH1 0x4 PUSH1 0x20 MSTORE PUSH1 0x40 DUP2 KECCAK256 PUSH1 0x7 ADD SLOAD PUSH2 0x3A3F SWAP1 DUP4 PUSH2 0x4561 JUMP JUMPDEST PUSH1 0x0 DUP3 DUP2 MSTORE PUSH1 0x4 PUSH1 0x20 MSTORE PUSH1 0x40 SWAP1 KECCAK256 PUSH1 0x6 ADD SLOAD PUSH2 0x38AE SWAP1 DUP3 PUSH2 0x4570 JUMP JUMPDEST PUSH1 0x0 SWAP1 DUP2 MSTORE PUSH1 0x4 PUSH1 0x20 MSTORE PUSH1 0x40 SWAP1 KECCAK256 PUSH1 0xD ADD DUP1 SLOAD PUSH1 0x1 ADD SWAP1 SSTORE JUMP JUMPDEST PUSH1 0x0 JUMPDEST PUSH1 0x6 SLOAD DUP2 LT ISZERO PUSH2 0x3B8A JUMPI DUP2 PUSH1 0x6 DUP3 DUP2 SLOAD DUP2 LT PUSH2 0x3AC7 JUMPI PUSH4 0x4E487B71 PUSH1 0xE0 SHL PUSH1 0x0 MSTORE PUSH1 0x32 PUSH1 0x4 MSTORE PUSH1 0x24 PUSH1 0x0 REVERT JUMPDEST SWAP1 PUSH1 0x0 MSTORE PUSH1 0x20 PUSH1 0x0 KECCAK256 ADD SLOAD EQ ISZERO PUSH2 0x3B78 JUMPI PUSH1 0x6 DUP1 SLOAD PUSH2 0x3AE8 SWAP1 PUSH1 0x1 SWAP1 PUSH2 0x5780 JUMP JUMPDEST DUP2 SLOAD DUP2 LT PUSH2 0x3B06 JUMPI PUSH4 0x4E487B71 PUSH1 0xE0 SHL PUSH1 0x0 MSTORE PUSH1 0x32 PUSH1 0x4 MSTORE PUSH1 0x24 PUSH1 0x0 REVERT JUMPDEST SWAP1 PUSH1 0x0 MSTORE PUSH1 0x20 PUSH1 0x0 KECCAK256 ADD SLOAD PUSH1 0x6 DUP3 DUP2 SLOAD DUP2 LT PUSH2 0x3B32 JUMPI PUSH4 0x4E487B71 PUSH1 0xE0 SHL PUSH1 0x0 MSTORE PUSH1 0x32 PUSH1 0x4 MSTORE PUSH1 0x24 PUSH1 0x0 REVERT JUMPDEST PUSH1 0x0 SWAP2 DUP3 MSTORE PUSH1 0x20 SWAP1 SWAP2 KECCAK256 ADD SSTORE PUSH1 0x6 DUP1 SLOAD DUP1 PUSH2 0x3B5D JUMPI PUSH4 0x4E487B71 PUSH1 0xE0 SHL PUSH1 0x0 MSTORE PUSH1 0x31 PUSH1 0x4 MSTORE PUSH1 0x24 PUSH1 0x0 REVERT JUMPDEST PUSH1 0x1 SWAP1 SUB DUP2 DUP2 SWAP1 PUSH1 0x0 MSTORE PUSH1 0x20 PUSH1 0x0 KECCAK256 ADD PUSH1 0x0 SWAP1 SSTORE SWAP1 SSTORE PUSH2 0x3B8A JUMP JUMPDEST DUP1 PUSH2 0x3B82 DUP2 PUSH2 0x5811 JUMP JUMPDEST SWAP2 POP POP PUSH2 0x3A9B JUMP JUMPDEST POP POP JUMP JUMPDEST PUSH1 0x0 DUP2 DUP2 MSTORE PUSH1 0x4 PUSH1 0x20 MSTORE PUSH1 0x40 DUP2 KECCAK256 SWAP1 PUSH2 0x3BAB SWAP1 PUSH1 0x5 DUP4 ADD SWAP1 PUSH2 0x499D JUMP JUMPDEST PUSH1 0x40 DUP1 MLOAD PUSH1 0x34 DUP1 DUP3 MSTORE PUSH2 0x6A0 DUP3 ADD SWAP1 SWAP3 MSTORE PUSH1 0x0 SWAP2 DUP2 PUSH1 0x20 ADD JUMPDEST PUSH2 0x3BCC PUSH2 0x49BE JUMP JUMPDEST DUP2 MSTORE PUSH1 0x20 ADD SWAP1 PUSH1 0x1 SWAP1 SUB SWAP1 DUP2 PUSH2 0x3BC4 JUMPI SWAP1 POP POP SWAP1 POP PUSH1 0x0 DUP1 JUMPDEST PUSH1 0x4 DUP2 PUSH1 0xFF AND LT ISZERO PUSH2 0x3C7C JUMPI PUSH1 0x2 JUMPDEST PUSH1 0xE DUP2 PUSH1 0xFF AND GT PUSH2 0x3C69 JUMPI PUSH1 0x40 MLOAD DUP1 PUSH1 0x40 ADD PUSH1 0x40 MSTORE DUP1 DUP3 PUSH1 0xFF AND DUP2 MSTORE PUSH1 0x20 ADD DUP4 PUSH1 0xFF AND DUP2 MSTORE POP DUP5 DUP5 PUSH1 0xFF AND DUP2 MLOAD DUP2 LT PUSH2 0x3C3D JUMPI PUSH4 0x4E487B71 PUSH1 0xE0 SHL PUSH1 0x0 MSTORE PUSH1 0x32 PUSH1 0x4 MSTORE PUSH1 0x24 PUSH1 0x0 REVERT JUMPDEST PUSH1 0x20 MUL PUSH1 0x20 ADD ADD DUP2 SWAP1 MSTORE POP DUP3 DUP1 PUSH2 0x3C53 SWAP1 PUSH2 0x582C JUMP JUMPDEST SWAP4 POP POP DUP1 DUP1 PUSH2 0x3C61 SWAP1 PUSH2 0x582C JUMP JUMPDEST SWAP2 POP POP PUSH2 0x3BF4 JUMP JUMPDEST POP DUP1 PUSH2 0x3C74 DUP2 PUSH2 0x582C JUMP JUMPDEST SWAP2 POP POP PUSH2 0x3BE5 JUMP JUMPDEST POP PUSH1 0x0 PUSH2 0x3C88 DUP4 PUSH2 0x457D JUMP JUMPDEST SWAP1 POP PUSH1 0x0 JUMPDEST PUSH1 0x34 DUP2 LT ISZERO PUSH2 0x8FA JUMPI DUP5 PUSH1 0x5 ADD DUP3 DUP3 DUP2 MLOAD DUP2 LT PUSH2 0x3CBA JUMPI PUSH4 0x4E487B71 PUSH1 0xE0 SHL PUSH1 0x0 MSTORE PUSH1 0x32 PUSH1 0x4 MSTORE PUSH1 0x24 PUSH1 0x0 REVERT JUMPDEST PUSH1 0x20 SWAP1 DUP2 MUL SWAP2 SWAP1 SWAP2 ADD DUP2 ADD MLOAD DUP3 SLOAD PUSH1 0x1 DUP2 ADD DUP5 SSTORE PUSH1 0x0 SWAP4 DUP5 MSTORE SWAP3 DUP3 SWAP1 KECCAK256 DUP2 MLOAD SWAP4 ADD DUP1 SLOAD SWAP2 SWAP1 SWAP3 ADD MLOAD PUSH1 0xFF SWAP1 DUP2 AND PUSH2 0x100 MUL PUSH2 0xFF00 NOT SWAP2 SWAP1 SWAP5 AND PUSH1 0xFF NOT SWAP1 SWAP3 AND SWAP2 SWAP1 SWAP2 OR AND SWAP2 SWAP1 SWAP2 OR SWAP1 SSTORE DUP1 PUSH2 0x3D0E DUP2 PUSH2 0x5811 JUMP JUMPDEST SWAP2 POP POP PUSH2 0x3C8D JUMP JUMPDEST PUSH1 0x0 DUP2 DUP2 MSTORE PUSH1 0x4 PUSH1 0x20 MSTORE PUSH1 0x40 SWAP1 KECCAK256 PUSH2 0x3D2D DUP3 PUSH2 0x46A7 JUMP JUMPDEST PUSH1 0x0 JUMPDEST PUSH1 0x2 DUP3 ADD SLOAD DUP2 LT ISZERO PUSH2 0x3DC1 JUMPI PUSH1 0x0 DUP3 PUSH1 0x2 ADD DUP3 DUP2 SLOAD DUP2 LT PUSH2 0x3D61 JUMPI PUSH4 0x4E487B71 PUSH1 0xE0 SHL PUSH1 0x0 MSTORE PUSH1 0x32 PUSH1 0x4 MSTORE PUSH1 0x24 PUSH1 0x0 REVERT JUMPDEST PUSH1 0x0 SWAP2 DUP3 MSTORE PUSH1 0x20 DUP1 DUP4 KECCAK256 SWAP2 SWAP1 SWAP2 ADD SLOAD PUSH1 0x1 PUSH1 0x1 PUSH1 0xA0 SHL SUB AND DUP1 DUP4 MSTORE PUSH1 0x4 DUP7 ADD SWAP1 SWAP2 MSTORE PUSH1 0x40 SWAP1 SWAP2 KECCAK256 DUP1 SLOAD PUSH5 0xFF00000000 NOT AND PUSH1 0x1 PUSH1 0x20 SHL PUSH1 0xFF DUP7 AND MUL OR SWAP1 SSTORE SWAP1 POP DUP2 PUSH2 0x3DAC DUP6 DUP3 PUSH2 0x3A62 JUMP JUMPDEST POP POP DUP1 DUP1 PUSH2 0x3DB9 SWAP1 PUSH2 0x5811 JUMP JUMPDEST SWAP2 POP POP PUSH2 0x3D30 JUMP JUMPDEST POP POP POP JUMP JUMPDEST PUSH2 0x3DCE PUSH2 0x46C4 JUMP JUMPDEST PUSH1 0x0 SWAP2 DUP3 MSTORE PUSH1 0x4 PUSH1 0x20 MSTORE PUSH1 0x40 SWAP1 SWAP2 KECCAK256 PUSH1 0x7 ADD SSTORE JUMP JUMPDEST PUSH1 0x0 DUP2 DUP2 MSTORE PUSH1 0x4 PUSH1 0x20 MSTORE PUSH1 0x40 SWAP1 KECCAK256 PUSH1 0x1 DUP2 ADD DUP1 SLOAD PUSH1 0xFF NOT AND PUSH1 0x3 OR SWAP1 SSTORE PUSH2 0x3E09 DUP3 PUSH2 0x3A7E JUMP JUMPDEST PUSH1 0x40 MLOAD DUP3 SWAP1 PUSH32 0xCFEAA304021CFD684AD30C51A76FFD4139EB4B36C6E97D94CCE4DF46B71EE977 SWAP1 PUSH1 0x0 SWAP1 LOG2 PUSH1 0x8 DUP2 ADD SLOAD PUSH1 0x9 DUP3 ADD SLOAD PUSH1 0xD DUP4 ADD SLOAD PUSH1 0x40 MLOAD DUP6 SWAP4 PUSH1 0x0 DUP1 MLOAD PUSH1 0x20 PUSH2 0x5883 DUP4 CODECOPY DUP2 MLOAD SWAP2 MSTORE SWAP4 PUSH2 0x3E64 SWAP4 PUSH1 0x3 SWAP4 PUSH2 0x4E44 JUMP JUMPDEST PUSH1 0x40 MLOAD DUP1 SWAP2 SUB SWAP1 LOG2 PUSH2 0x3B8A DUP3 PUSH2 0x46C9 JUMP JUMPDEST PUSH1 0x0 DUP3 DUP2 MSTORE PUSH1 0x4 PUSH1 0x20 SWAP1 DUP2 MSTORE PUSH1 0x40 DUP1 DUP4 KECCAK256 PUSH1 0x1 PUSH1 0x1 PUSH1 0xA0 SHL SUB DUP6 AND DUP5 MSTORE PUSH1 0x5 SWAP1 SWAP3 MSTORE SWAP1 SWAP2 KECCAK256 SLOAD ISZERO PUSH2 0x3EA6 JUMPI POP PUSH2 0x3B8A JUMP JUMPDEST PUSH1 0x2 DUP2 ADD DUP1 SLOAD PUSH1 0x1 DUP1 DUP3 ADD DUP4 SSTORE PUSH1 0x0 SWAP3 DUP4 MSTORE PUSH1 0x20 DUP1 DUP5 KECCAK256 SWAP1 SWAP3 ADD DUP1 SLOAD PUSH1 0x1 PUSH1 0x1 PUSH1 0xA0 SHL SUB NOT AND PUSH1 0x1 PUSH1 0x1 PUSH1 0xA0 SHL SUB DUP8 AND SWAP1 DUP2 OR SWAP1 SWAP2 SSTORE DUP1 DUP5 MSTORE PUSH1 0x4 DUP1 DUP7 ADD DUP5 MSTORE PUSH1 0x40 DUP1 DUP7 KECCAK256 DUP1 SLOAD PUSH1 0xFF NOT AND DUP6 OR DUP2 SSTORE PUSH1 0x19 DUP2 DUP7 ADD SSTORE TIMESTAMP PUSH1 0x3 DUP1 DUP4 ADD SWAP2 SWAP1 SWAP2 SSTORE SWAP3 DUP2 ADD DUP8 SWAP1 SSTORE PUSH1 0x5 SWAP1 SWAP6 MSTORE DUP1 DUP7 KECCAK256 DUP10 SWAP1 SSTORE SWAP1 DUP7 ADD DUP1 SLOAD SWAP1 SWAP4 ADD SWAP1 SWAP3 SSTORE SWAP1 MLOAD SWAP2 SWAP3 SWAP1 SWAP2 DUP7 SWAP2 PUSH32 0x87969BC7FAF902221A147B95CEBA76E011C5EFB0339A0A8EE7A2BB82D9CFBBD6 SWAP2 LOG3 POP POP POP POP JUMP JUMPDEST PUSH1 0x0 DUP6 DUP2 MSTORE PUSH1 0x4 PUSH1 0x20 MSTORE PUSH1 0x40 DUP1 DUP3 KECCAK256 DUP2 MLOAD PUSH1 0x34 DUP1 DUP3 MSTORE PUSH2 0x6A0 DUP3 ADD SWAP1 SWAP4 MSTORE SWAP1 SWAP3 SWAP2 DUP2 PUSH1 0x20 ADD PUSH1 0x20 DUP3 MUL DUP1 CALLDATASIZE DUP4 CALLDATACOPY ADD SWAP1 POP POP SWAP1 POP PUSH1 0x0 DUP1 JUMPDEST PUSH1 0x5 DUP5 ADD SLOAD PUSH1 0xFF DUP3 AND LT ISZERO PUSH2 0x4012 JUMPI PUSH2 0x3FA2 DUP10 DUP3 PUSH2 0x3A23 JUMP JUMPDEST ISZERO DUP1 ISZERO PUSH2 0x3FB6 JUMPI POP PUSH2 0x3FB4 DUP10 DUP3 PUSH2 0x3A46 JUMP JUMPDEST ISZERO JUMPDEST ISZERO PUSH2 0x4000 JUMPI DUP1 DUP4 DUP4 PUSH2 0xFFFF AND DUP2 MLOAD DUP2 LT PUSH2 0x3FE0 JUMPI PUSH4 0x4E487B71 PUSH1 0xE0 SHL PUSH1 0x0 MSTORE PUSH1 0x32 PUSH1 0x4 MSTORE PUSH1 0x24 PUSH1 0x0 REVERT JUMPDEST PUSH1 0xFF SWAP1 SWAP3 AND PUSH1 0x20 SWAP3 DUP4 MUL SWAP2 SWAP1 SWAP2 ADD SWAP1 SWAP2 ADD MSTORE DUP2 PUSH2 0x3FFC DUP2 PUSH2 0x57EF JUMP JUMPDEST SWAP3 POP POP JUMPDEST DUP1 PUSH2 0x400A DUP2 PUSH2 0x582C JUMP JUMPDEST SWAP2 POP POP PUSH2 0x3F89 JUMP JUMPDEST POP PUSH1 0x0 DUP8 PUSH1 0xFF AND DUP3 PUSH2 0xFFFF AND LT PUSH2 0x4029 JUMPI DUP8 PUSH2 0x402B JUMP JUMPDEST DUP2 JUMPDEST SWAP1 POP DIFFICULTY PUSH1 0x0 JUMPDEST DUP3 PUSH1 0xFF AND DUP2 PUSH1 0xFF AND LT ISZERO PUSH2 0x4244 JUMPI PUSH1 0x0 DUP5 PUSH2 0xFFFF AND DUP4 DUP4 TIMESTAMP PUSH1 0x40 MLOAD PUSH1 0x20 ADD PUSH2 0x405B SWAP4 SWAP3 SWAP2 SWAP1 PUSH2 0x4C2F JUMP JUMPDEST PUSH1 0x40 MLOAD PUSH1 0x20 DUP2 DUP4 SUB SUB DUP2 MSTORE SWAP1 PUSH1 0x40 MSTORE DUP1 MLOAD SWAP1 PUSH1 0x20 ADD KECCAK256 PUSH1 0x0 SHR PUSH2 0x407E SWAP2 SWAP1 PUSH2 0x584C JUMP JUMPDEST SWAP1 POP PUSH1 0x0 DUP7 DUP3 PUSH2 0xFFFF AND DUP2 MLOAD DUP2 LT PUSH2 0x40A6 JUMPI PUSH4 0x4E487B71 PUSH1 0xE0 SHL PUSH1 0x0 MSTORE PUSH1 0x32 PUSH1 0x4 MSTORE PUSH1 0x24 PUSH1 0x0 REVERT JUMPDEST PUSH1 0x20 MUL PUSH1 0x20 ADD ADD MLOAD SWAP1 POP PUSH1 0x0 DUP9 PUSH1 0x5 ADD DUP3 PUSH1 0xFF AND DUP2 SLOAD DUP2 LT PUSH2 0x40D8 JUMPI PUSH4 0x4E487B71 PUSH1 0xE0 SHL PUSH1 0x0 MSTORE PUSH1 0x32 PUSH1 0x4 MSTORE PUSH1 0x24 PUSH1 0x0 REVERT JUMPDEST PUSH1 0x0 SWAP2 DUP3 MSTORE PUSH1 0x20 SWAP2 DUP3 SWAP1 KECCAK256 PUSH1 0x40 DUP1 MLOAD DUP1 DUP3 ADD SWAP1 SWAP2 MSTORE SWAP2 ADD SLOAD PUSH1 0xFF DUP1 DUP3 AND DUP1 DUP5 MSTORE PUSH2 0x100 SWAP1 SWAP3 DIV DUP2 AND SWAP4 DUP4 ADD SWAP4 SWAP1 SWAP4 MSTORE DUP15 MLOAD SWAP2 SWAP4 POP SWAP2 DUP15 SWAP2 SWAP1 DUP8 AND SWAP1 DUP2 LT PUSH2 0x412F JUMPI PUSH4 0x4E487B71 PUSH1 0xE0 SHL PUSH1 0x0 MSTORE PUSH1 0x32 PUSH1 0x4 MSTORE PUSH1 0x24 PUSH1 0x0 REVERT JUMPDEST PUSH1 0x20 MUL PUSH1 0x20 ADD ADD SWAP1 PUSH1 0xFF AND SWAP1 DUP2 PUSH1 0xFF AND DUP2 MSTORE POP POP DUP1 PUSH1 0x20 ADD MLOAD DUP12 DUP6 PUSH1 0xFF AND DUP2 MLOAD DUP2 LT PUSH2 0x416B JUMPI PUSH4 0x4E487B71 PUSH1 0xE0 SHL PUSH1 0x0 MSTORE PUSH1 0x32 PUSH1 0x4 MSTORE PUSH1 0x24 PUSH1 0x0 REVERT JUMPDEST PUSH1 0x20 MUL PUSH1 0x20 ADD ADD SWAP1 PUSH1 0xFF AND SWAP1 DUP2 PUSH1 0xFF AND DUP2 MSTORE POP POP DUP2 DUP11 DUP6 PUSH1 0xFF AND DUP2 MLOAD DUP2 LT PUSH2 0x41A3 JUMPI PUSH4 0x4E487B71 PUSH1 0xE0 SHL PUSH1 0x0 MSTORE PUSH1 0x32 PUSH1 0x4 MSTORE PUSH1 0x24 PUSH1 0x0 REVERT JUMPDEST PUSH1 0xFF SWAP1 SWAP3 AND PUSH1 0x20 SWAP3 DUP4 MUL SWAP2 SWAP1 SWAP2 ADD SWAP1 SWAP2 ADD MSTORE DUP8 PUSH2 0x41C1 PUSH1 0x1 DUP10 PUSH2 0x575D JUMP JUMPDEST PUSH2 0xFFFF AND DUP2 MLOAD DUP2 LT PUSH2 0x41E3 JUMPI PUSH4 0x4E487B71 PUSH1 0xE0 SHL PUSH1 0x0 MSTORE PUSH1 0x32 PUSH1 0x4 MSTORE PUSH1 0x24 PUSH1 0x0 REVERT JUMPDEST PUSH1 0x20 MUL PUSH1 0x20 ADD ADD MLOAD DUP9 DUP5 PUSH2 0xFFFF AND DUP2 MLOAD DUP2 LT PUSH2 0x420F JUMPI PUSH4 0x4E487B71 PUSH1 0xE0 SHL PUSH1 0x0 MSTORE PUSH1 0x32 PUSH1 0x4 MSTORE PUSH1 0x24 PUSH1 0x0 REVERT JUMPDEST PUSH1 0xFF SWAP1 SWAP3 AND PUSH1 0x20 SWAP3 DUP4 MUL SWAP2 SWAP1 SWAP2 ADD SWAP1 SWAP2 ADD MSTORE DUP7 PUSH2 0x422B DUP2 PUSH2 0x57BA JUMP JUMPDEST SWAP8 POP POP POP POP POP DUP1 DUP1 PUSH2 0x423C SWAP1 PUSH2 0x582C JUMP JUMPDEST SWAP2 POP POP PUSH2 0x4031 JUMP JUMPDEST POP DUP2 JUMPDEST DUP10 PUSH1 0xFF AND DUP2 PUSH1 0xFF AND LT ISZERO PUSH2 0x4310 JUMPI PUSH1 0x0 DUP10 DUP3 PUSH1 0xFF AND DUP2 MLOAD DUP2 LT PUSH2 0x427A JUMPI PUSH4 0x4E487B71 PUSH1 0xE0 SHL PUSH1 0x0 MSTORE PUSH1 0x32 PUSH1 0x4 MSTORE PUSH1 0x24 PUSH1 0x0 REVERT JUMPDEST PUSH1 0x20 MUL PUSH1 0x20 ADD ADD SWAP1 PUSH1 0xFF AND SWAP1 DUP2 PUSH1 0xFF AND DUP2 MSTORE POP POP PUSH1 0x0 DUP9 DUP3 PUSH1 0xFF AND DUP2 MLOAD DUP2 LT PUSH2 0x42B3 JUMPI PUSH4 0x4E487B71 PUSH1 0xE0 SHL PUSH1 0x0 MSTORE PUSH1 0x32 PUSH1 0x4 MSTORE PUSH1 0x24 PUSH1 0x0 REVERT JUMPDEST PUSH1 0x20 MUL PUSH1 0x20 ADD ADD SWAP1 PUSH1 0xFF AND SWAP1 DUP2 PUSH1 0xFF AND DUP2 MSTORE POP POP PUSH1 0x0 DUP8 DUP3 PUSH1 0xFF AND DUP2 MLOAD DUP2 LT PUSH2 0x42EC JUMPI PUSH4 0x4E487B71 PUSH1 0xE0 SHL PUSH1 0x0 MSTORE PUSH1 0x32 PUSH1 0x4 MSTORE PUSH1 0x24 PUSH1 0x0 REVERT JUMPDEST PUSH1 0xFF SWAP1 SWAP3 AND PUSH1 0x20 SWAP3 DUP4 MUL SWAP2 SWAP1 SWAP2 ADD SWAP1 SWAP2 ADD MSTORE DUP1 PUSH2 0x4308 DUP2 PUSH2 0x582C JUMP JUMPDEST SWAP2 POP POP PUSH2 0x4247 JUMP JUMPDEST POP POP POP POP POP POP POP POP POP POP POP JUMP JUMPDEST PUSH1 0x0 DUP3 DUP2 MSTORE PUSH1 0x4 PUSH1 0x20 MSTORE PUSH1 0x40 SWAP1 KECCAK256 PUSH1 0x7 ADD SLOAD PUSH2 0x4339 SWAP1 DUP3 PUSH2 0x4570 JUMP JUMPDEST PUSH1 0x0 SWAP3 DUP4 MSTORE PUSH1 0x4 PUSH1 0x20 MSTORE PUSH1 0x40 SWAP1 SWAP3 KECCAK256 PUSH1 0x7 ADD SWAP2 SWAP1 SWAP2 SSTORE POP JUMP JUMPDEST PUSH1 0x0 DUP2 DUP2 MSTORE PUSH1 0x4 PUSH1 0x20 MSTORE PUSH1 0x40 DUP2 KECCAK256 DUP2 JUMPDEST PUSH1 0x2 DUP3 ADD SLOAD DUP2 LT ISZERO PUSH2 0x43E9 JUMPI PUSH1 0x0 DUP3 PUSH1 0x2 ADD DUP3 DUP2 SLOAD DUP2 LT PUSH2 0x4393 JUMPI PUSH4 0x4E487B71 PUSH1 0xE0 SHL PUSH1 0x0 MSTORE PUSH1 0x32 PUSH1 0x4 MSTORE PUSH1 0x24 PUSH1 0x0 REVERT JUMPDEST PUSH1 0x0 SWAP2 DUP3 MSTORE PUSH1 0x20 DUP1 DUP4 KECCAK256 SWAP1 SWAP2 ADD SLOAD PUSH1 0x1 PUSH1 0x1 PUSH1 0xA0 SHL SUB AND DUP1 DUP4 MSTORE PUSH1 0x4 DUP7 ADD SWAP1 SWAP2 MSTORE PUSH1 0x40 SWAP1 SWAP2 KECCAK256 SLOAD SWAP1 SWAP2 POP PUSH1 0xFF PUSH4 0x1000000 SWAP1 SWAP2 DIV AND PUSH2 0x43D6 JUMPI SWAP3 POP PUSH2 0x19A7 SWAP2 POP POP JUMP JUMPDEST POP DUP1 PUSH2 0x43E1 DUP2 PUSH2 0x5811 JUMP JUMPDEST SWAP2 POP POP PUSH2 0x4362 JUMP JUMPDEST POP PUSH1 0x40 MLOAD PUSH3 0x461BCD PUSH1 0xE5 SHL DUP2 MSTORE PUSH1 0x4 ADD PUSH2 0x505 SWAP1 PUSH2 0x5018 JUMP JUMPDEST PUSH1 0x0 DUP3 DUP2 MSTORE PUSH1 0x4 PUSH1 0x20 DUP2 DUP2 MSTORE PUSH1 0x40 DUP1 DUP5 KECCAK256 PUSH1 0x8 DUP2 ADD SLOAD PUSH1 0x1 PUSH1 0x1 PUSH1 0xA0 SHL SUB DUP8 AND DUP7 MSTORE DUP2 DUP6 ADD SWAP1 SWAP4 MSTORE SWAP4 KECCAK256 PUSH1 0x1 SWAP1 DUP2 ADD DUP1 SLOAD SWAP1 SWAP3 ADD SWAP1 SWAP2 SSTORE DUP3 ADD DUP1 SLOAD PUSH1 0xFF NOT AND SWAP1 SWAP2 OR SWAP1 SSTORE PUSH2 0x444F DUP4 PUSH2 0x3A7E JUMP JUMPDEST PUSH1 0x0 DUP2 PUSH1 0x8 ADD SLOAD SWAP1 POP DUP3 PUSH1 0x1 PUSH1 0x1 PUSH1 0xA0 SHL SUB AND DUP5 PUSH32 0xF1898DE79C348962FAB7695532341027E5BCEB0EA2A8785790FA7D7EFEEEE129 DUP4 PUSH1 0x40 MLOAD PUSH2 0x4492 SWAP2 SWAP1 PUSH2 0x56EC JUMP JUMPDEST PUSH1 0x40 MLOAD DUP1 SWAP2 SUB SWAP1 LOG3 DUP4 PUSH1 0x0 DUP1 MLOAD PUSH1 0x20 PUSH2 0x5883 DUP4 CODECOPY DUP2 MLOAD SWAP2 MSTORE PUSH1 0x4 DUP4 DUP6 PUSH1 0x9 ADD SLOAD DUP7 PUSH1 0xD ADD SLOAD PUSH1 0x40 MLOAD PUSH2 0x44C7 SWAP5 SWAP4 SWAP3 SWAP2 SWAP1 PUSH2 0x4E44 JUMP JUMPDEST PUSH1 0x40 MLOAD DUP1 SWAP2 SUB SWAP1 LOG2 PUSH1 0x0 SLOAD PUSH1 0x1 PUSH1 0x1 PUSH1 0xA0 SHL SUB AND ISZERO PUSH2 0x453F JUMPI PUSH1 0x0 SLOAD PUSH1 0x40 MLOAD PUSH4 0x7A0E3605 PUSH1 0xE1 SHL DUP2 MSTORE PUSH1 0x1 PUSH1 0x1 PUSH1 0xA0 SHL SUB SWAP1 SWAP2 AND SWAP1 PUSH4 0xF41C6C0A SWAP1 PUSH2 0x4512 SWAP1 DUP8 SWAP1 DUP8 SWAP1 PUSH1 0x4 ADD PUSH2 0x56F5 JUMP JUMPDEST PUSH1 0x0 PUSH1 0x40 MLOAD DUP1 DUP4 SUB DUP2 PUSH1 0x0 DUP8 DUP1 EXTCODESIZE ISZERO DUP1 ISZERO PUSH2 0x452C JUMPI PUSH1 0x0 DUP1 REVERT JUMPDEST POP GAS CALL SWAP3 POP POP POP DUP1 ISZERO PUSH2 0x453D JUMPI POP PUSH1 0x1 JUMPDEST POP JUMPDEST POP PUSH1 0x0 PUSH1 0x8 DUP3 ADD DUP2 SWAP1 SSTORE PUSH1 0x9 SWAP1 SWAP2 ADD SSTORE POP POP JUMP JUMPDEST PUSH1 0x1 PUSH1 0xFF SWAP2 SWAP1 SWAP2 AND SHL NOT AND SWAP1 JUMP JUMPDEST PUSH1 0x1 PUSH1 0xFF SWAP2 SWAP1 SWAP2 AND SHL AND ISZERO ISZERO SWAP1 JUMP JUMPDEST PUSH1 0x1 PUSH1 0xFF SWAP2 SWAP1 SWAP2 AND SHL OR SWAP1 JUMP JUMPDEST PUSH1 0x60 DIFFICULTY PUSH1 0x0 PUSH2 0x458E PUSH1 0x1 PUSH1 0x34 PUSH2 0x5797 JUMP JUMPDEST PUSH1 0xFF AND SWAP1 POP JUMPDEST DUP1 ISZERO PUSH2 0x469F JUMPI PUSH1 0x0 PUSH2 0x45A7 DUP3 PUSH1 0x1 PUSH2 0x5745 JUMP JUMPDEST DUP4 DUP4 PUSH1 0x40 MLOAD PUSH1 0x20 ADD PUSH2 0x45BA SWAP3 SWAP2 SWAP1 PUSH2 0x4C21 JUMP JUMPDEST PUSH1 0x40 MLOAD PUSH1 0x20 DUP2 DUP4 SUB SUB DUP2 MSTORE SWAP1 PUSH1 0x40 MSTORE DUP1 MLOAD SWAP1 PUSH1 0x20 ADD KECCAK256 PUSH1 0x0 SHR PUSH2 0x45DD SWAP2 SWAP1 PUSH2 0x584C JUMP JUMPDEST SWAP1 POP PUSH1 0x0 DUP6 DUP4 DUP2 MLOAD DUP2 LT PUSH2 0x4601 JUMPI PUSH4 0x4E487B71 PUSH1 0xE0 SHL PUSH1 0x0 MSTORE PUSH1 0x32 PUSH1 0x4 MSTORE PUSH1 0x24 PUSH1 0x0 REVERT JUMPDEST PUSH1 0x20 MUL PUSH1 0x20 ADD ADD MLOAD SWAP1 POP DUP6 DUP3 DUP2 MLOAD DUP2 LT PUSH2 0x462B JUMPI PUSH4 0x4E487B71 PUSH1 0xE0 SHL PUSH1 0x0 MSTORE PUSH1 0x32 PUSH1 0x4 MSTORE PUSH1 0x24 PUSH1 0x0 REVERT JUMPDEST PUSH1 0x20 MUL PUSH1 0x20 ADD ADD MLOAD DUP7 DUP5 DUP2 MLOAD DUP2 LT PUSH2 0x4653 JUMPI PUSH4 0x4E487B71 PUSH1 0xE0 SHL PUSH1 0x0 MSTORE PUSH1 0x32 PUSH1 0x4 MSTORE PUSH1 0x24 PUSH1 0x0 REVERT JUMPDEST PUSH1 0x20 MUL PUSH1 0x20 ADD ADD DUP2 SWAP1 MSTORE POP DUP1 DUP7 DUP4 DUP2 MLOAD DUP2 LT PUSH2 0x467F JUMPI PUSH4 0x4E487B71 PUSH1 0xE0 SHL PUSH1 0x0 MSTORE PUSH1 0x32 PUSH1 0x4 MSTORE PUSH1 0x24 PUSH1 0x0 REVERT JUMPDEST PUSH1 0x20 MUL PUSH1 0x20 ADD ADD DUP2 SWAP1 MSTORE POP POP POP DUP1 DUP1 PUSH2 0x4697 SWAP1 PUSH2 0x57D8 JUMP JUMPDEST SWAP2 POP POP PUSH2 0x4594 JUMP JUMPDEST POP SWAP2 SWAP3 SWAP2 POP POP JUMP JUMPDEST PUSH2 0x46AF PUSH2 0x46C4 JUMP JUMPDEST PUSH1 0x0 SWAP2 DUP3 MSTORE PUSH1 0x4 PUSH1 0x20 MSTORE PUSH1 0x40 SWAP1 SWAP2 KECCAK256 PUSH1 0x6 ADD SSTORE JUMP JUMPDEST PUSH1 0x0 SWAP1 JUMP JUMPDEST PUSH1 0x0 DUP2 DUP2 MSTORE PUSH1 0x4 PUSH1 0x20 MSTORE PUSH1 0x40 DUP2 KECCAK256 SWAP1 PUSH2 0x46E1 DUP4 PUSH2 0x4837 JUMP JUMPDEST SWAP1 POP PUSH1 0x0 JUMPDEST PUSH1 0x2 DUP4 ADD SLOAD DUP2 LT ISZERO PUSH2 0x482C JUMPI PUSH1 0x0 DUP4 PUSH1 0x2 ADD DUP3 DUP2 SLOAD DUP2 LT PUSH2 0x4717 JUMPI PUSH4 0x4E487B71 PUSH1 0xE0 SHL PUSH1 0x0 MSTORE PUSH1 0x32 PUSH1 0x4 MSTORE PUSH1 0x24 PUSH1 0x0 REVERT JUMPDEST PUSH1 0x0 SWAP2 DUP3 MSTORE PUSH1 0x20 DUP1 DUP4 KECCAK256 SWAP1 SWAP2 ADD SLOAD PUSH1 0x1 PUSH1 0x1 PUSH1 0xA0 SHL SUB AND DUP1 DUP4 MSTORE PUSH1 0x4 DUP8 ADD SWAP1 SWAP2 MSTORE PUSH1 0x40 SWAP1 SWAP2 KECCAK256 SLOAD SWAP1 SWAP2 POP PUSH1 0xFF PUSH4 0x1000000 SWAP1 SWAP2 DIV AND ISZERO PUSH2 0x4757 JUMPI POP PUSH2 0x481A JUMP JUMPDEST PUSH1 0x1 PUSH1 0x1 PUSH1 0xA0 SHL SUB DUP2 AND PUSH1 0x0 SWAP1 DUP2 MSTORE PUSH1 0x4 DUP6 ADD PUSH1 0x20 MSTORE PUSH1 0x40 DUP2 KECCAK256 SLOAD PUSH1 0x5 DUP7 ADD DUP1 SLOAD PUSH1 0x1 PUSH1 0x20 SHL SWAP1 SWAP3 DIV PUSH1 0xFF AND SWAP3 SWAP2 DUP4 SWAP1 DUP2 LT PUSH2 0x47A3 JUMPI PUSH4 0x4E487B71 PUSH1 0xE0 SHL PUSH1 0x0 MSTORE PUSH1 0x32 PUSH1 0x4 MSTORE PUSH1 0x24 PUSH1 0x0 REVERT JUMPDEST PUSH1 0x0 SWAP2 DUP3 MSTORE PUSH1 0x20 SWAP2 DUP3 SWAP1 KECCAK256 PUSH1 0x40 DUP1 MLOAD DUP1 DUP3 ADD DUP3 MSTORE SWAP3 SWAP1 SWAP2 ADD SLOAD PUSH1 0xFF DUP1 DUP3 AND DUP1 DUP6 MSTORE PUSH2 0x100 SWAP1 SWAP3 DIV AND SWAP4 DUP4 ADD DUP5 SWAP1 MSTORE SWAP1 MLOAD SWAP2 SWAP4 POP PUSH1 0x1 PUSH1 0x1 PUSH1 0xA0 SHL SUB DUP7 AND SWAP3 PUSH32 0xE1299F54CCE9BBBB7B050A7A2E071F3272E75F57D041E1CFB8CC88969634CF06 SWAP3 PUSH2 0x480E SWAP3 SWAP2 SWAP1 PUSH2 0x570C JUMP JUMPDEST PUSH1 0x40 MLOAD DUP1 SWAP2 SUB SWAP1 LOG2 POP POP POP JUMPDEST DUP1 PUSH2 0x4824 DUP2 PUSH2 0x5811 JUMP JUMPDEST SWAP2 POP POP PUSH2 0x46E6 JUMP JUMPDEST POP PUSH2 0x3DC1 DUP4 DUP3 PUSH2 0x4402 JUMP JUMPDEST PUSH1 0x0 DUP2 DUP2 MSTORE PUSH1 0x4 PUSH1 0x20 MSTORE PUSH1 0x40 DUP2 KECCAK256 DUP2 DUP1 DUP1 DUP1 JUMPDEST PUSH1 0x2 DUP6 ADD SLOAD DUP2 LT ISZERO PUSH2 0x4992 JUMPI PUSH1 0x0 DUP6 PUSH1 0x2 ADD DUP3 DUP2 SLOAD DUP2 LT PUSH2 0x487B JUMPI PUSH4 0x4E487B71 PUSH1 0xE0 SHL PUSH1 0x0 MSTORE PUSH1 0x32 PUSH1 0x4 MSTORE PUSH1 0x24 PUSH1 0x0 REVERT JUMPDEST PUSH1 0x0 SWAP2 DUP3 MSTORE PUSH1 0x20 DUP1 DUP4 KECCAK256 SWAP1 SWAP2 ADD SLOAD PUSH1 0x1 PUSH1 0x1 PUSH1 0xA0 SHL SUB AND DUP1 DUP4 MSTORE PUSH1 0x4 DUP10 ADD SWAP1 SWAP2 MSTORE PUSH1 0x40 SWAP1 SWAP2 KECCAK256 SLOAD SWAP1 SWAP2 POP PUSH1 0xFF PUSH4 0x1000000 SWAP1 SWAP2 DIV AND ISZERO PUSH2 0x48BB JUMPI POP PUSH2 0x4980 JUMP JUMPDEST PUSH1 0x1 PUSH1 0x1 PUSH1 0xA0 SHL SUB DUP2 AND PUSH1 0x0 SWAP1 DUP2 MSTORE PUSH1 0x4 DUP8 ADD PUSH1 0x20 MSTORE PUSH1 0x40 DUP2 KECCAK256 SLOAD PUSH1 0x5 DUP9 ADD DUP1 SLOAD PUSH1 0x1 PUSH1 0x20 SHL SWAP1 SWAP3 DIV PUSH1 0xFF AND SWAP3 SWAP2 DUP4 SWAP1 DUP2 LT PUSH2 0x4907 JUMPI PUSH4 0x4E487B71 PUSH1 0xE0 SHL PUSH1 0x0 MSTORE PUSH1 0x32 PUSH1 0x4 MSTORE PUSH1 0x24 PUSH1 0x0 REVERT JUMPDEST PUSH1 0x0 SWAP2 DUP3 MSTORE PUSH1 0x20 SWAP2 DUP3 SWAP1 KECCAK256 PUSH1 0x40 DUP1 MLOAD DUP1 DUP3 ADD SWAP1 SWAP2 MSTORE SWAP2 ADD SLOAD PUSH1 0xFF DUP1 DUP3 AND DUP1 DUP5 MSTORE PUSH2 0x100 SWAP1 SWAP3 DIV DUP2 AND SWAP4 DUP4 ADD SWAP4 SWAP1 SWAP4 MSTORE SWAP1 SWAP3 POP SWAP1 DUP8 AND LT DUP1 PUSH2 0x4965 JUMPI POP DUP6 PUSH1 0xFF AND DUP2 PUSH1 0x0 ADD MLOAD PUSH1 0xFF AND EQ DUP1 ISZERO PUSH2 0x4965 JUMPI POP DUP5 PUSH1 0xFF AND DUP2 PUSH1 0x20 ADD MLOAD PUSH1 0xFF AND GT JUMPDEST ISZERO PUSH2 0x497C JUMPI DUP1 PUSH1 0x0 ADD MLOAD SWAP6 POP DUP1 PUSH1 0x20 ADD MLOAD SWAP5 POP DUP3 SWAP7 POP JUMPDEST POP POP POP JUMPDEST DUP1 PUSH2 0x498A DUP2 PUSH2 0x5811 JUMP JUMPDEST SWAP2 POP POP PUSH2 0x484A JUMP JUMPDEST POP SWAP2 SWAP6 SWAP5 POP POP POP POP POP JUMP JUMPDEST POP DUP1 SLOAD PUSH1 0x0 DUP3 SSTORE SWAP1 PUSH1 0x0 MSTORE PUSH1 0x20 PUSH1 0x0 KECCAK256 SWAP1 DUP2 ADD SWAP1 PUSH2 0x49BB SWAP2 SWAP1 PUSH2 0x49D5 JUMP JUMPDEST POP JUMP JUMPDEST PUSH1 0x40 DUP1 MLOAD DUP1 DUP3 ADD SWAP1 SWAP2 MSTORE PUSH1 0x0 DUP1 DUP3 MSTORE PUSH1 0x20 DUP3 ADD MSTORE SWAP1 JUMP JUMPDEST JUMPDEST DUP1 DUP3 GT ISZERO PUSH2 0x49EF JUMPI DUP1 SLOAD PUSH2 0xFFFF NOT AND DUP2 SSTORE PUSH1 0x1 ADD PUSH2 0x49D6 JUMP JUMPDEST POP SWAP1 JUMP JUMPDEST DUP1 CALLDATALOAD PUSH1 0x1 PUSH1 0x1 PUSH1 0xA0 SHL SUB DUP2 AND DUP2 EQ PUSH2 0x19A7 JUMPI PUSH1 0x0 DUP1 REVERT JUMPDEST PUSH1 0x0 PUSH1 0x20 DUP3 DUP5 SUB SLT ISZERO PUSH2 0x4A1B JUMPI DUP1 DUP2 REVERT JUMPDEST PUSH2 0x3A3F DUP3 PUSH2 0x49F3 JUMP JUMPDEST PUSH1 0x0 DUP1 PUSH1 0x20 DUP4 DUP6 SUB SLT ISZERO PUSH2 0x4A36 JUMPI DUP1 DUP2 REVERT JUMPDEST DUP3 CALLDATALOAD PUSH8 0xFFFFFFFFFFFFFFFF DUP1 DUP3 GT ISZERO PUSH2 0x4A4D JUMPI DUP3 DUP4 REVERT JUMPDEST DUP2 DUP6 ADD SWAP2 POP DUP6 PUSH1 0x1F DUP4 ADD SLT PUSH2 0x4A60 JUMPI DUP3 DUP4 REVERT JUMPDEST DUP2 CALLDATALOAD DUP2 DUP2 GT ISZERO PUSH2 0x4A6E JUMPI DUP4 DUP5 REVERT JUMPDEST DUP7 PUSH1 0x20 DUP1 DUP4 MUL DUP6 ADD ADD GT ISZERO PUSH2 0x4A81 JUMPI DUP4 DUP5 REVERT JUMPDEST PUSH1 0x20 SWAP3 SWAP1 SWAP3 ADD SWAP7 SWAP2 SWAP6 POP SWAP1 SWAP4 POP POP POP POP JUMP JUMPDEST PUSH1 0x0 PUSH1 0x20 DUP3 DUP5 SUB SLT ISZERO PUSH2 0x4AA4 JUMPI DUP1 DUP2 REVERT JUMPDEST POP CALLDATALOAD SWAP2 SWAP1 POP JUMP JUMPDEST PUSH1 0x0 DUP1 PUSH1 0x40 DUP4 DUP6 SUB SLT ISZERO PUSH2 0x4ABD JUMPI DUP2 DUP3 REVERT JUMPDEST DUP3 CALLDATALOAD SWAP2 POP PUSH2 0x4ACD PUSH1 0x20 DUP5 ADD PUSH2 0x49F3 JUMP JUMPDEST SWAP1 POP SWAP3 POP SWAP3 SWAP1 POP JUMP JUMPDEST PUSH1 0x0 DUP1 PUSH1 0x40 DUP4 DUP6 SUB SLT ISZERO PUSH2 0x4AE8 JUMPI DUP2 DUP3 REVERT JUMPDEST DUP3 CALLDATALOAD SWAP2 POP PUSH1 0x20 DUP4 ADD CALLDATALOAD DUP1 ISZERO ISZERO DUP2 EQ PUSH2 0x4AFE JUMPI DUP2 DUP3 REVERT JUMPDEST DUP1 SWAP2 POP POP SWAP3 POP SWAP3 SWAP1 POP JUMP JUMPDEST PUSH1 0x0 DUP1 PUSH1 0x40 DUP4 DUP6 SUB SLT ISZERO PUSH2 0x4B1B JUMPI DUP2 DUP3 REVERT JUMPDEST POP POP DUP1 CALLDATALOAD SWAP3 PUSH1 0x20 SWAP1 SWAP2 ADD CALLDATALOAD SWAP2 POP JUMP JUMPDEST PUSH1 0x0 DUP2 MLOAD DUP1 DUP5 MSTORE PUSH1 0x20 DUP1 DUP6 ADD SWAP5 POP DUP1 DUP5 ADD DUP4 JUMPDEST DUP4 DUP2 LT ISZERO PUSH2 0x4B62 JUMPI DUP2 MLOAD PUSH1 0x1 PUSH1 0x1 PUSH1 0xA0 SHL SUB AND DUP8 MSTORE SWAP6 DUP3 ADD SWAP6 SWAP1 DUP3 ADD SWAP1 PUSH1 0x1 ADD PUSH2 0x4B3D JUMP JUMPDEST POP SWAP5 SWAP6 SWAP5 POP POP POP POP POP JUMP JUMPDEST PUSH1 0x0 DUP2 MLOAD DUP1 DUP5 MSTORE PUSH1 0x20 DUP1 DUP6 ADD SWAP5 POP DUP1 DUP5 ADD DUP4 JUMPDEST DUP4 DUP2 LT ISZERO PUSH2 0x4B62 JUMPI DUP2 MLOAD ISZERO ISZERO DUP8 MSTORE SWAP6 DUP3 ADD SWAP6 SWAP1 DUP3 ADD SWAP1 PUSH1 0x1 ADD PUSH2 0x4B80 JUMP JUMPDEST PUSH1 0x0 DUP2 MLOAD DUP1 DUP5 MSTORE PUSH1 0x20 DUP1 DUP6 ADD SWAP5 POP DUP1 DUP5 ADD DUP4 JUMPDEST DUP4 DUP2 LT ISZERO PUSH2 0x4B62 JUMPI DUP2 MLOAD DUP8 MSTORE SWAP6 DUP3 ADD SWAP6 SWAP1 DUP3 ADD SWAP1 PUSH1 0x1 ADD PUSH2 0x4BB1 JUMP JUMPDEST PUSH1 0x0 DUP2 MLOAD DUP1 DUP5 MSTORE PUSH1 0x20 DUP1 DUP6 ADD SWAP5 POP DUP1 DUP5 ADD DUP4 JUMPDEST DUP4 DUP2 LT ISZERO PUSH2 0x4B62 JUMPI DUP2 MLOAD PUSH1 0xFF AND DUP8 MSTORE SWAP6 DUP3 ADD SWAP6 SWAP1 DUP3 ADD SWAP1 PUSH1 0x1 ADD PUSH2 0x4BE0 JUMP JUMPDEST PUSH1 0x5 DUP2 LT PUSH2 0x4C1D JUMPI PUSH4 0x4E487B71 PUSH1 0xE0 SHL PUSH1 0x0 MSTORE PUSH1 0x21 PUSH1 0x4 MSTORE PUSH1 0x24 PUSH1 0x0 REVERT JUMPDEST SWAP1 MSTORE JUMP JUMPDEST SWAP2 DUP3 MSTORE PUSH1 0x20 DUP3 ADD MSTORE PUSH1 0x40 ADD SWAP1 JUMP JUMPDEST SWAP3 DUP4 MSTORE PUSH1 0xF8 SWAP2 SWAP1 SWAP2 SHL PUSH1 0x1 PUSH1 0x1 PUSH1 0xF8 SHL SUB NOT AND PUSH1 0x20 DUP4 ADD MSTORE PUSH1 0x21 DUP3 ADD MSTORE PUSH1 0x41 ADD SWAP1 JUMP JUMPDEST PUSH1 0x1 PUSH1 0x1 PUSH1 0xA0 SHL SUB SWAP2 SWAP1 SWAP2 AND DUP2 MSTORE PUSH1 0x20 ADD SWAP1 JUMP JUMPDEST PUSH1 0x20 DUP1 DUP3 MSTORE DUP2 DUP2 ADD DUP4 SWAP1 MSTORE PUSH1 0x0 SWAP1 DUP5 PUSH1 0x40 DUP5 ADD DUP4 JUMPDEST DUP7 DUP2 LT ISZERO PUSH2 0x4CA7 JUMPI PUSH1 0x1 PUSH1 0x1 PUSH1 0xA0 SHL SUB PUSH2 0x4C94 DUP5 PUSH2 0x49F3 JUMP JUMPDEST AND DUP3 MSTORE SWAP2 DUP4 ADD SWAP2 SWAP1 DUP4 ADD SWAP1 PUSH1 0x1 ADD PUSH2 0x4C7B JUMP JUMPDEST POP SWAP7 SWAP6 POP POP POP POP POP POP JUMP JUMPDEST PUSH1 0x0 PUSH1 0x20 DUP3 MSTORE PUSH2 0x3A3F PUSH1 0x20 DUP4 ADD DUP5 PUSH2 0x4B2A JUMP JUMPDEST PUSH1 0x0 PUSH1 0xC0 DUP3 MSTORE PUSH2 0x4CD8 PUSH1 0xC0 DUP4 ADD DUP10 PUSH2 0x4B2A JUMP JUMPDEST DUP3 DUP2 SUB PUSH1 0x20 DUP5 ADD MSTORE PUSH2 0x4CEA DUP2 DUP10 PUSH2 0x4B6D JUMP JUMPDEST SWAP1 POP DUP3 DUP2 SUB PUSH1 0x40 DUP5 ADD MSTORE PUSH2 0x4CFE DUP2 DUP9 PUSH2 0x4B6D JUMP JUMPDEST SWAP1 POP DUP3 DUP2 SUB PUSH1 0x60 DUP5 ADD MSTORE PUSH2 0x4D12 DUP2 DUP8 PUSH2 0x4B9E JUMP JUMPDEST SWAP1 POP DUP3 DUP2 SUB PUSH1 0x80 DUP5 ADD MSTORE PUSH2 0x4D26 DUP2 DUP7 PUSH2 0x4B9E JUMP JUMPDEST SWAP1 POP DUP3 DUP2 SUB PUSH1 0xA0 DUP5 ADD MSTORE PUSH2 0x4D3A DUP2 DUP6 PUSH2 0x4B9E JUMP JUMPDEST SWAP10 SWAP9 POP POP POP POP POP POP POP POP POP JUMP JUMPDEST PUSH1 0x0 PUSH1 0x60 DUP3 MSTORE PUSH2 0x4D5A PUSH1 0x60 DUP4 ADD DUP7 PUSH2 0x4B2A JUMP JUMPDEST DUP3 DUP2 SUB PUSH1 0x20 DUP5 ADD MSTORE PUSH2 0x4D6C DUP2 DUP7 PUSH2 0x4BCD JUMP JUMPDEST SWAP1 POP DUP3 DUP2 SUB PUSH1 0x40 DUP5 ADD MSTORE PUSH2 0x4D80 DUP2 DUP6 PUSH2 0x4BCD JUMP JUMPDEST SWAP7 SWAP6 POP POP POP POP POP POP JUMP JUMPDEST PUSH1 0x0 PUSH1 0x20 DUP3 MSTORE PUSH2 0x3A3F PUSH1 0x20 DUP4 ADD DUP5 PUSH2 0x4B9E JUMP JUMPDEST PUSH1 0x0 PUSH1 0x40 DUP3 MSTORE PUSH2 0x4DB0 PUSH1 0x40 DUP4 ADD DUP6 PUSH2 0x4BCD JUMP JUMPDEST DUP3 DUP2 SUB PUSH1 0x20 DUP5 ADD MSTORE PUSH2 0x4DC2 DUP2 DUP6 PUSH2 0x4BCD JUMP JUMPDEST SWAP6 SWAP5 POP POP POP POP POP JUMP JUMPDEST SWAP1 ISZERO ISZERO DUP2 MSTORE PUSH1 0x20 ADD SWAP1 JUMP JUMPDEST SWAP8 ISZERO ISZERO DUP9 MSTORE SWAP6 ISZERO ISZERO PUSH1 0x20 DUP9 ADD MSTORE SWAP4 ISZERO ISZERO PUSH1 0x40 DUP8 ADD MSTORE SWAP2 ISZERO ISZERO PUSH1 0x60 DUP7 ADD MSTORE PUSH1 0x80 DUP6 ADD MSTORE PUSH1 0xA0 DUP5 ADD MSTORE PUSH1 0xC0 DUP4 ADD MSTORE PUSH1 0xE0 DUP3 ADD MSTORE PUSH2 0x100 ADD SWAP1 JUMP JUMPDEST PUSH1 0x40 DUP2 ADD PUSH2 0x4E1C DUP3 DUP6 PUSH2 0x4BFF JUMP JUMPDEST PUSH2 0x3A3F PUSH1 0x20 DUP4 ADD DUP5 PUSH2 0x4BFF JUMP JUMPDEST PUSH1 0x40 DUP2 ADD PUSH2 0x4E37 DUP3 DUP6 PUSH2 0x4BFF JUMP JUMPDEST DUP3 PUSH1 0x20 DUP4 ADD MSTORE SWAP4 SWAP3 POP POP POP JUMP JUMPDEST PUSH1 0x80 DUP2 ADD PUSH2 0x4E52 DUP3 DUP8 PUSH2 0x4BFF JUMP JUMPDEST DUP5 PUSH1 0x20 DUP4 ADD MSTORE DUP4 PUSH1 0x40 DUP4 ADD MSTORE DUP3 PUSH1 0x60 DUP4 ADD MSTORE SWAP6 SWAP5 POP POP POP POP POP JUMP JUMPDEST PUSH2 0x160 DUP2 ADD PUSH2 0x4E7C DUP3 DUP15 PUSH2 0x4BFF JUMP JUMPDEST PUSH1 0x20 DUP3 ADD SWAP12 SWAP1 SWAP12 MSTORE PUSH1 0x40 DUP2 ADD SWAP10 SWAP1 SWAP10 MSTORE PUSH1 0x60 DUP10 ADD SWAP8 SWAP1 SWAP8 MSTORE PUSH1 0x80 DUP9 ADD SWAP6 SWAP1 SWAP6 MSTORE PUSH1 0xA0 DUP8 ADD SWAP4 SWAP1 SWAP4 MSTORE PUSH1 0xC0 DUP7 ADD SWAP2 SWAP1 SWAP2 MSTORE PUSH1 0xE0 DUP6 ADD MSTORE PUSH1 0x1 PUSH1 0x1 PUSH1 0xA0 SHL SUB AND PUSH2 0x100 DUP5 ADD MSTORE PUSH2 0x120 DUP4 ADD MSTORE ISZERO ISZERO PUSH2 0x140 SWAP1 SWAP2 ADD MSTORE SWAP2 SWAP1 POP JUMP JUMPDEST PUSH2 0x120 DUP2 ADD PUSH2 0x4EE3 DUP3 DUP13 PUSH2 0x4BFF JUMP JUMPDEST PUSH1 0x20 DUP3 ADD SWAP10 SWAP1 SWAP10 MSTORE PUSH1 0x40 DUP2 ADD SWAP8 SWAP1 SWAP8 MSTORE PUSH1 0x60 DUP8 ADD SWAP6 SWAP1 SWAP6 MSTORE PUSH1 0x80 DUP7 ADD SWAP4 SWAP1 SWAP4 MSTORE PUSH1 0xA0 DUP6 ADD SWAP2 SWAP1 SWAP2 MSTORE PUSH1 0xC0 DUP5 ADD MSTORE PUSH1 0xE0 DUP4 ADD MSTORE ISZERO ISZERO PUSH2 0x100 SWAP1 SWAP2 ADD MSTORE SWAP2 SWAP1 POP JUMP JUMPDEST PUSH1 0x60 DUP1 DUP3 MSTORE PUSH1 0x8 SWAP1 DUP3 ADD MSTORE PUSH8 0x1CDDD85C10D85C99 PUSH1 0xC2 SHL PUSH1 0x80 DUP3 ADD MSTORE PUSH1 0x20 DUP2 ADD SWAP3 SWAP1 SWAP3 MSTORE PUSH1 0x40 DUP3 ADD MSTORE PUSH1 0xA0 ADD SWAP1 JUMP JUMPDEST PUSH1 0x20 DUP1 DUP3 MSTORE PUSH1 0x1A SWAP1 DUP3 ADD MSTORE PUSH32 0x4D6F6E74792048616C6C206F7074696F6E206E6F742075736564000000000000 PUSH1 0x40 DUP3 ADD MSTORE PUSH1 0x60 ADD SWAP1 JUMP JUMPDEST PUSH1 0x20 DUP1 DUP3 MSTORE PUSH1 0x16 SWAP1 DUP3 ADD MSTORE PUSH22 0x4E6F7420726567697374726174696F6E207374617465 PUSH1 0x50 SHL PUSH1 0x40 DUP3 ADD MSTORE PUSH1 0x60 ADD SWAP1 JUMP JUMPDEST PUSH1 0x20 DUP1 DUP3 MSTORE PUSH1 0x10 SWAP1 DUP3 ADD MSTORE PUSH16 0x1419595AC81C1A185CD948195B991959 PUSH1 0x82 SHL PUSH1 0x40 DUP3 ADD MSTORE PUSH1 0x60 ADD SWAP1 JUMP JUMPDEST PUSH1 0x20 DUP1 DUP3 MSTORE DUP2 DUP2 ADD MSTORE PUSH32 0x4D6F6E74792048616C6C206361726420616C72656164792061737369676E6564 PUSH1 0x40 DUP3 ADD MSTORE PUSH1 0x60 ADD SWAP1 JUMP JUMPDEST PUSH1 0x20 DUP1 DUP3 MSTORE PUSH1 0x17 SWAP1 DUP3 ADD MSTORE PUSH32 0x4E6F2061637469766520706C617965727320666F756E64000000000000000000 PUSH1 0x40 DUP3 ADD MSTORE PUSH1 0x60 ADD SWAP1 JUMP JUMPDEST PUSH1 0x20 DUP1 DUP3 MSTORE PUSH1 0x11 SWAP1 DUP3 ADD MSTORE PUSH17 0x2737BA1030B1BA34BB3290383630BCB2B9 PUSH1 0x79 SHL PUSH1 0x40 DUP3 ADD MSTORE PUSH1 0x60 ADD SWAP1 JUMP JUMPDEST PUSH1 0x20 DUP1 DUP3 MSTORE PUSH1 0x1E SWAP1 DUP3 ADD MSTORE PUSH32 0x416C72656164792075736564204D6F6E74792048616C6C206F7074696F6E0000 PUSH1 0x40 DUP3 ADD MSTORE PUSH1 0x60 ADD SWAP1 JUMP JUMPDEST PUSH1 0x20 DUP1 DUP3 MSTORE PUSH1 0x12 SWAP1 DUP3 ADD MSTORE PUSH18 0x496E73756666696369656E74206368697073 PUSH1 0x70 SHL PUSH1 0x40 DUP3 ADD MSTORE PUSH1 0x60 ADD SWAP1 JUMP JUMPDEST PUSH1 0x20 DUP1 DUP3 MSTORE PUSH1 0xA SWAP1 DUP3 ADD MSTORE PUSH10 0x2737BA1035B2B2B832B9 PUSH1 0xB1 SHL PUSH1 0x40 DUP3 ADD MSTORE PUSH1 0x60 ADD SWAP1 JUMP JUMPDEST PUSH1 0x20 DUP1 DUP3 MSTORE PUSH1 0x1D SWAP1 DUP3 ADD MSTORE PUSH32 0x496E76616C6964204D6F6E74792048616C6C206361726420696E646578000000 PUSH1 0x40 DUP3 ADD MSTORE PUSH1 0x60 ADD SWAP1 JUMP JUMPDEST PUSH1 0x20 DUP1 DUP3 MSTORE PUSH1 0x16 SWAP1 DUP3 ADD MSTORE PUSH22 0x135D5CDD081B585D18DA0818DD5C9C995B9D0818995D PUSH1 0x52 SHL PUSH1 0x40 DUP3 ADD MSTORE PUSH1 0x60 ADD SWAP1 JUMP JUMPDEST PUSH1 0x20 DUP1 DUP3 MSTORE PUSH1 0xF SWAP1 DUP3 ADD MSTORE PUSH15 0x4E65656420322B20706C6179657273 PUSH1 0x88 SHL PUSH1 0x40 DUP3 ADD MSTORE PUSH1 0x60 ADD SWAP1 JUMP JUMPDEST PUSH1 0x20 DUP1 DUP3 MSTORE PUSH1 0x11 SWAP1 DUP3 ADD MSTORE PUSH17 0x4E6F742062657474696E67207068617365 PUSH1 0x78 SHL PUSH1 0x40 DUP3 ADD MSTORE PUSH1 0x60 ADD SWAP1 JUMP JUMPDEST PUSH1 0x20 DUP1 DUP3 MSTORE PUSH1 0x1B SWAP1 DUP3 ADD MSTORE PUSH32 0x4E6F20617661696C61626C6520636172647320666F7220737761700000000000 PUSH1 0x40 DUP3 ADD MSTORE PUSH1 0x60 ADD SWAP1 JUMP JUMPDEST PUSH1 0x20 DUP1 DUP3 MSTORE PUSH1 0x1D SWAP1 DUP3 ADD MSTORE PUSH32 0x4E657720636172642077617320616C72656164792072657665616C6564000000 PUSH1 0x40 DUP3 ADD MSTORE PUSH1 0x60 ADD SWAP1 JUMP JUMPDEST PUSH1 0x60 DUP1 DUP3 MSTORE PUSH1 0x4 SWAP1 DUP3 ADD MSTORE PUSH4 0x199BDB19 PUSH1 0xE2 SHL PUSH1 0x80 DUP3 ADD MSTORE PUSH1 0x20 DUP2 ADD SWAP3 SWAP1 SWAP3 MSTORE PUSH1 0x40 DUP3 ADD MSTORE PUSH1 0xA0 ADD SWAP1 JUMP JUMPDEST PUSH1 0x20 DUP1 DUP3 MSTORE PUSH1 0xE SWAP1 DUP3 ADD MSTORE PUSH14 0x4E6F74207065656B207068617365 PUSH1 0x90 SHL PUSH1 0x40 DUP3 ADD MSTORE PUSH1 0x60 ADD SWAP1 JUMP JUMPDEST PUSH1 0x20 DUP1 DUP3 MSTORE PUSH1 0x18 SWAP1 DUP3 ADD MSTORE PUSH32 0x506C6179657220616C726561647920696E20612067616D650000000000000000 PUSH1 0x40 DUP3 ADD MSTORE PUSH1 0x60 ADD SWAP1 JUMP JUMPDEST PUSH1 0x20 DUP1 DUP3 MSTORE PUSH1 0xE SWAP1 DUP3 ADD MSTORE PUSH14 0x11D85B59481B9BDD08199BDD5B99 PUSH1 0x92 SHL PUSH1 0x40 DUP3 ADD MSTORE PUSH1 0x60 ADD SWAP1 JUMP JUMPDEST PUSH1 0x20 DUP1 DUP3 MSTORE PUSH1 0x10 SWAP1 DUP3 ADD MSTORE PUSH16 0x4E6F7420696E20746869732067616D65 PUSH1 0x80 SHL PUSH1 0x40 DUP3 ADD MSTORE PUSH1 0x60 ADD SWAP1 JUMP JUMPDEST PUSH1 0x60 DUP1 DUP3 MSTORE PUSH1 0x8 SWAP1 DUP3 ADD MSTORE PUSH8 0x1AD9595C10D85C99 PUSH1 0xC2 SHL PUSH1 0x80 DUP3 ADD MSTORE PUSH1 0x20 DUP2 ADD SWAP3 SWAP1 SWAP3 MSTORE PUSH1 0x40 DUP3 ADD MSTORE PUSH1 0xA0 ADD SWAP1 JUMP JUMPDEST PUSH1 0x60 DUP1 DUP3 MSTORE PUSH1 0x3 SWAP1 DUP3 ADD MSTORE PUSH3 0x18995D PUSH1 0xEA SHL PUSH1 0x80 DUP3 ADD MSTORE PUSH1 0x20 DUP2 ADD SWAP3 SWAP1 SWAP3 MSTORE PUSH1 0x40 DUP3 ADD MSTORE PUSH1 0xA0 ADD SWAP1 JUMP JUMPDEST PUSH1 0x20 DUP1 DUP3 MSTORE PUSH1 0x9 SWAP1 DUP3 ADD MSTORE PUSH9 0x11D85B5948199D5B1B PUSH1 0xBA SHL PUSH1 0x40 DUP3 ADD MSTORE PUSH1 0x60 ADD SWAP1 JUMP JUMPDEST PUSH1 0x60 DUP1 DUP3 MSTORE PUSH1 0x5 SWAP1 DUP3 ADD MSTORE PUSH5 0x6C65617665 PUSH1 0xD8 SHL PUSH1 0x80 DUP3 ADD MSTORE PUSH1 0x20 DUP2 ADD SWAP3 SWAP1 SWAP3 MSTORE PUSH1 0x40 DUP3 ADD MSTORE PUSH1 0xA0 ADD SWAP1 JUMP JUMPDEST PUSH1 0x20 DUP1 DUP3 MSTORE PUSH1 0x10 SWAP1 DUP3 ADD MSTORE PUSH16 0x125B88189D5999995C881C195C9A5BD9 PUSH1 0x82 SHL PUSH1 0x40 DUP3 ADD MSTORE PUSH1 0x60 ADD SWAP1 JUMP JUMPDEST PUSH1 0x20 DUP1 DUP3 MSTORE PUSH1 0x9 SWAP1 DUP3 ADD MSTORE PUSH9 0x2737BA1037BBB732B9 PUSH1 0xB9 SHL PUSH1 0x40 DUP3 ADD MSTORE PUSH1 0x60 ADD SWAP1 JUMP JUMPDEST PUSH1 0x20 DUP1 DUP3 MSTORE PUSH1 0xD SWAP1 DUP3 ADD MSTORE PUSH13 0x10995D081D1BDBC81CDB585B1B PUSH1 0x9A SHL PUSH1 0x40 DUP3 ADD MSTORE PUSH1 0x60 ADD SWAP1 JUMP JUMPDEST PUSH1 0x20 DUP1 DUP3 MSTORE DUP2 DUP2 ADD MSTORE PUSH32 0x4D6F6E74792048616C6C206361726420616C72656164792072657665616C6564 PUSH1 0x40 DUP3 ADD MSTORE PUSH1 0x60 ADD SWAP1 JUMP JUMPDEST PUSH1 0x20 DUP1 DUP3 MSTORE PUSH1 0x1A SWAP1 DUP3 ADD MSTORE PUSH32 0x42657474696E67207068617365206E6F742066696E6973686564000000000000 PUSH1 0x40 DUP3 ADD MSTORE PUSH1 0x60 ADD SWAP1 JUMP JUMPDEST PUSH1 0x20 DUP1 DUP3 MSTORE PUSH1 0x16 SWAP1 DUP3 ADD MSTORE PUSH22 0x10D85C991CC81B9BDD081E595D081C995D99585B1959 PUSH1 0x52 SHL PUSH1 0x40 DUP3 ADD MSTORE PUSH1 0x60 ADD SWAP1 JUMP JUMPDEST PUSH1 0x20 DUP1 DUP3 MSTORE PUSH1 0x16 SWAP1 DUP3 ADD MSTORE PUSH22 0x92DCECC2D8D2C840DCCAEE40C6C2E4C840D2DCC8CAF PUSH1 0x53 SHL PUSH1 0x40 DUP3 ADD MSTORE PUSH1 0x60 ADD SWAP1 JUMP JUMPDEST PUSH1 0x60 DUP1 DUP3 MSTORE PUSH1 0x4 SWAP1 DUP3 ADD MSTORE PUSH4 0x7065656B PUSH1 0xE0 SHL PUSH1 0x80 DUP3 ADD MSTORE PUSH1 0x20 DUP2 ADD SWAP3 SWAP1 SWAP3 MSTORE PUSH1 0x40 DUP3 ADD MSTORE PUSH1 0xA0 ADD SWAP1 JUMP JUMPDEST PUSH1 0x20 DUP1 DUP3 MSTORE PUSH1 0xE SWAP1 DUP3 ADD MSTORE PUSH14 0x105B1C9958591E48199BDB191959 PUSH1 0x92 SHL PUSH1 0x40 DUP3 ADD MSTORE PUSH1 0x60 ADD SWAP1 JUMP JUMPDEST PUSH1 0x20 DUP1 DUP3 MSTORE PUSH1 0x11 SWAP1 DUP3 ADD MSTORE PUSH17 0x416C726561647920696E20612067616D65 PUSH1 0x78 SHL PUSH1 0x40 DUP3 ADD MSTORE PUSH1 0x60 ADD SWAP1 JUMP JUMPDEST PUSH1 0x60 DUP1 DUP3 MSTORE PUSH1 0x9 SWAP1 DUP3 ADD MSTORE PUSH9 0x1B5BDB9D1E52185B1B PUSH1 0xBA SHL PUSH1 0x80 DUP3 ADD MSTORE PUSH1 0x20 DUP2 ADD SWAP3 SWAP1 SWAP3 MSTORE PUSH1 0x40 DUP3 ADD MSTORE PUSH1 0xA0 ADD SWAP1 JUMP JUMPDEST PUSH1 0x20 DUP1 DUP3 MSTORE PUSH1 0x17 SWAP1 DUP3 ADD MSTORE PUSH32 0x47616D6520616C726561647920636C65616E6564207570000000000000000000 PUSH1 0x40 DUP3 ADD MSTORE PUSH1 0x60 ADD SWAP1 JUMP JUMPDEST PUSH1 0x20 DUP1 DUP3 MSTORE PUSH1 0xE SWAP1 DUP3 ADD MSTORE PUSH14 0x105B1C9958591E481C19595AD959 PUSH1 0x92 SHL PUSH1 0x40 DUP3 ADD MSTORE PUSH1 0x60 ADD SWAP1 JUMP JUMPDEST PUSH1 0x20 DUP1 DUP3 MSTORE PUSH1 0x19 SWAP1 DUP3 ADD MSTORE PUSH32 0x4E6577206361726420616C72656164792061737369676E656400000000000000 PUSH1 0x40 DUP3 ADD MSTORE PUSH1 0x60 ADD SWAP1 JUMP JUMPDEST PUSH1 0x20 DUP1 DUP3 MSTORE PUSH1 0x14 SWAP1 DUP3 ADD MSTORE PUSH20 0x11D85B5948185B1C9958591E481CDD185C9D1959 PUSH1 0x62 SHL PUSH1 0x40 DUP3 ADD MSTORE PUSH1 0x60 ADD SWAP1 JUMP JUMPDEST PUSH1 0x20 DUP1 DUP3 MSTORE PUSH1 0xE SWAP1 DUP3 ADD MSTORE PUSH14 0x11D85B59481B9BDD08195B991959 PUSH1 0x92 SHL PUSH1 0x40 DUP3 ADD MSTORE PUSH1 0x60 ADD SWAP1 JUMP JUMPDEST PUSH1 0x20 DUP1 DUP3 MSTORE PUSH1 0x13 SWAP1 DUP3 ADD MSTORE PUSH19 0x10995D1D1A5B99C81C1A185CD948195B991959 PUSH1 0x6A SHL PUSH1 0x40 DUP3 ADD MSTORE PUSH1 0x60 ADD SWAP1 JUMP JUMPDEST PUSH1 0x20 DUP1 DUP3 MSTORE PUSH1 0x17 SWAP1 DUP3 ADD MSTORE PUSH32 0x5065656B207068617365206E6F742066696E6973686564000000000000000000 PUSH1 0x40 DUP3 ADD MSTORE PUSH1 0x60 ADD SWAP1 JUMP JUMPDEST SWAP1 DUP2 MSTORE PUSH1 0x20 ADD SWAP1 JUMP JUMPDEST SWAP2 DUP3 MSTORE PUSH1 0x1 PUSH1 0x1 PUSH1 0xA0 SHL SUB AND PUSH1 0x20 DUP3 ADD MSTORE PUSH1 0x40 ADD SWAP1 JUMP JUMPDEST PUSH1 0xFF SWAP3 DUP4 AND DUP2 MSTORE SWAP2 AND PUSH1 0x20 DUP3 ADD MSTORE PUSH1 0x40 ADD SWAP1 JUMP JUMPDEST PUSH1 0xFF SWAP5 DUP6 AND DUP2 MSTORE SWAP3 DUP5 AND PUSH1 0x20 DUP5 ADD MSTORE SWAP1 DUP4 AND PUSH1 0x40 DUP4 ADD MSTORE SWAP1 SWAP2 AND PUSH1 0x60 DUP3 ADD MSTORE PUSH1 0x80 ADD SWAP1 JUMP JUMPDEST PUSH1 0x0 DUP3 NOT DUP3 GT ISZERO PUSH2 0x5758 JUMPI PUSH2 0x5758 PUSH2 0x586C JUMP JUMPDEST POP ADD SWAP1 JUMP JUMPDEST PUSH1 0x0 PUSH2 0xFFFF DUP4 DUP2 AND SWAP1 DUP4 AND DUP2 DUP2 LT ISZERO PUSH2 0x5778 JUMPI PUSH2 0x5778 PUSH2 0x586C JUMP JUMPDEST SUB SWAP4 SWAP3 POP POP POP JUMP JUMPDEST PUSH1 0x0 DUP3 DUP3 LT ISZERO PUSH2 0x5792 JUMPI PUSH2 0x5792 PUSH2 0x586C JUMP JUMPDEST POP SUB SWAP1 JUMP JUMPDEST PUSH1 0x0 PUSH1 0xFF DUP3 AND PUSH1 0xFF DUP5 AND DUP1 DUP3 LT ISZERO PUSH2 0x57B1 JUMPI PUSH2 0x57B1 PUSH2 0x586C JUMP JUMPDEST SWAP1 SUB SWAP4 SWAP3 POP POP POP JUMP JUMPDEST PUSH1 0x0 PUSH2 0xFFFF DUP3 AND DUP1 PUSH2 0x57CE JUMPI PUSH2 0x57CE PUSH2 0x586C JUMP JUMPDEST PUSH1 0x0 NOT ADD SWAP3 SWAP2 POP POP JUMP JUMPDEST PUSH1 0x0 DUP2 PUSH2 0x57E7 JUMPI PUSH2 0x57E7 PUSH2 0x586C JUMP JUMPDEST POP PUSH1 0x0 NOT ADD SWAP1 JUMP JUMPDEST PUSH1 0x0 PUSH2 0xFFFF DUP1 DUP4 AND DUP2 DUP2 EQ ISZERO PUSH2 0x5807 JUMPI PUSH2 0x5807 PUSH2 0x586C JUMP JUMPDEST PUSH1 0x1 ADD SWAP4 SWAP3 POP POP POP JUMP JUMPDEST PUSH1 0x0 PUSH1 0x0 NOT DUP3 EQ ISZERO PUSH2 0x5825 JUMPI PUSH2 0x5825 PUSH2 0x586C JUMP JUMPDEST POP PUSH1 0x1 ADD SWAP1 JUMP JUMPDEST PUSH1 0x0 PUSH1 0xFF DUP3 AND PUSH1 0xFF DUP2 EQ ISZERO PUSH2 0x5843 JUMPI PUSH2 0x5843 PUSH2 0x586C JUMP JUMPDEST PUSH1 0x1 ADD SWAP3 SWAP2 POP POP JUMP JUMPDEST PUSH1 0x0 DUP3 PUSH2 0x5867 JUMPI PUSH4 0x4E487B71 PUSH1 0xE0 SHL DUP2 MSTORE PUSH1 0x12 PUSH1 0x4 MSTORE PUSH1 0x24 DUP2 REVERT JUMPDEST POP MOD SWAP1 JUMP JUMPDEST PUSH4 0x4E487B71 PUSH1 0xE0 SHL PUSH1 0x0 MSTORE PUSH1 0x11 PUSH1 0x4 MSTORE PUSH1 0x24 PUSH1 0x0 REVERT INVALID MOD SMOD CALLVALUE OR 0x21 PUSH17 0x1A494DA2223EE353609CE7A0D98C9C7A4F 0xD DUP16 PUSH31 0x88DA11755E8C6F602F6212C12F2EE3D71AED536EE490592C8C673758D935D4 PUSH26 0xB147252D0434A2646970667358221220B28FDFE358EFA844C584 0x1F SAR DUP9 PUSH12 0xA9C57A3A41EE5817E070F185 DUP8 SWAP5 0xC6 0xCC PUSH23 0x2464736F6C634300080000330000000000000000000000 "},"methodIdentifiers":{"addKeeper(address)":"4032b72b","addMultipleToWhitelist(address[])":"8401f8d1","addPlayerToGame(uint256,address)":"9d36ac19","checkAllPlayersMatched(uint256)":"ba3a9520","cleanup(uint256)":"0aa40018","createGame()":"7255d729","endBettingPhase(uint256)":"30be62b2","endPeekPhase(uint256)":"09734764","fold(uint256)":"bff7a00b","getActiveGames()":"1b76929c","getActivePlayerCount(uint256)":"a410274c","getActivePlayers(uint256)":"342ed956","getGameBasicInfo(uint256)":"f0344e36","getGameInfo(uint256)":"47e1d550","getPlayerInfo(uint256,address)":"3ccd10e9","getPlayers(uint256)":"460e2049","getPlayersForSpectating(uint256)":"9db800a6","getRevealedCardsForSpectating(uint256)":"35ac8a47","isKeeper(address)":"6ba42aaa","isWhitelisted(address)":"3af32abf","joinGame(uint256)":"efaa55a0","leaveGame(uint256)":"3feef58a","montyHallDecision(uint256,bool)":"01e09cd8","owner()":"8da5cb5b","peekAtCard(uint256)":"318ff5d1","placeBet(uint256,uint256)":"4afe62b5","removeKeeper(address)":"14ae9f2e","removeMultipleFromWhitelist(address[])":"f62a1a98","setSpectatorBettingContract(address)":"df9b0b7f","spectatorBettingContract()":"ef186e69","startPeekPhase(uint256)":"1f452a08","useMontyHallOption(uint256)":"b419f9ab"}}}}}