{"contracts/SpectatorBetting.sol":{"SpectatorBetting":{"abi":[{"inputs":[{"internalType":"address","name":"_oneCardContract","type":"address"}],"stateMutability":"nonpayable","type":"constructor"},{"anonymous":false,"inputs":[{"indexed":true,"internalType":"uint256","name":"gameId","type":"uint256"},{"indexed":true,"internalType":"address","name":"bettor","type":"address"},{"indexed":true,"internalType":"address","name":"playerBetOn","type":"address"},{"indexed":false,"internalType":"uint256","name":"amount","type":"uint256"}],"name":"BetPlaced","type":"event"},{"anonymous":false,"inputs":[{"indexed":true,"internalType":"uint256","name":"gameId","type":"uint256"}],"name":"BettingClosed","type":"event"},{"anonymous":false,"inputs":[{"indexed":true,"internalType":"uint256","name":"gameId","type":"uint256"}],"name":"BettingOpened","type":"event"},{"anonymous":false,"inputs":[{"indexed":true,"internalType":"uint256","name":"gameId","type":"uint256"},{"indexed":true,"internalType":"address","name":"winner","type":"address"}],"name":"ResultsProcessed","type":"event"},{"anonymous":false,"inputs":[{"indexed":true,"internalType":"uint256","name":"gameId","type":"uint256"},{"indexed":true,"internalType":"address","name":"bettor","type":"address"},{"indexed":false,"internalType":"uint256","name":"amount","type":"uint256"}],"name":"WinningsClaimed","type":"event"},{"inputs":[{"internalType":"uint256","name":"gameId","type":"uint256"},{"internalType":"address","name":"bettor","type":"address"}],"name":"checkWinnings","outputs":[{"internalType":"bool","name":"hasWinnings","type":"bool"},{"internalType":"uint256","name":"amount","type":"uint256"}],"stateMutability":"view","type":"function"},{"inputs":[{"internalType":"uint256","name":"gameId","type":"uint256"}],"name":"claimWinnings","outputs":[],"stateMutability":"nonpayable","type":"function"},{"inputs":[{"internalType":"uint256","name":"gameId","type":"uint256"}],"name":"closeBetting","outputs":[],"stateMutability":"nonpayable","type":"function"},{"inputs":[{"internalType":"uint256","name":"","type":"uint256"}],"name":"games","outputs":[{"internalType":"uint256","name":"gameId","type":"uint256"},{"internalType":"bool","name":"bettingOpen","type":"bool"},{"internalType":"bool","name":"resultsProcessed","type":"bool"},{"internalType":"uint256","name":"totalBetAmount","type":"uint256"},{"internalType":"address","name":"winner","type":"address"}],"stateMutability":"view","type":"function"},{"inputs":[{"internalType":"uint256","name":"gameId","type":"uint256"},{"internalType":"address","name":"bettor","type":"address"}],"name":"getBetInfo","outputs":[{"internalType":"address","name":"playerBetOn","type":"address"},{"internalType":"uint256","name":"amount","type":"uint256"},{"internalType":"bool","name":"claimed","type":"bool"}],"stateMutability":"view","type":"function"},{"inputs":[{"internalType":"uint256","name":"gameId","type":"uint256"}],"name":"getGameInfo","outputs":[{"internalType":"bool","name":"bettingOpen","type":"bool"},{"internalType":"bool","name":"resultsProcessed","type":"bool"},{"internalType":"uint256","name":"totalBetAmount","type":"uint256"},{"internalType":"address","name":"winner","type":"address"}],"stateMutability":"view","type":"function"},{"inputs":[{"internalType":"uint256","name":"gameId","type":"uint256"},{"internalType":"address","name":"player","type":"address"}],"name":"getTotalBetOnPlayer","outputs":[{"internalType":"uint256","name":"","type":"uint256"}],"stateMutability":"view","type":"function"},{"inputs":[],"name":"oneCardContract","outputs":[{"internalType":"address","name":"","type":"address"}],"stateMutability":"view","type":"function"},{"inputs":[{"internalType":"uint256","name":"gameId","type":"uint256"}],"name":"openBetting","outputs":[],"stateMutability":"nonpayable","type":"function"},{"inputs":[],"name":"owner","outputs":[{"internalType":"address","name":"","type":"address"}],"stateMutability":"view","type":"function"},{"inputs":[{"internalType":"uint256","name":"gameId","type":"uint256"},{"internalType":"address","name":"playerToBetOn","type":"address"}],"name":"placeBet","outputs":[],"stateMutability":"payable","type":"function"},{"inputs":[{"internalType":"uint256","name":"gameId","type":"uint256"},{"internalType":"address","name":"winner","type":"address"}],"name":"processResults","outputs":[],"stateMutability":"nonpayable","type":"function"}],"evm":{"bytecode":{"linkReferences":{},"object":"60c060405234801561001057600080fd5b50604051610f3d380380610f3d83398101604081905261002f9161004c565b6001600160601b0319606091821b1660805233901b60a05261007a565b60006020828403121561005d578081fd5b81516001600160a01b0381168114610073578182fd5b9392505050565b60805160601c60a05160601c610e836100ba60003960006105c60152600081816102e7015281816105050152818161061d015261097e0152610e836000f3fe6080604052600436106100a75760003560e01c80638da5cb5b116100645780638da5cb5b146101a9578063b0cad3a5146101be578063b4ad06a1146101eb578063bc1b60621461020b578063e8fb8cd01461021e578063f41c6c0a1461024c576100a7565b80630e6c893a146100ac578063117a5b90146100e457806316a26db51461011557806347e1d55014610137578063677bd9ff1461016757806372df88de14610189575b600080fd5b3480156100b857600080fd5b506100cc6100c7366004610aac565b61026c565b6040516100db93929190610afa565b60405180910390f35b3480156100f057600080fd5b506101046100ff366004610a94565b6102a9565b6040516100db959493929190610db4565b34801561012157600080fd5b5061012a6102e5565b6040516100db9190610ae6565b34801561014357600080fd5b50610157610152366004610a94565b610309565b6040516100db9493929190610b1d565b34801561017357600080fd5b50610187610182366004610a94565b610344565b005b34801561019557600080fd5b506101876101a4366004610a94565b6104fa565b3480156101b557600080fd5b5061012a6105c4565b3480156101ca57600080fd5b506101de6101d9366004610aac565b6105e8565b6040516100db9190610dab565b3480156101f757600080fd5b50610187610206366004610a94565b610612565b610187610219366004610aac565b6106ce565b34801561022a57600080fd5b5061023e610239366004610aac565b610866565b6040516100db929190610b43565b34801561025857600080fd5b50610187610267366004610aac565b610973565b6000918252602082815260408084206001600160a01b03938416855260050190915290912080546001820154600290920154921692909160ff1690565b6000602081905290815260409020805460018201546002830154600390930154919260ff8083169361010090930416916001600160a01b031685565b7f000000000000000000000000000000000000000000000000000000000000000081565b60009081526020819052604090206001810154600282015460039092015460ff808316946101009093041692916001600160a01b0390911690565b600081815260208190526040902060010154610100900460ff166103835760405162461bcd60e51b815260040161037a90610cc4565b60405180910390fd5b600081815260208181526040808320338452600501909152902060018101546103be5760405162461bcd60e51b815260040161037a90610c66565b600281015460ff16156103e35760405162461bcd60e51b815260040161037a90610cfb565b60008281526020819052604090206003015481546001600160a01b0391821691168114156104e5576000838152602081815260408083206001600160a01b03851684526004810183529083205486845291839052600201546001850154919290918390610451908490610e18565b61045b9190610df8565b60028601805460ff19166001179055604051909150339082156108fc029083906000818181858888f1935050505015801561049a573d6000803e3d6000fd5b50336001600160a01b0316867f5380cf6fe903b40c6d5a9e0dfbca2f3a423f0a21520b4d5947ed5169bdba946d836040516104d59190610dab565b60405180910390a35050506104f5565b60028201805460ff191660011790555b505050565b336001600160a01b037f000000000000000000000000000000000000000000000000000000000000000016146105425760405162461bcd60e51b815260040161037a90610d32565b60008181526020819052604090206001015460ff16156105745760405162461bcd60e51b815260040161037a90610d69565b6000818152602081905260408082208381556001908101805460ff191690911761ff00191690555182917f9b4839cd96beecd8707537f988e2253e5b89e2cbf896be7557c7d30f6430b71c91a250565b7f000000000000000000000000000000000000000000000000000000000000000081565b6000828152602081815260408083206001600160a01b038516845260040190915290205492915050565b336001600160a01b037f0000000000000000000000000000000000000000000000000000000000000000161461065a5760405162461bcd60e51b815260040161037a90610d32565b60008181526020819052604090206001015460ff1661068b5760405162461bcd60e51b815260040161037a90610b53565b600081815260208190526040808220600101805460ff191690555182917feb7ecc3aa4dd407c7207677a2cbf861441d5c5e6c0dc70ad9692a980385c20d691a250565b60008281526020819052604090206001015460ff166106ff5760405162461bcd60e51b815260040161037a90610bee565b6000341161071f5760405162461bcd60e51b815260040161037a90610c25565b6000828152602081815260408083203384526005019091529020600101541561075a5760405162461bcd60e51b815260040161037a90610b7d565b604080516060810182526001600160a01b0383811680835234602080850182815260008688018181528a8252818452888220338352600581018552898320985189546001600160a01b03191698169790971788559151600188015590516002909601805460ff1916961515969096179095559184526004909201905291812080549091906107e9908490610de0565b90915550506000828152602081905260408120600201805434929061080f908490610de0565b92505081905550806001600160a01b0316336001600160a01b0316837f4108a54a721949460b35685fb714a531f3002d5f831f59a7c8214f72a054e4d23460405161085a9190610dab565b60405180910390a45050565b6000828152602081905260408120600101548190610100900460ff166108915750600090508061096c565b6000848152602081815260408083206001600160a01b03871684526005019091529020600181015415806108c95750600281015460ff165b156108db57600080925092505061096c565b60008581526020819052604090206003015481546001600160a01b03918216911681146109105760008093509350505061096c565b6000868152602081815260408083206001600160a01b03851684526004810183529083205489845291839052600201546001850154919290918390610956908490610e18565b6109609190610df8565b60019750955050505050505b9250929050565b336001600160a01b037f000000000000000000000000000000000000000000000000000000000000000016146109bb5760405162461bcd60e51b815260040161037a90610d32565b60008281526020819052604090206001015460ff16156109ed5760405162461bcd60e51b815260040161037a90610bbe565b600082815260208190526040902060010154610100900460ff1615610a245760405162461bcd60e51b815260040161037a90610c8d565b6000828152602081905260408082206003810180546001600160a01b0386166001600160a01b031990911681179091556001909101805461ff0019166101001790559051909184917f64456c009f9e9f5c0b5843cfa4ae7981c5e2483b76f3a278b5e0eda4ca6014749190a35050565b600060208284031215610aa5578081fd5b5035919050565b60008060408385031215610abe578081fd5b8235915060208301356001600160a01b0381168114610adb578182fd5b809150509250929050565b6001600160a01b0391909116815260200190565b6001600160a01b0393909316835260208301919091521515604082015260600190565b9315158452911515602084015260408301526001600160a01b0316606082015260800190565b9115158252602082015260400190565b60208082526010908201526f2132ba3a34b733903737ba1037b832b760811b604082015260600190565b60208082526021908201527f416c726561647920706c6163656420612062657420696e20746869732067616d6040820152606560f81b606082015260800190565b60208082526016908201527510995d1d1a5b99c81b5d5cdd0818994818db1bdcd95960521b604082015260600190565b6020808252601e908201527f42657474696e67206e6f74206f70656e20666f7220746869732067616d650000604082015260600190565b60208082526021908201527f42657420616d6f756e74206d7573742062652067726561746572207468616e206040820152600360fc1b606082015260800190565b6020808252600d908201526c139bc818995d081c1b1858d959609a1b604082015260600190565b60208082526019908201527f526573756c747320616c72656164792070726f63657373656400000000000000604082015260600190565b60208082526019908201527f526573756c7473206e6f742070726f6365737365642079657400000000000000604082015260600190565b60208082526018908201527f57696e6e696e677320616c726561647920636c61696d65640000000000000000604082015260600190565b6020808252601e908201527f4f6e6c79204f6e654361726420636f6e74726163742063616e2063616c6c0000604082015260600190565b60208082526022908201527f42657474696e6720616c7265616479206f70656e20666f7220746869732067616040820152616d6560f01b606082015260800190565b90815260200190565b9485529215156020850152901515604084015260608301526001600160a01b0316608082015260a00190565b60008219821115610df357610df3610e37565b500190565b600082610e1357634e487b7160e01b81526012600452602481fd5b500490565b6000816000190483118215151615610e3257610e32610e37565b500290565b634e487b7160e01b600052601160045260246000fdfea26469706673582212208fc02da92cacf6bdf24dff6ca0974a71696ded00cca0b2256d68e3d8c569ed3264736f6c63430008000033","opcodes":"PUSH1 0xC0 PUSH1 0x40 MSTORE CALLVALUE DUP1 ISZERO PUSH2 0x10 JUMPI PUSH1 0x0 DUP1 REVERT JUMPDEST POP PUSH1 0x40 MLOAD PUSH2 0xF3D CODESIZE SUB DUP1 PUSH2 0xF3D DUP4 CODECOPY DUP2 ADD PUSH1 0x40 DUP2 SWAP1 MSTORE PUSH2 0x2F SWAP2 PUSH2 0x4C JUMP JUMPDEST PUSH1 0x1 PUSH1 0x1 PUSH1 0x60 SHL SUB NOT PUSH1 0x60 SWAP2 DUP3 SHL AND PUSH1 0x80 MSTORE CALLER SWAP1 SHL PUSH1 0xA0 MSTORE PUSH2 0x7A JUMP JUMPDEST PUSH1 0x0 PUSH1 0x20 DUP3 DUP5 SUB SLT ISZERO PUSH2 0x5D JUMPI DUP1 DUP2 REVERT JUMPDEST DUP2 MLOAD PUSH1 0x1 PUSH1 0x1 PUSH1 0xA0 SHL SUB DUP2 AND DUP2 EQ PUSH2 0x73 JUMPI DUP2 DUP3 REVERT JUMPDEST SWAP4 SWAP3 POP POP POP JUMP JUMPDEST PUSH1 0x80 MLOAD PUSH1 0x60 SHR PUSH1 0xA0 MLOAD PUSH1 0x60 SHR PUSH2 0xE83 PUSH2 0xBA PUSH1 0x0 CODECOPY PUSH1 0x0 PUSH2 0x5C6 ADD MSTORE PUSH1 0x0 DUP2 DUP2 PUSH2 0x2E7 ADD MSTORE DUP2 DUP2 PUSH2 0x505 ADD MSTORE DUP2 DUP2 PUSH2 0x61D ADD MSTORE PUSH2 0x97E ADD MSTORE PUSH2 0xE83 PUSH1 0x0 RETURN INVALID PUSH1 0x80 PUSH1 0x40 MSTORE PUSH1 0x4 CALLDATASIZE LT PUSH2 0xA7 JUMPI PUSH1 0x0 CALLDATALOAD PUSH1 0xE0 SHR DUP1 PUSH4 0x8DA5CB5B GT PUSH2 0x64 JUMPI DUP1 PUSH4 0x8DA5CB5B EQ PUSH2 0x1A9 JUMPI DUP1 PUSH4 0xB0CAD3A5 EQ PUSH2 0x1BE JUMPI DUP1 PUSH4 0xB4AD06A1 EQ PUSH2 0x1EB JUMPI DUP1 PUSH4 0xBC1B6062 EQ PUSH2 0x20B JUMPI DUP1 PUSH4 0xE8FB8CD0 EQ PUSH2 0x21E JUMPI DUP1 PUSH4 0xF41C6C0A EQ PUSH2 0x24C JUMPI PUSH2 0xA7 JUMP JUMPDEST DUP1 PUSH4 0xE6C893A EQ PUSH2 0xAC JUMPI DUP1 PUSH4 0x117A5B90 EQ PUSH2 0xE4 JUMPI DUP1 PUSH4 0x16A26DB5 EQ PUSH2 0x115 JUMPI DUP1 PUSH4 0x47E1D550 EQ PUSH2 0x137 JUMPI DUP1 PUSH4 0x677BD9FF EQ PUSH2 0x167 JUMPI DUP1 PUSH4 0x72DF88DE EQ PUSH2 0x189 JUMPI JUMPDEST PUSH1 0x0 DUP1 REVERT JUMPDEST CALLVALUE DUP1 ISZERO PUSH2 0xB8 JUMPI PUSH1 0x0 DUP1 REVERT JUMPDEST POP PUSH2 0xCC PUSH2 0xC7 CALLDATASIZE PUSH1 0x4 PUSH2 0xAAC JUMP JUMPDEST PUSH2 0x26C JUMP JUMPDEST PUSH1 0x40 MLOAD PUSH2 0xDB SWAP4 SWAP3 SWAP2 SWAP1 PUSH2 0xAFA JUMP JUMPDEST PUSH1 0x40 MLOAD DUP1 SWAP2 SUB SWAP1 RETURN JUMPDEST CALLVALUE DUP1 ISZERO PUSH2 0xF0 JUMPI PUSH1 0x0 DUP1 REVERT JUMPDEST POP PUSH2 0x104 PUSH2 0xFF CALLDATASIZE PUSH1 0x4 PUSH2 0xA94 JUMP JUMPDEST PUSH2 0x2A9 JUMP JUMPDEST PUSH1 0x40 MLOAD PUSH2 0xDB SWAP6 SWAP5 SWAP4 SWAP3 SWAP2 SWAP1 PUSH2 0xDB4 JUMP JUMPDEST CALLVALUE DUP1 ISZERO PUSH2 0x121 JUMPI PUSH1 0x0 DUP1 REVERT JUMPDEST POP PUSH2 0x12A PUSH2 0x2E5 JUMP JUMPDEST PUSH1 0x40 MLOAD PUSH2 0xDB SWAP2 SWAP1 PUSH2 0xAE6 JUMP JUMPDEST CALLVALUE DUP1 ISZERO PUSH2 0x143 JUMPI PUSH1 0x0 DUP1 REVERT JUMPDEST POP PUSH2 0x157 PUSH2 0x152 CALLDATASIZE PUSH1 0x4 PUSH2 0xA94 JUMP JUMPDEST PUSH2 0x309 JUMP JUMPDEST PUSH1 0x40 MLOAD PUSH2 0xDB SWAP5 SWAP4 SWAP3 SWAP2 SWAP1 PUSH2 0xB1D JUMP JUMPDEST CALLVALUE DUP1 ISZERO PUSH2 0x173 JUMPI PUSH1 0x0 DUP1 REVERT JUMPDEST POP PUSH2 0x187 PUSH2 0x182 CALLDATASIZE PUSH1 0x4 PUSH2 0xA94 JUMP JUMPDEST PUSH2 0x344 JUMP JUMPDEST STOP JUMPDEST CALLVALUE DUP1 ISZERO PUSH2 0x195 JUMPI PUSH1 0x0 DUP1 REVERT JUMPDEST POP PUSH2 0x187 PUSH2 0x1A4 CALLDATASIZE PUSH1 0x4 PUSH2 0xA94 JUMP JUMPDEST PUSH2 0x4FA JUMP JUMPDEST CALLVALUE DUP1 ISZERO PUSH2 0x1B5 JUMPI PUSH1 0x0 DUP1 REVERT JUMPDEST POP PUSH2 0x12A PUSH2 0x5C4 JUMP JUMPDEST CALLVALUE DUP1 ISZERO PUSH2 0x1CA JUMPI PUSH1 0x0 DUP1 REVERT JUMPDEST POP PUSH2 0x1DE PUSH2 0x1D9 CALLDATASIZE PUSH1 0x4 PUSH2 0xAAC JUMP JUMPDEST PUSH2 0x5E8 JUMP JUMPDEST PUSH1 0x40 MLOAD PUSH2 0xDB SWAP2 SWAP1 PUSH2 0xDAB JUMP JUMPDEST CALLVALUE DUP1 ISZERO PUSH2 0x1F7 JUMPI PUSH1 0x0 DUP1 REVERT JUMPDEST POP PUSH2 0x187 PUSH2 0x206 CALLDATASIZE PUSH1 0x4 PUSH2 0xA94 JUMP JUMPDEST PUSH2 0x612 JUMP JUMPDEST PUSH2 0x187 PUSH2 0x219 CALLDATASIZE PUSH1 0x4 PUSH2 0xAAC JUMP JUMPDEST PUSH2 0x6CE JUMP JUMPDEST CALLVALUE DUP1 ISZERO PUSH2 0x22A JUMPI PUSH1 0x0 DUP1 REVERT JUMPDEST POP PUSH2 0x23E PUSH2 0x239 CALLDATASIZE PUSH1 0x4 PUSH2 0xAAC JUMP JUMPDEST PUSH2 0x866 JUMP JUMPDEST PUSH1 0x40 MLOAD PUSH2 0xDB SWAP3 SWAP2 SWAP1 PUSH2 0xB43 JUMP JUMPDEST CALLVALUE DUP1 ISZERO PUSH2 0x258 JUMPI PUSH1 0x0 DUP1 REVERT JUMPDEST POP PUSH2 0x187 PUSH2 0x267 CALLDATASIZE PUSH1 0x4 PUSH2 0xAAC JUMP JUMPDEST PUSH2 0x973 JUMP JUMPDEST PUSH1 0x0 SWAP2 DUP3 MSTORE PUSH1 0x20 DUP3 DUP2 MSTORE PUSH1 0x40 DUP1 DUP5 KECCAK256 PUSH1 0x1 PUSH1 0x1 PUSH1 0xA0 SHL SUB SWAP4 DUP5 AND DUP6 MSTORE PUSH1 0x5 ADD SWAP1 SWAP2 MSTORE SWAP1 SWAP2 KECCAK256 DUP1 SLOAD PUSH1 0x1 DUP3 ADD SLOAD PUSH1 0x2 SWAP1 SWAP3 ADD SLOAD SWAP3 AND SWAP3 SWAP1 SWAP2 PUSH1 0xFF AND SWAP1 JUMP JUMPDEST PUSH1 0x0 PUSH1 0x20 DUP2 SWAP1 MSTORE SWAP1 DUP2 MSTORE PUSH1 0x40 SWAP1 KECCAK256 DUP1 SLOAD PUSH1 0x1 DUP3 ADD SLOAD PUSH1 0x2 DUP4 ADD SLOAD PUSH1 0x3 SWAP1 SWAP4 ADD SLOAD SWAP2 SWAP3 PUSH1 0xFF DUP1 DUP4 AND SWAP4 PUSH2 0x100 SWAP1 SWAP4 DIV AND SWAP2 PUSH1 0x1 PUSH1 0x1 PUSH1 0xA0 SHL SUB AND DUP6 JUMP JUMPDEST PUSH32 0x0 DUP2 JUMP JUMPDEST PUSH1 0x0 SWAP1 DUP2 MSTORE PUSH1 0x20 DUP2 SWAP1 MSTORE PUSH1 0x40 SWAP1 KECCAK256 PUSH1 0x1 DUP2 ADD SLOAD PUSH1 0x2 DUP3 ADD SLOAD PUSH1 0x3 SWAP1 SWAP3 ADD SLOAD PUSH1 0xFF DUP1 DUP4 AND SWAP5 PUSH2 0x100 SWAP1 SWAP4 DIV AND SWAP3 SWAP2 PUSH1 0x1 PUSH1 0x1 PUSH1 0xA0 SHL SUB SWAP1 SWAP2 AND SWAP1 JUMP JUMPDEST PUSH1 0x0 DUP2 DUP2 MSTORE PUSH1 0x20 DUP2 SWAP1 MSTORE PUSH1 0x40 SWAP1 KECCAK256 PUSH1 0x1 ADD SLOAD PUSH2 0x100 SWAP1 DIV PUSH1 0xFF AND PUSH2 0x383 JUMPI PUSH1 0x40 MLOAD PUSH3 0x461BCD PUSH1 0xE5 SHL DUP2 MSTORE PUSH1 0x4 ADD PUSH2 0x37A SWAP1 PUSH2 0xCC4 JUMP JUMPDEST PUSH1 0x40 MLOAD DUP1 SWAP2 SUB SWAP1 REVERT JUMPDEST PUSH1 0x0 DUP2 DUP2 MSTORE PUSH1 0x20 DUP2 DUP2 MSTORE PUSH1 0x40 DUP1 DUP4 KECCAK256 CALLER DUP5 MSTORE PUSH1 0x5 ADD SWAP1 SWAP2 MSTORE SWAP1 KECCAK256 PUSH1 0x1 DUP2 ADD SLOAD PUSH2 0x3BE JUMPI PUSH1 0x40 MLOAD PUSH3 0x461BCD PUSH1 0xE5 SHL DUP2 MSTORE PUSH1 0x4 ADD PUSH2 0x37A SWAP1 PUSH2 0xC66 JUMP JUMPDEST PUSH1 0x2 DUP2 ADD SLOAD PUSH1 0xFF AND ISZERO PUSH2 0x3E3 JUMPI PUSH1 0x40 MLOAD PUSH3 0x461BCD PUSH1 0xE5 SHL DUP2 MSTORE PUSH1 0x4 ADD PUSH2 0x37A SWAP1 PUSH2 0xCFB JUMP JUMPDEST PUSH1 0x0 DUP3 DUP2 MSTORE PUSH1 0x20 DUP2 SWAP1 MSTORE PUSH1 0x40 SWAP1 KECCAK256 PUSH1 0x3 ADD SLOAD DUP2 SLOAD PUSH1 0x1 PUSH1 0x1 PUSH1 0xA0 SHL SUB SWAP2 DUP3 AND SWAP2 AND DUP2 EQ ISZERO PUSH2 0x4E5 JUMPI PUSH1 0x0 DUP4 DUP2 MSTORE PUSH1 0x20 DUP2 DUP2 MSTORE PUSH1 0x40 DUP1 DUP4 KECCAK256 PUSH1 0x1 PUSH1 0x1 PUSH1 0xA0 SHL SUB DUP6 AND DUP5 MSTORE PUSH1 0x4 DUP2 ADD DUP4 MSTORE SWAP1 DUP4 KECCAK256 SLOAD DUP7 DUP5 MSTORE SWAP2 DUP4 SWAP1 MSTORE PUSH1 0x2 ADD SLOAD PUSH1 0x1 DUP6 ADD SLOAD SWAP2 SWAP3 SWAP1 SWAP2 DUP4 SWAP1 PUSH2 0x451 SWAP1 DUP5 SWAP1 PUSH2 0xE18 JUMP JUMPDEST PUSH2 0x45B SWAP2 SWAP1 PUSH2 0xDF8 JUMP JUMPDEST PUSH1 0x2 DUP7 ADD DUP1 SLOAD PUSH1 0xFF NOT AND PUSH1 0x1 OR SWAP1 SSTORE PUSH1 0x40 MLOAD SWAP1 SWAP2 POP CALLER SWAP1 DUP3 ISZERO PUSH2 0x8FC MUL SWAP1 DUP4 SWAP1 PUSH1 0x0 DUP2 DUP2 DUP2 DUP6 DUP9 DUP9 CALL SWAP4 POP POP POP POP ISZERO DUP1 ISZERO PUSH2 0x49A JUMPI RETURNDATASIZE PUSH1 0x0 DUP1 RETURNDATACOPY RETURNDATASIZE PUSH1 0x0 REVERT JUMPDEST POP CALLER PUSH1 0x1 PUSH1 0x1 PUSH1 0xA0 SHL SUB AND DUP7 PUSH32 0x5380CF6FE903B40C6D5A9E0DFBCA2F3A423F0A21520B4D5947ED5169BDBA946D DUP4 PUSH1 0x40 MLOAD PUSH2 0x4D5 SWAP2 SWAP1 PUSH2 0xDAB JUMP JUMPDEST PUSH1 0x40 MLOAD DUP1 SWAP2 SUB SWAP1 LOG3 POP POP POP PUSH2 0x4F5 JUMP JUMPDEST PUSH1 0x2 DUP3 ADD DUP1 SLOAD PUSH1 0xFF NOT AND PUSH1 0x1 OR SWAP1 SSTORE JUMPDEST POP POP POP JUMP JUMPDEST CALLER PUSH1 0x1 PUSH1 0x1 PUSH1 0xA0 SHL SUB PUSH32 0x0 AND EQ PUSH2 0x542 JUMPI PUSH1 0x40 MLOAD PUSH3 0x461BCD PUSH1 0xE5 SHL DUP2 MSTORE PUSH1 0x4 ADD PUSH2 0x37A SWAP1 PUSH2 0xD32 JUMP JUMPDEST PUSH1 0x0 DUP2 DUP2 MSTORE PUSH1 0x20 DUP2 SWAP1 MSTORE PUSH1 0x40 SWAP1 KECCAK256 PUSH1 0x1 ADD SLOAD PUSH1 0xFF AND ISZERO PUSH2 0x574 JUMPI PUSH1 0x40 MLOAD PUSH3 0x461BCD PUSH1 0xE5 SHL DUP2 MSTORE PUSH1 0x4 ADD PUSH2 0x37A SWAP1 PUSH2 0xD69 JUMP JUMPDEST PUSH1 0x0 DUP2 DUP2 MSTORE PUSH1 0x20 DUP2 SWAP1 MSTORE PUSH1 0x40 DUP1 DUP3 KECCAK256 DUP4 DUP2 SSTORE PUSH1 0x1 SWAP1 DUP2 ADD DUP1 SLOAD PUSH1 0xFF NOT AND SWAP1 SWAP2 OR PUSH2 0xFF00 NOT AND SWAP1 SSTORE MLOAD DUP3 SWAP2 PUSH32 0x9B4839CD96BEECD8707537F988E2253E5B89E2CBF896BE7557C7D30F6430B71C SWAP2 LOG2 POP JUMP JUMPDEST PUSH32 0x0 DUP2 JUMP JUMPDEST PUSH1 0x0 DUP3 DUP2 MSTORE PUSH1 0x20 DUP2 DUP2 MSTORE PUSH1 0x40 DUP1 DUP4 KECCAK256 PUSH1 0x1 PUSH1 0x1 PUSH1 0xA0 SHL SUB DUP6 AND DUP5 MSTORE PUSH1 0x4 ADD SWAP1 SWAP2 MSTORE SWAP1 KECCAK256 SLOAD SWAP3 SWAP2 POP POP JUMP JUMPDEST CALLER PUSH1 0x1 PUSH1 0x1 PUSH1 0xA0 SHL SUB PUSH32 0x0 AND EQ PUSH2 0x65A JUMPI PUSH1 0x40 MLOAD PUSH3 0x461BCD PUSH1 0xE5 SHL DUP2 MSTORE PUSH1 0x4 ADD PUSH2 0x37A SWAP1 PUSH2 0xD32 JUMP JUMPDEST PUSH1 0x0 DUP2 DUP2 MSTORE PUSH1 0x20 DUP2 SWAP1 MSTORE PUSH1 0x40 SWAP1 KECCAK256 PUSH1 0x1 ADD SLOAD PUSH1 0xFF AND PUSH2 0x68B JUMPI PUSH1 0x40 MLOAD PUSH3 0x461BCD PUSH1 0xE5 SHL DUP2 MSTORE PUSH1 0x4 ADD PUSH2 0x37A SWAP1 PUSH2 0xB53 JUMP JUMPDEST PUSH1 0x0 DUP2 DUP2 MSTORE PUSH1 0x20 DUP2 SWAP1 MSTORE PUSH1 0x40 DUP1 DUP3 KECCAK256 PUSH1 0x1 ADD DUP1 SLOAD PUSH1 0xFF NOT AND SWAP1 SSTORE MLOAD DUP3 SWAP2 PUSH32 0xEB7ECC3AA4DD407C7207677A2CBF861441D5C5E6C0DC70AD9692A980385C20D6 SWAP2 LOG2 POP JUMP JUMPDEST PUSH1 0x0 DUP3 DUP2 MSTORE PUSH1 0x20 DUP2 SWAP1 MSTORE PUSH1 0x40 SWAP1 KECCAK256 PUSH1 0x1 ADD SLOAD PUSH1 0xFF AND PUSH2 0x6FF JUMPI PUSH1 0x40 MLOAD PUSH3 0x461BCD PUSH1 0xE5 SHL DUP2 MSTORE PUSH1 0x4 ADD PUSH2 0x37A SWAP1 PUSH2 0xBEE JUMP JUMPDEST PUSH1 0x0 CALLVALUE GT PUSH2 0x71F JUMPI PUSH1 0x40 MLOAD PUSH3 0x461BCD PUSH1 0xE5 SHL DUP2 MSTORE PUSH1 0x4 ADD PUSH2 0x37A SWAP1 PUSH2 0xC25 JUMP JUMPDEST PUSH1 0x0 DUP3 DUP2 MSTORE PUSH1 0x20 DUP2 DUP2 MSTORE PUSH1 0x40 DUP1 DUP4 KECCAK256 CALLER DUP5 MSTORE PUSH1 0x5 ADD SWAP1 SWAP2 MSTORE SWAP1 KECCAK256 PUSH1 0x1 ADD SLOAD ISZERO PUSH2 0x75A JUMPI PUSH1 0x40 MLOAD PUSH3 0x461BCD PUSH1 0xE5 SHL DUP2 MSTORE PUSH1 0x4 ADD PUSH2 0x37A SWAP1 PUSH2 0xB7D JUMP JUMPDEST PUSH1 0x40 DUP1 MLOAD PUSH1 0x60 DUP2 ADD DUP3 MSTORE PUSH1 0x1 PUSH1 0x1 PUSH1 0xA0 SHL SUB DUP4 DUP2 AND DUP1 DUP4 MSTORE CALLVALUE PUSH1 0x20 DUP1 DUP6 ADD DUP3 DUP2 MSTORE PUSH1 0x0 DUP7 DUP9 ADD DUP2 DUP2 MSTORE DUP11 DUP3 MSTORE DUP2 DUP5 MSTORE DUP9 DUP3 KECCAK256 CALLER DUP4 MSTORE PUSH1 0x5 DUP2 ADD DUP6 MSTORE DUP10 DUP4 KECCAK256 SWAP9 MLOAD DUP10 SLOAD PUSH1 0x1 PUSH1 0x1 PUSH1 0xA0 SHL SUB NOT AND SWAP9 AND SWAP8 SWAP1 SWAP8 OR DUP9 SSTORE SWAP2 MLOAD PUSH1 0x1 DUP9 ADD SSTORE SWAP1 MLOAD PUSH1 0x2 SWAP1 SWAP7 ADD DUP1 SLOAD PUSH1 0xFF NOT AND SWAP7 ISZERO ISZERO SWAP7 SWAP1 SWAP7 OR SWAP1 SWAP6 SSTORE SWAP2 DUP5 MSTORE PUSH1 0x4 SWAP1 SWAP3 ADD SWAP1 MSTORE SWAP2 DUP2 KECCAK256 DUP1 SLOAD SWAP1 SWAP2 SWAP1 PUSH2 0x7E9 SWAP1 DUP5 SWAP1 PUSH2 0xDE0 JUMP JUMPDEST SWAP1 SWAP2 SSTORE POP POP PUSH1 0x0 DUP3 DUP2 MSTORE PUSH1 0x20 DUP2 SWAP1 MSTORE PUSH1 0x40 DUP2 KECCAK256 PUSH1 0x2 ADD DUP1 SLOAD CALLVALUE SWAP3 SWAP1 PUSH2 0x80F SWAP1 DUP5 SWAP1 PUSH2 0xDE0 JUMP JUMPDEST SWAP3 POP POP DUP2 SWAP1 SSTORE POP DUP1 PUSH1 0x1 PUSH1 0x1 PUSH1 0xA0 SHL SUB AND CALLER PUSH1 0x1 PUSH1 0x1 PUSH1 0xA0 SHL SUB AND DUP4 PUSH32 0x4108A54A721949460B35685FB714A531F3002D5F831F59A7C8214F72A054E4D2 CALLVALUE PUSH1 0x40 MLOAD PUSH2 0x85A SWAP2 SWAP1 PUSH2 0xDAB JUMP JUMPDEST PUSH1 0x40 MLOAD DUP1 SWAP2 SUB SWAP1 LOG4 POP POP JUMP JUMPDEST PUSH1 0x0 DUP3 DUP2 MSTORE PUSH1 0x20 DUP2 SWAP1 MSTORE PUSH1 0x40 DUP2 KECCAK256 PUSH1 0x1 ADD SLOAD DUP2 SWAP1 PUSH2 0x100 SWAP1 DIV PUSH1 0xFF AND PUSH2 0x891 JUMPI POP PUSH1 0x0 SWAP1 POP DUP1 PUSH2 0x96C JUMP JUMPDEST PUSH1 0x0 DUP5 DUP2 MSTORE PUSH1 0x20 DUP2 DUP2 MSTORE PUSH1 0x40 DUP1 DUP4 KECCAK256 PUSH1 0x1 PUSH1 0x1 PUSH1 0xA0 SHL SUB DUP8 AND DUP5 MSTORE PUSH1 0x5 ADD SWAP1 SWAP2 MSTORE SWAP1 KECCAK256 PUSH1 0x1 DUP2 ADD SLOAD ISZERO DUP1 PUSH2 0x8C9 JUMPI POP PUSH1 0x2 DUP2 ADD SLOAD PUSH1 0xFF AND JUMPDEST ISZERO PUSH2 0x8DB JUMPI PUSH1 0x0 DUP1 SWAP3 POP SWAP3 POP POP PUSH2 0x96C JUMP JUMPDEST PUSH1 0x0 DUP6 DUP2 MSTORE PUSH1 0x20 DUP2 SWAP1 MSTORE PUSH1 0x40 SWAP1 KECCAK256 PUSH1 0x3 ADD SLOAD DUP2 SLOAD PUSH1 0x1 PUSH1 0x1 PUSH1 0xA0 SHL SUB SWAP2 DUP3 AND SWAP2 AND DUP2 EQ PUSH2 0x910 JUMPI PUSH1 0x0 DUP1 SWAP4 POP SWAP4 POP POP POP PUSH2 0x96C JUMP JUMPDEST PUSH1 0x0 DUP7 DUP2 MSTORE PUSH1 0x20 DUP2 DUP2 MSTORE PUSH1 0x40 DUP1 DUP4 KECCAK256 PUSH1 0x1 PUSH1 0x1 PUSH1 0xA0 SHL SUB DUP6 AND DUP5 MSTORE PUSH1 0x4 DUP2 ADD DUP4 MSTORE SWAP1 DUP4 KECCAK256 SLOAD DUP10 DUP5 MSTORE SWAP2 DUP4 SWAP1 MSTORE PUSH1 0x2 ADD SLOAD PUSH1 0x1 DUP6 ADD SLOAD SWAP2 SWAP3 SWAP1 SWAP2 DUP4 SWAP1 PUSH2 0x956 SWAP1 DUP5 SWAP1 PUSH2 0xE18 JUMP JUMPDEST PUSH2 0x960 SWAP2 SWAP1 PUSH2 0xDF8 JUMP JUMPDEST PUSH1 0x1 SWAP8 POP SWAP6 POP POP POP POP POP POP JUMPDEST SWAP3 POP SWAP3 SWAP1 POP JUMP JUMPDEST CALLER PUSH1 0x1 PUSH1 0x1 PUSH1 0xA0 SHL SUB PUSH32 0x0 AND EQ PUSH2 0x9BB JUMPI PUSH1 0x40 MLOAD PUSH3 0x461BCD PUSH1 0xE5 SHL DUP2 MSTORE PUSH1 0x4 ADD PUSH2 0x37A SWAP1 PUSH2 0xD32 JUMP JUMPDEST PUSH1 0x0 DUP3 DUP2 MSTORE PUSH1 0x20 DUP2 SWAP1 MSTORE PUSH1 0x40 SWAP1 KECCAK256 PUSH1 0x1 ADD SLOAD PUSH1 0xFF AND ISZERO PUSH2 0x9ED JUMPI PUSH1 0x40 MLOAD PUSH3 0x461BCD PUSH1 0xE5 SHL DUP2 MSTORE PUSH1 0x4 ADD PUSH2 0x37A SWAP1 PUSH2 0xBBE JUMP JUMPDEST PUSH1 0x0 DUP3 DUP2 MSTORE PUSH1 0x20 DUP2 SWAP1 MSTORE PUSH1 0x40 SWAP1 KECCAK256 PUSH1 0x1 ADD SLOAD PUSH2 0x100 SWAP1 DIV PUSH1 0xFF AND ISZERO PUSH2 0xA24 JUMPI PUSH1 0x40 MLOAD PUSH3 0x461BCD PUSH1 0xE5 SHL DUP2 MSTORE PUSH1 0x4 ADD PUSH2 0x37A SWAP1 PUSH2 0xC8D JUMP JUMPDEST PUSH1 0x0 DUP3 DUP2 MSTORE PUSH1 0x20 DUP2 SWAP1 MSTORE PUSH1 0x40 DUP1 DUP3 KECCAK256 PUSH1 0x3 DUP2 ADD DUP1 SLOAD PUSH1 0x1 PUSH1 0x1 PUSH1 0xA0 SHL SUB DUP7 AND PUSH1 0x1 PUSH1 0x1 PUSH1 0xA0 SHL SUB NOT SWAP1 SWAP2 AND DUP2 OR SWAP1 SWAP2 SSTORE PUSH1 0x1 SWAP1 SWAP2 ADD DUP1 SLOAD PUSH2 0xFF00 NOT AND PUSH2 0x100 OR SWAP1 SSTORE SWAP1 MLOAD SWAP1 SWAP2 DUP5 SWAP2 PUSH32 0x64456C009F9E9F5C0B5843CFA4AE7981C5E2483B76F3A278B5E0EDA4CA601474 SWAP2 SWAP1 LOG3 POP POP JUMP JUMPDEST PUSH1 0x0 PUSH1 0x20 DUP3 DUP5 SUB SLT ISZERO PUSH2 0xAA5 JUMPI DUP1 DUP2 REVERT JUMPDEST POP CALLDATALOAD SWAP2 SWAP1 POP JUMP JUMPDEST PUSH1 0x0 DUP1 PUSH1 0x40 DUP4 DUP6 SUB SLT ISZERO PUSH2 0xABE JUMPI DUP1 DUP2 REVERT JUMPDEST DUP3 CALLDATALOAD SWAP2 POP PUSH1 0x20 DUP4 ADD CALLDATALOAD PUSH1 0x1 PUSH1 0x1 PUSH1 0xA0 SHL SUB DUP2 AND DUP2 EQ PUSH2 0xADB JUMPI DUP2 DUP3 REVERT JUMPDEST DUP1 SWAP2 POP POP SWAP3 POP SWAP3 SWAP1 POP JUMP JUMPDEST PUSH1 0x1 PUSH1 0x1 PUSH1 0xA0 SHL SUB SWAP2 SWAP1 SWAP2 AND DUP2 MSTORE PUSH1 0x20 ADD SWAP1 JUMP JUMPDEST PUSH1 0x1 PUSH1 0x1 PUSH1 0xA0 SHL SUB SWAP4 SWAP1 SWAP4 AND DUP4 MSTORE PUSH1 0x20 DUP4 ADD SWAP2 SWAP1 SWAP2 MSTORE ISZERO ISZERO PUSH1 0x40 DUP3 ADD MSTORE PUSH1 0x60 ADD SWAP1 JUMP JUMPDEST SWAP4 ISZERO ISZERO DUP5 MSTORE SWAP2 ISZERO ISZERO PUSH1 0x20 DUP5 ADD MSTORE PUSH1 0x40 DUP4 ADD MSTORE PUSH1 0x1 PUSH1 0x1 PUSH1 0xA0 SHL SUB AND PUSH1 0x60 DUP3 ADD MSTORE PUSH1 0x80 ADD SWAP1 JUMP JUMPDEST SWAP2 ISZERO ISZERO DUP3 MSTORE PUSH1 0x20 DUP3 ADD MSTORE PUSH1 0x40 ADD SWAP1 JUMP JUMPDEST PUSH1 0x20 DUP1 DUP3 MSTORE PUSH1 0x10 SWAP1 DUP3 ADD MSTORE PUSH16 0x2132BA3A34B733903737BA1037B832B7 PUSH1 0x81 SHL PUSH1 0x40 DUP3 ADD MSTORE PUSH1 0x60 ADD SWAP1 JUMP JUMPDEST PUSH1 0x20 DUP1 DUP3 MSTORE PUSH1 0x21 SWAP1 DUP3 ADD MSTORE PUSH32 0x416C726561647920706C6163656420612062657420696E20746869732067616D PUSH1 0x40 DUP3 ADD MSTORE PUSH1 0x65 PUSH1 0xF8 SHL PUSH1 0x60 DUP3 ADD MSTORE PUSH1 0x80 ADD SWAP1 JUMP JUMPDEST PUSH1 0x20 DUP1 DUP3 MSTORE PUSH1 0x16 SWAP1 DUP3 ADD MSTORE PUSH22 0x10995D1D1A5B99C81B5D5CDD0818994818DB1BDCD959 PUSH1 0x52 SHL PUSH1 0x40 DUP3 ADD MSTORE PUSH1 0x60 ADD SWAP1 JUMP JUMPDEST PUSH1 0x20 DUP1 DUP3 MSTORE PUSH1 0x1E SWAP1 DUP3 ADD MSTORE PUSH32 0x42657474696E67206E6F74206F70656E20666F7220746869732067616D650000 PUSH1 0x40 DUP3 ADD MSTORE PUSH1 0x60 ADD SWAP1 JUMP JUMPDEST PUSH1 0x20 DUP1 DUP3 MSTORE PUSH1 0x21 SWAP1 DUP3 ADD MSTORE PUSH32 0x42657420616D6F756E74206D7573742062652067726561746572207468616E20 PUSH1 0x40 DUP3 ADD MSTORE PUSH1 0x3 PUSH1 0xFC SHL PUSH1 0x60 DUP3 ADD MSTORE PUSH1 0x80 ADD SWAP1 JUMP JUMPDEST PUSH1 0x20 DUP1 DUP3 MSTORE PUSH1 0xD SWAP1 DUP3 ADD MSTORE PUSH13 0x139BC818995D081C1B1858D959 PUSH1 0x9A SHL PUSH1 0x40 DUP3 ADD MSTORE PUSH1 0x60 ADD SWAP1 JUMP JUMPDEST PUSH1 0x20 DUP1 DUP3 MSTORE PUSH1 0x19 SWAP1 DUP3 ADD MSTORE PUSH32 0x526573756C747320616C72656164792070726F63657373656400000000000000 PUSH1 0x40 DUP3 ADD MSTORE PUSH1 0x60 ADD SWAP1 JUMP JUMPDEST PUSH1 0x20 DUP1 DUP3 MSTORE PUSH1 0x19 SWAP1 DUP3 ADD MSTORE PUSH32 0x526573756C7473206E6F742070726F6365737365642079657400000000000000 PUSH1 0x40 DUP3 ADD MSTORE PUSH1 0x60 ADD SWAP1 JUMP JUMPDEST PUSH1 0x20 DUP1 DUP3 MSTORE PUSH1 0x18 SWAP1 DUP3 ADD MSTORE PUSH32 0x57696E6E696E677320616C726561647920636C61696D65640000000000000000 PUSH1 0x40 DUP3 ADD MSTORE PUSH1 0x60 ADD SWAP1 JUMP JUMPDEST PUSH1 0x20 DUP1 DUP3 MSTORE PUSH1 0x1E SWAP1 DUP3 ADD MSTORE PUSH32 0x4F6E6C79204F6E654361726420636F6E74726163742063616E2063616C6C0000 PUSH1 0x40 DUP3 ADD MSTORE PUSH1 0x60 ADD SWAP1 JUMP JUMPDEST PUSH1 0x20 DUP1 DUP3 MSTORE PUSH1 0x22 SWAP1 DUP3 ADD MSTORE PUSH32 0x42657474696E6720616C7265616479206F70656E20666F722074686973206761 PUSH1 0x40 DUP3 ADD MSTORE PUSH2 0x6D65 PUSH1 0xF0 SHL PUSH1 0x60 DUP3 ADD MSTORE PUSH1 0x80 ADD SWAP1 JUMP JUMPDEST SWAP1 DUP2 MSTORE PUSH1 0x20 ADD SWAP1 JUMP JUMPDEST SWAP5 DUP6 MSTORE SWAP3 ISZERO ISZERO PUSH1 0x20 DUP6 ADD MSTORE SWAP1 ISZERO ISZERO PUSH1 0x40 DUP5 ADD MSTORE PUSH1 0x60 DUP4 ADD MSTORE PUSH1 0x1 PUSH1 0x1 PUSH1 0xA0 SHL SUB AND PUSH1 0x80 DUP3 ADD MSTORE PUSH1 0xA0 ADD SWAP1 JUMP JUMPDEST PUSH1 0x0 DUP3 NOT DUP3 GT ISZERO PUSH2 0xDF3 JUMPI PUSH2 0xDF3 PUSH2 0xE37 JUMP JUMPDEST POP ADD SWAP1 JUMP JUMPDEST PUSH1 0x0 DUP3 PUSH2 0xE13 JUMPI PUSH4 0x4E487B71 PUSH1 0xE0 SHL DUP2 MSTORE PUSH1 0x12 PUSH1 0x4 MSTORE PUSH1 0x24 DUP2 REVERT JUMPDEST POP DIV SWAP1 JUMP JUMPDEST PUSH1 0x0 DUP2 PUSH1 0x0 NOT DIV DUP4 GT DUP3 ISZERO ISZERO AND ISZERO PUSH2 0xE32 JUMPI PUSH2 0xE32 PUSH2 0xE37 JUMP JUMPDEST POP MUL SWAP1 JUMP JUMPDEST PUSH4 0x4E487B71 PUSH1 0xE0 SHL PUSH1 0x0 MSTORE PUSH1 0x11 PUSH1 0x4 MSTORE PUSH1 0x24 PUSH1 0x0 REVERT INVALID LOG2 PUSH5 0x6970667358 0x22 SLT KECCAK256 DUP16 0xC0 0x2D 0xA9 0x2C 0xAC 0xF6 0xBD CALLCODE 0x4D SELFDESTRUCT PUSH13 0xA0974A71696DED00CCA0B2256D PUSH9 0xE3D8C569ED3264736F PUSH13 0x63430008000033000000000000 "},"methodIdentifiers":{"checkWinnings(uint256,address)":"e8fb8cd0","claimWinnings(uint256)":"677bd9ff","closeBetting(uint256)":"b4ad06a1","games(uint256)":"117a5b90","getBetInfo(uint256,address)":"0e6c893a","getGameInfo(uint256)":"47e1d550","getTotalBetOnPlayer(uint256,address)":"b0cad3a5","oneCardContract()":"16a26db5","openBetting(uint256)":"72df88de","owner()":"8da5cb5b","placeBet(uint256,address)":"bc1b6062","processResults(uint256,address)":"f41c6c0a"}}}}}