{"contracts/vanilla/OneCard.sol":{"OneCard":{"abi":[{"inputs":[],"stateMutability":"nonpayable","type":"constructor"},{"anonymous":false,"inputs":[{"indexed":true,"internalType":"uint256","name":"gameId","type":"uint256"}],"name":"BettingPhaseStarted","type":"event"},{"anonymous":false,"inputs":[{"indexed":true,"internalType":"uint256","name":"gameId","type":"uint256"},{"indexed":false,"internalType":"enum GameLibrary.GameState","name":"currentState","type":"uint8"},{"indexed":false,"internalType":"enum GameLibrary.GameState","name":"nextState","type":"uint8"}],"name":"BufferPeriodStarted","type":"event"},{"anonymous":false,"inputs":[{"indexed":true,"internalType":"address","name":"player","type":"address"},{"indexed":false,"internalType":"uint8","name":"value","type":"uint8"},{"indexed":false,"internalType":"uint8","name":"suit","type":"uint8"}],"name":"CardPeeked","type":"event"},{"anonymous":false,"inputs":[{"indexed":true,"internalType":"uint256","name":"gameId","type":"uint256"},{"indexed":false,"internalType":"address","name":"keeper","type":"address"}],"name":"GameCreated","type":"event"},{"anonymous":false,"inputs":[{"indexed":true,"internalType":"uint256","name":"gameId","type":"uint256"},{"indexed":true,"internalType":"address","name":"creator","type":"address"}],"name":"GameCreatedByPlayer","type":"event"},{"anonymous":false,"inputs":[{"indexed":true,"internalType":"uint256","name":"gameId","type":"uint256"},{"indexed":false,"internalType":"address","name":"winner","type":"address"},{"indexed":false,"internalType":"uint256","name":"potAmount","type":"uint256"}],"name":"GameEnded","type":"event"},{"anonymous":false,"inputs":[{"indexed":true,"internalType":"uint256","name":"gameId","type":"uint256"}],"name":"PeekPhaseStarted","type":"event"},{"anonymous":false,"inputs":[{"indexed":true,"internalType":"uint256","name":"gameId","type":"uint256"},{"indexed":true,"internalType":"address","name":"player","type":"address"},{"indexed":false,"internalType":"string","name":"action","type":"string"},{"indexed":false,"internalType":"uint256","name":"amount","type":"uint256"}],"name":"PlayerAction","type":"event"},{"anonymous":false,"inputs":[{"indexed":true,"internalType":"uint256","name":"gameId","type":"uint256"},{"indexed":false,"internalType":"address","name":"player","type":"address"}],"name":"PlayerJoined","type":"event"},{"anonymous":false,"inputs":[{"indexed":true,"internalType":"uint256","name":"gameId","type":"uint256"}],"name":"ShowdownStarted","type":"event"},{"inputs":[],"name":"BETTING_PHASE_DURATION","outputs":[{"internalType":"uint256","name":"","type":"uint256"}],"stateMutability":"view","type":"function"},{"inputs":[],"name":"INITIAL_CHIPS","outputs":[{"internalType":"uint256","name":"","type":"uint256"}],"stateMutability":"view","type":"function"},{"inputs":[],"name":"MAX_PLAYERS","outputs":[{"internalType":"uint8","name":"","type":"uint8"}],"stateMutability":"view","type":"function"},{"inputs":[],"name":"MINIMUM_BET","outputs":[{"internalType":"uint256","name":"","type":"uint256"}],"stateMutability":"view","type":"function"},{"inputs":[],"name":"PEEK_FEE","outputs":[{"internalType":"uint256","name":"","type":"uint256"}],"stateMutability":"view","type":"function"},{"inputs":[],"name":"PEEK_PHASE_DURATION","outputs":[{"internalType":"uint256","name":"","type":"uint256"}],"stateMutability":"view","type":"function"},{"inputs":[],"name":"PHASE_TRANSITION_BUFFER","outputs":[{"internalType":"uint256","name":"","type":"uint256"}],"stateMutability":"view","type":"function"},{"inputs":[],"name":"STANDARD_DECK_SIZE","outputs":[{"internalType":"uint8","name":"","type":"uint8"}],"stateMutability":"view","type":"function"},{"inputs":[],"name":"SWAP_FEE","outputs":[{"internalType":"uint256","name":"","type":"uint256"}],"stateMutability":"view","type":"function"},{"inputs":[{"internalType":"address","name":"keeper","type":"address"}],"name":"addKeeper","outputs":[],"stateMutability":"nonpayable","type":"function"},{"inputs":[{"internalType":"uint256","name":"gameId","type":"uint256"}],"name":"checkAllPlayersMatched","outputs":[{"internalType":"bool","name":"","type":"bool"}],"stateMutability":"view","type":"function"},{"inputs":[{"internalType":"uint256","name":"gameId","type":"uint256"}],"name":"cleanup","outputs":[],"stateMutability":"nonpayable","type":"function"},{"inputs":[],"name":"createGame","outputs":[{"internalType":"uint256","name":"","type":"uint256"}],"stateMutability":"nonpayable","type":"function"},{"inputs":[],"name":"currentGameId","outputs":[{"internalType":"uint256","name":"","type":"uint256"}],"stateMutability":"view","type":"function"},{"inputs":[{"internalType":"uint256","name":"gameId","type":"uint256"}],"name":"endBettingPhase","outputs":[],"stateMutability":"nonpayable","type":"function"},{"inputs":[{"internalType":"uint256","name":"gameId","type":"uint256"}],"name":"endPeekPhase","outputs":[],"stateMutability":"nonpayable","type":"function"},{"inputs":[{"internalType":"uint256","name":"gameId","type":"uint256"}],"name":"fold","outputs":[],"stateMutability":"nonpayable","type":"function"},{"inputs":[{"internalType":"uint256","name":"gameId","type":"uint256"}],"name":"getActivePlayerCount","outputs":[{"internalType":"uint256","name":"","type":"uint256"}],"stateMutability":"view","type":"function"},{"inputs":[{"internalType":"uint256","name":"gameId","type":"uint256"}],"name":"getActivePlayers","outputs":[{"internalType":"address[]","name":"activePlayers","type":"address[]"}],"stateMutability":"view","type":"function"},{"inputs":[{"internalType":"uint256","name":"gameId","type":"uint256"}],"name":"getGameInfo","outputs":[{"internalType":"enum GameLibrary.GameState","name":"state","type":"uint8"},{"internalType":"uint256","name":"potAmount","type":"uint256"},{"internalType":"uint256","name":"currentBet","type":"uint256"},{"internalType":"uint256","name":"phaseEndTime","type":"uint256"},{"internalType":"uint256","name":"bufferEndTime","type":"uint256"},{"internalType":"uint256","name":"remainingTime","type":"uint256"},{"internalType":"uint256","name":"playerCount","type":"uint256"},{"internalType":"uint256","name":"activeCount","type":"uint256"},{"internalType":"address","name":"creator","type":"address"}],"stateMutability":"view","type":"function"},{"inputs":[{"internalType":"uint256","name":"gameId","type":"uint256"},{"internalType":"address","name":"player","type":"address"}],"name":"getPlayerInfo","outputs":[{"internalType":"bool","name":"isActive","type":"bool"},{"internalType":"bool","name":"hasPeeked","type":"bool"},{"internalType":"bool","name":"hasSwappedCard","type":"bool"},{"internalType":"bool","name":"hasFolded","type":"bool"},{"internalType":"uint256","name":"chipBalance","type":"uint256"},{"internalType":"uint256","name":"currentBet","type":"uint256"}],"stateMutability":"view","type":"function"},{"inputs":[{"internalType":"uint256","name":"gameId","type":"uint256"}],"name":"getPlayers","outputs":[{"internalType":"address[]","name":"players","type":"address[]"}],"stateMutability":"view","type":"function"},{"inputs":[{"internalType":"address","name":"keeper","type":"address"}],"name":"isKeeper","outputs":[{"internalType":"bool","name":"","type":"bool"}],"stateMutability":"view","type":"function"},{"inputs":[{"internalType":"uint256","name":"gameId","type":"uint256"}],"name":"joinGame","outputs":[],"stateMutability":"nonpayable","type":"function"},{"inputs":[{"internalType":"uint256","name":"gameId","type":"uint256"}],"name":"leaveGame","outputs":[],"stateMutability":"nonpayable","type":"function"},{"inputs":[],"name":"owner","outputs":[{"internalType":"address","name":"","type":"address"}],"stateMutability":"view","type":"function"},{"inputs":[{"internalType":"uint256","name":"gameId","type":"uint256"}],"name":"peekAtCard","outputs":[],"stateMutability":"nonpayable","type":"function"},{"inputs":[{"internalType":"uint256","name":"gameId","type":"uint256"},{"internalType":"uint256","name":"betAmount","type":"uint256"}],"name":"placeBet","outputs":[],"stateMutability":"nonpayable","type":"function"},{"inputs":[{"internalType":"address","name":"","type":"address"}],"name":"playerCurrentGame","outputs":[{"internalType":"uint256","name":"","type":"uint256"}],"stateMutability":"view","type":"function"},{"inputs":[{"internalType":"address","name":"keeper","type":"address"}],"name":"removeKeeper","outputs":[],"stateMutability":"nonpayable","type":"function"},{"inputs":[{"internalType":"uint256","name":"gameId","type":"uint256"}],"name":"startGame","outputs":[],"stateMutability":"nonpayable","type":"function"},{"inputs":[{"internalType":"uint256","name":"gameId","type":"uint256"}],"name":"startPeekPhase","outputs":[],"stateMutability":"nonpayable","type":"function"},{"inputs":[{"internalType":"uint256","name":"gameId","type":"uint256"}],"name":"swapCard","outputs":[],"stateMutability":"nonpayable","type":"function"}],"evm":{"bytecode":{"linkReferences":{},"object":"60a060405234801561001057600080fd5b5033606081901b6080526000818152600360205260408120805460ff1916600117905561378f906100609039600081816107890152818161166501528181611b6c0152611c3f015261378f6000f3fe608060405234801561001057600080fd5b50600436106101fa5760003560e01c80634afe62b51161011a578063935aae40116100ad578063bff7a00b1161007c578063bff7a00b14610418578063c493153a1461042b578063e5ed1d5914610433578063efaa55a014610446578063fc2217c414610459576101fa565b8063935aae40146103e25780639c861bc5146103ea578063a410274c146103f2578063ba3a952014610405576101fa565b80637255d729116100e95780637255d729146103b5578063768aebde146103bd57806383c309b8146103c55780638da5cb5b146103cd576101fa565b80634afe62b514610372578063536a3ddc146103855780635d27e0721461038d5780636ba42aaa14610395576101fa565b8063342ed956116101925780634032b72b116101615780634032b72b1461030f5780634411b3eb14610322578063460e20491461033757806347e1d5501461034a576101fa565b8063342ed956146102a45780633a5ff200146102c45780633ccd10e9146102d75780633feef58a146102fc576101fa565b80631f452a08116101ce5780631f452a0814610258578063265026481461026b57806330be62b21461027e578063318ff5d114610291576101fa565b8062028e6e146101ff578063097347641461021d5780630aa400181461023257806314ae9f2e14610245575b600080fd5b610207610461565b6040516102149190613612565b60405180910390f35b61023061022b366004612dc5565b610466565b005b610230610240366004612dc5565b61061b565b610230610253366004612dab565b61077e565b610230610266366004612dc5565b6107e7565b610230610279366004612dc5565b6109a3565b61023061028c366004612dc5565b610d0e565b61023061029f366004612dc5565b610e27565b6102b76102b2366004612dc5565b6110d5565b6040516102149190612e86565b6102076102d2366004612dab565b61125a565b6102ea6102e5366004612ddd565b61126c565b60405161021496959493929190612ede565b61023061030a366004612dc5565b61136b565b61023061031d366004612dab565b61165a565b61032a6116c6565b604051610214919061361b565b6102b7610345366004612dc5565b6116cb565b61035d610358366004612dc5565b61176b565b60405161021499989796959493929190612f25565b610230610380366004612e08565b61184d565b610207611add565b6102076116c6565b6103a86103a3366004612dab565b611ae3565b6040516102149190612ed3565b610207611b05565b610207611c33565b610207611c38565b6103d5611c3d565b6040516102149190612e59565b610207611c61565b61032a611c66565b610207610400366004612dc5565b611c6b565b6103a8610413366004612dc5565b611cb1565b610230610426366004612dc5565b611dee565b610207612005565b610230610441366004612dc5565b61200b565b610230610454366004612dc5565b6120af565b610207612266565b607881565b3360009081526003602052604090205460ff1661049e5760405162461bcd60e51b8152600401610495906130a1565b60405180910390fd5b600081815260016020526040902054819081146104cd5760405162461bcd60e51b8152600401610495906132ad565b6000828152600160205260409020600d0154829060ff16156105015760405162461bcd60e51b8152600401610495906134c2565b600083815260016020819052604090912090600182015460ff16600481111561053a57634e487b7160e01b600052602160045260246000fd5b146105575760405162461bcd60e51b815260040161049590613285565b80600b015442101561057b5760405162461bcd60e51b8152600401610495906135db565b610586601e4261363d565b600c820181905561059a9061012c9061363d565b600b8201556001808201805460ff1916600290811790915560405186927ff732482ea8c744f957ef9b24c1e98e8add28a3e5dc3deedc3e8419f527c19b98926105e292612f0a565b60405180910390a260405184907f359ad7e63db5f06f70341a18e68dba0ef153ef9adbff2af9293fc13daf6fc09590600090a250505050565b3360009081526003602052604090205460ff1661064a5760405162461bcd60e51b8152600401610495906130a1565b600081815260016020526040902054819081146106795760405162461bcd60e51b8152600401610495906132ad565b6000828152600160205260409020600d0154829060ff16156106ad5760405162461bcd60e51b8152600401610495906134c2565b60008381526001602052604090206004600182015460ff1660048111156106e457634e487b7160e01b600052602160045260246000fd5b146107015760405162461bcd60e51b815260040161049590613586565b60005b600282015481101561076a57600082600201828154811061073557634e487b7160e01b600052603260045260246000fd5b60009182526020808320909101546001600160a01b031682526002905260408120555080610762816136c8565b915050610704565b50600d01805460ff19166001179055505050565b336001600160a01b037f000000000000000000000000000000000000000000000000000000000000000016146107c65760405162461bcd60e51b815260040161049590613398565b6001600160a01b03166000908152600360205260409020805460ff19169055565b3360009081526003602052604090205460ff166108165760405162461bcd60e51b8152600401610495906130a1565b600081815260016020526040902054819081146108455760405162461bcd60e51b8152600401610495906132ad565b6000828152600160205260409020600d0154829060ff16156108795760405162461bcd60e51b8152600401610495906134c2565b6000838152600160205260408120905b600182015460ff1660048111156108b057634e487b7160e01b600052602160045260246000fd5b146108cd5760405162461bcd60e51b8152600401610495906131cb565b60028181015410156108f15760405162461bcd60e51b815260040161049590613140565b6108fc601e4261363d565b600c820181905561090f9060789061363d565b600b8201556001808201805460ff1916909117905561092d8461226b565b610936846123fb565b837ff732482ea8c744f957ef9b24c1e98e8add28a3e5dc3deedc3e8419f527c19b986000600160405161096a929190612f0a565b60405180910390a260405184907f1a2ba96bf245728c460e13d78a1591bcb45e67de1240b6654190f8c0bbdd070090600090a250505050565b600081815260016020526040902054819081146109d25760405162461bcd60e51b8152600401610495906132ad565b6000828152600160209081526040808320338452600401909152902054829060ff16610a105760405162461bcd60e51b81526004016104959061304a565b6000838152600160205260409020600c01548390421015610a435760405162461bcd60e51b81526004016104959061336e565b6000848152600160205260409020600d0154849060ff1615610a775760405162461bcd60e51b8152600401610495906134c2565b60008581526001602081815260408084203385526004810190925290922090600183015460ff166004811115610abd57634e487b7160e01b600052602160045260246000fd5b14610ada5760405162461bcd60e51b815260040161049590613285565b81600b01544210610afd5760405162461bcd60e51b815260040161049590612fb2565b8054610100900460ff16610b235760405162461bcd60e51b815260040161049590613228565b805462010000900460ff1615610b4b5760405162461bcd60e51b815260040161049590612f7b565b600781600101541015610b705760405162461bcd60e51b815260040161049590613075565b60018082018054600619019055815462ff000019166201000017808355426003840155600483018054909201909155640100000000900460ff16610bb488826124ac565b6000610bbf896124e1565b905060008160ff16118015610bd75750603460ff8216105b610bf35760405162461bcd60e51b815260040161049590613419565b610bfd8982612628565b15610c1a5760405162461bcd60e51b815260040161049590613521565b610c24898261264b565b825464ff00000000191664010000000060ff8316908102919091178455600585018054600092908110610c6757634e487b7160e01b600052603260045260246000fd5b6000918252602091829020604080518082018252929091015460ff80821680855261010090920416938301849052905191935033927fbdf2f0687b7c6f0b8dde29a86969ba9a1e60ce7d560dc87e0bc637aead3a8c1c92610cc9929190613629565b60405180910390a2336001600160a01b03168a60008051602061373a8339815191526007604051610cfa919061325f565b60405180910390a350505050505050505050565b3360009081526003602052604090205460ff16610d3d5760405162461bcd60e51b8152600401610495906130a1565b60008181526001602052604090205481908114610d6c5760405162461bcd60e51b8152600401610495906132ad565b6000828152600160205260409020600d0154829060ff1615610da05760405162461bcd60e51b8152600401610495906134c2565b60008381526001602052604090206002600182015460ff166004811115610dd757634e487b7160e01b600052602160045260246000fd5b14610df45760405162461bcd60e51b815260040161049590613169565b80600b0154421015610e185760405162461bcd60e51b8152600401610495906133e2565b610e2184612667565b50505050565b60008181526001602052604090205481908114610e565760405162461bcd60e51b8152600401610495906132ad565b6000828152600160209081526040808320338452600401909152902054829060ff16610e945760405162461bcd60e51b81526004016104959061304a565b6000838152600160205260409020600c01548390421015610ec75760405162461bcd60e51b81526004016104959061336e565b6000848152600160205260409020600d0154849060ff1615610efb5760405162461bcd60e51b8152600401610495906134c2565b60008581526001602081815260408084203385526004810190925290922090600183015460ff166004811115610f4157634e487b7160e01b600052602160045260246000fd5b14610f5e5760405162461bcd60e51b815260040161049590613285565b81600b01544210610f815760405162461bcd60e51b815260040161049590612fb2565b8054610100900460ff1615610fa85760405162461bcd60e51b8152600401610495906134f9565b600581600101541015610fcd5760405162461bcd60e51b815260040161049590613075565b60018082018054600419019055815461ff0019166101001780835542600384015560048301805490920190915560058301805464010000000090920460ff1691600091908390811061102f57634e487b7160e01b600052603260045260246000fd5b6000918252602091829020604080518082018252929091015460ff80821680855261010090920416938301849052905191935033927fbdf2f0687b7c6f0b8dde29a86969ba9a1e60ce7d560dc87e0bc637aead3a8c1c92611091929190613629565b60405180910390a2336001600160a01b03168960008051602061373a83398151915260056040516110c29190613449565b60405180910390a3505050505050505050565b600081815260016020526040902054606090829081146111075760405162461bcd60e51b8152600401610495906132ad565b6000838152600160205260409020600381015467ffffffffffffffff81111561114057634e487b7160e01b600052604160045260246000fd5b604051908082528060200260200182016040528015611169578160200160208202803683370190505b50925080600301546000141561117f5750611254565b6000805b60028301548110156112505760008360020182815481106111b457634e487b7160e01b600052603260045260246000fd5b60009182526020808320909101546001600160a01b03168083526004870190915260409091205490915060ff63010000009091041661123d578086848151811061120e57634e487b7160e01b600052603260045260246000fd5b6001600160a01b03909216602092830291909101909101526003840154600190930192831061123d5750611250565b5080611248816136c8565b915050611183565b5050505b50919050565b60026020526000908152604090205481565b60008281526001602052604081205481908190819081908190889081146112a55760405162461bcd60e51b8152600401610495906132ad565b60008981526001602090815260408083206001600160a01b038c168085526004820190935292209033148015906112ec57503360009081526003602052604090205460ff16155b15611325578054600182015460029092015460ff8083169b5060009a508a99506301000000909204909116965090945092506113609050565b8054600182015460029092015460ff8083169b50610100830481169a5062010000830481169950630100000090920490911696509094509250505b509295509295509295565b6000818152600160205260409020548190811461139a5760405162461bcd60e51b8152600401610495906132ad565b6000828152600160205260409020600d0154829060ff16156113ce5760405162461bcd60e51b8152600401610495906134c2565b6000838152600160209081526040808320338452600481019092529091205460ff1661140c5760405162461bcd60e51b8152600401610495906132d5565b6000600182015460ff16600481111561143557634e487b7160e01b600052602160045260246000fd5b146114525760405162461bcd60e51b815260040161049590613558565b600a8101546001600160a01b031633141580611472575060028101546001145b61148e5760405162461bcd60e51b8152600401610495906130c5565b60005b60028201548110156115d957336001600160a01b03168260020182815481106114ca57634e487b7160e01b600052603260045260246000fd5b6000918252602090912001546001600160a01b031614156115c7576002820180546114f790600190613655565b8154811061151557634e487b7160e01b600052603260045260246000fd5b6000918252602090912001546002830180546001600160a01b03909216918390811061155157634e487b7160e01b600052603260045260246000fd5b9060005260206000200160006101000a8154816001600160a01b0302191690836001600160a01b03160217905550816002018054806115a057634e487b7160e01b600052603160045260246000fd5b600082815260209020810160001990810180546001600160a01b03191690550190556115d9565b806115d1816136c8565b915050611491565b5060038082018054600019019055336000818152600480850160209081526040808420805464ffffffffff191681556001810185905560028082018690559681018590559092018390559390935282812081905591519091869160008051602061373a8339815191529161164c91613347565b60405180910390a350505050565b336001600160a01b037f000000000000000000000000000000000000000000000000000000000000000016146116a25760405162461bcd60e51b815260040161049590613398565b6001600160a01b03166000908152600360205260409020805460ff19166001179055565b600581565b600081815260016020526040902054606090829081146116fd5760405162461bcd60e51b8152600401610495906132ad565b6000838152600160209081526040918290206002018054835181840281018401909452808452909183018282801561175e57602002820191906000526020600020905b81546001600160a01b03168152600190910190602001808311611740575b5050505050915050919050565b600080600080600080600080600089806001600083815260200190815260200160002060000154146117af5760405162461bcd60e51b8152600401610495906132ad565b60008b8152600160205260408120600b8101549091904210156117df574282600b01546117dc9190613655565b90505b8160010160009054906101000a900460ff168260070154836008015484600b015485600c0154858760020180549050886003015489600a0160009054906101000a90046001600160a01b03169b509b509b509b509b509b509b509b509b505050509193959799909294969850565b6000828152600160205260409020548290811461187c5760405162461bcd60e51b8152600401610495906132ad565b6000838152600160209081526040808320338452600401909152902054839060ff166118ba5760405162461bcd60e51b81526004016104959061304a565b6000848152600160205260409020600c015484904210156118ed5760405162461bcd60e51b81526004016104959061336e565b6000858152600160205260409020600d0154859060ff16156119215760405162461bcd60e51b8152600401610495906134c2565b6000868152600160209081526040808320338452600481019092529091206002600183015460ff16600481111561196857634e487b7160e01b600052602160045260246000fd5b146119855760405162461bcd60e51b815260040161049590613169565b81600b015442106119a85760405162461bcd60e51b8152600401610495906135ae565b80546301000000900460ff16156119d15760405162461bcd60e51b81526004016104959061346f565b60018710156119f25760405162461bcd60e51b8152600401610495906133bb565b600882015415611a3657600081600201548360080154611a129190613655565b905080881015611a345760405162461bcd60e51b815260040161049590613110565b505b8681600101541015611a5a5760405162461bcd60e51b815260040161049590613075565b60048101805460019081019091558101805488900390556002810180548801815560078301805489019055426003830155600883015490541115611aa357600281015460088301555b336001600160a01b03168860008051602061373a83398151915289604051611acb91906132ff565b60405180910390a35050505050505050565b60005481565b6001600160a01b03811660009081526003602052604090205460ff165b919050565b3360009081526002602052604081205415611b325760405162461bcd60e51b815260040161049590613497565b60008054600190810180835580835260208290526040808420828155928301805460ff199081169091556009840180546001600160a01b037f00000000000000000000000000000000000000000000000000000000000000009081166001600160a01b031992831617909255600a86018054909116331790556003850195909555600d84018054909116905551909283917fc3e0f84839dc888c892a013d10c8f9d6dc05a21a879d0ce468ca558013e9121c91611bee91612e59565b60405180910390a2604051339083907fe8044ce09bea382658274510d434f24de1c52b3065ea1f196bf4253ec036d15090600090a3611c2d82336126bc565b50905090565b600781565b601e81565b7f000000000000000000000000000000000000000000000000000000000000000090565b600181565b603481565b60008181526001602052604081205482908114611c9a5760405162461bcd60e51b8152600401610495906132ad565b505060009081526001602052604090206003015490565b60008181526001602052604081205482908114611ce05760405162461bcd60e51b8152600401610495906132ad565b60008381526001602052604090206002600182015460ff166004811115611d1757634e487b7160e01b600052602160045260246000fd5b14611d26576000925050611254565b60005b6002820154811015611de3576000826002018281548110611d5a57634e487b7160e01b600052603260045260246000fd5b60009182526020808320909101546001600160a01b03168083526004860190915260409091205490915060ff63010000009091041615611d9a5750611dd1565b60088301546001600160a01b03821660009081526004850160205260409020600201541015611dcf5760009450505050611254565b505b80611ddb816136c8565b915050611d29565b506001949350505050565b60008181526001602052604090205481908114611e1d5760405162461bcd60e51b8152600401610495906132ad565b6000828152600160209081526040808320338452600401909152902054829060ff16611e5b5760405162461bcd60e51b81526004016104959061304a565b6000838152600160205260409020600c01548390421015611e8e5760405162461bcd60e51b81526004016104959061336e565b6000848152600160205260409020600d0154849060ff1615611ec25760405162461bcd60e51b8152600401610495906134c2565b6000858152600160209081526040808320338452600481019092529091206002600183015460ff166004811115611f0957634e487b7160e01b600052602160045260246000fd5b14611f265760405162461bcd60e51b815260040161049590613169565b81600b01544210611f495760405162461bcd60e51b8152600401610495906135ae565b80546301000000900460ff1615611f725760405162461bcd60e51b81526004016104959061346f565b6004810180546001019055805463ff0000001916630100000017815542600380830191909155820180546000190190556040513390889060008051602061373a83398151915290611fc590600090613202565b60405180910390a3816003015460011415611ffc576000611fe5886127a6565b9050611ff088612667565b611ffa8882612856565b505b50505050505050565b61012c81565b6000818152600160205260409020548190811461203a5760405162461bcd60e51b8152600401610495906132ad565b6000828152600160205260409020600d0154829060ff161561206e5760405162461bcd60e51b8152600401610495906134c2565b6000838152600160205260409020600a8101546001600160a01b031633146120a85760405162461bcd60e51b815260040161049590613013565b6000610889565b600081815260016020526040902054819081146120de5760405162461bcd60e51b8152600401610495906132ad565b6000828152600160205260409020600d0154829060ff16156121125760405162461bcd60e51b8152600401610495906134c2565b600083815260016020526040812090600182015460ff16600481111561214857634e487b7160e01b600052602160045260246000fd5b146121655760405162461bcd60e51b8152600401610495906131cb565b60028101546005116121895760405162461bcd60e51b815260040161049590613324565b33600090815260026020526040902054156121b65760405162461bcd60e51b815260040161049590613497565b60028082018054600181810183556000928352602080842090920180546001600160a01b03191633908117909155808452600480870184526040808620805460ff191685178155601981860155426003808301919091559281018790559690945293839020899055928501805490910190555186917f87969bc7faf902221a147b95ceba76e011c5efb0339a0a8ee7a2bb82d9cfbbd6916122579190612e59565b60405180910390a25050505050565b601981565b600081815260016020526040812090612288906005830190612d3e565b6040805160348082526106a08201909252600091816020015b6122a9612d5f565b8152602001906001900390816122a15790505090506000805b60048160ff1610156123595760025b600e8160ff16116123465760405180604001604052808260ff1681526020018360ff16815250848460ff168151811061231a57634e487b7160e01b600052603260045260246000fd5b60200260200101819052508280612330906136e3565b935050808061233e906136e3565b9150506122d1565b5080612351816136e3565b9150506122c2565b506000612365836128f2565b905060005b60348110156123f3578460050182828151811061239757634e487b7160e01b600052603260045260246000fd5b6020908102919091018101518254600181018455600093845292829020815193018054919092015160ff9081166101000261ff00199190941660ff199092169190911716919091179055806123eb816136c8565b91505061236a565b505050505050565b600081815260016020526040902061241282612a1c565b60005b60028201548110156124a757600082600201828154811061244657634e487b7160e01b600052603260045260246000fd5b6000918252602080832091909101546001600160a01b0316808352600486019091526040909120805464ff00000000191664010000000060ff861602179055905081612492858261264b565b5050808061249f906136c8565b915050612415565b505050565b6000828152600160205260409020600601546124c89082612a39565b6000928352600160205260409092206006019190915550565b6000818152600160209081526040808320815160348082526106a0820190935290928492908201610680803683370190505090506000805b600584015460ff8216101561258d576125328682612628565b61257b5780838361ffff168151811061255b57634e487b7160e01b600052603260045260246000fd5b60ff9092166020928302919091019091015281612577816136a6565b9250505b80612585816136e3565b915050612519565b5060008161ffff16116125b25760405162461bcd60e51b815260040161049590613194565b60008161ffff1644426040516020016125cc929190612e4b565b6040516020818303038152906040528051906020012060001c6125ef9190613703565b9050828161ffff168151811061261557634e487b7160e01b600052603260045260246000fd5b6020026020010151945050505050919050565b6000828152600160205260408120600601546126449083612a47565b9392505050565b6000828152600160205260409020600601546124c89082612a56565b6000818152600160208190526040808320918201805460ff1916600317905551909183917fcfeaa304021cfd684ad30c51a76ffd4139eb4b36c6e97d94cce4df46b71ee9779190a26126b882612a63565b5050565b60008281526001602090815260408083206001600160a01b0385168452600290925290912054156126ed57506126b8565b60028181018054600180820183556000928352602080842090920180546001600160a01b0319166001600160a01b0388169081179091558352600480860183526040808520805460ff19168417815560198185015542600380830191909155928101869055959093529282902087905591840180549092019091555184907f87969bc7faf902221a147b95ceba76e011c5efb0339a0a8ee7a2bb82d9cfbbd690612798908690612e59565b60405180910390a250505050565b6000818152600160205260408120815b600282015481101561283d5760008260020182815481106127e757634e487b7160e01b600052603260045260246000fd5b60009182526020808320909101546001600160a01b03168083526004860190915260409091205490915060ff63010000009091041661282a579250611b00915050565b5080612835816136c8565b9150506127b6565b5060405162461bcd60e51b815260040161049590612fdc565b60008281526001602081815260408084206007810180546001600160a01b038816875260048084019095529583902085018054909601909555928301805460ff19169092179091559154915190919084907ff1898de79c348962fab7695532341027e5bceb0ea2a8785790fa7d7efeeee129906128d69086908590612e6d565b60405180910390a2506000600782018190556008909101555050565b60604460006129036001603461366c565b60ff1690505b8015612a1457600061291c82600161363d565b838360405160200161292f929190612e4b565b6040516020818303038152906040528051906020012060001c6129529190613703565b9050600085838151811061297657634e487b7160e01b600052603260045260246000fd5b602002602001015190508582815181106129a057634e487b7160e01b600052603260045260246000fd5b60200260200101518684815181106129c857634e487b7160e01b600052603260045260246000fd5b6020026020010181905250808683815181106129f457634e487b7160e01b600052603260045260246000fd5b602002602001018190525050508080612a0c9061368f565b915050612909565b509192915050565b612a24612bd2565b60009182526001602052604090912060060155565b600160ff919091161b191690565b600160ff919091161b16151590565b600160ff919091161b1790565b600081815260016020526040812090612a7b83612bd7565b905060005b6002830154811015612bc7576000836002018281548110612ab157634e487b7160e01b600052603260045260246000fd5b60009182526020808320909101546001600160a01b03168083526004870190915260409091205490915060ff63010000009091041615612af15750612bb5565b6001600160a01b038116600090815260048501602052604081205460058601805464010000000090920460ff16929183908110612b3e57634e487b7160e01b600052603260045260246000fd5b6000918252602091829020604080518082018252929091015460ff8082168085526101009092041693830184905290519193506001600160a01b038616927fbdf2f0687b7c6f0b8dde29a86969ba9a1e60ce7d560dc87e0bc637aead3a8c1c92612ba9929190613629565b60405180910390a25050505b80612bbf816136c8565b915050612a80565b506124a78382612856565b600090565b6000818152600160205260408120818080805b6002850154811015612d33576000856002018281548110612c1b57634e487b7160e01b600052603260045260246000fd5b60009182526020808320909101546001600160a01b03168083526004890190915260409091205490915060ff63010000009091041615612c5b5750612d21565b6001600160a01b038116600090815260048701602052604081205460058801805464010000000090920460ff16929183908110612ca857634e487b7160e01b600052603260045260246000fd5b60009182526020918290206040805180820190915291015460ff8082168084526101009092048116938301939093529092509087161080612d0657508560ff16816000015160ff16148015612d0657508460ff16816020015160ff16115b15612d1d5780600001519550806020015194508296505b5050505b80612d2b816136c8565b915050612bea565b509195945050505050565b5080546000825590600052602060002090810190612d5c9190612d76565b50565b604080518082019091526000808252602082015290565b5b80821115612d9057805461ffff19168155600101612d77565b5090565b80356001600160a01b0381168114611b0057600080fd5b600060208284031215612dbc578081fd5b61264482612d94565b600060208284031215612dd6578081fd5b5035919050565b60008060408385031215612def578081fd5b82359150612dff60208401612d94565b90509250929050565b60008060408385031215612e1a578182fd5b50508035926020909101359150565b60058110612e4757634e487b7160e01b600052602160045260246000fd5b9052565b918252602082015260400190565b6001600160a01b0391909116815260200190565b6001600160a01b03929092168252602082015260400190565b6020808252825182820181905260009190848201906040850190845b81811015612ec75783516001600160a01b031683529284019291840191600101612ea2565b50909695505050505050565b901515815260200190565b95151586529315156020860152911515604085015215156060840152608083015260a082015260c00190565b60408101612f188285612e29565b6126446020830184612e29565b6101208101612f34828c612e29565b602082019990995260408101979097526060870195909552608086019390935260a085019190915260c084015260e08301526001600160a01b031661010090910152919050565b60208082526018908201527f416c726561647920757365642073776170206f7074696f6e0000000000000000604082015260600190565b60208082526010908201526f1419595ac81c1a185cd948195b99195960821b604082015260600190565b60208082526017908201527f4e6f2061637469766520706c617965727320666f756e64000000000000000000604082015260600190565b6020808252601b908201527f4f6e6c792063726561746f722063616e2073746172742067616d650000000000604082015260600190565b6020808252601190820152702737ba1030b1ba34bb3290383630bcb2b960791b604082015260600190565b602080825260129082015271496e73756666696369656e7420636869707360701b604082015260600190565b6020808252600a90820152692737ba1035b2b2b832b960b11b604082015260600190565b6020808252602b908201527f43726561746f722063616e2774206c656176652067616d652077697468206f7460408201526a68657220706c617965727360a81b606082015260800190565b602080825260169082015275135d5cdd081b585d18da0818dd5c9c995b9d0818995d60521b604082015260600190565b6020808252600f908201526e4e65656420322b20706c617965727360881b604082015260600190565b6020808252601190820152704e6f742062657474696e6720706861736560781b604082015260600190565b6020808252601b908201527f4e6f20617661696c61626c6520636172647320666f7220737761700000000000604082015260600190565b60208082526018908201527f47616d652068617320616c726561647920737461727465640000000000000000604082015260600190565b604080825260049082015263199bdb1960e21b6060820152602081019190915260800190565b60208082526017908201527f4d757374207065656b2061742063617264206669727374000000000000000000604082015260600190565b6040808252600490820152630737761760e41b6060820152602081019190915260800190565b6020808252600e908201526d4e6f74207065656b20706861736560901b604082015260600190565b6020808252600e908201526d11d85b59481b9bdd08199bdd5b9960921b604082015260600190565b60208082526010908201526f4e6f7420696e20746869732067616d6560801b604082015260600190565b60408082526003908201526218995d60ea1b6060820152602081019190915260800190565b60208082526009908201526811d85b5948199d5b1b60ba1b604082015260600190565b6040808252600590820152646c6561766560d81b6060820152602081019190915260800190565b60208082526010908201526f125b88189d5999995c881c195c9a5bd960821b604082015260600190565b6020808252600990820152682737ba1037bbb732b960b91b604082015260600190565b6020808252600d908201526c10995d081d1bdbc81cdb585b1b609a1b604082015260600190565b6020808252601a908201527f42657474696e67207068617365206e6f742066696e6973686564000000000000604082015260600190565b602080825260169082015275092dcecc2d8d2c840dccaee40c6c2e4c840d2dcc8caf60531b604082015260600190565b6040808252600490820152637065656b60e01b6060820152602081019190915260800190565b6020808252600e908201526d105b1c9958591e48199bdb19195960921b604082015260600190565b602080825260119082015270416c726561647920696e20612067616d6560781b604082015260600190565b60208082526017908201527f47616d6520616c726561647920636c65616e6564207570000000000000000000604082015260600190565b6020808252600e908201526d105b1c9958591e481c19595ad95960921b604082015260600190565b60208082526019908201527f4e6577206361726420616c72656164792061737369676e656400000000000000604082015260600190565b60208082526014908201527311d85b5948185b1c9958591e481cdd185c9d195960621b604082015260600190565b6020808252600e908201526d11d85b59481b9bdd08195b99195960921b604082015260600190565b60208082526013908201527210995d1d1a5b99c81c1a185cd948195b991959606a1b604082015260600190565b60208082526017908201527f5065656b207068617365206e6f742066696e6973686564000000000000000000604082015260600190565b90815260200190565b60ff91909116815260200190565b60ff92831681529116602082015260400190565b6000821982111561365057613650613723565b500190565b60008282101561366757613667613723565b500390565b600060ff821660ff84168082101561368657613686613723565b90039392505050565b60008161369e5761369e613723565b506000190190565b600061ffff808316818114156136be576136be613723565b6001019392505050565b60006000198214156136dc576136dc613723565b5060010190565b600060ff821660ff8114156136fa576136fa613723565b60010192915050565b60008261371e57634e487b7160e01b81526012600452602481fd5b500690565b634e487b7160e01b600052601160045260246000fdfef3d4f57e05aae06b4017c0b2ed81f62aa6f19deef046d6a78ad2a4223858c4f0a26469706673582212209ce1c46dd9c314a5ab1cc29515dc9447d790ceabc781b146b174dc23fc4c3eff64736f6c63430008000033","opcodes":"PUSH1 0xA0 PUSH1 0x40 MSTORE CALLVALUE DUP1 ISZERO PUSH2 0x10 JUMPI PUSH1 0x0 DUP1 REVERT JUMPDEST POP CALLER PUSH1 0x60 DUP2 SWAP1 SHL PUSH1 0x80 MSTORE PUSH1 0x0 DUP2 DUP2 MSTORE PUSH1 0x3 PUSH1 0x20 MSTORE PUSH1 0x40 DUP2 KECCAK256 DUP1 SLOAD PUSH1 0xFF NOT AND PUSH1 0x1 OR SWAP1 SSTORE PUSH2 0x378F SWAP1 PUSH2 0x60 SWAP1 CODECOPY PUSH1 0x0 DUP2 DUP2 PUSH2 0x789 ADD MSTORE DUP2 DUP2 PUSH2 0x1665 ADD MSTORE DUP2 DUP2 PUSH2 0x1B6C ADD MSTORE PUSH2 0x1C3F ADD MSTORE PUSH2 0x378F PUSH1 0x0 RETURN INVALID PUSH1 0x80 PUSH1 0x40 MSTORE CALLVALUE DUP1 ISZERO PUSH2 0x10 JUMPI PUSH1 0x0 DUP1 REVERT JUMPDEST POP PUSH1 0x4 CALLDATASIZE LT PUSH2 0x1FA JUMPI PUSH1 0x0 CALLDATALOAD PUSH1 0xE0 SHR DUP1 PUSH4 0x4AFE62B5 GT PUSH2 0x11A JUMPI DUP1 PUSH4 0x935AAE40 GT PUSH2 0xAD JUMPI DUP1 PUSH4 0xBFF7A00B GT PUSH2 0x7C JUMPI DUP1 PUSH4 0xBFF7A00B EQ PUSH2 0x418 JUMPI DUP1 PUSH4 0xC493153A EQ PUSH2 0x42B JUMPI DUP1 PUSH4 0xE5ED1D59 EQ PUSH2 0x433 JUMPI DUP1 PUSH4 0xEFAA55A0 EQ PUSH2 0x446 JUMPI DUP1 PUSH4 0xFC2217C4 EQ PUSH2 0x459 JUMPI PUSH2 0x1FA JUMP JUMPDEST DUP1 PUSH4 0x935AAE40 EQ PUSH2 0x3E2 JUMPI DUP1 PUSH4 0x9C861BC5 EQ PUSH2 0x3EA JUMPI DUP1 PUSH4 0xA410274C EQ PUSH2 0x3F2 JUMPI DUP1 PUSH4 0xBA3A9520 EQ PUSH2 0x405 JUMPI PUSH2 0x1FA JUMP JUMPDEST DUP1 PUSH4 0x7255D729 GT PUSH2 0xE9 JUMPI DUP1 PUSH4 0x7255D729 EQ PUSH2 0x3B5 JUMPI DUP1 PUSH4 0x768AEBDE EQ PUSH2 0x3BD JUMPI DUP1 PUSH4 0x83C309B8 EQ PUSH2 0x3C5 JUMPI DUP1 PUSH4 0x8DA5CB5B EQ PUSH2 0x3CD JUMPI PUSH2 0x1FA JUMP JUMPDEST DUP1 PUSH4 0x4AFE62B5 EQ PUSH2 0x372 JUMPI DUP1 PUSH4 0x536A3DDC EQ PUSH2 0x385 JUMPI DUP1 PUSH4 0x5D27E072 EQ PUSH2 0x38D JUMPI DUP1 PUSH4 0x6BA42AAA EQ PUSH2 0x395 JUMPI PUSH2 0x1FA JUMP JUMPDEST DUP1 PUSH4 0x342ED956 GT PUSH2 0x192 JUMPI DUP1 PUSH4 0x4032B72B GT PUSH2 0x161 JUMPI DUP1 PUSH4 0x4032B72B EQ PUSH2 0x30F JUMPI DUP1 PUSH4 0x4411B3EB EQ PUSH2 0x322 JUMPI DUP1 PUSH4 0x460E2049 EQ PUSH2 0x337 JUMPI DUP1 PUSH4 0x47E1D550 EQ PUSH2 0x34A JUMPI PUSH2 0x1FA JUMP JUMPDEST DUP1 PUSH4 0x342ED956 EQ PUSH2 0x2A4 JUMPI DUP1 PUSH4 0x3A5FF200 EQ PUSH2 0x2C4 JUMPI DUP1 PUSH4 0x3CCD10E9 EQ PUSH2 0x2D7 JUMPI DUP1 PUSH4 0x3FEEF58A EQ PUSH2 0x2FC JUMPI PUSH2 0x1FA JUMP JUMPDEST DUP1 PUSH4 0x1F452A08 GT PUSH2 0x1CE JUMPI DUP1 PUSH4 0x1F452A08 EQ PUSH2 0x258 JUMPI DUP1 PUSH4 0x26502648 EQ PUSH2 0x26B JUMPI DUP1 PUSH4 0x30BE62B2 EQ PUSH2 0x27E JUMPI DUP1 PUSH4 0x318FF5D1 EQ PUSH2 0x291 JUMPI PUSH2 0x1FA JUMP JUMPDEST DUP1 PUSH3 0x28E6E EQ PUSH2 0x1FF JUMPI DUP1 PUSH4 0x9734764 EQ PUSH2 0x21D JUMPI DUP1 PUSH4 0xAA40018 EQ PUSH2 0x232 JUMPI DUP1 PUSH4 0x14AE9F2E EQ PUSH2 0x245 JUMPI JUMPDEST PUSH1 0x0 DUP1 REVERT JUMPDEST PUSH2 0x207 PUSH2 0x461 JUMP JUMPDEST PUSH1 0x40 MLOAD PUSH2 0x214 SWAP2 SWAP1 PUSH2 0x3612 JUMP JUMPDEST PUSH1 0x40 MLOAD DUP1 SWAP2 SUB SWAP1 RETURN JUMPDEST PUSH2 0x230 PUSH2 0x22B CALLDATASIZE PUSH1 0x4 PUSH2 0x2DC5 JUMP JUMPDEST PUSH2 0x466 JUMP JUMPDEST STOP JUMPDEST PUSH2 0x230 PUSH2 0x240 CALLDATASIZE PUSH1 0x4 PUSH2 0x2DC5 JUMP JUMPDEST PUSH2 0x61B JUMP JUMPDEST PUSH2 0x230 PUSH2 0x253 CALLDATASIZE PUSH1 0x4 PUSH2 0x2DAB JUMP JUMPDEST PUSH2 0x77E JUMP JUMPDEST PUSH2 0x230 PUSH2 0x266 CALLDATASIZE PUSH1 0x4 PUSH2 0x2DC5 JUMP JUMPDEST PUSH2 0x7E7 JUMP JUMPDEST PUSH2 0x230 PUSH2 0x279 CALLDATASIZE PUSH1 0x4 PUSH2 0x2DC5 JUMP JUMPDEST PUSH2 0x9A3 JUMP JUMPDEST PUSH2 0x230 PUSH2 0x28C CALLDATASIZE PUSH1 0x4 PUSH2 0x2DC5 JUMP JUMPDEST PUSH2 0xD0E JUMP JUMPDEST PUSH2 0x230 PUSH2 0x29F CALLDATASIZE PUSH1 0x4 PUSH2 0x2DC5 JUMP JUMPDEST PUSH2 0xE27 JUMP JUMPDEST PUSH2 0x2B7 PUSH2 0x2B2 CALLDATASIZE PUSH1 0x4 PUSH2 0x2DC5 JUMP JUMPDEST PUSH2 0x10D5 JUMP JUMPDEST PUSH1 0x40 MLOAD PUSH2 0x214 SWAP2 SWAP1 PUSH2 0x2E86 JUMP JUMPDEST PUSH2 0x207 PUSH2 0x2D2 CALLDATASIZE PUSH1 0x4 PUSH2 0x2DAB JUMP JUMPDEST PUSH2 0x125A JUMP JUMPDEST PUSH2 0x2EA PUSH2 0x2E5 CALLDATASIZE PUSH1 0x4 PUSH2 0x2DDD JUMP JUMPDEST PUSH2 0x126C JUMP JUMPDEST PUSH1 0x40 MLOAD PUSH2 0x214 SWAP7 SWAP6 SWAP5 SWAP4 SWAP3 SWAP2 SWAP1 PUSH2 0x2EDE JUMP JUMPDEST PUSH2 0x230 PUSH2 0x30A CALLDATASIZE PUSH1 0x4 PUSH2 0x2DC5 JUMP JUMPDEST PUSH2 0x136B JUMP JUMPDEST PUSH2 0x230 PUSH2 0x31D CALLDATASIZE PUSH1 0x4 PUSH2 0x2DAB JUMP JUMPDEST PUSH2 0x165A JUMP JUMPDEST PUSH2 0x32A PUSH2 0x16C6 JUMP JUMPDEST PUSH1 0x40 MLOAD PUSH2 0x214 SWAP2 SWAP1 PUSH2 0x361B JUMP JUMPDEST PUSH2 0x2B7 PUSH2 0x345 CALLDATASIZE PUSH1 0x4 PUSH2 0x2DC5 JUMP JUMPDEST PUSH2 0x16CB JUMP JUMPDEST PUSH2 0x35D PUSH2 0x358 CALLDATASIZE PUSH1 0x4 PUSH2 0x2DC5 JUMP JUMPDEST PUSH2 0x176B JUMP JUMPDEST PUSH1 0x40 MLOAD PUSH2 0x214 SWAP10 SWAP9 SWAP8 SWAP7 SWAP6 SWAP5 SWAP4 SWAP3 SWAP2 SWAP1 PUSH2 0x2F25 JUMP JUMPDEST PUSH2 0x230 PUSH2 0x380 CALLDATASIZE PUSH1 0x4 PUSH2 0x2E08 JUMP JUMPDEST PUSH2 0x184D JUMP JUMPDEST PUSH2 0x207 PUSH2 0x1ADD JUMP JUMPDEST PUSH2 0x207 PUSH2 0x16C6 JUMP JUMPDEST PUSH2 0x3A8 PUSH2 0x3A3 CALLDATASIZE PUSH1 0x4 PUSH2 0x2DAB JUMP JUMPDEST PUSH2 0x1AE3 JUMP JUMPDEST PUSH1 0x40 MLOAD PUSH2 0x214 SWAP2 SWAP1 PUSH2 0x2ED3 JUMP JUMPDEST PUSH2 0x207 PUSH2 0x1B05 JUMP JUMPDEST PUSH2 0x207 PUSH2 0x1C33 JUMP JUMPDEST PUSH2 0x207 PUSH2 0x1C38 JUMP JUMPDEST PUSH2 0x3D5 PUSH2 0x1C3D JUMP JUMPDEST PUSH1 0x40 MLOAD PUSH2 0x214 SWAP2 SWAP1 PUSH2 0x2E59 JUMP JUMPDEST PUSH2 0x207 PUSH2 0x1C61 JUMP JUMPDEST PUSH2 0x32A PUSH2 0x1C66 JUMP JUMPDEST PUSH2 0x207 PUSH2 0x400 CALLDATASIZE PUSH1 0x4 PUSH2 0x2DC5 JUMP JUMPDEST PUSH2 0x1C6B JUMP JUMPDEST PUSH2 0x3A8 PUSH2 0x413 CALLDATASIZE PUSH1 0x4 PUSH2 0x2DC5 JUMP JUMPDEST PUSH2 0x1CB1 JUMP JUMPDEST PUSH2 0x230 PUSH2 0x426 CALLDATASIZE PUSH1 0x4 PUSH2 0x2DC5 JUMP JUMPDEST PUSH2 0x1DEE JUMP JUMPDEST PUSH2 0x207 PUSH2 0x2005 JUMP JUMPDEST PUSH2 0x230 PUSH2 0x441 CALLDATASIZE PUSH1 0x4 PUSH2 0x2DC5 JUMP JUMPDEST PUSH2 0x200B JUMP JUMPDEST PUSH2 0x230 PUSH2 0x454 CALLDATASIZE PUSH1 0x4 PUSH2 0x2DC5 JUMP JUMPDEST PUSH2 0x20AF JUMP JUMPDEST PUSH2 0x207 PUSH2 0x2266 JUMP JUMPDEST PUSH1 0x78 DUP2 JUMP JUMPDEST CALLER PUSH1 0x0 SWAP1 DUP2 MSTORE PUSH1 0x3 PUSH1 0x20 MSTORE PUSH1 0x40 SWAP1 KECCAK256 SLOAD PUSH1 0xFF AND PUSH2 0x49E JUMPI PUSH1 0x40 MLOAD PUSH3 0x461BCD PUSH1 0xE5 SHL DUP2 MSTORE PUSH1 0x4 ADD PUSH2 0x495 SWAP1 PUSH2 0x30A1 JUMP JUMPDEST PUSH1 0x40 MLOAD DUP1 SWAP2 SUB SWAP1 REVERT JUMPDEST PUSH1 0x0 DUP2 DUP2 MSTORE PUSH1 0x1 PUSH1 0x20 MSTORE PUSH1 0x40 SWAP1 KECCAK256 SLOAD DUP2 SWAP1 DUP2 EQ PUSH2 0x4CD JUMPI PUSH1 0x40 MLOAD PUSH3 0x461BCD PUSH1 0xE5 SHL DUP2 MSTORE PUSH1 0x4 ADD PUSH2 0x495 SWAP1 PUSH2 0x32AD JUMP JUMPDEST PUSH1 0x0 DUP3 DUP2 MSTORE PUSH1 0x1 PUSH1 0x20 MSTORE PUSH1 0x40 SWAP1 KECCAK256 PUSH1 0xD ADD SLOAD DUP3 SWAP1 PUSH1 0xFF AND ISZERO PUSH2 0x501 JUMPI PUSH1 0x40 MLOAD PUSH3 0x461BCD PUSH1 0xE5 SHL DUP2 MSTORE PUSH1 0x4 ADD PUSH2 0x495 SWAP1 PUSH2 0x34C2 JUMP JUMPDEST PUSH1 0x0 DUP4 DUP2 MSTORE PUSH1 0x1 PUSH1 0x20 DUP2 SWAP1 MSTORE PUSH1 0x40 SWAP1 SWAP2 KECCAK256 SWAP1 PUSH1 0x1 DUP3 ADD SLOAD PUSH1 0xFF AND PUSH1 0x4 DUP2 GT ISZERO PUSH2 0x53A JUMPI PUSH4 0x4E487B71 PUSH1 0xE0 SHL PUSH1 0x0 MSTORE PUSH1 0x21 PUSH1 0x4 MSTORE PUSH1 0x24 PUSH1 0x0 REVERT JUMPDEST EQ PUSH2 0x557 JUMPI PUSH1 0x40 MLOAD PUSH3 0x461BCD PUSH1 0xE5 SHL DUP2 MSTORE PUSH1 0x4 ADD PUSH2 0x495 SWAP1 PUSH2 0x3285 JUMP JUMPDEST DUP1 PUSH1 0xB ADD SLOAD TIMESTAMP LT ISZERO PUSH2 0x57B JUMPI PUSH1 0x40 MLOAD PUSH3 0x461BCD PUSH1 0xE5 SHL DUP2 MSTORE PUSH1 0x4 ADD PUSH2 0x495 SWAP1 PUSH2 0x35DB JUMP JUMPDEST PUSH2 0x586 PUSH1 0x1E TIMESTAMP PUSH2 0x363D JUMP JUMPDEST PUSH1 0xC DUP3 ADD DUP2 SWAP1 SSTORE PUSH2 0x59A SWAP1 PUSH2 0x12C SWAP1 PUSH2 0x363D JUMP JUMPDEST PUSH1 0xB DUP3 ADD SSTORE PUSH1 0x1 DUP1 DUP3 ADD DUP1 SLOAD PUSH1 0xFF NOT AND PUSH1 0x2 SWAP1 DUP2 OR SWAP1 SWAP2 SSTORE PUSH1 0x40 MLOAD DUP7 SWAP3 PUSH32 0xF732482EA8C744F957EF9B24C1E98E8ADD28A3E5DC3DEEDC3E8419F527C19B98 SWAP3 PUSH2 0x5E2 SWAP3 PUSH2 0x2F0A JUMP JUMPDEST PUSH1 0x40 MLOAD DUP1 SWAP2 SUB SWAP1 LOG2 PUSH1 0x40 MLOAD DUP5 SWAP1 PUSH32 0x359AD7E63DB5F06F70341A18E68DBA0EF153EF9ADBFF2AF9293FC13DAF6FC095 SWAP1 PUSH1 0x0 SWAP1 LOG2 POP POP POP POP JUMP JUMPDEST CALLER PUSH1 0x0 SWAP1 DUP2 MSTORE PUSH1 0x3 PUSH1 0x20 MSTORE PUSH1 0x40 SWAP1 KECCAK256 SLOAD PUSH1 0xFF AND PUSH2 0x64A JUMPI PUSH1 0x40 MLOAD PUSH3 0x461BCD PUSH1 0xE5 SHL DUP2 MSTORE PUSH1 0x4 ADD PUSH2 0x495 SWAP1 PUSH2 0x30A1 JUMP JUMPDEST PUSH1 0x0 DUP2 DUP2 MSTORE PUSH1 0x1 PUSH1 0x20 MSTORE PUSH1 0x40 SWAP1 KECCAK256 SLOAD DUP2 SWAP1 DUP2 EQ PUSH2 0x679 JUMPI PUSH1 0x40 MLOAD PUSH3 0x461BCD PUSH1 0xE5 SHL DUP2 MSTORE PUSH1 0x4 ADD PUSH2 0x495 SWAP1 PUSH2 0x32AD JUMP JUMPDEST PUSH1 0x0 DUP3 DUP2 MSTORE PUSH1 0x1 PUSH1 0x20 MSTORE PUSH1 0x40 SWAP1 KECCAK256 PUSH1 0xD ADD SLOAD DUP3 SWAP1 PUSH1 0xFF AND ISZERO PUSH2 0x6AD JUMPI PUSH1 0x40 MLOAD PUSH3 0x461BCD PUSH1 0xE5 SHL DUP2 MSTORE PUSH1 0x4 ADD PUSH2 0x495 SWAP1 PUSH2 0x34C2 JUMP JUMPDEST PUSH1 0x0 DUP4 DUP2 MSTORE PUSH1 0x1 PUSH1 0x20 MSTORE PUSH1 0x40 SWAP1 KECCAK256 PUSH1 0x4 PUSH1 0x1 DUP3 ADD SLOAD PUSH1 0xFF AND PUSH1 0x4 DUP2 GT ISZERO PUSH2 0x6E4 JUMPI PUSH4 0x4E487B71 PUSH1 0xE0 SHL PUSH1 0x0 MSTORE PUSH1 0x21 PUSH1 0x4 MSTORE PUSH1 0x24 PUSH1 0x0 REVERT JUMPDEST EQ PUSH2 0x701 JUMPI PUSH1 0x40 MLOAD PUSH3 0x461BCD PUSH1 0xE5 SHL DUP2 MSTORE PUSH1 0x4 ADD PUSH2 0x495 SWAP1 PUSH2 0x3586 JUMP JUMPDEST PUSH1 0x0 JUMPDEST PUSH1 0x2 DUP3 ADD SLOAD DUP2 LT ISZERO PUSH2 0x76A JUMPI PUSH1 0x0 DUP3 PUSH1 0x2 ADD DUP3 DUP2 SLOAD DUP2 LT PUSH2 0x735 JUMPI PUSH4 0x4E487B71 PUSH1 0xE0 SHL PUSH1 0x0 MSTORE PUSH1 0x32 PUSH1 0x4 MSTORE PUSH1 0x24 PUSH1 0x0 REVERT JUMPDEST PUSH1 0x0 SWAP2 DUP3 MSTORE PUSH1 0x20 DUP1 DUP4 KECCAK256 SWAP1 SWAP2 ADD SLOAD PUSH1 0x1 PUSH1 0x1 PUSH1 0xA0 SHL SUB AND DUP3 MSTORE PUSH1 0x2 SWAP1 MSTORE PUSH1 0x40 DUP2 KECCAK256 SSTORE POP DUP1 PUSH2 0x762 DUP2 PUSH2 0x36C8 JUMP JUMPDEST SWAP2 POP POP PUSH2 0x704 JUMP JUMPDEST POP PUSH1 0xD ADD DUP1 SLOAD PUSH1 0xFF NOT AND PUSH1 0x1 OR SWAP1 SSTORE POP POP POP JUMP JUMPDEST CALLER PUSH1 0x1 PUSH1 0x1 PUSH1 0xA0 SHL SUB PUSH32 0x0 AND EQ PUSH2 0x7C6 JUMPI PUSH1 0x40 MLOAD PUSH3 0x461BCD PUSH1 0xE5 SHL DUP2 MSTORE PUSH1 0x4 ADD PUSH2 0x495 SWAP1 PUSH2 0x3398 JUMP JUMPDEST PUSH1 0x1 PUSH1 0x1 PUSH1 0xA0 SHL SUB AND PUSH1 0x0 SWAP1 DUP2 MSTORE PUSH1 0x3 PUSH1 0x20 MSTORE PUSH1 0x40 SWAP1 KECCAK256 DUP1 SLOAD PUSH1 0xFF NOT AND SWAP1 SSTORE JUMP JUMPDEST CALLER PUSH1 0x0 SWAP1 DUP2 MSTORE PUSH1 0x3 PUSH1 0x20 MSTORE PUSH1 0x40 SWAP1 KECCAK256 SLOAD PUSH1 0xFF AND PUSH2 0x816 JUMPI PUSH1 0x40 MLOAD PUSH3 0x461BCD PUSH1 0xE5 SHL DUP2 MSTORE PUSH1 0x4 ADD PUSH2 0x495 SWAP1 PUSH2 0x30A1 JUMP JUMPDEST PUSH1 0x0 DUP2 DUP2 MSTORE PUSH1 0x1 PUSH1 0x20 MSTORE PUSH1 0x40 SWAP1 KECCAK256 SLOAD DUP2 SWAP1 DUP2 EQ PUSH2 0x845 JUMPI PUSH1 0x40 MLOAD PUSH3 0x461BCD PUSH1 0xE5 SHL DUP2 MSTORE PUSH1 0x4 ADD PUSH2 0x495 SWAP1 PUSH2 0x32AD JUMP JUMPDEST PUSH1 0x0 DUP3 DUP2 MSTORE PUSH1 0x1 PUSH1 0x20 MSTORE PUSH1 0x40 SWAP1 KECCAK256 PUSH1 0xD ADD SLOAD DUP3 SWAP1 PUSH1 0xFF AND ISZERO PUSH2 0x879 JUMPI PUSH1 0x40 MLOAD PUSH3 0x461BCD PUSH1 0xE5 SHL DUP2 MSTORE PUSH1 0x4 ADD PUSH2 0x495 SWAP1 PUSH2 0x34C2 JUMP JUMPDEST PUSH1 0x0 DUP4 DUP2 MSTORE PUSH1 0x1 PUSH1 0x20 MSTORE PUSH1 0x40 DUP2 KECCAK256 SWAP1 JUMPDEST PUSH1 0x1 DUP3 ADD SLOAD PUSH1 0xFF AND PUSH1 0x4 DUP2 GT ISZERO PUSH2 0x8B0 JUMPI PUSH4 0x4E487B71 PUSH1 0xE0 SHL PUSH1 0x0 MSTORE PUSH1 0x21 PUSH1 0x4 MSTORE PUSH1 0x24 PUSH1 0x0 REVERT JUMPDEST EQ PUSH2 0x8CD JUMPI PUSH1 0x40 MLOAD PUSH3 0x461BCD PUSH1 0xE5 SHL DUP2 MSTORE PUSH1 0x4 ADD PUSH2 0x495 SWAP1 PUSH2 0x31CB JUMP JUMPDEST PUSH1 0x2 DUP2 DUP2 ADD SLOAD LT ISZERO PUSH2 0x8F1 JUMPI PUSH1 0x40 MLOAD PUSH3 0x461BCD PUSH1 0xE5 SHL DUP2 MSTORE PUSH1 0x4 ADD PUSH2 0x495 SWAP1 PUSH2 0x3140 JUMP JUMPDEST PUSH2 0x8FC PUSH1 0x1E TIMESTAMP PUSH2 0x363D JUMP JUMPDEST PUSH1 0xC DUP3 ADD DUP2 SWAP1 SSTORE PUSH2 0x90F SWAP1 PUSH1 0x78 SWAP1 PUSH2 0x363D JUMP JUMPDEST PUSH1 0xB DUP3 ADD SSTORE PUSH1 0x1 DUP1 DUP3 ADD DUP1 SLOAD PUSH1 0xFF NOT AND SWAP1 SWAP2 OR SWAP1 SSTORE PUSH2 0x92D DUP5 PUSH2 0x226B JUMP JUMPDEST PUSH2 0x936 DUP5 PUSH2 0x23FB JUMP JUMPDEST DUP4 PUSH32 0xF732482EA8C744F957EF9B24C1E98E8ADD28A3E5DC3DEEDC3E8419F527C19B98 PUSH1 0x0 PUSH1 0x1 PUSH1 0x40 MLOAD PUSH2 0x96A SWAP3 SWAP2 SWAP1 PUSH2 0x2F0A JUMP JUMPDEST PUSH1 0x40 MLOAD DUP1 SWAP2 SUB SWAP1 LOG2 PUSH1 0x40 MLOAD DUP5 SWAP1 PUSH32 0x1A2BA96BF245728C460E13D78A1591BCB45E67DE1240B6654190F8C0BBDD0700 SWAP1 PUSH1 0x0 SWAP1 LOG2 POP POP POP POP JUMP JUMPDEST PUSH1 0x0 DUP2 DUP2 MSTORE PUSH1 0x1 PUSH1 0x20 MSTORE PUSH1 0x40 SWAP1 KECCAK256 SLOAD DUP2 SWAP1 DUP2 EQ PUSH2 0x9D2 JUMPI PUSH1 0x40 MLOAD PUSH3 0x461BCD PUSH1 0xE5 SHL DUP2 MSTORE PUSH1 0x4 ADD PUSH2 0x495 SWAP1 PUSH2 0x32AD JUMP JUMPDEST PUSH1 0x0 DUP3 DUP2 MSTORE PUSH1 0x1 PUSH1 0x20 SWAP1 DUP2 MSTORE PUSH1 0x40 DUP1 DUP4 KECCAK256 CALLER DUP5 MSTORE PUSH1 0x4 ADD SWAP1 SWAP2 MSTORE SWAP1 KECCAK256 SLOAD DUP3 SWAP1 PUSH1 0xFF AND PUSH2 0xA10 JUMPI PUSH1 0x40 MLOAD PUSH3 0x461BCD PUSH1 0xE5 SHL DUP2 MSTORE PUSH1 0x4 ADD PUSH2 0x495 SWAP1 PUSH2 0x304A JUMP JUMPDEST PUSH1 0x0 DUP4 DUP2 MSTORE PUSH1 0x1 PUSH1 0x20 MSTORE PUSH1 0x40 SWAP1 KECCAK256 PUSH1 0xC ADD SLOAD DUP4 SWAP1 TIMESTAMP LT ISZERO PUSH2 0xA43 JUMPI PUSH1 0x40 MLOAD PUSH3 0x461BCD PUSH1 0xE5 SHL DUP2 MSTORE PUSH1 0x4 ADD PUSH2 0x495 SWAP1 PUSH2 0x336E JUMP JUMPDEST PUSH1 0x0 DUP5 DUP2 MSTORE PUSH1 0x1 PUSH1 0x20 MSTORE PUSH1 0x40 SWAP1 KECCAK256 PUSH1 0xD ADD SLOAD DUP5 SWAP1 PUSH1 0xFF AND ISZERO PUSH2 0xA77 JUMPI PUSH1 0x40 MLOAD PUSH3 0x461BCD PUSH1 0xE5 SHL DUP2 MSTORE PUSH1 0x4 ADD PUSH2 0x495 SWAP1 PUSH2 0x34C2 JUMP JUMPDEST PUSH1 0x0 DUP6 DUP2 MSTORE PUSH1 0x1 PUSH1 0x20 DUP2 DUP2 MSTORE PUSH1 0x40 DUP1 DUP5 KECCAK256 CALLER DUP6 MSTORE PUSH1 0x4 DUP2 ADD SWAP1 SWAP3 MSTORE SWAP1 SWAP3 KECCAK256 SWAP1 PUSH1 0x1 DUP4 ADD SLOAD PUSH1 0xFF AND PUSH1 0x4 DUP2 GT ISZERO PUSH2 0xABD JUMPI PUSH4 0x4E487B71 PUSH1 0xE0 SHL PUSH1 0x0 MSTORE PUSH1 0x21 PUSH1 0x4 MSTORE PUSH1 0x24 PUSH1 0x0 REVERT JUMPDEST EQ PUSH2 0xADA JUMPI PUSH1 0x40 MLOAD PUSH3 0x461BCD PUSH1 0xE5 SHL DUP2 MSTORE PUSH1 0x4 ADD PUSH2 0x495 SWAP1 PUSH2 0x3285 JUMP JUMPDEST DUP2 PUSH1 0xB ADD SLOAD TIMESTAMP LT PUSH2 0xAFD JUMPI PUSH1 0x40 MLOAD PUSH3 0x461BCD PUSH1 0xE5 SHL DUP2 MSTORE PUSH1 0x4 ADD PUSH2 0x495 SWAP1 PUSH2 0x2FB2 JUMP JUMPDEST DUP1 SLOAD PUSH2 0x100 SWAP1 DIV PUSH1 0xFF AND PUSH2 0xB23 JUMPI PUSH1 0x40 MLOAD PUSH3 0x461BCD PUSH1 0xE5 SHL DUP2 MSTORE PUSH1 0x4 ADD PUSH2 0x495 SWAP1 PUSH2 0x3228 JUMP JUMPDEST DUP1 SLOAD PUSH3 0x10000 SWAP1 DIV PUSH1 0xFF AND ISZERO PUSH2 0xB4B JUMPI PUSH1 0x40 MLOAD PUSH3 0x461BCD PUSH1 0xE5 SHL DUP2 MSTORE PUSH1 0x4 ADD PUSH2 0x495 SWAP1 PUSH2 0x2F7B JUMP JUMPDEST PUSH1 0x7 DUP2 PUSH1 0x1 ADD SLOAD LT ISZERO PUSH2 0xB70 JUMPI PUSH1 0x40 MLOAD PUSH3 0x461BCD PUSH1 0xE5 SHL DUP2 MSTORE PUSH1 0x4 ADD PUSH2 0x495 SWAP1 PUSH2 0x3075 JUMP JUMPDEST PUSH1 0x1 DUP1 DUP3 ADD DUP1 SLOAD PUSH1 0x6 NOT ADD SWAP1 SSTORE DUP2 SLOAD PUSH3 0xFF0000 NOT AND PUSH3 0x10000 OR DUP1 DUP4 SSTORE TIMESTAMP PUSH1 0x3 DUP5 ADD SSTORE PUSH1 0x4 DUP4 ADD DUP1 SLOAD SWAP1 SWAP3 ADD SWAP1 SWAP2 SSTORE PUSH5 0x100000000 SWAP1 DIV PUSH1 0xFF AND PUSH2 0xBB4 DUP9 DUP3 PUSH2 0x24AC JUMP JUMPDEST PUSH1 0x0 PUSH2 0xBBF DUP10 PUSH2 0x24E1 JUMP JUMPDEST SWAP1 POP PUSH1 0x0 DUP2 PUSH1 0xFF AND GT DUP1 ISZERO PUSH2 0xBD7 JUMPI POP PUSH1 0x34 PUSH1 0xFF DUP3 AND LT JUMPDEST PUSH2 0xBF3 JUMPI PUSH1 0x40 MLOAD PUSH3 0x461BCD PUSH1 0xE5 SHL DUP2 MSTORE PUSH1 0x4 ADD PUSH2 0x495 SWAP1 PUSH2 0x3419 JUMP JUMPDEST PUSH2 0xBFD DUP10 DUP3 PUSH2 0x2628 JUMP JUMPDEST ISZERO PUSH2 0xC1A JUMPI PUSH1 0x40 MLOAD PUSH3 0x461BCD PUSH1 0xE5 SHL DUP2 MSTORE PUSH1 0x4 ADD PUSH2 0x495 SWAP1 PUSH2 0x3521 JUMP JUMPDEST PUSH2 0xC24 DUP10 DUP3 PUSH2 0x264B JUMP JUMPDEST DUP3 SLOAD PUSH5 0xFF00000000 NOT AND PUSH5 0x100000000 PUSH1 0xFF DUP4 AND SWAP1 DUP2 MUL SWAP2 SWAP1 SWAP2 OR DUP5 SSTORE PUSH1 0x5 DUP6 ADD DUP1 SLOAD PUSH1 0x0 SWAP3 SWAP1 DUP2 LT PUSH2 0xC67 JUMPI PUSH4 0x4E487B71 PUSH1 0xE0 SHL PUSH1 0x0 MSTORE PUSH1 0x32 PUSH1 0x4 MSTORE PUSH1 0x24 PUSH1 0x0 REVERT JUMPDEST PUSH1 0x0 SWAP2 DUP3 MSTORE PUSH1 0x20 SWAP2 DUP3 SWAP1 KECCAK256 PUSH1 0x40 DUP1 MLOAD DUP1 DUP3 ADD DUP3 MSTORE SWAP3 SWAP1 SWAP2 ADD SLOAD PUSH1 0xFF DUP1 DUP3 AND DUP1 DUP6 MSTORE PUSH2 0x100 SWAP1 SWAP3 DIV AND SWAP4 DUP4 ADD DUP5 SWAP1 MSTORE SWAP1 MLOAD SWAP2 SWAP4 POP CALLER SWAP3 PUSH32 0xBDF2F0687B7C6F0B8DDE29A86969BA9A1E60CE7D560DC87E0BC637AEAD3A8C1C SWAP3 PUSH2 0xCC9 SWAP3 SWAP2 SWAP1 PUSH2 0x3629 JUMP JUMPDEST PUSH1 0x40 MLOAD DUP1 SWAP2 SUB SWAP1 LOG2 CALLER PUSH1 0x1 PUSH1 0x1 PUSH1 0xA0 SHL SUB AND DUP11 PUSH1 0x0 DUP1 MLOAD PUSH1 0x20 PUSH2 0x373A DUP4 CODECOPY DUP2 MLOAD SWAP2 MSTORE PUSH1 0x7 PUSH1 0x40 MLOAD PUSH2 0xCFA SWAP2 SWAP1 PUSH2 0x325F JUMP JUMPDEST PUSH1 0x40 MLOAD DUP1 SWAP2 SUB SWAP1 LOG3 POP POP POP POP POP POP POP POP POP POP JUMP JUMPDEST CALLER PUSH1 0x0 SWAP1 DUP2 MSTORE PUSH1 0x3 PUSH1 0x20 MSTORE PUSH1 0x40 SWAP1 KECCAK256 SLOAD PUSH1 0xFF AND PUSH2 0xD3D JUMPI PUSH1 0x40 MLOAD PUSH3 0x461BCD PUSH1 0xE5 SHL DUP2 MSTORE PUSH1 0x4 ADD PUSH2 0x495 SWAP1 PUSH2 0x30A1 JUMP JUMPDEST PUSH1 0x0 DUP2 DUP2 MSTORE PUSH1 0x1 PUSH1 0x20 MSTORE PUSH1 0x40 SWAP1 KECCAK256 SLOAD DUP2 SWAP1 DUP2 EQ PUSH2 0xD6C JUMPI PUSH1 0x40 MLOAD PUSH3 0x461BCD PUSH1 0xE5 SHL DUP2 MSTORE PUSH1 0x4 ADD PUSH2 0x495 SWAP1 PUSH2 0x32AD JUMP JUMPDEST PUSH1 0x0 DUP3 DUP2 MSTORE PUSH1 0x1 PUSH1 0x20 MSTORE PUSH1 0x40 SWAP1 KECCAK256 PUSH1 0xD ADD SLOAD DUP3 SWAP1 PUSH1 0xFF AND ISZERO PUSH2 0xDA0 JUMPI PUSH1 0x40 MLOAD PUSH3 0x461BCD PUSH1 0xE5 SHL DUP2 MSTORE PUSH1 0x4 ADD PUSH2 0x495 SWAP1 PUSH2 0x34C2 JUMP JUMPDEST PUSH1 0x0 DUP4 DUP2 MSTORE PUSH1 0x1 PUSH1 0x20 MSTORE PUSH1 0x40 SWAP1 KECCAK256 PUSH1 0x2 PUSH1 0x1 DUP3 ADD SLOAD PUSH1 0xFF AND PUSH1 0x4 DUP2 GT ISZERO PUSH2 0xDD7 JUMPI PUSH4 0x4E487B71 PUSH1 0xE0 SHL PUSH1 0x0 MSTORE PUSH1 0x21 PUSH1 0x4 MSTORE PUSH1 0x24 PUSH1 0x0 REVERT JUMPDEST EQ PUSH2 0xDF4 JUMPI PUSH1 0x40 MLOAD PUSH3 0x461BCD PUSH1 0xE5 SHL DUP2 MSTORE PUSH1 0x4 ADD PUSH2 0x495 SWAP1 PUSH2 0x3169 JUMP JUMPDEST DUP1 PUSH1 0xB ADD SLOAD TIMESTAMP LT ISZERO PUSH2 0xE18 JUMPI PUSH1 0x40 MLOAD PUSH3 0x461BCD PUSH1 0xE5 SHL DUP2 MSTORE PUSH1 0x4 ADD PUSH2 0x495 SWAP1 PUSH2 0x33E2 JUMP JUMPDEST PUSH2 0xE21 DUP5 PUSH2 0x2667 JUMP JUMPDEST POP POP POP POP JUMP JUMPDEST PUSH1 0x0 DUP2 DUP2 MSTORE PUSH1 0x1 PUSH1 0x20 MSTORE PUSH1 0x40 SWAP1 KECCAK256 SLOAD DUP2 SWAP1 DUP2 EQ PUSH2 0xE56 JUMPI PUSH1 0x40 MLOAD PUSH3 0x461BCD PUSH1 0xE5 SHL DUP2 MSTORE PUSH1 0x4 ADD PUSH2 0x495 SWAP1 PUSH2 0x32AD JUMP JUMPDEST PUSH1 0x0 DUP3 DUP2 MSTORE PUSH1 0x1 PUSH1 0x20 SWAP1 DUP2 MSTORE PUSH1 0x40 DUP1 DUP4 KECCAK256 CALLER DUP5 MSTORE PUSH1 0x4 ADD SWAP1 SWAP2 MSTORE SWAP1 KECCAK256 SLOAD DUP3 SWAP1 PUSH1 0xFF AND PUSH2 0xE94 JUMPI PUSH1 0x40 MLOAD PUSH3 0x461BCD PUSH1 0xE5 SHL DUP2 MSTORE PUSH1 0x4 ADD PUSH2 0x495 SWAP1 PUSH2 0x304A JUMP JUMPDEST PUSH1 0x0 DUP4 DUP2 MSTORE PUSH1 0x1 PUSH1 0x20 MSTORE PUSH1 0x40 SWAP1 KECCAK256 PUSH1 0xC ADD SLOAD DUP4 SWAP1 TIMESTAMP LT ISZERO PUSH2 0xEC7 JUMPI PUSH1 0x40 MLOAD PUSH3 0x461BCD PUSH1 0xE5 SHL DUP2 MSTORE PUSH1 0x4 ADD PUSH2 0x495 SWAP1 PUSH2 0x336E JUMP JUMPDEST PUSH1 0x0 DUP5 DUP2 MSTORE PUSH1 0x1 PUSH1 0x20 MSTORE PUSH1 0x40 SWAP1 KECCAK256 PUSH1 0xD ADD SLOAD DUP5 SWAP1 PUSH1 0xFF AND ISZERO PUSH2 0xEFB JUMPI PUSH1 0x40 MLOAD PUSH3 0x461BCD PUSH1 0xE5 SHL DUP2 MSTORE PUSH1 0x4 ADD PUSH2 0x495 SWAP1 PUSH2 0x34C2 JUMP JUMPDEST PUSH1 0x0 DUP6 DUP2 MSTORE PUSH1 0x1 PUSH1 0x20 DUP2 DUP2 MSTORE PUSH1 0x40 DUP1 DUP5 KECCAK256 CALLER DUP6 MSTORE PUSH1 0x4 DUP2 ADD SWAP1 SWAP3 MSTORE SWAP1 SWAP3 KECCAK256 SWAP1 PUSH1 0x1 DUP4 ADD SLOAD PUSH1 0xFF AND PUSH1 0x4 DUP2 GT ISZERO PUSH2 0xF41 JUMPI PUSH4 0x4E487B71 PUSH1 0xE0 SHL PUSH1 0x0 MSTORE PUSH1 0x21 PUSH1 0x4 MSTORE PUSH1 0x24 PUSH1 0x0 REVERT JUMPDEST EQ PUSH2 0xF5E JUMPI PUSH1 0x40 MLOAD PUSH3 0x461BCD PUSH1 0xE5 SHL DUP2 MSTORE PUSH1 0x4 ADD PUSH2 0x495 SWAP1 PUSH2 0x3285 JUMP JUMPDEST DUP2 PUSH1 0xB ADD SLOAD TIMESTAMP LT PUSH2 0xF81 JUMPI PUSH1 0x40 MLOAD PUSH3 0x461BCD PUSH1 0xE5 SHL DUP2 MSTORE PUSH1 0x4 ADD PUSH2 0x495 SWAP1 PUSH2 0x2FB2 JUMP JUMPDEST DUP1 SLOAD PUSH2 0x100 SWAP1 DIV PUSH1 0xFF AND ISZERO PUSH2 0xFA8 JUMPI PUSH1 0x40 MLOAD PUSH3 0x461BCD PUSH1 0xE5 SHL DUP2 MSTORE PUSH1 0x4 ADD PUSH2 0x495 SWAP1 PUSH2 0x34F9 JUMP JUMPDEST PUSH1 0x5 DUP2 PUSH1 0x1 ADD SLOAD LT ISZERO PUSH2 0xFCD JUMPI PUSH1 0x40 MLOAD PUSH3 0x461BCD PUSH1 0xE5 SHL DUP2 MSTORE PUSH1 0x4 ADD PUSH2 0x495 SWAP1 PUSH2 0x3075 JUMP JUMPDEST PUSH1 0x1 DUP1 DUP3 ADD DUP1 SLOAD PUSH1 0x4 NOT ADD SWAP1 SSTORE DUP2 SLOAD PUSH2 0xFF00 NOT AND PUSH2 0x100 OR DUP1 DUP4 SSTORE TIMESTAMP PUSH1 0x3 DUP5 ADD SSTORE PUSH1 0x4 DUP4 ADD DUP1 SLOAD SWAP1 SWAP3 ADD SWAP1 SWAP2 SSTORE PUSH1 0x5 DUP4 ADD DUP1 SLOAD PUSH5 0x100000000 SWAP1 SWAP3 DIV PUSH1 0xFF AND SWAP2 PUSH1 0x0 SWAP2 SWAP1 DUP4 SWAP1 DUP2 LT PUSH2 0x102F JUMPI PUSH4 0x4E487B71 PUSH1 0xE0 SHL PUSH1 0x0 MSTORE PUSH1 0x32 PUSH1 0x4 MSTORE PUSH1 0x24 PUSH1 0x0 REVERT JUMPDEST PUSH1 0x0 SWAP2 DUP3 MSTORE PUSH1 0x20 SWAP2 DUP3 SWAP1 KECCAK256 PUSH1 0x40 DUP1 MLOAD DUP1 DUP3 ADD DUP3 MSTORE SWAP3 SWAP1 SWAP2 ADD SLOAD PUSH1 0xFF DUP1 DUP3 AND DUP1 DUP6 MSTORE PUSH2 0x100 SWAP1 SWAP3 DIV AND SWAP4 DUP4 ADD DUP5 SWAP1 MSTORE SWAP1 MLOAD SWAP2 SWAP4 POP CALLER SWAP3 PUSH32 0xBDF2F0687B7C6F0B8DDE29A86969BA9A1E60CE7D560DC87E0BC637AEAD3A8C1C SWAP3 PUSH2 0x1091 SWAP3 SWAP2 SWAP1 PUSH2 0x3629 JUMP JUMPDEST PUSH1 0x40 MLOAD DUP1 SWAP2 SUB SWAP1 LOG2 CALLER PUSH1 0x1 PUSH1 0x1 PUSH1 0xA0 SHL SUB AND DUP10 PUSH1 0x0 DUP1 MLOAD PUSH1 0x20 PUSH2 0x373A DUP4 CODECOPY DUP2 MLOAD SWAP2 MSTORE PUSH1 0x5 PUSH1 0x40 MLOAD PUSH2 0x10C2 SWAP2 SWAP1 PUSH2 0x3449 JUMP JUMPDEST PUSH1 0x40 MLOAD DUP1 SWAP2 SUB SWAP1 LOG3 POP POP POP POP POP POP POP POP POP JUMP JUMPDEST PUSH1 0x0 DUP2 DUP2 MSTORE PUSH1 0x1 PUSH1 0x20 MSTORE PUSH1 0x40 SWAP1 KECCAK256 SLOAD PUSH1 0x60 SWAP1 DUP3 SWAP1 DUP2 EQ PUSH2 0x1107 JUMPI PUSH1 0x40 MLOAD PUSH3 0x461BCD PUSH1 0xE5 SHL DUP2 MSTORE PUSH1 0x4 ADD PUSH2 0x495 SWAP1 PUSH2 0x32AD JUMP JUMPDEST PUSH1 0x0 DUP4 DUP2 MSTORE PUSH1 0x1 PUSH1 0x20 MSTORE PUSH1 0x40 SWAP1 KECCAK256 PUSH1 0x3 DUP2 ADD SLOAD PUSH8 0xFFFFFFFFFFFFFFFF DUP2 GT ISZERO PUSH2 0x1140 JUMPI PUSH4 0x4E487B71 PUSH1 0xE0 SHL PUSH1 0x0 MSTORE PUSH1 0x41 PUSH1 0x4 MSTORE PUSH1 0x24 PUSH1 0x0 REVERT JUMPDEST PUSH1 0x40 MLOAD SWAP1 DUP1 DUP3 MSTORE DUP1 PUSH1 0x20 MUL PUSH1 0x20 ADD DUP3 ADD PUSH1 0x40 MSTORE DUP1 ISZERO PUSH2 0x1169 JUMPI DUP2 PUSH1 0x20 ADD PUSH1 0x20 DUP3 MUL DUP1 CALLDATASIZE DUP4 CALLDATACOPY ADD SWAP1 POP JUMPDEST POP SWAP3 POP DUP1 PUSH1 0x3 ADD SLOAD PUSH1 0x0 EQ ISZERO PUSH2 0x117F JUMPI POP PUSH2 0x1254 JUMP JUMPDEST PUSH1 0x0 DUP1 JUMPDEST PUSH1 0x2 DUP4 ADD SLOAD DUP2 LT ISZERO PUSH2 0x1250 JUMPI PUSH1 0x0 DUP4 PUSH1 0x2 ADD DUP3 DUP2 SLOAD DUP2 LT PUSH2 0x11B4 JUMPI PUSH4 0x4E487B71 PUSH1 0xE0 SHL PUSH1 0x0 MSTORE PUSH1 0x32 PUSH1 0x4 MSTORE PUSH1 0x24 PUSH1 0x0 REVERT JUMPDEST PUSH1 0x0 SWAP2 DUP3 MSTORE PUSH1 0x20 DUP1 DUP4 KECCAK256 SWAP1 SWAP2 ADD SLOAD PUSH1 0x1 PUSH1 0x1 PUSH1 0xA0 SHL SUB AND DUP1 DUP4 MSTORE PUSH1 0x4 DUP8 ADD SWAP1 SWAP2 MSTORE PUSH1 0x40 SWAP1 SWAP2 KECCAK256 SLOAD SWAP1 SWAP2 POP PUSH1 0xFF PUSH4 0x1000000 SWAP1 SWAP2 DIV AND PUSH2 0x123D JUMPI DUP1 DUP7 DUP5 DUP2 MLOAD DUP2 LT PUSH2 0x120E JUMPI PUSH4 0x4E487B71 PUSH1 0xE0 SHL PUSH1 0x0 MSTORE PUSH1 0x32 PUSH1 0x4 MSTORE PUSH1 0x24 PUSH1 0x0 REVERT JUMPDEST PUSH1 0x1 PUSH1 0x1 PUSH1 0xA0 SHL SUB SWAP1 SWAP3 AND PUSH1 0x20 SWAP3 DUP4 MUL SWAP2 SWAP1 SWAP2 ADD SWAP1 SWAP2 ADD MSTORE PUSH1 0x3 DUP5 ADD SLOAD PUSH1 0x1 SWAP1 SWAP4 ADD SWAP3 DUP4 LT PUSH2 0x123D JUMPI POP PUSH2 0x1250 JUMP JUMPDEST POP DUP1 PUSH2 0x1248 DUP2 PUSH2 0x36C8 JUMP JUMPDEST SWAP2 POP POP PUSH2 0x1183 JUMP JUMPDEST POP POP POP JUMPDEST POP SWAP2 SWAP1 POP JUMP JUMPDEST PUSH1 0x2 PUSH1 0x20 MSTORE PUSH1 0x0 SWAP1 DUP2 MSTORE PUSH1 0x40 SWAP1 KECCAK256 SLOAD DUP2 JUMP JUMPDEST PUSH1 0x0 DUP3 DUP2 MSTORE PUSH1 0x1 PUSH1 0x20 MSTORE PUSH1 0x40 DUP2 KECCAK256 SLOAD DUP2 SWAP1 DUP2 SWAP1 DUP2 SWAP1 DUP2 SWAP1 DUP2 SWAP1 DUP9 SWAP1 DUP2 EQ PUSH2 0x12A5 JUMPI PUSH1 0x40 MLOAD PUSH3 0x461BCD PUSH1 0xE5 SHL DUP2 MSTORE PUSH1 0x4 ADD PUSH2 0x495 SWAP1 PUSH2 0x32AD JUMP JUMPDEST PUSH1 0x0 DUP10 DUP2 MSTORE PUSH1 0x1 PUSH1 0x20 SWAP1 DUP2 MSTORE PUSH1 0x40 DUP1 DUP4 KECCAK256 PUSH1 0x1 PUSH1 0x1 PUSH1 0xA0 SHL SUB DUP13 AND DUP1 DUP6 MSTORE PUSH1 0x4 DUP3 ADD SWAP1 SWAP4 MSTORE SWAP3 KECCAK256 SWAP1 CALLER EQ DUP1 ISZERO SWAP1 PUSH2 0x12EC JUMPI POP CALLER PUSH1 0x0 SWAP1 DUP2 MSTORE PUSH1 0x3 PUSH1 0x20 MSTORE PUSH1 0x40 SWAP1 KECCAK256 SLOAD PUSH1 0xFF AND ISZERO JUMPDEST ISZERO PUSH2 0x1325 JUMPI DUP1 SLOAD PUSH1 0x1 DUP3 ADD SLOAD PUSH1 0x2 SWAP1 SWAP3 ADD SLOAD PUSH1 0xFF DUP1 DUP4 AND SWAP12 POP PUSH1 0x0 SWAP11 POP DUP11 SWAP10 POP PUSH4 0x1000000 SWAP1 SWAP3 DIV SWAP1 SWAP2 AND SWAP7 POP SWAP1 SWAP5 POP SWAP3 POP PUSH2 0x1360 SWAP1 POP JUMP JUMPDEST DUP1 SLOAD PUSH1 0x1 DUP3 ADD SLOAD PUSH1 0x2 SWAP1 SWAP3 ADD SLOAD PUSH1 0xFF DUP1 DUP4 AND SWAP12 POP PUSH2 0x100 DUP4 DIV DUP2 AND SWAP11 POP PUSH3 0x10000 DUP4 DIV DUP2 AND SWAP10 POP PUSH4 0x1000000 SWAP1 SWAP3 DIV SWAP1 SWAP2 AND SWAP7 POP SWAP1 SWAP5 POP SWAP3 POP POP JUMPDEST POP SWAP3 SWAP6 POP SWAP3 SWAP6 POP SWAP3 SWAP6 JUMP JUMPDEST PUSH1 0x0 DUP2 DUP2 MSTORE PUSH1 0x1 PUSH1 0x20 MSTORE PUSH1 0x40 SWAP1 KECCAK256 SLOAD DUP2 SWAP1 DUP2 EQ PUSH2 0x139A JUMPI PUSH1 0x40 MLOAD PUSH3 0x461BCD PUSH1 0xE5 SHL DUP2 MSTORE PUSH1 0x4 ADD PUSH2 0x495 SWAP1 PUSH2 0x32AD JUMP JUMPDEST PUSH1 0x0 DUP3 DUP2 MSTORE PUSH1 0x1 PUSH1 0x20 MSTORE PUSH1 0x40 SWAP1 KECCAK256 PUSH1 0xD ADD SLOAD DUP3 SWAP1 PUSH1 0xFF AND ISZERO PUSH2 0x13CE JUMPI PUSH1 0x40 MLOAD PUSH3 0x461BCD PUSH1 0xE5 SHL DUP2 MSTORE PUSH1 0x4 ADD PUSH2 0x495 SWAP1 PUSH2 0x34C2 JUMP JUMPDEST PUSH1 0x0 DUP4 DUP2 MSTORE PUSH1 0x1 PUSH1 0x20 SWAP1 DUP2 MSTORE PUSH1 0x40 DUP1 DUP4 KECCAK256 CALLER DUP5 MSTORE PUSH1 0x4 DUP2 ADD SWAP1 SWAP3 MSTORE SWAP1 SWAP2 KECCAK256 SLOAD PUSH1 0xFF AND PUSH2 0x140C JUMPI PUSH1 0x40 MLOAD PUSH3 0x461BCD PUSH1 0xE5 SHL DUP2 MSTORE PUSH1 0x4 ADD PUSH2 0x495 SWAP1 PUSH2 0x32D5 JUMP JUMPDEST PUSH1 0x0 PUSH1 0x1 DUP3 ADD SLOAD PUSH1 0xFF AND PUSH1 0x4 DUP2 GT ISZERO PUSH2 0x1435 JUMPI PUSH4 0x4E487B71 PUSH1 0xE0 SHL PUSH1 0x0 MSTORE PUSH1 0x21 PUSH1 0x4 MSTORE PUSH1 0x24 PUSH1 0x0 REVERT JUMPDEST EQ PUSH2 0x1452 JUMPI PUSH1 0x40 MLOAD PUSH3 0x461BCD PUSH1 0xE5 SHL DUP2 MSTORE PUSH1 0x4 ADD PUSH2 0x495 SWAP1 PUSH2 0x3558 JUMP JUMPDEST PUSH1 0xA DUP2 ADD SLOAD PUSH1 0x1 PUSH1 0x1 PUSH1 0xA0 SHL SUB AND CALLER EQ ISZERO DUP1 PUSH2 0x1472 JUMPI POP PUSH1 0x2 DUP2 ADD SLOAD PUSH1 0x1 EQ JUMPDEST PUSH2 0x148E JUMPI PUSH1 0x40 MLOAD PUSH3 0x461BCD PUSH1 0xE5 SHL DUP2 MSTORE PUSH1 0x4 ADD PUSH2 0x495 SWAP1 PUSH2 0x30C5 JUMP JUMPDEST PUSH1 0x0 JUMPDEST PUSH1 0x2 DUP3 ADD SLOAD DUP2 LT ISZERO PUSH2 0x15D9 JUMPI CALLER PUSH1 0x1 PUSH1 0x1 PUSH1 0xA0 SHL SUB AND DUP3 PUSH1 0x2 ADD DUP3 DUP2 SLOAD DUP2 LT PUSH2 0x14CA JUMPI PUSH4 0x4E487B71 PUSH1 0xE0 SHL PUSH1 0x0 MSTORE PUSH1 0x32 PUSH1 0x4 MSTORE PUSH1 0x24 PUSH1 0x0 REVERT JUMPDEST PUSH1 0x0 SWAP2 DUP3 MSTORE PUSH1 0x20 SWAP1 SWAP2 KECCAK256 ADD SLOAD PUSH1 0x1 PUSH1 0x1 PUSH1 0xA0 SHL SUB AND EQ ISZERO PUSH2 0x15C7 JUMPI PUSH1 0x2 DUP3 ADD DUP1 SLOAD PUSH2 0x14F7 SWAP1 PUSH1 0x1 SWAP1 PUSH2 0x3655 JUMP JUMPDEST DUP2 SLOAD DUP2 LT PUSH2 0x1515 JUMPI PUSH4 0x4E487B71 PUSH1 0xE0 SHL PUSH1 0x0 MSTORE PUSH1 0x32 PUSH1 0x4 MSTORE PUSH1 0x24 PUSH1 0x0 REVERT JUMPDEST PUSH1 0x0 SWAP2 DUP3 MSTORE PUSH1 0x20 SWAP1 SWAP2 KECCAK256 ADD SLOAD PUSH1 0x2 DUP4 ADD DUP1 SLOAD PUSH1 0x1 PUSH1 0x1 PUSH1 0xA0 SHL SUB SWAP1 SWAP3 AND SWAP2 DUP4 SWAP1 DUP2 LT PUSH2 0x1551 JUMPI PUSH4 0x4E487B71 PUSH1 0xE0 SHL PUSH1 0x0 MSTORE PUSH1 0x32 PUSH1 0x4 MSTORE PUSH1 0x24 PUSH1 0x0 REVERT JUMPDEST SWAP1 PUSH1 0x0 MSTORE PUSH1 0x20 PUSH1 0x0 KECCAK256 ADD PUSH1 0x0 PUSH2 0x100 EXP DUP2 SLOAD DUP2 PUSH1 0x1 PUSH1 0x1 PUSH1 0xA0 SHL SUB MUL NOT AND SWAP1 DUP4 PUSH1 0x1 PUSH1 0x1 PUSH1 0xA0 SHL SUB AND MUL OR SWAP1 SSTORE POP DUP2 PUSH1 0x2 ADD DUP1 SLOAD DUP1 PUSH2 0x15A0 JUMPI PUSH4 0x4E487B71 PUSH1 0xE0 SHL PUSH1 0x0 MSTORE PUSH1 0x31 PUSH1 0x4 MSTORE PUSH1 0x24 PUSH1 0x0 REVERT JUMPDEST PUSH1 0x0 DUP3 DUP2 MSTORE PUSH1 0x20 SWAP1 KECCAK256 DUP2 ADD PUSH1 0x0 NOT SWAP1 DUP2 ADD DUP1 SLOAD PUSH1 0x1 PUSH1 0x1 PUSH1 0xA0 SHL SUB NOT AND SWAP1 SSTORE ADD SWAP1 SSTORE PUSH2 0x15D9 JUMP JUMPDEST DUP1 PUSH2 0x15D1 DUP2 PUSH2 0x36C8 JUMP JUMPDEST SWAP2 POP POP PUSH2 0x1491 JUMP JUMPDEST POP PUSH1 0x3 DUP1 DUP3 ADD DUP1 SLOAD PUSH1 0x0 NOT ADD SWAP1 SSTORE CALLER PUSH1 0x0 DUP2 DUP2 MSTORE PUSH1 0x4 DUP1 DUP6 ADD PUSH1 0x20 SWAP1 DUP2 MSTORE PUSH1 0x40 DUP1 DUP5 KECCAK256 DUP1 SLOAD PUSH5 0xFFFFFFFFFF NOT AND DUP2 SSTORE PUSH1 0x1 DUP2 ADD DUP6 SWAP1 SSTORE PUSH1 0x2 DUP1 DUP3 ADD DUP7 SWAP1 SSTORE SWAP7 DUP2 ADD DUP6 SWAP1 SSTORE SWAP1 SWAP3 ADD DUP4 SWAP1 SSTORE SWAP4 SWAP1 SWAP4 MSTORE DUP3 DUP2 KECCAK256 DUP2 SWAP1 SSTORE SWAP2 MLOAD SWAP1 SWAP2 DUP7 SWAP2 PUSH1 0x0 DUP1 MLOAD PUSH1 0x20 PUSH2 0x373A DUP4 CODECOPY DUP2 MLOAD SWAP2 MSTORE SWAP2 PUSH2 0x164C SWAP2 PUSH2 0x3347 JUMP JUMPDEST PUSH1 0x40 MLOAD DUP1 SWAP2 SUB SWAP1 LOG3 POP POP POP POP JUMP JUMPDEST CALLER PUSH1 0x1 PUSH1 0x1 PUSH1 0xA0 SHL SUB PUSH32 0x0 AND EQ PUSH2 0x16A2 JUMPI PUSH1 0x40 MLOAD PUSH3 0x461BCD PUSH1 0xE5 SHL DUP2 MSTORE PUSH1 0x4 ADD PUSH2 0x495 SWAP1 PUSH2 0x3398 JUMP JUMPDEST PUSH1 0x1 PUSH1 0x1 PUSH1 0xA0 SHL SUB AND PUSH1 0x0 SWAP1 DUP2 MSTORE PUSH1 0x3 PUSH1 0x20 MSTORE PUSH1 0x40 SWAP1 KECCAK256 DUP1 SLOAD PUSH1 0xFF NOT AND PUSH1 0x1 OR SWAP1 SSTORE JUMP JUMPDEST PUSH1 0x5 DUP2 JUMP JUMPDEST PUSH1 0x0 DUP2 DUP2 MSTORE PUSH1 0x1 PUSH1 0x20 MSTORE PUSH1 0x40 SWAP1 KECCAK256 SLOAD PUSH1 0x60 SWAP1 DUP3 SWAP1 DUP2 EQ PUSH2 0x16FD JUMPI PUSH1 0x40 MLOAD PUSH3 0x461BCD PUSH1 0xE5 SHL DUP2 MSTORE PUSH1 0x4 ADD PUSH2 0x495 SWAP1 PUSH2 0x32AD JUMP JUMPDEST PUSH1 0x0 DUP4 DUP2 MSTORE PUSH1 0x1 PUSH1 0x20 SWAP1 DUP2 MSTORE PUSH1 0x40 SWAP2 DUP3 SWAP1 KECCAK256 PUSH1 0x2 ADD DUP1 SLOAD DUP4 MLOAD DUP2 DUP5 MUL DUP2 ADD DUP5 ADD SWAP1 SWAP5 MSTORE DUP1 DUP5 MSTORE SWAP1 SWAP2 DUP4 ADD DUP3 DUP3 DUP1 ISZERO PUSH2 0x175E JUMPI PUSH1 0x20 MUL DUP3 ADD SWAP2 SWAP1 PUSH1 0x0 MSTORE PUSH1 0x20 PUSH1 0x0 KECCAK256 SWAP1 JUMPDEST DUP2 SLOAD PUSH1 0x1 PUSH1 0x1 PUSH1 0xA0 SHL SUB AND DUP2 MSTORE PUSH1 0x1 SWAP1 SWAP2 ADD SWAP1 PUSH1 0x20 ADD DUP1 DUP4 GT PUSH2 0x1740 JUMPI JUMPDEST POP POP POP POP POP SWAP2 POP POP SWAP2 SWAP1 POP JUMP JUMPDEST PUSH1 0x0 DUP1 PUSH1 0x0 DUP1 PUSH1 0x0 DUP1 PUSH1 0x0 DUP1 PUSH1 0x0 DUP10 DUP1 PUSH1 0x1 PUSH1 0x0 DUP4 DUP2 MSTORE PUSH1 0x20 ADD SWAP1 DUP2 MSTORE PUSH1 0x20 ADD PUSH1 0x0 KECCAK256 PUSH1 0x0 ADD SLOAD EQ PUSH2 0x17AF JUMPI PUSH1 0x40 MLOAD PUSH3 0x461BCD PUSH1 0xE5 SHL DUP2 MSTORE PUSH1 0x4 ADD PUSH2 0x495 SWAP1 PUSH2 0x32AD JUMP JUMPDEST PUSH1 0x0 DUP12 DUP2 MSTORE PUSH1 0x1 PUSH1 0x20 MSTORE PUSH1 0x40 DUP2 KECCAK256 PUSH1 0xB DUP2 ADD SLOAD SWAP1 SWAP2 SWAP1 TIMESTAMP LT ISZERO PUSH2 0x17DF JUMPI TIMESTAMP DUP3 PUSH1 0xB ADD SLOAD PUSH2 0x17DC SWAP2 SWAP1 PUSH2 0x3655 JUMP JUMPDEST SWAP1 POP JUMPDEST DUP2 PUSH1 0x1 ADD PUSH1 0x0 SWAP1 SLOAD SWAP1 PUSH2 0x100 EXP SWAP1 DIV PUSH1 0xFF AND DUP3 PUSH1 0x7 ADD SLOAD DUP4 PUSH1 0x8 ADD SLOAD DUP5 PUSH1 0xB ADD SLOAD DUP6 PUSH1 0xC ADD SLOAD DUP6 DUP8 PUSH1 0x2 ADD DUP1 SLOAD SWAP1 POP DUP9 PUSH1 0x3 ADD SLOAD DUP10 PUSH1 0xA ADD PUSH1 0x0 SWAP1 SLOAD SWAP1 PUSH2 0x100 EXP SWAP1 DIV PUSH1 0x1 PUSH1 0x1 PUSH1 0xA0 SHL SUB AND SWAP12 POP SWAP12 POP SWAP12 POP SWAP12 POP SWAP12 POP SWAP12 POP SWAP12 POP SWAP12 POP SWAP12 POP POP POP POP SWAP2 SWAP4 SWAP6 SWAP8 SWAP10 SWAP1 SWAP3 SWAP5 SWAP7 SWAP9 POP JUMP JUMPDEST PUSH1 0x0 DUP3 DUP2 MSTORE PUSH1 0x1 PUSH1 0x20 MSTORE PUSH1 0x40 SWAP1 KECCAK256 SLOAD DUP3 SWAP1 DUP2 EQ PUSH2 0x187C JUMPI PUSH1 0x40 MLOAD PUSH3 0x461BCD PUSH1 0xE5 SHL DUP2 MSTORE PUSH1 0x4 ADD PUSH2 0x495 SWAP1 PUSH2 0x32AD JUMP JUMPDEST PUSH1 0x0 DUP4 DUP2 MSTORE PUSH1 0x1 PUSH1 0x20 SWAP1 DUP2 MSTORE PUSH1 0x40 DUP1 DUP4 KECCAK256 CALLER DUP5 MSTORE PUSH1 0x4 ADD SWAP1 SWAP2 MSTORE SWAP1 KECCAK256 SLOAD DUP4 SWAP1 PUSH1 0xFF AND PUSH2 0x18BA JUMPI PUSH1 0x40 MLOAD PUSH3 0x461BCD PUSH1 0xE5 SHL DUP2 MSTORE PUSH1 0x4 ADD PUSH2 0x495 SWAP1 PUSH2 0x304A JUMP JUMPDEST PUSH1 0x0 DUP5 DUP2 MSTORE PUSH1 0x1 PUSH1 0x20 MSTORE PUSH1 0x40 SWAP1 KECCAK256 PUSH1 0xC ADD SLOAD DUP5 SWAP1 TIMESTAMP LT ISZERO PUSH2 0x18ED JUMPI PUSH1 0x40 MLOAD PUSH3 0x461BCD PUSH1 0xE5 SHL DUP2 MSTORE PUSH1 0x4 ADD PUSH2 0x495 SWAP1 PUSH2 0x336E JUMP JUMPDEST PUSH1 0x0 DUP6 DUP2 MSTORE PUSH1 0x1 PUSH1 0x20 MSTORE PUSH1 0x40 SWAP1 KECCAK256 PUSH1 0xD ADD SLOAD DUP6 SWAP1 PUSH1 0xFF AND ISZERO PUSH2 0x1921 JUMPI PUSH1 0x40 MLOAD PUSH3 0x461BCD PUSH1 0xE5 SHL DUP2 MSTORE PUSH1 0x4 ADD PUSH2 0x495 SWAP1 PUSH2 0x34C2 JUMP JUMPDEST PUSH1 0x0 DUP7 DUP2 MSTORE PUSH1 0x1 PUSH1 0x20 SWAP1 DUP2 MSTORE PUSH1 0x40 DUP1 DUP4 KECCAK256 CALLER DUP5 MSTORE PUSH1 0x4 DUP2 ADD SWAP1 SWAP3 MSTORE SWAP1 SWAP2 KECCAK256 PUSH1 0x2 PUSH1 0x1 DUP4 ADD SLOAD PUSH1 0xFF AND PUSH1 0x4 DUP2 GT ISZERO PUSH2 0x1968 JUMPI PUSH4 0x4E487B71 PUSH1 0xE0 SHL PUSH1 0x0 MSTORE PUSH1 0x21 PUSH1 0x4 MSTORE PUSH1 0x24 PUSH1 0x0 REVERT JUMPDEST EQ PUSH2 0x1985 JUMPI PUSH1 0x40 MLOAD PUSH3 0x461BCD PUSH1 0xE5 SHL DUP2 MSTORE PUSH1 0x4 ADD PUSH2 0x495 SWAP1 PUSH2 0x3169 JUMP JUMPDEST DUP2 PUSH1 0xB ADD SLOAD TIMESTAMP LT PUSH2 0x19A8 JUMPI PUSH1 0x40 MLOAD PUSH3 0x461BCD PUSH1 0xE5 SHL DUP2 MSTORE PUSH1 0x4 ADD PUSH2 0x495 SWAP1 PUSH2 0x35AE JUMP JUMPDEST DUP1 SLOAD PUSH4 0x1000000 SWAP1 DIV PUSH1 0xFF AND ISZERO PUSH2 0x19D1 JUMPI PUSH1 0x40 MLOAD PUSH3 0x461BCD PUSH1 0xE5 SHL DUP2 MSTORE PUSH1 0x4 ADD PUSH2 0x495 SWAP1 PUSH2 0x346F JUMP JUMPDEST PUSH1 0x1 DUP8 LT ISZERO PUSH2 0x19F2 JUMPI PUSH1 0x40 MLOAD PUSH3 0x461BCD PUSH1 0xE5 SHL DUP2 MSTORE PUSH1 0x4 ADD PUSH2 0x495 SWAP1 PUSH2 0x33BB JUMP JUMPDEST PUSH1 0x8 DUP3 ADD SLOAD ISZERO PUSH2 0x1A36 JUMPI PUSH1 0x0 DUP2 PUSH1 0x2 ADD SLOAD DUP4 PUSH1 0x8 ADD SLOAD PUSH2 0x1A12 SWAP2 SWAP1 PUSH2 0x3655 JUMP JUMPDEST SWAP1 POP DUP1 DUP9 LT ISZERO PUSH2 0x1A34 JUMPI PUSH1 0x40 MLOAD PUSH3 0x461BCD PUSH1 0xE5 SHL DUP2 MSTORE PUSH1 0x4 ADD PUSH2 0x495 SWAP1 PUSH2 0x3110 JUMP JUMPDEST POP JUMPDEST DUP7 DUP2 PUSH1 0x1 ADD SLOAD LT ISZERO PUSH2 0x1A5A JUMPI PUSH1 0x40 MLOAD PUSH3 0x461BCD PUSH1 0xE5 SHL DUP2 MSTORE PUSH1 0x4 ADD PUSH2 0x495 SWAP1 PUSH2 0x3075 JUMP JUMPDEST PUSH1 0x4 DUP2 ADD DUP1 SLOAD PUSH1 0x1 SWAP1 DUP2 ADD SWAP1 SWAP2 SSTORE DUP2 ADD DUP1 SLOAD DUP9 SWAP1 SUB SWAP1 SSTORE PUSH1 0x2 DUP2 ADD DUP1 SLOAD DUP9 ADD DUP2 SSTORE PUSH1 0x7 DUP4 ADD DUP1 SLOAD DUP10 ADD SWAP1 SSTORE TIMESTAMP PUSH1 0x3 DUP4 ADD SSTORE PUSH1 0x8 DUP4 ADD SLOAD SWAP1 SLOAD GT ISZERO PUSH2 0x1AA3 JUMPI PUSH1 0x2 DUP2 ADD SLOAD PUSH1 0x8 DUP4 ADD SSTORE JUMPDEST CALLER PUSH1 0x1 PUSH1 0x1 PUSH1 0xA0 SHL SUB AND DUP9 PUSH1 0x0 DUP1 MLOAD PUSH1 0x20 PUSH2 0x373A DUP4 CODECOPY DUP2 MLOAD SWAP2 MSTORE DUP10 PUSH1 0x40 MLOAD PUSH2 0x1ACB SWAP2 SWAP1 PUSH2 0x32FF JUMP JUMPDEST PUSH1 0x40 MLOAD DUP1 SWAP2 SUB SWAP1 LOG3 POP POP POP POP POP POP POP POP JUMP JUMPDEST PUSH1 0x0 SLOAD DUP2 JUMP JUMPDEST PUSH1 0x1 PUSH1 0x1 PUSH1 0xA0 SHL SUB DUP2 AND PUSH1 0x0 SWAP1 DUP2 MSTORE PUSH1 0x3 PUSH1 0x20 MSTORE PUSH1 0x40 SWAP1 KECCAK256 SLOAD PUSH1 0xFF AND JUMPDEST SWAP2 SWAP1 POP JUMP JUMPDEST CALLER PUSH1 0x0 SWAP1 DUP2 MSTORE PUSH1 0x2 PUSH1 0x20 MSTORE PUSH1 0x40 DUP2 KECCAK256 SLOAD ISZERO PUSH2 0x1B32 JUMPI PUSH1 0x40 MLOAD PUSH3 0x461BCD PUSH1 0xE5 SHL DUP2 MSTORE PUSH1 0x4 ADD PUSH2 0x495 SWAP1 PUSH2 0x3497 JUMP JUMPDEST PUSH1 0x0 DUP1 SLOAD PUSH1 0x1 SWAP1 DUP2 ADD DUP1 DUP4 SSTORE DUP1 DUP4 MSTORE PUSH1 0x20 DUP3 SWAP1 MSTORE PUSH1 0x40 DUP1 DUP5 KECCAK256 DUP3 DUP2 SSTORE SWAP3 DUP4 ADD DUP1 SLOAD PUSH1 0xFF NOT SWAP1 DUP2 AND SWAP1 SWAP2 SSTORE PUSH1 0x9 DUP5 ADD DUP1 SLOAD PUSH1 0x1 PUSH1 0x1 PUSH1 0xA0 SHL SUB PUSH32 0x0 SWAP1 DUP2 AND PUSH1 0x1 PUSH1 0x1 PUSH1 0xA0 SHL SUB NOT SWAP3 DUP4 AND OR SWAP1 SWAP3 SSTORE PUSH1 0xA DUP7 ADD DUP1 SLOAD SWAP1 SWAP2 AND CALLER OR SWAP1 SSTORE PUSH1 0x3 DUP6 ADD SWAP6 SWAP1 SWAP6 SSTORE PUSH1 0xD DUP5 ADD DUP1 SLOAD SWAP1 SWAP2 AND SWAP1 SSTORE MLOAD SWAP1 SWAP3 DUP4 SWAP2 PUSH32 0xC3E0F84839DC888C892A013D10C8F9D6DC05A21A879D0CE468CA558013E9121C SWAP2 PUSH2 0x1BEE SWAP2 PUSH2 0x2E59 JUMP JUMPDEST PUSH1 0x40 MLOAD DUP1 SWAP2 SUB SWAP1 LOG2 PUSH1 0x40 MLOAD CALLER SWAP1 DUP4 SWAP1 PUSH32 0xE8044CE09BEA382658274510D434F24DE1C52B3065EA1F196BF4253EC036D150 SWAP1 PUSH1 0x0 SWAP1 LOG3 PUSH2 0x1C2D DUP3 CALLER PUSH2 0x26BC JUMP JUMPDEST POP SWAP1 POP SWAP1 JUMP JUMPDEST PUSH1 0x7 DUP2 JUMP JUMPDEST PUSH1 0x1E DUP2 JUMP JUMPDEST PUSH32 0x0 SWAP1 JUMP JUMPDEST PUSH1 0x1 DUP2 JUMP JUMPDEST PUSH1 0x34 DUP2 JUMP JUMPDEST PUSH1 0x0 DUP2 DUP2 MSTORE PUSH1 0x1 PUSH1 0x20 MSTORE PUSH1 0x40 DUP2 KECCAK256 SLOAD DUP3 SWAP1 DUP2 EQ PUSH2 0x1C9A JUMPI PUSH1 0x40 MLOAD PUSH3 0x461BCD PUSH1 0xE5 SHL DUP2 MSTORE PUSH1 0x4 ADD PUSH2 0x495 SWAP1 PUSH2 0x32AD JUMP JUMPDEST POP POP PUSH1 0x0 SWAP1 DUP2 MSTORE PUSH1 0x1 PUSH1 0x20 MSTORE PUSH1 0x40 SWAP1 KECCAK256 PUSH1 0x3 ADD SLOAD SWAP1 JUMP JUMPDEST PUSH1 0x0 DUP2 DUP2 MSTORE PUSH1 0x1 PUSH1 0x20 MSTORE PUSH1 0x40 DUP2 KECCAK256 SLOAD DUP3 SWAP1 DUP2 EQ PUSH2 0x1CE0 JUMPI PUSH1 0x40 MLOAD PUSH3 0x461BCD PUSH1 0xE5 SHL DUP2 MSTORE PUSH1 0x4 ADD PUSH2 0x495 SWAP1 PUSH2 0x32AD JUMP JUMPDEST PUSH1 0x0 DUP4 DUP2 MSTORE PUSH1 0x1 PUSH1 0x20 MSTORE PUSH1 0x40 SWAP1 KECCAK256 PUSH1 0x2 PUSH1 0x1 DUP3 ADD SLOAD PUSH1 0xFF AND PUSH1 0x4 DUP2 GT ISZERO PUSH2 0x1D17 JUMPI PUSH4 0x4E487B71 PUSH1 0xE0 SHL PUSH1 0x0 MSTORE PUSH1 0x21 PUSH1 0x4 MSTORE PUSH1 0x24 PUSH1 0x0 REVERT JUMPDEST EQ PUSH2 0x1D26 JUMPI PUSH1 0x0 SWAP3 POP POP PUSH2 0x1254 JUMP JUMPDEST PUSH1 0x0 JUMPDEST PUSH1 0x2 DUP3 ADD SLOAD DUP2 LT ISZERO PUSH2 0x1DE3 JUMPI PUSH1 0x0 DUP3 PUSH1 0x2 ADD DUP3 DUP2 SLOAD DUP2 LT PUSH2 0x1D5A JUMPI PUSH4 0x4E487B71 PUSH1 0xE0 SHL PUSH1 0x0 MSTORE PUSH1 0x32 PUSH1 0x4 MSTORE PUSH1 0x24 PUSH1 0x0 REVERT JUMPDEST PUSH1 0x0 SWAP2 DUP3 MSTORE PUSH1 0x20 DUP1 DUP4 KECCAK256 SWAP1 SWAP2 ADD SLOAD PUSH1 0x1 PUSH1 0x1 PUSH1 0xA0 SHL SUB AND DUP1 DUP4 MSTORE PUSH1 0x4 DUP7 ADD SWAP1 SWAP2 MSTORE PUSH1 0x40 SWAP1 SWAP2 KECCAK256 SLOAD SWAP1 SWAP2 POP PUSH1 0xFF PUSH4 0x1000000 SWAP1 SWAP2 DIV AND ISZERO PUSH2 0x1D9A JUMPI POP PUSH2 0x1DD1 JUMP JUMPDEST PUSH1 0x8 DUP4 ADD SLOAD PUSH1 0x1 PUSH1 0x1 PUSH1 0xA0 SHL SUB DUP3 AND PUSH1 0x0 SWAP1 DUP2 MSTORE PUSH1 0x4 DUP6 ADD PUSH1 0x20 MSTORE PUSH1 0x40 SWAP1 KECCAK256 PUSH1 0x2 ADD SLOAD LT ISZERO PUSH2 0x1DCF JUMPI PUSH1 0x0 SWAP5 POP POP POP POP PUSH2 0x1254 JUMP JUMPDEST POP JUMPDEST DUP1 PUSH2 0x1DDB DUP2 PUSH2 0x36C8 JUMP JUMPDEST SWAP2 POP POP PUSH2 0x1D29 JUMP JUMPDEST POP PUSH1 0x1 SWAP5 SWAP4 POP POP POP POP JUMP JUMPDEST PUSH1 0x0 DUP2 DUP2 MSTORE PUSH1 0x1 PUSH1 0x20 MSTORE PUSH1 0x40 SWAP1 KECCAK256 SLOAD DUP2 SWAP1 DUP2 EQ PUSH2 0x1E1D JUMPI PUSH1 0x40 MLOAD PUSH3 0x461BCD PUSH1 0xE5 SHL DUP2 MSTORE PUSH1 0x4 ADD PUSH2 0x495 SWAP1 PUSH2 0x32AD JUMP JUMPDEST PUSH1 0x0 DUP3 DUP2 MSTORE PUSH1 0x1 PUSH1 0x20 SWAP1 DUP2 MSTORE PUSH1 0x40 DUP1 DUP4 KECCAK256 CALLER DUP5 MSTORE PUSH1 0x4 ADD SWAP1 SWAP2 MSTORE SWAP1 KECCAK256 SLOAD DUP3 SWAP1 PUSH1 0xFF AND PUSH2 0x1E5B JUMPI PUSH1 0x40 MLOAD PUSH3 0x461BCD PUSH1 0xE5 SHL DUP2 MSTORE PUSH1 0x4 ADD PUSH2 0x495 SWAP1 PUSH2 0x304A JUMP JUMPDEST PUSH1 0x0 DUP4 DUP2 MSTORE PUSH1 0x1 PUSH1 0x20 MSTORE PUSH1 0x40 SWAP1 KECCAK256 PUSH1 0xC ADD SLOAD DUP4 SWAP1 TIMESTAMP LT ISZERO PUSH2 0x1E8E JUMPI PUSH1 0x40 MLOAD PUSH3 0x461BCD PUSH1 0xE5 SHL DUP2 MSTORE PUSH1 0x4 ADD PUSH2 0x495 SWAP1 PUSH2 0x336E JUMP JUMPDEST PUSH1 0x0 DUP5 DUP2 MSTORE PUSH1 0x1 PUSH1 0x20 MSTORE PUSH1 0x40 SWAP1 KECCAK256 PUSH1 0xD ADD SLOAD DUP5 SWAP1 PUSH1 0xFF AND ISZERO PUSH2 0x1EC2 JUMPI PUSH1 0x40 MLOAD PUSH3 0x461BCD PUSH1 0xE5 SHL DUP2 MSTORE PUSH1 0x4 ADD PUSH2 0x495 SWAP1 PUSH2 0x34C2 JUMP JUMPDEST PUSH1 0x0 DUP6 DUP2 MSTORE PUSH1 0x1 PUSH1 0x20 SWAP1 DUP2 MSTORE PUSH1 0x40 DUP1 DUP4 KECCAK256 CALLER DUP5 MSTORE PUSH1 0x4 DUP2 ADD SWAP1 SWAP3 MSTORE SWAP1 SWAP2 KECCAK256 PUSH1 0x2 PUSH1 0x1 DUP4 ADD SLOAD PUSH1 0xFF AND PUSH1 0x4 DUP2 GT ISZERO PUSH2 0x1F09 JUMPI PUSH4 0x4E487B71 PUSH1 0xE0 SHL PUSH1 0x0 MSTORE PUSH1 0x21 PUSH1 0x4 MSTORE PUSH1 0x24 PUSH1 0x0 REVERT JUMPDEST EQ PUSH2 0x1F26 JUMPI PUSH1 0x40 MLOAD PUSH3 0x461BCD PUSH1 0xE5 SHL DUP2 MSTORE PUSH1 0x4 ADD PUSH2 0x495 SWAP1 PUSH2 0x3169 JUMP JUMPDEST DUP2 PUSH1 0xB ADD SLOAD TIMESTAMP LT PUSH2 0x1F49 JUMPI PUSH1 0x40 MLOAD PUSH3 0x461BCD PUSH1 0xE5 SHL DUP2 MSTORE PUSH1 0x4 ADD PUSH2 0x495 SWAP1 PUSH2 0x35AE JUMP JUMPDEST DUP1 SLOAD PUSH4 0x1000000 SWAP1 DIV PUSH1 0xFF AND ISZERO PUSH2 0x1F72 JUMPI PUSH1 0x40 MLOAD PUSH3 0x461BCD PUSH1 0xE5 SHL DUP2 MSTORE PUSH1 0x4 ADD PUSH2 0x495 SWAP1 PUSH2 0x346F JUMP JUMPDEST PUSH1 0x4 DUP2 ADD DUP1 SLOAD PUSH1 0x1 ADD SWAP1 SSTORE DUP1 SLOAD PUSH4 0xFF000000 NOT AND PUSH4 0x1000000 OR DUP2 SSTORE TIMESTAMP PUSH1 0x3 DUP1 DUP4 ADD SWAP2 SWAP1 SWAP2 SSTORE DUP3 ADD DUP1 SLOAD PUSH1 0x0 NOT ADD SWAP1 SSTORE PUSH1 0x40 MLOAD CALLER SWAP1 DUP9 SWAP1 PUSH1 0x0 DUP1 MLOAD PUSH1 0x20 PUSH2 0x373A DUP4 CODECOPY DUP2 MLOAD SWAP2 MSTORE SWAP1 PUSH2 0x1FC5 SWAP1 PUSH1 0x0 SWAP1 PUSH2 0x3202 JUMP JUMPDEST PUSH1 0x40 MLOAD DUP1 SWAP2 SUB SWAP1 LOG3 DUP2 PUSH1 0x3 ADD SLOAD PUSH1 0x1 EQ ISZERO PUSH2 0x1FFC JUMPI PUSH1 0x0 PUSH2 0x1FE5 DUP9 PUSH2 0x27A6 JUMP JUMPDEST SWAP1 POP PUSH2 0x1FF0 DUP9 PUSH2 0x2667 JUMP JUMPDEST PUSH2 0x1FFA DUP9 DUP3 PUSH2 0x2856 JUMP JUMPDEST POP JUMPDEST POP POP POP POP POP POP POP JUMP JUMPDEST PUSH2 0x12C DUP2 JUMP JUMPDEST PUSH1 0x0 DUP2 DUP2 MSTORE PUSH1 0x1 PUSH1 0x20 MSTORE PUSH1 0x40 SWAP1 KECCAK256 SLOAD DUP2 SWAP1 DUP2 EQ PUSH2 0x203A JUMPI PUSH1 0x40 MLOAD PUSH3 0x461BCD PUSH1 0xE5 SHL DUP2 MSTORE PUSH1 0x4 ADD PUSH2 0x495 SWAP1 PUSH2 0x32AD JUMP JUMPDEST PUSH1 0x0 DUP3 DUP2 MSTORE PUSH1 0x1 PUSH1 0x20 MSTORE PUSH1 0x40 SWAP1 KECCAK256 PUSH1 0xD ADD SLOAD DUP3 SWAP1 PUSH1 0xFF AND ISZERO PUSH2 0x206E JUMPI PUSH1 0x40 MLOAD PUSH3 0x461BCD PUSH1 0xE5 SHL DUP2 MSTORE PUSH1 0x4 ADD PUSH2 0x495 SWAP1 PUSH2 0x34C2 JUMP JUMPDEST PUSH1 0x0 DUP4 DUP2 MSTORE PUSH1 0x1 PUSH1 0x20 MSTORE PUSH1 0x40 SWAP1 KECCAK256 PUSH1 0xA DUP2 ADD SLOAD PUSH1 0x1 PUSH1 0x1 PUSH1 0xA0 SHL SUB AND CALLER EQ PUSH2 0x20A8 JUMPI PUSH1 0x40 MLOAD PUSH3 0x461BCD PUSH1 0xE5 SHL DUP2 MSTORE PUSH1 0x4 ADD PUSH2 0x495 SWAP1 PUSH2 0x3013 JUMP JUMPDEST PUSH1 0x0 PUSH2 0x889 JUMP JUMPDEST PUSH1 0x0 DUP2 DUP2 MSTORE PUSH1 0x1 PUSH1 0x20 MSTORE PUSH1 0x40 SWAP1 KECCAK256 SLOAD DUP2 SWAP1 DUP2 EQ PUSH2 0x20DE JUMPI PUSH1 0x40 MLOAD PUSH3 0x461BCD PUSH1 0xE5 SHL DUP2 MSTORE PUSH1 0x4 ADD PUSH2 0x495 SWAP1 PUSH2 0x32AD JUMP JUMPDEST PUSH1 0x0 DUP3 DUP2 MSTORE PUSH1 0x1 PUSH1 0x20 MSTORE PUSH1 0x40 SWAP1 KECCAK256 PUSH1 0xD ADD SLOAD DUP3 SWAP1 PUSH1 0xFF AND ISZERO PUSH2 0x2112 JUMPI PUSH1 0x40 MLOAD PUSH3 0x461BCD PUSH1 0xE5 SHL DUP2 MSTORE PUSH1 0x4 ADD PUSH2 0x495 SWAP1 PUSH2 0x34C2 JUMP JUMPDEST PUSH1 0x0 DUP4 DUP2 MSTORE PUSH1 0x1 PUSH1 0x20 MSTORE PUSH1 0x40 DUP2 KECCAK256 SWAP1 PUSH1 0x1 DUP3 ADD SLOAD PUSH1 0xFF AND PUSH1 0x4 DUP2 GT ISZERO PUSH2 0x2148 JUMPI PUSH4 0x4E487B71 PUSH1 0xE0 SHL PUSH1 0x0 MSTORE PUSH1 0x21 PUSH1 0x4 MSTORE PUSH1 0x24 PUSH1 0x0 REVERT JUMPDEST EQ PUSH2 0x2165 JUMPI PUSH1 0x40 MLOAD PUSH3 0x461BCD PUSH1 0xE5 SHL DUP2 MSTORE PUSH1 0x4 ADD PUSH2 0x495 SWAP1 PUSH2 0x31CB JUMP JUMPDEST PUSH1 0x2 DUP2 ADD SLOAD PUSH1 0x5 GT PUSH2 0x2189 JUMPI PUSH1 0x40 MLOAD PUSH3 0x461BCD PUSH1 0xE5 SHL DUP2 MSTORE PUSH1 0x4 ADD PUSH2 0x495 SWAP1 PUSH2 0x3324 JUMP JUMPDEST CALLER PUSH1 0x0 SWAP1 DUP2 MSTORE PUSH1 0x2 PUSH1 0x20 MSTORE PUSH1 0x40 SWAP1 KECCAK256 SLOAD ISZERO PUSH2 0x21B6 JUMPI PUSH1 0x40 MLOAD PUSH3 0x461BCD PUSH1 0xE5 SHL DUP2 MSTORE PUSH1 0x4 ADD PUSH2 0x495 SWAP1 PUSH2 0x3497 JUMP JUMPDEST PUSH1 0x2 DUP1 DUP3 ADD DUP1 SLOAD PUSH1 0x1 DUP2 DUP2 ADD DUP4 SSTORE PUSH1 0x0 SWAP3 DUP4 MSTORE PUSH1 0x20 DUP1 DUP5 KECCAK256 SWAP1 SWAP3 ADD DUP1 SLOAD PUSH1 0x1 PUSH1 0x1 PUSH1 0xA0 SHL SUB NOT AND CALLER SWAP1 DUP2 OR SWAP1 SWAP2 SSTORE DUP1 DUP5 MSTORE PUSH1 0x4 DUP1 DUP8 ADD DUP5 MSTORE PUSH1 0x40 DUP1 DUP7 KECCAK256 DUP1 SLOAD PUSH1 0xFF NOT AND DUP6 OR DUP2 SSTORE PUSH1 0x19 DUP2 DUP7 ADD SSTORE TIMESTAMP PUSH1 0x3 DUP1 DUP4 ADD SWAP2 SWAP1 SWAP2 SSTORE SWAP3 DUP2 ADD DUP8 SWAP1 SSTORE SWAP7 SWAP1 SWAP5 MSTORE SWAP4 DUP4 SWAP1 KECCAK256 DUP10 SWAP1 SSTORE SWAP3 DUP6 ADD DUP1 SLOAD SWAP1 SWAP2 ADD SWAP1 SSTORE MLOAD DUP7 SWAP2 PUSH32 0x87969BC7FAF902221A147B95CEBA76E011C5EFB0339A0A8EE7A2BB82D9CFBBD6 SWAP2 PUSH2 0x2257 SWAP2 SWAP1 PUSH2 0x2E59 JUMP JUMPDEST PUSH1 0x40 MLOAD DUP1 SWAP2 SUB SWAP1 LOG2 POP POP POP POP POP JUMP JUMPDEST PUSH1 0x19 DUP2 JUMP JUMPDEST PUSH1 0x0 DUP2 DUP2 MSTORE PUSH1 0x1 PUSH1 0x20 MSTORE PUSH1 0x40 DUP2 KECCAK256 SWAP1 PUSH2 0x2288 SWAP1 PUSH1 0x5 DUP4 ADD SWAP1 PUSH2 0x2D3E JUMP JUMPDEST PUSH1 0x40 DUP1 MLOAD PUSH1 0x34 DUP1 DUP3 MSTORE PUSH2 0x6A0 DUP3 ADD SWAP1 SWAP3 MSTORE PUSH1 0x0 SWAP2 DUP2 PUSH1 0x20 ADD JUMPDEST PUSH2 0x22A9 PUSH2 0x2D5F JUMP JUMPDEST DUP2 MSTORE PUSH1 0x20 ADD SWAP1 PUSH1 0x1 SWAP1 SUB SWAP1 DUP2 PUSH2 0x22A1 JUMPI SWAP1 POP POP SWAP1 POP PUSH1 0x0 DUP1 JUMPDEST PUSH1 0x4 DUP2 PUSH1 0xFF AND LT ISZERO PUSH2 0x2359 JUMPI PUSH1 0x2 JUMPDEST PUSH1 0xE DUP2 PUSH1 0xFF AND GT PUSH2 0x2346 JUMPI PUSH1 0x40 MLOAD DUP1 PUSH1 0x40 ADD PUSH1 0x40 MSTORE DUP1 DUP3 PUSH1 0xFF AND DUP2 MSTORE PUSH1 0x20 ADD DUP4 PUSH1 0xFF AND DUP2 MSTORE POP DUP5 DUP5 PUSH1 0xFF AND DUP2 MLOAD DUP2 LT PUSH2 0x231A JUMPI PUSH4 0x4E487B71 PUSH1 0xE0 SHL PUSH1 0x0 MSTORE PUSH1 0x32 PUSH1 0x4 MSTORE PUSH1 0x24 PUSH1 0x0 REVERT JUMPDEST PUSH1 0x20 MUL PUSH1 0x20 ADD ADD DUP2 SWAP1 MSTORE POP DUP3 DUP1 PUSH2 0x2330 SWAP1 PUSH2 0x36E3 JUMP JUMPDEST SWAP4 POP POP DUP1 DUP1 PUSH2 0x233E SWAP1 PUSH2 0x36E3 JUMP JUMPDEST SWAP2 POP POP PUSH2 0x22D1 JUMP JUMPDEST POP DUP1 PUSH2 0x2351 DUP2 PUSH2 0x36E3 JUMP JUMPDEST SWAP2 POP POP PUSH2 0x22C2 JUMP JUMPDEST POP PUSH1 0x0 PUSH2 0x2365 DUP4 PUSH2 0x28F2 JUMP JUMPDEST SWAP1 POP PUSH1 0x0 JUMPDEST PUSH1 0x34 DUP2 LT ISZERO PUSH2 0x23F3 JUMPI DUP5 PUSH1 0x5 ADD DUP3 DUP3 DUP2 MLOAD DUP2 LT PUSH2 0x2397 JUMPI PUSH4 0x4E487B71 PUSH1 0xE0 SHL PUSH1 0x0 MSTORE PUSH1 0x32 PUSH1 0x4 MSTORE PUSH1 0x24 PUSH1 0x0 REVERT JUMPDEST PUSH1 0x20 SWAP1 DUP2 MUL SWAP2 SWAP1 SWAP2 ADD DUP2 ADD MLOAD DUP3 SLOAD PUSH1 0x1 DUP2 ADD DUP5 SSTORE PUSH1 0x0 SWAP4 DUP5 MSTORE SWAP3 DUP3 SWAP1 KECCAK256 DUP2 MLOAD SWAP4 ADD DUP1 SLOAD SWAP2 SWAP1 SWAP3 ADD MLOAD PUSH1 0xFF SWAP1 DUP2 AND PUSH2 0x100 MUL PUSH2 0xFF00 NOT SWAP2 SWAP1 SWAP5 AND PUSH1 0xFF NOT SWAP1 SWAP3 AND SWAP2 SWAP1 SWAP2 OR AND SWAP2 SWAP1 SWAP2 OR SWAP1 SSTORE DUP1 PUSH2 0x23EB DUP2 PUSH2 0x36C8 JUMP JUMPDEST SWAP2 POP POP PUSH2 0x236A JUMP JUMPDEST POP POP POP POP POP POP JUMP JUMPDEST PUSH1 0x0 DUP2 DUP2 MSTORE PUSH1 0x1 PUSH1 0x20 MSTORE PUSH1 0x40 SWAP1 KECCAK256 PUSH2 0x2412 DUP3 PUSH2 0x2A1C JUMP JUMPDEST PUSH1 0x0 JUMPDEST PUSH1 0x2 DUP3 ADD SLOAD DUP2 LT ISZERO PUSH2 0x24A7 JUMPI PUSH1 0x0 DUP3 PUSH1 0x2 ADD DUP3 DUP2 SLOAD DUP2 LT PUSH2 0x2446 JUMPI PUSH4 0x4E487B71 PUSH1 0xE0 SHL PUSH1 0x0 MSTORE PUSH1 0x32 PUSH1 0x4 MSTORE PUSH1 0x24 PUSH1 0x0 REVERT JUMPDEST PUSH1 0x0 SWAP2 DUP3 MSTORE PUSH1 0x20 DUP1 DUP4 KECCAK256 SWAP2 SWAP1 SWAP2 ADD SLOAD PUSH1 0x1 PUSH1 0x1 PUSH1 0xA0 SHL SUB AND DUP1 DUP4 MSTORE PUSH1 0x4 DUP7 ADD SWAP1 SWAP2 MSTORE PUSH1 0x40 SWAP1 SWAP2 KECCAK256 DUP1 SLOAD PUSH5 0xFF00000000 NOT AND PUSH5 0x100000000 PUSH1 0xFF DUP7 AND MUL OR SWAP1 SSTORE SWAP1 POP DUP2 PUSH2 0x2492 DUP6 DUP3 PUSH2 0x264B JUMP JUMPDEST POP POP DUP1 DUP1 PUSH2 0x249F SWAP1 PUSH2 0x36C8 JUMP JUMPDEST SWAP2 POP POP PUSH2 0x2415 JUMP JUMPDEST POP POP POP JUMP JUMPDEST PUSH1 0x0 DUP3 DUP2 MSTORE PUSH1 0x1 PUSH1 0x20 MSTORE PUSH1 0x40 SWAP1 KECCAK256 PUSH1 0x6 ADD SLOAD PUSH2 0x24C8 SWAP1 DUP3 PUSH2 0x2A39 JUMP JUMPDEST PUSH1 0x0 SWAP3 DUP4 MSTORE PUSH1 0x1 PUSH1 0x20 MSTORE PUSH1 0x40 SWAP1 SWAP3 KECCAK256 PUSH1 0x6 ADD SWAP2 SWAP1 SWAP2 SSTORE POP JUMP JUMPDEST PUSH1 0x0 DUP2 DUP2 MSTORE PUSH1 0x1 PUSH1 0x20 SWAP1 DUP2 MSTORE PUSH1 0x40 DUP1 DUP4 KECCAK256 DUP2 MLOAD PUSH1 0x34 DUP1 DUP3 MSTORE PUSH2 0x6A0 DUP3 ADD SWAP1 SWAP4 MSTORE SWAP1 SWAP3 DUP5 SWAP3 SWAP1 DUP3 ADD PUSH2 0x680 DUP1 CALLDATASIZE DUP4 CALLDATACOPY ADD SWAP1 POP POP SWAP1 POP PUSH1 0x0 DUP1 JUMPDEST PUSH1 0x5 DUP5 ADD SLOAD PUSH1 0xFF DUP3 AND LT ISZERO PUSH2 0x258D JUMPI PUSH2 0x2532 DUP7 DUP3 PUSH2 0x2628 JUMP JUMPDEST PUSH2 0x257B JUMPI DUP1 DUP4 DUP4 PUSH2 0xFFFF AND DUP2 MLOAD DUP2 LT PUSH2 0x255B JUMPI PUSH4 0x4E487B71 PUSH1 0xE0 SHL PUSH1 0x0 MSTORE PUSH1 0x32 PUSH1 0x4 MSTORE PUSH1 0x24 PUSH1 0x0 REVERT JUMPDEST PUSH1 0xFF SWAP1 SWAP3 AND PUSH1 0x20 SWAP3 DUP4 MUL SWAP2 SWAP1 SWAP2 ADD SWAP1 SWAP2 ADD MSTORE DUP2 PUSH2 0x2577 DUP2 PUSH2 0x36A6 JUMP JUMPDEST SWAP3 POP POP JUMPDEST DUP1 PUSH2 0x2585 DUP2 PUSH2 0x36E3 JUMP JUMPDEST SWAP2 POP POP PUSH2 0x2519 JUMP JUMPDEST POP PUSH1 0x0 DUP2 PUSH2 0xFFFF AND GT PUSH2 0x25B2 JUMPI PUSH1 0x40 MLOAD PUSH3 0x461BCD PUSH1 0xE5 SHL DUP2 MSTORE PUSH1 0x4 ADD PUSH2 0x495 SWAP1 PUSH2 0x3194 JUMP JUMPDEST PUSH1 0x0 DUP2 PUSH2 0xFFFF AND DIFFICULTY TIMESTAMP PUSH1 0x40 MLOAD PUSH1 0x20 ADD PUSH2 0x25CC SWAP3 SWAP2 SWAP1 PUSH2 0x2E4B JUMP JUMPDEST PUSH1 0x40 MLOAD PUSH1 0x20 DUP2 DUP4 SUB SUB DUP2 MSTORE SWAP1 PUSH1 0x40 MSTORE DUP1 MLOAD SWAP1 PUSH1 0x20 ADD KECCAK256 PUSH1 0x0 SHR PUSH2 0x25EF SWAP2 SWAP1 PUSH2 0x3703 JUMP JUMPDEST SWAP1 POP DUP3 DUP2 PUSH2 0xFFFF AND DUP2 MLOAD DUP2 LT PUSH2 0x2615 JUMPI PUSH4 0x4E487B71 PUSH1 0xE0 SHL PUSH1 0x0 MSTORE PUSH1 0x32 PUSH1 0x4 MSTORE PUSH1 0x24 PUSH1 0x0 REVERT JUMPDEST PUSH1 0x20 MUL PUSH1 0x20 ADD ADD MLOAD SWAP5 POP POP POP POP POP SWAP2 SWAP1 POP JUMP JUMPDEST PUSH1 0x0 DUP3 DUP2 MSTORE PUSH1 0x1 PUSH1 0x20 MSTORE PUSH1 0x40 DUP2 KECCAK256 PUSH1 0x6 ADD SLOAD PUSH2 0x2644 SWAP1 DUP4 PUSH2 0x2A47 JUMP JUMPDEST SWAP4 SWAP3 POP POP POP JUMP JUMPDEST PUSH1 0x0 DUP3 DUP2 MSTORE PUSH1 0x1 PUSH1 0x20 MSTORE PUSH1 0x40 SWAP1 KECCAK256 PUSH1 0x6 ADD SLOAD PUSH2 0x24C8 SWAP1 DUP3 PUSH2 0x2A56 JUMP JUMPDEST PUSH1 0x0 DUP2 DUP2 MSTORE PUSH1 0x1 PUSH1 0x20 DUP2 SWAP1 MSTORE PUSH1 0x40 DUP1 DUP4 KECCAK256 SWAP2 DUP3 ADD DUP1 SLOAD PUSH1 0xFF NOT AND PUSH1 0x3 OR SWAP1 SSTORE MLOAD SWAP1 SWAP2 DUP4 SWAP2 PUSH32 0xCFEAA304021CFD684AD30C51A76FFD4139EB4B36C6E97D94CCE4DF46B71EE977 SWAP2 SWAP1 LOG2 PUSH2 0x26B8 DUP3 PUSH2 0x2A63 JUMP JUMPDEST POP POP JUMP JUMPDEST PUSH1 0x0 DUP3 DUP2 MSTORE PUSH1 0x1 PUSH1 0x20 SWAP1 DUP2 MSTORE PUSH1 0x40 DUP1 DUP4 KECCAK256 PUSH1 0x1 PUSH1 0x1 PUSH1 0xA0 SHL SUB DUP6 AND DUP5 MSTORE PUSH1 0x2 SWAP1 SWAP3 MSTORE SWAP1 SWAP2 KECCAK256 SLOAD ISZERO PUSH2 0x26ED JUMPI POP PUSH2 0x26B8 JUMP JUMPDEST PUSH1 0x2 DUP2 DUP2 ADD DUP1 SLOAD PUSH1 0x1 DUP1 DUP3 ADD DUP4 SSTORE PUSH1 0x0 SWAP3 DUP4 MSTORE PUSH1 0x20 DUP1 DUP5 KECCAK256 SWAP1 SWAP3 ADD DUP1 SLOAD PUSH1 0x1 PUSH1 0x1 PUSH1 0xA0 SHL SUB NOT AND PUSH1 0x1 PUSH1 0x1 PUSH1 0xA0 SHL SUB DUP9 AND SWAP1 DUP2 OR SWAP1 SWAP2 SSTORE DUP4 MSTORE PUSH1 0x4 DUP1 DUP7 ADD DUP4 MSTORE PUSH1 0x40 DUP1 DUP6 KECCAK256 DUP1 SLOAD PUSH1 0xFF NOT AND DUP5 OR DUP2 SSTORE PUSH1 0x19 DUP2 DUP6 ADD SSTORE TIMESTAMP PUSH1 0x3 DUP1 DUP4 ADD SWAP2 SWAP1 SWAP2 SSTORE SWAP3 DUP2 ADD DUP7 SWAP1 SSTORE SWAP6 SWAP1 SWAP4 MSTORE SWAP3 DUP3 SWAP1 KECCAK256 DUP8 SWAP1 SSTORE SWAP2 DUP5 ADD DUP1 SLOAD SWAP1 SWAP3 ADD SWAP1 SWAP2 SSTORE MLOAD DUP5 SWAP1 PUSH32 0x87969BC7FAF902221A147B95CEBA76E011C5EFB0339A0A8EE7A2BB82D9CFBBD6 SWAP1 PUSH2 0x2798 SWAP1 DUP7 SWAP1 PUSH2 0x2E59 JUMP JUMPDEST PUSH1 0x40 MLOAD DUP1 SWAP2 SUB SWAP1 LOG2 POP POP POP POP JUMP JUMPDEST PUSH1 0x0 DUP2 DUP2 MSTORE PUSH1 0x1 PUSH1 0x20 MSTORE PUSH1 0x40 DUP2 KECCAK256 DUP2 JUMPDEST PUSH1 0x2 DUP3 ADD SLOAD DUP2 LT ISZERO PUSH2 0x283D JUMPI PUSH1 0x0 DUP3 PUSH1 0x2 ADD DUP3 DUP2 SLOAD DUP2 LT PUSH2 0x27E7 JUMPI PUSH4 0x4E487B71 PUSH1 0xE0 SHL PUSH1 0x0 MSTORE PUSH1 0x32 PUSH1 0x4 MSTORE PUSH1 0x24 PUSH1 0x0 REVERT JUMPDEST PUSH1 0x0 SWAP2 DUP3 MSTORE PUSH1 0x20 DUP1 DUP4 KECCAK256 SWAP1 SWAP2 ADD SLOAD PUSH1 0x1 PUSH1 0x1 PUSH1 0xA0 SHL SUB AND DUP1 DUP4 MSTORE PUSH1 0x4 DUP7 ADD SWAP1 SWAP2 MSTORE PUSH1 0x40 SWAP1 SWAP2 KECCAK256 SLOAD SWAP1 SWAP2 POP PUSH1 0xFF PUSH4 0x1000000 SWAP1 SWAP2 DIV AND PUSH2 0x282A JUMPI SWAP3 POP PUSH2 0x1B00 SWAP2 POP POP JUMP JUMPDEST POP DUP1 PUSH2 0x2835 DUP2 PUSH2 0x36C8 JUMP JUMPDEST SWAP2 POP POP PUSH2 0x27B6 JUMP JUMPDEST POP PUSH1 0x40 MLOAD PUSH3 0x461BCD PUSH1 0xE5 SHL DUP2 MSTORE PUSH1 0x4 ADD PUSH2 0x495 SWAP1 PUSH2 0x2FDC JUMP JUMPDEST PUSH1 0x0 DUP3 DUP2 MSTORE PUSH1 0x1 PUSH1 0x20 DUP2 DUP2 MSTORE PUSH1 0x40 DUP1 DUP5 KECCAK256 PUSH1 0x7 DUP2 ADD DUP1 SLOAD PUSH1 0x1 PUSH1 0x1 PUSH1 0xA0 SHL SUB DUP9 AND DUP8 MSTORE PUSH1 0x4 DUP1 DUP5 ADD SWAP1 SWAP6 MSTORE SWAP6 DUP4 SWAP1 KECCAK256 DUP6 ADD DUP1 SLOAD SWAP1 SWAP7 ADD SWAP1 SWAP6 SSTORE SWAP3 DUP4 ADD DUP1 SLOAD PUSH1 0xFF NOT AND SWAP1 SWAP3 OR SWAP1 SWAP2 SSTORE SWAP2 SLOAD SWAP2 MLOAD SWAP1 SWAP2 SWAP1 DUP5 SWAP1 PUSH32 0xF1898DE79C348962FAB7695532341027E5BCEB0EA2A8785790FA7D7EFEEEE129 SWAP1 PUSH2 0x28D6 SWAP1 DUP7 SWAP1 DUP6 SWAP1 PUSH2 0x2E6D JUMP JUMPDEST PUSH1 0x40 MLOAD DUP1 SWAP2 SUB SWAP1 LOG2 POP PUSH1 0x0 PUSH1 0x7 DUP3 ADD DUP2 SWAP1 SSTORE PUSH1 0x8 SWAP1 SWAP2 ADD SSTORE POP POP JUMP JUMPDEST PUSH1 0x60 DIFFICULTY PUSH1 0x0 PUSH2 0x2903 PUSH1 0x1 PUSH1 0x34 PUSH2 0x366C JUMP JUMPDEST PUSH1 0xFF AND SWAP1 POP JUMPDEST DUP1 ISZERO PUSH2 0x2A14 JUMPI PUSH1 0x0 PUSH2 0x291C DUP3 PUSH1 0x1 PUSH2 0x363D JUMP JUMPDEST DUP4 DUP4 PUSH1 0x40 MLOAD PUSH1 0x20 ADD PUSH2 0x292F SWAP3 SWAP2 SWAP1 PUSH2 0x2E4B JUMP JUMPDEST PUSH1 0x40 MLOAD PUSH1 0x20 DUP2 DUP4 SUB SUB DUP2 MSTORE SWAP1 PUSH1 0x40 MSTORE DUP1 MLOAD SWAP1 PUSH1 0x20 ADD KECCAK256 PUSH1 0x0 SHR PUSH2 0x2952 SWAP2 SWAP1 PUSH2 0x3703 JUMP JUMPDEST SWAP1 POP PUSH1 0x0 DUP6 DUP4 DUP2 MLOAD DUP2 LT PUSH2 0x2976 JUMPI PUSH4 0x4E487B71 PUSH1 0xE0 SHL PUSH1 0x0 MSTORE PUSH1 0x32 PUSH1 0x4 MSTORE PUSH1 0x24 PUSH1 0x0 REVERT JUMPDEST PUSH1 0x20 MUL PUSH1 0x20 ADD ADD MLOAD SWAP1 POP DUP6 DUP3 DUP2 MLOAD DUP2 LT PUSH2 0x29A0 JUMPI PUSH4 0x4E487B71 PUSH1 0xE0 SHL PUSH1 0x0 MSTORE PUSH1 0x32 PUSH1 0x4 MSTORE PUSH1 0x24 PUSH1 0x0 REVERT JUMPDEST PUSH1 0x20 MUL PUSH1 0x20 ADD ADD MLOAD DUP7 DUP5 DUP2 MLOAD DUP2 LT PUSH2 0x29C8 JUMPI PUSH4 0x4E487B71 PUSH1 0xE0 SHL PUSH1 0x0 MSTORE PUSH1 0x32 PUSH1 0x4 MSTORE PUSH1 0x24 PUSH1 0x0 REVERT JUMPDEST PUSH1 0x20 MUL PUSH1 0x20 ADD ADD DUP2 SWAP1 MSTORE POP DUP1 DUP7 DUP4 DUP2 MLOAD DUP2 LT PUSH2 0x29F4 JUMPI PUSH4 0x4E487B71 PUSH1 0xE0 SHL PUSH1 0x0 MSTORE PUSH1 0x32 PUSH1 0x4 MSTORE PUSH1 0x24 PUSH1 0x0 REVERT JUMPDEST PUSH1 0x20 MUL PUSH1 0x20 ADD ADD DUP2 SWAP1 MSTORE POP POP POP DUP1 DUP1 PUSH2 0x2A0C SWAP1 PUSH2 0x368F JUMP JUMPDEST SWAP2 POP POP PUSH2 0x2909 JUMP JUMPDEST POP SWAP2 SWAP3 SWAP2 POP POP JUMP JUMPDEST PUSH2 0x2A24 PUSH2 0x2BD2 JUMP JUMPDEST PUSH1 0x0 SWAP2 DUP3 MSTORE PUSH1 0x1 PUSH1 0x20 MSTORE PUSH1 0x40 SWAP1 SWAP2 KECCAK256 PUSH1 0x6 ADD SSTORE JUMP JUMPDEST PUSH1 0x1 PUSH1 0xFF SWAP2 SWAP1 SWAP2 AND SHL NOT AND SWAP1 JUMP JUMPDEST PUSH1 0x1 PUSH1 0xFF SWAP2 SWAP1 SWAP2 AND SHL AND ISZERO ISZERO SWAP1 JUMP JUMPDEST PUSH1 0x1 PUSH1 0xFF SWAP2 SWAP1 SWAP2 AND SHL OR SWAP1 JUMP JUMPDEST PUSH1 0x0 DUP2 DUP2 MSTORE PUSH1 0x1 PUSH1 0x20 MSTORE PUSH1 0x40 DUP2 KECCAK256 SWAP1 PUSH2 0x2A7B DUP4 PUSH2 0x2BD7 JUMP JUMPDEST SWAP1 POP PUSH1 0x0 JUMPDEST PUSH1 0x2 DUP4 ADD SLOAD DUP2 LT ISZERO PUSH2 0x2BC7 JUMPI PUSH1 0x0 DUP4 PUSH1 0x2 ADD DUP3 DUP2 SLOAD DUP2 LT PUSH2 0x2AB1 JUMPI PUSH4 0x4E487B71 PUSH1 0xE0 SHL PUSH1 0x0 MSTORE PUSH1 0x32 PUSH1 0x4 MSTORE PUSH1 0x24 PUSH1 0x0 REVERT JUMPDEST PUSH1 0x0 SWAP2 DUP3 MSTORE PUSH1 0x20 DUP1 DUP4 KECCAK256 SWAP1 SWAP2 ADD SLOAD PUSH1 0x1 PUSH1 0x1 PUSH1 0xA0 SHL SUB AND DUP1 DUP4 MSTORE PUSH1 0x4 DUP8 ADD SWAP1 SWAP2 MSTORE PUSH1 0x40 SWAP1 SWAP2 KECCAK256 SLOAD SWAP1 SWAP2 POP PUSH1 0xFF PUSH4 0x1000000 SWAP1 SWAP2 DIV AND ISZERO PUSH2 0x2AF1 JUMPI POP PUSH2 0x2BB5 JUMP JUMPDEST PUSH1 0x1 PUSH1 0x1 PUSH1 0xA0 SHL SUB DUP2 AND PUSH1 0x0 SWAP1 DUP2 MSTORE PUSH1 0x4 DUP6 ADD PUSH1 0x20 MSTORE PUSH1 0x40 DUP2 KECCAK256 SLOAD PUSH1 0x5 DUP7 ADD DUP1 SLOAD PUSH5 0x100000000 SWAP1 SWAP3 DIV PUSH1 0xFF AND SWAP3 SWAP2 DUP4 SWAP1 DUP2 LT PUSH2 0x2B3E JUMPI PUSH4 0x4E487B71 PUSH1 0xE0 SHL PUSH1 0x0 MSTORE PUSH1 0x32 PUSH1 0x4 MSTORE PUSH1 0x24 PUSH1 0x0 REVERT JUMPDEST PUSH1 0x0 SWAP2 DUP3 MSTORE PUSH1 0x20 SWAP2 DUP3 SWAP1 KECCAK256 PUSH1 0x40 DUP1 MLOAD DUP1 DUP3 ADD DUP3 MSTORE SWAP3 SWAP1 SWAP2 ADD SLOAD PUSH1 0xFF DUP1 DUP3 AND DUP1 DUP6 MSTORE PUSH2 0x100 SWAP1 SWAP3 DIV AND SWAP4 DUP4 ADD DUP5 SWAP1 MSTORE SWAP1 MLOAD SWAP2 SWAP4 POP PUSH1 0x1 PUSH1 0x1 PUSH1 0xA0 SHL SUB DUP7 AND SWAP3 PUSH32 0xBDF2F0687B7C6F0B8DDE29A86969BA9A1E60CE7D560DC87E0BC637AEAD3A8C1C SWAP3 PUSH2 0x2BA9 SWAP3 SWAP2 SWAP1 PUSH2 0x3629 JUMP JUMPDEST PUSH1 0x40 MLOAD DUP1 SWAP2 SUB SWAP1 LOG2 POP POP POP JUMPDEST DUP1 PUSH2 0x2BBF DUP2 PUSH2 0x36C8 JUMP JUMPDEST SWAP2 POP POP PUSH2 0x2A80 JUMP JUMPDEST POP PUSH2 0x24A7 DUP4 DUP3 PUSH2 0x2856 JUMP JUMPDEST PUSH1 0x0 SWAP1 JUMP JUMPDEST PUSH1 0x0 DUP2 DUP2 MSTORE PUSH1 0x1 PUSH1 0x20 MSTORE PUSH1 0x40 DUP2 KECCAK256 DUP2 DUP1 DUP1 DUP1 JUMPDEST PUSH1 0x2 DUP6 ADD SLOAD DUP2 LT ISZERO PUSH2 0x2D33 JUMPI PUSH1 0x0 DUP6 PUSH1 0x2 ADD DUP3 DUP2 SLOAD DUP2 LT PUSH2 0x2C1B JUMPI PUSH4 0x4E487B71 PUSH1 0xE0 SHL PUSH1 0x0 MSTORE PUSH1 0x32 PUSH1 0x4 MSTORE PUSH1 0x24 PUSH1 0x0 REVERT JUMPDEST PUSH1 0x0 SWAP2 DUP3 MSTORE PUSH1 0x20 DUP1 DUP4 KECCAK256 SWAP1 SWAP2 ADD SLOAD PUSH1 0x1 PUSH1 0x1 PUSH1 0xA0 SHL SUB AND DUP1 DUP4 MSTORE PUSH1 0x4 DUP10 ADD SWAP1 SWAP2 MSTORE PUSH1 0x40 SWAP1 SWAP2 KECCAK256 SLOAD SWAP1 SWAP2 POP PUSH1 0xFF PUSH4 0x1000000 SWAP1 SWAP2 DIV AND ISZERO PUSH2 0x2C5B JUMPI POP PUSH2 0x2D21 JUMP JUMPDEST PUSH1 0x1 PUSH1 0x1 PUSH1 0xA0 SHL SUB DUP2 AND PUSH1 0x0 SWAP1 DUP2 MSTORE PUSH1 0x4 DUP8 ADD PUSH1 0x20 MSTORE PUSH1 0x40 DUP2 KECCAK256 SLOAD PUSH1 0x5 DUP9 ADD DUP1 SLOAD PUSH5 0x100000000 SWAP1 SWAP3 DIV PUSH1 0xFF AND SWAP3 SWAP2 DUP4 SWAP1 DUP2 LT PUSH2 0x2CA8 JUMPI PUSH4 0x4E487B71 PUSH1 0xE0 SHL PUSH1 0x0 MSTORE PUSH1 0x32 PUSH1 0x4 MSTORE PUSH1 0x24 PUSH1 0x0 REVERT JUMPDEST PUSH1 0x0 SWAP2 DUP3 MSTORE PUSH1 0x20 SWAP2 DUP3 SWAP1 KECCAK256 PUSH1 0x40 DUP1 MLOAD DUP1 DUP3 ADD SWAP1 SWAP2 MSTORE SWAP2 ADD SLOAD PUSH1 0xFF DUP1 DUP3 AND DUP1 DUP5 MSTORE PUSH2 0x100 SWAP1 SWAP3 DIV DUP2 AND SWAP4 DUP4 ADD SWAP4 SWAP1 SWAP4 MSTORE SWAP1 SWAP3 POP SWAP1 DUP8 AND LT DUP1 PUSH2 0x2D06 JUMPI POP DUP6 PUSH1 0xFF AND DUP2 PUSH1 0x0 ADD MLOAD PUSH1 0xFF AND EQ DUP1 ISZERO PUSH2 0x2D06 JUMPI POP DUP5 PUSH1 0xFF AND DUP2 PUSH1 0x20 ADD MLOAD PUSH1 0xFF AND GT JUMPDEST ISZERO PUSH2 0x2D1D JUMPI DUP1 PUSH1 0x0 ADD MLOAD SWAP6 POP DUP1 PUSH1 0x20 ADD MLOAD SWAP5 POP DUP3 SWAP7 POP JUMPDEST POP POP POP JUMPDEST DUP1 PUSH2 0x2D2B DUP2 PUSH2 0x36C8 JUMP JUMPDEST SWAP2 POP POP PUSH2 0x2BEA JUMP JUMPDEST POP SWAP2 SWAP6 SWAP5 POP POP POP POP POP JUMP JUMPDEST POP DUP1 SLOAD PUSH1 0x0 DUP3 SSTORE SWAP1 PUSH1 0x0 MSTORE PUSH1 0x20 PUSH1 0x0 KECCAK256 SWAP1 DUP2 ADD SWAP1 PUSH2 0x2D5C SWAP2 SWAP1 PUSH2 0x2D76 JUMP JUMPDEST POP JUMP JUMPDEST PUSH1 0x40 DUP1 MLOAD DUP1 DUP3 ADD SWAP1 SWAP2 MSTORE PUSH1 0x0 DUP1 DUP3 MSTORE PUSH1 0x20 DUP3 ADD MSTORE SWAP1 JUMP JUMPDEST JUMPDEST DUP1 DUP3 GT ISZERO PUSH2 0x2D90 JUMPI DUP1 SLOAD PUSH2 0xFFFF NOT AND DUP2 SSTORE PUSH1 0x1 ADD PUSH2 0x2D77 JUMP JUMPDEST POP SWAP1 JUMP JUMPDEST DUP1 CALLDATALOAD PUSH1 0x1 PUSH1 0x1 PUSH1 0xA0 SHL SUB DUP2 AND DUP2 EQ PUSH2 0x1B00 JUMPI PUSH1 0x0 DUP1 REVERT JUMPDEST PUSH1 0x0 PUSH1 0x20 DUP3 DUP5 SUB SLT ISZERO PUSH2 0x2DBC JUMPI DUP1 DUP2 REVERT JUMPDEST PUSH2 0x2644 DUP3 PUSH2 0x2D94 JUMP JUMPDEST PUSH1 0x0 PUSH1 0x20 DUP3 DUP5 SUB SLT ISZERO PUSH2 0x2DD6 JUMPI DUP1 DUP2 REVERT JUMPDEST POP CALLDATALOAD SWAP2 SWAP1 POP JUMP JUMPDEST PUSH1 0x0 DUP1 PUSH1 0x40 DUP4 DUP6 SUB SLT ISZERO PUSH2 0x2DEF JUMPI DUP1 DUP2 REVERT JUMPDEST DUP3 CALLDATALOAD SWAP2 POP PUSH2 0x2DFF PUSH1 0x20 DUP5 ADD PUSH2 0x2D94 JUMP JUMPDEST SWAP1 POP SWAP3 POP SWAP3 SWAP1 POP JUMP JUMPDEST PUSH1 0x0 DUP1 PUSH1 0x40 DUP4 DUP6 SUB SLT ISZERO PUSH2 0x2E1A JUMPI DUP2 DUP3 REVERT JUMPDEST POP POP DUP1 CALLDATALOAD SWAP3 PUSH1 0x20 SWAP1 SWAP2 ADD CALLDATALOAD SWAP2 POP JUMP JUMPDEST PUSH1 0x5 DUP2 LT PUSH2 0x2E47 JUMPI PUSH4 0x4E487B71 PUSH1 0xE0 SHL PUSH1 0x0 MSTORE PUSH1 0x21 PUSH1 0x4 MSTORE PUSH1 0x24 PUSH1 0x0 REVERT JUMPDEST SWAP1 MSTORE JUMP JUMPDEST SWAP2 DUP3 MSTORE PUSH1 0x20 DUP3 ADD MSTORE PUSH1 0x40 ADD SWAP1 JUMP JUMPDEST PUSH1 0x1 PUSH1 0x1 PUSH1 0xA0 SHL SUB SWAP2 SWAP1 SWAP2 AND DUP2 MSTORE PUSH1 0x20 ADD SWAP1 JUMP JUMPDEST PUSH1 0x1 PUSH1 0x1 PUSH1 0xA0 SHL SUB SWAP3 SWAP1 SWAP3 AND DUP3 MSTORE PUSH1 0x20 DUP3 ADD MSTORE PUSH1 0x40 ADD SWAP1 JUMP JUMPDEST PUSH1 0x20 DUP1 DUP3 MSTORE DUP3 MLOAD DUP3 DUP3 ADD DUP2 SWAP1 MSTORE PUSH1 0x0 SWAP2 SWAP1 DUP5 DUP3 ADD SWAP1 PUSH1 0x40 DUP6 ADD SWAP1 DUP5 JUMPDEST DUP2 DUP2 LT ISZERO PUSH2 0x2EC7 JUMPI DUP4 MLOAD PUSH1 0x1 PUSH1 0x1 PUSH1 0xA0 SHL SUB AND DUP4 MSTORE SWAP3 DUP5 ADD SWAP3 SWAP2 DUP5 ADD SWAP2 PUSH1 0x1 ADD PUSH2 0x2EA2 JUMP JUMPDEST POP SWAP1 SWAP7 SWAP6 POP POP POP POP POP POP JUMP JUMPDEST SWAP1 ISZERO ISZERO DUP2 MSTORE PUSH1 0x20 ADD SWAP1 JUMP JUMPDEST SWAP6 ISZERO ISZERO DUP7 MSTORE SWAP4 ISZERO ISZERO PUSH1 0x20 DUP7 ADD MSTORE SWAP2 ISZERO ISZERO PUSH1 0x40 DUP6 ADD MSTORE ISZERO ISZERO PUSH1 0x60 DUP5 ADD MSTORE PUSH1 0x80 DUP4 ADD MSTORE PUSH1 0xA0 DUP3 ADD MSTORE PUSH1 0xC0 ADD SWAP1 JUMP JUMPDEST PUSH1 0x40 DUP2 ADD PUSH2 0x2F18 DUP3 DUP6 PUSH2 0x2E29 JUMP JUMPDEST PUSH2 0x2644 PUSH1 0x20 DUP4 ADD DUP5 PUSH2 0x2E29 JUMP JUMPDEST PUSH2 0x120 DUP2 ADD PUSH2 0x2F34 DUP3 DUP13 PUSH2 0x2E29 JUMP JUMPDEST PUSH1 0x20 DUP3 ADD SWAP10 SWAP1 SWAP10 MSTORE PUSH1 0x40 DUP2 ADD SWAP8 SWAP1 SWAP8 MSTORE PUSH1 0x60 DUP8 ADD SWAP6 SWAP1 SWAP6 MSTORE PUSH1 0x80 DUP7 ADD SWAP4 SWAP1 SWAP4 MSTORE PUSH1 0xA0 DUP6 ADD SWAP2 SWAP1 SWAP2 MSTORE PUSH1 0xC0 DUP5 ADD MSTORE PUSH1 0xE0 DUP4 ADD MSTORE PUSH1 0x1 PUSH1 0x1 PUSH1 0xA0 SHL SUB AND PUSH2 0x100 SWAP1 SWAP2 ADD MSTORE SWAP2 SWAP1 POP JUMP JUMPDEST PUSH1 0x20 DUP1 DUP3 MSTORE PUSH1 0x18 SWAP1 DUP3 ADD MSTORE PUSH32 0x416C726561647920757365642073776170206F7074696F6E0000000000000000 PUSH1 0x40 DUP3 ADD MSTORE PUSH1 0x60 ADD SWAP1 JUMP JUMPDEST PUSH1 0x20 DUP1 DUP3 MSTORE PUSH1 0x10 SWAP1 DUP3 ADD MSTORE PUSH16 0x1419595AC81C1A185CD948195B991959 PUSH1 0x82 SHL PUSH1 0x40 DUP3 ADD MSTORE PUSH1 0x60 ADD SWAP1 JUMP JUMPDEST PUSH1 0x20 DUP1 DUP3 MSTORE PUSH1 0x17 SWAP1 DUP3 ADD MSTORE PUSH32 0x4E6F2061637469766520706C617965727320666F756E64000000000000000000 PUSH1 0x40 DUP3 ADD MSTORE PUSH1 0x60 ADD SWAP1 JUMP JUMPDEST PUSH1 0x20 DUP1 DUP3 MSTORE PUSH1 0x1B SWAP1 DUP3 ADD MSTORE PUSH32 0x4F6E6C792063726561746F722063616E2073746172742067616D650000000000 PUSH1 0x40 DUP3 ADD MSTORE PUSH1 0x60 ADD SWAP1 JUMP JUMPDEST PUSH1 0x20 DUP1 DUP3 MSTORE PUSH1 0x11 SWAP1 DUP3 ADD MSTORE PUSH17 0x2737BA1030B1BA34BB3290383630BCB2B9 PUSH1 0x79 SHL PUSH1 0x40 DUP3 ADD MSTORE PUSH1 0x60 ADD SWAP1 JUMP JUMPDEST PUSH1 0x20 DUP1 DUP3 MSTORE PUSH1 0x12 SWAP1 DUP3 ADD MSTORE PUSH18 0x496E73756666696369656E74206368697073 PUSH1 0x70 SHL PUSH1 0x40 DUP3 ADD MSTORE PUSH1 0x60 ADD SWAP1 JUMP JUMPDEST PUSH1 0x20 DUP1 DUP3 MSTORE PUSH1 0xA SWAP1 DUP3 ADD MSTORE PUSH10 0x2737BA1035B2B2B832B9 PUSH1 0xB1 SHL PUSH1 0x40 DUP3 ADD MSTORE PUSH1 0x60 ADD SWAP1 JUMP JUMPDEST PUSH1 0x20 DUP1 DUP3 MSTORE PUSH1 0x2B SWAP1 DUP3 ADD MSTORE PUSH32 0x43726561746F722063616E2774206C656176652067616D652077697468206F74 PUSH1 0x40 DUP3 ADD MSTORE PUSH11 0x68657220706C6179657273 PUSH1 0xA8 SHL PUSH1 0x60 DUP3 ADD MSTORE PUSH1 0x80 ADD SWAP1 JUMP JUMPDEST PUSH1 0x20 DUP1 DUP3 MSTORE PUSH1 0x16 SWAP1 DUP3 ADD MSTORE PUSH22 0x135D5CDD081B585D18DA0818DD5C9C995B9D0818995D PUSH1 0x52 SHL PUSH1 0x40 DUP3 ADD MSTORE PUSH1 0x60 ADD SWAP1 JUMP JUMPDEST PUSH1 0x20 DUP1 DUP3 MSTORE PUSH1 0xF SWAP1 DUP3 ADD MSTORE PUSH15 0x4E65656420322B20706C6179657273 PUSH1 0x88 SHL PUSH1 0x40 DUP3 ADD MSTORE PUSH1 0x60 ADD SWAP1 JUMP JUMPDEST PUSH1 0x20 DUP1 DUP3 MSTORE PUSH1 0x11 SWAP1 DUP3 ADD MSTORE PUSH17 0x4E6F742062657474696E67207068617365 PUSH1 0x78 SHL PUSH1 0x40 DUP3 ADD MSTORE PUSH1 0x60 ADD SWAP1 JUMP JUMPDEST PUSH1 0x20 DUP1 DUP3 MSTORE PUSH1 0x1B SWAP1 DUP3 ADD MSTORE PUSH32 0x4E6F20617661696C61626C6520636172647320666F7220737761700000000000 PUSH1 0x40 DUP3 ADD MSTORE PUSH1 0x60 ADD SWAP1 JUMP JUMPDEST PUSH1 0x20 DUP1 DUP3 MSTORE PUSH1 0x18 SWAP1 DUP3 ADD MSTORE PUSH32 0x47616D652068617320616C726561647920737461727465640000000000000000 PUSH1 0x40 DUP3 ADD MSTORE PUSH1 0x60 ADD SWAP1 JUMP JUMPDEST PUSH1 0x40 DUP1 DUP3 MSTORE PUSH1 0x4 SWAP1 DUP3 ADD MSTORE PUSH4 0x199BDB19 PUSH1 0xE2 SHL PUSH1 0x60 DUP3 ADD MSTORE PUSH1 0x20 DUP2 ADD SWAP2 SWAP1 SWAP2 MSTORE PUSH1 0x80 ADD SWAP1 JUMP JUMPDEST PUSH1 0x20 DUP1 DUP3 MSTORE PUSH1 0x17 SWAP1 DUP3 ADD MSTORE PUSH32 0x4D757374207065656B2061742063617264206669727374000000000000000000 PUSH1 0x40 DUP3 ADD MSTORE PUSH1 0x60 ADD SWAP1 JUMP JUMPDEST PUSH1 0x40 DUP1 DUP3 MSTORE PUSH1 0x4 SWAP1 DUP3 ADD MSTORE PUSH4 0x7377617 PUSH1 0xE4 SHL PUSH1 0x60 DUP3 ADD MSTORE PUSH1 0x20 DUP2 ADD SWAP2 SWAP1 SWAP2 MSTORE PUSH1 0x80 ADD SWAP1 JUMP JUMPDEST PUSH1 0x20 DUP1 DUP3 MSTORE PUSH1 0xE SWAP1 DUP3 ADD MSTORE PUSH14 0x4E6F74207065656B207068617365 PUSH1 0x90 SHL PUSH1 0x40 DUP3 ADD MSTORE PUSH1 0x60 ADD SWAP1 JUMP JUMPDEST PUSH1 0x20 DUP1 DUP3 MSTORE PUSH1 0xE SWAP1 DUP3 ADD MSTORE PUSH14 0x11D85B59481B9BDD08199BDD5B99 PUSH1 0x92 SHL PUSH1 0x40 DUP3 ADD MSTORE PUSH1 0x60 ADD SWAP1 JUMP JUMPDEST PUSH1 0x20 DUP1 DUP3 MSTORE PUSH1 0x10 SWAP1 DUP3 ADD MSTORE PUSH16 0x4E6F7420696E20746869732067616D65 PUSH1 0x80 SHL PUSH1 0x40 DUP3 ADD MSTORE PUSH1 0x60 ADD SWAP1 JUMP JUMPDEST PUSH1 0x40 DUP1 DUP3 MSTORE PUSH1 0x3 SWAP1 DUP3 ADD MSTORE PUSH3 0x18995D PUSH1 0xEA SHL PUSH1 0x60 DUP3 ADD MSTORE PUSH1 0x20 DUP2 ADD SWAP2 SWAP1 SWAP2 MSTORE PUSH1 0x80 ADD SWAP1 JUMP JUMPDEST PUSH1 0x20 DUP1 DUP3 MSTORE PUSH1 0x9 SWAP1 DUP3 ADD MSTORE PUSH9 0x11D85B5948199D5B1B PUSH1 0xBA SHL PUSH1 0x40 DUP3 ADD MSTORE PUSH1 0x60 ADD SWAP1 JUMP JUMPDEST PUSH1 0x40 DUP1 DUP3 MSTORE PUSH1 0x5 SWAP1 DUP3 ADD MSTORE PUSH5 0x6C65617665 PUSH1 0xD8 SHL PUSH1 0x60 DUP3 ADD MSTORE PUSH1 0x20 DUP2 ADD SWAP2 SWAP1 SWAP2 MSTORE PUSH1 0x80 ADD SWAP1 JUMP JUMPDEST PUSH1 0x20 DUP1 DUP3 MSTORE PUSH1 0x10 SWAP1 DUP3 ADD MSTORE PUSH16 0x125B88189D5999995C881C195C9A5BD9 PUSH1 0x82 SHL PUSH1 0x40 DUP3 ADD MSTORE PUSH1 0x60 ADD SWAP1 JUMP JUMPDEST PUSH1 0x20 DUP1 DUP3 MSTORE PUSH1 0x9 SWAP1 DUP3 ADD MSTORE PUSH9 0x2737BA1037BBB732B9 PUSH1 0xB9 SHL PUSH1 0x40 DUP3 ADD MSTORE PUSH1 0x60 ADD SWAP1 JUMP JUMPDEST PUSH1 0x20 DUP1 DUP3 MSTORE PUSH1 0xD SWAP1 DUP3 ADD MSTORE PUSH13 0x10995D081D1BDBC81CDB585B1B PUSH1 0x9A SHL PUSH1 0x40 DUP3 ADD MSTORE PUSH1 0x60 ADD SWAP1 JUMP JUMPDEST PUSH1 0x20 DUP1 DUP3 MSTORE PUSH1 0x1A SWAP1 DUP3 ADD MSTORE PUSH32 0x42657474696E67207068617365206E6F742066696E6973686564000000000000 PUSH1 0x40 DUP3 ADD MSTORE PUSH1 0x60 ADD SWAP1 JUMP JUMPDEST PUSH1 0x20 DUP1 DUP3 MSTORE PUSH1 0x16 SWAP1 DUP3 ADD MSTORE PUSH22 0x92DCECC2D8D2C840DCCAEE40C6C2E4C840D2DCC8CAF PUSH1 0x53 SHL PUSH1 0x40 DUP3 ADD MSTORE PUSH1 0x60 ADD SWAP1 JUMP JUMPDEST PUSH1 0x40 DUP1 DUP3 MSTORE PUSH1 0x4 SWAP1 DUP3 ADD MSTORE PUSH4 0x7065656B PUSH1 0xE0 SHL PUSH1 0x60 DUP3 ADD MSTORE PUSH1 0x20 DUP2 ADD SWAP2 SWAP1 SWAP2 MSTORE PUSH1 0x80 ADD SWAP1 JUMP JUMPDEST PUSH1 0x20 DUP1 DUP3 MSTORE PUSH1 0xE SWAP1 DUP3 ADD MSTORE PUSH14 0x105B1C9958591E48199BDB191959 PUSH1 0x92 SHL PUSH1 0x40 DUP3 ADD MSTORE PUSH1 0x60 ADD SWAP1 JUMP JUMPDEST PUSH1 0x20 DUP1 DUP3 MSTORE PUSH1 0x11 SWAP1 DUP3 ADD MSTORE PUSH17 0x416C726561647920696E20612067616D65 PUSH1 0x78 SHL PUSH1 0x40 DUP3 ADD MSTORE PUSH1 0x60 ADD SWAP1 JUMP JUMPDEST PUSH1 0x20 DUP1 DUP3 MSTORE PUSH1 0x17 SWAP1 DUP3 ADD MSTORE PUSH32 0x47616D6520616C726561647920636C65616E6564207570000000000000000000 PUSH1 0x40 DUP3 ADD MSTORE PUSH1 0x60 ADD SWAP1 JUMP JUMPDEST PUSH1 0x20 DUP1 DUP3 MSTORE PUSH1 0xE SWAP1 DUP3 ADD MSTORE PUSH14 0x105B1C9958591E481C19595AD959 PUSH1 0x92 SHL PUSH1 0x40 DUP3 ADD MSTORE PUSH1 0x60 ADD SWAP1 JUMP JUMPDEST PUSH1 0x20 DUP1 DUP3 MSTORE PUSH1 0x19 SWAP1 DUP3 ADD MSTORE PUSH32 0x4E6577206361726420616C72656164792061737369676E656400000000000000 PUSH1 0x40 DUP3 ADD MSTORE PUSH1 0x60 ADD SWAP1 JUMP JUMPDEST PUSH1 0x20 DUP1 DUP3 MSTORE PUSH1 0x14 SWAP1 DUP3 ADD MSTORE PUSH20 0x11D85B5948185B1C9958591E481CDD185C9D1959 PUSH1 0x62 SHL PUSH1 0x40 DUP3 ADD MSTORE PUSH1 0x60 ADD SWAP1 JUMP JUMPDEST PUSH1 0x20 DUP1 DUP3 MSTORE PUSH1 0xE SWAP1 DUP3 ADD MSTORE PUSH14 0x11D85B59481B9BDD08195B991959 PUSH1 0x92 SHL PUSH1 0x40 DUP3 ADD MSTORE PUSH1 0x60 ADD SWAP1 JUMP JUMPDEST PUSH1 0x20 DUP1 DUP3 MSTORE PUSH1 0x13 SWAP1 DUP3 ADD MSTORE PUSH19 0x10995D1D1A5B99C81C1A185CD948195B991959 PUSH1 0x6A SHL PUSH1 0x40 DUP3 ADD MSTORE PUSH1 0x60 ADD SWAP1 JUMP JUMPDEST PUSH1 0x20 DUP1 DUP3 MSTORE PUSH1 0x17 SWAP1 DUP3 ADD MSTORE PUSH32 0x5065656B207068617365206E6F742066696E6973686564000000000000000000 PUSH1 0x40 DUP3 ADD MSTORE PUSH1 0x60 ADD SWAP1 JUMP JUMPDEST SWAP1 DUP2 MSTORE PUSH1 0x20 ADD SWAP1 JUMP JUMPDEST PUSH1 0xFF SWAP2 SWAP1 SWAP2 AND DUP2 MSTORE PUSH1 0x20 ADD SWAP1 JUMP JUMPDEST PUSH1 0xFF SWAP3 DUP4 AND DUP2 MSTORE SWAP2 AND PUSH1 0x20 DUP3 ADD MSTORE PUSH1 0x40 ADD SWAP1 JUMP JUMPDEST PUSH1 0x0 DUP3 NOT DUP3 GT ISZERO PUSH2 0x3650 JUMPI PUSH2 0x3650 PUSH2 0x3723 JUMP JUMPDEST POP ADD SWAP1 JUMP JUMPDEST PUSH1 0x0 DUP3 DUP3 LT ISZERO PUSH2 0x3667 JUMPI PUSH2 0x3667 PUSH2 0x3723 JUMP JUMPDEST POP SUB SWAP1 JUMP JUMPDEST PUSH1 0x0 PUSH1 0xFF DUP3 AND PUSH1 0xFF DUP5 AND DUP1 DUP3 LT ISZERO PUSH2 0x3686 JUMPI PUSH2 0x3686 PUSH2 0x3723 JUMP JUMPDEST SWAP1 SUB SWAP4 SWAP3 POP POP POP JUMP JUMPDEST PUSH1 0x0 DUP2 PUSH2 0x369E JUMPI PUSH2 0x369E PUSH2 0x3723 JUMP JUMPDEST POP PUSH1 0x0 NOT ADD SWAP1 JUMP JUMPDEST PUSH1 0x0 PUSH2 0xFFFF DUP1 DUP4 AND DUP2 DUP2 EQ ISZERO PUSH2 0x36BE JUMPI PUSH2 0x36BE PUSH2 0x3723 JUMP JUMPDEST PUSH1 0x1 ADD SWAP4 SWAP3 POP POP POP JUMP JUMPDEST PUSH1 0x0 PUSH1 0x0 NOT DUP3 EQ ISZERO PUSH2 0x36DC JUMPI PUSH2 0x36DC PUSH2 0x3723 JUMP JUMPDEST POP PUSH1 0x1 ADD SWAP1 JUMP JUMPDEST PUSH1 0x0 PUSH1 0xFF DUP3 AND PUSH1 0xFF DUP2 EQ ISZERO PUSH2 0x36FA JUMPI PUSH2 0x36FA PUSH2 0x3723 JUMP JUMPDEST PUSH1 0x1 ADD SWAP3 SWAP2 POP POP JUMP JUMPDEST PUSH1 0x0 DUP3 PUSH2 0x371E JUMPI PUSH4 0x4E487B71 PUSH1 0xE0 SHL DUP2 MSTORE PUSH1 0x12 PUSH1 0x4 MSTORE PUSH1 0x24 DUP2 REVERT JUMPDEST POP MOD SWAP1 JUMP JUMPDEST PUSH4 0x4E487B71 PUSH1 0xE0 SHL PUSH1 0x0 MSTORE PUSH1 0x11 PUSH1 0x4 MSTORE PUSH1 0x24 PUSH1 0x0 REVERT INVALID RETURN 0xD4 CREATE2 PUSH31 0x5AAE06B4017C0B2ED81F62AA6F19DEEF046D6A78AD2A4223858C4F0A26469 PUSH17 0x6673582212209CE1C46DD9C314A5AB1CC2 SWAP6 ISZERO 0xDC SWAP5 SELFBALANCE 0xD7 SWAP1 0xCE 0xAB 0xC7 DUP2 0xB1 CHAINID 0xB1 PUSH21 0xDC23FC4C3EFF64736F6C6343000800003300000000 "},"methodIdentifiers":{"BETTING_PHASE_DURATION()":"c493153a","INITIAL_CHIPS()":"fc2217c4","MAX_PLAYERS()":"4411b3eb","MINIMUM_BET()":"935aae40","PEEK_FEE()":"5d27e072","PEEK_PHASE_DURATION()":"00028e6e","PHASE_TRANSITION_BUFFER()":"83c309b8","STANDARD_DECK_SIZE()":"9c861bc5","SWAP_FEE()":"768aebde","addKeeper(address)":"4032b72b","checkAllPlayersMatched(uint256)":"ba3a9520","cleanup(uint256)":"0aa40018","createGame()":"7255d729","currentGameId()":"536a3ddc","endBettingPhase(uint256)":"30be62b2","endPeekPhase(uint256)":"09734764","fold(uint256)":"bff7a00b","getActivePlayerCount(uint256)":"a410274c","getActivePlayers(uint256)":"342ed956","getGameInfo(uint256)":"47e1d550","getPlayerInfo(uint256,address)":"3ccd10e9","getPlayers(uint256)":"460e2049","isKeeper(address)":"6ba42aaa","joinGame(uint256)":"efaa55a0","leaveGame(uint256)":"3feef58a","owner()":"8da5cb5b","peekAtCard(uint256)":"318ff5d1","placeBet(uint256,uint256)":"4afe62b5","playerCurrentGame(address)":"3a5ff200","removeKeeper(address)":"14ae9f2e","startGame(uint256)":"e5ed1d59","startPeekPhase(uint256)":"1f452a08","swapCard(uint256)":"26502648"}}}}}