{"contracts/vanilla/PokerCardLibrary.sol":{"CardLibrary":{"abi":[{"inputs":[],"name":"STANDARD_DECK_SIZE","outputs":[{"internalType":"uint8","name":"","type":"uint8"}],"stateMutability":"view","type":"function"}],"evm":{"bytecode":{"linkReferences":{},"object":"609b610038600b82828239805160001a607314602b57634e487b7160e01b600052600060045260246000fd5b30600052607381538281f3fe730000000000000000000000000000000000000000301460806040526004361060335760003560e01c80639c861bc5146038575b600080fd5b603e6052565b604051604991906057565b60405180910390f35b603481565b60ff9190911681526020019056fea2646970667358221220c45f5b1ff11d136ac1f14f4873adbd3e492c14be544128819d11b1a036db8c6b64736f6c63430008000033","opcodes":"PUSH1 0x9B PUSH2 0x38 PUSH1 0xB DUP3 DUP3 DUP3 CODECOPY DUP1 MLOAD PUSH1 0x0 BYTE PUSH1 0x73 EQ PUSH1 0x2B JUMPI PUSH4 0x4E487B71 PUSH1 0xE0 SHL PUSH1 0x0 MSTORE PUSH1 0x0 PUSH1 0x4 MSTORE PUSH1 0x24 PUSH1 0x0 REVERT JUMPDEST ADDRESS PUSH1 0x0 MSTORE PUSH1 0x73 DUP2 MSTORE8 DUP3 DUP2 RETURN INVALID PUSH20 0x0 ADDRESS EQ PUSH1 0x80 PUSH1 0x40 MSTORE PUSH1 0x4 CALLDATASIZE LT PUSH1 0x33 JUMPI PUSH1 0x0 CALLDATALOAD PUSH1 0xE0 SHR DUP1 PUSH4 0x9C861BC5 EQ PUSH1 0x38 JUMPI JUMPDEST PUSH1 0x0 DUP1 REVERT JUMPDEST PUSH1 0x3E PUSH1 0x52 JUMP JUMPDEST PUSH1 0x40 MLOAD PUSH1 0x49 SWAP2 SWAP1 PUSH1 0x57 JUMP JUMPDEST PUSH1 0x40 MLOAD DUP1 SWAP2 SUB SWAP1 RETURN JUMPDEST PUSH1 0x34 DUP2 JUMP JUMPDEST PUSH1 0xFF SWAP2 SWAP1 SWAP2 AND DUP2 MSTORE PUSH1 0x20 ADD SWAP1 JUMP INVALID LOG2 PUSH5 0x6970667358 0x22 SLT KECCAK256 0xC4 0x5F JUMPDEST 0x1F CALL SAR SGT PUSH11 0xC1F14F4873ADBD3E492C14 0xBE SLOAD COINBASE 0x28 DUP2 SWAP14 GT 0xB1 LOG0 CALLDATASIZE 0xDB DUP13 PUSH12 0x64736F6C6343000800003300 "},"methodIdentifiers":{"STANDARD_DECK_SIZE()":"9c861bc5"}}}}}