{"contracts/OneCard.sol":{"OneCard":{"abi":[{"inputs":[],"stateMutability":"nonpayable","type":"constructor"},{"anonymous":false,"inputs":[{"indexed":true,"internalType":"uint256","name":"gameId","type":"uint256"}],"name":"BettingPhaseStarted","type":"event"},{"anonymous":false,"inputs":[{"indexed":true,"internalType":"uint256","name":"gameId","type":"uint256"},{"indexed":false,"internalType":"enum GameLibrary.GameState","name":"currentState","type":"uint8"},{"indexed":false,"internalType":"enum GameLibrary.GameState","name":"nextState","type":"uint8"}],"name":"BufferPeriodStarted","type":"event"},{"anonymous":false,"inputs":[{"indexed":true,"internalType":"address","name":"player","type":"address"},{"indexed":false,"internalType":"uint8","name":"value","type":"uint8"},{"indexed":false,"internalType":"uint8","name":"suit","type":"uint8"}],"name":"CardRevealed","type":"event"},{"anonymous":false,"inputs":[{"indexed":true,"internalType":"uint256","name":"gameId","type":"uint256"},{"indexed":false,"internalType":"address","name":"keeper","type":"address"}],"name":"GameCreated","type":"event"},{"anonymous":false,"inputs":[{"indexed":true,"internalType":"uint256","name":"gameId","type":"uint256"},{"indexed":true,"internalType":"address","name":"winner","type":"address"},{"indexed":false,"internalType":"uint256","name":"potAmount","type":"uint256"}],"name":"GameEnded","type":"event"},{"anonymous":false,"inputs":[{"indexed":true,"internalType":"uint256","name":"gameId","type":"uint256"}],"name":"GameNoLongerSpectatable","type":"event"},{"anonymous":false,"inputs":[{"indexed":true,"internalType":"uint256","name":"gameId","type":"uint256"},{"indexed":false,"internalType":"enum GameLibrary.GameState","name":"state","type":"uint8"},{"indexed":false,"internalType":"uint256","name":"playerCount","type":"uint256"}],"name":"GameSpectatable","type":"event"},{"anonymous":false,"inputs":[{"indexed":true,"internalType":"uint256","name":"gameId","type":"uint256"},{"indexed":false,"internalType":"enum GameLibrary.GameState","name":"state","type":"uint8"},{"indexed":false,"internalType":"uint256","name":"potAmount","type":"uint256"},{"indexed":false,"internalType":"uint256","name":"currentBet","type":"uint256"},{"indexed":false,"internalType":"uint256","name":"stateVersion","type":"uint256"}],"name":"GameStateUpdated","type":"event"},{"anonymous":false,"inputs":[{"indexed":true,"internalType":"address","name":"player","type":"address"},{"indexed":false,"internalType":"uint8[]","name":"values","type":"uint8[]"},{"indexed":false,"internalType":"uint8[]","name":"suits","type":"uint8[]"}],"name":"MontyHallCardsRevealed","type":"event"},{"anonymous":false,"inputs":[{"indexed":true,"internalType":"address","name":"player","type":"address"},{"indexed":false,"internalType":"uint8","name":"oldValue","type":"uint8"},{"indexed":false,"internalType":"uint8","name":"oldSuit","type":"uint8"},{"indexed":false,"internalType":"uint8","name":"newValue","type":"uint8"},{"indexed":false,"internalType":"uint8","name":"newSuit","type":"uint8"}],"name":"MontyHallSwapResult","type":"event"},{"anonymous":false,"inputs":[{"indexed":true,"internalType":"uint256","name":"gameId","type":"uint256"}],"name":"PeekPhaseStarted","type":"event"},{"anonymous":false,"inputs":[{"indexed":true,"internalType":"uint256","name":"gameId","type":"uint256"},{"indexed":true,"internalType":"address","name":"player","type":"address"},{"indexed":false,"internalType":"string","name":"action","type":"string"},{"indexed":false,"internalType":"uint256","name":"amount","type":"uint256"},{"indexed":false,"internalType":"uint256","name":"nonce","type":"uint256"}],"name":"PlayerAction","type":"event"},{"anonymous":false,"inputs":[{"indexed":true,"internalType":"uint256","name":"gameId","type":"uint256"},{"indexed":true,"internalType":"address","name":"player","type":"address"}],"name":"PlayerJoined","type":"event"},{"anonymous":false,"inputs":[{"indexed":false,"internalType":"address[]","name":"players","type":"address[]"}],"name":"PlayersRemovedFromWhitelist","type":"event"},{"anonymous":false,"inputs":[{"indexed":false,"internalType":"address[]","name":"players","type":"address[]"}],"name":"PlayersWhitelisted","type":"event"},{"anonymous":false,"inputs":[{"indexed":true,"internalType":"uint256","name":"gameId","type":"uint256"}],"name":"ShowdownStarted","type":"event"},{"inputs":[{"internalType":"address","name":"keeper","type":"address"}],"name":"addKeeper","outputs":[],"stateMutability":"nonpayable","type":"function"},{"inputs":[{"internalType":"address[]","name":"players","type":"address[]"}],"name":"addMultipleToWhitelist","outputs":[],"stateMutability":"nonpayable","type":"function"},{"inputs":[{"internalType":"uint256","name":"gameId","type":"uint256"},{"internalType":"address","name":"player","type":"address"}],"name":"addPlayerToGame","outputs":[],"stateMutability":"nonpayable","type":"function"},{"inputs":[{"internalType":"uint256","name":"gameId","type":"uint256"}],"name":"checkAllPlayersMatched","outputs":[{"internalType":"bool","name":"","type":"bool"}],"stateMutability":"view","type":"function"},{"inputs":[{"internalType":"uint256","name":"gameId","type":"uint256"}],"name":"cleanup","outputs":[],"stateMutability":"nonpayable","type":"function"},{"inputs":[],"name":"createGame","outputs":[{"internalType":"uint256","name":"","type":"uint256"}],"stateMutability":"nonpayable","type":"function"},{"inputs":[{"internalType":"uint256","name":"gameId","type":"uint256"}],"name":"endBettingPhase","outputs":[],"stateMutability":"nonpayable","type":"function"},{"inputs":[{"internalType":"uint256","name":"gameId","type":"uint256"}],"name":"endPeekPhase","outputs":[],"stateMutability":"nonpayable","type":"function"},{"inputs":[{"internalType":"uint256","name":"gameId","type":"uint256"}],"name":"fold","outputs":[],"stateMutability":"nonpayable","type":"function"},{"inputs":[],"name":"getActiveGames","outputs":[{"internalType":"uint256[]","name":"","type":"uint256[]"}],"stateMutability":"view","type":"function"},{"inputs":[{"internalType":"uint256","name":"gameId","type":"uint256"}],"name":"getActivePlayerCount","outputs":[{"internalType":"uint256","name":"","type":"uint256"}],"stateMutability":"view","type":"function"},{"inputs":[{"internalType":"uint256","name":"gameId","type":"uint256"}],"name":"getActivePlayers","outputs":[{"internalType":"address[]","name":"activePlayers","type":"address[]"}],"stateMutability":"view","type":"function"},{"inputs":[{"internalType":"uint256","name":"gameId","type":"uint256"}],"name":"getGameBasicInfo","outputs":[{"internalType":"enum GameLibrary.GameState","name":"state","type":"uint8"},{"internalType":"uint256","name":"potAmount","type":"uint256"},{"internalType":"uint256","name":"currentBet","type":"uint256"},{"internalType":"uint256","name":"phaseEndTime","type":"uint256"},{"internalType":"uint256","name":"bufferEndTime","type":"uint256"},{"internalType":"uint256","name":"playerCount","type":"uint256"},{"internalType":"uint256","name":"activeCount","type":"uint256"},{"internalType":"uint256","name":"stateVersion","type":"uint256"},{"internalType":"bool","name":"isCleanedUp","type":"bool"}],"stateMutability":"view","type":"function"},{"inputs":[{"internalType":"uint256","name":"gameId","type":"uint256"}],"name":"getGameInfo","outputs":[{"internalType":"enum GameLibrary.GameState","name":"state","type":"uint8"},{"internalType":"uint256","name":"potAmount","type":"uint256"},{"internalType":"uint256","name":"currentBet","type":"uint256"},{"internalType":"uint256","name":"phaseEndTime","type":"uint256"},{"internalType":"uint256","name":"bufferEndTime","type":"uint256"},{"internalType":"uint256","name":"remainingTime","type":"uint256"},{"internalType":"uint256","name":"playerCount","type":"uint256"},{"internalType":"uint256","name":"activeCount","type":"uint256"},{"internalType":"address","name":"gameKeeper","type":"address"},{"internalType":"uint256","name":"stateVersion","type":"uint256"},{"internalType":"bool","name":"isCleanedUp","type":"bool"}],"stateMutability":"view","type":"function"},{"inputs":[{"internalType":"uint256","name":"gameId","type":"uint256"},{"internalType":"address","name":"player","type":"address"}],"name":"getPlayerInfo","outputs":[{"internalType":"bool","name":"isActive","type":"bool"},{"internalType":"bool","name":"hasPeeked","type":"bool"},{"internalType":"bool","name":"usedMontyHall","type":"bool"},{"internalType":"bool","name":"hasFolded","type":"bool"},{"internalType":"uint256","name":"chipBalance","type":"uint256"},{"internalType":"uint256","name":"currentBet","type":"uint256"},{"internalType":"uint256","name":"lastActionTime","type":"uint256"},{"internalType":"uint256","name":"actionNonce","type":"uint256"}],"stateMutability":"view","type":"function"},{"inputs":[{"internalType":"uint256","name":"gameId","type":"uint256"}],"name":"getPlayers","outputs":[{"internalType":"address[]","name":"players","type":"address[]"}],"stateMutability":"view","type":"function"},{"inputs":[{"internalType":"uint256","name":"gameId","type":"uint256"}],"name":"getPlayersForSpectating","outputs":[{"internalType":"address[]","name":"playerAddresses","type":"address[]"},{"internalType":"bool[]","name":"playerActiveBits","type":"bool[]"},{"internalType":"bool[]","name":"playerFoldedBits","type":"bool[]"},{"internalType":"uint256[]","name":"playerChipBalances","type":"uint256[]"},{"internalType":"uint256[]","name":"playerCurrentBets","type":"uint256[]"},{"internalType":"uint256[]","name":"playerActionNonces","type":"uint256[]"}],"stateMutability":"view","type":"function"},{"inputs":[{"internalType":"uint256","name":"gameId","type":"uint256"}],"name":"getRevealedCardsForSpectating","outputs":[{"internalType":"address[]","name":"playerAddresses","type":"address[]"},{"internalType":"uint8[]","name":"cardValues","type":"uint8[]"},{"internalType":"uint8[]","name":"cardSuits","type":"uint8[]"}],"stateMutability":"view","type":"function"},{"inputs":[{"internalType":"address","name":"keeper","type":"address"}],"name":"isKeeper","outputs":[{"internalType":"bool","name":"","type":"bool"}],"stateMutability":"view","type":"function"},{"inputs":[{"internalType":"address","name":"player","type":"address"}],"name":"isWhitelisted","outputs":[{"internalType":"bool","name":"","type":"bool"}],"stateMutability":"view","type":"function"},{"inputs":[{"internalType":"uint256","name":"gameId","type":"uint256"}],"name":"joinGame","outputs":[],"stateMutability":"nonpayable","type":"function"},{"inputs":[{"internalType":"uint256","name":"gameId","type":"uint256"}],"name":"leaveGame","outputs":[],"stateMutability":"nonpayable","type":"function"},{"inputs":[{"internalType":"uint256","name":"gameId","type":"uint256"},{"internalType":"bool","name":"swapCard","type":"bool"}],"name":"montyHallDecision","outputs":[],"stateMutability":"nonpayable","type":"function"},{"inputs":[],"name":"owner","outputs":[{"internalType":"address","name":"","type":"address"}],"stateMutability":"view","type":"function"},{"inputs":[{"internalType":"uint256","name":"gameId","type":"uint256"}],"name":"peekAtCard","outputs":[],"stateMutability":"nonpayable","type":"function"},{"inputs":[{"internalType":"uint256","name":"gameId","type":"uint256"},{"internalType":"uint256","name":"betAmount","type":"uint256"}],"name":"placeBet","outputs":[],"stateMutability":"nonpayable","type":"function"},{"inputs":[{"internalType":"address","name":"keeper","type":"address"}],"name":"removeKeeper","outputs":[],"stateMutability":"nonpayable","type":"function"},{"inputs":[{"internalType":"address[]","name":"players","type":"address[]"}],"name":"removeMultipleFromWhitelist","outputs":[],"stateMutability":"nonpayable","type":"function"},{"inputs":[{"internalType":"uint256","name":"gameId","type":"uint256"}],"name":"startPeekPhase","outputs":[],"stateMutability":"nonpayable","type":"function"},{"inputs":[{"internalType":"uint256","name":"gameId","type":"uint256"}],"name":"useMontyHallOption","outputs":[],"stateMutability":"nonpayable","type":"function"}],"evm":{"bytecode":{"linkReferences":{},"object":"60a060405234801561001057600080fd5b5033606081901b60805260008181526006602090815260408083208054600160ff1991821681179092559284905290832080549092168117909155805480820182559082527fb10e2d527612073b26eecdfd717e6a320cf44b4afac2b0732d9fcbe2b7fa0cf60180546001600160a01b0319168317905561570190620000bc903960008181610cac01528181611c83015281816123860152818161254501526135d201526157016000f3fe608060405234801561001057600080fd5b50600436106101da5760003560e01c806347e1d550116101045780639db800a6116100a2578063bff7a00b11610071578063bff7a00b14610444578063efaa55a014610457578063f0344e361461046a578063f62a1a9814610492576101da565b80639db800a6146103e6578063a410274c1461040b578063b419f9ab1461041e578063ba3a952014610431576101da565b80637255d729116100de5780637255d729146103965780638401f8d1146103ab5780638da5cb5b146103be5780639d36ac19146103d3576101da565b806347e1d550146103465780634afe62b5146103705780636ba42aaa14610383576101da565b8063318ff5d11161017c5780633ccd10e91161014b5780633ccd10e9146102e65780633feef58a1461030d5780634032b72b14610320578063460e204914610333576101da565b8063318ff5d114610271578063342ed9561461028457806335ac8a47146102a45780633af32abf146102c6576101da565b806314ae9f2e116101b857806314ae9f2e1461021a5780631b76929c1461022d5780631f452a081461024b57806330be62b21461025e576101da565b806301e09cd8146101df57806309734764146101f45780630aa4001814610207575b600080fd5b6101f26101ed3660046148f6565b6104a5565b005b6101f26102023660046148b3565b6108d3565b6101f26102153660046148b3565b610abd565b6101f261022836600461482a565b610ca1565b610235610d0a565b6040516102429190614baa565b60405180910390f35b6101f26102593660046148b3565b610d62565b6101f261026c3660046148b3565b610f67565b6101f261027f3660046148b3565b611080565b6102976102923660046148b3565b611333565b6040516102429190614ad2565b6102b76102b23660046148b3565b6114ba565b60405161024293929190614b67565b6102d96102d436600461482a565b6118f1565b6040516102429190614beb565b6102f96102f43660046148cb565b611913565b604051610242989796959493929190614bf6565b6101f261031b3660046148b3565b6119c7565b6101f261032e36600461482a565b611c78565b6102976103413660046148b3565b611ce4565b6103596103543660046148b3565b611d84565b6040516102429b9a99989796959493929190614c8d565b6101f261037e366004614929565b611e86565b6102d961039136600461482a565b61215e565b61039e61217c565b604051610242919061550c565b6101f26103b9366004614844565b61237b565b6103c6612543565b6040516102429190614a72565b6101f26103e13660046148cb565b612567565b6103f96103f43660046148b3565b612753565b60405161024296959493929190614ae5565b61039e6104193660046148b3565b612b2c565b6101f261042c3660046148b3565b612b73565b6102d961043f3660046148b3565b612fe1565b6101f26104523660046148b3565b61311e565b6101f26104653660046148b3565b613379565b61047d6104783660046148b3565b613523565b60405161024299989796959493929190614cf4565b6101f26104a0366004614844565b6135c7565b600082815260036020526040902054829081146104dd5760405162461bcd60e51b81526004016104d4906150d4565b60405180910390fd5b6000838152600360209081526040808320338452600401909152902054839060ff1661051b5760405162461bcd60e51b81526004016104d490614e6f565b6000848152600360205260409020600c0154849042101561054e5760405162461bcd60e51b81526004016104d4906151ce565b6000858152600360205260409020600e0154859060ff16156105825760405162461bcd60e51b81526004016104d4906153bc565b60008681526003602090815260408083203384526004810190925290912060018083015460ff1660048111156105c857634e487b7160e01b600052602160045260246000fd5b146105e55760405162461bcd60e51b81526004016104d490615075565b81600b015442106106085760405162461bcd60e51b81526004016104d490614dd9565b805462010000900460ff1661062f5760405162461bcd60e51b81526004016104d490614d72565b60048101805460010190558661067d57426003820155600481015460405133918a916000805160206156ac8339815191529161066e9160009190615126565b60405180910390a350506108cb565b8054600583018054600160201b90920460ff169160009190839081106106b357634e487b7160e01b600052603260045260246000fd5b60009182526020918290206040805180820190915291015460ff8082168352610100909104169181019190915290506106ec8a8361371b565b60006106f78b613750565b905060008160ff1611801561070f5750603460ff8216105b61072b5760405162461bcd60e51b81526004016104d4906152de565b6107358b826138ac565b156107525760405162461bcd60e51b81526004016104d49061541b565b61075c8b826138cf565b156107795760405162461bcd60e51b81526004016104d490615013565b6107838b826138eb565b835464ff000000001916600160201b60ff83169081029190911785554260038601556005860180546000929081106107cb57634e487b7160e01b600052603260045260246000fd5b6000918252602091829020604080518082018252929091015460ff80821680855261010090920416838501819052875194880151925193955033947fcb7b1c01ca784066a42b03d3c78f5f655174c000da4c11e15ff44c5e56fb237494610836949193919290615529565b60405180910390a28454610100900460ff161561088d578051602082015160405133927fe1299f54cce9bbbb7b050a7a2e071f3272e75f57d041e1cfb8cc88969634cf069261088492615515565b60405180910390a25b336001600160a01b03168c6000805160206156ac833981519152600088600401546040516108bc929190614d43565b60405180910390a35050505050505b505050505050565b3360009081526006602052604090205460ff166109025760405162461bcd60e51b81526004016104d490614efd565b600081815260036020526040902054819081146109315760405162461bcd60e51b81526004016104d4906150d4565b6000828152600360205260409020600e0154829060ff16156109655760405162461bcd60e51b81526004016104d4906153bc565b600083815260036020526040902060018082015460ff16600481111561099b57634e487b7160e01b600052602160045260246000fd5b146109b85760405162461bcd60e51b81526004016104d490615075565b80600b01544210156109dc5760405162461bcd60e51b81526004016104d4906154d5565b6109e7601e4261554e565b600c82018190556109fb9061012c9061554e565b600b82015560018101805460ff19166002179055610a1884613907565b837ff732482ea8c744f957ef9b24c1e98e8add28a3e5dc3deedc3e8419f527c19b9860016002604051610a4c929190614c2e565b60405180910390a260088101546009820154600d830154604051879360008051602061568c83398151915293610a8493600293614c64565b60405180910390a260405184907f359ad7e63db5f06f70341a18e68dba0ef153ef9adbff2af9293fc13daf6fc09590600090a250505050565b3360009081526006602052604090205460ff16610aec5760405162461bcd60e51b81526004016104d490614efd565b60008181526003602052604090205481908114610b1b5760405162461bcd60e51b81526004016104d4906150d4565b6000828152600360205260409020600e0154829060ff1615610b4f5760405162461bcd60e51b81526004016104d4906153bc565b60008381526003602052604090206004600182015460ff166004811115610b8657634e487b7160e01b600052602160045260246000fd5b14610ba35760405162461bcd60e51b81526004016104d490615480565b60005b6002820154811015610c0c576000826002018281548110610bd757634e487b7160e01b600052603260045260246000fd5b60009182526020808320909101546001600160a01b031682526004905260408120555080610c048161561a565b915050610ba6565b50600e8101805460ff19166001179055610c2584613907565b610c2e84613921565b60405184907f35ea2f3c57b868de0f382fd562b24e0f9ef801f09c99190222df2cd1d4d6ddea90600090a2600181015460088201546009830154600d840154604051889460008051602061568c83398151915294610c939460ff909216939092614c64565b60405180910390a250505050565b336001600160a01b037f00000000000000000000000000000000000000000000000000000000000000001614610ce95760405162461bcd60e51b81526004016104d4906151f8565b6001600160a01b03166000908152600660205260409020805460ff19169055565b60606005805480602002602001604051908101604052809291908181526020018280548015610d5857602002820191906000526020600020905b815481526020019060010190808311610d44575b5050505050905090565b3360009081526006602052604090205460ff16610d915760405162461bcd60e51b81526004016104d490614efd565b60008181526003602052604090205481908114610dc05760405162461bcd60e51b81526004016104d4906150d4565b6000828152600360205260409020600e0154829060ff1615610df45760405162461bcd60e51b81526004016104d4906153bc565b600083815260036020526040812090600182015460ff166004811115610e2a57634e487b7160e01b600052602160045260246000fd5b14610e475760405162461bcd60e51b81526004016104d490614da9565b6002818101541015610e6b5760405162461bcd60e51b81526004016104d490614f88565b610e76601e4261554e565b600c8201819055610e899060789061554e565b600b8201556001808201805460ff19169091179055610ea784613a17565b610eb084613b9f565b610eb984613c4f565b610ec284613907565b837ff732482ea8c744f957ef9b24c1e98e8add28a3e5dc3deedc3e8419f527c19b9860006001604051610ef6929190614c2e565b60405180910390a260088101546009820154600d830154604051879360008051602061568c83398151915293610f2e93600193614c64565b60405180910390a260405184907f1a2ba96bf245728c460e13d78a1591bcb45e67de1240b6654190f8c0bbdd070090600090a250505050565b3360009081526006602052604090205460ff16610f965760405162461bcd60e51b81526004016104d490614efd565b60008181526003602052604090205481908114610fc55760405162461bcd60e51b81526004016104d4906150d4565b6000828152600360205260409020600e0154829060ff1615610ff95760405162461bcd60e51b81526004016104d4906153bc565b60008381526003602052604090206002600182015460ff16600481111561103057634e487b7160e01b600052602160045260246000fd5b1461104d5760405162461bcd60e51b81526004016104d490614fb1565b80600b01544210156110715760405162461bcd60e51b81526004016104d490615277565b61107a84613c6c565b50505050565b600081815260036020526040902054819081146110af5760405162461bcd60e51b81526004016104d4906150d4565b6000828152600360209081526040808320338452600401909152902054829060ff166110ed5760405162461bcd60e51b81526004016104d490614e6f565b6000838152600360205260409020600c015483904210156111205760405162461bcd60e51b81526004016104d4906151ce565b6000848152600360205260409020600e0154849060ff16156111545760405162461bcd60e51b81526004016104d4906153bc565b60008581526003602090815260408083203384526004810190925290912060018083015460ff16600481111561119a57634e487b7160e01b600052602160045260246000fd5b146111b75760405162461bcd60e51b81526004016104d490615075565b81600b015442106111da5760405162461bcd60e51b81526004016104d490614dd9565b8054610100900460ff16156112015760405162461bcd60e51b81526004016104d4906153f3565b6005816001015410156112265760405162461bcd60e51b81526004016104d490614ed1565b60018082018054600419019055815461ff00191661010017808355426003840155600483018054909201909155600583018054600160201b90920460ff1691600091908390811061128757634e487b7160e01b600052603260045260246000fd5b6000918252602091829020604080518082018252929091015460ff80821680855261010090920416938301849052905191935033927fe1299f54cce9bbbb7b050a7a2e071f3272e75f57d041e1cfb8cc88969634cf06926112e9929190615515565b60405180910390a2336001600160a01b0316896000805160206156ac8339815191526005866004015460405161132092919061530e565b60405180910390a3505050505050505050565b600081815260036020526040902054606090829081146113655760405162461bcd60e51b81526004016104d4906150d4565b60008381526003602081905260409091209081015467ffffffffffffffff8111156113a057634e487b7160e01b600052604160045260246000fd5b6040519080825280602002602001820160405280156113c9578160200160208202803683370190505b5092508060030154600014156113df57506114b4565b6000805b60028301548110156114b057600083600201828154811061141457634e487b7160e01b600052603260045260246000fd5b60009182526020808320909101546001600160a01b03168083526004870190915260409091205490915060ff63010000009091041661149d578086848151811061146e57634e487b7160e01b600052603260045260246000fd5b6001600160a01b03909216602092830291909101909101526003840154600190930192831061149d57506114b0565b50806114a88161561a565b9150506113e3565b5050505b50919050565b60008181526003602052604090205460609081908190849081146114f05760405162461bcd60e51b81526004016104d4906150d4565b600085815260036020819052604090912090600182015460ff16600481111561152957634e487b7160e01b600052602160045260246000fd5b148061155b57506004600182015460ff16600481111561155957634e487b7160e01b600052602160045260246000fd5b145b6115775760405162461bcd60e51b81526004016104d4906152ae565b600281015467ffffffffffffffff8111156115a257634e487b7160e01b600052604160045260246000fd5b6040519080825280602002602001820160405280156115cb578160200160208202803683370190505b50600282015490955067ffffffffffffffff8111156115fa57634e487b7160e01b600052604160045260246000fd5b604051908082528060200260200182016040528015611623578160200160208202803683370190505b50600282015490945067ffffffffffffffff81111561165257634e487b7160e01b600052604160045260246000fd5b60405190808252806020026020018201604052801561167b578160200160208202803683370190505b50925060005b60028201548110156118e75760008260020182815481106116b257634e487b7160e01b600052603260045260246000fd5b60009182526020808320909101546001600160a01b03168083526004860190915260409091205490915060ff6301000000909104161561179f578087838151811061170d57634e487b7160e01b600052603260045260246000fd5b60200260200101906001600160a01b031690816001600160a01b031681525050600086838151811061174f57634e487b7160e01b600052603260045260246000fd5b602002602001019060ff16908160ff1681525050600085838151811061178557634e487b7160e01b600052603260045260246000fd5b602002602001019060ff16908160ff1681525050506118d5565b6001600160a01b0381166000908152600484016020526040812054600585018054600160201b90920460ff169291839081106117eb57634e487b7160e01b600052603260045260246000fd5b60009182526020918290206040805180820190915291015460ff80821683526101009091041691810191909152895190915083908a908690811061183f57634e487b7160e01b600052603260045260246000fd5b60200260200101906001600160a01b031690816001600160a01b031681525050806000015188858151811061188457634e487b7160e01b600052603260045260246000fd5b602002602001019060ff16908160ff168152505080602001518785815181106118bd57634e487b7160e01b600052603260045260246000fd5b602002602001019060ff16908160ff16815250505050505b806118df8161561a565b915050611681565b5050509193909250565b6001600160a01b03811660009081526020819052604090205460ff165b919050565b60008060008060008060008089806003600083815260200190815260200160002060000154146119555760405162461bcd60e51b81526004016104d4906150d4565b505050600097885250506003602081815260408089206001600160a01b03989098168952600497880190915290962080546001820154600283015498830154929097015460ff8083169a610100840482169a62010000850483169a630100000090950490921698509296509450919250565b600081815260036020526040902054819081146119f65760405162461bcd60e51b81526004016104d4906150d4565b6000828152600360205260409020600e0154829060ff1615611a2a5760405162461bcd60e51b81526004016104d4906153bc565b6000838152600360209081526040808320338452600481019092529091205460ff16611a685760405162461bcd60e51b81526004016104d4906150fc565b6000600182015460ff166004811115611a9157634e487b7160e01b600052602160045260246000fd5b14611aae5760405162461bcd60e51b81526004016104d490615452565b60005b6002820154811015611bf957336001600160a01b0316826002018281548110611aea57634e487b7160e01b600052603260045260246000fd5b6000918252602090912001546001600160a01b03161415611be757600282018054611b1790600190615589565b81548110611b3557634e487b7160e01b600052603260045260246000fd5b6000918252602090912001546002830180546001600160a01b039092169183908110611b7157634e487b7160e01b600052603260045260246000fd5b9060005260206000200160006101000a8154816001600160a01b0302191690836001600160a01b0316021790555081600201805480611bc057634e487b7160e01b600052603160045260246000fd5b600082815260209020810160001990810180546001600160a01b0319169055019055611bf9565b80611bf18161561a565b915050611ab1565b5060038082018054600019019055336000818152600480850160209081526040808420805464ffffffffff191681556001810185905560028101859055958601849055948201839055528281208190559151909186916000805160206156ac83398151915291611c6a9181906151a2565b60405180910390a350505050565b336001600160a01b037f00000000000000000000000000000000000000000000000000000000000000001614611cc05760405162461bcd60e51b81526004016104d4906151f8565b6001600160a01b03166000908152600660205260409020805460ff19166001179055565b60008181526003602052604090205460609082908114611d165760405162461bcd60e51b81526004016104d4906150d4565b60008381526003602090815260409182902060020180548351818402810184019094528084529091830182828015611d7757602002820191906000526020600020905b81546001600160a01b03168152600190910190602001808311611d59575b5050505050915050919050565b60008060008060008060008060008060008b80600360008381526020019081526020016000206000015414611dcb5760405162461bcd60e51b81526004016104d4906150d4565b60008d8152600360205260408120600b810154909190421015611dfb574282600b0154611df89190615589565b90505b8160010160009054906101000a900460ff168260080154836009015484600b015485600c0154858760020180549050886003015489600a0160009054906101000a90046001600160a01b03168a600d01548b600e0160009054906101000a900460ff169d509d509d509d509d509d509d509d509d509d509d5050505091939597999b90929496989a50565b60008281526003602052604090205482908114611eb55760405162461bcd60e51b81526004016104d4906150d4565b6000838152600360209081526040808320338452600401909152902054839060ff16611ef35760405162461bcd60e51b81526004016104d490614e6f565b6000848152600360205260409020600c01548490421015611f265760405162461bcd60e51b81526004016104d4906151ce565b6000858152600360205260409020600e0154859060ff1615611f5a5760405162461bcd60e51b81526004016104d4906153bc565b6000868152600360209081526040808320338452600481019092529091206002600183015460ff166004811115611fa157634e487b7160e01b600052602160045260246000fd5b14611fbe5760405162461bcd60e51b81526004016104d490614fb1565b81600b01544210611fe15760405162461bcd60e51b81526004016104d4906154a8565b80546301000000900460ff161561200a5760405162461bcd60e51b81526004016104d490615339565b600187101561202b5760405162461bcd60e51b81526004016104d49061521b565b60098201541561206f5760008160020154836009015461204b9190615589565b90508088101561206d5760405162461bcd60e51b81526004016104d490614f58565b505b86816001015410156120935760405162461bcd60e51b81526004016104d490614ed1565b600481018054600190810190915581018054889003905560028101805488018155600883018054890190554260038301556009830154905411156120dc57600281015460098301555b336001600160a01b0316886000805160206156ac83398151915289846004015460405161210a929190615155565b60405180910390a3600182015460088301546009840154600d8501546040518c9460008051602061568c8339815191529461214c9460ff909216939092614c64565b60405180910390a25050505050505050565b6001600160a01b031660009081526006602052604090205460ff1690565b3360009081526006602052604081205460ff166121ab5760405162461bcd60e51b81526004016104d490614efd565b60028054600190810191829055600082815260036020526040812083815580830180549193909160ff191690830217905550600a810180546001600160a01b031916339081179091556000600383018190556001600d8401819055600e8401805460ff191690556005805491820181559091527f036b6384b5eca791c62761152d0c79bb0604c104a5fb6f4eb0703f3154bb3db00183905560405183917fc3e0f84839dc888c892a013d10c8f9d6dc05a21a879d0ce468ca558013e9121c916122749190614a72565b60405180910390a2817ff8d27b7cf34386d5d1f7ad30b948b2c8e36bc20003707ce9463ab063cb1412fe6000806040516122af929190614c49565b60405180910390a260005b600154811080156122cb5750600581105b15612373576000600182815481106122f357634e487b7160e01b600052603260045260246000fd5b60009182526020808320909101546001600160a01b03168083529082905260409091205490915060ff16801561233f57506001600160a01b038116600090815260046020526040902054155b156123605761234e8482613d02565b60028301546005116123605750612373565b508061236b8161561a565b9150506122ba565b509091505090565b336001600160a01b037f000000000000000000000000000000000000000000000000000000000000000016146123c35760405162461bcd60e51b81526004016104d4906151f8565b60005b81811015612505576000808484848181106123f157634e487b7160e01b600052603260045260246000fd5b9050602002016020810190612406919061482a565b6001600160a01b0316815260208101919091526040016000205460ff166124f357600160008085858581811061244c57634e487b7160e01b600052603260045260246000fd5b9050602002016020810190612461919061482a565b6001600160a01b031681526020810191909152604001600020805460ff191691151591909117905560018383838181106124ab57634e487b7160e01b600052603260045260246000fd5b90506020020160208101906124c0919061482a565b81546001810183556000928352602090922090910180546001600160a01b0319166001600160a01b039092169190911790555b806124fd8161561a565b9150506123c6565b507f1e9e37439d2273fafa47a6f54f27ffac0c65726bf94fd2846710e535902062ec8282604051612537929190614a86565b60405180910390a15050565b7f000000000000000000000000000000000000000000000000000000000000000090565b3360009081526006602052604090205460ff166125965760405162461bcd60e51b81526004016104d490614efd565b600082815260036020526040902054829081146125c55760405162461bcd60e51b81526004016104d4906150d4565b6000838152600360205260409020600e0154839060ff16156125f95760405162461bcd60e51b81526004016104d4906153bc565b600084815260036020526040812090600182015460ff16600481111561262f57634e487b7160e01b600052602160045260246000fd5b1461264c5760405162461bcd60e51b81526004016104d490614da9565b60028101546005116126705760405162461bcd60e51b81526004016104d49061517f565b6001600160a01b038416600090815260046020526040902054156126a65760405162461bcd60e51b81526004016104d49061509d565b600281018054600180820183556000928352602080842090920180546001600160a01b0319166001600160a01b038916908117909155808452600480860184526040808620805460ff19168517815560198186015542600380830191909155818401889055929095528086208b9055908601805490930190925590519192909188917f87969bc7faf902221a147b95ceba76e011c5efb0339a0a8ee7a2bb82d9cfbbd691a3505050505050565b60608060608060608086806003600083815260200190815260200160002060000154146127925760405162461bcd60e51b81526004016104d4906150d4565b6000888152600360209081526040918290206002810180548451818502810185019095528085529193919283908301828280156127f857602002820191906000526020600020905b81546001600160a01b031681526001909101906020018083116127da575b505050505098508067ffffffffffffffff81111561282657634e487b7160e01b600052604160045260246000fd5b60405190808252806020026020018201604052801561284f578160200160208202803683370190505b5097508067ffffffffffffffff81111561287957634e487b7160e01b600052604160045260246000fd5b6040519080825280602002602001820160405280156128a2578160200160208202803683370190505b5096508067ffffffffffffffff8111156128cc57634e487b7160e01b600052604160045260246000fd5b6040519080825280602002602001820160405280156128f5578160200160208202803683370190505b5095508067ffffffffffffffff81111561291f57634e487b7160e01b600052604160045260246000fd5b604051908082528060200260200182016040528015612948578160200160208202803683370190505b5094508067ffffffffffffffff81111561297257634e487b7160e01b600052604160045260246000fd5b60405190808252806020026020018201604052801561299b578160200160208202803683370190505b50935060005b81811015612b1f5760008a82815181106129cb57634e487b7160e01b600052603260045260246000fd5b6020908102919091018101516001600160a01b038116600090815260048701909252604090912080548c51929350909160ff909116908c9085908110612a2157634e487b7160e01b600052603260045260246000fd5b6020026020010190151590811515815250508060000160039054906101000a900460ff168a8481518110612a6557634e487b7160e01b600052603260045260246000fd5b6020026020010190151590811515815250508060010154898481518110612a9c57634e487b7160e01b600052603260045260246000fd5b6020026020010181815250508060020154888481518110612acd57634e487b7160e01b600052603260045260246000fd5b6020026020010181815250508060040154878481518110612afe57634e487b7160e01b600052603260045260246000fd5b60200260200101818152505050508080612b179061561a565b9150506129a1565b5050505091939550919395565b60008181526003602052604081205482908114612b5b5760405162461bcd60e51b81526004016104d4906150d4565b50506000908152600360208190526040909120015490565b60008181526003602052604090205481908114612ba25760405162461bcd60e51b81526004016104d4906150d4565b6000828152600360209081526040808320338452600401909152902054829060ff16612be05760405162461bcd60e51b81526004016104d490614e6f565b6000838152600360205260409020600c01548390421015612c135760405162461bcd60e51b81526004016104d4906151ce565b6000848152600360205260409020600e0154849060ff1615612c475760405162461bcd60e51b81526004016104d4906153bc565b60008581526003602090815260408083203384526004810190925290912060018083015460ff166004811115612c8d57634e487b7160e01b600052602160045260246000fd5b14612caa5760405162461bcd60e51b81526004016104d490615075565b81600b01544210612ccd5760405162461bcd60e51b81526004016104d490614dd9565b805462010000900460ff1615612cf55760405162461bcd60e51b81526004016104d490614e9a565b600781600101541015612d1a5760405162461bcd60e51b81526004016104d490614ed1565b60018181018054600619019055815462ff00001916620100001782554260038301556004820180549091019055604080516002808252606082018352600092602083019080368337505060408051600280825260608201835293945060009390925090602083019080368337505060408051600280825260608201835293945060009390925090602083019080368337019050509050612dbe8a6002858585613dde565b60005b600260ff82161015612ece576000828260ff1681518110612df257634e487b7160e01b600052603260045260246000fd5b602002602001015160ff1611612e1a5760405162461bcd60e51b81526004016104d490614f21565b612e4e8b838360ff1681518110612e4157634e487b7160e01b600052603260045260246000fd5b60200260200101516138ac565b15612e6b5760405162461bcd60e51b81526004016104d490614e03565b612e9f8b838360ff1681518110612e9257634e487b7160e01b600052603260045260246000fd5b60200260200101516138cf565b15612ebc5760405162461bcd60e51b81526004016104d490615242565b80612ec681615635565b915050612dc1565b5060005b600260ff82161015612f5a576000828260ff1681518110612f0357634e487b7160e01b600052603260045260246000fd5b602002602001015160ff161115612f4857612f488b838360ff1681518110612f3b57634e487b7160e01b600052603260045260246000fd5b60200260200101516141a9565b80612f5281615635565b915050612ed2565b50336001600160a01b03167f6f8687dd1640e050bb18e188b1e58202e179c438a474793a246d4ca06aa56abd8484604051612f96929190614bbd565b60405180910390a2336001600160a01b03168a6000805160206156ac83398151915260078760040154604051612fcd92919061538c565b60405180910390a350505050505050505050565b600081815260036020526040812054829081146130105760405162461bcd60e51b81526004016104d4906150d4565b60008381526003602052604090206002600182015460ff16600481111561304757634e487b7160e01b600052602160045260246000fd5b146130565760009250506114b4565b60005b600282015481101561311357600082600201828154811061308a57634e487b7160e01b600052603260045260246000fd5b60009182526020808320909101546001600160a01b03168083526004860190915260409091205490915060ff630100000090910416156130ca5750613101565b60098301546001600160a01b038216600090815260048501602052604090206002015410156130ff57600094505050506114b4565b505b8061310b8161561a565b915050613059565b506001949350505050565b6000818152600360205260409020548190811461314d5760405162461bcd60e51b81526004016104d4906150d4565b6000828152600360209081526040808320338452600401909152902054829060ff1661318b5760405162461bcd60e51b81526004016104d490614e6f565b6000838152600360205260409020600c015483904210156131be5760405162461bcd60e51b81526004016104d4906151ce565b6000848152600360205260409020600e0154849060ff16156131f25760405162461bcd60e51b81526004016104d4906153bc565b6000858152600360209081526040808320338452600481019092529091206002600183015460ff16600481111561323957634e487b7160e01b600052602160045260246000fd5b146132565760405162461bcd60e51b81526004016104d490614fb1565b81600b015442106132795760405162461bcd60e51b81526004016104d4906154a8565b80546301000000900460ff16156132a25760405162461bcd60e51b81526004016104d490615339565b6004810180546001018155815463ff00000019166301000000178255426003808401919091558301805460001901905554604051339189916000805160206156ac833981519152916132f7916000919061504a565b60405180910390a3600182015460088301546009840154600d8501546040518b9460008051602061568c833981519152946133399460ff909216939092614c64565b60405180910390a2816003015460011415613370576000613359886141de565b905061336488613c6c565b61336e888261428e565b505b50505050505050565b600081815260036020526040902054819081146133a85760405162461bcd60e51b81526004016104d4906150d4565b6000828152600360205260409020600e0154829060ff16156133dc5760405162461bcd60e51b81526004016104d4906153bc565b600083815260036020526040812090600182015460ff16600481111561341257634e487b7160e01b600052602160045260246000fd5b1461342f5760405162461bcd60e51b81526004016104d490614da9565b60028101546005116134535760405162461bcd60e51b81526004016104d49061517f565b33600090815260046020526040902054156134805760405162461bcd60e51b81526004016104d490615361565b600281018054600181810183556000928352602080842090920180546001600160a01b03191633908117909155808452600480860184526040808620805460ff19168517815560198186015542600380830191909155818401889055929095528086208a9055908601805490930190925590519192909187917f87969bc7faf902221a147b95ceba76e011c5efb0339a0a8ee7a2bb82d9cfbbd691a35050505050565b600080600080600080600080600089806003600083815260200190815260200160002060000154146135675760405162461bcd60e51b81526004016104d4906150d4565b50505060009788525050600360208190526040909620600181015460088201546009830154600b840154600c85015460028601549b860154600d870154600e9097015460ff9687169e959d949c50929a5090985091965090945090911690565b336001600160a01b037f0000000000000000000000000000000000000000000000000000000000000000161461360f5760405162461bcd60e51b81526004016104d4906151f8565b60005b818110156136e95760008084848481811061363d57634e487b7160e01b600052603260045260246000fd5b9050602002016020810190613652919061482a565b6001600160a01b0316815260208101919091526040016000205460ff16156136d757600080600085858581811061369957634e487b7160e01b600052603260045260246000fd5b90506020020160208101906136ae919061482a565b6001600160a01b031681526020810191909152604001600020805460ff19169115159190911790555b806136e18161561a565b915050613612565b507fa907e2461cc5dad6c99bdb07ff6b11dafdf6752f8a1377e2070277d17d5e7f758282604051612537929190614a86565b6000828152600360205260409020600601546137379082614373565b6000928352600360205260409092206006019190915550565b6000818152600360209081526040808320815160348082526106a0820190935290928492908201610680803683370190505090506000805b600584015460ff82161015613811576137a186826138ac565b1580156137b557506137b386826138cf565b155b156137ff5780838361ffff16815181106137df57634e487b7160e01b600052603260045260246000fd5b60ff90921660209283029190910190910152816137fb816155f8565b9250505b8061380981615635565b915050613788565b5060008161ffff16116138365760405162461bcd60e51b81526004016104d490614fdc565b60008161ffff164442604051602001613850929190614a41565b6040516020818303038152906040528051906020012060001c6138739190615655565b9050828161ffff168151811061389957634e487b7160e01b600052603260045260246000fd5b6020026020010151945050505050919050565b6000828152600360205260408120600601546138c89083614381565b9392505050565b6000828152600360205260408120600701546138c89083614381565b6000828152600360205260409020600601546137379082614390565b6000908152600360205260409020600d0180546001019055565b60005b600554811015613a1357816005828154811061395057634e487b7160e01b600052603260045260246000fd5b90600052602060002001541415613a01576005805461397190600190615589565b8154811061398f57634e487b7160e01b600052603260045260246000fd5b9060005260206000200154600582815481106139bb57634e487b7160e01b600052603260045260246000fd5b60009182526020909120015560058054806139e657634e487b7160e01b600052603160045260246000fd5b60019003818190600052602060002001600090559055613a13565b80613a0b8161561a565b915050613924565b5050565b600081815260036020526040812090613a349060058301906147bd565b6040805160348082526106a08201909252600091816020015b613a556147de565b815260200190600190039081613a4d5790505090506000805b60048160ff161015613b055760025b600e8160ff1611613af25760405180604001604052808260ff1681526020018360ff16815250848460ff1681518110613ac657634e487b7160e01b600052603260045260246000fd5b60200260200101819052508280613adc90615635565b9350508080613aea90615635565b915050613a7d565b5080613afd81615635565b915050613a6e565b506000613b118361439d565b905060005b60348110156108cb5784600501828281518110613b4357634e487b7160e01b600052603260045260246000fd5b6020908102919091018101518254600181018455600093845292829020815193018054919092015160ff9081166101000261ff00199190941660ff19909216919091171691909117905580613b978161561a565b915050613b16565b6000818152600360205260409020613bb6826144c7565b60005b6002820154811015613c4a576000826002018281548110613bea57634e487b7160e01b600052603260045260246000fd5b6000918252602080832091909101546001600160a01b0316808352600486019091526040909120805464ff000000001916600160201b60ff861602179055905081613c3585826138eb565b50508080613c429061561a565b915050613bb9565b505050565b613c576144e4565b60009182526003602052604090912060070155565b600081815260036020819052604090912060018101805460ff1916909217909155613c9682613907565b60405182907fcfeaa304021cfd684ad30c51a76ffd4139eb4b36c6e97d94cce4df46b71ee97790600090a260088101546009820154600d830154604051859360008051602061568c83398151915293613cf193600393614c64565b60405180910390a2613a13826144e9565b60008281526003602090815260408083206001600160a01b038516845260049092529091205415613d335750613a13565b600281018054600180820183556000928352602080842090920180546001600160a01b0319166001600160a01b038716908117909155808452600480860184526040808620805460ff1916851781556019818601554260038083019190915581840188905592909552808620899055908601805490930190925590519192909186917f87969bc7faf902221a147b95ceba76e011c5efb0339a0a8ee7a2bb82d9cfbbd691a350505050565b600085815260036020526040808220815160348082526106a082019093529092918160200160208202803683370190505090506000805b600584015460ff82161015613e9e57613e2e89826138ac565b158015613e425750613e4089826138cf565b155b15613e8c5780838361ffff1681518110613e6c57634e487b7160e01b600052603260045260246000fd5b60ff9092166020928302919091019091015281613e88816155f8565b9250505b80613e9681615635565b915050613e15565b5060008760ff168261ffff1610613eb55787613eb7565b815b90504460005b8260ff168160ff1610156140d05760008461ffff16838342604051602001613ee793929190614a4f565b6040516020818303038152906040528051906020012060001c613f0a9190615655565b90506000868261ffff1681518110613f3257634e487b7160e01b600052603260045260246000fd5b602002602001015190506000886005018260ff1681548110613f6457634e487b7160e01b600052603260045260246000fd5b60009182526020918290206040805180820190915291015460ff8082168084526101009092048116938301939093528e51919350918e91908716908110613fbb57634e487b7160e01b600052603260045260246000fd5b602002602001019060ff16908160ff168152505080602001518b8560ff1681518110613ff757634e487b7160e01b600052603260045260246000fd5b602002602001019060ff16908160ff1681525050818a8560ff168151811061402f57634e487b7160e01b600052603260045260246000fd5b60ff909216602092830291909101909101528761404d600189615566565b61ffff168151811061406f57634e487b7160e01b600052603260045260246000fd5b6020026020010151888461ffff168151811061409b57634e487b7160e01b600052603260045260246000fd5b60ff90921660209283029190910190910152866140b7816155c3565b97505050505080806140c890615635565b915050613ebd565b50815b8960ff168160ff16101561419c576000898260ff168151811061410657634e487b7160e01b600052603260045260246000fd5b602002602001019060ff16908160ff16815250506000888260ff168151811061413f57634e487b7160e01b600052603260045260246000fd5b602002602001019060ff16908160ff16815250506000878260ff168151811061417857634e487b7160e01b600052603260045260246000fd5b60ff909216602092830291909101909101528061419481615635565b9150506140d3565b5050505050505050505050565b6000828152600360205260409020600701546141c59082614390565b6000928352600360205260409092206007019190915550565b6000818152600360205260408120815b600282015481101561427557600082600201828154811061421f57634e487b7160e01b600052603260045260246000fd5b60009182526020808320909101546001600160a01b03168083526004860190915260409091205490915060ff63010000009091041661426257925061190e915050565b508061426d8161561a565b9150506141ee565b5060405162461bcd60e51b81526004016104d490614e38565b600082815260036020908152604080832060088101546001600160a01b0386168552600480830190945291909320600190810180549092019091558201805460ff191690911790556142df83613907565b600081600801549050826001600160a01b0316847ff1898de79c348962fab7695532341027e5bceb0ea2a8785790fa7d7efeeee12983604051614322919061550c565b60405180910390a38360008051602061568c833981519152600483856009015486600d01546040516143579493929190614c64565b60405180910390a2506000600882018190556009909101555050565b600160ff919091161b191690565b600160ff919091161b16151590565b600160ff919091161b1790565b60604460006143ae600160346155a0565b60ff1690505b80156144bf5760006143c782600161554e565b83836040516020016143da929190614a41565b6040516020818303038152906040528051906020012060001c6143fd9190615655565b9050600085838151811061442157634e487b7160e01b600052603260045260246000fd5b6020026020010151905085828151811061444b57634e487b7160e01b600052603260045260246000fd5b602002602001015186848151811061447357634e487b7160e01b600052603260045260246000fd5b60200260200101819052508086838151811061449f57634e487b7160e01b600052603260045260246000fd5b6020026020010181905250505080806144b7906155e1565b9150506143b4565b509192915050565b6144cf6144e4565b60009182526003602052604090912060060155565b600090565b60008181526003602052604081209061450183614657565b905060005b600283015481101561464c57600083600201828154811061453757634e487b7160e01b600052603260045260246000fd5b60009182526020808320909101546001600160a01b03168083526004870190915260409091205490915060ff63010000009091041615614577575061463a565b6001600160a01b0381166000908152600485016020526040812054600586018054600160201b90920460ff169291839081106145c357634e487b7160e01b600052603260045260246000fd5b6000918252602091829020604080518082018252929091015460ff8082168085526101009092041693830184905290519193506001600160a01b038616927fe1299f54cce9bbbb7b050a7a2e071f3272e75f57d041e1cfb8cc88969634cf069261462e929190615515565b60405180910390a25050505b806146448161561a565b915050614506565b50613c4a838261428e565b6000818152600360205260408120818080805b60028501548110156147b257600085600201828154811061469b57634e487b7160e01b600052603260045260246000fd5b60009182526020808320909101546001600160a01b03168083526004890190915260409091205490915060ff630100000090910416156146db57506147a0565b6001600160a01b0381166000908152600487016020526040812054600588018054600160201b90920460ff1692918390811061472757634e487b7160e01b600052603260045260246000fd5b60009182526020918290206040805180820190915291015460ff808216808452610100909204811693830193909352909250908716108061478557508560ff16816000015160ff1614801561478557508460ff16816020015160ff16115b1561479c5780600001519550806020015194508296505b5050505b806147aa8161561a565b91505061466a565b509195945050505050565b50805460008255906000526020600020908101906147db91906147f5565b50565b604080518082019091526000808252602082015290565b5b8082111561480f57805461ffff191681556001016147f6565b5090565b80356001600160a01b038116811461190e57600080fd5b60006020828403121561483b578081fd5b6138c882614813565b60008060208385031215614856578081fd5b823567ffffffffffffffff8082111561486d578283fd5b818501915085601f830112614880578283fd5b81358181111561488e578384fd5b86602080830285010111156148a1578384fd5b60209290920196919550909350505050565b6000602082840312156148c4578081fd5b5035919050565b600080604083850312156148dd578182fd5b823591506148ed60208401614813565b90509250929050565b60008060408385031215614908578182fd5b823591506020830135801515811461491e578182fd5b809150509250929050565b6000806040838503121561493b578182fd5b50508035926020909101359150565b6000815180845260208085019450808401835b838110156149825781516001600160a01b03168752958201959082019060010161495d565b509495945050505050565b6000815180845260208085019450808401835b838110156149825781511515875295820195908201906001016149a0565b6000815180845260208085019450808401835b83811015614982578151875295820195908201906001016149d1565b6000815180845260208085019450808401835b8381101561498257815160ff1687529582019590820190600101614a00565b60058110614a3d57634e487b7160e01b600052602160045260246000fd5b9052565b918252602082015260400190565b92835260f89190911b6001600160f81b0319166020830152602182015260410190565b6001600160a01b0391909116815260200190565b60208082528181018390526000908460408401835b86811015614ac7576001600160a01b03614ab484614813565b1682529183019190830190600101614a9b565b509695505050505050565b6000602082526138c8602083018461494a565b600060c08252614af860c083018961494a565b8281036020840152614b0a818961498d565b90508281036040840152614b1e818861498d565b90508281036060840152614b3281876149be565b90508281036080840152614b4681866149be565b905082810360a0840152614b5a81856149be565b9998505050505050505050565b600060608252614b7a606083018661494a565b8281036020840152614b8c81866149ed565b90508281036040840152614ba081856149ed565b9695505050505050565b6000602082526138c860208301846149be565b600060408252614bd060408301856149ed565b8281036020840152614be281856149ed565b95945050505050565b901515815260200190565b9715158852951515602088015293151560408701529115156060860152608085015260a084015260c083015260e08201526101000190565b60408101614c3c8285614a1f565b6138c86020830184614a1f565b60408101614c578285614a1f565b8260208301529392505050565b60808101614c728287614a1f565b84602083015283604083015282606083015295945050505050565b6101608101614c9c828e614a1f565b602082019b909b5260408101999099526060890197909752608088019590955260a087019390935260c086019190915260e08501526001600160a01b0316610100840152610120830152151561014090910152919050565b6101208101614d03828c614a1f565b602082019990995260408101979097526060870195909552608086019390935260a085019190915260c084015260e0830152151561010090910152919050565b6060808252600890820152671cddd85c10d85c9960c21b60808201526020810192909252604082015260a00190565b6020808252601a908201527f4d6f6e74792048616c6c206f7074696f6e206e6f742075736564000000000000604082015260600190565b6020808252601690820152754e6f7420726567697374726174696f6e20737461746560501b604082015260600190565b60208082526010908201526f1419595ac81c1a185cd948195b99195960821b604082015260600190565b6020808252818101527f4d6f6e74792048616c6c206361726420616c72656164792061737369676e6564604082015260600190565b60208082526017908201527f4e6f2061637469766520706c617965727320666f756e64000000000000000000604082015260600190565b6020808252601190820152702737ba1030b1ba34bb3290383630bcb2b960791b604082015260600190565b6020808252601e908201527f416c72656164792075736564204d6f6e74792048616c6c206f7074696f6e0000604082015260600190565b602080825260129082015271496e73756666696369656e7420636869707360701b604082015260600190565b6020808252600a90820152692737ba1035b2b2b832b960b11b604082015260600190565b6020808252601d908201527f496e76616c6964204d6f6e74792048616c6c206361726420696e646578000000604082015260600190565b602080825260169082015275135d5cdd081b585d18da0818dd5c9c995b9d0818995d60521b604082015260600190565b6020808252600f908201526e4e65656420322b20706c617965727360881b604082015260600190565b6020808252601190820152704e6f742062657474696e6720706861736560781b604082015260600190565b6020808252601b908201527f4e6f20617661696c61626c6520636172647320666f7220737761700000000000604082015260600190565b6020808252601d908201527f4e657720636172642077617320616c72656164792072657665616c6564000000604082015260600190565b606080825260049082015263199bdb1960e21b60808201526020810192909252604082015260a00190565b6020808252600e908201526d4e6f74207065656b20706861736560901b604082015260600190565b60208082526018908201527f506c6179657220616c726561647920696e20612067616d650000000000000000604082015260600190565b6020808252600e908201526d11d85b59481b9bdd08199bdd5b9960921b604082015260600190565b60208082526010908201526f4e6f7420696e20746869732067616d6560801b604082015260600190565b6060808252600890820152671ad9595c10d85c9960c21b60808201526020810192909252604082015260a00190565b60608082526003908201526218995d60ea1b60808201526020810192909252604082015260a00190565b60208082526009908201526811d85b5948199d5b1b60ba1b604082015260600190565b6060808252600590820152646c6561766560d81b60808201526020810192909252604082015260a00190565b60208082526010908201526f125b88189d5999995c881c195c9a5bd960821b604082015260600190565b6020808252600990820152682737ba1037bbb732b960b91b604082015260600190565b6020808252600d908201526c10995d081d1bdbc81cdb585b1b609a1b604082015260600190565b6020808252818101527f4d6f6e74792048616c6c206361726420616c72656164792072657665616c6564604082015260600190565b6020808252601a908201527f42657474696e67207068617365206e6f742066696e6973686564000000000000604082015260600190565b60208082526016908201527510d85c991cc81b9bdd081e595d081c995d99585b195960521b604082015260600190565b602080825260169082015275092dcecc2d8d2c840dccaee40c6c2e4c840d2dcc8caf60531b604082015260600190565b6060808252600490820152637065656b60e01b60808201526020810192909252604082015260a00190565b6020808252600e908201526d105b1c9958591e48199bdb19195960921b604082015260600190565b602080825260119082015270416c726561647920696e20612067616d6560781b604082015260600190565b6060808252600990820152681b5bdb9d1e52185b1b60ba1b60808201526020810192909252604082015260a00190565b60208082526017908201527f47616d6520616c726561647920636c65616e6564207570000000000000000000604082015260600190565b6020808252600e908201526d105b1c9958591e481c19595ad95960921b604082015260600190565b60208082526019908201527f4e6577206361726420616c72656164792061737369676e656400000000000000604082015260600190565b60208082526014908201527311d85b5948185b1c9958591e481cdd185c9d195960621b604082015260600190565b6020808252600e908201526d11d85b59481b9bdd08195b99195960921b604082015260600190565b60208082526013908201527210995d1d1a5b99c81c1a185cd948195b991959606a1b604082015260600190565b60208082526017908201527f5065656b207068617365206e6f742066696e6973686564000000000000000000604082015260600190565b90815260200190565b60ff92831681529116602082015260400190565b60ff948516815292841660208401529083166040830152909116606082015260800190565b6000821982111561556157615561615675565b500190565b600061ffff8381169083168181101561558157615581615675565b039392505050565b60008282101561559b5761559b615675565b500390565b600060ff821660ff8416808210156155ba576155ba615675565b90039392505050565b600061ffff8216806155d7576155d7615675565b6000190192915050565b6000816155f0576155f0615675565b506000190190565b600061ffff8083168181141561561057615610615675565b6001019392505050565b600060001982141561562e5761562e615675565b5060010190565b600060ff821660ff81141561564c5761564c615675565b60010192915050565b60008261567057634e487b7160e01b81526012600452602481fd5b500690565b634e487b7160e01b600052601160045260246000fdfe0607341721701a494da2223ee353609ce7a0d98c9c7a4f0d8f7e88da11755e8c6f602f6212c12f2ee3d71aed536ee490592c8c673758d935d479b147252d0434a2646970667358221220fdd37bee183c8b5add7ee2359c01048b8242f1fe7d0d8517bf8024959246564f64736f6c63430008000033","opcodes":"PUSH1 0xA0 PUSH1 0x40 MSTORE CALLVALUE DUP1 ISZERO PUSH2 0x10 JUMPI PUSH1 0x0 DUP1 REVERT JUMPDEST POP CALLER PUSH1 0x60 DUP2 SWAP1 SHL PUSH1 0x80 MSTORE PUSH1 0x0 DUP2 DUP2 MSTORE PUSH1 0x6 PUSH1 0x20 SWAP1 DUP2 MSTORE PUSH1 0x40 DUP1 DUP4 KECCAK256 DUP1 SLOAD PUSH1 0x1 PUSH1 0xFF NOT SWAP2 DUP3 AND DUP2 OR SWAP1 SWAP3 SSTORE SWAP3 DUP5 SWAP1 MSTORE SWAP1 DUP4 KECCAK256 DUP1 SLOAD SWAP1 SWAP3 AND DUP2 OR SWAP1 SWAP2 SSTORE DUP1 SLOAD DUP1 DUP3 ADD DUP3 SSTORE SWAP1 DUP3 MSTORE PUSH32 0xB10E2D527612073B26EECDFD717E6A320CF44B4AFAC2B0732D9FCBE2B7FA0CF6 ADD DUP1 SLOAD PUSH1 0x1 PUSH1 0x1 PUSH1 0xA0 SHL SUB NOT AND DUP4 OR SWAP1 SSTORE PUSH2 0x5701 SWAP1 PUSH3 0xBC SWAP1 CODECOPY PUSH1 0x0 DUP2 DUP2 PUSH2 0xCAC ADD MSTORE DUP2 DUP2 PUSH2 0x1C83 ADD MSTORE DUP2 DUP2 PUSH2 0x2386 ADD MSTORE DUP2 DUP2 PUSH2 0x2545 ADD MSTORE PUSH2 0x35D2 ADD MSTORE PUSH2 0x5701 PUSH1 0x0 RETURN INVALID PUSH1 0x80 PUSH1 0x40 MSTORE CALLVALUE DUP1 ISZERO PUSH2 0x10 JUMPI PUSH1 0x0 DUP1 REVERT JUMPDEST POP PUSH1 0x4 CALLDATASIZE LT PUSH2 0x1DA JUMPI PUSH1 0x0 CALLDATALOAD PUSH1 0xE0 SHR DUP1 PUSH4 0x47E1D550 GT PUSH2 0x104 JUMPI DUP1 PUSH4 0x9DB800A6 GT PUSH2 0xA2 JUMPI DUP1 PUSH4 0xBFF7A00B GT PUSH2 0x71 JUMPI DUP1 PUSH4 0xBFF7A00B EQ PUSH2 0x444 JUMPI DUP1 PUSH4 0xEFAA55A0 EQ PUSH2 0x457 JUMPI DUP1 PUSH4 0xF0344E36 EQ PUSH2 0x46A JUMPI DUP1 PUSH4 0xF62A1A98 EQ PUSH2 0x492 JUMPI PUSH2 0x1DA JUMP JUMPDEST DUP1 PUSH4 0x9DB800A6 EQ PUSH2 0x3E6 JUMPI DUP1 PUSH4 0xA410274C EQ PUSH2 0x40B JUMPI DUP1 PUSH4 0xB419F9AB EQ PUSH2 0x41E JUMPI DUP1 PUSH4 0xBA3A9520 EQ PUSH2 0x431 JUMPI PUSH2 0x1DA JUMP JUMPDEST DUP1 PUSH4 0x7255D729 GT PUSH2 0xDE JUMPI DUP1 PUSH4 0x7255D729 EQ PUSH2 0x396 JUMPI DUP1 PUSH4 0x8401F8D1 EQ PUSH2 0x3AB JUMPI DUP1 PUSH4 0x8DA5CB5B EQ PUSH2 0x3BE JUMPI DUP1 PUSH4 0x9D36AC19 EQ PUSH2 0x3D3 JUMPI PUSH2 0x1DA JUMP JUMPDEST DUP1 PUSH4 0x47E1D550 EQ PUSH2 0x346 JUMPI DUP1 PUSH4 0x4AFE62B5 EQ PUSH2 0x370 JUMPI DUP1 PUSH4 0x6BA42AAA EQ PUSH2 0x383 JUMPI PUSH2 0x1DA JUMP JUMPDEST DUP1 PUSH4 0x318FF5D1 GT PUSH2 0x17C JUMPI DUP1 PUSH4 0x3CCD10E9 GT PUSH2 0x14B JUMPI DUP1 PUSH4 0x3CCD10E9 EQ PUSH2 0x2E6 JUMPI DUP1 PUSH4 0x3FEEF58A EQ PUSH2 0x30D JUMPI DUP1 PUSH4 0x4032B72B EQ PUSH2 0x320 JUMPI DUP1 PUSH4 0x460E2049 EQ PUSH2 0x333 JUMPI PUSH2 0x1DA JUMP JUMPDEST DUP1 PUSH4 0x318FF5D1 EQ PUSH2 0x271 JUMPI DUP1 PUSH4 0x342ED956 EQ PUSH2 0x284 JUMPI DUP1 PUSH4 0x35AC8A47 EQ PUSH2 0x2A4 JUMPI DUP1 PUSH4 0x3AF32ABF EQ PUSH2 0x2C6 JUMPI PUSH2 0x1DA JUMP JUMPDEST DUP1 PUSH4 0x14AE9F2E GT PUSH2 0x1B8 JUMPI DUP1 PUSH4 0x14AE9F2E EQ PUSH2 0x21A JUMPI DUP1 PUSH4 0x1B76929C EQ PUSH2 0x22D JUMPI DUP1 PUSH4 0x1F452A08 EQ PUSH2 0x24B JUMPI DUP1 PUSH4 0x30BE62B2 EQ PUSH2 0x25E JUMPI PUSH2 0x1DA JUMP JUMPDEST DUP1 PUSH4 0x1E09CD8 EQ PUSH2 0x1DF JUMPI DUP1 PUSH4 0x9734764 EQ PUSH2 0x1F4 JUMPI DUP1 PUSH4 0xAA40018 EQ PUSH2 0x207 JUMPI JUMPDEST PUSH1 0x0 DUP1 REVERT JUMPDEST PUSH2 0x1F2 PUSH2 0x1ED CALLDATASIZE PUSH1 0x4 PUSH2 0x48F6 JUMP JUMPDEST PUSH2 0x4A5 JUMP JUMPDEST STOP JUMPDEST PUSH2 0x1F2 PUSH2 0x202 CALLDATASIZE PUSH1 0x4 PUSH2 0x48B3 JUMP JUMPDEST PUSH2 0x8D3 JUMP JUMPDEST PUSH2 0x1F2 PUSH2 0x215 CALLDATASIZE PUSH1 0x4 PUSH2 0x48B3 JUMP JUMPDEST PUSH2 0xABD JUMP JUMPDEST PUSH2 0x1F2 PUSH2 0x228 CALLDATASIZE PUSH1 0x4 PUSH2 0x482A JUMP JUMPDEST PUSH2 0xCA1 JUMP JUMPDEST PUSH2 0x235 PUSH2 0xD0A JUMP JUMPDEST PUSH1 0x40 MLOAD PUSH2 0x242 SWAP2 SWAP1 PUSH2 0x4BAA JUMP JUMPDEST PUSH1 0x40 MLOAD DUP1 SWAP2 SUB SWAP1 RETURN JUMPDEST PUSH2 0x1F2 PUSH2 0x259 CALLDATASIZE PUSH1 0x4 PUSH2 0x48B3 JUMP JUMPDEST PUSH2 0xD62 JUMP JUMPDEST PUSH2 0x1F2 PUSH2 0x26C CALLDATASIZE PUSH1 0x4 PUSH2 0x48B3 JUMP JUMPDEST PUSH2 0xF67 JUMP JUMPDEST PUSH2 0x1F2 PUSH2 0x27F CALLDATASIZE PUSH1 0x4 PUSH2 0x48B3 JUMP JUMPDEST PUSH2 0x1080 JUMP JUMPDEST PUSH2 0x297 PUSH2 0x292 CALLDATASIZE PUSH1 0x4 PUSH2 0x48B3 JUMP JUMPDEST PUSH2 0x1333 JUMP JUMPDEST PUSH1 0x40 MLOAD PUSH2 0x242 SWAP2 SWAP1 PUSH2 0x4AD2 JUMP JUMPDEST PUSH2 0x2B7 PUSH2 0x2B2 CALLDATASIZE PUSH1 0x4 PUSH2 0x48B3 JUMP JUMPDEST PUSH2 0x14BA JUMP JUMPDEST PUSH1 0x40 MLOAD PUSH2 0x242 SWAP4 SWAP3 SWAP2 SWAP1 PUSH2 0x4B67 JUMP JUMPDEST PUSH2 0x2D9 PUSH2 0x2D4 CALLDATASIZE PUSH1 0x4 PUSH2 0x482A JUMP JUMPDEST PUSH2 0x18F1 JUMP JUMPDEST PUSH1 0x40 MLOAD PUSH2 0x242 SWAP2 SWAP1 PUSH2 0x4BEB JUMP JUMPDEST PUSH2 0x2F9 PUSH2 0x2F4 CALLDATASIZE PUSH1 0x4 PUSH2 0x48CB JUMP JUMPDEST PUSH2 0x1913 JUMP JUMPDEST PUSH1 0x40 MLOAD PUSH2 0x242 SWAP9 SWAP8 SWAP7 SWAP6 SWAP5 SWAP4 SWAP3 SWAP2 SWAP1 PUSH2 0x4BF6 JUMP JUMPDEST PUSH2 0x1F2 PUSH2 0x31B CALLDATASIZE PUSH1 0x4 PUSH2 0x48B3 JUMP JUMPDEST PUSH2 0x19C7 JUMP JUMPDEST PUSH2 0x1F2 PUSH2 0x32E CALLDATASIZE PUSH1 0x4 PUSH2 0x482A JUMP JUMPDEST PUSH2 0x1C78 JUMP JUMPDEST PUSH2 0x297 PUSH2 0x341 CALLDATASIZE PUSH1 0x4 PUSH2 0x48B3 JUMP JUMPDEST PUSH2 0x1CE4 JUMP JUMPDEST PUSH2 0x359 PUSH2 0x354 CALLDATASIZE PUSH1 0x4 PUSH2 0x48B3 JUMP JUMPDEST PUSH2 0x1D84 JUMP JUMPDEST PUSH1 0x40 MLOAD PUSH2 0x242 SWAP12 SWAP11 SWAP10 SWAP9 SWAP8 SWAP7 SWAP6 SWAP5 SWAP4 SWAP3 SWAP2 SWAP1 PUSH2 0x4C8D JUMP JUMPDEST PUSH2 0x1F2 PUSH2 0x37E CALLDATASIZE PUSH1 0x4 PUSH2 0x4929 JUMP JUMPDEST PUSH2 0x1E86 JUMP JUMPDEST PUSH2 0x2D9 PUSH2 0x391 CALLDATASIZE PUSH1 0x4 PUSH2 0x482A JUMP JUMPDEST PUSH2 0x215E JUMP JUMPDEST PUSH2 0x39E PUSH2 0x217C JUMP JUMPDEST PUSH1 0x40 MLOAD PUSH2 0x242 SWAP2 SWAP1 PUSH2 0x550C JUMP JUMPDEST PUSH2 0x1F2 PUSH2 0x3B9 CALLDATASIZE PUSH1 0x4 PUSH2 0x4844 JUMP JUMPDEST PUSH2 0x237B JUMP JUMPDEST PUSH2 0x3C6 PUSH2 0x2543 JUMP JUMPDEST PUSH1 0x40 MLOAD PUSH2 0x242 SWAP2 SWAP1 PUSH2 0x4A72 JUMP JUMPDEST PUSH2 0x1F2 PUSH2 0x3E1 CALLDATASIZE PUSH1 0x4 PUSH2 0x48CB JUMP JUMPDEST PUSH2 0x2567 JUMP JUMPDEST PUSH2 0x3F9 PUSH2 0x3F4 CALLDATASIZE PUSH1 0x4 PUSH2 0x48B3 JUMP JUMPDEST PUSH2 0x2753 JUMP JUMPDEST PUSH1 0x40 MLOAD PUSH2 0x242 SWAP7 SWAP6 SWAP5 SWAP4 SWAP3 SWAP2 SWAP1 PUSH2 0x4AE5 JUMP JUMPDEST PUSH2 0x39E PUSH2 0x419 CALLDATASIZE PUSH1 0x4 PUSH2 0x48B3 JUMP JUMPDEST PUSH2 0x2B2C JUMP JUMPDEST PUSH2 0x1F2 PUSH2 0x42C CALLDATASIZE PUSH1 0x4 PUSH2 0x48B3 JUMP JUMPDEST PUSH2 0x2B73 JUMP JUMPDEST PUSH2 0x2D9 PUSH2 0x43F CALLDATASIZE PUSH1 0x4 PUSH2 0x48B3 JUMP JUMPDEST PUSH2 0x2FE1 JUMP JUMPDEST PUSH2 0x1F2 PUSH2 0x452 CALLDATASIZE PUSH1 0x4 PUSH2 0x48B3 JUMP JUMPDEST PUSH2 0x311E JUMP JUMPDEST PUSH2 0x1F2 PUSH2 0x465 CALLDATASIZE PUSH1 0x4 PUSH2 0x48B3 JUMP JUMPDEST PUSH2 0x3379 JUMP JUMPDEST PUSH2 0x47D PUSH2 0x478 CALLDATASIZE PUSH1 0x4 PUSH2 0x48B3 JUMP JUMPDEST PUSH2 0x3523 JUMP JUMPDEST PUSH1 0x40 MLOAD PUSH2 0x242 SWAP10 SWAP9 SWAP8 SWAP7 SWAP6 SWAP5 SWAP4 SWAP3 SWAP2 SWAP1 PUSH2 0x4CF4 JUMP JUMPDEST PUSH2 0x1F2 PUSH2 0x4A0 CALLDATASIZE PUSH1 0x4 PUSH2 0x4844 JUMP JUMPDEST PUSH2 0x35C7 JUMP JUMPDEST PUSH1 0x0 DUP3 DUP2 MSTORE PUSH1 0x3 PUSH1 0x20 MSTORE PUSH1 0x40 SWAP1 KECCAK256 SLOAD DUP3 SWAP1 DUP2 EQ PUSH2 0x4DD JUMPI PUSH1 0x40 MLOAD PUSH3 0x461BCD PUSH1 0xE5 SHL DUP2 MSTORE PUSH1 0x4 ADD PUSH2 0x4D4 SWAP1 PUSH2 0x50D4 JUMP JUMPDEST PUSH1 0x40 MLOAD DUP1 SWAP2 SUB SWAP1 REVERT JUMPDEST PUSH1 0x0 DUP4 DUP2 MSTORE PUSH1 0x3 PUSH1 0x20 SWAP1 DUP2 MSTORE PUSH1 0x40 DUP1 DUP4 KECCAK256 CALLER DUP5 MSTORE PUSH1 0x4 ADD SWAP1 SWAP2 MSTORE SWAP1 KECCAK256 SLOAD DUP4 SWAP1 PUSH1 0xFF AND PUSH2 0x51B JUMPI PUSH1 0x40 MLOAD PUSH3 0x461BCD PUSH1 0xE5 SHL DUP2 MSTORE PUSH1 0x4 ADD PUSH2 0x4D4 SWAP1 PUSH2 0x4E6F JUMP JUMPDEST PUSH1 0x0 DUP5 DUP2 MSTORE PUSH1 0x3 PUSH1 0x20 MSTORE PUSH1 0x40 SWAP1 KECCAK256 PUSH1 0xC ADD SLOAD DUP5 SWAP1 TIMESTAMP LT ISZERO PUSH2 0x54E JUMPI PUSH1 0x40 MLOAD PUSH3 0x461BCD PUSH1 0xE5 SHL DUP2 MSTORE PUSH1 0x4 ADD PUSH2 0x4D4 SWAP1 PUSH2 0x51CE JUMP JUMPDEST PUSH1 0x0 DUP6 DUP2 MSTORE PUSH1 0x3 PUSH1 0x20 MSTORE PUSH1 0x40 SWAP1 KECCAK256 PUSH1 0xE ADD SLOAD DUP6 SWAP1 PUSH1 0xFF AND ISZERO PUSH2 0x582 JUMPI PUSH1 0x40 MLOAD PUSH3 0x461BCD PUSH1 0xE5 SHL DUP2 MSTORE PUSH1 0x4 ADD PUSH2 0x4D4 SWAP1 PUSH2 0x53BC JUMP JUMPDEST PUSH1 0x0 DUP7 DUP2 MSTORE PUSH1 0x3 PUSH1 0x20 SWAP1 DUP2 MSTORE PUSH1 0x40 DUP1 DUP4 KECCAK256 CALLER DUP5 MSTORE PUSH1 0x4 DUP2 ADD SWAP1 SWAP3 MSTORE SWAP1 SWAP2 KECCAK256 PUSH1 0x1 DUP1 DUP4 ADD SLOAD PUSH1 0xFF AND PUSH1 0x4 DUP2 GT ISZERO PUSH2 0x5C8 JUMPI PUSH4 0x4E487B71 PUSH1 0xE0 SHL PUSH1 0x0 MSTORE PUSH1 0x21 PUSH1 0x4 MSTORE PUSH1 0x24 PUSH1 0x0 REVERT JUMPDEST EQ PUSH2 0x5E5 JUMPI PUSH1 0x40 MLOAD PUSH3 0x461BCD PUSH1 0xE5 SHL DUP2 MSTORE PUSH1 0x4 ADD PUSH2 0x4D4 SWAP1 PUSH2 0x5075 JUMP JUMPDEST DUP2 PUSH1 0xB ADD SLOAD TIMESTAMP LT PUSH2 0x608 JUMPI PUSH1 0x40 MLOAD PUSH3 0x461BCD PUSH1 0xE5 SHL DUP2 MSTORE PUSH1 0x4 ADD PUSH2 0x4D4 SWAP1 PUSH2 0x4DD9 JUMP JUMPDEST DUP1 SLOAD PUSH3 0x10000 SWAP1 DIV PUSH1 0xFF AND PUSH2 0x62F JUMPI PUSH1 0x40 MLOAD PUSH3 0x461BCD PUSH1 0xE5 SHL DUP2 MSTORE PUSH1 0x4 ADD PUSH2 0x4D4 SWAP1 PUSH2 0x4D72 JUMP JUMPDEST PUSH1 0x4 DUP2 ADD DUP1 SLOAD PUSH1 0x1 ADD SWAP1 SSTORE DUP7 PUSH2 0x67D JUMPI TIMESTAMP PUSH1 0x3 DUP3 ADD SSTORE PUSH1 0x4 DUP2 ADD SLOAD PUSH1 0x40 MLOAD CALLER SWAP2 DUP11 SWAP2 PUSH1 0x0 DUP1 MLOAD PUSH1 0x20 PUSH2 0x56AC DUP4 CODECOPY DUP2 MLOAD SWAP2 MSTORE SWAP2 PUSH2 0x66E SWAP2 PUSH1 0x0 SWAP2 SWAP1 PUSH2 0x5126 JUMP JUMPDEST PUSH1 0x40 MLOAD DUP1 SWAP2 SUB SWAP1 LOG3 POP POP PUSH2 0x8CB JUMP JUMPDEST DUP1 SLOAD PUSH1 0x5 DUP4 ADD DUP1 SLOAD PUSH1 0x1 PUSH1 0x20 SHL SWAP1 SWAP3 DIV PUSH1 0xFF AND SWAP2 PUSH1 0x0 SWAP2 SWAP1 DUP4 SWAP1 DUP2 LT PUSH2 0x6B3 JUMPI PUSH4 0x4E487B71 PUSH1 0xE0 SHL PUSH1 0x0 MSTORE PUSH1 0x32 PUSH1 0x4 MSTORE PUSH1 0x24 PUSH1 0x0 REVERT JUMPDEST PUSH1 0x0 SWAP2 DUP3 MSTORE PUSH1 0x20 SWAP2 DUP3 SWAP1 KECCAK256 PUSH1 0x40 DUP1 MLOAD DUP1 DUP3 ADD SWAP1 SWAP2 MSTORE SWAP2 ADD SLOAD PUSH1 0xFF DUP1 DUP3 AND DUP4 MSTORE PUSH2 0x100 SWAP1 SWAP2 DIV AND SWAP2 DUP2 ADD SWAP2 SWAP1 SWAP2 MSTORE SWAP1 POP PUSH2 0x6EC DUP11 DUP4 PUSH2 0x371B JUMP JUMPDEST PUSH1 0x0 PUSH2 0x6F7 DUP12 PUSH2 0x3750 JUMP JUMPDEST SWAP1 POP PUSH1 0x0 DUP2 PUSH1 0xFF AND GT DUP1 ISZERO PUSH2 0x70F JUMPI POP PUSH1 0x34 PUSH1 0xFF DUP3 AND LT JUMPDEST PUSH2 0x72B JUMPI PUSH1 0x40 MLOAD PUSH3 0x461BCD PUSH1 0xE5 SHL DUP2 MSTORE PUSH1 0x4 ADD PUSH2 0x4D4 SWAP1 PUSH2 0x52DE JUMP JUMPDEST PUSH2 0x735 DUP12 DUP3 PUSH2 0x38AC JUMP JUMPDEST ISZERO PUSH2 0x752 JUMPI PUSH1 0x40 MLOAD PUSH3 0x461BCD PUSH1 0xE5 SHL DUP2 MSTORE PUSH1 0x4 ADD PUSH2 0x4D4 SWAP1 PUSH2 0x541B JUMP JUMPDEST PUSH2 0x75C DUP12 DUP3 PUSH2 0x38CF JUMP JUMPDEST ISZERO PUSH2 0x779 JUMPI PUSH1 0x40 MLOAD PUSH3 0x461BCD PUSH1 0xE5 SHL DUP2 MSTORE PUSH1 0x4 ADD PUSH2 0x4D4 SWAP1 PUSH2 0x5013 JUMP JUMPDEST PUSH2 0x783 DUP12 DUP3 PUSH2 0x38EB JUMP JUMPDEST DUP4 SLOAD PUSH5 0xFF00000000 NOT AND PUSH1 0x1 PUSH1 0x20 SHL PUSH1 0xFF DUP4 AND SWAP1 DUP2 MUL SWAP2 SWAP1 SWAP2 OR DUP6 SSTORE TIMESTAMP PUSH1 0x3 DUP7 ADD SSTORE PUSH1 0x5 DUP7 ADD DUP1 SLOAD PUSH1 0x0 SWAP3 SWAP1 DUP2 LT PUSH2 0x7CB JUMPI PUSH4 0x4E487B71 PUSH1 0xE0 SHL PUSH1 0x0 MSTORE PUSH1 0x32 PUSH1 0x4 MSTORE PUSH1 0x24 PUSH1 0x0 REVERT JUMPDEST PUSH1 0x0 SWAP2 DUP3 MSTORE PUSH1 0x20 SWAP2 DUP3 SWAP1 KECCAK256 PUSH1 0x40 DUP1 MLOAD DUP1 DUP3 ADD DUP3 MSTORE SWAP3 SWAP1 SWAP2 ADD SLOAD PUSH1 0xFF DUP1 DUP3 AND DUP1 DUP6 MSTORE PUSH2 0x100 SWAP1 SWAP3 DIV AND DUP4 DUP6 ADD DUP2 SWAP1 MSTORE DUP8 MLOAD SWAP5 DUP9 ADD MLOAD SWAP3 MLOAD SWAP4 SWAP6 POP CALLER SWAP5 PUSH32 0xCB7B1C01CA784066A42B03D3C78F5F655174C000DA4C11E15FF44C5E56FB2374 SWAP5 PUSH2 0x836 SWAP5 SWAP2 SWAP4 SWAP2 SWAP3 SWAP1 PUSH2 0x5529 JUMP JUMPDEST PUSH1 0x40 MLOAD DUP1 SWAP2 SUB SWAP1 LOG2 DUP5 SLOAD PUSH2 0x100 SWAP1 DIV PUSH1 0xFF AND ISZERO PUSH2 0x88D JUMPI DUP1 MLOAD PUSH1 0x20 DUP3 ADD MLOAD PUSH1 0x40 MLOAD CALLER SWAP3 PUSH32 0xE1299F54CCE9BBBB7B050A7A2E071F3272E75F57D041E1CFB8CC88969634CF06 SWAP3 PUSH2 0x884 SWAP3 PUSH2 0x5515 JUMP JUMPDEST PUSH1 0x40 MLOAD DUP1 SWAP2 SUB SWAP1 LOG2 JUMPDEST CALLER PUSH1 0x1 PUSH1 0x1 PUSH1 0xA0 SHL SUB AND DUP13 PUSH1 0x0 DUP1 MLOAD PUSH1 0x20 PUSH2 0x56AC DUP4 CODECOPY DUP2 MLOAD SWAP2 MSTORE PUSH1 0x0 DUP9 PUSH1 0x4 ADD SLOAD PUSH1 0x40 MLOAD PUSH2 0x8BC SWAP3 SWAP2 SWAP1 PUSH2 0x4D43 JUMP JUMPDEST PUSH1 0x40 MLOAD DUP1 SWAP2 SUB SWAP1 LOG3 POP POP POP POP POP POP JUMPDEST POP POP POP POP POP POP JUMP JUMPDEST CALLER PUSH1 0x0 SWAP1 DUP2 MSTORE PUSH1 0x6 PUSH1 0x20 MSTORE PUSH1 0x40 SWAP1 KECCAK256 SLOAD PUSH1 0xFF AND PUSH2 0x902 JUMPI PUSH1 0x40 MLOAD PUSH3 0x461BCD PUSH1 0xE5 SHL DUP2 MSTORE PUSH1 0x4 ADD PUSH2 0x4D4 SWAP1 PUSH2 0x4EFD JUMP JUMPDEST PUSH1 0x0 DUP2 DUP2 MSTORE PUSH1 0x3 PUSH1 0x20 MSTORE PUSH1 0x40 SWAP1 KECCAK256 SLOAD DUP2 SWAP1 DUP2 EQ PUSH2 0x931 JUMPI PUSH1 0x40 MLOAD PUSH3 0x461BCD PUSH1 0xE5 SHL DUP2 MSTORE PUSH1 0x4 ADD PUSH2 0x4D4 SWAP1 PUSH2 0x50D4 JUMP JUMPDEST PUSH1 0x0 DUP3 DUP2 MSTORE PUSH1 0x3 PUSH1 0x20 MSTORE PUSH1 0x40 SWAP1 KECCAK256 PUSH1 0xE ADD SLOAD DUP3 SWAP1 PUSH1 0xFF AND ISZERO PUSH2 0x965 JUMPI PUSH1 0x40 MLOAD PUSH3 0x461BCD PUSH1 0xE5 SHL DUP2 MSTORE PUSH1 0x4 ADD PUSH2 0x4D4 SWAP1 PUSH2 0x53BC JUMP JUMPDEST PUSH1 0x0 DUP4 DUP2 MSTORE PUSH1 0x3 PUSH1 0x20 MSTORE PUSH1 0x40 SWAP1 KECCAK256 PUSH1 0x1 DUP1 DUP3 ADD SLOAD PUSH1 0xFF AND PUSH1 0x4 DUP2 GT ISZERO PUSH2 0x99B JUMPI PUSH4 0x4E487B71 PUSH1 0xE0 SHL PUSH1 0x0 MSTORE PUSH1 0x21 PUSH1 0x4 MSTORE PUSH1 0x24 PUSH1 0x0 REVERT JUMPDEST EQ PUSH2 0x9B8 JUMPI PUSH1 0x40 MLOAD PUSH3 0x461BCD PUSH1 0xE5 SHL DUP2 MSTORE PUSH1 0x4 ADD PUSH2 0x4D4 SWAP1 PUSH2 0x5075 JUMP JUMPDEST DUP1 PUSH1 0xB ADD SLOAD TIMESTAMP LT ISZERO PUSH2 0x9DC JUMPI PUSH1 0x40 MLOAD PUSH3 0x461BCD PUSH1 0xE5 SHL DUP2 MSTORE PUSH1 0x4 ADD PUSH2 0x4D4 SWAP1 PUSH2 0x54D5 JUMP JUMPDEST PUSH2 0x9E7 PUSH1 0x1E TIMESTAMP PUSH2 0x554E JUMP JUMPDEST PUSH1 0xC DUP3 ADD DUP2 SWAP1 SSTORE PUSH2 0x9FB SWAP1 PUSH2 0x12C SWAP1 PUSH2 0x554E JUMP JUMPDEST PUSH1 0xB DUP3 ADD SSTORE PUSH1 0x1 DUP2 ADD DUP1 SLOAD PUSH1 0xFF NOT AND PUSH1 0x2 OR SWAP1 SSTORE PUSH2 0xA18 DUP5 PUSH2 0x3907 JUMP JUMPDEST DUP4 PUSH32 0xF732482EA8C744F957EF9B24C1E98E8ADD28A3E5DC3DEEDC3E8419F527C19B98 PUSH1 0x1 PUSH1 0x2 PUSH1 0x40 MLOAD PUSH2 0xA4C SWAP3 SWAP2 SWAP1 PUSH2 0x4C2E JUMP JUMPDEST PUSH1 0x40 MLOAD DUP1 SWAP2 SUB SWAP1 LOG2 PUSH1 0x8 DUP2 ADD SLOAD PUSH1 0x9 DUP3 ADD SLOAD PUSH1 0xD DUP4 ADD SLOAD PUSH1 0x40 MLOAD DUP8 SWAP4 PUSH1 0x0 DUP1 MLOAD PUSH1 0x20 PUSH2 0x568C DUP4 CODECOPY DUP2 MLOAD SWAP2 MSTORE SWAP4 PUSH2 0xA84 SWAP4 PUSH1 0x2 SWAP4 PUSH2 0x4C64 JUMP JUMPDEST PUSH1 0x40 MLOAD DUP1 SWAP2 SUB SWAP1 LOG2 PUSH1 0x40 MLOAD DUP5 SWAP1 PUSH32 0x359AD7E63DB5F06F70341A18E68DBA0EF153EF9ADBFF2AF9293FC13DAF6FC095 SWAP1 PUSH1 0x0 SWAP1 LOG2 POP POP POP POP JUMP JUMPDEST CALLER PUSH1 0x0 SWAP1 DUP2 MSTORE PUSH1 0x6 PUSH1 0x20 MSTORE PUSH1 0x40 SWAP1 KECCAK256 SLOAD PUSH1 0xFF AND PUSH2 0xAEC JUMPI PUSH1 0x40 MLOAD PUSH3 0x461BCD PUSH1 0xE5 SHL DUP2 MSTORE PUSH1 0x4 ADD PUSH2 0x4D4 SWAP1 PUSH2 0x4EFD JUMP JUMPDEST PUSH1 0x0 DUP2 DUP2 MSTORE PUSH1 0x3 PUSH1 0x20 MSTORE PUSH1 0x40 SWAP1 KECCAK256 SLOAD DUP2 SWAP1 DUP2 EQ PUSH2 0xB1B JUMPI PUSH1 0x40 MLOAD PUSH3 0x461BCD PUSH1 0xE5 SHL DUP2 MSTORE PUSH1 0x4 ADD PUSH2 0x4D4 SWAP1 PUSH2 0x50D4 JUMP JUMPDEST PUSH1 0x0 DUP3 DUP2 MSTORE PUSH1 0x3 PUSH1 0x20 MSTORE PUSH1 0x40 SWAP1 KECCAK256 PUSH1 0xE ADD SLOAD DUP3 SWAP1 PUSH1 0xFF AND ISZERO PUSH2 0xB4F JUMPI PUSH1 0x40 MLOAD PUSH3 0x461BCD PUSH1 0xE5 SHL DUP2 MSTORE PUSH1 0x4 ADD PUSH2 0x4D4 SWAP1 PUSH2 0x53BC JUMP JUMPDEST PUSH1 0x0 DUP4 DUP2 MSTORE PUSH1 0x3 PUSH1 0x20 MSTORE PUSH1 0x40 SWAP1 KECCAK256 PUSH1 0x4 PUSH1 0x1 DUP3 ADD SLOAD PUSH1 0xFF AND PUSH1 0x4 DUP2 GT ISZERO PUSH2 0xB86 JUMPI PUSH4 0x4E487B71 PUSH1 0xE0 SHL PUSH1 0x0 MSTORE PUSH1 0x21 PUSH1 0x4 MSTORE PUSH1 0x24 PUSH1 0x0 REVERT JUMPDEST EQ PUSH2 0xBA3 JUMPI PUSH1 0x40 MLOAD PUSH3 0x461BCD PUSH1 0xE5 SHL DUP2 MSTORE PUSH1 0x4 ADD PUSH2 0x4D4 SWAP1 PUSH2 0x5480 JUMP JUMPDEST PUSH1 0x0 JUMPDEST PUSH1 0x2 DUP3 ADD SLOAD DUP2 LT ISZERO PUSH2 0xC0C JUMPI PUSH1 0x0 DUP3 PUSH1 0x2 ADD DUP3 DUP2 SLOAD DUP2 LT PUSH2 0xBD7 JUMPI PUSH4 0x4E487B71 PUSH1 0xE0 SHL PUSH1 0x0 MSTORE PUSH1 0x32 PUSH1 0x4 MSTORE PUSH1 0x24 PUSH1 0x0 REVERT JUMPDEST PUSH1 0x0 SWAP2 DUP3 MSTORE PUSH1 0x20 DUP1 DUP4 KECCAK256 SWAP1 SWAP2 ADD SLOAD PUSH1 0x1 PUSH1 0x1 PUSH1 0xA0 SHL SUB AND DUP3 MSTORE PUSH1 0x4 SWAP1 MSTORE PUSH1 0x40 DUP2 KECCAK256 SSTORE POP DUP1 PUSH2 0xC04 DUP2 PUSH2 0x561A JUMP JUMPDEST SWAP2 POP POP PUSH2 0xBA6 JUMP JUMPDEST POP PUSH1 0xE DUP2 ADD DUP1 SLOAD PUSH1 0xFF NOT AND PUSH1 0x1 OR SWAP1 SSTORE PUSH2 0xC25 DUP5 PUSH2 0x3907 JUMP JUMPDEST PUSH2 0xC2E DUP5 PUSH2 0x3921 JUMP JUMPDEST PUSH1 0x40 MLOAD DUP5 SWAP1 PUSH32 0x35EA2F3C57B868DE0F382FD562B24E0F9EF801F09C99190222DF2CD1D4D6DDEA SWAP1 PUSH1 0x0 SWAP1 LOG2 PUSH1 0x1 DUP2 ADD SLOAD PUSH1 0x8 DUP3 ADD SLOAD PUSH1 0x9 DUP4 ADD SLOAD PUSH1 0xD DUP5 ADD SLOAD PUSH1 0x40 MLOAD DUP9 SWAP5 PUSH1 0x0 DUP1 MLOAD PUSH1 0x20 PUSH2 0x568C DUP4 CODECOPY DUP2 MLOAD SWAP2 MSTORE SWAP5 PUSH2 0xC93 SWAP5 PUSH1 0xFF SWAP1 SWAP3 AND SWAP4 SWAP1 SWAP3 PUSH2 0x4C64 JUMP JUMPDEST PUSH1 0x40 MLOAD DUP1 SWAP2 SUB SWAP1 LOG2 POP POP POP POP JUMP JUMPDEST CALLER PUSH1 0x1 PUSH1 0x1 PUSH1 0xA0 SHL SUB PUSH32 0x0 AND EQ PUSH2 0xCE9 JUMPI PUSH1 0x40 MLOAD PUSH3 0x461BCD PUSH1 0xE5 SHL DUP2 MSTORE PUSH1 0x4 ADD PUSH2 0x4D4 SWAP1 PUSH2 0x51F8 JUMP JUMPDEST PUSH1 0x1 PUSH1 0x1 PUSH1 0xA0 SHL SUB AND PUSH1 0x0 SWAP1 DUP2 MSTORE PUSH1 0x6 PUSH1 0x20 MSTORE PUSH1 0x40 SWAP1 KECCAK256 DUP1 SLOAD PUSH1 0xFF NOT AND SWAP1 SSTORE JUMP JUMPDEST PUSH1 0x60 PUSH1 0x5 DUP1 SLOAD DUP1 PUSH1 0x20 MUL PUSH1 0x20 ADD PUSH1 0x40 MLOAD SWAP1 DUP2 ADD PUSH1 0x40 MSTORE DUP1 SWAP3 SWAP2 SWAP1 DUP2 DUP2 MSTORE PUSH1 0x20 ADD DUP3 DUP1 SLOAD DUP1 ISZERO PUSH2 0xD58 JUMPI PUSH1 0x20 MUL DUP3 ADD SWAP2 SWAP1 PUSH1 0x0 MSTORE PUSH1 0x20 PUSH1 0x0 KECCAK256 SWAP1 JUMPDEST DUP2 SLOAD DUP2 MSTORE PUSH1 0x20 ADD SWAP1 PUSH1 0x1 ADD SWAP1 DUP1 DUP4 GT PUSH2 0xD44 JUMPI JUMPDEST POP POP POP POP POP SWAP1 POP SWAP1 JUMP JUMPDEST CALLER PUSH1 0x0 SWAP1 DUP2 MSTORE PUSH1 0x6 PUSH1 0x20 MSTORE PUSH1 0x40 SWAP1 KECCAK256 SLOAD PUSH1 0xFF AND PUSH2 0xD91 JUMPI PUSH1 0x40 MLOAD PUSH3 0x461BCD PUSH1 0xE5 SHL DUP2 MSTORE PUSH1 0x4 ADD PUSH2 0x4D4 SWAP1 PUSH2 0x4EFD JUMP JUMPDEST PUSH1 0x0 DUP2 DUP2 MSTORE PUSH1 0x3 PUSH1 0x20 MSTORE PUSH1 0x40 SWAP1 KECCAK256 SLOAD DUP2 SWAP1 DUP2 EQ PUSH2 0xDC0 JUMPI PUSH1 0x40 MLOAD PUSH3 0x461BCD PUSH1 0xE5 SHL DUP2 MSTORE PUSH1 0x4 ADD PUSH2 0x4D4 SWAP1 PUSH2 0x50D4 JUMP JUMPDEST PUSH1 0x0 DUP3 DUP2 MSTORE PUSH1 0x3 PUSH1 0x20 MSTORE PUSH1 0x40 SWAP1 KECCAK256 PUSH1 0xE ADD SLOAD DUP3 SWAP1 PUSH1 0xFF AND ISZERO PUSH2 0xDF4 JUMPI PUSH1 0x40 MLOAD PUSH3 0x461BCD PUSH1 0xE5 SHL DUP2 MSTORE PUSH1 0x4 ADD PUSH2 0x4D4 SWAP1 PUSH2 0x53BC JUMP JUMPDEST PUSH1 0x0 DUP4 DUP2 MSTORE PUSH1 0x3 PUSH1 0x20 MSTORE PUSH1 0x40 DUP2 KECCAK256 SWAP1 PUSH1 0x1 DUP3 ADD SLOAD PUSH1 0xFF AND PUSH1 0x4 DUP2 GT ISZERO PUSH2 0xE2A JUMPI PUSH4 0x4E487B71 PUSH1 0xE0 SHL PUSH1 0x0 MSTORE PUSH1 0x21 PUSH1 0x4 MSTORE PUSH1 0x24 PUSH1 0x0 REVERT JUMPDEST EQ PUSH2 0xE47 JUMPI PUSH1 0x40 MLOAD PUSH3 0x461BCD PUSH1 0xE5 SHL DUP2 MSTORE PUSH1 0x4 ADD PUSH2 0x4D4 SWAP1 PUSH2 0x4DA9 JUMP JUMPDEST PUSH1 0x2 DUP2 DUP2 ADD SLOAD LT ISZERO PUSH2 0xE6B JUMPI PUSH1 0x40 MLOAD PUSH3 0x461BCD PUSH1 0xE5 SHL DUP2 MSTORE PUSH1 0x4 ADD PUSH2 0x4D4 SWAP1 PUSH2 0x4F88 JUMP JUMPDEST PUSH2 0xE76 PUSH1 0x1E TIMESTAMP PUSH2 0x554E JUMP JUMPDEST PUSH1 0xC DUP3 ADD DUP2 SWAP1 SSTORE PUSH2 0xE89 SWAP1 PUSH1 0x78 SWAP1 PUSH2 0x554E JUMP JUMPDEST PUSH1 0xB DUP3 ADD SSTORE PUSH1 0x1 DUP1 DUP3 ADD DUP1 SLOAD PUSH1 0xFF NOT AND SWAP1 SWAP2 OR SWAP1 SSTORE PUSH2 0xEA7 DUP5 PUSH2 0x3A17 JUMP JUMPDEST PUSH2 0xEB0 DUP5 PUSH2 0x3B9F JUMP JUMPDEST PUSH2 0xEB9 DUP5 PUSH2 0x3C4F JUMP JUMPDEST PUSH2 0xEC2 DUP5 PUSH2 0x3907 JUMP JUMPDEST DUP4 PUSH32 0xF732482EA8C744F957EF9B24C1E98E8ADD28A3E5DC3DEEDC3E8419F527C19B98 PUSH1 0x0 PUSH1 0x1 PUSH1 0x40 MLOAD PUSH2 0xEF6 SWAP3 SWAP2 SWAP1 PUSH2 0x4C2E JUMP JUMPDEST PUSH1 0x40 MLOAD DUP1 SWAP2 SUB SWAP1 LOG2 PUSH1 0x8 DUP2 ADD SLOAD PUSH1 0x9 DUP3 ADD SLOAD PUSH1 0xD DUP4 ADD SLOAD PUSH1 0x40 MLOAD DUP8 SWAP4 PUSH1 0x0 DUP1 MLOAD PUSH1 0x20 PUSH2 0x568C DUP4 CODECOPY DUP2 MLOAD SWAP2 MSTORE SWAP4 PUSH2 0xF2E SWAP4 PUSH1 0x1 SWAP4 PUSH2 0x4C64 JUMP JUMPDEST PUSH1 0x40 MLOAD DUP1 SWAP2 SUB SWAP1 LOG2 PUSH1 0x40 MLOAD DUP5 SWAP1 PUSH32 0x1A2BA96BF245728C460E13D78A1591BCB45E67DE1240B6654190F8C0BBDD0700 SWAP1 PUSH1 0x0 SWAP1 LOG2 POP POP POP POP JUMP JUMPDEST CALLER PUSH1 0x0 SWAP1 DUP2 MSTORE PUSH1 0x6 PUSH1 0x20 MSTORE PUSH1 0x40 SWAP1 KECCAK256 SLOAD PUSH1 0xFF AND PUSH2 0xF96 JUMPI PUSH1 0x40 MLOAD PUSH3 0x461BCD PUSH1 0xE5 SHL DUP2 MSTORE PUSH1 0x4 ADD PUSH2 0x4D4 SWAP1 PUSH2 0x4EFD JUMP JUMPDEST PUSH1 0x0 DUP2 DUP2 MSTORE PUSH1 0x3 PUSH1 0x20 MSTORE PUSH1 0x40 SWAP1 KECCAK256 SLOAD DUP2 SWAP1 DUP2 EQ PUSH2 0xFC5 JUMPI PUSH1 0x40 MLOAD PUSH3 0x461BCD PUSH1 0xE5 SHL DUP2 MSTORE PUSH1 0x4 ADD PUSH2 0x4D4 SWAP1 PUSH2 0x50D4 JUMP JUMPDEST PUSH1 0x0 DUP3 DUP2 MSTORE PUSH1 0x3 PUSH1 0x20 MSTORE PUSH1 0x40 SWAP1 KECCAK256 PUSH1 0xE ADD SLOAD DUP3 SWAP1 PUSH1 0xFF AND ISZERO PUSH2 0xFF9 JUMPI PUSH1 0x40 MLOAD PUSH3 0x461BCD PUSH1 0xE5 SHL DUP2 MSTORE PUSH1 0x4 ADD PUSH2 0x4D4 SWAP1 PUSH2 0x53BC JUMP JUMPDEST PUSH1 0x0 DUP4 DUP2 MSTORE PUSH1 0x3 PUSH1 0x20 MSTORE PUSH1 0x40 SWAP1 KECCAK256 PUSH1 0x2 PUSH1 0x1 DUP3 ADD SLOAD PUSH1 0xFF AND PUSH1 0x4 DUP2 GT ISZERO PUSH2 0x1030 JUMPI PUSH4 0x4E487B71 PUSH1 0xE0 SHL PUSH1 0x0 MSTORE PUSH1 0x21 PUSH1 0x4 MSTORE PUSH1 0x24 PUSH1 0x0 REVERT JUMPDEST EQ PUSH2 0x104D JUMPI PUSH1 0x40 MLOAD PUSH3 0x461BCD PUSH1 0xE5 SHL DUP2 MSTORE PUSH1 0x4 ADD PUSH2 0x4D4 SWAP1 PUSH2 0x4FB1 JUMP JUMPDEST DUP1 PUSH1 0xB ADD SLOAD TIMESTAMP LT ISZERO PUSH2 0x1071 JUMPI PUSH1 0x40 MLOAD PUSH3 0x461BCD PUSH1 0xE5 SHL DUP2 MSTORE PUSH1 0x4 ADD PUSH2 0x4D4 SWAP1 PUSH2 0x5277 JUMP JUMPDEST PUSH2 0x107A DUP5 PUSH2 0x3C6C JUMP JUMPDEST POP POP POP POP JUMP JUMPDEST PUSH1 0x0 DUP2 DUP2 MSTORE PUSH1 0x3 PUSH1 0x20 MSTORE PUSH1 0x40 SWAP1 KECCAK256 SLOAD DUP2 SWAP1 DUP2 EQ PUSH2 0x10AF JUMPI PUSH1 0x40 MLOAD PUSH3 0x461BCD PUSH1 0xE5 SHL DUP2 MSTORE PUSH1 0x4 ADD PUSH2 0x4D4 SWAP1 PUSH2 0x50D4 JUMP JUMPDEST PUSH1 0x0 DUP3 DUP2 MSTORE PUSH1 0x3 PUSH1 0x20 SWAP1 DUP2 MSTORE PUSH1 0x40 DUP1 DUP4 KECCAK256 CALLER DUP5 MSTORE PUSH1 0x4 ADD SWAP1 SWAP2 MSTORE SWAP1 KECCAK256 SLOAD DUP3 SWAP1 PUSH1 0xFF AND PUSH2 0x10ED JUMPI PUSH1 0x40 MLOAD PUSH3 0x461BCD PUSH1 0xE5 SHL DUP2 MSTORE PUSH1 0x4 ADD PUSH2 0x4D4 SWAP1 PUSH2 0x4E6F JUMP JUMPDEST PUSH1 0x0 DUP4 DUP2 MSTORE PUSH1 0x3 PUSH1 0x20 MSTORE PUSH1 0x40 SWAP1 KECCAK256 PUSH1 0xC ADD SLOAD DUP4 SWAP1 TIMESTAMP LT ISZERO PUSH2 0x1120 JUMPI PUSH1 0x40 MLOAD PUSH3 0x461BCD PUSH1 0xE5 SHL DUP2 MSTORE PUSH1 0x4 ADD PUSH2 0x4D4 SWAP1 PUSH2 0x51CE JUMP JUMPDEST PUSH1 0x0 DUP5 DUP2 MSTORE PUSH1 0x3 PUSH1 0x20 MSTORE PUSH1 0x40 SWAP1 KECCAK256 PUSH1 0xE ADD SLOAD DUP5 SWAP1 PUSH1 0xFF AND ISZERO PUSH2 0x1154 JUMPI PUSH1 0x40 MLOAD PUSH3 0x461BCD PUSH1 0xE5 SHL DUP2 MSTORE PUSH1 0x4 ADD PUSH2 0x4D4 SWAP1 PUSH2 0x53BC JUMP JUMPDEST PUSH1 0x0 DUP6 DUP2 MSTORE PUSH1 0x3 PUSH1 0x20 SWAP1 DUP2 MSTORE PUSH1 0x40 DUP1 DUP4 KECCAK256 CALLER DUP5 MSTORE PUSH1 0x4 DUP2 ADD SWAP1 SWAP3 MSTORE SWAP1 SWAP2 KECCAK256 PUSH1 0x1 DUP1 DUP4 ADD SLOAD PUSH1 0xFF AND PUSH1 0x4 DUP2 GT ISZERO PUSH2 0x119A JUMPI PUSH4 0x4E487B71 PUSH1 0xE0 SHL PUSH1 0x0 MSTORE PUSH1 0x21 PUSH1 0x4 MSTORE PUSH1 0x24 PUSH1 0x0 REVERT JUMPDEST EQ PUSH2 0x11B7 JUMPI PUSH1 0x40 MLOAD PUSH3 0x461BCD PUSH1 0xE5 SHL DUP2 MSTORE PUSH1 0x4 ADD PUSH2 0x4D4 SWAP1 PUSH2 0x5075 JUMP JUMPDEST DUP2 PUSH1 0xB ADD SLOAD TIMESTAMP LT PUSH2 0x11DA JUMPI PUSH1 0x40 MLOAD PUSH3 0x461BCD PUSH1 0xE5 SHL DUP2 MSTORE PUSH1 0x4 ADD PUSH2 0x4D4 SWAP1 PUSH2 0x4DD9 JUMP JUMPDEST DUP1 SLOAD PUSH2 0x100 SWAP1 DIV PUSH1 0xFF AND ISZERO PUSH2 0x1201 JUMPI PUSH1 0x40 MLOAD PUSH3 0x461BCD PUSH1 0xE5 SHL DUP2 MSTORE PUSH1 0x4 ADD PUSH2 0x4D4 SWAP1 PUSH2 0x53F3 JUMP JUMPDEST PUSH1 0x5 DUP2 PUSH1 0x1 ADD SLOAD LT ISZERO PUSH2 0x1226 JUMPI PUSH1 0x40 MLOAD PUSH3 0x461BCD PUSH1 0xE5 SHL DUP2 MSTORE PUSH1 0x4 ADD PUSH2 0x4D4 SWAP1 PUSH2 0x4ED1 JUMP JUMPDEST PUSH1 0x1 DUP1 DUP3 ADD DUP1 SLOAD PUSH1 0x4 NOT ADD SWAP1 SSTORE DUP2 SLOAD PUSH2 0xFF00 NOT AND PUSH2 0x100 OR DUP1 DUP4 SSTORE TIMESTAMP PUSH1 0x3 DUP5 ADD SSTORE PUSH1 0x4 DUP4 ADD DUP1 SLOAD SWAP1 SWAP3 ADD SWAP1 SWAP2 SSTORE PUSH1 0x5 DUP4 ADD DUP1 SLOAD PUSH1 0x1 PUSH1 0x20 SHL SWAP1 SWAP3 DIV PUSH1 0xFF AND SWAP2 PUSH1 0x0 SWAP2 SWAP1 DUP4 SWAP1 DUP2 LT PUSH2 0x1287 JUMPI PUSH4 0x4E487B71 PUSH1 0xE0 SHL PUSH1 0x0 MSTORE PUSH1 0x32 PUSH1 0x4 MSTORE PUSH1 0x24 PUSH1 0x0 REVERT JUMPDEST PUSH1 0x0 SWAP2 DUP3 MSTORE PUSH1 0x20 SWAP2 DUP3 SWAP1 KECCAK256 PUSH1 0x40 DUP1 MLOAD DUP1 DUP3 ADD DUP3 MSTORE SWAP3 SWAP1 SWAP2 ADD SLOAD PUSH1 0xFF DUP1 DUP3 AND DUP1 DUP6 MSTORE PUSH2 0x100 SWAP1 SWAP3 DIV AND SWAP4 DUP4 ADD DUP5 SWAP1 MSTORE SWAP1 MLOAD SWAP2 SWAP4 POP CALLER SWAP3 PUSH32 0xE1299F54CCE9BBBB7B050A7A2E071F3272E75F57D041E1CFB8CC88969634CF06 SWAP3 PUSH2 0x12E9 SWAP3 SWAP2 SWAP1 PUSH2 0x5515 JUMP JUMPDEST PUSH1 0x40 MLOAD DUP1 SWAP2 SUB SWAP1 LOG2 CALLER PUSH1 0x1 PUSH1 0x1 PUSH1 0xA0 SHL SUB AND DUP10 PUSH1 0x0 DUP1 MLOAD PUSH1 0x20 PUSH2 0x56AC DUP4 CODECOPY DUP2 MLOAD SWAP2 MSTORE PUSH1 0x5 DUP7 PUSH1 0x4 ADD SLOAD PUSH1 0x40 MLOAD PUSH2 0x1320 SWAP3 SWAP2 SWAP1 PUSH2 0x530E JUMP JUMPDEST PUSH1 0x40 MLOAD DUP1 SWAP2 SUB SWAP1 LOG3 POP POP POP POP POP POP POP POP POP JUMP JUMPDEST PUSH1 0x0 DUP2 DUP2 MSTORE PUSH1 0x3 PUSH1 0x20 MSTORE PUSH1 0x40 SWAP1 KECCAK256 SLOAD PUSH1 0x60 SWAP1 DUP3 SWAP1 DUP2 EQ PUSH2 0x1365 JUMPI PUSH1 0x40 MLOAD PUSH3 0x461BCD PUSH1 0xE5 SHL DUP2 MSTORE PUSH1 0x4 ADD PUSH2 0x4D4 SWAP1 PUSH2 0x50D4 JUMP JUMPDEST PUSH1 0x0 DUP4 DUP2 MSTORE PUSH1 0x3 PUSH1 0x20 DUP2 SWAP1 MSTORE PUSH1 0x40 SWAP1 SWAP2 KECCAK256 SWAP1 DUP2 ADD SLOAD PUSH8 0xFFFFFFFFFFFFFFFF DUP2 GT ISZERO PUSH2 0x13A0 JUMPI PUSH4 0x4E487B71 PUSH1 0xE0 SHL PUSH1 0x0 MSTORE PUSH1 0x41 PUSH1 0x4 MSTORE PUSH1 0x24 PUSH1 0x0 REVERT JUMPDEST PUSH1 0x40 MLOAD SWAP1 DUP1 DUP3 MSTORE DUP1 PUSH1 0x20 MUL PUSH1 0x20 ADD DUP3 ADD PUSH1 0x40 MSTORE DUP1 ISZERO PUSH2 0x13C9 JUMPI DUP2 PUSH1 0x20 ADD PUSH1 0x20 DUP3 MUL DUP1 CALLDATASIZE DUP4 CALLDATACOPY ADD SWAP1 POP JUMPDEST POP SWAP3 POP DUP1 PUSH1 0x3 ADD SLOAD PUSH1 0x0 EQ ISZERO PUSH2 0x13DF JUMPI POP PUSH2 0x14B4 JUMP JUMPDEST PUSH1 0x0 DUP1 JUMPDEST PUSH1 0x2 DUP4 ADD SLOAD DUP2 LT ISZERO PUSH2 0x14B0 JUMPI PUSH1 0x0 DUP4 PUSH1 0x2 ADD DUP3 DUP2 SLOAD DUP2 LT PUSH2 0x1414 JUMPI PUSH4 0x4E487B71 PUSH1 0xE0 SHL PUSH1 0x0 MSTORE PUSH1 0x32 PUSH1 0x4 MSTORE PUSH1 0x24 PUSH1 0x0 REVERT JUMPDEST PUSH1 0x0 SWAP2 DUP3 MSTORE PUSH1 0x20 DUP1 DUP4 KECCAK256 SWAP1 SWAP2 ADD SLOAD PUSH1 0x1 PUSH1 0x1 PUSH1 0xA0 SHL SUB AND DUP1 DUP4 MSTORE PUSH1 0x4 DUP8 ADD SWAP1 SWAP2 MSTORE PUSH1 0x40 SWAP1 SWAP2 KECCAK256 SLOAD SWAP1 SWAP2 POP PUSH1 0xFF PUSH4 0x1000000 SWAP1 SWAP2 DIV AND PUSH2 0x149D JUMPI DUP1 DUP7 DUP5 DUP2 MLOAD DUP2 LT PUSH2 0x146E JUMPI PUSH4 0x4E487B71 PUSH1 0xE0 SHL PUSH1 0x0 MSTORE PUSH1 0x32 PUSH1 0x4 MSTORE PUSH1 0x24 PUSH1 0x0 REVERT JUMPDEST PUSH1 0x1 PUSH1 0x1 PUSH1 0xA0 SHL SUB SWAP1 SWAP3 AND PUSH1 0x20 SWAP3 DUP4 MUL SWAP2 SWAP1 SWAP2 ADD SWAP1 SWAP2 ADD MSTORE PUSH1 0x3 DUP5 ADD SLOAD PUSH1 0x1 SWAP1 SWAP4 ADD SWAP3 DUP4 LT PUSH2 0x149D JUMPI POP PUSH2 0x14B0 JUMP JUMPDEST POP DUP1 PUSH2 0x14A8 DUP2 PUSH2 0x561A JUMP JUMPDEST SWAP2 POP POP PUSH2 0x13E3 JUMP JUMPDEST POP POP POP JUMPDEST POP SWAP2 SWAP1 POP JUMP JUMPDEST PUSH1 0x0 DUP2 DUP2 MSTORE PUSH1 0x3 PUSH1 0x20 MSTORE PUSH1 0x40 SWAP1 KECCAK256 SLOAD PUSH1 0x60 SWAP1 DUP2 SWAP1 DUP2 SWAP1 DUP5 SWAP1 DUP2 EQ PUSH2 0x14F0 JUMPI PUSH1 0x40 MLOAD PUSH3 0x461BCD PUSH1 0xE5 SHL DUP2 MSTORE PUSH1 0x4 ADD PUSH2 0x4D4 SWAP1 PUSH2 0x50D4 JUMP JUMPDEST PUSH1 0x0 DUP6 DUP2 MSTORE PUSH1 0x3 PUSH1 0x20 DUP2 SWAP1 MSTORE PUSH1 0x40 SWAP1 SWAP2 KECCAK256 SWAP1 PUSH1 0x1 DUP3 ADD SLOAD PUSH1 0xFF AND PUSH1 0x4 DUP2 GT ISZERO PUSH2 0x1529 JUMPI PUSH4 0x4E487B71 PUSH1 0xE0 SHL PUSH1 0x0 MSTORE PUSH1 0x21 PUSH1 0x4 MSTORE PUSH1 0x24 PUSH1 0x0 REVERT JUMPDEST EQ DUP1 PUSH2 0x155B JUMPI POP PUSH1 0x4 PUSH1 0x1 DUP3 ADD SLOAD PUSH1 0xFF AND PUSH1 0x4 DUP2 GT ISZERO PUSH2 0x1559 JUMPI PUSH4 0x4E487B71 PUSH1 0xE0 SHL PUSH1 0x0 MSTORE PUSH1 0x21 PUSH1 0x4 MSTORE PUSH1 0x24 PUSH1 0x0 REVERT JUMPDEST EQ JUMPDEST PUSH2 0x1577 JUMPI PUSH1 0x40 MLOAD PUSH3 0x461BCD PUSH1 0xE5 SHL DUP2 MSTORE PUSH1 0x4 ADD PUSH2 0x4D4 SWAP1 PUSH2 0x52AE JUMP JUMPDEST PUSH1 0x2 DUP2 ADD SLOAD PUSH8 0xFFFFFFFFFFFFFFFF DUP2 GT ISZERO PUSH2 0x15A2 JUMPI PUSH4 0x4E487B71 PUSH1 0xE0 SHL PUSH1 0x0 MSTORE PUSH1 0x41 PUSH1 0x4 MSTORE PUSH1 0x24 PUSH1 0x0 REVERT JUMPDEST PUSH1 0x40 MLOAD SWAP1 DUP1 DUP3 MSTORE DUP1 PUSH1 0x20 MUL PUSH1 0x20 ADD DUP3 ADD PUSH1 0x40 MSTORE DUP1 ISZERO PUSH2 0x15CB JUMPI DUP2 PUSH1 0x20 ADD PUSH1 0x20 DUP3 MUL DUP1 CALLDATASIZE DUP4 CALLDATACOPY ADD SWAP1 POP JUMPDEST POP PUSH1 0x2 DUP3 ADD SLOAD SWAP1 SWAP6 POP PUSH8 0xFFFFFFFFFFFFFFFF DUP2 GT ISZERO PUSH2 0x15FA JUMPI PUSH4 0x4E487B71 PUSH1 0xE0 SHL PUSH1 0x0 MSTORE PUSH1 0x41 PUSH1 0x4 MSTORE PUSH1 0x24 PUSH1 0x0 REVERT JUMPDEST PUSH1 0x40 MLOAD SWAP1 DUP1 DUP3 MSTORE DUP1 PUSH1 0x20 MUL PUSH1 0x20 ADD DUP3 ADD PUSH1 0x40 MSTORE DUP1 ISZERO PUSH2 0x1623 JUMPI DUP2 PUSH1 0x20 ADD PUSH1 0x20 DUP3 MUL DUP1 CALLDATASIZE DUP4 CALLDATACOPY ADD SWAP1 POP JUMPDEST POP PUSH1 0x2 DUP3 ADD SLOAD SWAP1 SWAP5 POP PUSH8 0xFFFFFFFFFFFFFFFF DUP2 GT ISZERO PUSH2 0x1652 JUMPI PUSH4 0x4E487B71 PUSH1 0xE0 SHL PUSH1 0x0 MSTORE PUSH1 0x41 PUSH1 0x4 MSTORE PUSH1 0x24 PUSH1 0x0 REVERT JUMPDEST PUSH1 0x40 MLOAD SWAP1 DUP1 DUP3 MSTORE DUP1 PUSH1 0x20 MUL PUSH1 0x20 ADD DUP3 ADD PUSH1 0x40 MSTORE DUP1 ISZERO PUSH2 0x167B JUMPI DUP2 PUSH1 0x20 ADD PUSH1 0x20 DUP3 MUL DUP1 CALLDATASIZE DUP4 CALLDATACOPY ADD SWAP1 POP JUMPDEST POP SWAP3 POP PUSH1 0x0 JUMPDEST PUSH1 0x2 DUP3 ADD SLOAD DUP2 LT ISZERO PUSH2 0x18E7 JUMPI PUSH1 0x0 DUP3 PUSH1 0x2 ADD DUP3 DUP2 SLOAD DUP2 LT PUSH2 0x16B2 JUMPI PUSH4 0x4E487B71 PUSH1 0xE0 SHL PUSH1 0x0 MSTORE PUSH1 0x32 PUSH1 0x4 MSTORE PUSH1 0x24 PUSH1 0x0 REVERT JUMPDEST PUSH1 0x0 SWAP2 DUP3 MSTORE PUSH1 0x20 DUP1 DUP4 KECCAK256 SWAP1 SWAP2 ADD SLOAD PUSH1 0x1 PUSH1 0x1 PUSH1 0xA0 SHL SUB AND DUP1 DUP4 MSTORE PUSH1 0x4 DUP7 ADD SWAP1 SWAP2 MSTORE PUSH1 0x40 SWAP1 SWAP2 KECCAK256 SLOAD SWAP1 SWAP2 POP PUSH1 0xFF PUSH4 0x1000000 SWAP1 SWAP2 DIV AND ISZERO PUSH2 0x179F JUMPI DUP1 DUP8 DUP4 DUP2 MLOAD DUP2 LT PUSH2 0x170D JUMPI PUSH4 0x4E487B71 PUSH1 0xE0 SHL PUSH1 0x0 MSTORE PUSH1 0x32 PUSH1 0x4 MSTORE PUSH1 0x24 PUSH1 0x0 REVERT JUMPDEST PUSH1 0x20 MUL PUSH1 0x20 ADD ADD SWAP1 PUSH1 0x1 PUSH1 0x1 PUSH1 0xA0 SHL SUB AND SWAP1 DUP2 PUSH1 0x1 PUSH1 0x1 PUSH1 0xA0 SHL SUB AND DUP2 MSTORE POP POP PUSH1 0x0 DUP7 DUP4 DUP2 MLOAD DUP2 LT PUSH2 0x174F JUMPI PUSH4 0x4E487B71 PUSH1 0xE0 SHL PUSH1 0x0 MSTORE PUSH1 0x32 PUSH1 0x4 MSTORE PUSH1 0x24 PUSH1 0x0 REVERT JUMPDEST PUSH1 0x20 MUL PUSH1 0x20 ADD ADD SWAP1 PUSH1 0xFF AND SWAP1 DUP2 PUSH1 0xFF AND DUP2 MSTORE POP POP PUSH1 0x0 DUP6 DUP4 DUP2 MLOAD DUP2 LT PUSH2 0x1785 JUMPI PUSH4 0x4E487B71 PUSH1 0xE0 SHL PUSH1 0x0 MSTORE PUSH1 0x32 PUSH1 0x4 MSTORE PUSH1 0x24 PUSH1 0x0 REVERT JUMPDEST PUSH1 0x20 MUL PUSH1 0x20 ADD ADD SWAP1 PUSH1 0xFF AND SWAP1 DUP2 PUSH1 0xFF AND DUP2 MSTORE POP POP POP PUSH2 0x18D5 JUMP JUMPDEST PUSH1 0x1 PUSH1 0x1 PUSH1 0xA0 SHL SUB DUP2 AND PUSH1 0x0 SWAP1 DUP2 MSTORE PUSH1 0x4 DUP5 ADD PUSH1 0x20 MSTORE PUSH1 0x40 DUP2 KECCAK256 SLOAD PUSH1 0x5 DUP6 ADD DUP1 SLOAD PUSH1 0x1 PUSH1 0x20 SHL SWAP1 SWAP3 DIV PUSH1 0xFF AND SWAP3 SWAP2 DUP4 SWAP1 DUP2 LT PUSH2 0x17EB JUMPI PUSH4 0x4E487B71 PUSH1 0xE0 SHL PUSH1 0x0 MSTORE PUSH1 0x32 PUSH1 0x4 MSTORE PUSH1 0x24 PUSH1 0x0 REVERT JUMPDEST PUSH1 0x0 SWAP2 DUP3 MSTORE PUSH1 0x20 SWAP2 DUP3 SWAP1 KECCAK256 PUSH1 0x40 DUP1 MLOAD DUP1 DUP3 ADD SWAP1 SWAP2 MSTORE SWAP2 ADD SLOAD PUSH1 0xFF DUP1 DUP3 AND DUP4 MSTORE PUSH2 0x100 SWAP1 SWAP2 DIV AND SWAP2 DUP2 ADD SWAP2 SWAP1 SWAP2 MSTORE DUP10 MLOAD SWAP1 SWAP2 POP DUP4 SWAP1 DUP11 SWAP1 DUP7 SWAP1 DUP2 LT PUSH2 0x183F JUMPI PUSH4 0x4E487B71 PUSH1 0xE0 SHL PUSH1 0x0 MSTORE PUSH1 0x32 PUSH1 0x4 MSTORE PUSH1 0x24 PUSH1 0x0 REVERT JUMPDEST PUSH1 0x20 MUL PUSH1 0x20 ADD ADD SWAP1 PUSH1 0x1 PUSH1 0x1 PUSH1 0xA0 SHL SUB AND SWAP1 DUP2 PUSH1 0x1 PUSH1 0x1 PUSH1 0xA0 SHL SUB AND DUP2 MSTORE POP POP DUP1 PUSH1 0x0 ADD MLOAD DUP9 DUP6 DUP2 MLOAD DUP2 LT PUSH2 0x1884 JUMPI PUSH4 0x4E487B71 PUSH1 0xE0 SHL PUSH1 0x0 MSTORE PUSH1 0x32 PUSH1 0x4 MSTORE PUSH1 0x24 PUSH1 0x0 REVERT JUMPDEST PUSH1 0x20 MUL PUSH1 0x20 ADD ADD SWAP1 PUSH1 0xFF AND SWAP1 DUP2 PUSH1 0xFF AND DUP2 MSTORE POP POP DUP1 PUSH1 0x20 ADD MLOAD DUP8 DUP6 DUP2 MLOAD DUP2 LT PUSH2 0x18BD JUMPI PUSH4 0x4E487B71 PUSH1 0xE0 SHL PUSH1 0x0 MSTORE PUSH1 0x32 PUSH1 0x4 MSTORE PUSH1 0x24 PUSH1 0x0 REVERT JUMPDEST PUSH1 0x20 MUL PUSH1 0x20 ADD ADD SWAP1 PUSH1 0xFF AND SWAP1 DUP2 PUSH1 0xFF AND DUP2 MSTORE POP POP POP POP POP JUMPDEST DUP1 PUSH2 0x18DF DUP2 PUSH2 0x561A JUMP JUMPDEST SWAP2 POP POP PUSH2 0x1681 JUMP JUMPDEST POP POP POP SWAP2 SWAP4 SWAP1 SWAP3 POP JUMP JUMPDEST PUSH1 0x1 PUSH1 0x1 PUSH1 0xA0 SHL SUB DUP2 AND PUSH1 0x0 SWAP1 DUP2 MSTORE PUSH1 0x20 DUP2 SWAP1 MSTORE PUSH1 0x40 SWAP1 KECCAK256 SLOAD PUSH1 0xFF AND JUMPDEST SWAP2 SWAP1 POP JUMP JUMPDEST PUSH1 0x0 DUP1 PUSH1 0x0 DUP1 PUSH1 0x0 DUP1 PUSH1 0x0 DUP1 DUP10 DUP1 PUSH1 0x3 PUSH1 0x0 DUP4 DUP2 MSTORE PUSH1 0x20 ADD SWAP1 DUP2 MSTORE PUSH1 0x20 ADD PUSH1 0x0 KECCAK256 PUSH1 0x0 ADD SLOAD EQ PUSH2 0x1955 JUMPI PUSH1 0x40 MLOAD PUSH3 0x461BCD PUSH1 0xE5 SHL DUP2 MSTORE PUSH1 0x4 ADD PUSH2 0x4D4 SWAP1 PUSH2 0x50D4 JUMP JUMPDEST POP POP POP PUSH1 0x0 SWAP8 DUP9 MSTORE POP POP PUSH1 0x3 PUSH1 0x20 DUP2 DUP2 MSTORE PUSH1 0x40 DUP1 DUP10 KECCAK256 PUSH1 0x1 PUSH1 0x1 PUSH1 0xA0 SHL SUB SWAP9 SWAP1 SWAP9 AND DUP10 MSTORE PUSH1 0x4 SWAP8 DUP9 ADD SWAP1 SWAP2 MSTORE SWAP1 SWAP7 KECCAK256 DUP1 SLOAD PUSH1 0x1 DUP3 ADD SLOAD PUSH1 0x2 DUP4 ADD SLOAD SWAP9 DUP4 ADD SLOAD SWAP3 SWAP1 SWAP8 ADD SLOAD PUSH1 0xFF DUP1 DUP4 AND SWAP11 PUSH2 0x100 DUP5 DIV DUP3 AND SWAP11 PUSH3 0x10000 DUP6 DIV DUP4 AND SWAP11 PUSH4 0x1000000 SWAP1 SWAP6 DIV SWAP1 SWAP3 AND SWAP9 POP SWAP3 SWAP7 POP SWAP5 POP SWAP2 SWAP3 POP JUMP JUMPDEST PUSH1 0x0 DUP2 DUP2 MSTORE PUSH1 0x3 PUSH1 0x20 MSTORE PUSH1 0x40 SWAP1 KECCAK256 SLOAD DUP2 SWAP1 DUP2 EQ PUSH2 0x19F6 JUMPI PUSH1 0x40 MLOAD PUSH3 0x461BCD PUSH1 0xE5 SHL DUP2 MSTORE PUSH1 0x4 ADD PUSH2 0x4D4 SWAP1 PUSH2 0x50D4 JUMP JUMPDEST PUSH1 0x0 DUP3 DUP2 MSTORE PUSH1 0x3 PUSH1 0x20 MSTORE PUSH1 0x40 SWAP1 KECCAK256 PUSH1 0xE ADD SLOAD DUP3 SWAP1 PUSH1 0xFF AND ISZERO PUSH2 0x1A2A JUMPI PUSH1 0x40 MLOAD PUSH3 0x461BCD PUSH1 0xE5 SHL DUP2 MSTORE PUSH1 0x4 ADD PUSH2 0x4D4 SWAP1 PUSH2 0x53BC JUMP JUMPDEST PUSH1 0x0 DUP4 DUP2 MSTORE PUSH1 0x3 PUSH1 0x20 SWAP1 DUP2 MSTORE PUSH1 0x40 DUP1 DUP4 KECCAK256 CALLER DUP5 MSTORE PUSH1 0x4 DUP2 ADD SWAP1 SWAP3 MSTORE SWAP1 SWAP2 KECCAK256 SLOAD PUSH1 0xFF AND PUSH2 0x1A68 JUMPI PUSH1 0x40 MLOAD PUSH3 0x461BCD PUSH1 0xE5 SHL DUP2 MSTORE PUSH1 0x4 ADD PUSH2 0x4D4 SWAP1 PUSH2 0x50FC JUMP JUMPDEST PUSH1 0x0 PUSH1 0x1 DUP3 ADD SLOAD PUSH1 0xFF AND PUSH1 0x4 DUP2 GT ISZERO PUSH2 0x1A91 JUMPI PUSH4 0x4E487B71 PUSH1 0xE0 SHL PUSH1 0x0 MSTORE PUSH1 0x21 PUSH1 0x4 MSTORE PUSH1 0x24 PUSH1 0x0 REVERT JUMPDEST EQ PUSH2 0x1AAE JUMPI PUSH1 0x40 MLOAD PUSH3 0x461BCD PUSH1 0xE5 SHL DUP2 MSTORE PUSH1 0x4 ADD PUSH2 0x4D4 SWAP1 PUSH2 0x5452 JUMP JUMPDEST PUSH1 0x0 JUMPDEST PUSH1 0x2 DUP3 ADD SLOAD DUP2 LT ISZERO PUSH2 0x1BF9 JUMPI CALLER PUSH1 0x1 PUSH1 0x1 PUSH1 0xA0 SHL SUB AND DUP3 PUSH1 0x2 ADD DUP3 DUP2 SLOAD DUP2 LT PUSH2 0x1AEA JUMPI PUSH4 0x4E487B71 PUSH1 0xE0 SHL PUSH1 0x0 MSTORE PUSH1 0x32 PUSH1 0x4 MSTORE PUSH1 0x24 PUSH1 0x0 REVERT JUMPDEST PUSH1 0x0 SWAP2 DUP3 MSTORE PUSH1 0x20 SWAP1 SWAP2 KECCAK256 ADD SLOAD PUSH1 0x1 PUSH1 0x1 PUSH1 0xA0 SHL SUB AND EQ ISZERO PUSH2 0x1BE7 JUMPI PUSH1 0x2 DUP3 ADD DUP1 SLOAD PUSH2 0x1B17 SWAP1 PUSH1 0x1 SWAP1 PUSH2 0x5589 JUMP JUMPDEST DUP2 SLOAD DUP2 LT PUSH2 0x1B35 JUMPI PUSH4 0x4E487B71 PUSH1 0xE0 SHL PUSH1 0x0 MSTORE PUSH1 0x32 PUSH1 0x4 MSTORE PUSH1 0x24 PUSH1 0x0 REVERT JUMPDEST PUSH1 0x0 SWAP2 DUP3 MSTORE PUSH1 0x20 SWAP1 SWAP2 KECCAK256 ADD SLOAD PUSH1 0x2 DUP4 ADD DUP1 SLOAD PUSH1 0x1 PUSH1 0x1 PUSH1 0xA0 SHL SUB SWAP1 SWAP3 AND SWAP2 DUP4 SWAP1 DUP2 LT PUSH2 0x1B71 JUMPI PUSH4 0x4E487B71 PUSH1 0xE0 SHL PUSH1 0x0 MSTORE PUSH1 0x32 PUSH1 0x4 MSTORE PUSH1 0x24 PUSH1 0x0 REVERT JUMPDEST SWAP1 PUSH1 0x0 MSTORE PUSH1 0x20 PUSH1 0x0 KECCAK256 ADD PUSH1 0x0 PUSH2 0x100 EXP DUP2 SLOAD DUP2 PUSH1 0x1 PUSH1 0x1 PUSH1 0xA0 SHL SUB MUL NOT AND SWAP1 DUP4 PUSH1 0x1 PUSH1 0x1 PUSH1 0xA0 SHL SUB AND MUL OR SWAP1 SSTORE POP DUP2 PUSH1 0x2 ADD DUP1 SLOAD DUP1 PUSH2 0x1BC0 JUMPI PUSH4 0x4E487B71 PUSH1 0xE0 SHL PUSH1 0x0 MSTORE PUSH1 0x31 PUSH1 0x4 MSTORE PUSH1 0x24 PUSH1 0x0 REVERT JUMPDEST PUSH1 0x0 DUP3 DUP2 MSTORE PUSH1 0x20 SWAP1 KECCAK256 DUP2 ADD PUSH1 0x0 NOT SWAP1 DUP2 ADD DUP1 SLOAD PUSH1 0x1 PUSH1 0x1 PUSH1 0xA0 SHL SUB NOT AND SWAP1 SSTORE ADD SWAP1 SSTORE PUSH2 0x1BF9 JUMP JUMPDEST DUP1 PUSH2 0x1BF1 DUP2 PUSH2 0x561A JUMP JUMPDEST SWAP2 POP POP PUSH2 0x1AB1 JUMP JUMPDEST POP PUSH1 0x3 DUP1 DUP3 ADD DUP1 SLOAD PUSH1 0x0 NOT ADD SWAP1 SSTORE CALLER PUSH1 0x0 DUP2 DUP2 MSTORE PUSH1 0x4 DUP1 DUP6 ADD PUSH1 0x20 SWAP1 DUP2 MSTORE PUSH1 0x40 DUP1 DUP5 KECCAK256 DUP1 SLOAD PUSH5 0xFFFFFFFFFF NOT AND DUP2 SSTORE PUSH1 0x1 DUP2 ADD DUP6 SWAP1 SSTORE PUSH1 0x2 DUP2 ADD DUP6 SWAP1 SSTORE SWAP6 DUP7 ADD DUP5 SWAP1 SSTORE SWAP5 DUP3 ADD DUP4 SWAP1 SSTORE MSTORE DUP3 DUP2 KECCAK256 DUP2 SWAP1 SSTORE SWAP2 MLOAD SWAP1 SWAP2 DUP7 SWAP2 PUSH1 0x0 DUP1 MLOAD PUSH1 0x20 PUSH2 0x56AC DUP4 CODECOPY DUP2 MLOAD SWAP2 MSTORE SWAP2 PUSH2 0x1C6A SWAP2 DUP2 SWAP1 PUSH2 0x51A2 JUMP JUMPDEST PUSH1 0x40 MLOAD DUP1 SWAP2 SUB SWAP1 LOG3 POP POP POP POP JUMP JUMPDEST CALLER PUSH1 0x1 PUSH1 0x1 PUSH1 0xA0 SHL SUB PUSH32 0x0 AND EQ PUSH2 0x1CC0 JUMPI PUSH1 0x40 MLOAD PUSH3 0x461BCD PUSH1 0xE5 SHL DUP2 MSTORE PUSH1 0x4 ADD PUSH2 0x4D4 SWAP1 PUSH2 0x51F8 JUMP JUMPDEST PUSH1 0x1 PUSH1 0x1 PUSH1 0xA0 SHL SUB AND PUSH1 0x0 SWAP1 DUP2 MSTORE PUSH1 0x6 PUSH1 0x20 MSTORE PUSH1 0x40 SWAP1 KECCAK256 DUP1 SLOAD PUSH1 0xFF NOT AND PUSH1 0x1 OR SWAP1 SSTORE JUMP JUMPDEST PUSH1 0x0 DUP2 DUP2 MSTORE PUSH1 0x3 PUSH1 0x20 MSTORE PUSH1 0x40 SWAP1 KECCAK256 SLOAD PUSH1 0x60 SWAP1 DUP3 SWAP1 DUP2 EQ PUSH2 0x1D16 JUMPI PUSH1 0x40 MLOAD PUSH3 0x461BCD PUSH1 0xE5 SHL DUP2 MSTORE PUSH1 0x4 ADD PUSH2 0x4D4 SWAP1 PUSH2 0x50D4 JUMP JUMPDEST PUSH1 0x0 DUP4 DUP2 MSTORE PUSH1 0x3 PUSH1 0x20 SWAP1 DUP2 MSTORE PUSH1 0x40 SWAP2 DUP3 SWAP1 KECCAK256 PUSH1 0x2 ADD DUP1 SLOAD DUP4 MLOAD DUP2 DUP5 MUL DUP2 ADD DUP5 ADD SWAP1 SWAP5 MSTORE DUP1 DUP5 MSTORE SWAP1 SWAP2 DUP4 ADD DUP3 DUP3 DUP1 ISZERO PUSH2 0x1D77 JUMPI PUSH1 0x20 MUL DUP3 ADD SWAP2 SWAP1 PUSH1 0x0 MSTORE PUSH1 0x20 PUSH1 0x0 KECCAK256 SWAP1 JUMPDEST DUP2 SLOAD PUSH1 0x1 PUSH1 0x1 PUSH1 0xA0 SHL SUB AND DUP2 MSTORE PUSH1 0x1 SWAP1 SWAP2 ADD SWAP1 PUSH1 0x20 ADD DUP1 DUP4 GT PUSH2 0x1D59 JUMPI JUMPDEST POP POP POP POP POP SWAP2 POP POP SWAP2 SWAP1 POP JUMP JUMPDEST PUSH1 0x0 DUP1 PUSH1 0x0 DUP1 PUSH1 0x0 DUP1 PUSH1 0x0 DUP1 PUSH1 0x0 DUP1 PUSH1 0x0 DUP12 DUP1 PUSH1 0x3 PUSH1 0x0 DUP4 DUP2 MSTORE PUSH1 0x20 ADD SWAP1 DUP2 MSTORE PUSH1 0x20 ADD PUSH1 0x0 KECCAK256 PUSH1 0x0 ADD SLOAD EQ PUSH2 0x1DCB JUMPI PUSH1 0x40 MLOAD PUSH3 0x461BCD PUSH1 0xE5 SHL DUP2 MSTORE PUSH1 0x4 ADD PUSH2 0x4D4 SWAP1 PUSH2 0x50D4 JUMP JUMPDEST PUSH1 0x0 DUP14 DUP2 MSTORE PUSH1 0x3 PUSH1 0x20 MSTORE PUSH1 0x40 DUP2 KECCAK256 PUSH1 0xB DUP2 ADD SLOAD SWAP1 SWAP2 SWAP1 TIMESTAMP LT ISZERO PUSH2 0x1DFB JUMPI TIMESTAMP DUP3 PUSH1 0xB ADD SLOAD PUSH2 0x1DF8 SWAP2 SWAP1 PUSH2 0x5589 JUMP JUMPDEST SWAP1 POP JUMPDEST DUP2 PUSH1 0x1 ADD PUSH1 0x0 SWAP1 SLOAD SWAP1 PUSH2 0x100 EXP SWAP1 DIV PUSH1 0xFF AND DUP3 PUSH1 0x8 ADD SLOAD DUP4 PUSH1 0x9 ADD SLOAD DUP5 PUSH1 0xB ADD SLOAD DUP6 PUSH1 0xC ADD SLOAD DUP6 DUP8 PUSH1 0x2 ADD DUP1 SLOAD SWAP1 POP DUP9 PUSH1 0x3 ADD SLOAD DUP10 PUSH1 0xA ADD PUSH1 0x0 SWAP1 SLOAD SWAP1 PUSH2 0x100 EXP SWAP1 DIV PUSH1 0x1 PUSH1 0x1 PUSH1 0xA0 SHL SUB AND DUP11 PUSH1 0xD ADD SLOAD DUP12 PUSH1 0xE ADD PUSH1 0x0 SWAP1 SLOAD SWAP1 PUSH2 0x100 EXP SWAP1 DIV PUSH1 0xFF AND SWAP14 POP SWAP14 POP SWAP14 POP SWAP14 POP SWAP14 POP SWAP14 POP SWAP14 POP SWAP14 POP SWAP14 POP SWAP14 POP SWAP14 POP POP POP POP SWAP2 SWAP4 SWAP6 SWAP8 SWAP10 SWAP12 SWAP1 SWAP3 SWAP5 SWAP7 SWAP9 SWAP11 POP JUMP JUMPDEST PUSH1 0x0 DUP3 DUP2 MSTORE PUSH1 0x3 PUSH1 0x20 MSTORE PUSH1 0x40 SWAP1 KECCAK256 SLOAD DUP3 SWAP1 DUP2 EQ PUSH2 0x1EB5 JUMPI PUSH1 0x40 MLOAD PUSH3 0x461BCD PUSH1 0xE5 SHL DUP2 MSTORE PUSH1 0x4 ADD PUSH2 0x4D4 SWAP1 PUSH2 0x50D4 JUMP JUMPDEST PUSH1 0x0 DUP4 DUP2 MSTORE PUSH1 0x3 PUSH1 0x20 SWAP1 DUP2 MSTORE PUSH1 0x40 DUP1 DUP4 KECCAK256 CALLER DUP5 MSTORE PUSH1 0x4 ADD SWAP1 SWAP2 MSTORE SWAP1 KECCAK256 SLOAD DUP4 SWAP1 PUSH1 0xFF AND PUSH2 0x1EF3 JUMPI PUSH1 0x40 MLOAD PUSH3 0x461BCD PUSH1 0xE5 SHL DUP2 MSTORE PUSH1 0x4 ADD PUSH2 0x4D4 SWAP1 PUSH2 0x4E6F JUMP JUMPDEST PUSH1 0x0 DUP5 DUP2 MSTORE PUSH1 0x3 PUSH1 0x20 MSTORE PUSH1 0x40 SWAP1 KECCAK256 PUSH1 0xC ADD SLOAD DUP5 SWAP1 TIMESTAMP LT ISZERO PUSH2 0x1F26 JUMPI PUSH1 0x40 MLOAD PUSH3 0x461BCD PUSH1 0xE5 SHL DUP2 MSTORE PUSH1 0x4 ADD PUSH2 0x4D4 SWAP1 PUSH2 0x51CE JUMP JUMPDEST PUSH1 0x0 DUP6 DUP2 MSTORE PUSH1 0x3 PUSH1 0x20 MSTORE PUSH1 0x40 SWAP1 KECCAK256 PUSH1 0xE ADD SLOAD DUP6 SWAP1 PUSH1 0xFF AND ISZERO PUSH2 0x1F5A JUMPI PUSH1 0x40 MLOAD PUSH3 0x461BCD PUSH1 0xE5 SHL DUP2 MSTORE PUSH1 0x4 ADD PUSH2 0x4D4 SWAP1 PUSH2 0x53BC JUMP JUMPDEST PUSH1 0x0 DUP7 DUP2 MSTORE PUSH1 0x3 PUSH1 0x20 SWAP1 DUP2 MSTORE PUSH1 0x40 DUP1 DUP4 KECCAK256 CALLER DUP5 MSTORE PUSH1 0x4 DUP2 ADD SWAP1 SWAP3 MSTORE SWAP1 SWAP2 KECCAK256 PUSH1 0x2 PUSH1 0x1 DUP4 ADD SLOAD PUSH1 0xFF AND PUSH1 0x4 DUP2 GT ISZERO PUSH2 0x1FA1 JUMPI PUSH4 0x4E487B71 PUSH1 0xE0 SHL PUSH1 0x0 MSTORE PUSH1 0x21 PUSH1 0x4 MSTORE PUSH1 0x24 PUSH1 0x0 REVERT JUMPDEST EQ PUSH2 0x1FBE JUMPI PUSH1 0x40 MLOAD PUSH3 0x461BCD PUSH1 0xE5 SHL DUP2 MSTORE PUSH1 0x4 ADD PUSH2 0x4D4 SWAP1 PUSH2 0x4FB1 JUMP JUMPDEST DUP2 PUSH1 0xB ADD SLOAD TIMESTAMP LT PUSH2 0x1FE1 JUMPI PUSH1 0x40 MLOAD PUSH3 0x461BCD PUSH1 0xE5 SHL DUP2 MSTORE PUSH1 0x4 ADD PUSH2 0x4D4 SWAP1 PUSH2 0x54A8 JUMP JUMPDEST DUP1 SLOAD PUSH4 0x1000000 SWAP1 DIV PUSH1 0xFF AND ISZERO PUSH2 0x200A JUMPI PUSH1 0x40 MLOAD PUSH3 0x461BCD PUSH1 0xE5 SHL DUP2 MSTORE PUSH1 0x4 ADD PUSH2 0x4D4 SWAP1 PUSH2 0x5339 JUMP JUMPDEST PUSH1 0x1 DUP8 LT ISZERO PUSH2 0x202B JUMPI PUSH1 0x40 MLOAD PUSH3 0x461BCD PUSH1 0xE5 SHL DUP2 MSTORE PUSH1 0x4 ADD PUSH2 0x4D4 SWAP1 PUSH2 0x521B JUMP JUMPDEST PUSH1 0x9 DUP3 ADD SLOAD ISZERO PUSH2 0x206F JUMPI PUSH1 0x0 DUP2 PUSH1 0x2 ADD SLOAD DUP4 PUSH1 0x9 ADD SLOAD PUSH2 0x204B SWAP2 SWAP1 PUSH2 0x5589 JUMP JUMPDEST SWAP1 POP DUP1 DUP9 LT ISZERO PUSH2 0x206D JUMPI PUSH1 0x40 MLOAD PUSH3 0x461BCD PUSH1 0xE5 SHL DUP2 MSTORE PUSH1 0x4 ADD PUSH2 0x4D4 SWAP1 PUSH2 0x4F58 JUMP JUMPDEST POP JUMPDEST DUP7 DUP2 PUSH1 0x1 ADD SLOAD LT ISZERO PUSH2 0x2093 JUMPI PUSH1 0x40 MLOAD PUSH3 0x461BCD PUSH1 0xE5 SHL DUP2 MSTORE PUSH1 0x4 ADD PUSH2 0x4D4 SWAP1 PUSH2 0x4ED1 JUMP JUMPDEST PUSH1 0x4 DUP2 ADD DUP1 SLOAD PUSH1 0x1 SWAP1 DUP2 ADD SWAP1 SWAP2 SSTORE DUP2 ADD DUP1 SLOAD DUP9 SWAP1 SUB SWAP1 SSTORE PUSH1 0x2 DUP2 ADD DUP1 SLOAD DUP9 ADD DUP2 SSTORE PUSH1 0x8 DUP4 ADD DUP1 SLOAD DUP10 ADD SWAP1 SSTORE TIMESTAMP PUSH1 0x3 DUP4 ADD SSTORE PUSH1 0x9 DUP4 ADD SLOAD SWAP1 SLOAD GT ISZERO PUSH2 0x20DC JUMPI PUSH1 0x2 DUP2 ADD SLOAD PUSH1 0x9 DUP4 ADD SSTORE JUMPDEST CALLER PUSH1 0x1 PUSH1 0x1 PUSH1 0xA0 SHL SUB AND DUP9 PUSH1 0x0 DUP1 MLOAD PUSH1 0x20 PUSH2 0x56AC DUP4 CODECOPY DUP2 MLOAD SWAP2 MSTORE DUP10 DUP5 PUSH1 0x4 ADD SLOAD PUSH1 0x40 MLOAD PUSH2 0x210A SWAP3 SWAP2 SWAP1 PUSH2 0x5155 JUMP JUMPDEST PUSH1 0x40 MLOAD DUP1 SWAP2 SUB SWAP1 LOG3 PUSH1 0x1 DUP3 ADD SLOAD PUSH1 0x8 DUP4 ADD SLOAD PUSH1 0x9 DUP5 ADD SLOAD PUSH1 0xD DUP6 ADD SLOAD PUSH1 0x40 MLOAD DUP13 SWAP5 PUSH1 0x0 DUP1 MLOAD PUSH1 0x20 PUSH2 0x568C DUP4 CODECOPY DUP2 MLOAD SWAP2 MSTORE SWAP5 PUSH2 0x214C SWAP5 PUSH1 0xFF SWAP1 SWAP3 AND SWAP4 SWAP1 SWAP3 PUSH2 0x4C64 JUMP JUMPDEST PUSH1 0x40 MLOAD DUP1 SWAP2 SUB SWAP1 LOG2 POP POP POP POP POP POP POP POP JUMP JUMPDEST PUSH1 0x1 PUSH1 0x1 PUSH1 0xA0 SHL SUB AND PUSH1 0x0 SWAP1 DUP2 MSTORE PUSH1 0x6 PUSH1 0x20 MSTORE PUSH1 0x40 SWAP1 KECCAK256 SLOAD PUSH1 0xFF AND SWAP1 JUMP JUMPDEST CALLER PUSH1 0x0 SWAP1 DUP2 MSTORE PUSH1 0x6 PUSH1 0x20 MSTORE PUSH1 0x40 DUP2 KECCAK256 SLOAD PUSH1 0xFF AND PUSH2 0x21AB JUMPI PUSH1 0x40 MLOAD PUSH3 0x461BCD PUSH1 0xE5 SHL DUP2 MSTORE PUSH1 0x4 ADD PUSH2 0x4D4 SWAP1 PUSH2 0x4EFD JUMP JUMPDEST PUSH1 0x2 DUP1 SLOAD PUSH1 0x1 SWAP1 DUP2 ADD SWAP2 DUP3 SWAP1 SSTORE PUSH1 0x0 DUP3 DUP2 MSTORE PUSH1 0x3 PUSH1 0x20 MSTORE PUSH1 0x40 DUP2 KECCAK256 DUP4 DUP2 SSTORE DUP1 DUP4 ADD DUP1 SLOAD SWAP2 SWAP4 SWAP1 SWAP2 PUSH1 0xFF NOT AND SWAP1 DUP4 MUL OR SWAP1 SSTORE POP PUSH1 0xA DUP2 ADD DUP1 SLOAD PUSH1 0x1 PUSH1 0x1 PUSH1 0xA0 SHL SUB NOT AND CALLER SWAP1 DUP2 OR SWAP1 SWAP2 SSTORE PUSH1 0x0 PUSH1 0x3 DUP4 ADD DUP2 SWAP1 SSTORE PUSH1 0x1 PUSH1 0xD DUP5 ADD DUP2 SWAP1 SSTORE PUSH1 0xE DUP5 ADD DUP1 SLOAD PUSH1 0xFF NOT AND SWAP1 SSTORE PUSH1 0x5 DUP1 SLOAD SWAP2 DUP3 ADD DUP2 SSTORE SWAP1 SWAP2 MSTORE PUSH32 0x36B6384B5ECA791C62761152D0C79BB0604C104A5FB6F4EB0703F3154BB3DB0 ADD DUP4 SWAP1 SSTORE PUSH1 0x40 MLOAD DUP4 SWAP2 PUSH32 0xC3E0F84839DC888C892A013D10C8F9D6DC05A21A879D0CE468CA558013E9121C SWAP2 PUSH2 0x2274 SWAP2 SWAP1 PUSH2 0x4A72 JUMP JUMPDEST PUSH1 0x40 MLOAD DUP1 SWAP2 SUB SWAP1 LOG2 DUP2 PUSH32 0xF8D27B7CF34386D5D1F7AD30B948B2C8E36BC20003707CE9463AB063CB1412FE PUSH1 0x0 DUP1 PUSH1 0x40 MLOAD PUSH2 0x22AF SWAP3 SWAP2 SWAP1 PUSH2 0x4C49 JUMP JUMPDEST PUSH1 0x40 MLOAD DUP1 SWAP2 SUB SWAP1 LOG2 PUSH1 0x0 JUMPDEST PUSH1 0x1 SLOAD DUP2 LT DUP1 ISZERO PUSH2 0x22CB JUMPI POP PUSH1 0x5 DUP2 LT JUMPDEST ISZERO PUSH2 0x2373 JUMPI PUSH1 0x0 PUSH1 0x1 DUP3 DUP2 SLOAD DUP2 LT PUSH2 0x22F3 JUMPI PUSH4 0x4E487B71 PUSH1 0xE0 SHL PUSH1 0x0 MSTORE PUSH1 0x32 PUSH1 0x4 MSTORE PUSH1 0x24 PUSH1 0x0 REVERT JUMPDEST PUSH1 0x0 SWAP2 DUP3 MSTORE PUSH1 0x20 DUP1 DUP4 KECCAK256 SWAP1 SWAP2 ADD SLOAD PUSH1 0x1 PUSH1 0x1 PUSH1 0xA0 SHL SUB AND DUP1 DUP4 MSTORE SWAP1 DUP3 SWAP1 MSTORE PUSH1 0x40 SWAP1 SWAP2 KECCAK256 SLOAD SWAP1 SWAP2 POP PUSH1 0xFF AND DUP1 ISZERO PUSH2 0x233F JUMPI POP PUSH1 0x1 PUSH1 0x1 PUSH1 0xA0 SHL SUB DUP2 AND PUSH1 0x0 SWAP1 DUP2 MSTORE PUSH1 0x4 PUSH1 0x20 MSTORE PUSH1 0x40 SWAP1 KECCAK256 SLOAD ISZERO JUMPDEST ISZERO PUSH2 0x2360 JUMPI PUSH2 0x234E DUP5 DUP3 PUSH2 0x3D02 JUMP JUMPDEST PUSH1 0x2 DUP4 ADD SLOAD PUSH1 0x5 GT PUSH2 0x2360 JUMPI POP PUSH2 0x2373 JUMP JUMPDEST POP DUP1 PUSH2 0x236B DUP2 PUSH2 0x561A JUMP JUMPDEST SWAP2 POP POP PUSH2 0x22BA JUMP JUMPDEST POP SWAP1 SWAP2 POP POP SWAP1 JUMP JUMPDEST CALLER PUSH1 0x1 PUSH1 0x1 PUSH1 0xA0 SHL SUB PUSH32 0x0 AND EQ PUSH2 0x23C3 JUMPI PUSH1 0x40 MLOAD PUSH3 0x461BCD PUSH1 0xE5 SHL DUP2 MSTORE PUSH1 0x4 ADD PUSH2 0x4D4 SWAP1 PUSH2 0x51F8 JUMP JUMPDEST PUSH1 0x0 JUMPDEST DUP2 DUP2 LT ISZERO PUSH2 0x2505 JUMPI PUSH1 0x0 DUP1 DUP5 DUP5 DUP5 DUP2 DUP2 LT PUSH2 0x23F1 JUMPI PUSH4 0x4E487B71 PUSH1 0xE0 SHL PUSH1 0x0 MSTORE PUSH1 0x32 PUSH1 0x4 MSTORE PUSH1 0x24 PUSH1 0x0 REVERT JUMPDEST SWAP1 POP PUSH1 0x20 MUL ADD PUSH1 0x20 DUP2 ADD SWAP1 PUSH2 0x2406 SWAP2 SWAP1 PUSH2 0x482A JUMP JUMPDEST PUSH1 0x1 PUSH1 0x1 PUSH1 0xA0 SHL SUB AND DUP2 MSTORE PUSH1 0x20 DUP2 ADD SWAP2 SWAP1 SWAP2 MSTORE PUSH1 0x40 ADD PUSH1 0x0 KECCAK256 SLOAD PUSH1 0xFF AND PUSH2 0x24F3 JUMPI PUSH1 0x1 PUSH1 0x0 DUP1 DUP6 DUP6 DUP6 DUP2 DUP2 LT PUSH2 0x244C JUMPI PUSH4 0x4E487B71 PUSH1 0xE0 SHL PUSH1 0x0 MSTORE PUSH1 0x32 PUSH1 0x4 MSTORE PUSH1 0x24 PUSH1 0x0 REVERT JUMPDEST SWAP1 POP PUSH1 0x20 MUL ADD PUSH1 0x20 DUP2 ADD SWAP1 PUSH2 0x2461 SWAP2 SWAP1 PUSH2 0x482A JUMP JUMPDEST PUSH1 0x1 PUSH1 0x1 PUSH1 0xA0 SHL SUB AND DUP2 MSTORE PUSH1 0x20 DUP2 ADD SWAP2 SWAP1 SWAP2 MSTORE PUSH1 0x40 ADD PUSH1 0x0 KECCAK256 DUP1 SLOAD PUSH1 0xFF NOT AND SWAP2 ISZERO ISZERO SWAP2 SWAP1 SWAP2 OR SWAP1 SSTORE PUSH1 0x1 DUP4 DUP4 DUP4 DUP2 DUP2 LT PUSH2 0x24AB JUMPI PUSH4 0x4E487B71 PUSH1 0xE0 SHL PUSH1 0x0 MSTORE PUSH1 0x32 PUSH1 0x4 MSTORE PUSH1 0x24 PUSH1 0x0 REVERT JUMPDEST SWAP1 POP PUSH1 0x20 MUL ADD PUSH1 0x20 DUP2 ADD SWAP1 PUSH2 0x24C0 SWAP2 SWAP1 PUSH2 0x482A JUMP JUMPDEST DUP2 SLOAD PUSH1 0x1 DUP2 ADD DUP4 SSTORE PUSH1 0x0 SWAP3 DUP4 MSTORE PUSH1 0x20 SWAP1 SWAP3 KECCAK256 SWAP1 SWAP2 ADD DUP1 SLOAD PUSH1 0x1 PUSH1 0x1 PUSH1 0xA0 SHL SUB NOT AND PUSH1 0x1 PUSH1 0x1 PUSH1 0xA0 SHL SUB SWAP1 SWAP3 AND SWAP2 SWAP1 SWAP2 OR SWAP1 SSTORE JUMPDEST DUP1 PUSH2 0x24FD DUP2 PUSH2 0x561A JUMP JUMPDEST SWAP2 POP POP PUSH2 0x23C6 JUMP JUMPDEST POP PUSH32 0x1E9E37439D2273FAFA47A6F54F27FFAC0C65726BF94FD2846710E535902062EC DUP3 DUP3 PUSH1 0x40 MLOAD PUSH2 0x2537 SWAP3 SWAP2 SWAP1 PUSH2 0x4A86 JUMP JUMPDEST PUSH1 0x40 MLOAD DUP1 SWAP2 SUB SWAP1 LOG1 POP POP JUMP JUMPDEST PUSH32 0x0 SWAP1 JUMP JUMPDEST CALLER PUSH1 0x0 SWAP1 DUP2 MSTORE PUSH1 0x6 PUSH1 0x20 MSTORE PUSH1 0x40 SWAP1 KECCAK256 SLOAD PUSH1 0xFF AND PUSH2 0x2596 JUMPI PUSH1 0x40 MLOAD PUSH3 0x461BCD PUSH1 0xE5 SHL DUP2 MSTORE PUSH1 0x4 ADD PUSH2 0x4D4 SWAP1 PUSH2 0x4EFD JUMP JUMPDEST PUSH1 0x0 DUP3 DUP2 MSTORE PUSH1 0x3 PUSH1 0x20 MSTORE PUSH1 0x40 SWAP1 KECCAK256 SLOAD DUP3 SWAP1 DUP2 EQ PUSH2 0x25C5 JUMPI PUSH1 0x40 MLOAD PUSH3 0x461BCD PUSH1 0xE5 SHL DUP2 MSTORE PUSH1 0x4 ADD PUSH2 0x4D4 SWAP1 PUSH2 0x50D4 JUMP JUMPDEST PUSH1 0x0 DUP4 DUP2 MSTORE PUSH1 0x3 PUSH1 0x20 MSTORE PUSH1 0x40 SWAP1 KECCAK256 PUSH1 0xE ADD SLOAD DUP4 SWAP1 PUSH1 0xFF AND ISZERO PUSH2 0x25F9 JUMPI PUSH1 0x40 MLOAD PUSH3 0x461BCD PUSH1 0xE5 SHL DUP2 MSTORE PUSH1 0x4 ADD PUSH2 0x4D4 SWAP1 PUSH2 0x53BC JUMP JUMPDEST PUSH1 0x0 DUP5 DUP2 MSTORE PUSH1 0x3 PUSH1 0x20 MSTORE PUSH1 0x40 DUP2 KECCAK256 SWAP1 PUSH1 0x1 DUP3 ADD SLOAD PUSH1 0xFF AND PUSH1 0x4 DUP2 GT ISZERO PUSH2 0x262F JUMPI PUSH4 0x4E487B71 PUSH1 0xE0 SHL PUSH1 0x0 MSTORE PUSH1 0x21 PUSH1 0x4 MSTORE PUSH1 0x24 PUSH1 0x0 REVERT JUMPDEST EQ PUSH2 0x264C JUMPI PUSH1 0x40 MLOAD PUSH3 0x461BCD PUSH1 0xE5 SHL DUP2 MSTORE PUSH1 0x4 ADD PUSH2 0x4D4 SWAP1 PUSH2 0x4DA9 JUMP JUMPDEST PUSH1 0x2 DUP2 ADD SLOAD PUSH1 0x5 GT PUSH2 0x2670 JUMPI PUSH1 0x40 MLOAD PUSH3 0x461BCD PUSH1 0xE5 SHL DUP2 MSTORE PUSH1 0x4 ADD PUSH2 0x4D4 SWAP1 PUSH2 0x517F JUMP JUMPDEST PUSH1 0x1 PUSH1 0x1 PUSH1 0xA0 SHL SUB DUP5 AND PUSH1 0x0 SWAP1 DUP2 MSTORE PUSH1 0x4 PUSH1 0x20 MSTORE PUSH1 0x40 SWAP1 KECCAK256 SLOAD ISZERO PUSH2 0x26A6 JUMPI PUSH1 0x40 MLOAD PUSH3 0x461BCD PUSH1 0xE5 SHL DUP2 MSTORE PUSH1 0x4 ADD PUSH2 0x4D4 SWAP1 PUSH2 0x509D JUMP JUMPDEST PUSH1 0x2 DUP2 ADD DUP1 SLOAD PUSH1 0x1 DUP1 DUP3 ADD DUP4 SSTORE PUSH1 0x0 SWAP3 DUP4 MSTORE PUSH1 0x20 DUP1 DUP5 KECCAK256 SWAP1 SWAP3 ADD DUP1 SLOAD PUSH1 0x1 PUSH1 0x1 PUSH1 0xA0 SHL SUB NOT AND PUSH1 0x1 PUSH1 0x1 PUSH1 0xA0 SHL SUB DUP10 AND SWAP1 DUP2 OR SWAP1 SWAP2 SSTORE DUP1 DUP5 MSTORE PUSH1 0x4 DUP1 DUP7 ADD DUP5 MSTORE PUSH1 0x40 DUP1 DUP7 KECCAK256 DUP1 SLOAD PUSH1 0xFF NOT AND DUP6 OR DUP2 SSTORE PUSH1 0x19 DUP2 DUP7 ADD SSTORE TIMESTAMP PUSH1 0x3 DUP1 DUP4 ADD SWAP2 SWAP1 SWAP2 SSTORE DUP2 DUP5 ADD DUP9 SWAP1 SSTORE SWAP3 SWAP1 SWAP6 MSTORE DUP1 DUP7 KECCAK256 DUP12 SWAP1 SSTORE SWAP1 DUP7 ADD DUP1 SLOAD SWAP1 SWAP4 ADD SWAP1 SWAP3 SSTORE SWAP1 MLOAD SWAP2 SWAP3 SWAP1 SWAP2 DUP9 SWAP2 PUSH32 0x87969BC7FAF902221A147B95CEBA76E011C5EFB0339A0A8EE7A2BB82D9CFBBD6 SWAP2 LOG3 POP POP POP POP POP POP JUMP JUMPDEST PUSH1 0x60 DUP1 PUSH1 0x60 DUP1 PUSH1 0x60 DUP1 DUP7 DUP1 PUSH1 0x3 PUSH1 0x0 DUP4 DUP2 MSTORE PUSH1 0x20 ADD SWAP1 DUP2 MSTORE PUSH1 0x20 ADD PUSH1 0x0 KECCAK256 PUSH1 0x0 ADD SLOAD EQ PUSH2 0x2792 JUMPI PUSH1 0x40 MLOAD PUSH3 0x461BCD PUSH1 0xE5 SHL DUP2 MSTORE PUSH1 0x4 ADD PUSH2 0x4D4 SWAP1 PUSH2 0x50D4 JUMP JUMPDEST PUSH1 0x0 DUP9 DUP2 MSTORE PUSH1 0x3 PUSH1 0x20 SWAP1 DUP2 MSTORE PUSH1 0x40 SWAP2 DUP3 SWAP1 KECCAK256 PUSH1 0x2 DUP2 ADD DUP1 SLOAD DUP5 MLOAD DUP2 DUP6 MUL DUP2 ADD DUP6 ADD SWAP1 SWAP6 MSTORE DUP1 DUP6 MSTORE SWAP2 SWAP4 SWAP2 SWAP3 DUP4 SWAP1 DUP4 ADD DUP3 DUP3 DUP1 ISZERO PUSH2 0x27F8 JUMPI PUSH1 0x20 MUL DUP3 ADD SWAP2 SWAP1 PUSH1 0x0 MSTORE PUSH1 0x20 PUSH1 0x0 KECCAK256 SWAP1 JUMPDEST DUP2 SLOAD PUSH1 0x1 PUSH1 0x1 PUSH1 0xA0 SHL SUB AND DUP2 MSTORE PUSH1 0x1 SWAP1 SWAP2 ADD SWAP1 PUSH1 0x20 ADD DUP1 DUP4 GT PUSH2 0x27DA JUMPI JUMPDEST POP POP POP POP POP SWAP9 POP DUP1 PUSH8 0xFFFFFFFFFFFFFFFF DUP2 GT ISZERO PUSH2 0x2826 JUMPI PUSH4 0x4E487B71 PUSH1 0xE0 SHL PUSH1 0x0 MSTORE PUSH1 0x41 PUSH1 0x4 MSTORE PUSH1 0x24 PUSH1 0x0 REVERT JUMPDEST PUSH1 0x40 MLOAD SWAP1 DUP1 DUP3 MSTORE DUP1 PUSH1 0x20 MUL PUSH1 0x20 ADD DUP3 ADD PUSH1 0x40 MSTORE DUP1 ISZERO PUSH2 0x284F JUMPI DUP2 PUSH1 0x20 ADD PUSH1 0x20 DUP3 MUL DUP1 CALLDATASIZE DUP4 CALLDATACOPY ADD SWAP1 POP JUMPDEST POP SWAP8 POP DUP1 PUSH8 0xFFFFFFFFFFFFFFFF DUP2 GT ISZERO PUSH2 0x2879 JUMPI PUSH4 0x4E487B71 PUSH1 0xE0 SHL PUSH1 0x0 MSTORE PUSH1 0x41 PUSH1 0x4 MSTORE PUSH1 0x24 PUSH1 0x0 REVERT JUMPDEST PUSH1 0x40 MLOAD SWAP1 DUP1 DUP3 MSTORE DUP1 PUSH1 0x20 MUL PUSH1 0x20 ADD DUP3 ADD PUSH1 0x40 MSTORE DUP1 ISZERO PUSH2 0x28A2 JUMPI DUP2 PUSH1 0x20 ADD PUSH1 0x20 DUP3 MUL DUP1 CALLDATASIZE DUP4 CALLDATACOPY ADD SWAP1 POP JUMPDEST POP SWAP7 POP DUP1 PUSH8 0xFFFFFFFFFFFFFFFF DUP2 GT ISZERO PUSH2 0x28CC JUMPI PUSH4 0x4E487B71 PUSH1 0xE0 SHL PUSH1 0x0 MSTORE PUSH1 0x41 PUSH1 0x4 MSTORE PUSH1 0x24 PUSH1 0x0 REVERT JUMPDEST PUSH1 0x40 MLOAD SWAP1 DUP1 DUP3 MSTORE DUP1 PUSH1 0x20 MUL PUSH1 0x20 ADD DUP3 ADD PUSH1 0x40 MSTORE DUP1 ISZERO PUSH2 0x28F5 JUMPI DUP2 PUSH1 0x20 ADD PUSH1 0x20 DUP3 MUL DUP1 CALLDATASIZE DUP4 CALLDATACOPY ADD SWAP1 POP JUMPDEST POP SWAP6 POP DUP1 PUSH8 0xFFFFFFFFFFFFFFFF DUP2 GT ISZERO PUSH2 0x291F JUMPI PUSH4 0x4E487B71 PUSH1 0xE0 SHL PUSH1 0x0 MSTORE PUSH1 0x41 PUSH1 0x4 MSTORE PUSH1 0x24 PUSH1 0x0 REVERT JUMPDEST PUSH1 0x40 MLOAD SWAP1 DUP1 DUP3 MSTORE DUP1 PUSH1 0x20 MUL PUSH1 0x20 ADD DUP3 ADD PUSH1 0x40 MSTORE DUP1 ISZERO PUSH2 0x2948 JUMPI DUP2 PUSH1 0x20 ADD PUSH1 0x20 DUP3 MUL DUP1 CALLDATASIZE DUP4 CALLDATACOPY ADD SWAP1 POP JUMPDEST POP SWAP5 POP DUP1 PUSH8 0xFFFFFFFFFFFFFFFF DUP2 GT ISZERO PUSH2 0x2972 JUMPI PUSH4 0x4E487B71 PUSH1 0xE0 SHL PUSH1 0x0 MSTORE PUSH1 0x41 PUSH1 0x4 MSTORE PUSH1 0x24 PUSH1 0x0 REVERT JUMPDEST PUSH1 0x40 MLOAD SWAP1 DUP1 DUP3 MSTORE DUP1 PUSH1 0x20 MUL PUSH1 0x20 ADD DUP3 ADD PUSH1 0x40 MSTORE DUP1 ISZERO PUSH2 0x299B JUMPI DUP2 PUSH1 0x20 ADD PUSH1 0x20 DUP3 MUL DUP1 CALLDATASIZE DUP4 CALLDATACOPY ADD SWAP1 POP JUMPDEST POP SWAP4 POP PUSH1 0x0 JUMPDEST DUP2 DUP2 LT ISZERO PUSH2 0x2B1F JUMPI PUSH1 0x0 DUP11 DUP3 DUP2 MLOAD DUP2 LT PUSH2 0x29CB JUMPI PUSH4 0x4E487B71 PUSH1 0xE0 SHL PUSH1 0x0 MSTORE PUSH1 0x32 PUSH1 0x4 MSTORE PUSH1 0x24 PUSH1 0x0 REVERT JUMPDEST PUSH1 0x20 SWAP1 DUP2 MUL SWAP2 SWAP1 SWAP2 ADD DUP2 ADD MLOAD PUSH1 0x1 PUSH1 0x1 PUSH1 0xA0 SHL SUB DUP2 AND PUSH1 0x0 SWAP1 DUP2 MSTORE PUSH1 0x4 DUP8 ADD SWAP1 SWAP3 MSTORE PUSH1 0x40 SWAP1 SWAP2 KECCAK256 DUP1 SLOAD DUP13 MLOAD SWAP3 SWAP4 POP SWAP1 SWAP2 PUSH1 0xFF SWAP1 SWAP2 AND SWAP1 DUP13 SWAP1 DUP6 SWAP1 DUP2 LT PUSH2 0x2A21 JUMPI PUSH4 0x4E487B71 PUSH1 0xE0 SHL PUSH1 0x0 MSTORE PUSH1 0x32 PUSH1 0x4 MSTORE PUSH1 0x24 PUSH1 0x0 REVERT JUMPDEST PUSH1 0x20 MUL PUSH1 0x20 ADD ADD SWAP1 ISZERO ISZERO SWAP1 DUP2 ISZERO ISZERO DUP2 MSTORE POP POP DUP1 PUSH1 0x0 ADD PUSH1 0x3 SWAP1 SLOAD SWAP1 PUSH2 0x100 EXP SWAP1 DIV PUSH1 0xFF AND DUP11 DUP5 DUP2 MLOAD DUP2 LT PUSH2 0x2A65 JUMPI PUSH4 0x4E487B71 PUSH1 0xE0 SHL PUSH1 0x0 MSTORE PUSH1 0x32 PUSH1 0x4 MSTORE PUSH1 0x24 PUSH1 0x0 REVERT JUMPDEST PUSH1 0x20 MUL PUSH1 0x20 ADD ADD SWAP1 ISZERO ISZERO SWAP1 DUP2 ISZERO ISZERO DUP2 MSTORE POP POP DUP1 PUSH1 0x1 ADD SLOAD DUP10 DUP5 DUP2 MLOAD DUP2 LT PUSH2 0x2A9C JUMPI PUSH4 0x4E487B71 PUSH1 0xE0 SHL PUSH1 0x0 MSTORE PUSH1 0x32 PUSH1 0x4 MSTORE PUSH1 0x24 PUSH1 0x0 REVERT JUMPDEST PUSH1 0x20 MUL PUSH1 0x20 ADD ADD DUP2 DUP2 MSTORE POP POP DUP1 PUSH1 0x2 ADD SLOAD DUP9 DUP5 DUP2 MLOAD DUP2 LT PUSH2 0x2ACD JUMPI PUSH4 0x4E487B71 PUSH1 0xE0 SHL PUSH1 0x0 MSTORE PUSH1 0x32 PUSH1 0x4 MSTORE PUSH1 0x24 PUSH1 0x0 REVERT JUMPDEST PUSH1 0x20 MUL PUSH1 0x20 ADD ADD DUP2 DUP2 MSTORE POP POP DUP1 PUSH1 0x4 ADD SLOAD DUP8 DUP5 DUP2 MLOAD DUP2 LT PUSH2 0x2AFE JUMPI PUSH4 0x4E487B71 PUSH1 0xE0 SHL PUSH1 0x0 MSTORE PUSH1 0x32 PUSH1 0x4 MSTORE PUSH1 0x24 PUSH1 0x0 REVERT JUMPDEST PUSH1 0x20 MUL PUSH1 0x20 ADD ADD DUP2 DUP2 MSTORE POP POP POP POP DUP1 DUP1 PUSH2 0x2B17 SWAP1 PUSH2 0x561A JUMP JUMPDEST SWAP2 POP POP PUSH2 0x29A1 JUMP JUMPDEST POP POP POP POP SWAP2 SWAP4 SWAP6 POP SWAP2 SWAP4 SWAP6 JUMP JUMPDEST PUSH1 0x0 DUP2 DUP2 MSTORE PUSH1 0x3 PUSH1 0x20 MSTORE PUSH1 0x40 DUP2 KECCAK256 SLOAD DUP3 SWAP1 DUP2 EQ PUSH2 0x2B5B JUMPI PUSH1 0x40 MLOAD PUSH3 0x461BCD PUSH1 0xE5 SHL DUP2 MSTORE PUSH1 0x4 ADD PUSH2 0x4D4 SWAP1 PUSH2 0x50D4 JUMP JUMPDEST POP POP PUSH1 0x0 SWAP1 DUP2 MSTORE PUSH1 0x3 PUSH1 0x20 DUP2 SWAP1 MSTORE PUSH1 0x40 SWAP1 SWAP2 KECCAK256 ADD SLOAD SWAP1 JUMP JUMPDEST PUSH1 0x0 DUP2 DUP2 MSTORE PUSH1 0x3 PUSH1 0x20 MSTORE PUSH1 0x40 SWAP1 KECCAK256 SLOAD DUP2 SWAP1 DUP2 EQ PUSH2 0x2BA2 JUMPI PUSH1 0x40 MLOAD PUSH3 0x461BCD PUSH1 0xE5 SHL DUP2 MSTORE PUSH1 0x4 ADD PUSH2 0x4D4 SWAP1 PUSH2 0x50D4 JUMP JUMPDEST PUSH1 0x0 DUP3 DUP2 MSTORE PUSH1 0x3 PUSH1 0x20 SWAP1 DUP2 MSTORE PUSH1 0x40 DUP1 DUP4 KECCAK256 CALLER DUP5 MSTORE PUSH1 0x4 ADD SWAP1 SWAP2 MSTORE SWAP1 KECCAK256 SLOAD DUP3 SWAP1 PUSH1 0xFF AND PUSH2 0x2BE0 JUMPI PUSH1 0x40 MLOAD PUSH3 0x461BCD PUSH1 0xE5 SHL DUP2 MSTORE PUSH1 0x4 ADD PUSH2 0x4D4 SWAP1 PUSH2 0x4E6F JUMP JUMPDEST PUSH1 0x0 DUP4 DUP2 MSTORE PUSH1 0x3 PUSH1 0x20 MSTORE PUSH1 0x40 SWAP1 KECCAK256 PUSH1 0xC ADD SLOAD DUP4 SWAP1 TIMESTAMP LT ISZERO PUSH2 0x2C13 JUMPI PUSH1 0x40 MLOAD PUSH3 0x461BCD PUSH1 0xE5 SHL DUP2 MSTORE PUSH1 0x4 ADD PUSH2 0x4D4 SWAP1 PUSH2 0x51CE JUMP JUMPDEST PUSH1 0x0 DUP5 DUP2 MSTORE PUSH1 0x3 PUSH1 0x20 MSTORE PUSH1 0x40 SWAP1 KECCAK256 PUSH1 0xE ADD SLOAD DUP5 SWAP1 PUSH1 0xFF AND ISZERO PUSH2 0x2C47 JUMPI PUSH1 0x40 MLOAD PUSH3 0x461BCD PUSH1 0xE5 SHL DUP2 MSTORE PUSH1 0x4 ADD PUSH2 0x4D4 SWAP1 PUSH2 0x53BC JUMP JUMPDEST PUSH1 0x0 DUP6 DUP2 MSTORE PUSH1 0x3 PUSH1 0x20 SWAP1 DUP2 MSTORE PUSH1 0x40 DUP1 DUP4 KECCAK256 CALLER DUP5 MSTORE PUSH1 0x4 DUP2 ADD SWAP1 SWAP3 MSTORE SWAP1 SWAP2 KECCAK256 PUSH1 0x1 DUP1 DUP4 ADD SLOAD PUSH1 0xFF AND PUSH1 0x4 DUP2 GT ISZERO PUSH2 0x2C8D JUMPI PUSH4 0x4E487B71 PUSH1 0xE0 SHL PUSH1 0x0 MSTORE PUSH1 0x21 PUSH1 0x4 MSTORE PUSH1 0x24 PUSH1 0x0 REVERT JUMPDEST EQ PUSH2 0x2CAA JUMPI PUSH1 0x40 MLOAD PUSH3 0x461BCD PUSH1 0xE5 SHL DUP2 MSTORE PUSH1 0x4 ADD PUSH2 0x4D4 SWAP1 PUSH2 0x5075 JUMP JUMPDEST DUP2 PUSH1 0xB ADD SLOAD TIMESTAMP LT PUSH2 0x2CCD JUMPI PUSH1 0x40 MLOAD PUSH3 0x461BCD PUSH1 0xE5 SHL DUP2 MSTORE PUSH1 0x4 ADD PUSH2 0x4D4 SWAP1 PUSH2 0x4DD9 JUMP JUMPDEST DUP1 SLOAD PUSH3 0x10000 SWAP1 DIV PUSH1 0xFF AND ISZERO PUSH2 0x2CF5 JUMPI PUSH1 0x40 MLOAD PUSH3 0x461BCD PUSH1 0xE5 SHL DUP2 MSTORE PUSH1 0x4 ADD PUSH2 0x4D4 SWAP1 PUSH2 0x4E9A JUMP JUMPDEST PUSH1 0x7 DUP2 PUSH1 0x1 ADD SLOAD LT ISZERO PUSH2 0x2D1A JUMPI PUSH1 0x40 MLOAD PUSH3 0x461BCD PUSH1 0xE5 SHL DUP2 MSTORE PUSH1 0x4 ADD PUSH2 0x4D4 SWAP1 PUSH2 0x4ED1 JUMP JUMPDEST PUSH1 0x1 DUP2 DUP2 ADD DUP1 SLOAD PUSH1 0x6 NOT ADD SWAP1 SSTORE DUP2 SLOAD PUSH3 0xFF0000 NOT AND PUSH3 0x10000 OR DUP3 SSTORE TIMESTAMP PUSH1 0x3 DUP4 ADD SSTORE PUSH1 0x4 DUP3 ADD DUP1 SLOAD SWAP1 SWAP2 ADD SWAP1 SSTORE PUSH1 0x40 DUP1 MLOAD PUSH1 0x2 DUP1 DUP3 MSTORE PUSH1 0x60 DUP3 ADD DUP4 MSTORE PUSH1 0x0 SWAP3 PUSH1 0x20 DUP4 ADD SWAP1 DUP1 CALLDATASIZE DUP4 CALLDATACOPY POP POP PUSH1 0x40 DUP1 MLOAD PUSH1 0x2 DUP1 DUP3 MSTORE PUSH1 0x60 DUP3 ADD DUP4 MSTORE SWAP4 SWAP5 POP PUSH1 0x0 SWAP4 SWAP1 SWAP3 POP SWAP1 PUSH1 0x20 DUP4 ADD SWAP1 DUP1 CALLDATASIZE DUP4 CALLDATACOPY POP POP PUSH1 0x40 DUP1 MLOAD PUSH1 0x2 DUP1 DUP3 MSTORE PUSH1 0x60 DUP3 ADD DUP4 MSTORE SWAP4 SWAP5 POP PUSH1 0x0 SWAP4 SWAP1 SWAP3 POP SWAP1 PUSH1 0x20 DUP4 ADD SWAP1 DUP1 CALLDATASIZE DUP4 CALLDATACOPY ADD SWAP1 POP POP SWAP1 POP PUSH2 0x2DBE DUP11 PUSH1 0x2 DUP6 DUP6 DUP6 PUSH2 0x3DDE JUMP JUMPDEST PUSH1 0x0 JUMPDEST PUSH1 0x2 PUSH1 0xFF DUP3 AND LT ISZERO PUSH2 0x2ECE JUMPI PUSH1 0x0 DUP3 DUP3 PUSH1 0xFF AND DUP2 MLOAD DUP2 LT PUSH2 0x2DF2 JUMPI PUSH4 0x4E487B71 PUSH1 0xE0 SHL PUSH1 0x0 MSTORE PUSH1 0x32 PUSH1 0x4 MSTORE PUSH1 0x24 PUSH1 0x0 REVERT JUMPDEST PUSH1 0x20 MUL PUSH1 0x20 ADD ADD MLOAD PUSH1 0xFF AND GT PUSH2 0x2E1A JUMPI PUSH1 0x40 MLOAD PUSH3 0x461BCD PUSH1 0xE5 SHL DUP2 MSTORE PUSH1 0x4 ADD PUSH2 0x4D4 SWAP1 PUSH2 0x4F21 JUMP JUMPDEST PUSH2 0x2E4E DUP12 DUP4 DUP4 PUSH1 0xFF AND DUP2 MLOAD DUP2 LT PUSH2 0x2E41 JUMPI PUSH4 0x4E487B71 PUSH1 0xE0 SHL PUSH1 0x0 MSTORE PUSH1 0x32 PUSH1 0x4 MSTORE PUSH1 0x24 PUSH1 0x0 REVERT JUMPDEST PUSH1 0x20 MUL PUSH1 0x20 ADD ADD MLOAD PUSH2 0x38AC JUMP JUMPDEST ISZERO PUSH2 0x2E6B JUMPI PUSH1 0x40 MLOAD PUSH3 0x461BCD PUSH1 0xE5 SHL DUP2 MSTORE PUSH1 0x4 ADD PUSH2 0x4D4 SWAP1 PUSH2 0x4E03 JUMP JUMPDEST PUSH2 0x2E9F DUP12 DUP4 DUP4 PUSH1 0xFF AND DUP2 MLOAD DUP2 LT PUSH2 0x2E92 JUMPI PUSH4 0x4E487B71 PUSH1 0xE0 SHL PUSH1 0x0 MSTORE PUSH1 0x32 PUSH1 0x4 MSTORE PUSH1 0x24 PUSH1 0x0 REVERT JUMPDEST PUSH1 0x20 MUL PUSH1 0x20 ADD ADD MLOAD PUSH2 0x38CF JUMP JUMPDEST ISZERO PUSH2 0x2EBC JUMPI PUSH1 0x40 MLOAD PUSH3 0x461BCD PUSH1 0xE5 SHL DUP2 MSTORE PUSH1 0x4 ADD PUSH2 0x4D4 SWAP1 PUSH2 0x5242 JUMP JUMPDEST DUP1 PUSH2 0x2EC6 DUP2 PUSH2 0x5635 JUMP JUMPDEST SWAP2 POP POP PUSH2 0x2DC1 JUMP JUMPDEST POP PUSH1 0x0 JUMPDEST PUSH1 0x2 PUSH1 0xFF DUP3 AND LT ISZERO PUSH2 0x2F5A JUMPI PUSH1 0x0 DUP3 DUP3 PUSH1 0xFF AND DUP2 MLOAD DUP2 LT PUSH2 0x2F03 JUMPI PUSH4 0x4E487B71 PUSH1 0xE0 SHL PUSH1 0x0 MSTORE PUSH1 0x32 PUSH1 0x4 MSTORE PUSH1 0x24 PUSH1 0x0 REVERT JUMPDEST PUSH1 0x20 MUL PUSH1 0x20 ADD ADD MLOAD PUSH1 0xFF AND GT ISZERO PUSH2 0x2F48 JUMPI PUSH2 0x2F48 DUP12 DUP4 DUP4 PUSH1 0xFF AND DUP2 MLOAD DUP2 LT PUSH2 0x2F3B JUMPI PUSH4 0x4E487B71 PUSH1 0xE0 SHL PUSH1 0x0 MSTORE PUSH1 0x32 PUSH1 0x4 MSTORE PUSH1 0x24 PUSH1 0x0 REVERT JUMPDEST PUSH1 0x20 MUL PUSH1 0x20 ADD ADD MLOAD PUSH2 0x41A9 JUMP JUMPDEST DUP1 PUSH2 0x2F52 DUP2 PUSH2 0x5635 JUMP JUMPDEST SWAP2 POP POP PUSH2 0x2ED2 JUMP JUMPDEST POP CALLER PUSH1 0x1 PUSH1 0x1 PUSH1 0xA0 SHL SUB AND PUSH32 0x6F8687DD1640E050BB18E188B1E58202E179C438A474793A246D4CA06AA56ABD DUP5 DUP5 PUSH1 0x40 MLOAD PUSH2 0x2F96 SWAP3 SWAP2 SWAP1 PUSH2 0x4BBD JUMP JUMPDEST PUSH1 0x40 MLOAD DUP1 SWAP2 SUB SWAP1 LOG2 CALLER PUSH1 0x1 PUSH1 0x1 PUSH1 0xA0 SHL SUB AND DUP11 PUSH1 0x0 DUP1 MLOAD PUSH1 0x20 PUSH2 0x56AC DUP4 CODECOPY DUP2 MLOAD SWAP2 MSTORE PUSH1 0x7 DUP8 PUSH1 0x4 ADD SLOAD PUSH1 0x40 MLOAD PUSH2 0x2FCD SWAP3 SWAP2 SWAP1 PUSH2 0x538C JUMP JUMPDEST PUSH1 0x40 MLOAD DUP1 SWAP2 SUB SWAP1 LOG3 POP POP POP POP POP POP POP POP POP POP JUMP JUMPDEST PUSH1 0x0 DUP2 DUP2 MSTORE PUSH1 0x3 PUSH1 0x20 MSTORE PUSH1 0x40 DUP2 KECCAK256 SLOAD DUP3 SWAP1 DUP2 EQ PUSH2 0x3010 JUMPI PUSH1 0x40 MLOAD PUSH3 0x461BCD PUSH1 0xE5 SHL DUP2 MSTORE PUSH1 0x4 ADD PUSH2 0x4D4 SWAP1 PUSH2 0x50D4 JUMP JUMPDEST PUSH1 0x0 DUP4 DUP2 MSTORE PUSH1 0x3 PUSH1 0x20 MSTORE PUSH1 0x40 SWAP1 KECCAK256 PUSH1 0x2 PUSH1 0x1 DUP3 ADD SLOAD PUSH1 0xFF AND PUSH1 0x4 DUP2 GT ISZERO PUSH2 0x3047 JUMPI PUSH4 0x4E487B71 PUSH1 0xE0 SHL PUSH1 0x0 MSTORE PUSH1 0x21 PUSH1 0x4 MSTORE PUSH1 0x24 PUSH1 0x0 REVERT JUMPDEST EQ PUSH2 0x3056 JUMPI PUSH1 0x0 SWAP3 POP POP PUSH2 0x14B4 JUMP JUMPDEST PUSH1 0x0 JUMPDEST PUSH1 0x2 DUP3 ADD SLOAD DUP2 LT ISZERO PUSH2 0x3113 JUMPI PUSH1 0x0 DUP3 PUSH1 0x2 ADD DUP3 DUP2 SLOAD DUP2 LT PUSH2 0x308A JUMPI PUSH4 0x4E487B71 PUSH1 0xE0 SHL PUSH1 0x0 MSTORE PUSH1 0x32 PUSH1 0x4 MSTORE PUSH1 0x24 PUSH1 0x0 REVERT JUMPDEST PUSH1 0x0 SWAP2 DUP3 MSTORE PUSH1 0x20 DUP1 DUP4 KECCAK256 SWAP1 SWAP2 ADD SLOAD PUSH1 0x1 PUSH1 0x1 PUSH1 0xA0 SHL SUB AND DUP1 DUP4 MSTORE PUSH1 0x4 DUP7 ADD SWAP1 SWAP2 MSTORE PUSH1 0x40 SWAP1 SWAP2 KECCAK256 SLOAD SWAP1 SWAP2 POP PUSH1 0xFF PUSH4 0x1000000 SWAP1 SWAP2 DIV AND ISZERO PUSH2 0x30CA JUMPI POP PUSH2 0x3101 JUMP JUMPDEST PUSH1 0x9 DUP4 ADD SLOAD PUSH1 0x1 PUSH1 0x1 PUSH1 0xA0 SHL SUB DUP3 AND PUSH1 0x0 SWAP1 DUP2 MSTORE PUSH1 0x4 DUP6 ADD PUSH1 0x20 MSTORE PUSH1 0x40 SWAP1 KECCAK256 PUSH1 0x2 ADD SLOAD LT ISZERO PUSH2 0x30FF JUMPI PUSH1 0x0 SWAP5 POP POP POP POP PUSH2 0x14B4 JUMP JUMPDEST POP JUMPDEST DUP1 PUSH2 0x310B DUP2 PUSH2 0x561A JUMP JUMPDEST SWAP2 POP POP PUSH2 0x3059 JUMP JUMPDEST POP PUSH1 0x1 SWAP5 SWAP4 POP POP POP POP JUMP JUMPDEST PUSH1 0x0 DUP2 DUP2 MSTORE PUSH1 0x3 PUSH1 0x20 MSTORE PUSH1 0x40 SWAP1 KECCAK256 SLOAD DUP2 SWAP1 DUP2 EQ PUSH2 0x314D JUMPI PUSH1 0x40 MLOAD PUSH3 0x461BCD PUSH1 0xE5 SHL DUP2 MSTORE PUSH1 0x4 ADD PUSH2 0x4D4 SWAP1 PUSH2 0x50D4 JUMP JUMPDEST PUSH1 0x0 DUP3 DUP2 MSTORE PUSH1 0x3 PUSH1 0x20 SWAP1 DUP2 MSTORE PUSH1 0x40 DUP1 DUP4 KECCAK256 CALLER DUP5 MSTORE PUSH1 0x4 ADD SWAP1 SWAP2 MSTORE SWAP1 KECCAK256 SLOAD DUP3 SWAP1 PUSH1 0xFF AND PUSH2 0x318B JUMPI PUSH1 0x40 MLOAD PUSH3 0x461BCD PUSH1 0xE5 SHL DUP2 MSTORE PUSH1 0x4 ADD PUSH2 0x4D4 SWAP1 PUSH2 0x4E6F JUMP JUMPDEST PUSH1 0x0 DUP4 DUP2 MSTORE PUSH1 0x3 PUSH1 0x20 MSTORE PUSH1 0x40 SWAP1 KECCAK256 PUSH1 0xC ADD SLOAD DUP4 SWAP1 TIMESTAMP LT ISZERO PUSH2 0x31BE JUMPI PUSH1 0x40 MLOAD PUSH3 0x461BCD PUSH1 0xE5 SHL DUP2 MSTORE PUSH1 0x4 ADD PUSH2 0x4D4 SWAP1 PUSH2 0x51CE JUMP JUMPDEST PUSH1 0x0 DUP5 DUP2 MSTORE PUSH1 0x3 PUSH1 0x20 MSTORE PUSH1 0x40 SWAP1 KECCAK256 PUSH1 0xE ADD SLOAD DUP5 SWAP1 PUSH1 0xFF AND ISZERO PUSH2 0x31F2 JUMPI PUSH1 0x40 MLOAD PUSH3 0x461BCD PUSH1 0xE5 SHL DUP2 MSTORE PUSH1 0x4 ADD PUSH2 0x4D4 SWAP1 PUSH2 0x53BC JUMP JUMPDEST PUSH1 0x0 DUP6 DUP2 MSTORE PUSH1 0x3 PUSH1 0x20 SWAP1 DUP2 MSTORE PUSH1 0x40 DUP1 DUP4 KECCAK256 CALLER DUP5 MSTORE PUSH1 0x4 DUP2 ADD SWAP1 SWAP3 MSTORE SWAP1 SWAP2 KECCAK256 PUSH1 0x2 PUSH1 0x1 DUP4 ADD SLOAD PUSH1 0xFF AND PUSH1 0x4 DUP2 GT ISZERO PUSH2 0x3239 JUMPI PUSH4 0x4E487B71 PUSH1 0xE0 SHL PUSH1 0x0 MSTORE PUSH1 0x21 PUSH1 0x4 MSTORE PUSH1 0x24 PUSH1 0x0 REVERT JUMPDEST EQ PUSH2 0x3256 JUMPI PUSH1 0x40 MLOAD PUSH3 0x461BCD PUSH1 0xE5 SHL DUP2 MSTORE PUSH1 0x4 ADD PUSH2 0x4D4 SWAP1 PUSH2 0x4FB1 JUMP JUMPDEST DUP2 PUSH1 0xB ADD SLOAD TIMESTAMP LT PUSH2 0x3279 JUMPI PUSH1 0x40 MLOAD PUSH3 0x461BCD PUSH1 0xE5 SHL DUP2 MSTORE PUSH1 0x4 ADD PUSH2 0x4D4 SWAP1 PUSH2 0x54A8 JUMP JUMPDEST DUP1 SLOAD PUSH4 0x1000000 SWAP1 DIV PUSH1 0xFF AND ISZERO PUSH2 0x32A2 JUMPI PUSH1 0x40 MLOAD PUSH3 0x461BCD PUSH1 0xE5 SHL DUP2 MSTORE PUSH1 0x4 ADD PUSH2 0x4D4 SWAP1 PUSH2 0x5339 JUMP JUMPDEST PUSH1 0x4 DUP2 ADD DUP1 SLOAD PUSH1 0x1 ADD DUP2 SSTORE DUP2 SLOAD PUSH4 0xFF000000 NOT AND PUSH4 0x1000000 OR DUP3 SSTORE TIMESTAMP PUSH1 0x3 DUP1 DUP5 ADD SWAP2 SWAP1 SWAP2 SSTORE DUP4 ADD DUP1 SLOAD PUSH1 0x0 NOT ADD SWAP1 SSTORE SLOAD PUSH1 0x40 MLOAD CALLER SWAP2 DUP10 SWAP2 PUSH1 0x0 DUP1 MLOAD PUSH1 0x20 PUSH2 0x56AC DUP4 CODECOPY DUP2 MLOAD SWAP2 MSTORE SWAP2 PUSH2 0x32F7 SWAP2 PUSH1 0x0 SWAP2 SWAP1 PUSH2 0x504A JUMP JUMPDEST PUSH1 0x40 MLOAD DUP1 SWAP2 SUB SWAP1 LOG3 PUSH1 0x1 DUP3 ADD SLOAD PUSH1 0x8 DUP4 ADD SLOAD PUSH1 0x9 DUP5 ADD SLOAD PUSH1 0xD DUP6 ADD SLOAD PUSH1 0x40 MLOAD DUP12 SWAP5 PUSH1 0x0 DUP1 MLOAD PUSH1 0x20 PUSH2 0x568C DUP4 CODECOPY DUP2 MLOAD SWAP2 MSTORE SWAP5 PUSH2 0x3339 SWAP5 PUSH1 0xFF SWAP1 SWAP3 AND SWAP4 SWAP1 SWAP3 PUSH2 0x4C64 JUMP JUMPDEST PUSH1 0x40 MLOAD DUP1 SWAP2 SUB SWAP1 LOG2 DUP2 PUSH1 0x3 ADD SLOAD PUSH1 0x1 EQ ISZERO PUSH2 0x3370 JUMPI PUSH1 0x0 PUSH2 0x3359 DUP9 PUSH2 0x41DE JUMP JUMPDEST SWAP1 POP PUSH2 0x3364 DUP9 PUSH2 0x3C6C JUMP JUMPDEST PUSH2 0x336E DUP9 DUP3 PUSH2 0x428E JUMP JUMPDEST POP JUMPDEST POP POP POP POP POP POP POP JUMP JUMPDEST PUSH1 0x0 DUP2 DUP2 MSTORE PUSH1 0x3 PUSH1 0x20 MSTORE PUSH1 0x40 SWAP1 KECCAK256 SLOAD DUP2 SWAP1 DUP2 EQ PUSH2 0x33A8 JUMPI PUSH1 0x40 MLOAD PUSH3 0x461BCD PUSH1 0xE5 SHL DUP2 MSTORE PUSH1 0x4 ADD PUSH2 0x4D4 SWAP1 PUSH2 0x50D4 JUMP JUMPDEST PUSH1 0x0 DUP3 DUP2 MSTORE PUSH1 0x3 PUSH1 0x20 MSTORE PUSH1 0x40 SWAP1 KECCAK256 PUSH1 0xE ADD SLOAD DUP3 SWAP1 PUSH1 0xFF AND ISZERO PUSH2 0x33DC JUMPI PUSH1 0x40 MLOAD PUSH3 0x461BCD PUSH1 0xE5 SHL DUP2 MSTORE PUSH1 0x4 ADD PUSH2 0x4D4 SWAP1 PUSH2 0x53BC JUMP JUMPDEST PUSH1 0x0 DUP4 DUP2 MSTORE PUSH1 0x3 PUSH1 0x20 MSTORE PUSH1 0x40 DUP2 KECCAK256 SWAP1 PUSH1 0x1 DUP3 ADD SLOAD PUSH1 0xFF AND PUSH1 0x4 DUP2 GT ISZERO PUSH2 0x3412 JUMPI PUSH4 0x4E487B71 PUSH1 0xE0 SHL PUSH1 0x0 MSTORE PUSH1 0x21 PUSH1 0x4 MSTORE PUSH1 0x24 PUSH1 0x0 REVERT JUMPDEST EQ PUSH2 0x342F JUMPI PUSH1 0x40 MLOAD PUSH3 0x461BCD PUSH1 0xE5 SHL DUP2 MSTORE PUSH1 0x4 ADD PUSH2 0x4D4 SWAP1 PUSH2 0x4DA9 JUMP JUMPDEST PUSH1 0x2 DUP2 ADD SLOAD PUSH1 0x5 GT PUSH2 0x3453 JUMPI PUSH1 0x40 MLOAD PUSH3 0x461BCD PUSH1 0xE5 SHL DUP2 MSTORE PUSH1 0x4 ADD PUSH2 0x4D4 SWAP1 PUSH2 0x517F JUMP JUMPDEST CALLER PUSH1 0x0 SWAP1 DUP2 MSTORE PUSH1 0x4 PUSH1 0x20 MSTORE PUSH1 0x40 SWAP1 KECCAK256 SLOAD ISZERO PUSH2 0x3480 JUMPI PUSH1 0x40 MLOAD PUSH3 0x461BCD PUSH1 0xE5 SHL DUP2 MSTORE PUSH1 0x4 ADD PUSH2 0x4D4 SWAP1 PUSH2 0x5361 JUMP JUMPDEST PUSH1 0x2 DUP2 ADD DUP1 SLOAD PUSH1 0x1 DUP2 DUP2 ADD DUP4 SSTORE PUSH1 0x0 SWAP3 DUP4 MSTORE PUSH1 0x20 DUP1 DUP5 KECCAK256 SWAP1 SWAP3 ADD DUP1 SLOAD PUSH1 0x1 PUSH1 0x1 PUSH1 0xA0 SHL SUB NOT AND CALLER SWAP1 DUP2 OR SWAP1 SWAP2 SSTORE DUP1 DUP5 MSTORE PUSH1 0x4 DUP1 DUP7 ADD DUP5 MSTORE PUSH1 0x40 DUP1 DUP7 KECCAK256 DUP1 SLOAD PUSH1 0xFF NOT AND DUP6 OR DUP2 SSTORE PUSH1 0x19 DUP2 DUP7 ADD SSTORE TIMESTAMP PUSH1 0x3 DUP1 DUP4 ADD SWAP2 SWAP1 SWAP2 SSTORE DUP2 DUP5 ADD DUP9 SWAP1 SSTORE SWAP3 SWAP1 SWAP6 MSTORE DUP1 DUP7 KECCAK256 DUP11 SWAP1 SSTORE SWAP1 DUP7 ADD DUP1 SLOAD SWAP1 SWAP4 ADD SWAP1 SWAP3 SSTORE SWAP1 MLOAD SWAP2 SWAP3 SWAP1 SWAP2 DUP8 SWAP2 PUSH32 0x87969BC7FAF902221A147B95CEBA76E011C5EFB0339A0A8EE7A2BB82D9CFBBD6 SWAP2 LOG3 POP POP POP POP POP JUMP JUMPDEST PUSH1 0x0 DUP1 PUSH1 0x0 DUP1 PUSH1 0x0 DUP1 PUSH1 0x0 DUP1 PUSH1 0x0 DUP10 DUP1 PUSH1 0x3 PUSH1 0x0 DUP4 DUP2 MSTORE PUSH1 0x20 ADD SWAP1 DUP2 MSTORE PUSH1 0x20 ADD PUSH1 0x0 KECCAK256 PUSH1 0x0 ADD SLOAD EQ PUSH2 0x3567 JUMPI PUSH1 0x40 MLOAD PUSH3 0x461BCD PUSH1 0xE5 SHL DUP2 MSTORE PUSH1 0x4 ADD PUSH2 0x4D4 SWAP1 PUSH2 0x50D4 JUMP JUMPDEST POP POP POP PUSH1 0x0 SWAP8 DUP9 MSTORE POP POP PUSH1 0x3 PUSH1 0x20 DUP2 SWAP1 MSTORE PUSH1 0x40 SWAP1 SWAP7 KECCAK256 PUSH1 0x1 DUP2 ADD SLOAD PUSH1 0x8 DUP3 ADD SLOAD PUSH1 0x9 DUP4 ADD SLOAD PUSH1 0xB DUP5 ADD SLOAD PUSH1 0xC DUP6 ADD SLOAD PUSH1 0x2 DUP7 ADD SLOAD SWAP12 DUP7 ADD SLOAD PUSH1 0xD DUP8 ADD SLOAD PUSH1 0xE SWAP1 SWAP8 ADD SLOAD PUSH1 0xFF SWAP7 DUP8 AND SWAP15 SWAP6 SWAP14 SWAP5 SWAP13 POP SWAP3 SWAP11 POP SWAP1 SWAP9 POP SWAP2 SWAP7 POP SWAP1 SWAP5 POP SWAP1 SWAP2 AND SWAP1 JUMP JUMPDEST CALLER PUSH1 0x1 PUSH1 0x1 PUSH1 0xA0 SHL SUB PUSH32 0x0 AND EQ PUSH2 0x360F JUMPI PUSH1 0x40 MLOAD PUSH3 0x461BCD PUSH1 0xE5 SHL DUP2 MSTORE PUSH1 0x4 ADD PUSH2 0x4D4 SWAP1 PUSH2 0x51F8 JUMP JUMPDEST PUSH1 0x0 JUMPDEST DUP2 DUP2 LT ISZERO PUSH2 0x36E9 JUMPI PUSH1 0x0 DUP1 DUP5 DUP5 DUP5 DUP2 DUP2 LT PUSH2 0x363D JUMPI PUSH4 0x4E487B71 PUSH1 0xE0 SHL PUSH1 0x0 MSTORE PUSH1 0x32 PUSH1 0x4 MSTORE PUSH1 0x24 PUSH1 0x0 REVERT JUMPDEST SWAP1 POP PUSH1 0x20 MUL ADD PUSH1 0x20 DUP2 ADD SWAP1 PUSH2 0x3652 SWAP2 SWAP1 PUSH2 0x482A JUMP JUMPDEST PUSH1 0x1 PUSH1 0x1 PUSH1 0xA0 SHL SUB AND DUP2 MSTORE PUSH1 0x20 DUP2 ADD SWAP2 SWAP1 SWAP2 MSTORE PUSH1 0x40 ADD PUSH1 0x0 KECCAK256 SLOAD PUSH1 0xFF AND ISZERO PUSH2 0x36D7 JUMPI PUSH1 0x0 DUP1 PUSH1 0x0 DUP6 DUP6 DUP6 DUP2 DUP2 LT PUSH2 0x3699 JUMPI PUSH4 0x4E487B71 PUSH1 0xE0 SHL PUSH1 0x0 MSTORE PUSH1 0x32 PUSH1 0x4 MSTORE PUSH1 0x24 PUSH1 0x0 REVERT JUMPDEST SWAP1 POP PUSH1 0x20 MUL ADD PUSH1 0x20 DUP2 ADD SWAP1 PUSH2 0x36AE SWAP2 SWAP1 PUSH2 0x482A JUMP JUMPDEST PUSH1 0x1 PUSH1 0x1 PUSH1 0xA0 SHL SUB AND DUP2 MSTORE PUSH1 0x20 DUP2 ADD SWAP2 SWAP1 SWAP2 MSTORE PUSH1 0x40 ADD PUSH1 0x0 KECCAK256 DUP1 SLOAD PUSH1 0xFF NOT AND SWAP2 ISZERO ISZERO SWAP2 SWAP1 SWAP2 OR SWAP1 SSTORE JUMPDEST DUP1 PUSH2 0x36E1 DUP2 PUSH2 0x561A JUMP JUMPDEST SWAP2 POP POP PUSH2 0x3612 JUMP JUMPDEST POP PUSH32 0xA907E2461CC5DAD6C99BDB07FF6B11DAFDF6752F8A1377E2070277D17D5E7F75 DUP3 DUP3 PUSH1 0x40 MLOAD PUSH2 0x2537 SWAP3 SWAP2 SWAP1 PUSH2 0x4A86 JUMP JUMPDEST PUSH1 0x0 DUP3 DUP2 MSTORE PUSH1 0x3 PUSH1 0x20 MSTORE PUSH1 0x40 SWAP1 KECCAK256 PUSH1 0x6 ADD SLOAD PUSH2 0x3737 SWAP1 DUP3 PUSH2 0x4373 JUMP JUMPDEST PUSH1 0x0 SWAP3 DUP4 MSTORE PUSH1 0x3 PUSH1 0x20 MSTORE PUSH1 0x40 SWAP1 SWAP3 KECCAK256 PUSH1 0x6 ADD SWAP2 SWAP1 SWAP2 SSTORE POP JUMP JUMPDEST PUSH1 0x0 DUP2 DUP2 MSTORE PUSH1 0x3 PUSH1 0x20 SWAP1 DUP2 MSTORE PUSH1 0x40 DUP1 DUP4 KECCAK256 DUP2 MLOAD PUSH1 0x34 DUP1 DUP3 MSTORE PUSH2 0x6A0 DUP3 ADD SWAP1 SWAP4 MSTORE SWAP1 SWAP3 DUP5 SWAP3 SWAP1 DUP3 ADD PUSH2 0x680 DUP1 CALLDATASIZE DUP4 CALLDATACOPY ADD SWAP1 POP POP SWAP1 POP PUSH1 0x0 DUP1 JUMPDEST PUSH1 0x5 DUP5 ADD SLOAD PUSH1 0xFF DUP3 AND LT ISZERO PUSH2 0x3811 JUMPI PUSH2 0x37A1 DUP7 DUP3 PUSH2 0x38AC JUMP JUMPDEST ISZERO DUP1 ISZERO PUSH2 0x37B5 JUMPI POP PUSH2 0x37B3 DUP7 DUP3 PUSH2 0x38CF JUMP JUMPDEST ISZERO JUMPDEST ISZERO PUSH2 0x37FF JUMPI DUP1 DUP4 DUP4 PUSH2 0xFFFF AND DUP2 MLOAD DUP2 LT PUSH2 0x37DF JUMPI PUSH4 0x4E487B71 PUSH1 0xE0 SHL PUSH1 0x0 MSTORE PUSH1 0x32 PUSH1 0x4 MSTORE PUSH1 0x24 PUSH1 0x0 REVERT JUMPDEST PUSH1 0xFF SWAP1 SWAP3 AND PUSH1 0x20 SWAP3 DUP4 MUL SWAP2 SWAP1 SWAP2 ADD SWAP1 SWAP2 ADD MSTORE DUP2 PUSH2 0x37FB DUP2 PUSH2 0x55F8 JUMP JUMPDEST SWAP3 POP POP JUMPDEST DUP1 PUSH2 0x3809 DUP2 PUSH2 0x5635 JUMP JUMPDEST SWAP2 POP POP PUSH2 0x3788 JUMP JUMPDEST POP PUSH1 0x0 DUP2 PUSH2 0xFFFF AND GT PUSH2 0x3836 JUMPI PUSH1 0x40 MLOAD PUSH3 0x461BCD PUSH1 0xE5 SHL DUP2 MSTORE PUSH1 0x4 ADD PUSH2 0x4D4 SWAP1 PUSH2 0x4FDC JUMP JUMPDEST PUSH1 0x0 DUP2 PUSH2 0xFFFF AND DIFFICULTY TIMESTAMP PUSH1 0x40 MLOAD PUSH1 0x20 ADD PUSH2 0x3850 SWAP3 SWAP2 SWAP1 PUSH2 0x4A41 JUMP JUMPDEST PUSH1 0x40 MLOAD PUSH1 0x20 DUP2 DUP4 SUB SUB DUP2 MSTORE SWAP1 PUSH1 0x40 MSTORE DUP1 MLOAD SWAP1 PUSH1 0x20 ADD KECCAK256 PUSH1 0x0 SHR PUSH2 0x3873 SWAP2 SWAP1 PUSH2 0x5655 JUMP JUMPDEST SWAP1 POP DUP3 DUP2 PUSH2 0xFFFF AND DUP2 MLOAD DUP2 LT PUSH2 0x3899 JUMPI PUSH4 0x4E487B71 PUSH1 0xE0 SHL PUSH1 0x0 MSTORE PUSH1 0x32 PUSH1 0x4 MSTORE PUSH1 0x24 PUSH1 0x0 REVERT JUMPDEST PUSH1 0x20 MUL PUSH1 0x20 ADD ADD MLOAD SWAP5 POP POP POP POP POP SWAP2 SWAP1 POP JUMP JUMPDEST PUSH1 0x0 DUP3 DUP2 MSTORE PUSH1 0x3 PUSH1 0x20 MSTORE PUSH1 0x40 DUP2 KECCAK256 PUSH1 0x6 ADD SLOAD PUSH2 0x38C8 SWAP1 DUP4 PUSH2 0x4381 JUMP JUMPDEST SWAP4 SWAP3 POP POP POP JUMP JUMPDEST PUSH1 0x0 DUP3 DUP2 MSTORE PUSH1 0x3 PUSH1 0x20 MSTORE PUSH1 0x40 DUP2 KECCAK256 PUSH1 0x7 ADD SLOAD PUSH2 0x38C8 SWAP1 DUP4 PUSH2 0x4381 JUMP JUMPDEST PUSH1 0x0 DUP3 DUP2 MSTORE PUSH1 0x3 PUSH1 0x20 MSTORE PUSH1 0x40 SWAP1 KECCAK256 PUSH1 0x6 ADD SLOAD PUSH2 0x3737 SWAP1 DUP3 PUSH2 0x4390 JUMP JUMPDEST PUSH1 0x0 SWAP1 DUP2 MSTORE PUSH1 0x3 PUSH1 0x20 MSTORE PUSH1 0x40 SWAP1 KECCAK256 PUSH1 0xD ADD DUP1 SLOAD PUSH1 0x1 ADD SWAP1 SSTORE JUMP JUMPDEST PUSH1 0x0 JUMPDEST PUSH1 0x5 SLOAD DUP2 LT ISZERO PUSH2 0x3A13 JUMPI DUP2 PUSH1 0x5 DUP3 DUP2 SLOAD DUP2 LT PUSH2 0x3950 JUMPI PUSH4 0x4E487B71 PUSH1 0xE0 SHL PUSH1 0x0 MSTORE PUSH1 0x32 PUSH1 0x4 MSTORE PUSH1 0x24 PUSH1 0x0 REVERT JUMPDEST SWAP1 PUSH1 0x0 MSTORE PUSH1 0x20 PUSH1 0x0 KECCAK256 ADD SLOAD EQ ISZERO PUSH2 0x3A01 JUMPI PUSH1 0x5 DUP1 SLOAD PUSH2 0x3971 SWAP1 PUSH1 0x1 SWAP1 PUSH2 0x5589 JUMP JUMPDEST DUP2 SLOAD DUP2 LT PUSH2 0x398F JUMPI PUSH4 0x4E487B71 PUSH1 0xE0 SHL PUSH1 0x0 MSTORE PUSH1 0x32 PUSH1 0x4 MSTORE PUSH1 0x24 PUSH1 0x0 REVERT JUMPDEST SWAP1 PUSH1 0x0 MSTORE PUSH1 0x20 PUSH1 0x0 KECCAK256 ADD SLOAD PUSH1 0x5 DUP3 DUP2 SLOAD DUP2 LT PUSH2 0x39BB JUMPI PUSH4 0x4E487B71 PUSH1 0xE0 SHL PUSH1 0x0 MSTORE PUSH1 0x32 PUSH1 0x4 MSTORE PUSH1 0x24 PUSH1 0x0 REVERT JUMPDEST PUSH1 0x0 SWAP2 DUP3 MSTORE PUSH1 0x20 SWAP1 SWAP2 KECCAK256 ADD SSTORE PUSH1 0x5 DUP1 SLOAD DUP1 PUSH2 0x39E6 JUMPI PUSH4 0x4E487B71 PUSH1 0xE0 SHL PUSH1 0x0 MSTORE PUSH1 0x31 PUSH1 0x4 MSTORE PUSH1 0x24 PUSH1 0x0 REVERT JUMPDEST PUSH1 0x1 SWAP1 SUB DUP2 DUP2 SWAP1 PUSH1 0x0 MSTORE PUSH1 0x20 PUSH1 0x0 KECCAK256 ADD PUSH1 0x0 SWAP1 SSTORE SWAP1 SSTORE PUSH2 0x3A13 JUMP JUMPDEST DUP1 PUSH2 0x3A0B DUP2 PUSH2 0x561A JUMP JUMPDEST SWAP2 POP POP PUSH2 0x3924 JUMP JUMPDEST POP POP JUMP JUMPDEST PUSH1 0x0 DUP2 DUP2 MSTORE PUSH1 0x3 PUSH1 0x20 MSTORE PUSH1 0x40 DUP2 KECCAK256 SWAP1 PUSH2 0x3A34 SWAP1 PUSH1 0x5 DUP4 ADD SWAP1 PUSH2 0x47BD JUMP JUMPDEST PUSH1 0x40 DUP1 MLOAD PUSH1 0x34 DUP1 DUP3 MSTORE PUSH2 0x6A0 DUP3 ADD SWAP1 SWAP3 MSTORE PUSH1 0x0 SWAP2 DUP2 PUSH1 0x20 ADD JUMPDEST PUSH2 0x3A55 PUSH2 0x47DE JUMP JUMPDEST DUP2 MSTORE PUSH1 0x20 ADD SWAP1 PUSH1 0x1 SWAP1 SUB SWAP1 DUP2 PUSH2 0x3A4D JUMPI SWAP1 POP POP SWAP1 POP PUSH1 0x0 DUP1 JUMPDEST PUSH1 0x4 DUP2 PUSH1 0xFF AND LT ISZERO PUSH2 0x3B05 JUMPI PUSH1 0x2 JUMPDEST PUSH1 0xE DUP2 PUSH1 0xFF AND GT PUSH2 0x3AF2 JUMPI PUSH1 0x40 MLOAD DUP1 PUSH1 0x40 ADD PUSH1 0x40 MSTORE DUP1 DUP3 PUSH1 0xFF AND DUP2 MSTORE PUSH1 0x20 ADD DUP4 PUSH1 0xFF AND DUP2 MSTORE POP DUP5 DUP5 PUSH1 0xFF AND DUP2 MLOAD DUP2 LT PUSH2 0x3AC6 JUMPI PUSH4 0x4E487B71 PUSH1 0xE0 SHL PUSH1 0x0 MSTORE PUSH1 0x32 PUSH1 0x4 MSTORE PUSH1 0x24 PUSH1 0x0 REVERT JUMPDEST PUSH1 0x20 MUL PUSH1 0x20 ADD ADD DUP2 SWAP1 MSTORE POP DUP3 DUP1 PUSH2 0x3ADC SWAP1 PUSH2 0x5635 JUMP JUMPDEST SWAP4 POP POP DUP1 DUP1 PUSH2 0x3AEA SWAP1 PUSH2 0x5635 JUMP JUMPDEST SWAP2 POP POP PUSH2 0x3A7D JUMP JUMPDEST POP DUP1 PUSH2 0x3AFD DUP2 PUSH2 0x5635 JUMP JUMPDEST SWAP2 POP POP PUSH2 0x3A6E JUMP JUMPDEST POP PUSH1 0x0 PUSH2 0x3B11 DUP4 PUSH2 0x439D JUMP JUMPDEST SWAP1 POP PUSH1 0x0 JUMPDEST PUSH1 0x34 DUP2 LT ISZERO PUSH2 0x8CB JUMPI DUP5 PUSH1 0x5 ADD DUP3 DUP3 DUP2 MLOAD DUP2 LT PUSH2 0x3B43 JUMPI PUSH4 0x4E487B71 PUSH1 0xE0 SHL PUSH1 0x0 MSTORE PUSH1 0x32 PUSH1 0x4 MSTORE PUSH1 0x24 PUSH1 0x0 REVERT JUMPDEST PUSH1 0x20 SWAP1 DUP2 MUL SWAP2 SWAP1 SWAP2 ADD DUP2 ADD MLOAD DUP3 SLOAD PUSH1 0x1 DUP2 ADD DUP5 SSTORE PUSH1 0x0 SWAP4 DUP5 MSTORE SWAP3 DUP3 SWAP1 KECCAK256 DUP2 MLOAD SWAP4 ADD DUP1 SLOAD SWAP2 SWAP1 SWAP3 ADD MLOAD PUSH1 0xFF SWAP1 DUP2 AND PUSH2 0x100 MUL PUSH2 0xFF00 NOT SWAP2 SWAP1 SWAP5 AND PUSH1 0xFF NOT SWAP1 SWAP3 AND SWAP2 SWAP1 SWAP2 OR AND SWAP2 SWAP1 SWAP2 OR SWAP1 SSTORE DUP1 PUSH2 0x3B97 DUP2 PUSH2 0x561A JUMP JUMPDEST SWAP2 POP POP PUSH2 0x3B16 JUMP JUMPDEST PUSH1 0x0 DUP2 DUP2 MSTORE PUSH1 0x3 PUSH1 0x20 MSTORE PUSH1 0x40 SWAP1 KECCAK256 PUSH2 0x3BB6 DUP3 PUSH2 0x44C7 JUMP JUMPDEST PUSH1 0x0 JUMPDEST PUSH1 0x2 DUP3 ADD SLOAD DUP2 LT ISZERO PUSH2 0x3C4A JUMPI PUSH1 0x0 DUP3 PUSH1 0x2 ADD DUP3 DUP2 SLOAD DUP2 LT PUSH2 0x3BEA JUMPI PUSH4 0x4E487B71 PUSH1 0xE0 SHL PUSH1 0x0 MSTORE PUSH1 0x32 PUSH1 0x4 MSTORE PUSH1 0x24 PUSH1 0x0 REVERT JUMPDEST PUSH1 0x0 SWAP2 DUP3 MSTORE PUSH1 0x20 DUP1 DUP4 KECCAK256 SWAP2 SWAP1 SWAP2 ADD SLOAD PUSH1 0x1 PUSH1 0x1 PUSH1 0xA0 SHL SUB AND DUP1 DUP4 MSTORE PUSH1 0x4 DUP7 ADD SWAP1 SWAP2 MSTORE PUSH1 0x40 SWAP1 SWAP2 KECCAK256 DUP1 SLOAD PUSH5 0xFF00000000 NOT AND PUSH1 0x1 PUSH1 0x20 SHL PUSH1 0xFF DUP7 AND MUL OR SWAP1 SSTORE SWAP1 POP DUP2 PUSH2 0x3C35 DUP6 DUP3 PUSH2 0x38EB JUMP JUMPDEST POP POP DUP1 DUP1 PUSH2 0x3C42 SWAP1 PUSH2 0x561A JUMP JUMPDEST SWAP2 POP POP PUSH2 0x3BB9 JUMP JUMPDEST POP POP POP JUMP JUMPDEST PUSH2 0x3C57 PUSH2 0x44E4 JUMP JUMPDEST PUSH1 0x0 SWAP2 DUP3 MSTORE PUSH1 0x3 PUSH1 0x20 MSTORE PUSH1 0x40 SWAP1 SWAP2 KECCAK256 PUSH1 0x7 ADD SSTORE JUMP JUMPDEST PUSH1 0x0 DUP2 DUP2 MSTORE PUSH1 0x3 PUSH1 0x20 DUP2 SWAP1 MSTORE PUSH1 0x40 SWAP1 SWAP2 KECCAK256 PUSH1 0x1 DUP2 ADD DUP1 SLOAD PUSH1 0xFF NOT AND SWAP1 SWAP3 OR SWAP1 SWAP2 SSTORE PUSH2 0x3C96 DUP3 PUSH2 0x3907 JUMP JUMPDEST PUSH1 0x40 MLOAD DUP3 SWAP1 PUSH32 0xCFEAA304021CFD684AD30C51A76FFD4139EB4B36C6E97D94CCE4DF46B71EE977 SWAP1 PUSH1 0x0 SWAP1 LOG2 PUSH1 0x8 DUP2 ADD SLOAD PUSH1 0x9 DUP3 ADD SLOAD PUSH1 0xD DUP4 ADD SLOAD PUSH1 0x40 MLOAD DUP6 SWAP4 PUSH1 0x0 DUP1 MLOAD PUSH1 0x20 PUSH2 0x568C DUP4 CODECOPY DUP2 MLOAD SWAP2 MSTORE SWAP4 PUSH2 0x3CF1 SWAP4 PUSH1 0x3 SWAP4 PUSH2 0x4C64 JUMP JUMPDEST PUSH1 0x40 MLOAD DUP1 SWAP2 SUB SWAP1 LOG2 PUSH2 0x3A13 DUP3 PUSH2 0x44E9 JUMP JUMPDEST PUSH1 0x0 DUP3 DUP2 MSTORE PUSH1 0x3 PUSH1 0x20 SWAP1 DUP2 MSTORE PUSH1 0x40 DUP1 DUP4 KECCAK256 PUSH1 0x1 PUSH1 0x1 PUSH1 0xA0 SHL SUB DUP6 AND DUP5 MSTORE PUSH1 0x4 SWAP1 SWAP3 MSTORE SWAP1 SWAP2 KECCAK256 SLOAD ISZERO PUSH2 0x3D33 JUMPI POP PUSH2 0x3A13 JUMP JUMPDEST PUSH1 0x2 DUP2 ADD DUP1 SLOAD PUSH1 0x1 DUP1 DUP3 ADD DUP4 SSTORE PUSH1 0x0 SWAP3 DUP4 MSTORE PUSH1 0x20 DUP1 DUP5 KECCAK256 SWAP1 SWAP3 ADD DUP1 SLOAD PUSH1 0x1 PUSH1 0x1 PUSH1 0xA0 SHL SUB NOT AND PUSH1 0x1 PUSH1 0x1 PUSH1 0xA0 SHL SUB DUP8 AND SWAP1 DUP2 OR SWAP1 SWAP2 SSTORE DUP1 DUP5 MSTORE PUSH1 0x4 DUP1 DUP7 ADD DUP5 MSTORE PUSH1 0x40 DUP1 DUP7 KECCAK256 DUP1 SLOAD PUSH1 0xFF NOT AND DUP6 OR DUP2 SSTORE PUSH1 0x19 DUP2 DUP7 ADD SSTORE TIMESTAMP PUSH1 0x3 DUP1 DUP4 ADD SWAP2 SWAP1 SWAP2 SSTORE DUP2 DUP5 ADD DUP9 SWAP1 SSTORE SWAP3 SWAP1 SWAP6 MSTORE DUP1 DUP7 KECCAK256 DUP10 SWAP1 SSTORE SWAP1 DUP7 ADD DUP1 SLOAD SWAP1 SWAP4 ADD SWAP1 SWAP3 SSTORE SWAP1 MLOAD SWAP2 SWAP3 SWAP1 SWAP2 DUP7 SWAP2 PUSH32 0x87969BC7FAF902221A147B95CEBA76E011C5EFB0339A0A8EE7A2BB82D9CFBBD6 SWAP2 LOG3 POP POP POP POP JUMP JUMPDEST PUSH1 0x0 DUP6 DUP2 MSTORE PUSH1 0x3 PUSH1 0x20 MSTORE PUSH1 0x40 DUP1 DUP3 KECCAK256 DUP2 MLOAD PUSH1 0x34 DUP1 DUP3 MSTORE PUSH2 0x6A0 DUP3 ADD SWAP1 SWAP4 MSTORE SWAP1 SWAP3 SWAP2 DUP2 PUSH1 0x20 ADD PUSH1 0x20 DUP3 MUL DUP1 CALLDATASIZE DUP4 CALLDATACOPY ADD SWAP1 POP POP SWAP1 POP PUSH1 0x0 DUP1 JUMPDEST PUSH1 0x5 DUP5 ADD SLOAD PUSH1 0xFF DUP3 AND LT ISZERO PUSH2 0x3E9E JUMPI PUSH2 0x3E2E DUP10 DUP3 PUSH2 0x38AC JUMP JUMPDEST ISZERO DUP1 ISZERO PUSH2 0x3E42 JUMPI POP PUSH2 0x3E40 DUP10 DUP3 PUSH2 0x38CF JUMP JUMPDEST ISZERO JUMPDEST ISZERO PUSH2 0x3E8C JUMPI DUP1 DUP4 DUP4 PUSH2 0xFFFF AND DUP2 MLOAD DUP2 LT PUSH2 0x3E6C JUMPI PUSH4 0x4E487B71 PUSH1 0xE0 SHL PUSH1 0x0 MSTORE PUSH1 0x32 PUSH1 0x4 MSTORE PUSH1 0x24 PUSH1 0x0 REVERT JUMPDEST PUSH1 0xFF SWAP1 SWAP3 AND PUSH1 0x20 SWAP3 DUP4 MUL SWAP2 SWAP1 SWAP2 ADD SWAP1 SWAP2 ADD MSTORE DUP2 PUSH2 0x3E88 DUP2 PUSH2 0x55F8 JUMP JUMPDEST SWAP3 POP POP JUMPDEST DUP1 PUSH2 0x3E96 DUP2 PUSH2 0x5635 JUMP JUMPDEST SWAP2 POP POP PUSH2 0x3E15 JUMP JUMPDEST POP PUSH1 0x0 DUP8 PUSH1 0xFF AND DUP3 PUSH2 0xFFFF AND LT PUSH2 0x3EB5 JUMPI DUP8 PUSH2 0x3EB7 JUMP JUMPDEST DUP2 JUMPDEST SWAP1 POP DIFFICULTY PUSH1 0x0 JUMPDEST DUP3 PUSH1 0xFF AND DUP2 PUSH1 0xFF AND LT ISZERO PUSH2 0x40D0 JUMPI PUSH1 0x0 DUP5 PUSH2 0xFFFF AND DUP4 DUP4 TIMESTAMP PUSH1 0x40 MLOAD PUSH1 0x20 ADD PUSH2 0x3EE7 SWAP4 SWAP3 SWAP2 SWAP1 PUSH2 0x4A4F JUMP JUMPDEST PUSH1 0x40 MLOAD PUSH1 0x20 DUP2 DUP4 SUB SUB DUP2 MSTORE SWAP1 PUSH1 0x40 MSTORE DUP1 MLOAD SWAP1 PUSH1 0x20 ADD KECCAK256 PUSH1 0x0 SHR PUSH2 0x3F0A SWAP2 SWAP1 PUSH2 0x5655 JUMP JUMPDEST SWAP1 POP PUSH1 0x0 DUP7 DUP3 PUSH2 0xFFFF AND DUP2 MLOAD DUP2 LT PUSH2 0x3F32 JUMPI PUSH4 0x4E487B71 PUSH1 0xE0 SHL PUSH1 0x0 MSTORE PUSH1 0x32 PUSH1 0x4 MSTORE PUSH1 0x24 PUSH1 0x0 REVERT JUMPDEST PUSH1 0x20 MUL PUSH1 0x20 ADD ADD MLOAD SWAP1 POP PUSH1 0x0 DUP9 PUSH1 0x5 ADD DUP3 PUSH1 0xFF AND DUP2 SLOAD DUP2 LT PUSH2 0x3F64 JUMPI PUSH4 0x4E487B71 PUSH1 0xE0 SHL PUSH1 0x0 MSTORE PUSH1 0x32 PUSH1 0x4 MSTORE PUSH1 0x24 PUSH1 0x0 REVERT JUMPDEST PUSH1 0x0 SWAP2 DUP3 MSTORE PUSH1 0x20 SWAP2 DUP3 SWAP1 KECCAK256 PUSH1 0x40 DUP1 MLOAD DUP1 DUP3 ADD SWAP1 SWAP2 MSTORE SWAP2 ADD SLOAD PUSH1 0xFF DUP1 DUP3 AND DUP1 DUP5 MSTORE PUSH2 0x100 SWAP1 SWAP3 DIV DUP2 AND SWAP4 DUP4 ADD SWAP4 SWAP1 SWAP4 MSTORE DUP15 MLOAD SWAP2 SWAP4 POP SWAP2 DUP15 SWAP2 SWAP1 DUP8 AND SWAP1 DUP2 LT PUSH2 0x3FBB JUMPI PUSH4 0x4E487B71 PUSH1 0xE0 SHL PUSH1 0x0 MSTORE PUSH1 0x32 PUSH1 0x4 MSTORE PUSH1 0x24 PUSH1 0x0 REVERT JUMPDEST PUSH1 0x20 MUL PUSH1 0x20 ADD ADD SWAP1 PUSH1 0xFF AND SWAP1 DUP2 PUSH1 0xFF AND DUP2 MSTORE POP POP DUP1 PUSH1 0x20 ADD MLOAD DUP12 DUP6 PUSH1 0xFF AND DUP2 MLOAD DUP2 LT PUSH2 0x3FF7 JUMPI PUSH4 0x4E487B71 PUSH1 0xE0 SHL PUSH1 0x0 MSTORE PUSH1 0x32 PUSH1 0x4 MSTORE PUSH1 0x24 PUSH1 0x0 REVERT JUMPDEST PUSH1 0x20 MUL PUSH1 0x20 ADD ADD SWAP1 PUSH1 0xFF AND SWAP1 DUP2 PUSH1 0xFF AND DUP2 MSTORE POP POP DUP2 DUP11 DUP6 PUSH1 0xFF AND DUP2 MLOAD DUP2 LT PUSH2 0x402F JUMPI PUSH4 0x4E487B71 PUSH1 0xE0 SHL PUSH1 0x0 MSTORE PUSH1 0x32 PUSH1 0x4 MSTORE PUSH1 0x24 PUSH1 0x0 REVERT JUMPDEST PUSH1 0xFF SWAP1 SWAP3 AND PUSH1 0x20 SWAP3 DUP4 MUL SWAP2 SWAP1 SWAP2 ADD SWAP1 SWAP2 ADD MSTORE DUP8 PUSH2 0x404D PUSH1 0x1 DUP10 PUSH2 0x5566 JUMP JUMPDEST PUSH2 0xFFFF AND DUP2 MLOAD DUP2 LT PUSH2 0x406F JUMPI PUSH4 0x4E487B71 PUSH1 0xE0 SHL PUSH1 0x0 MSTORE PUSH1 0x32 PUSH1 0x4 MSTORE PUSH1 0x24 PUSH1 0x0 REVERT JUMPDEST PUSH1 0x20 MUL PUSH1 0x20 ADD ADD MLOAD DUP9 DUP5 PUSH2 0xFFFF AND DUP2 MLOAD DUP2 LT PUSH2 0x409B JUMPI PUSH4 0x4E487B71 PUSH1 0xE0 SHL PUSH1 0x0 MSTORE PUSH1 0x32 PUSH1 0x4 MSTORE PUSH1 0x24 PUSH1 0x0 REVERT JUMPDEST PUSH1 0xFF SWAP1 SWAP3 AND PUSH1 0x20 SWAP3 DUP4 MUL SWAP2 SWAP1 SWAP2 ADD SWAP1 SWAP2 ADD MSTORE DUP7 PUSH2 0x40B7 DUP2 PUSH2 0x55C3 JUMP JUMPDEST SWAP8 POP POP POP POP POP DUP1 DUP1 PUSH2 0x40C8 SWAP1 PUSH2 0x5635 JUMP JUMPDEST SWAP2 POP POP PUSH2 0x3EBD JUMP JUMPDEST POP DUP2 JUMPDEST DUP10 PUSH1 0xFF AND DUP2 PUSH1 0xFF AND LT ISZERO PUSH2 0x419C JUMPI PUSH1 0x0 DUP10 DUP3 PUSH1 0xFF AND DUP2 MLOAD DUP2 LT PUSH2 0x4106 JUMPI PUSH4 0x4E487B71 PUSH1 0xE0 SHL PUSH1 0x0 MSTORE PUSH1 0x32 PUSH1 0x4 MSTORE PUSH1 0x24 PUSH1 0x0 REVERT JUMPDEST PUSH1 0x20 MUL PUSH1 0x20 ADD ADD SWAP1 PUSH1 0xFF AND SWAP1 DUP2 PUSH1 0xFF AND DUP2 MSTORE POP POP PUSH1 0x0 DUP9 DUP3 PUSH1 0xFF AND DUP2 MLOAD DUP2 LT PUSH2 0x413F JUMPI PUSH4 0x4E487B71 PUSH1 0xE0 SHL PUSH1 0x0 MSTORE PUSH1 0x32 PUSH1 0x4 MSTORE PUSH1 0x24 PUSH1 0x0 REVERT JUMPDEST PUSH1 0x20 MUL PUSH1 0x20 ADD ADD SWAP1 PUSH1 0xFF AND SWAP1 DUP2 PUSH1 0xFF AND DUP2 MSTORE POP POP PUSH1 0x0 DUP8 DUP3 PUSH1 0xFF AND DUP2 MLOAD DUP2 LT PUSH2 0x4178 JUMPI PUSH4 0x4E487B71 PUSH1 0xE0 SHL PUSH1 0x0 MSTORE PUSH1 0x32 PUSH1 0x4 MSTORE PUSH1 0x24 PUSH1 0x0 REVERT JUMPDEST PUSH1 0xFF SWAP1 SWAP3 AND PUSH1 0x20 SWAP3 DUP4 MUL SWAP2 SWAP1 SWAP2 ADD SWAP1 SWAP2 ADD MSTORE DUP1 PUSH2 0x4194 DUP2 PUSH2 0x5635 JUMP JUMPDEST SWAP2 POP POP PUSH2 0x40D3 JUMP JUMPDEST POP POP POP POP POP POP POP POP POP POP POP JUMP JUMPDEST PUSH1 0x0 DUP3 DUP2 MSTORE PUSH1 0x3 PUSH1 0x20 MSTORE PUSH1 0x40 SWAP1 KECCAK256 PUSH1 0x7 ADD SLOAD PUSH2 0x41C5 SWAP1 DUP3 PUSH2 0x4390 JUMP JUMPDEST PUSH1 0x0 SWAP3 DUP4 MSTORE PUSH1 0x3 PUSH1 0x20 MSTORE PUSH1 0x40 SWAP1 SWAP3 KECCAK256 PUSH1 0x7 ADD SWAP2 SWAP1 SWAP2 SSTORE POP JUMP JUMPDEST PUSH1 0x0 DUP2 DUP2 MSTORE PUSH1 0x3 PUSH1 0x20 MSTORE PUSH1 0x40 DUP2 KECCAK256 DUP2 JUMPDEST PUSH1 0x2 DUP3 ADD SLOAD DUP2 LT ISZERO PUSH2 0x4275 JUMPI PUSH1 0x0 DUP3 PUSH1 0x2 ADD DUP3 DUP2 SLOAD DUP2 LT PUSH2 0x421F JUMPI PUSH4 0x4E487B71 PUSH1 0xE0 SHL PUSH1 0x0 MSTORE PUSH1 0x32 PUSH1 0x4 MSTORE PUSH1 0x24 PUSH1 0x0 REVERT JUMPDEST PUSH1 0x0 SWAP2 DUP3 MSTORE PUSH1 0x20 DUP1 DUP4 KECCAK256 SWAP1 SWAP2 ADD SLOAD PUSH1 0x1 PUSH1 0x1 PUSH1 0xA0 SHL SUB AND DUP1 DUP4 MSTORE PUSH1 0x4 DUP7 ADD SWAP1 SWAP2 MSTORE PUSH1 0x40 SWAP1 SWAP2 KECCAK256 SLOAD SWAP1 SWAP2 POP PUSH1 0xFF PUSH4 0x1000000 SWAP1 SWAP2 DIV AND PUSH2 0x4262 JUMPI SWAP3 POP PUSH2 0x190E SWAP2 POP POP JUMP JUMPDEST POP DUP1 PUSH2 0x426D DUP2 PUSH2 0x561A JUMP JUMPDEST SWAP2 POP POP PUSH2 0x41EE JUMP JUMPDEST POP PUSH1 0x40 MLOAD PUSH3 0x461BCD PUSH1 0xE5 SHL DUP2 MSTORE PUSH1 0x4 ADD PUSH2 0x4D4 SWAP1 PUSH2 0x4E38 JUMP JUMPDEST PUSH1 0x0 DUP3 DUP2 MSTORE PUSH1 0x3 PUSH1 0x20 SWAP1 DUP2 MSTORE PUSH1 0x40 DUP1 DUP4 KECCAK256 PUSH1 0x8 DUP2 ADD SLOAD PUSH1 0x1 PUSH1 0x1 PUSH1 0xA0 SHL SUB DUP7 AND DUP6 MSTORE PUSH1 0x4 DUP1 DUP4 ADD SWAP1 SWAP5 MSTORE SWAP2 SWAP1 SWAP4 KECCAK256 PUSH1 0x1 SWAP1 DUP2 ADD DUP1 SLOAD SWAP1 SWAP3 ADD SWAP1 SWAP2 SSTORE DUP3 ADD DUP1 SLOAD PUSH1 0xFF NOT AND SWAP1 SWAP2 OR SWAP1 SSTORE PUSH2 0x42DF DUP4 PUSH2 0x3907 JUMP JUMPDEST PUSH1 0x0 DUP2 PUSH1 0x8 ADD SLOAD SWAP1 POP DUP3 PUSH1 0x1 PUSH1 0x1 PUSH1 0xA0 SHL SUB AND DUP5 PUSH32 0xF1898DE79C348962FAB7695532341027E5BCEB0EA2A8785790FA7D7EFEEEE129 DUP4 PUSH1 0x40 MLOAD PUSH2 0x4322 SWAP2 SWAP1 PUSH2 0x550C JUMP JUMPDEST PUSH1 0x40 MLOAD DUP1 SWAP2 SUB SWAP1 LOG3 DUP4 PUSH1 0x0 DUP1 MLOAD PUSH1 0x20 PUSH2 0x568C DUP4 CODECOPY DUP2 MLOAD SWAP2 MSTORE PUSH1 0x4 DUP4 DUP6 PUSH1 0x9 ADD SLOAD DUP7 PUSH1 0xD ADD SLOAD PUSH1 0x40 MLOAD PUSH2 0x4357 SWAP5 SWAP4 SWAP3 SWAP2 SWAP1 PUSH2 0x4C64 JUMP JUMPDEST PUSH1 0x40 MLOAD DUP1 SWAP2 SUB SWAP1 LOG2 POP PUSH1 0x0 PUSH1 0x8 DUP3 ADD DUP2 SWAP1 SSTORE PUSH1 0x9 SWAP1 SWAP2 ADD SSTORE POP POP JUMP JUMPDEST PUSH1 0x1 PUSH1 0xFF SWAP2 SWAP1 SWAP2 AND SHL NOT AND SWAP1 JUMP JUMPDEST PUSH1 0x1 PUSH1 0xFF SWAP2 SWAP1 SWAP2 AND SHL AND ISZERO ISZERO SWAP1 JUMP JUMPDEST PUSH1 0x1 PUSH1 0xFF SWAP2 SWAP1 SWAP2 AND SHL OR SWAP1 JUMP JUMPDEST PUSH1 0x60 DIFFICULTY PUSH1 0x0 PUSH2 0x43AE PUSH1 0x1 PUSH1 0x34 PUSH2 0x55A0 JUMP JUMPDEST PUSH1 0xFF AND SWAP1 POP JUMPDEST DUP1 ISZERO PUSH2 0x44BF JUMPI PUSH1 0x0 PUSH2 0x43C7 DUP3 PUSH1 0x1 PUSH2 0x554E JUMP JUMPDEST DUP4 DUP4 PUSH1 0x40 MLOAD PUSH1 0x20 ADD PUSH2 0x43DA SWAP3 SWAP2 SWAP1 PUSH2 0x4A41 JUMP JUMPDEST PUSH1 0x40 MLOAD PUSH1 0x20 DUP2 DUP4 SUB SUB DUP2 MSTORE SWAP1 PUSH1 0x40 MSTORE DUP1 MLOAD SWAP1 PUSH1 0x20 ADD KECCAK256 PUSH1 0x0 SHR PUSH2 0x43FD SWAP2 SWAP1 PUSH2 0x5655 JUMP JUMPDEST SWAP1 POP PUSH1 0x0 DUP6 DUP4 DUP2 MLOAD DUP2 LT PUSH2 0x4421 JUMPI PUSH4 0x4E487B71 PUSH1 0xE0 SHL PUSH1 0x0 MSTORE PUSH1 0x32 PUSH1 0x4 MSTORE PUSH1 0x24 PUSH1 0x0 REVERT JUMPDEST PUSH1 0x20 MUL PUSH1 0x20 ADD ADD MLOAD SWAP1 POP DUP6 DUP3 DUP2 MLOAD DUP2 LT PUSH2 0x444B JUMPI PUSH4 0x4E487B71 PUSH1 0xE0 SHL PUSH1 0x0 MSTORE PUSH1 0x32 PUSH1 0x4 MSTORE PUSH1 0x24 PUSH1 0x0 REVERT JUMPDEST PUSH1 0x20 MUL PUSH1 0x20 ADD ADD MLOAD DUP7 DUP5 DUP2 MLOAD DUP2 LT PUSH2 0x4473 JUMPI PUSH4 0x4E487B71 PUSH1 0xE0 SHL PUSH1 0x0 MSTORE PUSH1 0x32 PUSH1 0x4 MSTORE PUSH1 0x24 PUSH1 0x0 REVERT JUMPDEST PUSH1 0x20 MUL PUSH1 0x20 ADD ADD DUP2 SWAP1 MSTORE POP DUP1 DUP7 DUP4 DUP2 MLOAD DUP2 LT PUSH2 0x449F JUMPI PUSH4 0x4E487B71 PUSH1 0xE0 SHL PUSH1 0x0 MSTORE PUSH1 0x32 PUSH1 0x4 MSTORE PUSH1 0x24 PUSH1 0x0 REVERT JUMPDEST PUSH1 0x20 MUL PUSH1 0x20 ADD ADD DUP2 SWAP1 MSTORE POP POP POP DUP1 DUP1 PUSH2 0x44B7 SWAP1 PUSH2 0x55E1 JUMP JUMPDEST SWAP2 POP POP PUSH2 0x43B4 JUMP JUMPDEST POP SWAP2 SWAP3 SWAP2 POP POP JUMP JUMPDEST PUSH2 0x44CF PUSH2 0x44E4 JUMP JUMPDEST PUSH1 0x0 SWAP2 DUP3 MSTORE PUSH1 0x3 PUSH1 0x20 MSTORE PUSH1 0x40 SWAP1 SWAP2 KECCAK256 PUSH1 0x6 ADD SSTORE JUMP JUMPDEST PUSH1 0x0 SWAP1 JUMP JUMPDEST PUSH1 0x0 DUP2 DUP2 MSTORE PUSH1 0x3 PUSH1 0x20 MSTORE PUSH1 0x40 DUP2 KECCAK256 SWAP1 PUSH2 0x4501 DUP4 PUSH2 0x4657 JUMP JUMPDEST SWAP1 POP PUSH1 0x0 JUMPDEST PUSH1 0x2 DUP4 ADD SLOAD DUP2 LT ISZERO PUSH2 0x464C JUMPI PUSH1 0x0 DUP4 PUSH1 0x2 ADD DUP3 DUP2 SLOAD DUP2 LT PUSH2 0x4537 JUMPI PUSH4 0x4E487B71 PUSH1 0xE0 SHL PUSH1 0x0 MSTORE PUSH1 0x32 PUSH1 0x4 MSTORE PUSH1 0x24 PUSH1 0x0 REVERT JUMPDEST PUSH1 0x0 SWAP2 DUP3 MSTORE PUSH1 0x20 DUP1 DUP4 KECCAK256 SWAP1 SWAP2 ADD SLOAD PUSH1 0x1 PUSH1 0x1 PUSH1 0xA0 SHL SUB AND DUP1 DUP4 MSTORE PUSH1 0x4 DUP8 ADD SWAP1 SWAP2 MSTORE PUSH1 0x40 SWAP1 SWAP2 KECCAK256 SLOAD SWAP1 SWAP2 POP PUSH1 0xFF PUSH4 0x1000000 SWAP1 SWAP2 DIV AND ISZERO PUSH2 0x4577 JUMPI POP PUSH2 0x463A JUMP JUMPDEST PUSH1 0x1 PUSH1 0x1 PUSH1 0xA0 SHL SUB DUP2 AND PUSH1 0x0 SWAP1 DUP2 MSTORE PUSH1 0x4 DUP6 ADD PUSH1 0x20 MSTORE PUSH1 0x40 DUP2 KECCAK256 SLOAD PUSH1 0x5 DUP7 ADD DUP1 SLOAD PUSH1 0x1 PUSH1 0x20 SHL SWAP1 SWAP3 DIV PUSH1 0xFF AND SWAP3 SWAP2 DUP4 SWAP1 DUP2 LT PUSH2 0x45C3 JUMPI PUSH4 0x4E487B71 PUSH1 0xE0 SHL PUSH1 0x0 MSTORE PUSH1 0x32 PUSH1 0x4 MSTORE PUSH1 0x24 PUSH1 0x0 REVERT JUMPDEST PUSH1 0x0 SWAP2 DUP3 MSTORE PUSH1 0x20 SWAP2 DUP3 SWAP1 KECCAK256 PUSH1 0x40 DUP1 MLOAD DUP1 DUP3 ADD DUP3 MSTORE SWAP3 SWAP1 SWAP2 ADD SLOAD PUSH1 0xFF DUP1 DUP3 AND DUP1 DUP6 MSTORE PUSH2 0x100 SWAP1 SWAP3 DIV AND SWAP4 DUP4 ADD DUP5 SWAP1 MSTORE SWAP1 MLOAD SWAP2 SWAP4 POP PUSH1 0x1 PUSH1 0x1 PUSH1 0xA0 SHL SUB DUP7 AND SWAP3 PUSH32 0xE1299F54CCE9BBBB7B050A7A2E071F3272E75F57D041E1CFB8CC88969634CF06 SWAP3 PUSH2 0x462E SWAP3 SWAP2 SWAP1 PUSH2 0x5515 JUMP JUMPDEST PUSH1 0x40 MLOAD DUP1 SWAP2 SUB SWAP1 LOG2 POP POP POP JUMPDEST DUP1 PUSH2 0x4644 DUP2 PUSH2 0x561A JUMP JUMPDEST SWAP2 POP POP PUSH2 0x4506 JUMP JUMPDEST POP PUSH2 0x3C4A DUP4 DUP3 PUSH2 0x428E JUMP JUMPDEST PUSH1 0x0 DUP2 DUP2 MSTORE PUSH1 0x3 PUSH1 0x20 MSTORE PUSH1 0x40 DUP2 KECCAK256 DUP2 DUP1 DUP1 DUP1 JUMPDEST PUSH1 0x2 DUP6 ADD SLOAD DUP2 LT ISZERO PUSH2 0x47B2 JUMPI PUSH1 0x0 DUP6 PUSH1 0x2 ADD DUP3 DUP2 SLOAD DUP2 LT PUSH2 0x469B JUMPI PUSH4 0x4E487B71 PUSH1 0xE0 SHL PUSH1 0x0 MSTORE PUSH1 0x32 PUSH1 0x4 MSTORE PUSH1 0x24 PUSH1 0x0 REVERT JUMPDEST PUSH1 0x0 SWAP2 DUP3 MSTORE PUSH1 0x20 DUP1 DUP4 KECCAK256 SWAP1 SWAP2 ADD SLOAD PUSH1 0x1 PUSH1 0x1 PUSH1 0xA0 SHL SUB AND DUP1 DUP4 MSTORE PUSH1 0x4 DUP10 ADD SWAP1 SWAP2 MSTORE PUSH1 0x40 SWAP1 SWAP2 KECCAK256 SLOAD SWAP1 SWAP2 POP PUSH1 0xFF PUSH4 0x1000000 SWAP1 SWAP2 DIV AND ISZERO PUSH2 0x46DB JUMPI POP PUSH2 0x47A0 JUMP JUMPDEST PUSH1 0x1 PUSH1 0x1 PUSH1 0xA0 SHL SUB DUP2 AND PUSH1 0x0 SWAP1 DUP2 MSTORE PUSH1 0x4 DUP8 ADD PUSH1 0x20 MSTORE PUSH1 0x40 DUP2 KECCAK256 SLOAD PUSH1 0x5 DUP9 ADD DUP1 SLOAD PUSH1 0x1 PUSH1 0x20 SHL SWAP1 SWAP3 DIV PUSH1 0xFF AND SWAP3 SWAP2 DUP4 SWAP1 DUP2 LT PUSH2 0x4727 JUMPI PUSH4 0x4E487B71 PUSH1 0xE0 SHL PUSH1 0x0 MSTORE PUSH1 0x32 PUSH1 0x4 MSTORE PUSH1 0x24 PUSH1 0x0 REVERT JUMPDEST PUSH1 0x0 SWAP2 DUP3 MSTORE PUSH1 0x20 SWAP2 DUP3 SWAP1 KECCAK256 PUSH1 0x40 DUP1 MLOAD DUP1 DUP3 ADD SWAP1 SWAP2 MSTORE SWAP2 ADD SLOAD PUSH1 0xFF DUP1 DUP3 AND DUP1 DUP5 MSTORE PUSH2 0x100 SWAP1 SWAP3 DIV DUP2 AND SWAP4 DUP4 ADD SWAP4 SWAP1 SWAP4 MSTORE SWAP1 SWAP3 POP SWAP1 DUP8 AND LT DUP1 PUSH2 0x4785 JUMPI POP DUP6 PUSH1 0xFF AND DUP2 PUSH1 0x0 ADD MLOAD PUSH1 0xFF AND EQ DUP1 ISZERO PUSH2 0x4785 JUMPI POP DUP5 PUSH1 0xFF AND DUP2 PUSH1 0x20 ADD MLOAD PUSH1 0xFF AND GT JUMPDEST ISZERO PUSH2 0x479C JUMPI DUP1 PUSH1 0x0 ADD MLOAD SWAP6 POP DUP1 PUSH1 0x20 ADD MLOAD SWAP5 POP DUP3 SWAP7 POP JUMPDEST POP POP POP JUMPDEST DUP1 PUSH2 0x47AA DUP2 PUSH2 0x561A JUMP JUMPDEST SWAP2 POP POP PUSH2 0x466A JUMP JUMPDEST POP SWAP2 SWAP6 SWAP5 POP POP POP POP POP JUMP JUMPDEST POP DUP1 SLOAD PUSH1 0x0 DUP3 SSTORE SWAP1 PUSH1 0x0 MSTORE PUSH1 0x20 PUSH1 0x0 KECCAK256 SWAP1 DUP2 ADD SWAP1 PUSH2 0x47DB SWAP2 SWAP1 PUSH2 0x47F5 JUMP JUMPDEST POP JUMP JUMPDEST PUSH1 0x40 DUP1 MLOAD DUP1 DUP3 ADD SWAP1 SWAP2 MSTORE PUSH1 0x0 DUP1 DUP3 MSTORE PUSH1 0x20 DUP3 ADD MSTORE SWAP1 JUMP JUMPDEST JUMPDEST DUP1 DUP3 GT ISZERO PUSH2 0x480F JUMPI DUP1 SLOAD PUSH2 0xFFFF NOT AND DUP2 SSTORE PUSH1 0x1 ADD PUSH2 0x47F6 JUMP JUMPDEST POP SWAP1 JUMP JUMPDEST DUP1 CALLDATALOAD PUSH1 0x1 PUSH1 0x1 PUSH1 0xA0 SHL SUB DUP2 AND DUP2 EQ PUSH2 0x190E JUMPI PUSH1 0x0 DUP1 REVERT JUMPDEST PUSH1 0x0 PUSH1 0x20 DUP3 DUP5 SUB SLT ISZERO PUSH2 0x483B JUMPI DUP1 DUP2 REVERT JUMPDEST PUSH2 0x38C8 DUP3 PUSH2 0x4813 JUMP JUMPDEST PUSH1 0x0 DUP1 PUSH1 0x20 DUP4 DUP6 SUB SLT ISZERO PUSH2 0x4856 JUMPI DUP1 DUP2 REVERT JUMPDEST DUP3 CALLDATALOAD PUSH8 0xFFFFFFFFFFFFFFFF DUP1 DUP3 GT ISZERO PUSH2 0x486D JUMPI DUP3 DUP4 REVERT JUMPDEST DUP2 DUP6 ADD SWAP2 POP DUP6 PUSH1 0x1F DUP4 ADD SLT PUSH2 0x4880 JUMPI DUP3 DUP4 REVERT JUMPDEST DUP2 CALLDATALOAD DUP2 DUP2 GT ISZERO PUSH2 0x488E JUMPI DUP4 DUP5 REVERT JUMPDEST DUP7 PUSH1 0x20 DUP1 DUP4 MUL DUP6 ADD ADD GT ISZERO PUSH2 0x48A1 JUMPI DUP4 DUP5 REVERT JUMPDEST PUSH1 0x20 SWAP3 SWAP1 SWAP3 ADD SWAP7 SWAP2 SWAP6 POP SWAP1 SWAP4 POP POP POP POP JUMP JUMPDEST PUSH1 0x0 PUSH1 0x20 DUP3 DUP5 SUB SLT ISZERO PUSH2 0x48C4 JUMPI DUP1 DUP2 REVERT JUMPDEST POP CALLDATALOAD SWAP2 SWAP1 POP JUMP JUMPDEST PUSH1 0x0 DUP1 PUSH1 0x40 DUP4 DUP6 SUB SLT ISZERO PUSH2 0x48DD JUMPI DUP2 DUP3 REVERT JUMPDEST DUP3 CALLDATALOAD SWAP2 POP PUSH2 0x48ED PUSH1 0x20 DUP5 ADD PUSH2 0x4813 JUMP JUMPDEST SWAP1 POP SWAP3 POP SWAP3 SWAP1 POP JUMP JUMPDEST PUSH1 0x0 DUP1 PUSH1 0x40 DUP4 DUP6 SUB SLT ISZERO PUSH2 0x4908 JUMPI DUP2 DUP3 REVERT JUMPDEST DUP3 CALLDATALOAD SWAP2 POP PUSH1 0x20 DUP4 ADD CALLDATALOAD DUP1 ISZERO ISZERO DUP2 EQ PUSH2 0x491E JUMPI DUP2 DUP3 REVERT JUMPDEST DUP1 SWAP2 POP POP SWAP3 POP SWAP3 SWAP1 POP JUMP JUMPDEST PUSH1 0x0 DUP1 PUSH1 0x40 DUP4 DUP6 SUB SLT ISZERO PUSH2 0x493B JUMPI DUP2 DUP3 REVERT JUMPDEST POP POP DUP1 CALLDATALOAD SWAP3 PUSH1 0x20 SWAP1 SWAP2 ADD CALLDATALOAD SWAP2 POP JUMP JUMPDEST PUSH1 0x0 DUP2 MLOAD DUP1 DUP5 MSTORE PUSH1 0x20 DUP1 DUP6 ADD SWAP5 POP DUP1 DUP5 ADD DUP4 JUMPDEST DUP4 DUP2 LT ISZERO PUSH2 0x4982 JUMPI DUP2 MLOAD PUSH1 0x1 PUSH1 0x1 PUSH1 0xA0 SHL SUB AND DUP8 MSTORE SWAP6 DUP3 ADD SWAP6 SWAP1 DUP3 ADD SWAP1 PUSH1 0x1 ADD PUSH2 0x495D JUMP JUMPDEST POP SWAP5 SWAP6 SWAP5 POP POP POP POP POP JUMP JUMPDEST PUSH1 0x0 DUP2 MLOAD DUP1 DUP5 MSTORE PUSH1 0x20 DUP1 DUP6 ADD SWAP5 POP DUP1 DUP5 ADD DUP4 JUMPDEST DUP4 DUP2 LT ISZERO PUSH2 0x4982 JUMPI DUP2 MLOAD ISZERO ISZERO DUP8 MSTORE SWAP6 DUP3 ADD SWAP6 SWAP1 DUP3 ADD SWAP1 PUSH1 0x1 ADD PUSH2 0x49A0 JUMP JUMPDEST PUSH1 0x0 DUP2 MLOAD DUP1 DUP5 MSTORE PUSH1 0x20 DUP1 DUP6 ADD SWAP5 POP DUP1 DUP5 ADD DUP4 JUMPDEST DUP4 DUP2 LT ISZERO PUSH2 0x4982 JUMPI DUP2 MLOAD DUP8 MSTORE SWAP6 DUP3 ADD SWAP6 SWAP1 DUP3 ADD SWAP1 PUSH1 0x1 ADD PUSH2 0x49D1 JUMP JUMPDEST PUSH1 0x0 DUP2 MLOAD DUP1 DUP5 MSTORE PUSH1 0x20 DUP1 DUP6 ADD SWAP5 POP DUP1 DUP5 ADD DUP4 JUMPDEST DUP4 DUP2 LT ISZERO PUSH2 0x4982 JUMPI DUP2 MLOAD PUSH1 0xFF AND DUP8 MSTORE SWAP6 DUP3 ADD SWAP6 SWAP1 DUP3 ADD SWAP1 PUSH1 0x1 ADD PUSH2 0x4A00 JUMP JUMPDEST PUSH1 0x5 DUP2 LT PUSH2 0x4A3D JUMPI PUSH4 0x4E487B71 PUSH1 0xE0 SHL PUSH1 0x0 MSTORE PUSH1 0x21 PUSH1 0x4 MSTORE PUSH1 0x24 PUSH1 0x0 REVERT JUMPDEST SWAP1 MSTORE JUMP JUMPDEST SWAP2 DUP3 MSTORE PUSH1 0x20 DUP3 ADD MSTORE PUSH1 0x40 ADD SWAP1 JUMP JUMPDEST SWAP3 DUP4 MSTORE PUSH1 0xF8 SWAP2 SWAP1 SWAP2 SHL PUSH1 0x1 PUSH1 0x1 PUSH1 0xF8 SHL SUB NOT AND PUSH1 0x20 DUP4 ADD MSTORE PUSH1 0x21 DUP3 ADD MSTORE PUSH1 0x41 ADD SWAP1 JUMP JUMPDEST PUSH1 0x1 PUSH1 0x1 PUSH1 0xA0 SHL SUB SWAP2 SWAP1 SWAP2 AND DUP2 MSTORE PUSH1 0x20 ADD SWAP1 JUMP JUMPDEST PUSH1 0x20 DUP1 DUP3 MSTORE DUP2 DUP2 ADD DUP4 SWAP1 MSTORE PUSH1 0x0 SWAP1 DUP5 PUSH1 0x40 DUP5 ADD DUP4 JUMPDEST DUP7 DUP2 LT ISZERO PUSH2 0x4AC7 JUMPI PUSH1 0x1 PUSH1 0x1 PUSH1 0xA0 SHL SUB PUSH2 0x4AB4 DUP5 PUSH2 0x4813 JUMP JUMPDEST AND DUP3 MSTORE SWAP2 DUP4 ADD SWAP2 SWAP1 DUP4 ADD SWAP1 PUSH1 0x1 ADD PUSH2 0x4A9B JUMP JUMPDEST POP SWAP7 SWAP6 POP POP POP POP POP POP JUMP JUMPDEST PUSH1 0x0 PUSH1 0x20 DUP3 MSTORE PUSH2 0x38C8 PUSH1 0x20 DUP4 ADD DUP5 PUSH2 0x494A JUMP JUMPDEST PUSH1 0x0 PUSH1 0xC0 DUP3 MSTORE PUSH2 0x4AF8 PUSH1 0xC0 DUP4 ADD DUP10 PUSH2 0x494A JUMP JUMPDEST DUP3 DUP2 SUB PUSH1 0x20 DUP5 ADD MSTORE PUSH2 0x4B0A DUP2 DUP10 PUSH2 0x498D JUMP JUMPDEST SWAP1 POP DUP3 DUP2 SUB PUSH1 0x40 DUP5 ADD MSTORE PUSH2 0x4B1E DUP2 DUP9 PUSH2 0x498D JUMP JUMPDEST SWAP1 POP DUP3 DUP2 SUB PUSH1 0x60 DUP5 ADD MSTORE PUSH2 0x4B32 DUP2 DUP8 PUSH2 0x49BE JUMP JUMPDEST SWAP1 POP DUP3 DUP2 SUB PUSH1 0x80 DUP5 ADD MSTORE PUSH2 0x4B46 DUP2 DUP7 PUSH2 0x49BE JUMP JUMPDEST SWAP1 POP DUP3 DUP2 SUB PUSH1 0xA0 DUP5 ADD MSTORE PUSH2 0x4B5A DUP2 DUP6 PUSH2 0x49BE JUMP JUMPDEST SWAP10 SWAP9 POP POP POP POP POP POP POP POP POP JUMP JUMPDEST PUSH1 0x0 PUSH1 0x60 DUP3 MSTORE PUSH2 0x4B7A PUSH1 0x60 DUP4 ADD DUP7 PUSH2 0x494A JUMP JUMPDEST DUP3 DUP2 SUB PUSH1 0x20 DUP5 ADD MSTORE PUSH2 0x4B8C DUP2 DUP7 PUSH2 0x49ED JUMP JUMPDEST SWAP1 POP DUP3 DUP2 SUB PUSH1 0x40 DUP5 ADD MSTORE PUSH2 0x4BA0 DUP2 DUP6 PUSH2 0x49ED JUMP JUMPDEST SWAP7 SWAP6 POP POP POP POP POP POP JUMP JUMPDEST PUSH1 0x0 PUSH1 0x20 DUP3 MSTORE PUSH2 0x38C8 PUSH1 0x20 DUP4 ADD DUP5 PUSH2 0x49BE JUMP JUMPDEST PUSH1 0x0 PUSH1 0x40 DUP3 MSTORE PUSH2 0x4BD0 PUSH1 0x40 DUP4 ADD DUP6 PUSH2 0x49ED JUMP JUMPDEST DUP3 DUP2 SUB PUSH1 0x20 DUP5 ADD MSTORE PUSH2 0x4BE2 DUP2 DUP6 PUSH2 0x49ED JUMP JUMPDEST SWAP6 SWAP5 POP POP POP POP POP JUMP JUMPDEST SWAP1 ISZERO ISZERO DUP2 MSTORE PUSH1 0x20 ADD SWAP1 JUMP JUMPDEST SWAP8 ISZERO ISZERO DUP9 MSTORE SWAP6 ISZERO ISZERO PUSH1 0x20 DUP9 ADD MSTORE SWAP4 ISZERO ISZERO PUSH1 0x40 DUP8 ADD MSTORE SWAP2 ISZERO ISZERO PUSH1 0x60 DUP7 ADD MSTORE PUSH1 0x80 DUP6 ADD MSTORE PUSH1 0xA0 DUP5 ADD MSTORE PUSH1 0xC0 DUP4 ADD MSTORE PUSH1 0xE0 DUP3 ADD MSTORE PUSH2 0x100 ADD SWAP1 JUMP JUMPDEST PUSH1 0x40 DUP2 ADD PUSH2 0x4C3C DUP3 DUP6 PUSH2 0x4A1F JUMP JUMPDEST PUSH2 0x38C8 PUSH1 0x20 DUP4 ADD DUP5 PUSH2 0x4A1F JUMP JUMPDEST PUSH1 0x40 DUP2 ADD PUSH2 0x4C57 DUP3 DUP6 PUSH2 0x4A1F JUMP JUMPDEST DUP3 PUSH1 0x20 DUP4 ADD MSTORE SWAP4 SWAP3 POP POP POP JUMP JUMPDEST PUSH1 0x80 DUP2 ADD PUSH2 0x4C72 DUP3 DUP8 PUSH2 0x4A1F JUMP JUMPDEST DUP5 PUSH1 0x20 DUP4 ADD MSTORE DUP4 PUSH1 0x40 DUP4 ADD MSTORE DUP3 PUSH1 0x60 DUP4 ADD MSTORE SWAP6 SWAP5 POP POP POP POP POP JUMP JUMPDEST PUSH2 0x160 DUP2 ADD PUSH2 0x4C9C DUP3 DUP15 PUSH2 0x4A1F JUMP JUMPDEST PUSH1 0x20 DUP3 ADD SWAP12 SWAP1 SWAP12 MSTORE PUSH1 0x40 DUP2 ADD SWAP10 SWAP1 SWAP10 MSTORE PUSH1 0x60 DUP10 ADD SWAP8 SWAP1 SWAP8 MSTORE PUSH1 0x80 DUP9 ADD SWAP6 SWAP1 SWAP6 MSTORE PUSH1 0xA0 DUP8 ADD SWAP4 SWAP1 SWAP4 MSTORE PUSH1 0xC0 DUP7 ADD SWAP2 SWAP1 SWAP2 MSTORE PUSH1 0xE0 DUP6 ADD MSTORE PUSH1 0x1 PUSH1 0x1 PUSH1 0xA0 SHL SUB AND PUSH2 0x100 DUP5 ADD MSTORE PUSH2 0x120 DUP4 ADD MSTORE ISZERO ISZERO PUSH2 0x140 SWAP1 SWAP2 ADD MSTORE SWAP2 SWAP1 POP JUMP JUMPDEST PUSH2 0x120 DUP2 ADD PUSH2 0x4D03 DUP3 DUP13 PUSH2 0x4A1F JUMP JUMPDEST PUSH1 0x20 DUP3 ADD SWAP10 SWAP1 SWAP10 MSTORE PUSH1 0x40 DUP2 ADD SWAP8 SWAP1 SWAP8 MSTORE PUSH1 0x60 DUP8 ADD SWAP6 SWAP1 SWAP6 MSTORE PUSH1 0x80 DUP7 ADD SWAP4 SWAP1 SWAP4 MSTORE PUSH1 0xA0 DUP6 ADD SWAP2 SWAP1 SWAP2 MSTORE PUSH1 0xC0 DUP5 ADD MSTORE PUSH1 0xE0 DUP4 ADD MSTORE ISZERO ISZERO PUSH2 0x100 SWAP1 SWAP2 ADD MSTORE SWAP2 SWAP1 POP JUMP JUMPDEST PUSH1 0x60 DUP1 DUP3 MSTORE PUSH1 0x8 SWAP1 DUP3 ADD MSTORE PUSH8 0x1CDDD85C10D85C99 PUSH1 0xC2 SHL PUSH1 0x80 DUP3 ADD MSTORE PUSH1 0x20 DUP2 ADD SWAP3 SWAP1 SWAP3 MSTORE PUSH1 0x40 DUP3 ADD MSTORE PUSH1 0xA0 ADD SWAP1 JUMP JUMPDEST PUSH1 0x20 DUP1 DUP3 MSTORE PUSH1 0x1A SWAP1 DUP3 ADD MSTORE PUSH32 0x4D6F6E74792048616C6C206F7074696F6E206E6F742075736564000000000000 PUSH1 0x40 DUP3 ADD MSTORE PUSH1 0x60 ADD SWAP1 JUMP JUMPDEST PUSH1 0x20 DUP1 DUP3 MSTORE PUSH1 0x16 SWAP1 DUP3 ADD MSTORE PUSH22 0x4E6F7420726567697374726174696F6E207374617465 PUSH1 0x50 SHL PUSH1 0x40 DUP3 ADD MSTORE PUSH1 0x60 ADD SWAP1 JUMP JUMPDEST PUSH1 0x20 DUP1 DUP3 MSTORE PUSH1 0x10 SWAP1 DUP3 ADD MSTORE PUSH16 0x1419595AC81C1A185CD948195B991959 PUSH1 0x82 SHL PUSH1 0x40 DUP3 ADD MSTORE PUSH1 0x60 ADD SWAP1 JUMP JUMPDEST PUSH1 0x20 DUP1 DUP3 MSTORE DUP2 DUP2 ADD MSTORE PUSH32 0x4D6F6E74792048616C6C206361726420616C72656164792061737369676E6564 PUSH1 0x40 DUP3 ADD MSTORE PUSH1 0x60 ADD SWAP1 JUMP JUMPDEST PUSH1 0x20 DUP1 DUP3 MSTORE PUSH1 0x17 SWAP1 DUP3 ADD MSTORE PUSH32 0x4E6F2061637469766520706C617965727320666F756E64000000000000000000 PUSH1 0x40 DUP3 ADD MSTORE PUSH1 0x60 ADD SWAP1 JUMP JUMPDEST PUSH1 0x20 DUP1 DUP3 MSTORE PUSH1 0x11 SWAP1 DUP3 ADD MSTORE PUSH17 0x2737BA1030B1BA34BB3290383630BCB2B9 PUSH1 0x79 SHL PUSH1 0x40 DUP3 ADD MSTORE PUSH1 0x60 ADD SWAP1 JUMP JUMPDEST PUSH1 0x20 DUP1 DUP3 MSTORE PUSH1 0x1E SWAP1 DUP3 ADD MSTORE PUSH32 0x416C72656164792075736564204D6F6E74792048616C6C206F7074696F6E0000 PUSH1 0x40 DUP3 ADD MSTORE PUSH1 0x60 ADD SWAP1 JUMP JUMPDEST PUSH1 0x20 DUP1 DUP3 MSTORE PUSH1 0x12 SWAP1 DUP3 ADD MSTORE PUSH18 0x496E73756666696369656E74206368697073 PUSH1 0x70 SHL PUSH1 0x40 DUP3 ADD MSTORE PUSH1 0x60 ADD SWAP1 JUMP JUMPDEST PUSH1 0x20 DUP1 DUP3 MSTORE PUSH1 0xA SWAP1 DUP3 ADD MSTORE PUSH10 0x2737BA1035B2B2B832B9 PUSH1 0xB1 SHL PUSH1 0x40 DUP3 ADD MSTORE PUSH1 0x60 ADD SWAP1 JUMP JUMPDEST PUSH1 0x20 DUP1 DUP3 MSTORE PUSH1 0x1D SWAP1 DUP3 ADD MSTORE PUSH32 0x496E76616C6964204D6F6E74792048616C6C206361726420696E646578000000 PUSH1 0x40 DUP3 ADD MSTORE PUSH1 0x60 ADD SWAP1 JUMP JUMPDEST PUSH1 0x20 DUP1 DUP3 MSTORE PUSH1 0x16 SWAP1 DUP3 ADD MSTORE PUSH22 0x135D5CDD081B585D18DA0818DD5C9C995B9D0818995D PUSH1 0x52 SHL PUSH1 0x40 DUP3 ADD MSTORE PUSH1 0x60 ADD SWAP1 JUMP JUMPDEST PUSH1 0x20 DUP1 DUP3 MSTORE PUSH1 0xF SWAP1 DUP3 ADD MSTORE PUSH15 0x4E65656420322B20706C6179657273 PUSH1 0x88 SHL PUSH1 0x40 DUP3 ADD MSTORE PUSH1 0x60 ADD SWAP1 JUMP JUMPDEST PUSH1 0x20 DUP1 DUP3 MSTORE PUSH1 0x11 SWAP1 DUP3 ADD MSTORE PUSH17 0x4E6F742062657474696E67207068617365 PUSH1 0x78 SHL PUSH1 0x40 DUP3 ADD MSTORE PUSH1 0x60 ADD SWAP1 JUMP JUMPDEST PUSH1 0x20 DUP1 DUP3 MSTORE PUSH1 0x1B SWAP1 DUP3 ADD MSTORE PUSH32 0x4E6F20617661696C61626C6520636172647320666F7220737761700000000000 PUSH1 0x40 DUP3 ADD MSTORE PUSH1 0x60 ADD SWAP1 JUMP JUMPDEST PUSH1 0x20 DUP1 DUP3 MSTORE PUSH1 0x1D SWAP1 DUP3 ADD MSTORE PUSH32 0x4E657720636172642077617320616C72656164792072657665616C6564000000 PUSH1 0x40 DUP3 ADD MSTORE PUSH1 0x60 ADD SWAP1 JUMP JUMPDEST PUSH1 0x60 DUP1 DUP3 MSTORE PUSH1 0x4 SWAP1 DUP3 ADD MSTORE PUSH4 0x199BDB19 PUSH1 0xE2 SHL PUSH1 0x80 DUP3 ADD MSTORE PUSH1 0x20 DUP2 ADD SWAP3 SWAP1 SWAP3 MSTORE PUSH1 0x40 DUP3 ADD MSTORE PUSH1 0xA0 ADD SWAP1 JUMP JUMPDEST PUSH1 0x20 DUP1 DUP3 MSTORE PUSH1 0xE SWAP1 DUP3 ADD MSTORE PUSH14 0x4E6F74207065656B207068617365 PUSH1 0x90 SHL PUSH1 0x40 DUP3 ADD MSTORE PUSH1 0x60 ADD SWAP1 JUMP JUMPDEST PUSH1 0x20 DUP1 DUP3 MSTORE PUSH1 0x18 SWAP1 DUP3 ADD MSTORE PUSH32 0x506C6179657220616C726561647920696E20612067616D650000000000000000 PUSH1 0x40 DUP3 ADD MSTORE PUSH1 0x60 ADD SWAP1 JUMP JUMPDEST PUSH1 0x20 DUP1 DUP3 MSTORE PUSH1 0xE SWAP1 DUP3 ADD MSTORE PUSH14 0x11D85B59481B9BDD08199BDD5B99 PUSH1 0x92 SHL PUSH1 0x40 DUP3 ADD MSTORE PUSH1 0x60 ADD SWAP1 JUMP JUMPDEST PUSH1 0x20 DUP1 DUP3 MSTORE PUSH1 0x10 SWAP1 DUP3 ADD MSTORE PUSH16 0x4E6F7420696E20746869732067616D65 PUSH1 0x80 SHL PUSH1 0x40 DUP3 ADD MSTORE PUSH1 0x60 ADD SWAP1 JUMP JUMPDEST PUSH1 0x60 DUP1 DUP3 MSTORE PUSH1 0x8 SWAP1 DUP3 ADD MSTORE PUSH8 0x1AD9595C10D85C99 PUSH1 0xC2 SHL PUSH1 0x80 DUP3 ADD MSTORE PUSH1 0x20 DUP2 ADD SWAP3 SWAP1 SWAP3 MSTORE PUSH1 0x40 DUP3 ADD MSTORE PUSH1 0xA0 ADD SWAP1 JUMP JUMPDEST PUSH1 0x60 DUP1 DUP3 MSTORE PUSH1 0x3 SWAP1 DUP3 ADD MSTORE PUSH3 0x18995D PUSH1 0xEA SHL PUSH1 0x80 DUP3 ADD MSTORE PUSH1 0x20 DUP2 ADD SWAP3 SWAP1 SWAP3 MSTORE PUSH1 0x40 DUP3 ADD MSTORE PUSH1 0xA0 ADD SWAP1 JUMP JUMPDEST PUSH1 0x20 DUP1 DUP3 MSTORE PUSH1 0x9 SWAP1 DUP3 ADD MSTORE PUSH9 0x11D85B5948199D5B1B PUSH1 0xBA SHL PUSH1 0x40 DUP3 ADD MSTORE PUSH1 0x60 ADD SWAP1 JUMP JUMPDEST PUSH1 0x60 DUP1 DUP3 MSTORE PUSH1 0x5 SWAP1 DUP3 ADD MSTORE PUSH5 0x6C65617665 PUSH1 0xD8 SHL PUSH1 0x80 DUP3 ADD MSTORE PUSH1 0x20 DUP2 ADD SWAP3 SWAP1 SWAP3 MSTORE PUSH1 0x40 DUP3 ADD MSTORE PUSH1 0xA0 ADD SWAP1 JUMP JUMPDEST PUSH1 0x20 DUP1 DUP3 MSTORE PUSH1 0x10 SWAP1 DUP3 ADD MSTORE PUSH16 0x125B88189D5999995C881C195C9A5BD9 PUSH1 0x82 SHL PUSH1 0x40 DUP3 ADD MSTORE PUSH1 0x60 ADD SWAP1 JUMP JUMPDEST PUSH1 0x20 DUP1 DUP3 MSTORE PUSH1 0x9 SWAP1 DUP3 ADD MSTORE PUSH9 0x2737BA1037BBB732B9 PUSH1 0xB9 SHL PUSH1 0x40 DUP3 ADD MSTORE PUSH1 0x60 ADD SWAP1 JUMP JUMPDEST PUSH1 0x20 DUP1 DUP3 MSTORE PUSH1 0xD SWAP1 DUP3 ADD MSTORE PUSH13 0x10995D081D1BDBC81CDB585B1B PUSH1 0x9A SHL PUSH1 0x40 DUP3 ADD MSTORE PUSH1 0x60 ADD SWAP1 JUMP JUMPDEST PUSH1 0x20 DUP1 DUP3 MSTORE DUP2 DUP2 ADD MSTORE PUSH32 0x4D6F6E74792048616C6C206361726420616C72656164792072657665616C6564 PUSH1 0x40 DUP3 ADD MSTORE PUSH1 0x60 ADD SWAP1 JUMP JUMPDEST PUSH1 0x20 DUP1 DUP3 MSTORE PUSH1 0x1A SWAP1 DUP3 ADD MSTORE PUSH32 0x42657474696E67207068617365206E6F742066696E6973686564000000000000 PUSH1 0x40 DUP3 ADD MSTORE PUSH1 0x60 ADD SWAP1 JUMP JUMPDEST PUSH1 0x20 DUP1 DUP3 MSTORE PUSH1 0x16 SWAP1 DUP3 ADD MSTORE PUSH22 0x10D85C991CC81B9BDD081E595D081C995D99585B1959 PUSH1 0x52 SHL PUSH1 0x40 DUP3 ADD MSTORE PUSH1 0x60 ADD SWAP1 JUMP JUMPDEST PUSH1 0x20 DUP1 DUP3 MSTORE PUSH1 0x16 SWAP1 DUP3 ADD MSTORE PUSH22 0x92DCECC2D8D2C840DCCAEE40C6C2E4C840D2DCC8CAF PUSH1 0x53 SHL PUSH1 0x40 DUP3 ADD MSTORE PUSH1 0x60 ADD SWAP1 JUMP JUMPDEST PUSH1 0x60 DUP1 DUP3 MSTORE PUSH1 0x4 SWAP1 DUP3 ADD MSTORE PUSH4 0x7065656B PUSH1 0xE0 SHL PUSH1 0x80 DUP3 ADD MSTORE PUSH1 0x20 DUP2 ADD SWAP3 SWAP1 SWAP3 MSTORE PUSH1 0x40 DUP3 ADD MSTORE PUSH1 0xA0 ADD SWAP1 JUMP JUMPDEST PUSH1 0x20 DUP1 DUP3 MSTORE PUSH1 0xE SWAP1 DUP3 ADD MSTORE PUSH14 0x105B1C9958591E48199BDB191959 PUSH1 0x92 SHL PUSH1 0x40 DUP3 ADD MSTORE PUSH1 0x60 ADD SWAP1 JUMP JUMPDEST PUSH1 0x20 DUP1 DUP3 MSTORE PUSH1 0x11 SWAP1 DUP3 ADD MSTORE PUSH17 0x416C726561647920696E20612067616D65 PUSH1 0x78 SHL PUSH1 0x40 DUP3 ADD MSTORE PUSH1 0x60 ADD SWAP1 JUMP JUMPDEST PUSH1 0x60 DUP1 DUP3 MSTORE PUSH1 0x9 SWAP1 DUP3 ADD MSTORE PUSH9 0x1B5BDB9D1E52185B1B PUSH1 0xBA SHL PUSH1 0x80 DUP3 ADD MSTORE PUSH1 0x20 DUP2 ADD SWAP3 SWAP1 SWAP3 MSTORE PUSH1 0x40 DUP3 ADD MSTORE PUSH1 0xA0 ADD SWAP1 JUMP JUMPDEST PUSH1 0x20 DUP1 DUP3 MSTORE PUSH1 0x17 SWAP1 DUP3 ADD MSTORE PUSH32 0x47616D6520616C726561647920636C65616E6564207570000000000000000000 PUSH1 0x40 DUP3 ADD MSTORE PUSH1 0x60 ADD SWAP1 JUMP JUMPDEST PUSH1 0x20 DUP1 DUP3 MSTORE PUSH1 0xE SWAP1 DUP3 ADD MSTORE PUSH14 0x105B1C9958591E481C19595AD959 PUSH1 0x92 SHL PUSH1 0x40 DUP3 ADD MSTORE PUSH1 0x60 ADD SWAP1 JUMP JUMPDEST PUSH1 0x20 DUP1 DUP3 MSTORE PUSH1 0x19 SWAP1 DUP3 ADD MSTORE PUSH32 0x4E6577206361726420616C72656164792061737369676E656400000000000000 PUSH1 0x40 DUP3 ADD MSTORE PUSH1 0x60 ADD SWAP1 JUMP JUMPDEST PUSH1 0x20 DUP1 DUP3 MSTORE PUSH1 0x14 SWAP1 DUP3 ADD MSTORE PUSH20 0x11D85B5948185B1C9958591E481CDD185C9D1959 PUSH1 0x62 SHL PUSH1 0x40 DUP3 ADD MSTORE PUSH1 0x60 ADD SWAP1 JUMP JUMPDEST PUSH1 0x20 DUP1 DUP3 MSTORE PUSH1 0xE SWAP1 DUP3 ADD MSTORE PUSH14 0x11D85B59481B9BDD08195B991959 PUSH1 0x92 SHL PUSH1 0x40 DUP3 ADD MSTORE PUSH1 0x60 ADD SWAP1 JUMP JUMPDEST PUSH1 0x20 DUP1 DUP3 MSTORE PUSH1 0x13 SWAP1 DUP3 ADD MSTORE PUSH19 0x10995D1D1A5B99C81C1A185CD948195B991959 PUSH1 0x6A SHL PUSH1 0x40 DUP3 ADD MSTORE PUSH1 0x60 ADD SWAP1 JUMP JUMPDEST PUSH1 0x20 DUP1 DUP3 MSTORE PUSH1 0x17 SWAP1 DUP3 ADD MSTORE PUSH32 0x5065656B207068617365206E6F742066696E6973686564000000000000000000 PUSH1 0x40 DUP3 ADD MSTORE PUSH1 0x60 ADD SWAP1 JUMP JUMPDEST SWAP1 DUP2 MSTORE PUSH1 0x20 ADD SWAP1 JUMP JUMPDEST PUSH1 0xFF SWAP3 DUP4 AND DUP2 MSTORE SWAP2 AND PUSH1 0x20 DUP3 ADD MSTORE PUSH1 0x40 ADD SWAP1 JUMP JUMPDEST PUSH1 0xFF SWAP5 DUP6 AND DUP2 MSTORE SWAP3 DUP5 AND PUSH1 0x20 DUP5 ADD MSTORE SWAP1 DUP4 AND PUSH1 0x40 DUP4 ADD MSTORE SWAP1 SWAP2 AND PUSH1 0x60 DUP3 ADD MSTORE PUSH1 0x80 ADD SWAP1 JUMP JUMPDEST PUSH1 0x0 DUP3 NOT DUP3 GT ISZERO PUSH2 0x5561 JUMPI PUSH2 0x5561 PUSH2 0x5675 JUMP JUMPDEST POP ADD SWAP1 JUMP JUMPDEST PUSH1 0x0 PUSH2 0xFFFF DUP4 DUP2 AND SWAP1 DUP4 AND DUP2 DUP2 LT ISZERO PUSH2 0x5581 JUMPI PUSH2 0x5581 PUSH2 0x5675 JUMP JUMPDEST SUB SWAP4 SWAP3 POP POP POP JUMP JUMPDEST PUSH1 0x0 DUP3 DUP3 LT ISZERO PUSH2 0x559B JUMPI PUSH2 0x559B PUSH2 0x5675 JUMP JUMPDEST POP SUB SWAP1 JUMP JUMPDEST PUSH1 0x0 PUSH1 0xFF DUP3 AND PUSH1 0xFF DUP5 AND DUP1 DUP3 LT ISZERO PUSH2 0x55BA JUMPI PUSH2 0x55BA PUSH2 0x5675 JUMP JUMPDEST SWAP1 SUB SWAP4 SWAP3 POP POP POP JUMP JUMPDEST PUSH1 0x0 PUSH2 0xFFFF DUP3 AND DUP1 PUSH2 0x55D7 JUMPI PUSH2 0x55D7 PUSH2 0x5675 JUMP JUMPDEST PUSH1 0x0 NOT ADD SWAP3 SWAP2 POP POP JUMP JUMPDEST PUSH1 0x0 DUP2 PUSH2 0x55F0 JUMPI PUSH2 0x55F0 PUSH2 0x5675 JUMP JUMPDEST POP PUSH1 0x0 NOT ADD SWAP1 JUMP JUMPDEST PUSH1 0x0 PUSH2 0xFFFF DUP1 DUP4 AND DUP2 DUP2 EQ ISZERO PUSH2 0x5610 JUMPI PUSH2 0x5610 PUSH2 0x5675 JUMP JUMPDEST PUSH1 0x1 ADD SWAP4 SWAP3 POP POP POP JUMP JUMPDEST PUSH1 0x0 PUSH1 0x0 NOT DUP3 EQ ISZERO PUSH2 0x562E JUMPI PUSH2 0x562E PUSH2 0x5675 JUMP JUMPDEST POP PUSH1 0x1 ADD SWAP1 JUMP JUMPDEST PUSH1 0x0 PUSH1 0xFF DUP3 AND PUSH1 0xFF DUP2 EQ ISZERO PUSH2 0x564C JUMPI PUSH2 0x564C PUSH2 0x5675 JUMP JUMPDEST PUSH1 0x1 ADD SWAP3 SWAP2 POP POP JUMP JUMPDEST PUSH1 0x0 DUP3 PUSH2 0x5670 JUMPI PUSH4 0x4E487B71 PUSH1 0xE0 SHL DUP2 MSTORE PUSH1 0x12 PUSH1 0x4 MSTORE PUSH1 0x24 DUP2 REVERT JUMPDEST POP MOD SWAP1 JUMP JUMPDEST PUSH4 0x4E487B71 PUSH1 0xE0 SHL PUSH1 0x0 MSTORE PUSH1 0x11 PUSH1 0x4 MSTORE PUSH1 0x24 PUSH1 0x0 REVERT INVALID MOD SMOD CALLVALUE OR 0x21 PUSH17 0x1A494DA2223EE353609CE7A0D98C9C7A4F 0xD DUP16 PUSH31 0x88DA11755E8C6F602F6212C12F2EE3D71AED536EE490592C8C673758D935D4 PUSH26 0xB147252D0434A2646970667358221220FDD37BEE183C8B5ADD7E 0xE2 CALLDATALOAD SWAP13 ADD DIV DUP12 DUP3 TIMESTAMP CALL INVALID PUSH30 0xD8517BF8024959246564F64736F6C634300080000330000000000000000 "},"methodIdentifiers":{"addKeeper(address)":"4032b72b","addMultipleToWhitelist(address[])":"8401f8d1","addPlayerToGame(uint256,address)":"9d36ac19","checkAllPlayersMatched(uint256)":"ba3a9520","cleanup(uint256)":"0aa40018","createGame()":"7255d729","endBettingPhase(uint256)":"30be62b2","endPeekPhase(uint256)":"09734764","fold(uint256)":"bff7a00b","getActiveGames()":"1b76929c","getActivePlayerCount(uint256)":"a410274c","getActivePlayers(uint256)":"342ed956","getGameBasicInfo(uint256)":"f0344e36","getGameInfo(uint256)":"47e1d550","getPlayerInfo(uint256,address)":"3ccd10e9","getPlayers(uint256)":"460e2049","getPlayersForSpectating(uint256)":"9db800a6","getRevealedCardsForSpectating(uint256)":"35ac8a47","isKeeper(address)":"6ba42aaa","isWhitelisted(address)":"3af32abf","joinGame(uint256)":"efaa55a0","leaveGame(uint256)":"3feef58a","montyHallDecision(uint256,bool)":"01e09cd8","owner()":"8da5cb5b","peekAtCard(uint256)":"318ff5d1","placeBet(uint256,uint256)":"4afe62b5","removeKeeper(address)":"14ae9f2e","removeMultipleFromWhitelist(address[])":"f62a1a98","startPeekPhase(uint256)":"1f452a08","useMontyHallOption(uint256)":"b419f9ab"}}}}}