{"contracts/PokerSpectatorView.sol":{"PokerSpectatorView":{"abi":[{"inputs":[{"internalType":"address","name":"_pokerContractAddress","type":"address"}],"stateMutability":"nonpayable","type":"constructor"},{"anonymous":false,"inputs":[{"indexed":true,"internalType":"uint256","name":"gameId","type":"uint256"}],"name":"BettingPhaseStarted","type":"event"},{"anonymous":false,"inputs":[{"indexed":true,"internalType":"uint256","name":"gameId","type":"uint256"},{"indexed":false,"internalType":"enum GameLibrary.GameState","name":"currentState","type":"uint8"},{"indexed":false,"internalType":"enum GameLibrary.GameState","name":"nextState","type":"uint8"}],"name":"BufferPeriodStarted","type":"event"},{"anonymous":false,"inputs":[{"indexed":true,"internalType":"uint256","name":"gameId","type":"uint256"},{"indexed":false,"internalType":"address","name":"keeper","type":"address"}],"name":"GameCreated","type":"event"},{"anonymous":false,"inputs":[{"indexed":true,"internalType":"uint256","name":"gameId","type":"uint256"},{"indexed":true,"internalType":"address","name":"winner","type":"address"},{"indexed":false,"internalType":"uint256","name":"potAmount","type":"uint256"}],"name":"GameEnded","type":"event"},{"anonymous":false,"inputs":[{"indexed":true,"internalType":"uint256","name":"gameId","type":"uint256"}],"name":"GameNoLongerSpectatable","type":"event"},{"anonymous":false,"inputs":[{"indexed":true,"internalType":"uint256","name":"gameId","type":"uint256"},{"indexed":false,"internalType":"enum GameLibrary.GameState","name":"state","type":"uint8"},{"indexed":false,"internalType":"uint256","name":"playerCount","type":"uint256"}],"name":"GameSpectatable","type":"event"},{"anonymous":false,"inputs":[{"indexed":true,"internalType":"uint256","name":"gameId","type":"uint256"},{"indexed":false,"internalType":"enum GameLibrary.GameState","name":"state","type":"uint8"},{"indexed":false,"internalType":"uint256","name":"potAmount","type":"uint256"},{"indexed":false,"internalType":"uint256","name":"currentBet","type":"uint256"},{"indexed":false,"internalType":"uint256","name":"stateVersion","type":"uint256"}],"name":"GameStateUpdated","type":"event"},{"anonymous":false,"inputs":[{"indexed":true,"internalType":"uint256","name":"gameId","type":"uint256"}],"name":"PeekPhaseStarted","type":"event"},{"anonymous":false,"inputs":[{"indexed":true,"internalType":"uint256","name":"gameId","type":"uint256"},{"indexed":true,"internalType":"address","name":"player","type":"address"},{"indexed":false,"internalType":"string","name":"action","type":"string"},{"indexed":false,"internalType":"uint256","name":"amount","type":"uint256"},{"indexed":false,"internalType":"uint256","name":"nonce","type":"uint256"}],"name":"PlayerAction","type":"event"},{"anonymous":false,"inputs":[{"indexed":true,"internalType":"uint256","name":"gameId","type":"uint256"},{"indexed":true,"internalType":"address","name":"player","type":"address"}],"name":"PlayerJoined","type":"event"},{"anonymous":false,"inputs":[{"indexed":true,"internalType":"uint256","name":"gameId","type":"uint256"}],"name":"ShowdownStarted","type":"event"},{"inputs":[{"internalType":"uint256","name":"gameId","type":"uint256"}],"name":"areCardsViewable","outputs":[{"internalType":"bool","name":"","type":"bool"}],"stateMutability":"view","type":"function"},{"inputs":[],"name":"getActiveGames","outputs":[{"internalType":"uint256[]","name":"","type":"uint256[]"}],"stateMutability":"view","type":"function"},{"inputs":[{"internalType":"uint256","name":"gameId","type":"uint256"}],"name":"getActivePlayerCount","outputs":[{"internalType":"uint256","name":"","type":"uint256"}],"stateMutability":"view","type":"function"},{"inputs":[{"internalType":"uint256","name":"gameId","type":"uint256"}],"name":"getActivePlayers","outputs":[{"internalType":"address[]","name":"","type":"address[]"}],"stateMutability":"view","type":"function"},{"inputs":[{"internalType":"uint256","name":"gameId","type":"uint256"}],"name":"getGameKeeper","outputs":[{"internalType":"address","name":"","type":"address"}],"stateMutability":"view","type":"function"},{"inputs":[{"internalType":"uint256","name":"gameId","type":"uint256"}],"name":"getGamePhase","outputs":[{"internalType":"enum GameLibrary.GameState","name":"","type":"uint8"}],"stateMutability":"view","type":"function"},{"inputs":[{"internalType":"uint256","name":"gameId","type":"uint256"}],"name":"getGameVersion","outputs":[{"internalType":"uint256","name":"stateVersion","type":"uint256"},{"internalType":"bool","name":"isCleanedUp","type":"bool"}],"stateMutability":"view","type":"function"},{"inputs":[{"internalType":"uint256","name":"gameId","type":"uint256"}],"name":"getPlayerCounts","outputs":[{"internalType":"uint256","name":"playerCount","type":"uint256"},{"internalType":"uint256","name":"activeCount","type":"uint256"}],"stateMutability":"view","type":"function"},{"inputs":[{"internalType":"uint256","name":"gameId","type":"uint256"},{"internalType":"address","name":"player","type":"address"}],"name":"getPlayerInfo","outputs":[{"internalType":"bool","name":"isActive","type":"bool"},{"internalType":"bool","name":"hasPeeked","type":"bool"},{"internalType":"bool","name":"usedMontyHall","type":"bool"},{"internalType":"bool","name":"hasFolded","type":"bool"},{"internalType":"uint256","name":"chipBalance","type":"uint256"},{"internalType":"uint256","name":"currentBet","type":"uint256"},{"internalType":"uint256","name":"lastActionTime","type":"uint256"},{"internalType":"uint256","name":"actionNonce","type":"uint256"}],"stateMutability":"view","type":"function"},{"inputs":[{"internalType":"uint256","name":"gameId","type":"uint256"}],"name":"getPlayers","outputs":[{"internalType":"address[]","name":"","type":"address[]"}],"stateMutability":"view","type":"function"},{"inputs":[{"internalType":"uint256","name":"gameId","type":"uint256"}],"name":"getPotInfo","outputs":[{"internalType":"uint256","name":"potAmount","type":"uint256"},{"internalType":"uint256","name":"currentBet","type":"uint256"}],"stateMutability":"view","type":"function"},{"inputs":[{"internalType":"uint256","name":"gameId","type":"uint256"}],"name":"getRemainingTime","outputs":[{"internalType":"uint256","name":"","type":"uint256"}],"stateMutability":"view","type":"function"},{"inputs":[{"internalType":"uint256","name":"gameId","type":"uint256"}],"name":"getSpectatorCardData","outputs":[{"internalType":"address[]","name":"playerAddresses","type":"address[]"},{"internalType":"uint8[]","name":"cardValues","type":"uint8[]"},{"internalType":"uint8[]","name":"cardSuits","type":"uint8[]"}],"stateMutability":"view","type":"function"},{"inputs":[{"internalType":"uint256","name":"gameId","type":"uint256"}],"name":"getSpectatorPlayerData","outputs":[{"internalType":"address[]","name":"playerAddresses","type":"address[]"},{"internalType":"bool[]","name":"playerActiveBits","type":"bool[]"},{"internalType":"bool[]","name":"playerFoldedBits","type":"bool[]"},{"internalType":"uint256[]","name":"playerChipBalances","type":"uint256[]"},{"internalType":"uint256[]","name":"playerCurrentBets","type":"uint256[]"},{"internalType":"uint256[]","name":"playerActionNonces","type":"uint256[]"}],"stateMutability":"view","type":"function"},{"inputs":[{"internalType":"uint256","name":"gameId","type":"uint256"}],"name":"getStateVersionQuick","outputs":[{"internalType":"uint256","name":"","type":"uint256"}],"stateMutability":"view","type":"function"},{"inputs":[{"internalType":"uint256","name":"gameId","type":"uint256"}],"name":"getTimingInfo","outputs":[{"internalType":"uint256","name":"phaseEndTime","type":"uint256"},{"internalType":"uint256","name":"bufferEndTime","type":"uint256"}],"stateMutability":"view","type":"function"}],"evm":{"bytecode":{"linkReferences":{},"object":"608060405234801561001057600080fd5b5060405161159338038061159383398101604081905261002f91610054565b600080546001600160a01b0319166001600160a01b0392909216919091179055610082565b600060208284031215610065578081fd5b81516001600160a01b038116811461007b578182fd5b9392505050565b611502806100916000396000f3fe608060405234801561001057600080fd5b50600436106101005760003560e01c80634a49ef82116100975780639d8690f9116100665780639d8690f91461026c578063a410274c1461027f578063bfe72b6114610292578063d36f68ca146102b257610100565b80634a49ef82146101ff5780636e1e277b1461022157806380ce40ee1461023457806389e60af11461024757610100565b8063217ad06e116100d3578063217ad06e14610184578063342ed956146101a55780633ccd10e9146101c5578063460e2049146101ec57610100565b80630a9a55b114610105578063181e01241461012f5780631b76929c1461014f578063213e5eb014610164575b600080fd5b61011861011336600461114a565b6102d2565b60405161012692919061141f565b60405180910390f35b61014261013d36600461114a565b61036c565b60405161012691906113ef565b610157610419565b6040516101269190611371565b61017761017236600461114a565b61049e565b604051610126919061127e565b61019761019236600461114a565b610532565b60405161012692919061140f565b6101b86101b336600461114a565b6105cb565b6040516101269190611292565b6101d86101d336600461117a565b610656565b60405161012698979695949392919061138f565b6101b86101fa36600461114a565b610703565b61021261020d36600461114a565b610734565b6040516101269392919061132e565b61011861022f36600461114a565b6107ca565b61014261024236600461114a565b610864565b61025a61025536600461114a565b6108f5565b604051610126969594939291906112ac565b61011861027a36600461114a565b61099a565b61014261028d36600461114a565b610a33565b6102a56102a036600461114a565b610ab4565b6040516101269190611384565b6102c56102c036600461114a565b610b9b565b60405161012691906113c7565b6000805460405163781a271b60e11b81528291829182916001600160a01b03169063f0344e36906103079088906004016113ef565b6101206040518083038186803b15801561032057600080fd5b505afa158015610334573d6000803e3d6000fd5b505050506040513d601f19601f8201168201806040525081019061035891906110d4565b50939a509198505050505050505050915091565b6000805460405163781a271b60e11b815282916001600160a01b03169063f0344e369061039d9086906004016113ef565b6101206040518083038186803b1580156103b657600080fd5b505afa1580156103ca573d6000803e3d6000fd5b505050506040513d601f19601f820116820180604052508101906103ee91906110d4565b50505050509350505050804210610406576000610410565b610410428261147b565b9150505b919050565b60008054604080516306dda4a760e21b815290516060936001600160a01b0390931692631b76929c9260048082019391829003018186803b15801561045d57600080fd5b505afa158015610471573d6000803e3d6000fd5b505050506040513d6000823e601f3d908101601f191682016040526104999190810190610f91565b905090565b6000805460405163047e1d5560e41b815282916001600160a01b0316906347e1d550906104cf9086906004016113ef565b6101606040518083038186803b1580156104e857600080fd5b505afa1580156104fc573d6000803e3d6000fd5b505050506040513d601f19601f82011682018060405250810190610520919061103e565b50909c9b505050505050505050505050565b6000805460405163781a271b60e11b81528291829182916001600160a01b03169063f0344e36906105679088906004016113ef565b6101206040518083038186803b15801561058057600080fd5b505afa158015610594573d6000803e3d6000fd5b505050506040513d601f19601f820116820180604052508101906105b891906110d4565b909b509950505050505050505050915091565b600054604051631a176cab60e11b81526060916001600160a01b03169063342ed956906105fc9085906004016113ef565b60006040518083038186803b15801561061457600080fd5b505afa158015610628573d6000803e3d6000fd5b505050506040513d6000823e601f3d908101601f191682016040526106509190810190610de4565b92915050565b60008054604051633ccd10e960e01b815282918291829182918291829182916001600160a01b031690633ccd10e990610695908d908d906004016113f8565b6101006040518083038186803b1580156106ae57600080fd5b505afa1580156106c2573d6000803e3d6000fd5b505050506040513d601f19601f820116820180604052508101906106e69190610fc4565b975097509750975097509750975097509295985092959890939650565b60005460405163460e204960e01b81526060916001600160a01b03169063460e2049906105fc9085906004016113ef565b6000546040516335ac8a4760e01b8152606091829182916001600160a01b0316906335ac8a47906107699087906004016113ef565b60006040518083038186803b15801561078157600080fd5b505afa158015610795573d6000803e3d6000fd5b505050506040513d6000823e601f3d908101601f191682016040526107bd9190810190610f0d565b9250925092509193909250565b6000805460405163781a271b60e11b81528291829182916001600160a01b03169063f0344e36906107ff9088906004016113ef565b6101206040518083038186803b15801561081857600080fd5b505afa15801561082c573d6000803e3d6000fd5b505050506040513d601f19601f8201168201806040525081019061085091906110d4565b50959a509398505050505050505050915091565b6000805460405163781a271b60e11b815282916001600160a01b03169063f0344e36906108959086906004016113ef565b6101206040518083038186803b1580156108ae57600080fd5b505afa1580156108c2573d6000803e3d6000fd5b505050506040513d601f19601f820116820180604052508101906108e691906110d4565b509a9950505050505050505050565b600054604051634edc005360e11b8152606091829182918291829182916001600160a01b0390911690639db800a690610932908a906004016113ef565b60006040518083038186803b15801561094a57600080fd5b505afa15801561095e573d6000803e3d6000fd5b505050506040513d6000823e601f3d908101601f191682016040526109869190810190610e1f565b949c939b5091995097509550909350915050565b6000805460405163781a271b60e11b81528291829182916001600160a01b03169063f0344e36906109cf9088906004016113ef565b6101206040518083038186803b1580156109e857600080fd5b505afa1580156109fc573d6000803e3d6000fd5b505050506040513d601f19601f82011682018060405250810190610a2091906110d4565b50919a5098505050505050505050915091565b6000805460405163290409d360e21b81526001600160a01b039091169063a410274c90610a649085906004016113ef565b60206040518083038186803b158015610a7c57600080fd5b505afa158015610a90573d6000803e3d6000fd5b505050506040513d601f19601f820116820180604052508101906106509190611162565b6000805460405163781a271b60e11b815282916001600160a01b03169063f0344e3690610ae59086906004016113ef565b6101206040518083038186803b158015610afe57600080fd5b505afa158015610b12573d6000803e3d6000fd5b505050506040513d601f19601f82011682018060405250810190610b3691906110d4565b5096975060039650610b4a95505050505050565b816004811115610b6a57634e487b7160e01b600052602160045260246000fd5b148061041057506004816004811115610b9357634e487b7160e01b600052602160045260246000fd5b149392505050565b6000805460405163781a271b60e11b815282916001600160a01b03169063f0344e3690610bcc9086906004016113ef565b6101206040518083038186803b158015610be557600080fd5b505afa158015610bf9573d6000803e3d6000fd5b505050506040513d601f19601f82011682018060405250810190610c1d91906110d4565b50969a9950505050505050505050565b600082601f830112610c3d578081fd5b81516020610c52610c4d83611457565b61142d565b8281528181019085830183850287018401881015610c6e578586fd5b855b85811015610c95578151610c83816114b4565b84529284019290840190600101610c70565b5090979650505050505050565b600082601f830112610cb2578081fd5b81516020610cc2610c4d83611457565b8281528181019085830183850287018401881015610cde578586fd5b855b85811015610c9557610cf182610dc5565b84529284019290840190600101610ce0565b600082601f830112610d13578081fd5b81516020610d23610c4d83611457565b8281528181019085830183850287018401881015610d3f578586fd5b855b85811015610c9557815184529284019290840190600101610d41565b600082601f830112610d6d578081fd5b81516020610d7d610c4d83611457565b8281528181019085830183850287018401881015610d99578586fd5b855b85811015610c9557815160ff81168114610db3578788fd5b84529284019290840190600101610d9b565b8051801515811461041457600080fd5b80516005811061041457600080fd5b600060208284031215610df5578081fd5b815167ffffffffffffffff811115610e0b578182fd5b610e1784828501610c2d565b949350505050565b60008060008060008060c08789031215610e37578182fd5b865167ffffffffffffffff80821115610e4e578384fd5b610e5a8a838b01610c2d565b97506020890151915080821115610e6f578384fd5b610e7b8a838b01610ca2565b96506040890151915080821115610e90578384fd5b610e9c8a838b01610ca2565b95506060890151915080821115610eb1578384fd5b610ebd8a838b01610d03565b94506080890151915080821115610ed2578384fd5b610ede8a838b01610d03565b935060a0890151915080821115610ef3578283fd5b50610f0089828a01610d03565b9150509295509295509295565b600080600060608486031215610f21578283fd5b835167ffffffffffffffff80821115610f38578485fd5b610f4487838801610c2d565b94506020860151915080821115610f59578384fd5b610f6587838801610d5d565b93506040860151915080821115610f7a578283fd5b50610f8786828701610d5d565b9150509250925092565b600060208284031215610fa2578081fd5b815167ffffffffffffffff811115610fb8578182fd5b610e1784828501610d03565b600080600080600080600080610100898b031215610fe0578182fd5b610fe989610dc5565b9750610ff760208a01610dc5565b965061100560408a01610dc5565b955061101360608a01610dc5565b94506080890151935060a0890151925060c0890151915060e089015190509295985092959890939650565b60008060008060008060008060008060006101608c8e03121561105f578485fd5b6110688c610dd5565b9a5060208c0151995060408c0151985060608c0151975060808c0151965060a08c0151955060c08c0151945060e08c015193506101008c01516110aa816114b4565b6101208d015190935091506110c26101408d01610dc5565b90509295989b509295989b9093969950565b60008060008060008060008060006101208a8c0312156110f2578283fd5b6110fb8a610dd5565b985060208a0151975060408a0151965060608a0151955060808a0151945060a08a0151935060c08a0151925060e08a0151915061113b6101008b01610dc5565b90509295985092959850929598565b60006020828403121561115b578081fd5b5035919050565b600060208284031215611173578081fd5b5051919050565b6000806040838503121561118c578182fd5b82359150602083013561119e816114b4565b809150509250929050565b6000815180845260208085019450808401835b838110156111e15781516001600160a01b0316875295820195908201906001016111bc565b509495945050505050565b6000815180845260208085019450808401835b838110156111e15781511515875295820195908201906001016111ff565b6000815180845260208085019450808401835b838110156111e157815187529582019590820190600101611230565b6000815180845260208085019450808401835b838110156111e157815160ff168752958201959082019060010161125f565b6001600160a01b0391909116815260200190565b6000602082526112a560208301846111a9565b9392505050565b600060c082526112bf60c08301896111a9565b82810360208401526112d181896111ec565b905082810360408401526112e581886111ec565b905082810360608401526112f9818761121d565b9050828103608084015261130d818661121d565b905082810360a0840152611321818561121d565b9998505050505050505050565b60006060825261134160608301866111a9565b8281036020840152611353818661124c565b90508281036040840152611367818561124c565b9695505050505050565b6000602082526112a5602083018461121d565b901515815260200190565b9715158852951515602088015293151560408701529115156060860152608085015260a084015260c083015260e08201526101000190565b60208101600583106113e957634e487b7160e01b600052602160045260246000fd5b91905290565b90815260200190565b9182526001600160a01b0316602082015260400190565b9182521515602082015260400190565b918252602082015260400190565b60405181810167ffffffffffffffff8111828210171561144f5761144f61149e565b604052919050565b600067ffffffffffffffff8211156114715761147161149e565b5060209081020190565b60008282101561149957634e487b7160e01b81526011600452602481fd5b500390565b634e487b7160e01b600052604160045260246000fd5b6001600160a01b03811681146114c957600080fd5b5056fea26469706673582212203d99527b790b89f56db5db02494023783cd312d363f21794d13699828b6e4e2964736f6c63430008000033","opcodes":"PUSH1 0x80 PUSH1 0x40 MSTORE CALLVALUE DUP1 ISZERO PUSH2 0x10 JUMPI PUSH1 0x0 DUP1 REVERT JUMPDEST POP PUSH1 0x40 MLOAD PUSH2 0x1593 CODESIZE SUB DUP1 PUSH2 0x1593 DUP4 CODECOPY DUP2 ADD PUSH1 0x40 DUP2 SWAP1 MSTORE PUSH2 0x2F SWAP2 PUSH2 0x54 JUMP JUMPDEST PUSH1 0x0 DUP1 SLOAD PUSH1 0x1 PUSH1 0x1 PUSH1 0xA0 SHL SUB NOT AND PUSH1 0x1 PUSH1 0x1 PUSH1 0xA0 SHL SUB SWAP3 SWAP1 SWAP3 AND SWAP2 SWAP1 SWAP2 OR SWAP1 SSTORE PUSH2 0x82 JUMP JUMPDEST PUSH1 0x0 PUSH1 0x20 DUP3 DUP5 SUB SLT ISZERO PUSH2 0x65 JUMPI DUP1 DUP2 REVERT JUMPDEST DUP2 MLOAD PUSH1 0x1 PUSH1 0x1 PUSH1 0xA0 SHL SUB DUP2 AND DUP2 EQ PUSH2 0x7B JUMPI DUP2 DUP3 REVERT JUMPDEST SWAP4 SWAP3 POP POP POP JUMP JUMPDEST PUSH2 0x1502 DUP1 PUSH2 0x91 PUSH1 0x0 CODECOPY PUSH1 0x0 RETURN INVALID PUSH1 0x80 PUSH1 0x40 MSTORE CALLVALUE DUP1 ISZERO PUSH2 0x10 JUMPI PUSH1 0x0 DUP1 REVERT JUMPDEST POP PUSH1 0x4 CALLDATASIZE LT PUSH2 0x100 JUMPI PUSH1 0x0 CALLDATALOAD PUSH1 0xE0 SHR DUP1 PUSH4 0x4A49EF82 GT PUSH2 0x97 JUMPI DUP1 PUSH4 0x9D8690F9 GT PUSH2 0x66 JUMPI DUP1 PUSH4 0x9D8690F9 EQ PUSH2 0x26C JUMPI DUP1 PUSH4 0xA410274C EQ PUSH2 0x27F JUMPI DUP1 PUSH4 0xBFE72B61 EQ PUSH2 0x292 JUMPI DUP1 PUSH4 0xD36F68CA EQ PUSH2 0x2B2 JUMPI PUSH2 0x100 JUMP JUMPDEST DUP1 PUSH4 0x4A49EF82 EQ PUSH2 0x1FF JUMPI DUP1 PUSH4 0x6E1E277B EQ PUSH2 0x221 JUMPI DUP1 PUSH4 0x80CE40EE EQ PUSH2 0x234 JUMPI DUP1 PUSH4 0x89E60AF1 EQ PUSH2 0x247 JUMPI PUSH2 0x100 JUMP JUMPDEST DUP1 PUSH4 0x217AD06E GT PUSH2 0xD3 JUMPI DUP1 PUSH4 0x217AD06E EQ PUSH2 0x184 JUMPI DUP1 PUSH4 0x342ED956 EQ PUSH2 0x1A5 JUMPI DUP1 PUSH4 0x3CCD10E9 EQ PUSH2 0x1C5 JUMPI DUP1 PUSH4 0x460E2049 EQ PUSH2 0x1EC JUMPI PUSH2 0x100 JUMP JUMPDEST DUP1 PUSH4 0xA9A55B1 EQ PUSH2 0x105 JUMPI DUP1 PUSH4 0x181E0124 EQ PUSH2 0x12F JUMPI DUP1 PUSH4 0x1B76929C EQ PUSH2 0x14F JUMPI DUP1 PUSH4 0x213E5EB0 EQ PUSH2 0x164 JUMPI JUMPDEST PUSH1 0x0 DUP1 REVERT JUMPDEST PUSH2 0x118 PUSH2 0x113 CALLDATASIZE PUSH1 0x4 PUSH2 0x114A JUMP JUMPDEST PUSH2 0x2D2 JUMP JUMPDEST PUSH1 0x40 MLOAD PUSH2 0x126 SWAP3 SWAP2 SWAP1 PUSH2 0x141F JUMP JUMPDEST PUSH1 0x40 MLOAD DUP1 SWAP2 SUB SWAP1 RETURN JUMPDEST PUSH2 0x142 PUSH2 0x13D CALLDATASIZE PUSH1 0x4 PUSH2 0x114A JUMP JUMPDEST PUSH2 0x36C JUMP JUMPDEST PUSH1 0x40 MLOAD PUSH2 0x126 SWAP2 SWAP1 PUSH2 0x13EF JUMP JUMPDEST PUSH2 0x157 PUSH2 0x419 JUMP JUMPDEST PUSH1 0x40 MLOAD PUSH2 0x126 SWAP2 SWAP1 PUSH2 0x1371 JUMP JUMPDEST PUSH2 0x177 PUSH2 0x172 CALLDATASIZE PUSH1 0x4 PUSH2 0x114A JUMP JUMPDEST PUSH2 0x49E JUMP JUMPDEST PUSH1 0x40 MLOAD PUSH2 0x126 SWAP2 SWAP1 PUSH2 0x127E JUMP JUMPDEST PUSH2 0x197 PUSH2 0x192 CALLDATASIZE PUSH1 0x4 PUSH2 0x114A JUMP JUMPDEST PUSH2 0x532 JUMP JUMPDEST PUSH1 0x40 MLOAD PUSH2 0x126 SWAP3 SWAP2 SWAP1 PUSH2 0x140F JUMP JUMPDEST PUSH2 0x1B8 PUSH2 0x1B3 CALLDATASIZE PUSH1 0x4 PUSH2 0x114A JUMP JUMPDEST PUSH2 0x5CB JUMP JUMPDEST PUSH1 0x40 MLOAD PUSH2 0x126 SWAP2 SWAP1 PUSH2 0x1292 JUMP JUMPDEST PUSH2 0x1D8 PUSH2 0x1D3 CALLDATASIZE PUSH1 0x4 PUSH2 0x117A JUMP JUMPDEST PUSH2 0x656 JUMP JUMPDEST PUSH1 0x40 MLOAD PUSH2 0x126 SWAP9 SWAP8 SWAP7 SWAP6 SWAP5 SWAP4 SWAP3 SWAP2 SWAP1 PUSH2 0x138F JUMP JUMPDEST PUSH2 0x1B8 PUSH2 0x1FA CALLDATASIZE PUSH1 0x4 PUSH2 0x114A JUMP JUMPDEST PUSH2 0x703 JUMP JUMPDEST PUSH2 0x212 PUSH2 0x20D CALLDATASIZE PUSH1 0x4 PUSH2 0x114A JUMP JUMPDEST PUSH2 0x734 JUMP JUMPDEST PUSH1 0x40 MLOAD PUSH2 0x126 SWAP4 SWAP3 SWAP2 SWAP1 PUSH2 0x132E JUMP JUMPDEST PUSH2 0x118 PUSH2 0x22F CALLDATASIZE PUSH1 0x4 PUSH2 0x114A JUMP JUMPDEST PUSH2 0x7CA JUMP JUMPDEST PUSH2 0x142 PUSH2 0x242 CALLDATASIZE PUSH1 0x4 PUSH2 0x114A JUMP JUMPDEST PUSH2 0x864 JUMP JUMPDEST PUSH2 0x25A PUSH2 0x255 CALLDATASIZE PUSH1 0x4 PUSH2 0x114A JUMP JUMPDEST PUSH2 0x8F5 JUMP JUMPDEST PUSH1 0x40 MLOAD PUSH2 0x126 SWAP7 SWAP6 SWAP5 SWAP4 SWAP3 SWAP2 SWAP1 PUSH2 0x12AC JUMP JUMPDEST PUSH2 0x118 PUSH2 0x27A CALLDATASIZE PUSH1 0x4 PUSH2 0x114A JUMP JUMPDEST PUSH2 0x99A JUMP JUMPDEST PUSH2 0x142 PUSH2 0x28D CALLDATASIZE PUSH1 0x4 PUSH2 0x114A JUMP JUMPDEST PUSH2 0xA33 JUMP JUMPDEST PUSH2 0x2A5 PUSH2 0x2A0 CALLDATASIZE PUSH1 0x4 PUSH2 0x114A JUMP JUMPDEST PUSH2 0xAB4 JUMP JUMPDEST PUSH1 0x40 MLOAD PUSH2 0x126 SWAP2 SWAP1 PUSH2 0x1384 JUMP JUMPDEST PUSH2 0x2C5 PUSH2 0x2C0 CALLDATASIZE PUSH1 0x4 PUSH2 0x114A JUMP JUMPDEST PUSH2 0xB9B JUMP JUMPDEST PUSH1 0x40 MLOAD PUSH2 0x126 SWAP2 SWAP1 PUSH2 0x13C7 JUMP JUMPDEST PUSH1 0x0 DUP1 SLOAD PUSH1 0x40 MLOAD PUSH4 0x781A271B PUSH1 0xE1 SHL DUP2 MSTORE DUP3 SWAP2 DUP3 SWAP2 DUP3 SWAP2 PUSH1 0x1 PUSH1 0x1 PUSH1 0xA0 SHL SUB AND SWAP1 PUSH4 0xF0344E36 SWAP1 PUSH2 0x307 SWAP1 DUP9 SWAP1 PUSH1 0x4 ADD PUSH2 0x13EF JUMP JUMPDEST PUSH2 0x120 PUSH1 0x40 MLOAD DUP1 DUP4 SUB DUP2 DUP7 DUP1 EXTCODESIZE ISZERO DUP1 ISZERO PUSH2 0x320 JUMPI PUSH1 0x0 DUP1 REVERT JUMPDEST POP GAS STATICCALL ISZERO DUP1 ISZERO PUSH2 0x334 JUMPI RETURNDATASIZE PUSH1 0x0 DUP1 RETURNDATACOPY RETURNDATASIZE PUSH1 0x0 REVERT JUMPDEST POP POP POP POP PUSH1 0x40 MLOAD RETURNDATASIZE PUSH1 0x1F NOT PUSH1 0x1F DUP3 ADD AND DUP3 ADD DUP1 PUSH1 0x40 MSTORE POP DUP2 ADD SWAP1 PUSH2 0x358 SWAP2 SWAP1 PUSH2 0x10D4 JUMP JUMPDEST POP SWAP4 SWAP11 POP SWAP2 SWAP9 POP POP POP POP POP POP POP POP POP SWAP2 POP SWAP2 JUMP JUMPDEST PUSH1 0x0 DUP1 SLOAD PUSH1 0x40 MLOAD PUSH4 0x781A271B PUSH1 0xE1 SHL DUP2 MSTORE DUP3 SWAP2 PUSH1 0x1 PUSH1 0x1 PUSH1 0xA0 SHL SUB AND SWAP1 PUSH4 0xF0344E36 SWAP1 PUSH2 0x39D SWAP1 DUP7 SWAP1 PUSH1 0x4 ADD PUSH2 0x13EF JUMP JUMPDEST PUSH2 0x120 PUSH1 0x40 MLOAD DUP1 DUP4 SUB DUP2 DUP7 DUP1 EXTCODESIZE ISZERO DUP1 ISZERO PUSH2 0x3B6 JUMPI PUSH1 0x0 DUP1 REVERT JUMPDEST POP GAS STATICCALL ISZERO DUP1 ISZERO PUSH2 0x3CA JUMPI RETURNDATASIZE PUSH1 0x0 DUP1 RETURNDATACOPY RETURNDATASIZE PUSH1 0x0 REVERT JUMPDEST POP POP POP POP PUSH1 0x40 MLOAD RETURNDATASIZE PUSH1 0x1F NOT PUSH1 0x1F DUP3 ADD AND DUP3 ADD DUP1 PUSH1 0x40 MSTORE POP DUP2 ADD SWAP1 PUSH2 0x3EE SWAP2 SWAP1 PUSH2 0x10D4 JUMP JUMPDEST POP POP POP POP POP SWAP4 POP POP POP POP DUP1 TIMESTAMP LT PUSH2 0x406 JUMPI PUSH1 0x0 PUSH2 0x410 JUMP JUMPDEST PUSH2 0x410 TIMESTAMP DUP3 PUSH2 0x147B JUMP JUMPDEST SWAP2 POP POP JUMPDEST SWAP2 SWAP1 POP JUMP JUMPDEST PUSH1 0x0 DUP1 SLOAD PUSH1 0x40 DUP1 MLOAD PUSH4 0x6DDA4A7 PUSH1 0xE2 SHL DUP2 MSTORE SWAP1 MLOAD PUSH1 0x60 SWAP4 PUSH1 0x1 PUSH1 0x1 PUSH1 0xA0 SHL SUB SWAP1 SWAP4 AND SWAP3 PUSH4 0x1B76929C SWAP3 PUSH1 0x4 DUP1 DUP3 ADD SWAP4 SWAP2 DUP3 SWAP1 SUB ADD DUP2 DUP7 DUP1 EXTCODESIZE ISZERO DUP1 ISZERO PUSH2 0x45D JUMPI PUSH1 0x0 DUP1 REVERT JUMPDEST POP GAS STATICCALL ISZERO DUP1 ISZERO PUSH2 0x471 JUMPI RETURNDATASIZE PUSH1 0x0 DUP1 RETURNDATACOPY RETURNDATASIZE PUSH1 0x0 REVERT JUMPDEST POP POP POP POP PUSH1 0x40 MLOAD RETURNDATASIZE PUSH1 0x0 DUP3 RETURNDATACOPY PUSH1 0x1F RETURNDATASIZE SWAP1 DUP2 ADD PUSH1 0x1F NOT AND DUP3 ADD PUSH1 0x40 MSTORE PUSH2 0x499 SWAP2 SWAP1 DUP2 ADD SWAP1 PUSH2 0xF91 JUMP JUMPDEST SWAP1 POP SWAP1 JUMP JUMPDEST PUSH1 0x0 DUP1 SLOAD PUSH1 0x40 MLOAD PUSH4 0x47E1D55 PUSH1 0xE4 SHL DUP2 MSTORE DUP3 SWAP2 PUSH1 0x1 PUSH1 0x1 PUSH1 0xA0 SHL SUB AND SWAP1 PUSH4 0x47E1D550 SWAP1 PUSH2 0x4CF SWAP1 DUP7 SWAP1 PUSH1 0x4 ADD PUSH2 0x13EF JUMP JUMPDEST PUSH2 0x160 PUSH1 0x40 MLOAD DUP1 DUP4 SUB DUP2 DUP7 DUP1 EXTCODESIZE ISZERO DUP1 ISZERO PUSH2 0x4E8 JUMPI PUSH1 0x0 DUP1 REVERT JUMPDEST POP GAS STATICCALL ISZERO DUP1 ISZERO PUSH2 0x4FC JUMPI RETURNDATASIZE PUSH1 0x0 DUP1 RETURNDATACOPY RETURNDATASIZE PUSH1 0x0 REVERT JUMPDEST POP POP POP POP PUSH1 0x40 MLOAD RETURNDATASIZE PUSH1 0x1F NOT PUSH1 0x1F DUP3 ADD AND DUP3 ADD DUP1 PUSH1 0x40 MSTORE POP DUP2 ADD SWAP1 PUSH2 0x520 SWAP2 SWAP1 PUSH2 0x103E JUMP JUMPDEST POP SWAP1 SWAP13 SWAP12 POP POP POP POP POP POP POP POP POP POP POP POP JUMP JUMPDEST PUSH1 0x0 DUP1 SLOAD PUSH1 0x40 MLOAD PUSH4 0x781A271B PUSH1 0xE1 SHL DUP2 MSTORE DUP3 SWAP2 DUP3 SWAP2 DUP3 SWAP2 PUSH1 0x1 PUSH1 0x1 PUSH1 0xA0 SHL SUB AND SWAP1 PUSH4 0xF0344E36 SWAP1 PUSH2 0x567 SWAP1 DUP9 SWAP1 PUSH1 0x4 ADD PUSH2 0x13EF JUMP JUMPDEST PUSH2 0x120 PUSH1 0x40 MLOAD DUP1 DUP4 SUB DUP2 DUP7 DUP1 EXTCODESIZE ISZERO DUP1 ISZERO PUSH2 0x580 JUMPI PUSH1 0x0 DUP1 REVERT JUMPDEST POP GAS STATICCALL ISZERO DUP1 ISZERO PUSH2 0x594 JUMPI RETURNDATASIZE PUSH1 0x0 DUP1 RETURNDATACOPY RETURNDATASIZE PUSH1 0x0 REVERT JUMPDEST POP POP POP POP PUSH1 0x40 MLOAD RETURNDATASIZE PUSH1 0x1F NOT PUSH1 0x1F DUP3 ADD AND DUP3 ADD DUP1 PUSH1 0x40 MSTORE POP DUP2 ADD SWAP1 PUSH2 0x5B8 SWAP2 SWAP1 PUSH2 0x10D4 JUMP JUMPDEST SWAP1 SWAP12 POP SWAP10 POP POP POP POP POP POP POP POP POP POP SWAP2 POP SWAP2 JUMP JUMPDEST PUSH1 0x0 SLOAD PUSH1 0x40 MLOAD PUSH4 0x1A176CAB PUSH1 0xE1 SHL DUP2 MSTORE PUSH1 0x60 SWAP2 PUSH1 0x1 PUSH1 0x1 PUSH1 0xA0 SHL SUB AND SWAP1 PUSH4 0x342ED956 SWAP1 PUSH2 0x5FC SWAP1 DUP6 SWAP1 PUSH1 0x4 ADD PUSH2 0x13EF JUMP JUMPDEST PUSH1 0x0 PUSH1 0x40 MLOAD DUP1 DUP4 SUB DUP2 DUP7 DUP1 EXTCODESIZE ISZERO DUP1 ISZERO PUSH2 0x614 JUMPI PUSH1 0x0 DUP1 REVERT JUMPDEST POP GAS STATICCALL ISZERO DUP1 ISZERO PUSH2 0x628 JUMPI RETURNDATASIZE PUSH1 0x0 DUP1 RETURNDATACOPY RETURNDATASIZE PUSH1 0x0 REVERT JUMPDEST POP POP POP POP PUSH1 0x40 MLOAD RETURNDATASIZE PUSH1 0x0 DUP3 RETURNDATACOPY PUSH1 0x1F RETURNDATASIZE SWAP1 DUP2 ADD PUSH1 0x1F NOT AND DUP3 ADD PUSH1 0x40 MSTORE PUSH2 0x650 SWAP2 SWAP1 DUP2 ADD SWAP1 PUSH2 0xDE4 JUMP JUMPDEST SWAP3 SWAP2 POP POP JUMP JUMPDEST PUSH1 0x0 DUP1 SLOAD PUSH1 0x40 MLOAD PUSH4 0x3CCD10E9 PUSH1 0xE0 SHL DUP2 MSTORE DUP3 SWAP2 DUP3 SWAP2 DUP3 SWAP2 DUP3 SWAP2 DUP3 SWAP2 DUP3 SWAP2 DUP3 SWAP2 PUSH1 0x1 PUSH1 0x1 PUSH1 0xA0 SHL SUB AND SWAP1 PUSH4 0x3CCD10E9 SWAP1 PUSH2 0x695 SWAP1 DUP14 SWAP1 DUP14 SWAP1 PUSH1 0x4 ADD PUSH2 0x13F8 JUMP JUMPDEST PUSH2 0x100 PUSH1 0x40 MLOAD DUP1 DUP4 SUB DUP2 DUP7 DUP1 EXTCODESIZE ISZERO DUP1 ISZERO PUSH2 0x6AE JUMPI PUSH1 0x0 DUP1 REVERT JUMPDEST POP GAS STATICCALL ISZERO DUP1 ISZERO PUSH2 0x6C2 JUMPI RETURNDATASIZE PUSH1 0x0 DUP1 RETURNDATACOPY RETURNDATASIZE PUSH1 0x0 REVERT JUMPDEST POP POP POP POP PUSH1 0x40 MLOAD RETURNDATASIZE PUSH1 0x1F NOT PUSH1 0x1F DUP3 ADD AND DUP3 ADD DUP1 PUSH1 0x40 MSTORE POP DUP2 ADD SWAP1 PUSH2 0x6E6 SWAP2 SWAP1 PUSH2 0xFC4 JUMP JUMPDEST SWAP8 POP SWAP8 POP SWAP8 POP SWAP8 POP SWAP8 POP SWAP8 POP SWAP8 POP SWAP8 POP SWAP3 SWAP6 SWAP9 POP SWAP3 SWAP6 SWAP9 SWAP1 SWAP4 SWAP7 POP JUMP JUMPDEST PUSH1 0x0 SLOAD PUSH1 0x40 MLOAD PUSH4 0x460E2049 PUSH1 0xE0 SHL DUP2 MSTORE PUSH1 0x60 SWAP2 PUSH1 0x1 PUSH1 0x1 PUSH1 0xA0 SHL SUB AND SWAP1 PUSH4 0x460E2049 SWAP1 PUSH2 0x5FC SWAP1 DUP6 SWAP1 PUSH1 0x4 ADD PUSH2 0x13EF JUMP JUMPDEST PUSH1 0x0 SLOAD PUSH1 0x40 MLOAD PUSH4 0x35AC8A47 PUSH1 0xE0 SHL DUP2 MSTORE PUSH1 0x60 SWAP2 DUP3 SWAP2 DUP3 SWAP2 PUSH1 0x1 PUSH1 0x1 PUSH1 0xA0 SHL SUB AND SWAP1 PUSH4 0x35AC8A47 SWAP1 PUSH2 0x769 SWAP1 DUP8 SWAP1 PUSH1 0x4 ADD PUSH2 0x13EF JUMP JUMPDEST PUSH1 0x0 PUSH1 0x40 MLOAD DUP1 DUP4 SUB DUP2 DUP7 DUP1 EXTCODESIZE ISZERO DUP1 ISZERO PUSH2 0x781 JUMPI PUSH1 0x0 DUP1 REVERT JUMPDEST POP GAS STATICCALL ISZERO DUP1 ISZERO PUSH2 0x795 JUMPI RETURNDATASIZE PUSH1 0x0 DUP1 RETURNDATACOPY RETURNDATASIZE PUSH1 0x0 REVERT JUMPDEST POP POP POP POP PUSH1 0x40 MLOAD RETURNDATASIZE PUSH1 0x0 DUP3 RETURNDATACOPY PUSH1 0x1F RETURNDATASIZE SWAP1 DUP2 ADD PUSH1 0x1F NOT AND DUP3 ADD PUSH1 0x40 MSTORE PUSH2 0x7BD SWAP2 SWAP1 DUP2 ADD SWAP1 PUSH2 0xF0D JUMP JUMPDEST SWAP3 POP SWAP3 POP SWAP3 POP SWAP2 SWAP4 SWAP1 SWAP3 POP JUMP JUMPDEST PUSH1 0x0 DUP1 SLOAD PUSH1 0x40 MLOAD PUSH4 0x781A271B PUSH1 0xE1 SHL DUP2 MSTORE DUP3 SWAP2 DUP3 SWAP2 DUP3 SWAP2 PUSH1 0x1 PUSH1 0x1 PUSH1 0xA0 SHL SUB AND SWAP1 PUSH4 0xF0344E36 SWAP1 PUSH2 0x7FF SWAP1 DUP9 SWAP1 PUSH1 0x4 ADD PUSH2 0x13EF JUMP JUMPDEST PUSH2 0x120 PUSH1 0x40 MLOAD DUP1 DUP4 SUB DUP2 DUP7 DUP1 EXTCODESIZE ISZERO DUP1 ISZERO PUSH2 0x818 JUMPI PUSH1 0x0 DUP1 REVERT JUMPDEST POP GAS STATICCALL ISZERO DUP1 ISZERO PUSH2 0x82C JUMPI RETURNDATASIZE PUSH1 0x0 DUP1 RETURNDATACOPY RETURNDATASIZE PUSH1 0x0 REVERT JUMPDEST POP POP POP POP PUSH1 0x40 MLOAD RETURNDATASIZE PUSH1 0x1F NOT PUSH1 0x1F DUP3 ADD AND DUP3 ADD DUP1 PUSH1 0x40 MSTORE POP DUP2 ADD SWAP1 PUSH2 0x850 SWAP2 SWAP1 PUSH2 0x10D4 JUMP JUMPDEST POP SWAP6 SWAP11 POP SWAP4 SWAP9 POP POP POP POP POP POP POP POP POP SWAP2 POP SWAP2 JUMP JUMPDEST PUSH1 0x0 DUP1 SLOAD PUSH1 0x40 MLOAD PUSH4 0x781A271B PUSH1 0xE1 SHL DUP2 MSTORE DUP3 SWAP2 PUSH1 0x1 PUSH1 0x1 PUSH1 0xA0 SHL SUB AND SWAP1 PUSH4 0xF0344E36 SWAP1 PUSH2 0x895 SWAP1 DUP7 SWAP1 PUSH1 0x4 ADD PUSH2 0x13EF JUMP JUMPDEST PUSH2 0x120 PUSH1 0x40 MLOAD DUP1 DUP4 SUB DUP2 DUP7 DUP1 EXTCODESIZE ISZERO DUP1 ISZERO PUSH2 0x8AE JUMPI PUSH1 0x0 DUP1 REVERT JUMPDEST POP GAS STATICCALL ISZERO DUP1 ISZERO PUSH2 0x8C2 JUMPI RETURNDATASIZE PUSH1 0x0 DUP1 RETURNDATACOPY RETURNDATASIZE PUSH1 0x0 REVERT JUMPDEST POP POP POP POP PUSH1 0x40 MLOAD RETURNDATASIZE PUSH1 0x1F NOT PUSH1 0x1F DUP3 ADD AND DUP3 ADD DUP1 PUSH1 0x40 MSTORE POP DUP2 ADD SWAP1 PUSH2 0x8E6 SWAP2 SWAP1 PUSH2 0x10D4 JUMP JUMPDEST POP SWAP11 SWAP10 POP POP POP POP POP POP POP POP POP POP JUMP JUMPDEST PUSH1 0x0 SLOAD PUSH1 0x40 MLOAD PUSH4 0x4EDC0053 PUSH1 0xE1 SHL DUP2 MSTORE PUSH1 0x60 SWAP2 DUP3 SWAP2 DUP3 SWAP2 DUP3 SWAP2 DUP3 SWAP2 DUP3 SWAP2 PUSH1 0x1 PUSH1 0x1 PUSH1 0xA0 SHL SUB SWAP1 SWAP2 AND SWAP1 PUSH4 0x9DB800A6 SWAP1 PUSH2 0x932 SWAP1 DUP11 SWAP1 PUSH1 0x4 ADD PUSH2 0x13EF JUMP JUMPDEST PUSH1 0x0 PUSH1 0x40 MLOAD DUP1 DUP4 SUB DUP2 DUP7 DUP1 EXTCODESIZE ISZERO DUP1 ISZERO PUSH2 0x94A JUMPI PUSH1 0x0 DUP1 REVERT JUMPDEST POP GAS STATICCALL ISZERO DUP1 ISZERO PUSH2 0x95E JUMPI RETURNDATASIZE PUSH1 0x0 DUP1 RETURNDATACOPY RETURNDATASIZE PUSH1 0x0 REVERT JUMPDEST POP POP POP POP PUSH1 0x40 MLOAD RETURNDATASIZE PUSH1 0x0 DUP3 RETURNDATACOPY PUSH1 0x1F RETURNDATASIZE SWAP1 DUP2 ADD PUSH1 0x1F NOT AND DUP3 ADD PUSH1 0x40 MSTORE PUSH2 0x986 SWAP2 SWAP1 DUP2 ADD SWAP1 PUSH2 0xE1F JUMP JUMPDEST SWAP5 SWAP13 SWAP4 SWAP12 POP SWAP2 SWAP10 POP SWAP8 POP SWAP6 POP SWAP1 SWAP4 POP SWAP2 POP POP JUMP JUMPDEST PUSH1 0x0 DUP1 SLOAD PUSH1 0x40 MLOAD PUSH4 0x781A271B PUSH1 0xE1 SHL DUP2 MSTORE DUP3 SWAP2 DUP3 SWAP2 DUP3 SWAP2 PUSH1 0x1 PUSH1 0x1 PUSH1 0xA0 SHL SUB AND SWAP1 PUSH4 0xF0344E36 SWAP1 PUSH2 0x9CF SWAP1 DUP9 SWAP1 PUSH1 0x4 ADD PUSH2 0x13EF JUMP JUMPDEST PUSH2 0x120 PUSH1 0x40 MLOAD DUP1 DUP4 SUB DUP2 DUP7 DUP1 EXTCODESIZE ISZERO DUP1 ISZERO PUSH2 0x9E8 JUMPI PUSH1 0x0 DUP1 REVERT JUMPDEST POP GAS STATICCALL ISZERO DUP1 ISZERO PUSH2 0x9FC JUMPI RETURNDATASIZE PUSH1 0x0 DUP1 RETURNDATACOPY RETURNDATASIZE PUSH1 0x0 REVERT JUMPDEST POP POP POP POP PUSH1 0x40 MLOAD RETURNDATASIZE PUSH1 0x1F NOT PUSH1 0x1F DUP3 ADD AND DUP3 ADD DUP1 PUSH1 0x40 MSTORE POP DUP2 ADD SWAP1 PUSH2 0xA20 SWAP2 SWAP1 PUSH2 0x10D4 JUMP JUMPDEST POP SWAP2 SWAP11 POP SWAP9 POP POP POP POP POP POP POP POP POP SWAP2 POP SWAP2 JUMP JUMPDEST PUSH1 0x0 DUP1 SLOAD PUSH1 0x40 MLOAD PUSH4 0x290409D3 PUSH1 0xE2 SHL DUP2 MSTORE PUSH1 0x1 PUSH1 0x1 PUSH1 0xA0 SHL SUB SWAP1 SWAP2 AND SWAP1 PUSH4 0xA410274C SWAP1 PUSH2 0xA64 SWAP1 DUP6 SWAP1 PUSH1 0x4 ADD PUSH2 0x13EF JUMP JUMPDEST PUSH1 0x20 PUSH1 0x40 MLOAD DUP1 DUP4 SUB DUP2 DUP7 DUP1 EXTCODESIZE ISZERO DUP1 ISZERO PUSH2 0xA7C JUMPI PUSH1 0x0 DUP1 REVERT JUMPDEST POP GAS STATICCALL ISZERO DUP1 ISZERO PUSH2 0xA90 JUMPI RETURNDATASIZE PUSH1 0x0 DUP1 RETURNDATACOPY RETURNDATASIZE PUSH1 0x0 REVERT JUMPDEST POP POP POP POP PUSH1 0x40 MLOAD RETURNDATASIZE PUSH1 0x1F NOT PUSH1 0x1F DUP3 ADD AND DUP3 ADD DUP1 PUSH1 0x40 MSTORE POP DUP2 ADD SWAP1 PUSH2 0x650 SWAP2 SWAP1 PUSH2 0x1162 JUMP JUMPDEST PUSH1 0x0 DUP1 SLOAD PUSH1 0x40 MLOAD PUSH4 0x781A271B PUSH1 0xE1 SHL DUP2 MSTORE DUP3 SWAP2 PUSH1 0x1 PUSH1 0x1 PUSH1 0xA0 SHL SUB AND SWAP1 PUSH4 0xF0344E36 SWAP1 PUSH2 0xAE5 SWAP1 DUP7 SWAP1 PUSH1 0x4 ADD PUSH2 0x13EF JUMP JUMPDEST PUSH2 0x120 PUSH1 0x40 MLOAD DUP1 DUP4 SUB DUP2 DUP7 DUP1 EXTCODESIZE ISZERO DUP1 ISZERO PUSH2 0xAFE JUMPI PUSH1 0x0 DUP1 REVERT JUMPDEST POP GAS STATICCALL ISZERO DUP1 ISZERO PUSH2 0xB12 JUMPI RETURNDATASIZE PUSH1 0x0 DUP1 RETURNDATACOPY RETURNDATASIZE PUSH1 0x0 REVERT JUMPDEST POP POP POP POP PUSH1 0x40 MLOAD RETURNDATASIZE PUSH1 0x1F NOT PUSH1 0x1F DUP3 ADD AND DUP3 ADD DUP1 PUSH1 0x40 MSTORE POP DUP2 ADD SWAP1 PUSH2 0xB36 SWAP2 SWAP1 PUSH2 0x10D4 JUMP JUMPDEST POP SWAP7 SWAP8 POP PUSH1 0x3 SWAP7 POP PUSH2 0xB4A SWAP6 POP POP POP POP POP POP JUMP JUMPDEST DUP2 PUSH1 0x4 DUP2 GT ISZERO PUSH2 0xB6A JUMPI PUSH4 0x4E487B71 PUSH1 0xE0 SHL PUSH1 0x0 MSTORE PUSH1 0x21 PUSH1 0x4 MSTORE PUSH1 0x24 PUSH1 0x0 REVERT JUMPDEST EQ DUP1 PUSH2 0x410 JUMPI POP PUSH1 0x4 DUP2 PUSH1 0x4 DUP2 GT ISZERO PUSH2 0xB93 JUMPI PUSH4 0x4E487B71 PUSH1 0xE0 SHL PUSH1 0x0 MSTORE PUSH1 0x21 PUSH1 0x4 MSTORE PUSH1 0x24 PUSH1 0x0 REVERT JUMPDEST EQ SWAP4 SWAP3 POP POP POP JUMP JUMPDEST PUSH1 0x0 DUP1 SLOAD PUSH1 0x40 MLOAD PUSH4 0x781A271B PUSH1 0xE1 SHL DUP2 MSTORE DUP3 SWAP2 PUSH1 0x1 PUSH1 0x1 PUSH1 0xA0 SHL SUB AND SWAP1 PUSH4 0xF0344E36 SWAP1 PUSH2 0xBCC SWAP1 DUP7 SWAP1 PUSH1 0x4 ADD PUSH2 0x13EF JUMP JUMPDEST PUSH2 0x120 PUSH1 0x40 MLOAD DUP1 DUP4 SUB DUP2 DUP7 DUP1 EXTCODESIZE ISZERO DUP1 ISZERO PUSH2 0xBE5 JUMPI PUSH1 0x0 DUP1 REVERT JUMPDEST POP GAS STATICCALL ISZERO DUP1 ISZERO PUSH2 0xBF9 JUMPI RETURNDATASIZE PUSH1 0x0 DUP1 RETURNDATACOPY RETURNDATASIZE PUSH1 0x0 REVERT JUMPDEST POP POP POP POP PUSH1 0x40 MLOAD RETURNDATASIZE PUSH1 0x1F NOT PUSH1 0x1F DUP3 ADD AND DUP3 ADD DUP1 PUSH1 0x40 MSTORE POP DUP2 ADD SWAP1 PUSH2 0xC1D SWAP2 SWAP1 PUSH2 0x10D4 JUMP JUMPDEST POP SWAP7 SWAP11 SWAP10 POP POP POP POP POP POP POP POP POP POP JUMP JUMPDEST PUSH1 0x0 DUP3 PUSH1 0x1F DUP4 ADD SLT PUSH2 0xC3D JUMPI DUP1 DUP2 REVERT JUMPDEST DUP2 MLOAD PUSH1 0x20 PUSH2 0xC52 PUSH2 0xC4D DUP4 PUSH2 0x1457 JUMP JUMPDEST PUSH2 0x142D JUMP JUMPDEST DUP3 DUP2 MSTORE DUP2 DUP2 ADD SWAP1 DUP6 DUP4 ADD DUP4 DUP6 MUL DUP8 ADD DUP5 ADD DUP9 LT ISZERO PUSH2 0xC6E JUMPI DUP6 DUP7 REVERT JUMPDEST DUP6 JUMPDEST DUP6 DUP2 LT ISZERO PUSH2 0xC95 JUMPI DUP2 MLOAD PUSH2 0xC83 DUP2 PUSH2 0x14B4 JUMP JUMPDEST DUP5 MSTORE SWAP3 DUP5 ADD SWAP3 SWAP1 DUP5 ADD SWAP1 PUSH1 0x1 ADD PUSH2 0xC70 JUMP JUMPDEST POP SWAP1 SWAP8 SWAP7 POP POP POP POP POP POP POP JUMP JUMPDEST PUSH1 0x0 DUP3 PUSH1 0x1F DUP4 ADD SLT PUSH2 0xCB2 JUMPI DUP1 DUP2 REVERT JUMPDEST DUP2 MLOAD PUSH1 0x20 PUSH2 0xCC2 PUSH2 0xC4D DUP4 PUSH2 0x1457 JUMP JUMPDEST DUP3 DUP2 MSTORE DUP2 DUP2 ADD SWAP1 DUP6 DUP4 ADD DUP4 DUP6 MUL DUP8 ADD DUP5 ADD DUP9 LT ISZERO PUSH2 0xCDE JUMPI DUP6 DUP7 REVERT JUMPDEST DUP6 JUMPDEST DUP6 DUP2 LT ISZERO PUSH2 0xC95 JUMPI PUSH2 0xCF1 DUP3 PUSH2 0xDC5 JUMP JUMPDEST DUP5 MSTORE SWAP3 DUP5 ADD SWAP3 SWAP1 DUP5 ADD SWAP1 PUSH1 0x1 ADD PUSH2 0xCE0 JUMP JUMPDEST PUSH1 0x0 DUP3 PUSH1 0x1F DUP4 ADD SLT PUSH2 0xD13 JUMPI DUP1 DUP2 REVERT JUMPDEST DUP2 MLOAD PUSH1 0x20 PUSH2 0xD23 PUSH2 0xC4D DUP4 PUSH2 0x1457 JUMP JUMPDEST DUP3 DUP2 MSTORE DUP2 DUP2 ADD SWAP1 DUP6 DUP4 ADD DUP4 DUP6 MUL DUP8 ADD DUP5 ADD DUP9 LT ISZERO PUSH2 0xD3F JUMPI DUP6 DUP7 REVERT JUMPDEST DUP6 JUMPDEST DUP6 DUP2 LT ISZERO PUSH2 0xC95 JUMPI DUP2 MLOAD DUP5 MSTORE SWAP3 DUP5 ADD SWAP3 SWAP1 DUP5 ADD SWAP1 PUSH1 0x1 ADD PUSH2 0xD41 JUMP JUMPDEST PUSH1 0x0 DUP3 PUSH1 0x1F DUP4 ADD SLT PUSH2 0xD6D JUMPI DUP1 DUP2 REVERT JUMPDEST DUP2 MLOAD PUSH1 0x20 PUSH2 0xD7D PUSH2 0xC4D DUP4 PUSH2 0x1457 JUMP JUMPDEST DUP3 DUP2 MSTORE DUP2 DUP2 ADD SWAP1 DUP6 DUP4 ADD DUP4 DUP6 MUL DUP8 ADD DUP5 ADD DUP9 LT ISZERO PUSH2 0xD99 JUMPI DUP6 DUP7 REVERT JUMPDEST DUP6 JUMPDEST DUP6 DUP2 LT ISZERO PUSH2 0xC95 JUMPI DUP2 MLOAD PUSH1 0xFF DUP2 AND DUP2 EQ PUSH2 0xDB3 JUMPI DUP8 DUP9 REVERT JUMPDEST DUP5 MSTORE SWAP3 DUP5 ADD SWAP3 SWAP1 DUP5 ADD SWAP1 PUSH1 0x1 ADD PUSH2 0xD9B JUMP JUMPDEST DUP1 MLOAD DUP1 ISZERO ISZERO DUP2 EQ PUSH2 0x414 JUMPI PUSH1 0x0 DUP1 REVERT JUMPDEST DUP1 MLOAD PUSH1 0x5 DUP2 LT PUSH2 0x414 JUMPI PUSH1 0x0 DUP1 REVERT JUMPDEST PUSH1 0x0 PUSH1 0x20 DUP3 DUP5 SUB SLT ISZERO PUSH2 0xDF5 JUMPI DUP1 DUP2 REVERT JUMPDEST DUP2 MLOAD PUSH8 0xFFFFFFFFFFFFFFFF DUP2 GT ISZERO PUSH2 0xE0B JUMPI DUP2 DUP3 REVERT JUMPDEST PUSH2 0xE17 DUP5 DUP3 DUP6 ADD PUSH2 0xC2D JUMP JUMPDEST SWAP5 SWAP4 POP POP POP POP JUMP JUMPDEST PUSH1 0x0 DUP1 PUSH1 0x0 DUP1 PUSH1 0x0 DUP1 PUSH1 0xC0 DUP8 DUP10 SUB SLT ISZERO PUSH2 0xE37 JUMPI DUP2 DUP3 REVERT JUMPDEST DUP7 MLOAD PUSH8 0xFFFFFFFFFFFFFFFF DUP1 DUP3 GT ISZERO PUSH2 0xE4E JUMPI DUP4 DUP5 REVERT JUMPDEST PUSH2 0xE5A DUP11 DUP4 DUP12 ADD PUSH2 0xC2D JUMP JUMPDEST SWAP8 POP PUSH1 0x20 DUP10 ADD MLOAD SWAP2 POP DUP1 DUP3 GT ISZERO PUSH2 0xE6F JUMPI DUP4 DUP5 REVERT JUMPDEST PUSH2 0xE7B DUP11 DUP4 DUP12 ADD PUSH2 0xCA2 JUMP JUMPDEST SWAP7 POP PUSH1 0x40 DUP10 ADD MLOAD SWAP2 POP DUP1 DUP3 GT ISZERO PUSH2 0xE90 JUMPI DUP4 DUP5 REVERT JUMPDEST PUSH2 0xE9C DUP11 DUP4 DUP12 ADD PUSH2 0xCA2 JUMP JUMPDEST SWAP6 POP PUSH1 0x60 DUP10 ADD MLOAD SWAP2 POP DUP1 DUP3 GT ISZERO PUSH2 0xEB1 JUMPI DUP4 DUP5 REVERT JUMPDEST PUSH2 0xEBD DUP11 DUP4 DUP12 ADD PUSH2 0xD03 JUMP JUMPDEST SWAP5 POP PUSH1 0x80 DUP10 ADD MLOAD SWAP2 POP DUP1 DUP3 GT ISZERO PUSH2 0xED2 JUMPI DUP4 DUP5 REVERT JUMPDEST PUSH2 0xEDE DUP11 DUP4 DUP12 ADD PUSH2 0xD03 JUMP JUMPDEST SWAP4 POP PUSH1 0xA0 DUP10 ADD MLOAD SWAP2 POP DUP1 DUP3 GT ISZERO PUSH2 0xEF3 JUMPI DUP3 DUP4 REVERT JUMPDEST POP PUSH2 0xF00 DUP10 DUP3 DUP11 ADD PUSH2 0xD03 JUMP JUMPDEST SWAP2 POP POP SWAP3 SWAP6 POP SWAP3 SWAP6 POP SWAP3 SWAP6 JUMP JUMPDEST PUSH1 0x0 DUP1 PUSH1 0x0 PUSH1 0x60 DUP5 DUP7 SUB SLT ISZERO PUSH2 0xF21 JUMPI DUP3 DUP4 REVERT JUMPDEST DUP4 MLOAD PUSH8 0xFFFFFFFFFFFFFFFF DUP1 DUP3 GT ISZERO PUSH2 0xF38 JUMPI DUP5 DUP6 REVERT JUMPDEST PUSH2 0xF44 DUP8 DUP4 DUP9 ADD PUSH2 0xC2D JUMP JUMPDEST SWAP5 POP PUSH1 0x20 DUP7 ADD MLOAD SWAP2 POP DUP1 DUP3 GT ISZERO PUSH2 0xF59 JUMPI DUP4 DUP5 REVERT JUMPDEST PUSH2 0xF65 DUP8 DUP4 DUP9 ADD PUSH2 0xD5D JUMP JUMPDEST SWAP4 POP PUSH1 0x40 DUP7 ADD MLOAD SWAP2 POP DUP1 DUP3 GT ISZERO PUSH2 0xF7A JUMPI DUP3 DUP4 REVERT JUMPDEST POP PUSH2 0xF87 DUP7 DUP3 DUP8 ADD PUSH2 0xD5D JUMP JUMPDEST SWAP2 POP POP SWAP3 POP SWAP3 POP SWAP3 JUMP JUMPDEST PUSH1 0x0 PUSH1 0x20 DUP3 DUP5 SUB SLT ISZERO PUSH2 0xFA2 JUMPI DUP1 DUP2 REVERT JUMPDEST DUP2 MLOAD PUSH8 0xFFFFFFFFFFFFFFFF DUP2 GT ISZERO PUSH2 0xFB8 JUMPI DUP2 DUP3 REVERT JUMPDEST PUSH2 0xE17 DUP5 DUP3 DUP6 ADD PUSH2 0xD03 JUMP JUMPDEST PUSH1 0x0 DUP1 PUSH1 0x0 DUP1 PUSH1 0x0 DUP1 PUSH1 0x0 DUP1 PUSH2 0x100 DUP10 DUP12 SUB SLT ISZERO PUSH2 0xFE0 JUMPI DUP2 DUP3 REVERT JUMPDEST PUSH2 0xFE9 DUP10 PUSH2 0xDC5 JUMP JUMPDEST SWAP8 POP PUSH2 0xFF7 PUSH1 0x20 DUP11 ADD PUSH2 0xDC5 JUMP JUMPDEST SWAP7 POP PUSH2 0x1005 PUSH1 0x40 DUP11 ADD PUSH2 0xDC5 JUMP JUMPDEST SWAP6 POP PUSH2 0x1013 PUSH1 0x60 DUP11 ADD PUSH2 0xDC5 JUMP JUMPDEST SWAP5 POP PUSH1 0x80 DUP10 ADD MLOAD SWAP4 POP PUSH1 0xA0 DUP10 ADD MLOAD SWAP3 POP PUSH1 0xC0 DUP10 ADD MLOAD SWAP2 POP PUSH1 0xE0 DUP10 ADD MLOAD SWAP1 POP SWAP3 SWAP6 SWAP9 POP SWAP3 SWAP6 SWAP9 SWAP1 SWAP4 SWAP7 POP JUMP JUMPDEST PUSH1 0x0 DUP1 PUSH1 0x0 DUP1 PUSH1 0x0 DUP1 PUSH1 0x0 DUP1 PUSH1 0x0 DUP1 PUSH1 0x0 PUSH2 0x160 DUP13 DUP15 SUB SLT ISZERO PUSH2 0x105F JUMPI DUP5 DUP6 REVERT JUMPDEST PUSH2 0x1068 DUP13 PUSH2 0xDD5 JUMP JUMPDEST SWAP11 POP PUSH1 0x20 DUP13 ADD MLOAD SWAP10 POP PUSH1 0x40 DUP13 ADD MLOAD SWAP9 POP PUSH1 0x60 DUP13 ADD MLOAD SWAP8 POP PUSH1 0x80 DUP13 ADD MLOAD SWAP7 POP PUSH1 0xA0 DUP13 ADD MLOAD SWAP6 POP PUSH1 0xC0 DUP13 ADD MLOAD SWAP5 POP PUSH1 0xE0 DUP13 ADD MLOAD SWAP4 POP PUSH2 0x100 DUP13 ADD MLOAD PUSH2 0x10AA DUP2 PUSH2 0x14B4 JUMP JUMPDEST PUSH2 0x120 DUP14 ADD MLOAD SWAP1 SWAP4 POP SWAP2 POP PUSH2 0x10C2 PUSH2 0x140 DUP14 ADD PUSH2 0xDC5 JUMP JUMPDEST SWAP1 POP SWAP3 SWAP6 SWAP9 SWAP12 POP SWAP3 SWAP6 SWAP9 SWAP12 SWAP1 SWAP4 SWAP7 SWAP10 POP JUMP JUMPDEST PUSH1 0x0 DUP1 PUSH1 0x0 DUP1 PUSH1 0x0 DUP1 PUSH1 0x0 DUP1 PUSH1 0x0 PUSH2 0x120 DUP11 DUP13 SUB SLT ISZERO PUSH2 0x10F2 JUMPI DUP3 DUP4 REVERT JUMPDEST PUSH2 0x10FB DUP11 PUSH2 0xDD5 JUMP JUMPDEST SWAP9 POP PUSH1 0x20 DUP11 ADD MLOAD SWAP8 POP PUSH1 0x40 DUP11 ADD MLOAD SWAP7 POP PUSH1 0x60 DUP11 ADD MLOAD SWAP6 POP PUSH1 0x80 DUP11 ADD MLOAD SWAP5 POP PUSH1 0xA0 DUP11 ADD MLOAD SWAP4 POP PUSH1 0xC0 DUP11 ADD MLOAD SWAP3 POP PUSH1 0xE0 DUP11 ADD MLOAD SWAP2 POP PUSH2 0x113B PUSH2 0x100 DUP12 ADD PUSH2 0xDC5 JUMP JUMPDEST SWAP1 POP SWAP3 SWAP6 SWAP9 POP SWAP3 SWAP6 SWAP9 POP SWAP3 SWAP6 SWAP9 JUMP JUMPDEST PUSH1 0x0 PUSH1 0x20 DUP3 DUP5 SUB SLT ISZERO PUSH2 0x115B JUMPI DUP1 DUP2 REVERT JUMPDEST POP CALLDATALOAD SWAP2 SWAP1 POP JUMP JUMPDEST PUSH1 0x0 PUSH1 0x20 DUP3 DUP5 SUB SLT ISZERO PUSH2 0x1173 JUMPI DUP1 DUP2 REVERT JUMPDEST POP MLOAD SWAP2 SWAP1 POP JUMP JUMPDEST PUSH1 0x0 DUP1 PUSH1 0x40 DUP4 DUP6 SUB SLT ISZERO PUSH2 0x118C JUMPI DUP2 DUP3 REVERT JUMPDEST DUP3 CALLDATALOAD SWAP2 POP PUSH1 0x20 DUP4 ADD CALLDATALOAD PUSH2 0x119E DUP2 PUSH2 0x14B4 JUMP JUMPDEST DUP1 SWAP2 POP POP SWAP3 POP SWAP3 SWAP1 POP JUMP JUMPDEST PUSH1 0x0 DUP2 MLOAD DUP1 DUP5 MSTORE PUSH1 0x20 DUP1 DUP6 ADD SWAP5 POP DUP1 DUP5 ADD DUP4 JUMPDEST DUP4 DUP2 LT ISZERO PUSH2 0x11E1 JUMPI DUP2 MLOAD PUSH1 0x1 PUSH1 0x1 PUSH1 0xA0 SHL SUB AND DUP8 MSTORE SWAP6 DUP3 ADD SWAP6 SWAP1 DUP3 ADD SWAP1 PUSH1 0x1 ADD PUSH2 0x11BC JUMP JUMPDEST POP SWAP5 SWAP6 SWAP5 POP POP POP POP POP JUMP JUMPDEST PUSH1 0x0 DUP2 MLOAD DUP1 DUP5 MSTORE PUSH1 0x20 DUP1 DUP6 ADD SWAP5 POP DUP1 DUP5 ADD DUP4 JUMPDEST DUP4 DUP2 LT ISZERO PUSH2 0x11E1 JUMPI DUP2 MLOAD ISZERO ISZERO DUP8 MSTORE SWAP6 DUP3 ADD SWAP6 SWAP1 DUP3 ADD SWAP1 PUSH1 0x1 ADD PUSH2 0x11FF JUMP JUMPDEST PUSH1 0x0 DUP2 MLOAD DUP1 DUP5 MSTORE PUSH1 0x20 DUP1 DUP6 ADD SWAP5 POP DUP1 DUP5 ADD DUP4 JUMPDEST DUP4 DUP2 LT ISZERO PUSH2 0x11E1 JUMPI DUP2 MLOAD DUP8 MSTORE SWAP6 DUP3 ADD SWAP6 SWAP1 DUP3 ADD SWAP1 PUSH1 0x1 ADD PUSH2 0x1230 JUMP JUMPDEST PUSH1 0x0 DUP2 MLOAD DUP1 DUP5 MSTORE PUSH1 0x20 DUP1 DUP6 ADD SWAP5 POP DUP1 DUP5 ADD DUP4 JUMPDEST DUP4 DUP2 LT ISZERO PUSH2 0x11E1 JUMPI DUP2 MLOAD PUSH1 0xFF AND DUP8 MSTORE SWAP6 DUP3 ADD SWAP6 SWAP1 DUP3 ADD SWAP1 PUSH1 0x1 ADD PUSH2 0x125F JUMP JUMPDEST PUSH1 0x1 PUSH1 0x1 PUSH1 0xA0 SHL SUB SWAP2 SWAP1 SWAP2 AND DUP2 MSTORE PUSH1 0x20 ADD SWAP1 JUMP JUMPDEST PUSH1 0x0 PUSH1 0x20 DUP3 MSTORE PUSH2 0x12A5 PUSH1 0x20 DUP4 ADD DUP5 PUSH2 0x11A9 JUMP JUMPDEST SWAP4 SWAP3 POP POP POP JUMP JUMPDEST PUSH1 0x0 PUSH1 0xC0 DUP3 MSTORE PUSH2 0x12BF PUSH1 0xC0 DUP4 ADD DUP10 PUSH2 0x11A9 JUMP JUMPDEST DUP3 DUP2 SUB PUSH1 0x20 DUP5 ADD MSTORE PUSH2 0x12D1 DUP2 DUP10 PUSH2 0x11EC JUMP JUMPDEST SWAP1 POP DUP3 DUP2 SUB PUSH1 0x40 DUP5 ADD MSTORE PUSH2 0x12E5 DUP2 DUP9 PUSH2 0x11EC JUMP JUMPDEST SWAP1 POP DUP3 DUP2 SUB PUSH1 0x60 DUP5 ADD MSTORE PUSH2 0x12F9 DUP2 DUP8 PUSH2 0x121D JUMP JUMPDEST SWAP1 POP DUP3 DUP2 SUB PUSH1 0x80 DUP5 ADD MSTORE PUSH2 0x130D DUP2 DUP7 PUSH2 0x121D JUMP JUMPDEST SWAP1 POP DUP3 DUP2 SUB PUSH1 0xA0 DUP5 ADD MSTORE PUSH2 0x1321 DUP2 DUP6 PUSH2 0x121D JUMP JUMPDEST SWAP10 SWAP9 POP POP POP POP POP POP POP POP POP JUMP JUMPDEST PUSH1 0x0 PUSH1 0x60 DUP3 MSTORE PUSH2 0x1341 PUSH1 0x60 DUP4 ADD DUP7 PUSH2 0x11A9 JUMP JUMPDEST DUP3 DUP2 SUB PUSH1 0x20 DUP5 ADD MSTORE PUSH2 0x1353 DUP2 DUP7 PUSH2 0x124C JUMP JUMPDEST SWAP1 POP DUP3 DUP2 SUB PUSH1 0x40 DUP5 ADD MSTORE PUSH2 0x1367 DUP2 DUP6 PUSH2 0x124C JUMP JUMPDEST SWAP7 SWAP6 POP POP POP POP POP POP JUMP JUMPDEST PUSH1 0x0 PUSH1 0x20 DUP3 MSTORE PUSH2 0x12A5 PUSH1 0x20 DUP4 ADD DUP5 PUSH2 0x121D JUMP JUMPDEST SWAP1 ISZERO ISZERO DUP2 MSTORE PUSH1 0x20 ADD SWAP1 JUMP JUMPDEST SWAP8 ISZERO ISZERO DUP9 MSTORE SWAP6 ISZERO ISZERO PUSH1 0x20 DUP9 ADD MSTORE SWAP4 ISZERO ISZERO PUSH1 0x40 DUP8 ADD MSTORE SWAP2 ISZERO ISZERO PUSH1 0x60 DUP7 ADD MSTORE PUSH1 0x80 DUP6 ADD MSTORE PUSH1 0xA0 DUP5 ADD MSTORE PUSH1 0xC0 DUP4 ADD MSTORE PUSH1 0xE0 DUP3 ADD MSTORE PUSH2 0x100 ADD SWAP1 JUMP JUMPDEST PUSH1 0x20 DUP2 ADD PUSH1 0x5 DUP4 LT PUSH2 0x13E9 JUMPI PUSH4 0x4E487B71 PUSH1 0xE0 SHL PUSH1 0x0 MSTORE PUSH1 0x21 PUSH1 0x4 MSTORE PUSH1 0x24 PUSH1 0x0 REVERT JUMPDEST SWAP2 SWAP1 MSTORE SWAP1 JUMP JUMPDEST SWAP1 DUP2 MSTORE PUSH1 0x20 ADD SWAP1 JUMP JUMPDEST SWAP2 DUP3 MSTORE PUSH1 0x1 PUSH1 0x1 PUSH1 0xA0 SHL SUB AND PUSH1 0x20 DUP3 ADD MSTORE PUSH1 0x40 ADD SWAP1 JUMP JUMPDEST SWAP2 DUP3 MSTORE ISZERO ISZERO PUSH1 0x20 DUP3 ADD MSTORE PUSH1 0x40 ADD SWAP1 JUMP JUMPDEST SWAP2 DUP3 MSTORE PUSH1 0x20 DUP3 ADD MSTORE PUSH1 0x40 ADD SWAP1 JUMP JUMPDEST PUSH1 0x40 MLOAD DUP2 DUP2 ADD PUSH8 0xFFFFFFFFFFFFFFFF DUP2 GT DUP3 DUP3 LT OR ISZERO PUSH2 0x144F JUMPI PUSH2 0x144F PUSH2 0x149E JUMP JUMPDEST PUSH1 0x40 MSTORE SWAP2 SWAP1 POP JUMP JUMPDEST PUSH1 0x0 PUSH8 0xFFFFFFFFFFFFFFFF DUP3 GT ISZERO PUSH2 0x1471 JUMPI PUSH2 0x1471 PUSH2 0x149E JUMP JUMPDEST POP PUSH1 0x20 SWAP1 DUP2 MUL ADD SWAP1 JUMP JUMPDEST PUSH1 0x0 DUP3 DUP3 LT ISZERO PUSH2 0x1499 JUMPI PUSH4 0x4E487B71 PUSH1 0xE0 SHL DUP2 MSTORE PUSH1 0x11 PUSH1 0x4 MSTORE PUSH1 0x24 DUP2 REVERT JUMPDEST POP SUB SWAP1 JUMP JUMPDEST PUSH4 0x4E487B71 PUSH1 0xE0 SHL PUSH1 0x0 MSTORE PUSH1 0x41 PUSH1 0x4 MSTORE PUSH1 0x24 PUSH1 0x0 REVERT JUMPDEST PUSH1 0x1 PUSH1 0x1 PUSH1 0xA0 SHL SUB DUP2 AND DUP2 EQ PUSH2 0x14C9 JUMPI PUSH1 0x0 DUP1 REVERT JUMPDEST POP JUMP INVALID LOG2 PUSH5 0x6970667358 0x22 SLT KECCAK256 RETURNDATASIZE SWAP10 MSTORE PUSH28 0x790B89F56DB5DB02494023783CD312D363F21794D13699828B6E4E29 PUSH5 0x736F6C6343 STOP ADDMOD STOP STOP CALLER "},"methodIdentifiers":{"areCardsViewable(uint256)":"bfe72b61","getActiveGames()":"1b76929c","getActivePlayerCount(uint256)":"a410274c","getActivePlayers(uint256)":"342ed956","getGameKeeper(uint256)":"213e5eb0","getGamePhase(uint256)":"d36f68ca","getGameVersion(uint256)":"217ad06e","getPlayerCounts(uint256)":"9d8690f9","getPlayerInfo(uint256,address)":"3ccd10e9","getPlayers(uint256)":"460e2049","getPotInfo(uint256)":"6e1e277b","getRemainingTime(uint256)":"181e0124","getSpectatorCardData(uint256)":"4a49ef82","getSpectatorPlayerData(uint256)":"89e60af1","getStateVersionQuick(uint256)":"80ce40ee","getTimingInfo(uint256)":"0a9a55b1"}}}}}