{"contracts/SpectatorBetting.sol":{"SpectatorBetting":{"abi":[{"inputs":[{"internalType":"address","name":"_oneCardContract","type":"address"}],"stateMutability":"nonpayable","type":"constructor"},{"anonymous":false,"inputs":[{"indexed":true,"internalType":"uint256","name":"gameId","type":"uint256"},{"indexed":false,"internalType":"address","name":"bettor","type":"address"},{"indexed":true,"internalType":"address","name":"playerBetOn","type":"address"},{"indexed":false,"internalType":"uint256","name":"amount","type":"uint256"}],"name":"BetPlaced","type":"event"},{"anonymous":false,"inputs":[{"indexed":true,"internalType":"uint256","name":"gameId","type":"uint256"}],"name":"BettingClosed","type":"event"},{"anonymous":false,"inputs":[{"indexed":true,"internalType":"uint256","name":"gameId","type":"uint256"}],"name":"BettingOpened","type":"event"},{"anonymous":false,"inputs":[{"indexed":true,"internalType":"uint256","name":"gameId","type":"uint256"},{"indexed":false,"internalType":"address","name":"winner","type":"address"}],"name":"ResultsProcessed","type":"event"},{"anonymous":false,"inputs":[{"indexed":true,"internalType":"uint256","name":"gameId","type":"uint256"},{"indexed":false,"internalType":"address","name":"bettor","type":"address"},{"indexed":false,"internalType":"uint256","name":"amount","type":"uint256"}],"name":"WinningsClaimed","type":"event"},{"inputs":[{"internalType":"uint256","name":"gameId","type":"uint256"},{"internalType":"address","name":"bettor","type":"address"}],"name":"checkWinnings","outputs":[{"internalType":"bool","name":"hasWinnings","type":"bool"},{"internalType":"uint256","name":"amount","type":"uint256"}],"stateMutability":"view","type":"function"},{"inputs":[{"internalType":"uint256","name":"gameId","type":"uint256"}],"name":"claimWinnings","outputs":[],"stateMutability":"nonpayable","type":"function"},{"inputs":[{"internalType":"uint256","name":"gameId","type":"uint256"}],"name":"closeBetting","outputs":[],"stateMutability":"nonpayable","type":"function"},{"inputs":[{"internalType":"uint256","name":"","type":"uint256"}],"name":"games","outputs":[{"internalType":"uint256","name":"gameId","type":"uint256"},{"internalType":"bool","name":"bettingOpen","type":"bool"},{"internalType":"bool","name":"resultsProcessed","type":"bool"},{"internalType":"uint256","name":"totalBetAmount","type":"uint256"},{"internalType":"address","name":"winner","type":"address"}],"stateMutability":"view","type":"function"},{"inputs":[{"internalType":"uint256","name":"gameId","type":"uint256"},{"internalType":"address","name":"bettor","type":"address"}],"name":"getBetInfo","outputs":[{"internalType":"address","name":"playerBetOn","type":"address"},{"internalType":"uint256","name":"amount","type":"uint256"},{"internalType":"bool","name":"claimed","type":"bool"}],"stateMutability":"view","type":"function"},{"inputs":[{"internalType":"uint256","name":"gameId","type":"uint256"}],"name":"getGameInfo","outputs":[{"internalType":"bool","name":"bettingOpen","type":"bool"},{"internalType":"bool","name":"resultsProcessed","type":"bool"},{"internalType":"uint256","name":"totalBetAmount","type":"uint256"},{"internalType":"address","name":"winner","type":"address"}],"stateMutability":"view","type":"function"},{"inputs":[{"internalType":"uint256","name":"gameId","type":"uint256"},{"internalType":"address","name":"player","type":"address"}],"name":"getTotalBetOnPlayer","outputs":[{"internalType":"uint256","name":"","type":"uint256"}],"stateMutability":"view","type":"function"},{"inputs":[],"name":"oneCardContract","outputs":[{"internalType":"address","name":"","type":"address"}],"stateMutability":"view","type":"function"},{"inputs":[{"internalType":"uint256","name":"gameId","type":"uint256"}],"name":"openBetting","outputs":[],"stateMutability":"nonpayable","type":"function"},{"inputs":[],"name":"owner","outputs":[{"internalType":"address","name":"","type":"address"}],"stateMutability":"view","type":"function"},{"inputs":[{"internalType":"uint256","name":"gameId","type":"uint256"},{"internalType":"address","name":"playerToBetOn","type":"address"}],"name":"placeBet","outputs":[],"stateMutability":"payable","type":"function"},{"inputs":[{"internalType":"uint256","name":"gameId","type":"uint256"},{"internalType":"address","name":"winner","type":"address"}],"name":"processResults","outputs":[],"stateMutability":"nonpayable","type":"function"}],"evm":{"bytecode":{"linkReferences":{},"object":"60c060405234801561001057600080fd5b50604051610f51380380610f5183398101604081905261002f9161004c565b6001600160601b0319606091821b1660805233901b60a05261007a565b60006020828403121561005d578081fd5b81516001600160a01b0381168114610073578182fd5b9392505050565b60805160601c60a05160601c610e976100ba60003960006105be0152600081816102e7015281816104fd01528181610615015261096e0152610e976000f3fe6080604052600436106100a75760003560e01c80638da5cb5b116100645780638da5cb5b146101a9578063b0cad3a5146101be578063b4ad06a1146101eb578063bc1b60621461020b578063e8fb8cd01461021e578063f41c6c0a1461024c576100a7565b80630e6c893a146100ac578063117a5b90146100e457806316a26db51461011557806347e1d55014610137578063677bd9ff1461016757806372df88de14610189575b600080fd5b3480156100b857600080fd5b506100cc6100c7366004610aa7565b61026c565b6040516100db93929190610b0e565b60405180910390f35b3480156100f057600080fd5b506101046100ff366004610a8f565b6102a9565b6040516100db959493929190610dc8565b34801561012157600080fd5b5061012a6102e5565b6040516100db9190610ae1565b34801561014357600080fd5b50610157610152366004610a8f565b610309565b6040516100db9493929190610b31565b34801561017357600080fd5b50610187610182366004610a8f565b610344565b005b34801561019557600080fd5b506101876101a4366004610a8f565b6104f2565b3480156101b557600080fd5b5061012a6105bc565b3480156101ca57600080fd5b506101de6101d9366004610aa7565b6105e0565b6040516100db9190610dbf565b3480156101f757600080fd5b50610187610206366004610a8f565b61060a565b610187610219366004610aa7565b6106c6565b34801561022a57600080fd5b5061023e610239366004610aa7565b610856565b6040516100db929190610b57565b34801561025857600080fd5b50610187610267366004610aa7565b610963565b6000918252602082815260408084206001600160a01b03938416855260050190915290912080546001820154600290920154921692909160ff1690565b6000602081905290815260409020805460018201546002830154600390930154919260ff8083169361010090930416916001600160a01b031685565b7f000000000000000000000000000000000000000000000000000000000000000081565b60009081526020819052604090206001810154600282015460039092015460ff808316946101009093041692916001600160a01b0390911690565b600081815260208190526040902060010154610100900460ff166103835760405162461bcd60e51b815260040161037a90610cd8565b60405180910390fd5b600081815260208181526040808320338452600501909152902060018101546103be5760405162461bcd60e51b815260040161037a90610c7a565b600281015460ff16156103e35760405162461bcd60e51b815260040161037a90610d0f565b60008281526020819052604090206003015481546001600160a01b0391821691168114156104dd576000838152602081815260408083206001600160a01b03851684526004810183529083205486845291839052600201546001850154919290918390610451908490610e2c565b61045b9190610e0c565b60028601805460ff19166001179055604051909150339082156108fc029083906000818181858888f1935050505015801561049a573d6000803e3d6000fd5b50857f5380cf6fe903b40c6d5a9e0dfbca2f3a423f0a21520b4d5947ed5169bdba946d33836040516104cd929190610af5565b60405180910390a25050506104ed565b60028201805460ff191660011790555b505050565b336001600160a01b037f0000000000000000000000000000000000000000000000000000000000000000161461053a5760405162461bcd60e51b815260040161037a90610d46565b60008181526020819052604090206001015460ff161561056c5760405162461bcd60e51b815260040161037a90610d7d565b6000818152602081905260408082208381556001908101805460ff191690911761ff00191690555182917f9b4839cd96beecd8707537f988e2253e5b89e2cbf896be7557c7d30f6430b71c91a250565b7f000000000000000000000000000000000000000000000000000000000000000081565b6000828152602081815260408083206001600160a01b038516845260040190915290205492915050565b336001600160a01b037f000000000000000000000000000000000000000000000000000000000000000016146106525760405162461bcd60e51b815260040161037a90610d46565b60008181526020819052604090206001015460ff166106835760405162461bcd60e51b815260040161037a90610b67565b600081815260208190526040808220600101805460ff191690555182917feb7ecc3aa4dd407c7207677a2cbf861441d5c5e6c0dc70ad9692a980385c20d691a250565b60008281526020819052604090206001015460ff166106f75760405162461bcd60e51b815260040161037a90610c02565b600034116107175760405162461bcd60e51b815260040161037a90610c39565b600082815260208181526040808320338452600501909152902060010154156107525760405162461bcd60e51b815260040161037a90610b91565b604080516060810182526001600160a01b0383811680835234602080850182815260008688018181528a8252818452888220338352600581018552898320985189546001600160a01b03191698169790971788559151600188015590516002909601805460ff1916961515969096179095559184526004909201905291812080549091906107e1908490610df4565b909155505060008281526020819052604081206002018054349290610807908490610df4565b92505081905550806001600160a01b0316827f4108a54a721949460b35685fb714a531f3002d5f831f59a7c8214f72a054e4d2333460405161084a929190610af5565b60405180910390a35050565b6000828152602081905260408120600101548190610100900460ff166108815750600090508061095c565b6000848152602081815260408083206001600160a01b03871684526005019091529020600181015415806108b95750600281015460ff165b156108cb57600080925092505061095c565b60008581526020819052604090206003015481546001600160a01b03918216911681146109005760008093509350505061095c565b6000868152602081815260408083206001600160a01b03851684526004810183529083205489845291839052600201546001850154919290918390610946908490610e2c565b6109509190610e0c565b60019750955050505050505b9250929050565b336001600160a01b037f000000000000000000000000000000000000000000000000000000000000000016146109ab5760405162461bcd60e51b815260040161037a90610d46565b60008281526020819052604090206001015460ff16156109dd5760405162461bcd60e51b815260040161037a90610bd2565b600082815260208190526040902060010154610100900460ff1615610a145760405162461bcd60e51b815260040161037a90610ca1565b600082815260208190526040908190206003810180546001600160a01b0385166001600160a01b0319909116179055600101805461ff0019166101001790555182907f64456c009f9e9f5c0b5843cfa4ae7981c5e2483b76f3a278b5e0eda4ca60147490610a83908490610ae1565b60405180910390a25050565b600060208284031215610aa0578081fd5b5035919050565b60008060408385031215610ab9578081fd5b8235915060208301356001600160a01b0381168114610ad6578182fd5b809150509250929050565b6001600160a01b0391909116815260200190565b6001600160a01b03929092168252602082015260400190565b6001600160a01b0393909316835260208301919091521515604082015260600190565b9315158452911515602084015260408301526001600160a01b0316606082015260800190565b9115158252602082015260400190565b60208082526010908201526f2132ba3a34b733903737ba1037b832b760811b604082015260600190565b60208082526021908201527f416c726561647920706c6163656420612062657420696e20746869732067616d6040820152606560f81b606082015260800190565b60208082526016908201527510995d1d1a5b99c81b5d5cdd0818994818db1bdcd95960521b604082015260600190565b6020808252601e908201527f42657474696e67206e6f74206f70656e20666f7220746869732067616d650000604082015260600190565b60208082526021908201527f42657420616d6f756e74206d7573742062652067726561746572207468616e206040820152600360fc1b606082015260800190565b6020808252600d908201526c139bc818995d081c1b1858d959609a1b604082015260600190565b60208082526019908201527f526573756c747320616c72656164792070726f63657373656400000000000000604082015260600190565b60208082526019908201527f526573756c7473206e6f742070726f6365737365642079657400000000000000604082015260600190565b60208082526018908201527f57696e6e696e677320616c726561647920636c61696d65640000000000000000604082015260600190565b6020808252601e908201527f4f6e6c79204f6e654361726420636f6e74726163742063616e2063616c6c0000604082015260600190565b60208082526022908201527f42657474696e6720616c7265616479206f70656e20666f7220746869732067616040820152616d6560f01b606082015260800190565b90815260200190565b9485529215156020850152901515604084015260608301526001600160a01b0316608082015260a00190565b60008219821115610e0757610e07610e4b565b500190565b600082610e2757634e487b7160e01b81526012600452602481fd5b500490565b6000816000190483118215151615610e4657610e46610e4b565b500290565b634e487b7160e01b600052601160045260246000fdfea26469706673582212205b86c0bd84640792a7d2c873b9c4901c28211ac03dbfc91cba4c751f6632873664736f6c63430008000033","opcodes":"PUSH1 0xC0 PUSH1 0x40 MSTORE CALLVALUE DUP1 ISZERO PUSH2 0x10 JUMPI PUSH1 0x0 DUP1 REVERT JUMPDEST POP PUSH1 0x40 MLOAD PUSH2 0xF51 CODESIZE SUB DUP1 PUSH2 0xF51 DUP4 CODECOPY DUP2 ADD PUSH1 0x40 DUP2 SWAP1 MSTORE PUSH2 0x2F SWAP2 PUSH2 0x4C JUMP JUMPDEST PUSH1 0x1 PUSH1 0x1 PUSH1 0x60 SHL SUB NOT PUSH1 0x60 SWAP2 DUP3 SHL AND PUSH1 0x80 MSTORE CALLER SWAP1 SHL PUSH1 0xA0 MSTORE PUSH2 0x7A JUMP JUMPDEST PUSH1 0x0 PUSH1 0x20 DUP3 DUP5 SUB SLT ISZERO PUSH2 0x5D JUMPI DUP1 DUP2 REVERT JUMPDEST DUP2 MLOAD PUSH1 0x1 PUSH1 0x1 PUSH1 0xA0 SHL SUB DUP2 AND DUP2 EQ PUSH2 0x73 JUMPI DUP2 DUP3 REVERT JUMPDEST SWAP4 SWAP3 POP POP POP JUMP JUMPDEST PUSH1 0x80 MLOAD PUSH1 0x60 SHR PUSH1 0xA0 MLOAD PUSH1 0x60 SHR PUSH2 0xE97 PUSH2 0xBA PUSH1 0x0 CODECOPY PUSH1 0x0 PUSH2 0x5BE ADD MSTORE PUSH1 0x0 DUP2 DUP2 PUSH2 0x2E7 ADD MSTORE DUP2 DUP2 PUSH2 0x4FD ADD MSTORE DUP2 DUP2 PUSH2 0x615 ADD MSTORE PUSH2 0x96E ADD MSTORE PUSH2 0xE97 PUSH1 0x0 RETURN INVALID PUSH1 0x80 PUSH1 0x40 MSTORE PUSH1 0x4 CALLDATASIZE LT PUSH2 0xA7 JUMPI PUSH1 0x0 CALLDATALOAD PUSH1 0xE0 SHR DUP1 PUSH4 0x8DA5CB5B GT PUSH2 0x64 JUMPI DUP1 PUSH4 0x8DA5CB5B EQ PUSH2 0x1A9 JUMPI DUP1 PUSH4 0xB0CAD3A5 EQ PUSH2 0x1BE JUMPI DUP1 PUSH4 0xB4AD06A1 EQ PUSH2 0x1EB JUMPI DUP1 PUSH4 0xBC1B6062 EQ PUSH2 0x20B JUMPI DUP1 PUSH4 0xE8FB8CD0 EQ PUSH2 0x21E JUMPI DUP1 PUSH4 0xF41C6C0A EQ PUSH2 0x24C JUMPI PUSH2 0xA7 JUMP JUMPDEST DUP1 PUSH4 0xE6C893A EQ PUSH2 0xAC JUMPI DUP1 PUSH4 0x117A5B90 EQ PUSH2 0xE4 JUMPI DUP1 PUSH4 0x16A26DB5 EQ PUSH2 0x115 JUMPI DUP1 PUSH4 0x47E1D550 EQ PUSH2 0x137 JUMPI DUP1 PUSH4 0x677BD9FF EQ PUSH2 0x167 JUMPI DUP1 PUSH4 0x72DF88DE EQ PUSH2 0x189 JUMPI JUMPDEST PUSH1 0x0 DUP1 REVERT JUMPDEST CALLVALUE DUP1 ISZERO PUSH2 0xB8 JUMPI PUSH1 0x0 DUP1 REVERT JUMPDEST POP PUSH2 0xCC PUSH2 0xC7 CALLDATASIZE PUSH1 0x4 PUSH2 0xAA7 JUMP JUMPDEST PUSH2 0x26C JUMP JUMPDEST PUSH1 0x40 MLOAD PUSH2 0xDB SWAP4 SWAP3 SWAP2 SWAP1 PUSH2 0xB0E JUMP JUMPDEST PUSH1 0x40 MLOAD DUP1 SWAP2 SUB SWAP1 RETURN JUMPDEST CALLVALUE DUP1 ISZERO PUSH2 0xF0 JUMPI PUSH1 0x0 DUP1 REVERT JUMPDEST POP PUSH2 0x104 PUSH2 0xFF CALLDATASIZE PUSH1 0x4 PUSH2 0xA8F JUMP JUMPDEST PUSH2 0x2A9 JUMP JUMPDEST PUSH1 0x40 MLOAD PUSH2 0xDB SWAP6 SWAP5 SWAP4 SWAP3 SWAP2 SWAP1 PUSH2 0xDC8 JUMP JUMPDEST CALLVALUE DUP1 ISZERO PUSH2 0x121 JUMPI PUSH1 0x0 DUP1 REVERT JUMPDEST POP PUSH2 0x12A PUSH2 0x2E5 JUMP JUMPDEST PUSH1 0x40 MLOAD PUSH2 0xDB SWAP2 SWAP1 PUSH2 0xAE1 JUMP JUMPDEST CALLVALUE DUP1 ISZERO PUSH2 0x143 JUMPI PUSH1 0x0 DUP1 REVERT JUMPDEST POP PUSH2 0x157 PUSH2 0x152 CALLDATASIZE PUSH1 0x4 PUSH2 0xA8F JUMP JUMPDEST PUSH2 0x309 JUMP JUMPDEST PUSH1 0x40 MLOAD PUSH2 0xDB SWAP5 SWAP4 SWAP3 SWAP2 SWAP1 PUSH2 0xB31 JUMP JUMPDEST CALLVALUE DUP1 ISZERO PUSH2 0x173 JUMPI PUSH1 0x0 DUP1 REVERT JUMPDEST POP PUSH2 0x187 PUSH2 0x182 CALLDATASIZE PUSH1 0x4 PUSH2 0xA8F JUMP JUMPDEST PUSH2 0x344 JUMP JUMPDEST STOP JUMPDEST CALLVALUE DUP1 ISZERO PUSH2 0x195 JUMPI PUSH1 0x0 DUP1 REVERT JUMPDEST POP PUSH2 0x187 PUSH2 0x1A4 CALLDATASIZE PUSH1 0x4 PUSH2 0xA8F JUMP JUMPDEST PUSH2 0x4F2 JUMP JUMPDEST CALLVALUE DUP1 ISZERO PUSH2 0x1B5 JUMPI PUSH1 0x0 DUP1 REVERT JUMPDEST POP PUSH2 0x12A PUSH2 0x5BC JUMP JUMPDEST CALLVALUE DUP1 ISZERO PUSH2 0x1CA JUMPI PUSH1 0x0 DUP1 REVERT JUMPDEST POP PUSH2 0x1DE PUSH2 0x1D9 CALLDATASIZE PUSH1 0x4 PUSH2 0xAA7 JUMP JUMPDEST PUSH2 0x5E0 JUMP JUMPDEST PUSH1 0x40 MLOAD PUSH2 0xDB SWAP2 SWAP1 PUSH2 0xDBF JUMP JUMPDEST CALLVALUE DUP1 ISZERO PUSH2 0x1F7 JUMPI PUSH1 0x0 DUP1 REVERT JUMPDEST POP PUSH2 0x187 PUSH2 0x206 CALLDATASIZE PUSH1 0x4 PUSH2 0xA8F JUMP JUMPDEST PUSH2 0x60A JUMP JUMPDEST PUSH2 0x187 PUSH2 0x219 CALLDATASIZE PUSH1 0x4 PUSH2 0xAA7 JUMP JUMPDEST PUSH2 0x6C6 JUMP JUMPDEST CALLVALUE DUP1 ISZERO PUSH2 0x22A JUMPI PUSH1 0x0 DUP1 REVERT JUMPDEST POP PUSH2 0x23E PUSH2 0x239 CALLDATASIZE PUSH1 0x4 PUSH2 0xAA7 JUMP JUMPDEST PUSH2 0x856 JUMP JUMPDEST PUSH1 0x40 MLOAD PUSH2 0xDB SWAP3 SWAP2 SWAP1 PUSH2 0xB57 JUMP JUMPDEST CALLVALUE DUP1 ISZERO PUSH2 0x258 JUMPI PUSH1 0x0 DUP1 REVERT JUMPDEST POP PUSH2 0x187 PUSH2 0x267 CALLDATASIZE PUSH1 0x4 PUSH2 0xAA7 JUMP JUMPDEST PUSH2 0x963 JUMP JUMPDEST PUSH1 0x0 SWAP2 DUP3 MSTORE PUSH1 0x20 DUP3 DUP2 MSTORE PUSH1 0x40 DUP1 DUP5 KECCAK256 PUSH1 0x1 PUSH1 0x1 PUSH1 0xA0 SHL SUB SWAP4 DUP5 AND DUP6 MSTORE PUSH1 0x5 ADD SWAP1 SWAP2 MSTORE SWAP1 SWAP2 KECCAK256 DUP1 SLOAD PUSH1 0x1 DUP3 ADD SLOAD PUSH1 0x2 SWAP1 SWAP3 ADD SLOAD SWAP3 AND SWAP3 SWAP1 SWAP2 PUSH1 0xFF AND SWAP1 JUMP JUMPDEST PUSH1 0x0 PUSH1 0x20 DUP2 SWAP1 MSTORE SWAP1 DUP2 MSTORE PUSH1 0x40 SWAP1 KECCAK256 DUP1 SLOAD PUSH1 0x1 DUP3 ADD SLOAD PUSH1 0x2 DUP4 ADD SLOAD PUSH1 0x3 SWAP1 SWAP4 ADD SLOAD SWAP2 SWAP3 PUSH1 0xFF DUP1 DUP4 AND SWAP4 PUSH2 0x100 SWAP1 SWAP4 DIV AND SWAP2 PUSH1 0x1 PUSH1 0x1 PUSH1 0xA0 SHL SUB AND DUP6 JUMP JUMPDEST PUSH32 0x0 DUP2 JUMP JUMPDEST PUSH1 0x0 SWAP1 DUP2 MSTORE PUSH1 0x20 DUP2 SWAP1 MSTORE PUSH1 0x40 SWAP1 KECCAK256 PUSH1 0x1 DUP2 ADD SLOAD PUSH1 0x2 DUP3 ADD SLOAD PUSH1 0x3 SWAP1 SWAP3 ADD SLOAD PUSH1 0xFF DUP1 DUP4 AND SWAP5 PUSH2 0x100 SWAP1 SWAP4 DIV AND SWAP3 SWAP2 PUSH1 0x1 PUSH1 0x1 PUSH1 0xA0 SHL SUB SWAP1 SWAP2 AND SWAP1 JUMP JUMPDEST PUSH1 0x0 DUP2 DUP2 MSTORE PUSH1 0x20 DUP2 SWAP1 MSTORE PUSH1 0x40 SWAP1 KECCAK256 PUSH1 0x1 ADD SLOAD PUSH2 0x100 SWAP1 DIV PUSH1 0xFF AND PUSH2 0x383 JUMPI PUSH1 0x40 MLOAD PUSH3 0x461BCD PUSH1 0xE5 SHL DUP2 MSTORE PUSH1 0x4 ADD PUSH2 0x37A SWAP1 PUSH2 0xCD8 JUMP JUMPDEST PUSH1 0x40 MLOAD DUP1 SWAP2 SUB SWAP1 REVERT JUMPDEST PUSH1 0x0 DUP2 DUP2 MSTORE PUSH1 0x20 DUP2 DUP2 MSTORE PUSH1 0x40 DUP1 DUP4 KECCAK256 CALLER DUP5 MSTORE PUSH1 0x5 ADD SWAP1 SWAP2 MSTORE SWAP1 KECCAK256 PUSH1 0x1 DUP2 ADD SLOAD PUSH2 0x3BE JUMPI PUSH1 0x40 MLOAD PUSH3 0x461BCD PUSH1 0xE5 SHL DUP2 MSTORE PUSH1 0x4 ADD PUSH2 0x37A SWAP1 PUSH2 0xC7A JUMP JUMPDEST PUSH1 0x2 DUP2 ADD SLOAD PUSH1 0xFF AND ISZERO PUSH2 0x3E3 JUMPI PUSH1 0x40 MLOAD PUSH3 0x461BCD PUSH1 0xE5 SHL DUP2 MSTORE PUSH1 0x4 ADD PUSH2 0x37A SWAP1 PUSH2 0xD0F JUMP JUMPDEST PUSH1 0x0 DUP3 DUP2 MSTORE PUSH1 0x20 DUP2 SWAP1 MSTORE PUSH1 0x40 SWAP1 KECCAK256 PUSH1 0x3 ADD SLOAD DUP2 SLOAD PUSH1 0x1 PUSH1 0x1 PUSH1 0xA0 SHL SUB SWAP2 DUP3 AND SWAP2 AND DUP2 EQ ISZERO PUSH2 0x4DD JUMPI PUSH1 0x0 DUP4 DUP2 MSTORE PUSH1 0x20 DUP2 DUP2 MSTORE PUSH1 0x40 DUP1 DUP4 KECCAK256 PUSH1 0x1 PUSH1 0x1 PUSH1 0xA0 SHL SUB DUP6 AND DUP5 MSTORE PUSH1 0x4 DUP2 ADD DUP4 MSTORE SWAP1 DUP4 KECCAK256 SLOAD DUP7 DUP5 MSTORE SWAP2 DUP4 SWAP1 MSTORE PUSH1 0x2 ADD SLOAD PUSH1 0x1 DUP6 ADD SLOAD SWAP2 SWAP3 SWAP1 SWAP2 DUP4 SWAP1 PUSH2 0x451 SWAP1 DUP5 SWAP1 PUSH2 0xE2C JUMP JUMPDEST PUSH2 0x45B SWAP2 SWAP1 PUSH2 0xE0C JUMP JUMPDEST PUSH1 0x2 DUP7 ADD DUP1 SLOAD PUSH1 0xFF NOT AND PUSH1 0x1 OR SWAP1 SSTORE PUSH1 0x40 MLOAD SWAP1 SWAP2 POP CALLER SWAP1 DUP3 ISZERO PUSH2 0x8FC MUL SWAP1 DUP4 SWAP1 PUSH1 0x0 DUP2 DUP2 DUP2 DUP6 DUP9 DUP9 CALL SWAP4 POP POP POP POP ISZERO DUP1 ISZERO PUSH2 0x49A JUMPI RETURNDATASIZE PUSH1 0x0 DUP1 RETURNDATACOPY RETURNDATASIZE PUSH1 0x0 REVERT JUMPDEST POP DUP6 PUSH32 0x5380CF6FE903B40C6D5A9E0DFBCA2F3A423F0A21520B4D5947ED5169BDBA946D CALLER DUP4 PUSH1 0x40 MLOAD PUSH2 0x4CD SWAP3 SWAP2 SWAP1 PUSH2 0xAF5 JUMP JUMPDEST PUSH1 0x40 MLOAD DUP1 SWAP2 SUB SWAP1 LOG2 POP POP POP PUSH2 0x4ED JUMP JUMPDEST PUSH1 0x2 DUP3 ADD DUP1 SLOAD PUSH1 0xFF NOT AND PUSH1 0x1 OR SWAP1 SSTORE JUMPDEST POP POP POP JUMP JUMPDEST CALLER PUSH1 0x1 PUSH1 0x1 PUSH1 0xA0 SHL SUB PUSH32 0x0 AND EQ PUSH2 0x53A JUMPI PUSH1 0x40 MLOAD PUSH3 0x461BCD PUSH1 0xE5 SHL DUP2 MSTORE PUSH1 0x4 ADD PUSH2 0x37A SWAP1 PUSH2 0xD46 JUMP JUMPDEST PUSH1 0x0 DUP2 DUP2 MSTORE PUSH1 0x20 DUP2 SWAP1 MSTORE PUSH1 0x40 SWAP1 KECCAK256 PUSH1 0x1 ADD SLOAD PUSH1 0xFF AND ISZERO PUSH2 0x56C JUMPI PUSH1 0x40 MLOAD PUSH3 0x461BCD PUSH1 0xE5 SHL DUP2 MSTORE PUSH1 0x4 ADD PUSH2 0x37A SWAP1 PUSH2 0xD7D JUMP JUMPDEST PUSH1 0x0 DUP2 DUP2 MSTORE PUSH1 0x20 DUP2 SWAP1 MSTORE PUSH1 0x40 DUP1 DUP3 KECCAK256 DUP4 DUP2 SSTORE PUSH1 0x1 SWAP1 DUP2 ADD DUP1 SLOAD PUSH1 0xFF NOT AND SWAP1 SWAP2 OR PUSH2 0xFF00 NOT AND SWAP1 SSTORE MLOAD DUP3 SWAP2 PUSH32 0x9B4839CD96BEECD8707537F988E2253E5B89E2CBF896BE7557C7D30F6430B71C SWAP2 LOG2 POP JUMP JUMPDEST PUSH32 0x0 DUP2 JUMP JUMPDEST PUSH1 0x0 DUP3 DUP2 MSTORE PUSH1 0x20 DUP2 DUP2 MSTORE PUSH1 0x40 DUP1 DUP4 KECCAK256 PUSH1 0x1 PUSH1 0x1 PUSH1 0xA0 SHL SUB DUP6 AND DUP5 MSTORE PUSH1 0x4 ADD SWAP1 SWAP2 MSTORE SWAP1 KECCAK256 SLOAD SWAP3 SWAP2 POP POP JUMP JUMPDEST CALLER PUSH1 0x1 PUSH1 0x1 PUSH1 0xA0 SHL SUB PUSH32 0x0 AND EQ PUSH2 0x652 JUMPI PUSH1 0x40 MLOAD PUSH3 0x461BCD PUSH1 0xE5 SHL DUP2 MSTORE PUSH1 0x4 ADD PUSH2 0x37A SWAP1 PUSH2 0xD46 JUMP JUMPDEST PUSH1 0x0 DUP2 DUP2 MSTORE PUSH1 0x20 DUP2 SWAP1 MSTORE PUSH1 0x40 SWAP1 KECCAK256 PUSH1 0x1 ADD SLOAD PUSH1 0xFF AND PUSH2 0x683 JUMPI PUSH1 0x40 MLOAD PUSH3 0x461BCD PUSH1 0xE5 SHL DUP2 MSTORE PUSH1 0x4 ADD PUSH2 0x37A SWAP1 PUSH2 0xB67 JUMP JUMPDEST PUSH1 0x0 DUP2 DUP2 MSTORE PUSH1 0x20 DUP2 SWAP1 MSTORE PUSH1 0x40 DUP1 DUP3 KECCAK256 PUSH1 0x1 ADD DUP1 SLOAD PUSH1 0xFF NOT AND SWAP1 SSTORE MLOAD DUP3 SWAP2 PUSH32 0xEB7ECC3AA4DD407C7207677A2CBF861441D5C5E6C0DC70AD9692A980385C20D6 SWAP2 LOG2 POP JUMP JUMPDEST PUSH1 0x0 DUP3 DUP2 MSTORE PUSH1 0x20 DUP2 SWAP1 MSTORE PUSH1 0x40 SWAP1 KECCAK256 PUSH1 0x1 ADD SLOAD PUSH1 0xFF AND PUSH2 0x6F7 JUMPI PUSH1 0x40 MLOAD PUSH3 0x461BCD PUSH1 0xE5 SHL DUP2 MSTORE PUSH1 0x4 ADD PUSH2 0x37A SWAP1 PUSH2 0xC02 JUMP JUMPDEST PUSH1 0x0 CALLVALUE GT PUSH2 0x717 JUMPI PUSH1 0x40 MLOAD PUSH3 0x461BCD PUSH1 0xE5 SHL DUP2 MSTORE PUSH1 0x4 ADD PUSH2 0x37A SWAP1 PUSH2 0xC39 JUMP JUMPDEST PUSH1 0x0 DUP3 DUP2 MSTORE PUSH1 0x20 DUP2 DUP2 MSTORE PUSH1 0x40 DUP1 DUP4 KECCAK256 CALLER DUP5 MSTORE PUSH1 0x5 ADD SWAP1 SWAP2 MSTORE SWAP1 KECCAK256 PUSH1 0x1 ADD SLOAD ISZERO PUSH2 0x752 JUMPI PUSH1 0x40 MLOAD PUSH3 0x461BCD PUSH1 0xE5 SHL DUP2 MSTORE PUSH1 0x4 ADD PUSH2 0x37A SWAP1 PUSH2 0xB91 JUMP JUMPDEST PUSH1 0x40 DUP1 MLOAD PUSH1 0x60 DUP2 ADD DUP3 MSTORE PUSH1 0x1 PUSH1 0x1 PUSH1 0xA0 SHL SUB DUP4 DUP2 AND DUP1 DUP4 MSTORE CALLVALUE PUSH1 0x20 DUP1 DUP6 ADD DUP3 DUP2 MSTORE PUSH1 0x0 DUP7 DUP9 ADD DUP2 DUP2 MSTORE DUP11 DUP3 MSTORE DUP2 DUP5 MSTORE DUP9 DUP3 KECCAK256 CALLER DUP4 MSTORE PUSH1 0x5 DUP2 ADD DUP6 MSTORE DUP10 DUP4 KECCAK256 SWAP9 MLOAD DUP10 SLOAD PUSH1 0x1 PUSH1 0x1 PUSH1 0xA0 SHL SUB NOT AND SWAP9 AND SWAP8 SWAP1 SWAP8 OR DUP9 SSTORE SWAP2 MLOAD PUSH1 0x1 DUP9 ADD SSTORE SWAP1 MLOAD PUSH1 0x2 SWAP1 SWAP7 ADD DUP1 SLOAD PUSH1 0xFF NOT AND SWAP7 ISZERO ISZERO SWAP7 SWAP1 SWAP7 OR SWAP1 SWAP6 SSTORE SWAP2 DUP5 MSTORE PUSH1 0x4 SWAP1 SWAP3 ADD SWAP1 MSTORE SWAP2 DUP2 KECCAK256 DUP1 SLOAD SWAP1 SWAP2 SWAP1 PUSH2 0x7E1 SWAP1 DUP5 SWAP1 PUSH2 0xDF4 JUMP JUMPDEST SWAP1 SWAP2 SSTORE POP POP PUSH1 0x0 DUP3 DUP2 MSTORE PUSH1 0x20 DUP2 SWAP1 MSTORE PUSH1 0x40 DUP2 KECCAK256 PUSH1 0x2 ADD DUP1 SLOAD CALLVALUE SWAP3 SWAP1 PUSH2 0x807 SWAP1 DUP5 SWAP1 PUSH2 0xDF4 JUMP JUMPDEST SWAP3 POP POP DUP2 SWAP1 SSTORE POP DUP1 PUSH1 0x1 PUSH1 0x1 PUSH1 0xA0 SHL SUB AND DUP3 PUSH32 0x4108A54A721949460B35685FB714A531F3002D5F831F59A7C8214F72A054E4D2 CALLER CALLVALUE PUSH1 0x40 MLOAD PUSH2 0x84A SWAP3 SWAP2 SWAP1 PUSH2 0xAF5 JUMP JUMPDEST PUSH1 0x40 MLOAD DUP1 SWAP2 SUB SWAP1 LOG3 POP POP JUMP JUMPDEST PUSH1 0x0 DUP3 DUP2 MSTORE PUSH1 0x20 DUP2 SWAP1 MSTORE PUSH1 0x40 DUP2 KECCAK256 PUSH1 0x1 ADD SLOAD DUP2 SWAP1 PUSH2 0x100 SWAP1 DIV PUSH1 0xFF AND PUSH2 0x881 JUMPI POP PUSH1 0x0 SWAP1 POP DUP1 PUSH2 0x95C JUMP JUMPDEST PUSH1 0x0 DUP5 DUP2 MSTORE PUSH1 0x20 DUP2 DUP2 MSTORE PUSH1 0x40 DUP1 DUP4 KECCAK256 PUSH1 0x1 PUSH1 0x1 PUSH1 0xA0 SHL SUB DUP8 AND DUP5 MSTORE PUSH1 0x5 ADD SWAP1 SWAP2 MSTORE SWAP1 KECCAK256 PUSH1 0x1 DUP2 ADD SLOAD ISZERO DUP1 PUSH2 0x8B9 JUMPI POP PUSH1 0x2 DUP2 ADD SLOAD PUSH1 0xFF AND JUMPDEST ISZERO PUSH2 0x8CB JUMPI PUSH1 0x0 DUP1 SWAP3 POP SWAP3 POP POP PUSH2 0x95C JUMP JUMPDEST PUSH1 0x0 DUP6 DUP2 MSTORE PUSH1 0x20 DUP2 SWAP1 MSTORE PUSH1 0x40 SWAP1 KECCAK256 PUSH1 0x3 ADD SLOAD DUP2 SLOAD PUSH1 0x1 PUSH1 0x1 PUSH1 0xA0 SHL SUB SWAP2 DUP3 AND SWAP2 AND DUP2 EQ PUSH2 0x900 JUMPI PUSH1 0x0 DUP1 SWAP4 POP SWAP4 POP POP POP PUSH2 0x95C JUMP JUMPDEST PUSH1 0x0 DUP7 DUP2 MSTORE PUSH1 0x20 DUP2 DUP2 MSTORE PUSH1 0x40 DUP1 DUP4 KECCAK256 PUSH1 0x1 PUSH1 0x1 PUSH1 0xA0 SHL SUB DUP6 AND DUP5 MSTORE PUSH1 0x4 DUP2 ADD DUP4 MSTORE SWAP1 DUP4 KECCAK256 SLOAD DUP10 DUP5 MSTORE SWAP2 DUP4 SWAP1 MSTORE PUSH1 0x2 ADD SLOAD PUSH1 0x1 DUP6 ADD SLOAD SWAP2 SWAP3 SWAP1 SWAP2 DUP4 SWAP1 PUSH2 0x946 SWAP1 DUP5 SWAP1 PUSH2 0xE2C JUMP JUMPDEST PUSH2 0x950 SWAP2 SWAP1 PUSH2 0xE0C JUMP JUMPDEST PUSH1 0x1 SWAP8 POP SWAP6 POP POP POP POP POP POP JUMPDEST SWAP3 POP SWAP3 SWAP1 POP JUMP JUMPDEST CALLER PUSH1 0x1 PUSH1 0x1 PUSH1 0xA0 SHL SUB PUSH32 0x0 AND EQ PUSH2 0x9AB JUMPI PUSH1 0x40 MLOAD PUSH3 0x461BCD PUSH1 0xE5 SHL DUP2 MSTORE PUSH1 0x4 ADD PUSH2 0x37A SWAP1 PUSH2 0xD46 JUMP JUMPDEST PUSH1 0x0 DUP3 DUP2 MSTORE PUSH1 0x20 DUP2 SWAP1 MSTORE PUSH1 0x40 SWAP1 KECCAK256 PUSH1 0x1 ADD SLOAD PUSH1 0xFF AND ISZERO PUSH2 0x9DD JUMPI PUSH1 0x40 MLOAD PUSH3 0x461BCD PUSH1 0xE5 SHL DUP2 MSTORE PUSH1 0x4 ADD PUSH2 0x37A SWAP1 PUSH2 0xBD2 JUMP JUMPDEST PUSH1 0x0 DUP3 DUP2 MSTORE PUSH1 0x20 DUP2 SWAP1 MSTORE PUSH1 0x40 SWAP1 KECCAK256 PUSH1 0x1 ADD SLOAD PUSH2 0x100 SWAP1 DIV PUSH1 0xFF AND ISZERO PUSH2 0xA14 JUMPI PUSH1 0x40 MLOAD PUSH3 0x461BCD PUSH1 0xE5 SHL DUP2 MSTORE PUSH1 0x4 ADD PUSH2 0x37A SWAP1 PUSH2 0xCA1 JUMP JUMPDEST PUSH1 0x0 DUP3 DUP2 MSTORE PUSH1 0x20 DUP2 SWAP1 MSTORE PUSH1 0x40 SWAP1 DUP2 SWAP1 KECCAK256 PUSH1 0x3 DUP2 ADD DUP1 SLOAD PUSH1 0x1 PUSH1 0x1 PUSH1 0xA0 SHL SUB DUP6 AND PUSH1 0x1 PUSH1 0x1 PUSH1 0xA0 SHL SUB NOT SWAP1 SWAP2 AND OR SWAP1 SSTORE PUSH1 0x1 ADD DUP1 SLOAD PUSH2 0xFF00 NOT AND PUSH2 0x100 OR SWAP1 SSTORE MLOAD DUP3 SWAP1 PUSH32 0x64456C009F9E9F5C0B5843CFA4AE7981C5E2483B76F3A278B5E0EDA4CA601474 SWAP1 PUSH2 0xA83 SWAP1 DUP5 SWAP1 PUSH2 0xAE1 JUMP JUMPDEST PUSH1 0x40 MLOAD DUP1 SWAP2 SUB SWAP1 LOG2 POP POP JUMP JUMPDEST PUSH1 0x0 PUSH1 0x20 DUP3 DUP5 SUB SLT ISZERO PUSH2 0xAA0 JUMPI DUP1 DUP2 REVERT JUMPDEST POP CALLDATALOAD SWAP2 SWAP1 POP JUMP JUMPDEST PUSH1 0x0 DUP1 PUSH1 0x40 DUP4 DUP6 SUB SLT ISZERO PUSH2 0xAB9 JUMPI DUP1 DUP2 REVERT JUMPDEST DUP3 CALLDATALOAD SWAP2 POP PUSH1 0x20 DUP4 ADD CALLDATALOAD PUSH1 0x1 PUSH1 0x1 PUSH1 0xA0 SHL SUB DUP2 AND DUP2 EQ PUSH2 0xAD6 JUMPI DUP2 DUP3 REVERT JUMPDEST DUP1 SWAP2 POP POP SWAP3 POP SWAP3 SWAP1 POP JUMP JUMPDEST PUSH1 0x1 PUSH1 0x1 PUSH1 0xA0 SHL SUB SWAP2 SWAP1 SWAP2 AND DUP2 MSTORE PUSH1 0x20 ADD SWAP1 JUMP JUMPDEST PUSH1 0x1 PUSH1 0x1 PUSH1 0xA0 SHL SUB SWAP3 SWAP1 SWAP3 AND DUP3 MSTORE PUSH1 0x20 DUP3 ADD MSTORE PUSH1 0x40 ADD SWAP1 JUMP JUMPDEST PUSH1 0x1 PUSH1 0x1 PUSH1 0xA0 SHL SUB SWAP4 SWAP1 SWAP4 AND DUP4 MSTORE PUSH1 0x20 DUP4 ADD SWAP2 SWAP1 SWAP2 MSTORE ISZERO ISZERO PUSH1 0x40 DUP3 ADD MSTORE PUSH1 0x60 ADD SWAP1 JUMP JUMPDEST SWAP4 ISZERO ISZERO DUP5 MSTORE SWAP2 ISZERO ISZERO PUSH1 0x20 DUP5 ADD MSTORE PUSH1 0x40 DUP4 ADD MSTORE PUSH1 0x1 PUSH1 0x1 PUSH1 0xA0 SHL SUB AND PUSH1 0x60 DUP3 ADD MSTORE PUSH1 0x80 ADD SWAP1 JUMP JUMPDEST SWAP2 ISZERO ISZERO DUP3 MSTORE PUSH1 0x20 DUP3 ADD MSTORE PUSH1 0x40 ADD SWAP1 JUMP JUMPDEST PUSH1 0x20 DUP1 DUP3 MSTORE PUSH1 0x10 SWAP1 DUP3 ADD MSTORE PUSH16 0x2132BA3A34B733903737BA1037B832B7 PUSH1 0x81 SHL PUSH1 0x40 DUP3 ADD MSTORE PUSH1 0x60 ADD SWAP1 JUMP JUMPDEST PUSH1 0x20 DUP1 DUP3 MSTORE PUSH1 0x21 SWAP1 DUP3 ADD MSTORE PUSH32 0x416C726561647920706C6163656420612062657420696E20746869732067616D PUSH1 0x40 DUP3 ADD MSTORE PUSH1 0x65 PUSH1 0xF8 SHL PUSH1 0x60 DUP3 ADD MSTORE PUSH1 0x80 ADD SWAP1 JUMP JUMPDEST PUSH1 0x20 DUP1 DUP3 MSTORE PUSH1 0x16 SWAP1 DUP3 ADD MSTORE PUSH22 0x10995D1D1A5B99C81B5D5CDD0818994818DB1BDCD959 PUSH1 0x52 SHL PUSH1 0x40 DUP3 ADD MSTORE PUSH1 0x60 ADD SWAP1 JUMP JUMPDEST PUSH1 0x20 DUP1 DUP3 MSTORE PUSH1 0x1E SWAP1 DUP3 ADD MSTORE PUSH32 0x42657474696E67206E6F74206F70656E20666F7220746869732067616D650000 PUSH1 0x40 DUP3 ADD MSTORE PUSH1 0x60 ADD SWAP1 JUMP JUMPDEST PUSH1 0x20 DUP1 DUP3 MSTORE PUSH1 0x21 SWAP1 DUP3 ADD MSTORE PUSH32 0x42657420616D6F756E74206D7573742062652067726561746572207468616E20 PUSH1 0x40 DUP3 ADD MSTORE PUSH1 0x3 PUSH1 0xFC SHL PUSH1 0x60 DUP3 ADD MSTORE PUSH1 0x80 ADD SWAP1 JUMP JUMPDEST PUSH1 0x20 DUP1 DUP3 MSTORE PUSH1 0xD SWAP1 DUP3 ADD MSTORE PUSH13 0x139BC818995D081C1B1858D959 PUSH1 0x9A SHL PUSH1 0x40 DUP3 ADD MSTORE PUSH1 0x60 ADD SWAP1 JUMP JUMPDEST PUSH1 0x20 DUP1 DUP3 MSTORE PUSH1 0x19 SWAP1 DUP3 ADD MSTORE PUSH32 0x526573756C747320616C72656164792070726F63657373656400000000000000 PUSH1 0x40 DUP3 ADD MSTORE PUSH1 0x60 ADD SWAP1 JUMP JUMPDEST PUSH1 0x20 DUP1 DUP3 MSTORE PUSH1 0x19 SWAP1 DUP3 ADD MSTORE PUSH32 0x526573756C7473206E6F742070726F6365737365642079657400000000000000 PUSH1 0x40 DUP3 ADD MSTORE PUSH1 0x60 ADD SWAP1 JUMP JUMPDEST PUSH1 0x20 DUP1 DUP3 MSTORE PUSH1 0x18 SWAP1 DUP3 ADD MSTORE PUSH32 0x57696E6E696E677320616C726561647920636C61696D65640000000000000000 PUSH1 0x40 DUP3 ADD MSTORE PUSH1 0x60 ADD SWAP1 JUMP JUMPDEST PUSH1 0x20 DUP1 DUP3 MSTORE PUSH1 0x1E SWAP1 DUP3 ADD MSTORE PUSH32 0x4F6E6C79204F6E654361726420636F6E74726163742063616E2063616C6C0000 PUSH1 0x40 DUP3 ADD MSTORE PUSH1 0x60 ADD SWAP1 JUMP JUMPDEST PUSH1 0x20 DUP1 DUP3 MSTORE PUSH1 0x22 SWAP1 DUP3 ADD MSTORE PUSH32 0x42657474696E6720616C7265616479206F70656E20666F722074686973206761 PUSH1 0x40 DUP3 ADD MSTORE PUSH2 0x6D65 PUSH1 0xF0 SHL PUSH1 0x60 DUP3 ADD MSTORE PUSH1 0x80 ADD SWAP1 JUMP JUMPDEST SWAP1 DUP2 MSTORE PUSH1 0x20 ADD SWAP1 JUMP JUMPDEST SWAP5 DUP6 MSTORE SWAP3 ISZERO ISZERO PUSH1 0x20 DUP6 ADD MSTORE SWAP1 ISZERO ISZERO PUSH1 0x40 DUP5 ADD MSTORE PUSH1 0x60 DUP4 ADD MSTORE PUSH1 0x1 PUSH1 0x1 PUSH1 0xA0 SHL SUB AND PUSH1 0x80 DUP3 ADD MSTORE PUSH1 0xA0 ADD SWAP1 JUMP JUMPDEST PUSH1 0x0 DUP3 NOT DUP3 GT ISZERO PUSH2 0xE07 JUMPI PUSH2 0xE07 PUSH2 0xE4B JUMP JUMPDEST POP ADD SWAP1 JUMP JUMPDEST PUSH1 0x0 DUP3 PUSH2 0xE27 JUMPI PUSH4 0x4E487B71 PUSH1 0xE0 SHL DUP2 MSTORE PUSH1 0x12 PUSH1 0x4 MSTORE PUSH1 0x24 DUP2 REVERT JUMPDEST POP DIV SWAP1 JUMP JUMPDEST PUSH1 0x0 DUP2 PUSH1 0x0 NOT DIV DUP4 GT DUP3 ISZERO ISZERO AND ISZERO PUSH2 0xE46 JUMPI PUSH2 0xE46 PUSH2 0xE4B JUMP JUMPDEST POP MUL SWAP1 JUMP JUMPDEST PUSH4 0x4E487B71 PUSH1 0xE0 SHL PUSH1 0x0 MSTORE PUSH1 0x11 PUSH1 0x4 MSTORE PUSH1 0x24 PUSH1 0x0 REVERT INVALID LOG2 PUSH5 0x6970667358 0x22 SLT KECCAK256 JUMPDEST DUP7 0xC0 0xBD DUP5 PUSH5 0x792A7D2C8 PUSH20 0xB9C4901C28211AC03DBFC91CBA4C751F66328736 PUSH5 0x736F6C6343 STOP ADDMOD STOP STOP CALLER "},"methodIdentifiers":{"checkWinnings(uint256,address)":"e8fb8cd0","claimWinnings(uint256)":"677bd9ff","closeBetting(uint256)":"b4ad06a1","games(uint256)":"117a5b90","getBetInfo(uint256,address)":"0e6c893a","getGameInfo(uint256)":"47e1d550","getTotalBetOnPlayer(uint256,address)":"b0cad3a5","oneCardContract()":"16a26db5","openBetting(uint256)":"72df88de","owner()":"8da5cb5b","placeBet(uint256,address)":"bc1b6062","processResults(uint256,address)":"f41c6c0a"}}}}}