{
  "_format": "hh-sol-artifact-1",
  "contractName": "OneCard",
  "sourceName": "contracts/vanilla/OneCard.sol",
  "abi": [
    {
      "inputs": [],
      "stateMutability": "nonpayable",
      "type": "constructor"
    },
    {
      "anonymous": false,
      "inputs": [
        {
          "indexed": true,
          "internalType": "uint256",
          "name": "gameId",
          "type": "uint256"
        }
      ],
      "name": "BettingPhaseStarted",
      "type": "event"
    },
    {
      "anonymous": false,
      "inputs": [
        {
          "indexed": true,
          "internalType": "uint256",
          "name": "gameId",
          "type": "uint256"
        },
        {
          "indexed": false,
          "internalType": "enum GameLibrary.GameState",
          "name": "currentState",
          "type": "uint8"
        },
        {
          "indexed": false,
          "internalType": "enum GameLibrary.GameState",
          "name": "nextState",
          "type": "uint8"
        }
      ],
      "name": "BufferPeriodStarted",
      "type": "event"
    },
    {
      "anonymous": false,
      "inputs": [
        {
          "indexed": true,
          "internalType": "address",
          "name": "player",
          "type": "address"
        },
        {
          "indexed": false,
          "internalType": "uint8",
          "name": "value",
          "type": "uint8"
        },
        {
          "indexed": false,
          "internalType": "uint8",
          "name": "suit",
          "type": "uint8"
        }
      ],
      "name": "CardPeeked",
      "type": "event"
    },
    {
      "anonymous": false,
      "inputs": [
        {
          "indexed": true,
          "internalType": "uint256",
          "name": "gameId",
          "type": "uint256"
        },
        {
          "indexed": false,
          "internalType": "address",
          "name": "keeper",
          "type": "address"
        }
      ],
      "name": "GameCreated",
      "type": "event"
    },
    {
      "anonymous": false,
      "inputs": [
        {
          "indexed": true,
          "internalType": "uint256",
          "name": "gameId",
          "type": "uint256"
        },
        {
          "indexed": true,
          "internalType": "address",
          "name": "creator",
          "type": "address"
        }
      ],
      "name": "GameCreatedByPlayer",
      "type": "event"
    },
    {
      "anonymous": false,
      "inputs": [
        {
          "indexed": true,
          "internalType": "uint256",
          "name": "gameId",
          "type": "uint256"
        },
        {
          "indexed": false,
          "internalType": "address",
          "name": "winner",
          "type": "address"
        },
        {
          "indexed": false,
          "internalType": "uint256",
          "name": "potAmount",
          "type": "uint256"
        }
      ],
      "name": "GameEnded",
      "type": "event"
    },
    {
      "anonymous": false,
      "inputs": [
        {
          "indexed": true,
          "internalType": "uint256",
          "name": "gameId",
          "type": "uint256"
        }
      ],
      "name": "PeekPhaseStarted",
      "type": "event"
    },
    {
      "anonymous": false,
      "inputs": [
        {
          "indexed": true,
          "internalType": "uint256",
          "name": "gameId",
          "type": "uint256"
        },
        {
          "indexed": true,
          "internalType": "address",
          "name": "player",
          "type": "address"
        },
        {
          "indexed": false,
          "internalType": "string",
          "name": "action",
          "type": "string"
        },
        {
          "indexed": false,
          "internalType": "uint256",
          "name": "amount",
          "type": "uint256"
        }
      ],
      "name": "PlayerAction",
      "type": "event"
    },
    {
      "anonymous": false,
      "inputs": [
        {
          "indexed": true,
          "internalType": "uint256",
          "name": "gameId",
          "type": "uint256"
        },
        {
          "indexed": false,
          "internalType": "address",
          "name": "player",
          "type": "address"
        }
      ],
      "name": "PlayerJoined",
      "type": "event"
    },
    {
      "anonymous": false,
      "inputs": [
        {
          "indexed": true,
          "internalType": "uint256",
          "name": "gameId",
          "type": "uint256"
        }
      ],
      "name": "ShowdownStarted",
      "type": "event"
    },
    {
      "inputs": [],
      "name": "BETTING_PHASE_DURATION",
      "outputs": [
        {
          "internalType": "uint256",
          "name": "",
          "type": "uint256"
        }
      ],
      "stateMutability": "view",
      "type": "function"
    },
    {
      "inputs": [],
      "name": "INITIAL_CHIPS",
      "outputs": [
        {
          "internalType": "uint256",
          "name": "",
          "type": "uint256"
        }
      ],
      "stateMutability": "view",
      "type": "function"
    },
    {
      "inputs": [],
      "name": "MAX_PLAYERS",
      "outputs": [
        {
          "internalType": "uint8",
          "name": "",
          "type": "uint8"
        }
      ],
      "stateMutability": "view",
      "type": "function"
    },
    {
      "inputs": [],
      "name": "MINIMUM_BET",
      "outputs": [
        {
          "internalType": "uint256",
          "name": "",
          "type": "uint256"
        }
      ],
      "stateMutability": "view",
      "type": "function"
    },
    {
      "inputs": [],
      "name": "PEEK_FEE",
      "outputs": [
        {
          "internalType": "uint256",
          "name": "",
          "type": "uint256"
        }
      ],
      "stateMutability": "view",
      "type": "function"
    },
    {
      "inputs": [],
      "name": "PEEK_PHASE_DURATION",
      "outputs": [
        {
          "internalType": "uint256",
          "name": "",
          "type": "uint256"
        }
      ],
      "stateMutability": "view",
      "type": "function"
    },
    {
      "inputs": [],
      "name": "PHASE_TRANSITION_BUFFER",
      "outputs": [
        {
          "internalType": "uint256",
          "name": "",
          "type": "uint256"
        }
      ],
      "stateMutability": "view",
      "type": "function"
    },
    {
      "inputs": [],
      "name": "STANDARD_DECK_SIZE",
      "outputs": [
        {
          "internalType": "uint8",
          "name": "",
          "type": "uint8"
        }
      ],
      "stateMutability": "view",
      "type": "function"
    },
    {
      "inputs": [],
      "name": "SWAP_FEE",
      "outputs": [
        {
          "internalType": "uint256",
          "name": "",
          "type": "uint256"
        }
      ],
      "stateMutability": "view",
      "type": "function"
    },
    {
      "inputs": [
        {
          "internalType": "address",
          "name": "keeper",
          "type": "address"
        }
      ],
      "name": "addKeeper",
      "outputs": [],
      "stateMutability": "nonpayable",
      "type": "function"
    },
    {
      "inputs": [
        {
          "internalType": "uint256",
          "name": "gameId",
          "type": "uint256"
        }
      ],
      "name": "checkAllPlayersMatched",
      "outputs": [
        {
          "internalType": "bool",
          "name": "",
          "type": "bool"
        }
      ],
      "stateMutability": "view",
      "type": "function"
    },
    {
      "inputs": [
        {
          "internalType": "uint256",
          "name": "gameId",
          "type": "uint256"
        }
      ],
      "name": "cleanup",
      "outputs": [],
      "stateMutability": "nonpayable",
      "type": "function"
    },
    {
      "inputs": [],
      "name": "createGame",
      "outputs": [
        {
          "internalType": "uint256",
          "name": "",
          "type": "uint256"
        }
      ],
      "stateMutability": "nonpayable",
      "type": "function"
    },
    {
      "inputs": [],
      "name": "currentGameId",
      "outputs": [
        {
          "internalType": "uint256",
          "name": "",
          "type": "uint256"
        }
      ],
      "stateMutability": "view",
      "type": "function"
    },
    {
      "inputs": [
        {
          "internalType": "uint256",
          "name": "gameId",
          "type": "uint256"
        }
      ],
      "name": "endBettingPhase",
      "outputs": [],
      "stateMutability": "nonpayable",
      "type": "function"
    },
    {
      "inputs": [
        {
          "internalType": "uint256",
          "name": "gameId",
          "type": "uint256"
        }
      ],
      "name": "endPeekPhase",
      "outputs": [],
      "stateMutability": "nonpayable",
      "type": "function"
    },
    {
      "inputs": [
        {
          "internalType": "uint256",
          "name": "gameId",
          "type": "uint256"
        }
      ],
      "name": "fold",
      "outputs": [],
      "stateMutability": "nonpayable",
      "type": "function"
    },
    {
      "inputs": [
        {
          "internalType": "uint256",
          "name": "gameId",
          "type": "uint256"
        }
      ],
      "name": "getActivePlayerCount",
      "outputs": [
        {
          "internalType": "uint256",
          "name": "",
          "type": "uint256"
        }
      ],
      "stateMutability": "view",
      "type": "function"
    },
    {
      "inputs": [
        {
          "internalType": "uint256",
          "name": "gameId",
          "type": "uint256"
        }
      ],
      "name": "getActivePlayers",
      "outputs": [
        {
          "internalType": "address[]",
          "name": "activePlayers",
          "type": "address[]"
        }
      ],
      "stateMutability": "view",
      "type": "function"
    },
    {
      "inputs": [
        {
          "internalType": "uint256",
          "name": "gameId",
          "type": "uint256"
        }
      ],
      "name": "getGameInfo",
      "outputs": [
        {
          "internalType": "enum GameLibrary.GameState",
          "name": "state",
          "type": "uint8"
        },
        {
          "internalType": "uint256",
          "name": "potAmount",
          "type": "uint256"
        },
        {
          "internalType": "uint256",
          "name": "currentBet",
          "type": "uint256"
        },
        {
          "internalType": "uint256",
          "name": "phaseEndTime",
          "type": "uint256"
        },
        {
          "internalType": "uint256",
          "name": "bufferEndTime",
          "type": "uint256"
        },
        {
          "internalType": "uint256",
          "name": "remainingTime",
          "type": "uint256"
        },
        {
          "internalType": "uint256",
          "name": "playerCount",
          "type": "uint256"
        },
        {
          "internalType": "uint256",
          "name": "activeCount",
          "type": "uint256"
        },
        {
          "internalType": "address",
          "name": "creator",
          "type": "address"
        }
      ],
      "stateMutability": "view",
      "type": "function"
    },
    {
      "inputs": [
        {
          "internalType": "uint256",
          "name": "gameId",
          "type": "uint256"
        },
        {
          "internalType": "address",
          "name": "player",
          "type": "address"
        }
      ],
      "name": "getPlayerInfo",
      "outputs": [
        {
          "internalType": "bool",
          "name": "isActive",
          "type": "bool"
        },
        {
          "internalType": "bool",
          "name": "hasPeeked",
          "type": "bool"
        },
        {
          "internalType": "bool",
          "name": "hasSwappedCard",
          "type": "bool"
        },
        {
          "internalType": "bool",
          "name": "hasFolded",
          "type": "bool"
        },
        {
          "internalType": "uint256",
          "name": "chipBalance",
          "type": "uint256"
        },
        {
          "internalType": "uint256",
          "name": "currentBet",
          "type": "uint256"
        }
      ],
      "stateMutability": "view",
      "type": "function"
    },
    {
      "inputs": [
        {
          "internalType": "uint256",
          "name": "gameId",
          "type": "uint256"
        }
      ],
      "name": "getPlayers",
      "outputs": [
        {
          "internalType": "address[]",
          "name": "players",
          "type": "address[]"
        }
      ],
      "stateMutability": "view",
      "type": "function"
    },
    {
      "inputs": [
        {
          "internalType": "address",
          "name": "keeper",
          "type": "address"
        }
      ],
      "name": "isKeeper",
      "outputs": [
        {
          "internalType": "bool",
          "name": "",
          "type": "bool"
        }
      ],
      "stateMutability": "view",
      "type": "function"
    },
    {
      "inputs": [
        {
          "internalType": "uint256",
          "name": "gameId",
          "type": "uint256"
        }
      ],
      "name": "joinGame",
      "outputs": [],
      "stateMutability": "nonpayable",
      "type": "function"
    },
    {
      "inputs": [
        {
          "internalType": "uint256",
          "name": "gameId",
          "type": "uint256"
        }
      ],
      "name": "leaveGame",
      "outputs": [],
      "stateMutability": "nonpayable",
      "type": "function"
    },
    {
      "inputs": [],
      "name": "owner",
      "outputs": [
        {
          "internalType": "address",
          "name": "",
          "type": "address"
        }
      ],
      "stateMutability": "view",
      "type": "function"
    },
    {
      "inputs": [
        {
          "internalType": "uint256",
          "name": "gameId",
          "type": "uint256"
        }
      ],
      "name": "peekAtCard",
      "outputs": [],
      "stateMutability": "nonpayable",
      "type": "function"
    },
    {
      "inputs": [
        {
          "internalType": "uint256",
          "name": "gameId",
          "type": "uint256"
        },
        {
          "internalType": "uint256",
          "name": "betAmount",
          "type": "uint256"
        }
      ],
      "name": "placeBet",
      "outputs": [],
      "stateMutability": "nonpayable",
      "type": "function"
    },
    {
      "inputs": [
        {
          "internalType": "address",
          "name": "",
          "type": "address"
        }
      ],
      "name": "playerCurrentGame",
      "outputs": [
        {
          "internalType": "uint256",
          "name": "",
          "type": "uint256"
        }
      ],
      "stateMutability": "view",
      "type": "function"
    },
    {
      "inputs": [
        {
          "internalType": "address",
          "name": "keeper",
          "type": "address"
        }
      ],
      "name": "removeKeeper",
      "outputs": [],
      "stateMutability": "nonpayable",
      "type": "function"
    },
    {
      "inputs": [
        {
          "internalType": "uint256",
          "name": "gameId",
          "type": "uint256"
        }
      ],
      "name": "startGame",
      "outputs": [],
      "stateMutability": "nonpayable",
      "type": "function"
    },
    {
      "inputs": [
        {
          "internalType": "uint256",
          "name": "gameId",
          "type": "uint256"
        }
      ],
      "name": "startPeekPhase",
      "outputs": [],
      "stateMutability": "nonpayable",
      "type": "function"
    },
    {
      "inputs": [
        {
          "internalType": "uint256",
          "name": "gameId",
          "type": "uint256"
        }
      ],
      "name": "swapCard",
      "outputs": [],
      "stateMutability": "nonpayable",
      "type": "function"
    }
  ],
  "bytecode": "0x60a060405234801561001057600080fd5b5033606081901b6080526000818152600360205260408120805460ff19166001179055613823906100609039600081816107890152818161166501528181611b750152611c4801526138236000f3fe608060405234801561001057600080fd5b50600436106101fa5760003560e01c80634afe62b51161011a578063935aae40116100ad578063bff7a00b1161007c578063bff7a00b14610418578063c493153a1461042b578063e5ed1d5914610433578063efaa55a014610446578063fc2217c414610459576101fa565b8063935aae40146103e25780639c861bc5146103ea578063a410274c146103f2578063ba3a952014610405576101fa565b80637255d729116100e95780637255d729146103b5578063768aebde146103bd57806383c309b8146103c55780638da5cb5b146103cd576101fa565b80634afe62b514610372578063536a3ddc146103855780635d27e0721461038d5780636ba42aaa14610395576101fa565b8063342ed956116101925780634032b72b116101615780634032b72b1461030f5780634411b3eb14610322578063460e20491461033757806347e1d5501461034a576101fa565b8063342ed956146102a45780633a5ff200146102c45780633ccd10e9146102d75780633feef58a146102fc576101fa565b80631f452a08116101ce5780631f452a0814610258578063265026481461026b57806330be62b21461027e578063318ff5d114610291576101fa565b8062028e6e146101ff578063097347641461021d5780630aa400181461023257806314ae9f2e14610245575b600080fd5b610207610461565b60405161021491906136a6565b60405180910390f35b61023061022b366004612e2b565b610466565b005b610230610240366004612e2b565b61061b565b610230610253366004612e11565b61077e565b610230610266366004612e2b565b6107e7565b610230610279366004612e2b565b6109a3565b61023061028c366004612e2b565b610d0e565b61023061029f366004612e2b565b610e27565b6102b76102b2366004612e2b565b6110d5565b6040516102149190612eec565b6102076102d2366004612e11565b61125a565b6102ea6102e5366004612e43565b61126c565b60405161021496959493929190612f44565b61023061030a366004612e2b565b61136b565b61023061031d366004612e11565b61165a565b61032a6116c6565b60405161021491906136af565b6102b7610345366004612e2b565b6116cb565b61035d610358366004612e2b565b61176b565b60405161021499989796959493929190612f8b565b610230610380366004612e6e565b61184d565b610207611ae6565b6102076116c6565b6103a86103a3366004612e11565b611aec565b6040516102149190612f39565b610207611b0e565b610207611c3c565b610207611c41565b6103d5611c46565b6040516102149190612ebf565b610207611c6a565b61032a611c6f565b610207610400366004612e2b565b611c74565b6103a8610413366004612e2b565b611cba565b610230610426366004612e2b565b611df0565b610207612081565b610230610441366004612e2b565b612087565b610230610454366004612e2b565b61212b565b6102076122e2565b607881565b3360009081526003602052604090205460ff1661049e5760405162461bcd60e51b815260040161049590613107565b60405180910390fd5b600081815260016020526040902054819081146104cd5760405162461bcd60e51b815260040161049590613341565b6000828152600160205260409020600d0154829060ff16156105015760405162461bcd60e51b815260040161049590613556565b600083815260016020819052604090912090600182015460ff16600481111561053a57634e487b7160e01b600052602160045260246000fd5b146105575760405162461bcd60e51b815260040161049590613319565b80600b015442101561057b5760405162461bcd60e51b81526004016104959061366f565b610586601e426136d1565b600c820181905561059a9061012c906136d1565b600b8201556001808201805460ff1916600290811790915560405186927ff732482ea8c744f957ef9b24c1e98e8add28a3e5dc3deedc3e8419f527c19b98926105e292612f70565b60405180910390a260405184907f359ad7e63db5f06f70341a18e68dba0ef153ef9adbff2af9293fc13daf6fc09590600090a250505050565b3360009081526003602052604090205460ff1661064a5760405162461bcd60e51b815260040161049590613107565b600081815260016020526040902054819081146106795760405162461bcd60e51b815260040161049590613341565b6000828152600160205260409020600d0154829060ff16156106ad5760405162461bcd60e51b815260040161049590613556565b60008381526001602052604090206004600182015460ff1660048111156106e457634e487b7160e01b600052602160045260246000fd5b146107015760405162461bcd60e51b81526004016104959061361a565b60005b600282015481101561076a57600082600201828154811061073557634e487b7160e01b600052603260045260246000fd5b60009182526020808320909101546001600160a01b0316825260029052604081205550806107628161375c565b915050610704565b50600d01805460ff19166001179055505050565b336001600160a01b037f000000000000000000000000000000000000000000000000000000000000000016146107c65760405162461bcd60e51b81526004016104959061342c565b6001600160a01b03166000908152600360205260409020805460ff19169055565b3360009081526003602052604090205460ff166108165760405162461bcd60e51b815260040161049590613107565b600081815260016020526040902054819081146108455760405162461bcd60e51b815260040161049590613341565b6000828152600160205260409020600d0154829060ff16156108795760405162461bcd60e51b815260040161049590613556565b6000838152600160205260408120905b600182015460ff1660048111156108b057634e487b7160e01b600052602160045260246000fd5b146108cd5760405162461bcd60e51b81526004016104959061325f565b60028181015410156108f15760405162461bcd60e51b8152600401610495906131d4565b6108fc601e426136d1565b600c820181905561090f906078906136d1565b600b8201556001808201805460ff1916909117905561092d846122e7565b61093684612477565b837ff732482ea8c744f957ef9b24c1e98e8add28a3e5dc3deedc3e8419f527c19b986000600160405161096a929190612f70565b60405180910390a260405184907f1a2ba96bf245728c460e13d78a1591bcb45e67de1240b6654190f8c0bbdd070090600090a250505050565b600081815260016020526040902054819081146109d25760405162461bcd60e51b815260040161049590613341565b6000828152600160209081526040808320338452600401909152902054829060ff16610a105760405162461bcd60e51b8152600401610495906130b0565b6000838152600160205260409020600c01548390421015610a435760405162461bcd60e51b815260040161049590613402565b6000848152600160205260409020600d0154849060ff1615610a775760405162461bcd60e51b815260040161049590613556565b60008581526001602081815260408084203385526004810190925290922090600183015460ff166004811115610abd57634e487b7160e01b600052602160045260246000fd5b14610ada5760405162461bcd60e51b815260040161049590613319565b81600b01544210610afd5760405162461bcd60e51b815260040161049590613018565b8054610100900460ff16610b235760405162461bcd60e51b8152600401610495906132bc565b805462010000900460ff1615610b4b5760405162461bcd60e51b815260040161049590612fe1565b600781600101541015610b705760405162461bcd60e51b8152600401610495906130db565b60018082018054600619019055815462ff000019166201000017808355426003840155600483018054909201909155640100000000900460ff16610bb48882612528565b6000610bbf8961255d565b905060008160ff16118015610bd75750603460ff8216105b610bf35760405162461bcd60e51b8152600401610495906134ad565b610bfd89826126a4565b15610c1a5760405162461bcd60e51b8152600401610495906135b5565b610c2489826126c7565b825464ff00000000191664010000000060ff8316908102919091178455600585018054600092908110610c6757634e487b7160e01b600052603260045260246000fd5b6000918252602091829020604080518082018252929091015460ff80821680855261010090920416938301849052905191935033927fbdf2f0687b7c6f0b8dde29a86969ba9a1e60ce7d560dc87e0bc637aead3a8c1c92610cc99291906136bd565b60405180910390a2336001600160a01b03168a6000805160206137ce8339815191526007604051610cfa91906132f3565b60405180910390a350505050505050505050565b3360009081526003602052604090205460ff16610d3d5760405162461bcd60e51b815260040161049590613107565b60008181526001602052604090205481908114610d6c5760405162461bcd60e51b815260040161049590613341565b6000828152600160205260409020600d0154829060ff1615610da05760405162461bcd60e51b815260040161049590613556565b60008381526001602052604090206002600182015460ff166004811115610dd757634e487b7160e01b600052602160045260246000fd5b14610df45760405162461bcd60e51b8152600401610495906131fd565b80600b0154421015610e185760405162461bcd60e51b815260040161049590613476565b610e21846126e3565b50505050565b60008181526001602052604090205481908114610e565760405162461bcd60e51b815260040161049590613341565b6000828152600160209081526040808320338452600401909152902054829060ff16610e945760405162461bcd60e51b8152600401610495906130b0565b6000838152600160205260409020600c01548390421015610ec75760405162461bcd60e51b815260040161049590613402565b6000848152600160205260409020600d0154849060ff1615610efb5760405162461bcd60e51b815260040161049590613556565b60008581526001602081815260408084203385526004810190925290922090600183015460ff166004811115610f4157634e487b7160e01b600052602160045260246000fd5b14610f5e5760405162461bcd60e51b815260040161049590613319565b81600b01544210610f815760405162461bcd60e51b815260040161049590613018565b8054610100900460ff1615610fa85760405162461bcd60e51b81526004016104959061358d565b600581600101541015610fcd5760405162461bcd60e51b8152600401610495906130db565b60018082018054600419019055815461ff0019166101001780835542600384015560048301805490920190915560058301805464010000000090920460ff1691600091908390811061102f57634e487b7160e01b600052603260045260246000fd5b6000918252602091829020604080518082018252929091015460ff80821680855261010090920416938301849052905191935033927fbdf2f0687b7c6f0b8dde29a86969ba9a1e60ce7d560dc87e0bc637aead3a8c1c926110919291906136bd565b60405180910390a2336001600160a01b0316896000805160206137ce83398151915260056040516110c291906134dd565b60405180910390a3505050505050505050565b600081815260016020526040902054606090829081146111075760405162461bcd60e51b815260040161049590613341565b6000838152600160205260409020600381015467ffffffffffffffff81111561114057634e487b7160e01b600052604160045260246000fd5b604051908082528060200260200182016040528015611169578160200160208202803683370190505b50925080600301546000141561117f5750611254565b6000805b60028301548110156112505760008360020182815481106111b457634e487b7160e01b600052603260045260246000fd5b60009182526020808320909101546001600160a01b03168083526004870190915260409091205490915060ff63010000009091041661123d578086848151811061120e57634e487b7160e01b600052603260045260246000fd5b6001600160a01b03909216602092830291909101909101526003840154600190930192831061123d5750611250565b50806112488161375c565b915050611183565b5050505b50919050565b60026020526000908152604090205481565b60008281526001602052604081205481908190819081908190889081146112a55760405162461bcd60e51b815260040161049590613341565b60008981526001602090815260408083206001600160a01b038c168085526004820190935292209033148015906112ec57503360009081526003602052604090205460ff16155b15611325578054600182015460029092015460ff8083169b5060009a508a99506301000000909204909116965090945092506113609050565b8054600182015460029092015460ff8083169b50610100830481169a5062010000830481169950630100000090920490911696509094509250505b509295509295509295565b6000818152600160205260409020548190811461139a5760405162461bcd60e51b815260040161049590613341565b6000828152600160205260409020600d0154829060ff16156113ce5760405162461bcd60e51b815260040161049590613556565b6000838152600160209081526040808320338452600481019092529091205460ff1661140c5760405162461bcd60e51b815260040161049590613369565b6000600182015460ff16600481111561143557634e487b7160e01b600052602160045260246000fd5b146114525760405162461bcd60e51b8152600401610495906135ec565b600a8101546001600160a01b031633141580611472575060028101546001145b61148e5760405162461bcd60e51b81526004016104959061312b565b60005b60028201548110156115d957336001600160a01b03168260020182815481106114ca57634e487b7160e01b600052603260045260246000fd5b6000918252602090912001546001600160a01b031614156115c7576002820180546114f7906001906136e9565b8154811061151557634e487b7160e01b600052603260045260246000fd5b6000918252602090912001546002830180546001600160a01b03909216918390811061155157634e487b7160e01b600052603260045260246000fd5b9060005260206000200160006101000a8154816001600160a01b0302191690836001600160a01b03160217905550816002018054806115a057634e487b7160e01b600052603160045260246000fd5b600082815260209020810160001990810180546001600160a01b03191690550190556115d9565b806115d18161375c565b915050611491565b5060038082018054600019019055336000818152600480850160209081526040808420805464ffffffffff19168155600181018590556002808201869055968101859055909201839055939093528281208190559151909186916000805160206137ce8339815191529161164c916133db565b60405180910390a350505050565b336001600160a01b037f000000000000000000000000000000000000000000000000000000000000000016146116a25760405162461bcd60e51b81526004016104959061342c565b6001600160a01b03166000908152600360205260409020805460ff19166001179055565b600581565b600081815260016020526040902054606090829081146116fd5760405162461bcd60e51b815260040161049590613341565b6000838152600160209081526040918290206002018054835181840281018401909452808452909183018282801561175e57602002820191906000526020600020905b81546001600160a01b03168152600190910190602001808311611740575b5050505050915050919050565b600080600080600080600080600089806001600083815260200190815260200160002060000154146117af5760405162461bcd60e51b815260040161049590613341565b60008b8152600160205260408120600b8101549091904210156117df574282600b01546117dc91906136e9565b90505b8160010160009054906101000a900460ff168260070154836008015484600b015485600c0154858760020180549050886003015489600a0160009054906101000a90046001600160a01b03169b509b509b509b509b509b509b509b509b505050509193959799909294969850565b6000828152600160205260409020548290811461187c5760405162461bcd60e51b815260040161049590613341565b6000838152600160209081526040808320338452600401909152902054839060ff166118ba5760405162461bcd60e51b8152600401610495906130b0565b6000848152600160205260409020600c015484904210156118ed5760405162461bcd60e51b815260040161049590613402565b6000858152600160205260409020600d0154859060ff16156119215760405162461bcd60e51b815260040161049590613556565b6000868152600160209081526040808320338452600481019092529091206002600183015460ff16600481111561196857634e487b7160e01b600052602160045260246000fd5b146119855760405162461bcd60e51b8152600401610495906131fd565b81600b015442106119a85760405162461bcd60e51b815260040161049590613642565b80546301000000900460ff16156119d15760405162461bcd60e51b815260040161049590613503565b60018710156119f25760405162461bcd60e51b81526004016104959061344f565b600281015415611a145760405162461bcd60e51b815260040161049590613176565b600882015415611a42578160080154871015611a425760405162461bcd60e51b8152600401610495906131a4565b8681600101541015611a665760405162461bcd60e51b8152600401610495906130db565b60048101805460019081019091558101805488900390556002810187815560078301805489019055426003830155600883015490541115611aac57600281015460088301555b336001600160a01b0316886000805160206137ce83398151915289604051611ad49190613393565b60405180910390a35050505050505050565b60005481565b6001600160a01b03811660009081526003602052604090205460ff165b919050565b3360009081526002602052604081205415611b3b5760405162461bcd60e51b81526004016104959061352b565b60008054600190810180835580835260208290526040808420828155928301805460ff199081169091556009840180546001600160a01b037f00000000000000000000000000000000000000000000000000000000000000009081166001600160a01b031992831617909255600a86018054909116331790556003850195909555600d84018054909116905551909283917fc3e0f84839dc888c892a013d10c8f9d6dc05a21a879d0ce468ca558013e9121c91611bf791612ebf565b60405180910390a2604051339083907fe8044ce09bea382658274510d434f24de1c52b3065ea1f196bf4253ec036d15090600090a3611c368233612738565b50905090565b600781565b601e81565b7f000000000000000000000000000000000000000000000000000000000000000090565b600181565b603481565b60008181526001602052604081205482908114611ca35760405162461bcd60e51b815260040161049590613341565b505060009081526001602052604090206003015490565b60008181526001602052604081205482908114611ce95760405162461bcd60e51b815260040161049590613341565b60008381526001602052604090206002600182015460ff166004811115611d2057634e487b7160e01b600052602160045260246000fd5b14611d2f576000925050611254565b60005b6002820154811015611de5576000826002018281548110611d6357634e487b7160e01b600052603260045260246000fd5b60009182526020808320909101546001600160a01b03168083526004860190915260409091205490915060ff63010000009091041615611da35750611dd3565b6001600160a01b0381166000908152600484016020526040902060020154611dd15760009450505050611254565b505b80611ddd8161375c565b915050611d32565b506001949350505050565b60008181526001602052604090205481908114611e1f5760405162461bcd60e51b815260040161049590613341565b6000828152600160209081526040808320338452600401909152902054829060ff16611e5d5760405162461bcd60e51b8152600401610495906130b0565b6000838152600160205260409020600c01548390421015611e905760405162461bcd60e51b815260040161049590613402565b6000848152600160205260409020600d0154849060ff1615611ec45760405162461bcd60e51b815260040161049590613556565b6000858152600160209081526040808320338452600481019092529091206002600183015460ff166004811115611f0b57634e487b7160e01b600052602160045260246000fd5b14611f285760405162461bcd60e51b8152600401610495906131fd565b81600b01544210611f4b5760405162461bcd60e51b815260040161049590613642565b80546301000000900460ff1615611f745760405162461bcd60e51b815260040161049590613503565b6004810180546001019055805463ff000000191663010000001781554260038083019190915582018054600019019055604051339088906000805160206137ce83398151915290611fc790600090613296565b60405180910390a3816003015460011415612078576000611fe788612822565b6007840180546001600160a01b03831660009081526004808801602052604091829020600190810180549094019093559254918701805460ff191690931790925590519192509089907ff1898de79c348962fab7695532341027e5bceb0ea2a8785790fa7d7efeeee1299061205f9085908590612ed3565b60405180910390a2505060006007830181905560088301555b50505050505050565b61012c81565b600081815260016020526040902054819081146120b65760405162461bcd60e51b815260040161049590613341565b6000828152600160205260409020600d0154829060ff16156120ea5760405162461bcd60e51b815260040161049590613556565b6000838152600160205260409020600a8101546001600160a01b031633146121245760405162461bcd60e51b815260040161049590613079565b6000610889565b6000818152600160205260409020548190811461215a5760405162461bcd60e51b815260040161049590613341565b6000828152600160205260409020600d0154829060ff161561218e5760405162461bcd60e51b815260040161049590613556565b600083815260016020526040812090600182015460ff1660048111156121c457634e487b7160e01b600052602160045260246000fd5b146121e15760405162461bcd60e51b81526004016104959061325f565b60028101546005116122055760405162461bcd60e51b8152600401610495906133b8565b33600090815260026020526040902054156122325760405162461bcd60e51b81526004016104959061352b565b60028082018054600181810183556000928352602080842090920180546001600160a01b03191633908117909155808452600480870184526040808620805460ff191685178155601981860155426003808301919091559281018790559690945293839020899055928501805490910190555186917f87969bc7faf902221a147b95ceba76e011c5efb0339a0a8ee7a2bb82d9cfbbd6916122d39190612ebf565b60405180910390a25050505050565b601981565b600081815260016020526040812090612304906005830190612da4565b6040805160348082526106a08201909252600091816020015b612325612dc5565b81526020019060019003908161231d5790505090506000805b60048160ff1610156123d55760025b600e8160ff16116123c25760405180604001604052808260ff1681526020018360ff16815250848460ff168151811061239657634e487b7160e01b600052603260045260246000fd5b602002602001018190525082806123ac90613777565b93505080806123ba90613777565b91505061234d565b50806123cd81613777565b91505061233e565b5060006123e1836128d2565b905060005b603481101561246f578460050182828151811061241357634e487b7160e01b600052603260045260246000fd5b6020908102919091018101518254600181018455600093845292829020815193018054919092015160ff9081166101000261ff00199190941660ff199092169190911716919091179055806124678161375c565b9150506123e6565b505050505050565b600081815260016020526040902061248e826129fc565b60005b60028201548110156125235760008260020182815481106124c257634e487b7160e01b600052603260045260246000fd5b6000918252602080832091909101546001600160a01b0316808352600486019091526040909120805464ff00000000191664010000000060ff86160217905590508161250e85826126c7565b5050808061251b9061375c565b915050612491565b505050565b6000828152600160205260409020600601546125449082612a19565b6000928352600160205260409092206006019190915550565b6000818152600160209081526040808320815160348082526106a0820190935290928492908201610680803683370190505090506000805b600584015460ff82161015612609576125ae86826126a4565b6125f75780838361ffff16815181106125d757634e487b7160e01b600052603260045260246000fd5b60ff90921660209283029190910190910152816125f38161373a565b9250505b8061260181613777565b915050612595565b5060008161ffff161161262e5760405162461bcd60e51b815260040161049590613228565b60008161ffff164442604051602001612648929190612eb1565b6040516020818303038152906040528051906020012060001c61266b9190613797565b9050828161ffff168151811061269157634e487b7160e01b600052603260045260246000fd5b6020026020010151945050505050919050565b6000828152600160205260408120600601546126c09083612a27565b9392505050565b6000828152600160205260409020600601546125449082612a36565b6000818152600160208190526040808320918201805460ff1916600317905551909183917fcfeaa304021cfd684ad30c51a76ffd4139eb4b36c6e97d94cce4df46b71ee9779190a261273482612a43565b5050565b60008281526001602090815260408083206001600160a01b0385168452600290925290912054156127695750612734565b60028181018054600180820183556000928352602080842090920180546001600160a01b0319166001600160a01b0388169081179091558352600480860183526040808520805460ff19168417815560198185015542600380830191909155928101869055959093529282902087905591840180549092019091555184907f87969bc7faf902221a147b95ceba76e011c5efb0339a0a8ee7a2bb82d9cfbbd690612814908690612ebf565b60405180910390a250505050565b6000818152600160205260408120815b60028201548110156128b957600082600201828154811061286357634e487b7160e01b600052603260045260246000fd5b60009182526020808320909101546001600160a01b03168083526004860190915260409091205490915060ff6301000000909104166128a6579250611b09915050565b50806128b18161375c565b915050612832565b5060405162461bcd60e51b815260040161049590613042565b60604460006128e360016034613700565b60ff1690505b80156129f45760006128fc8260016136d1565b838360405160200161290f929190612eb1565b6040516020818303038152906040528051906020012060001c6129329190613797565b9050600085838151811061295657634e487b7160e01b600052603260045260246000fd5b6020026020010151905085828151811061298057634e487b7160e01b600052603260045260246000fd5b60200260200101518684815181106129a857634e487b7160e01b600052603260045260246000fd5b6020026020010181905250808683815181106129d457634e487b7160e01b600052603260045260246000fd5b6020026020010181905250505080806129ec90613723565b9150506128e9565b509192915050565b612a04612c38565b60009182526001602052604090912060060155565b600160ff919091161b191690565b600160ff919091161b16151590565b600160ff919091161b1790565b600081815260016020526040812090612a5b83612c3d565b905060005b6002830154811015612ba7576000836002018281548110612a9157634e487b7160e01b600052603260045260246000fd5b60009182526020808320909101546001600160a01b03168083526004870190915260409091205490915060ff63010000009091041615612ad15750612b95565b6001600160a01b038116600090815260048501602052604081205460058601805464010000000090920460ff16929183908110612b1e57634e487b7160e01b600052603260045260246000fd5b6000918252602091829020604080518082018252929091015460ff8082168085526101009092041693830184905290519193506001600160a01b038616927fbdf2f0687b7c6f0b8dde29a86969ba9a1e60ce7d560dc87e0bc637aead3a8c1c92612b899291906136bd565b60405180910390a25050505b80612b9f8161375c565b915050612a60565b506007820180546001600160a01b03831660009081526004808601602052604091829020600190810180549094019093559254918501805460ff1916909317909255905184907ff1898de79c348962fab7695532341027e5bceb0ea2a8785790fa7d7efeeee12990612c1c9085908590612ed3565b60405180910390a2505060006007820181905560089091015550565b600090565b6000818152600160205260408120818080805b6002850154811015612d99576000856002018281548110612c8157634e487b7160e01b600052603260045260246000fd5b60009182526020808320909101546001600160a01b03168083526004890190915260409091205490915060ff63010000009091041615612cc15750612d87565b6001600160a01b038116600090815260048701602052604081205460058801805464010000000090920460ff16929183908110612d0e57634e487b7160e01b600052603260045260246000fd5b60009182526020918290206040805180820190915291015460ff8082168084526101009092048116938301939093529092509087161080612d6c57508560ff16816000015160ff16148015612d6c57508460ff16816020015160ff16115b15612d835780600001519550806020015194508296505b5050505b80612d918161375c565b915050612c50565b509195945050505050565b5080546000825590600052602060002090810190612dc29190612ddc565b50565b604080518082019091526000808252602082015290565b5b80821115612df657805461ffff19168155600101612ddd565b5090565b80356001600160a01b0381168114611b0957600080fd5b600060208284031215612e22578081fd5b6126c082612dfa565b600060208284031215612e3c578081fd5b5035919050565b60008060408385031215612e55578081fd5b82359150612e6560208401612dfa565b90509250929050565b60008060408385031215612e80578182fd5b50508035926020909101359150565b60058110612ead57634e487b7160e01b600052602160045260246000fd5b9052565b918252602082015260400190565b6001600160a01b0391909116815260200190565b6001600160a01b03929092168252602082015260400190565b6020808252825182820181905260009190848201906040850190845b81811015612f2d5783516001600160a01b031683529284019291840191600101612f08565b50909695505050505050565b901515815260200190565b95151586529315156020860152911515604085015215156060840152608083015260a082015260c00190565b60408101612f7e8285612e8f565b6126c06020830184612e8f565b6101208101612f9a828c612e8f565b602082019990995260408101979097526060870195909552608086019390935260a085019190915260c084015260e08301526001600160a01b031661010090910152919050565b60208082526018908201527f416c726561647920757365642073776170206f7074696f6e0000000000000000604082015260600190565b60208082526010908201526f1419595ac81c1a185cd948195b99195960821b604082015260600190565b60208082526017908201527f4e6f2061637469766520706c617965727320666f756e64000000000000000000604082015260600190565b6020808252601b908201527f4f6e6c792063726561746f722063616e2073746172742067616d650000000000604082015260600190565b6020808252601190820152702737ba1030b1ba34bb3290383630bcb2b960791b604082015260600190565b602080825260129082015271496e73756666696369656e7420636869707360701b604082015260600190565b6020808252600a90820152692737ba1035b2b2b832b960b11b604082015260600190565b6020808252602b908201527f43726561746f722063616e2774206c656176652067616d652077697468206f7460408201526a68657220706c617965727360a81b606082015260800190565b602080825260149082015273105b1c9958591e481c1b1858d95908184818995d60621b604082015260600190565b602080825260169082015275135d5cdd081b585d18da0818dd5c9c995b9d0818995d60521b604082015260600190565b6020808252600f908201526e4e65656420322b20706c617965727360881b604082015260600190565b6020808252601190820152704e6f742062657474696e6720706861736560781b604082015260600190565b6020808252601b908201527f4e6f20617661696c61626c6520636172647320666f7220737761700000000000604082015260600190565b60208082526018908201527f47616d652068617320616c726561647920737461727465640000000000000000604082015260600190565b604080825260049082015263199bdb1960e21b6060820152602081019190915260800190565b60208082526017908201527f4d757374207065656b2061742063617264206669727374000000000000000000604082015260600190565b6040808252600490820152630737761760e41b6060820152602081019190915260800190565b6020808252600e908201526d4e6f74207065656b20706861736560901b604082015260600190565b6020808252600e908201526d11d85b59481b9bdd08199bdd5b9960921b604082015260600190565b60208082526010908201526f4e6f7420696e20746869732067616d6560801b604082015260600190565b60408082526003908201526218995d60ea1b6060820152602081019190915260800190565b60208082526009908201526811d85b5948199d5b1b60ba1b604082015260600190565b6040808252600590820152646c6561766560d81b6060820152602081019190915260800190565b60208082526010908201526f125b88189d5999995c881c195c9a5bd960821b604082015260600190565b6020808252600990820152682737ba1037bbb732b960b91b604082015260600190565b6020808252600d908201526c10995d081d1bdbc81cdb585b1b609a1b604082015260600190565b6020808252601a908201527f42657474696e67207068617365206e6f742066696e6973686564000000000000604082015260600190565b602080825260169082015275092dcecc2d8d2c840dccaee40c6c2e4c840d2dcc8caf60531b604082015260600190565b6040808252600490820152637065656b60e01b6060820152602081019190915260800190565b6020808252600e908201526d105b1c9958591e48199bdb19195960921b604082015260600190565b602080825260119082015270416c726561647920696e20612067616d6560781b604082015260600190565b60208082526017908201527f47616d6520616c726561647920636c65616e6564207570000000000000000000604082015260600190565b6020808252600e908201526d105b1c9958591e481c19595ad95960921b604082015260600190565b60208082526019908201527f4e6577206361726420616c72656164792061737369676e656400000000000000604082015260600190565b60208082526014908201527311d85b5948185b1c9958591e481cdd185c9d195960621b604082015260600190565b6020808252600e908201526d11d85b59481b9bdd08195b99195960921b604082015260600190565b60208082526013908201527210995d1d1a5b99c81c1a185cd948195b991959606a1b604082015260600190565b60208082526017908201527f5065656b207068617365206e6f742066696e6973686564000000000000000000604082015260600190565b90815260200190565b60ff91909116815260200190565b60ff92831681529116602082015260400190565b600082198211156136e4576136e46137b7565b500190565b6000828210156136fb576136fb6137b7565b500390565b600060ff821660ff84168082101561371a5761371a6137b7565b90039392505050565b600081613732576137326137b7565b506000190190565b600061ffff80831681811415613752576137526137b7565b6001019392505050565b6000600019821415613770576137706137b7565b5060010190565b600060ff821660ff81141561378e5761378e6137b7565b60010192915050565b6000826137b257634e487b7160e01b81526012600452602481fd5b500690565b634e487b7160e01b600052601160045260246000fdfef3d4f57e05aae06b4017c0b2ed81f62aa6f19deef046d6a78ad2a4223858c4f0a264697066735822122027d2cb26c88c284dcc25ec2a233f0116e778246c72188db9edf784e920f895e364736f6c63430008000033",
  "linkReferences": {},
  "deployedLinkReferences": {}
}