{
  "_format": "hh-sol-artifact-1",
  "contractName": "OneCard",
  "sourceName": "contracts/vanilla/OneCard.sol",
  "abi": [
    {
      "inputs": [],
      "stateMutability": "nonpayable",
      "type": "constructor"
    },
    {
      "anonymous": false,
      "inputs": [
        {
          "indexed": true,
          "internalType": "uint256",
          "name": "gameId",
          "type": "uint256"
        }
      ],
      "name": "BettingPhaseStarted",
      "type": "event"
    },
    {
      "anonymous": false,
      "inputs": [
        {
          "indexed": true,
          "internalType": "uint256",
          "name": "gameId",
          "type": "uint256"
        },
        {
          "indexed": true,
          "internalType": "address",
          "name": "player",
          "type": "address"
        }
      ],
      "name": "CardDealt",
      "type": "event"
    },
    {
      "anonymous": false,
      "inputs": [
        {
          "indexed": true,
          "internalType": "address",
          "name": "player",
          "type": "address"
        },
        {
          "indexed": false,
          "internalType": "uint8",
          "name": "value",
          "type": "uint8"
        },
        {
          "indexed": false,
          "internalType": "uint8",
          "name": "suit",
          "type": "uint8"
        }
      ],
      "name": "CardPeeked",
      "type": "event"
    },
    {
      "anonymous": false,
      "inputs": [
        {
          "indexed": true,
          "internalType": "uint256",
          "name": "gameId",
          "type": "uint256"
        },
        {
          "indexed": false,
          "internalType": "address",
          "name": "player",
          "type": "address"
        }
      ],
      "name": "CardSwapped",
      "type": "event"
    },
    {
      "anonymous": false,
      "inputs": [
        {
          "indexed": true,
          "internalType": "uint256",
          "name": "gameId",
          "type": "uint256"
        },
        {
          "indexed": false,
          "internalType": "address",
          "name": "keeper",
          "type": "address"
        },
        {
          "indexed": false,
          "internalType": "address",
          "name": "creator",
          "type": "address"
        }
      ],
      "name": "GameCreated",
      "type": "event"
    },
    {
      "anonymous": false,
      "inputs": [
        {
          "indexed": true,
          "internalType": "uint256",
          "name": "gameId",
          "type": "uint256"
        },
        {
          "indexed": false,
          "internalType": "address",
          "name": "winner",
          "type": "address"
        },
        {
          "indexed": false,
          "internalType": "uint256",
          "name": "potAmount",
          "type": "uint256"
        }
      ],
      "name": "GameEnded",
      "type": "event"
    },
    {
      "anonymous": false,
      "inputs": [
        {
          "indexed": true,
          "internalType": "uint256",
          "name": "gameId",
          "type": "uint256"
        }
      ],
      "name": "PeekPhaseStarted",
      "type": "event"
    },
    {
      "anonymous": false,
      "inputs": [
        {
          "indexed": true,
          "internalType": "uint256",
          "name": "gameId",
          "type": "uint256"
        },
        {
          "indexed": true,
          "internalType": "address",
          "name": "player",
          "type": "address"
        },
        {
          "indexed": false,
          "internalType": "string",
          "name": "action",
          "type": "string"
        },
        {
          "indexed": false,
          "internalType": "uint256",
          "name": "amount",
          "type": "uint256"
        }
      ],
      "name": "PlayerAction",
      "type": "event"
    },
    {
      "anonymous": false,
      "inputs": [
        {
          "indexed": true,
          "internalType": "uint256",
          "name": "gameId",
          "type": "uint256"
        },
        {
          "indexed": false,
          "internalType": "address",
          "name": "player",
          "type": "address"
        }
      ],
      "name": "PlayerJoined",
      "type": "event"
    },
    {
      "anonymous": false,
      "inputs": [
        {
          "indexed": true,
          "internalType": "uint256",
          "name": "gameId",
          "type": "uint256"
        },
        {
          "indexed": false,
          "internalType": "address",
          "name": "player",
          "type": "address"
        }
      ],
      "name": "PlayerPeeked",
      "type": "event"
    },
    {
      "anonymous": false,
      "inputs": [
        {
          "indexed": true,
          "internalType": "uint256",
          "name": "gameId",
          "type": "uint256"
        }
      ],
      "name": "ShowdownStarted",
      "type": "event"
    },
    {
      "inputs": [],
      "name": "BETTING_PHASE_DURATION",
      "outputs": [
        {
          "internalType": "uint256",
          "name": "",
          "type": "uint256"
        }
      ],
      "stateMutability": "view",
      "type": "function"
    },
    {
      "inputs": [],
      "name": "INITIAL_CHIPS",
      "outputs": [
        {
          "internalType": "uint256",
          "name": "",
          "type": "uint256"
        }
      ],
      "stateMutability": "view",
      "type": "function"
    },
    {
      "inputs": [],
      "name": "MAX_PLAYERS",
      "outputs": [
        {
          "internalType": "uint8",
          "name": "",
          "type": "uint8"
        }
      ],
      "stateMutability": "view",
      "type": "function"
    },
    {
      "inputs": [],
      "name": "MINIMUM_BET",
      "outputs": [
        {
          "internalType": "uint256",
          "name": "",
          "type": "uint256"
        }
      ],
      "stateMutability": "view",
      "type": "function"
    },
    {
      "inputs": [],
      "name": "PEEK_FEE",
      "outputs": [
        {
          "internalType": "uint256",
          "name": "",
          "type": "uint256"
        }
      ],
      "stateMutability": "view",
      "type": "function"
    },
    {
      "inputs": [],
      "name": "PEEK_PHASE_DURATION",
      "outputs": [
        {
          "internalType": "uint256",
          "name": "",
          "type": "uint256"
        }
      ],
      "stateMutability": "view",
      "type": "function"
    },
    {
      "inputs": [],
      "name": "STANDARD_DECK_SIZE",
      "outputs": [
        {
          "internalType": "uint8",
          "name": "",
          "type": "uint8"
        }
      ],
      "stateMutability": "view",
      "type": "function"
    },
    {
      "inputs": [],
      "name": "SWAP_FEE",
      "outputs": [
        {
          "internalType": "uint256",
          "name": "",
          "type": "uint256"
        }
      ],
      "stateMutability": "view",
      "type": "function"
    },
    {
      "inputs": [
        {
          "internalType": "address",
          "name": "keeper",
          "type": "address"
        }
      ],
      "name": "addKeeper",
      "outputs": [],
      "stateMutability": "nonpayable",
      "type": "function"
    },
    {
      "inputs": [
        {
          "internalType": "uint256",
          "name": "gameId",
          "type": "uint256"
        }
      ],
      "name": "checkAllPlayersMatched",
      "outputs": [
        {
          "internalType": "bool",
          "name": "",
          "type": "bool"
        }
      ],
      "stateMutability": "view",
      "type": "function"
    },
    {
      "inputs": [
        {
          "internalType": "uint256",
          "name": "gameId",
          "type": "uint256"
        }
      ],
      "name": "cleanup",
      "outputs": [],
      "stateMutability": "nonpayable",
      "type": "function"
    },
    {
      "inputs": [],
      "name": "createGame",
      "outputs": [
        {
          "internalType": "uint256",
          "name": "",
          "type": "uint256"
        }
      ],
      "stateMutability": "nonpayable",
      "type": "function"
    },
    {
      "inputs": [],
      "name": "currentGameId",
      "outputs": [
        {
          "internalType": "uint256",
          "name": "",
          "type": "uint256"
        }
      ],
      "stateMutability": "view",
      "type": "function"
    },
    {
      "inputs": [
        {
          "internalType": "uint256",
          "name": "gameId",
          "type": "uint256"
        }
      ],
      "name": "endBettingPhase",
      "outputs": [],
      "stateMutability": "nonpayable",
      "type": "function"
    },
    {
      "inputs": [
        {
          "internalType": "uint256",
          "name": "gameId",
          "type": "uint256"
        }
      ],
      "name": "endPeekPhase",
      "outputs": [],
      "stateMutability": "nonpayable",
      "type": "function"
    },
    {
      "inputs": [
        {
          "internalType": "uint256",
          "name": "gameId",
          "type": "uint256"
        }
      ],
      "name": "fold",
      "outputs": [],
      "stateMutability": "nonpayable",
      "type": "function"
    },
    {
      "inputs": [
        {
          "internalType": "uint256",
          "name": "gameId",
          "type": "uint256"
        }
      ],
      "name": "getActivePlayerCount",
      "outputs": [
        {
          "internalType": "uint256",
          "name": "",
          "type": "uint256"
        }
      ],
      "stateMutability": "view",
      "type": "function"
    },
    {
      "inputs": [
        {
          "internalType": "uint256",
          "name": "gameId",
          "type": "uint256"
        }
      ],
      "name": "getActivePlayers",
      "outputs": [
        {
          "internalType": "address[]",
          "name": "activePlayers",
          "type": "address[]"
        }
      ],
      "stateMutability": "view",
      "type": "function"
    },
    {
      "inputs": [
        {
          "internalType": "uint256",
          "name": "gameId",
          "type": "uint256"
        }
      ],
      "name": "getGameInfo",
      "outputs": [
        {
          "internalType": "enum GameLibrary.GameState",
          "name": "state",
          "type": "uint8"
        },
        {
          "internalType": "uint256",
          "name": "potAmount",
          "type": "uint256"
        },
        {
          "internalType": "uint256",
          "name": "currentBet",
          "type": "uint256"
        },
        {
          "internalType": "uint256",
          "name": "phaseEndTime",
          "type": "uint256"
        },
        {
          "internalType": "uint256",
          "name": "remainingTime",
          "type": "uint256"
        },
        {
          "internalType": "uint256",
          "name": "playerCount",
          "type": "uint256"
        },
        {
          "internalType": "uint256",
          "name": "activeCount",
          "type": "uint256"
        },
        {
          "internalType": "address",
          "name": "creator",
          "type": "address"
        },
        {
          "internalType": "bool",
          "name": "isCleanedUp",
          "type": "bool"
        }
      ],
      "stateMutability": "view",
      "type": "function"
    },
    {
      "inputs": [
        {
          "internalType": "uint256",
          "name": "gameId",
          "type": "uint256"
        },
        {
          "internalType": "address",
          "name": "player",
          "type": "address"
        }
      ],
      "name": "getPlayerInfo",
      "outputs": [
        {
          "internalType": "bool",
          "name": "isActive",
          "type": "bool"
        },
        {
          "internalType": "bool",
          "name": "hasPeeked",
          "type": "bool"
        },
        {
          "internalType": "bool",
          "name": "hasSwappedCard",
          "type": "bool"
        },
        {
          "internalType": "bool",
          "name": "hasFolded",
          "type": "bool"
        },
        {
          "internalType": "uint256",
          "name": "chipBalance",
          "type": "uint256"
        },
        {
          "internalType": "uint256",
          "name": "currentBet",
          "type": "uint256"
        }
      ],
      "stateMutability": "view",
      "type": "function"
    },
    {
      "inputs": [
        {
          "internalType": "uint256",
          "name": "gameId",
          "type": "uint256"
        }
      ],
      "name": "getPlayers",
      "outputs": [
        {
          "internalType": "address[]",
          "name": "players",
          "type": "address[]"
        }
      ],
      "stateMutability": "view",
      "type": "function"
    },
    {
      "inputs": [
        {
          "internalType": "address",
          "name": "keeper",
          "type": "address"
        }
      ],
      "name": "isKeeper",
      "outputs": [
        {
          "internalType": "bool",
          "name": "",
          "type": "bool"
        }
      ],
      "stateMutability": "view",
      "type": "function"
    },
    {
      "inputs": [
        {
          "internalType": "uint256",
          "name": "gameId",
          "type": "uint256"
        }
      ],
      "name": "joinGame",
      "outputs": [],
      "stateMutability": "nonpayable",
      "type": "function"
    },
    {
      "inputs": [
        {
          "internalType": "uint256",
          "name": "gameId",
          "type": "uint256"
        }
      ],
      "name": "leaveGame",
      "outputs": [],
      "stateMutability": "nonpayable",
      "type": "function"
    },
    {
      "inputs": [],
      "name": "owner",
      "outputs": [
        {
          "internalType": "address",
          "name": "",
          "type": "address"
        }
      ],
      "stateMutability": "view",
      "type": "function"
    },
    {
      "inputs": [
        {
          "internalType": "uint256",
          "name": "gameId",
          "type": "uint256"
        }
      ],
      "name": "peekAtCard",
      "outputs": [],
      "stateMutability": "nonpayable",
      "type": "function"
    },
    {
      "inputs": [
        {
          "internalType": "uint256",
          "name": "gameId",
          "type": "uint256"
        },
        {
          "internalType": "uint256",
          "name": "betAmount",
          "type": "uint256"
        }
      ],
      "name": "placeBet",
      "outputs": [],
      "stateMutability": "nonpayable",
      "type": "function"
    },
    {
      "inputs": [
        {
          "internalType": "address",
          "name": "",
          "type": "address"
        }
      ],
      "name": "playerCurrentGame",
      "outputs": [
        {
          "internalType": "uint256",
          "name": "",
          "type": "uint256"
        }
      ],
      "stateMutability": "view",
      "type": "function"
    },
    {
      "inputs": [
        {
          "internalType": "address",
          "name": "keeper",
          "type": "address"
        }
      ],
      "name": "removeKeeper",
      "outputs": [],
      "stateMutability": "nonpayable",
      "type": "function"
    },
    {
      "inputs": [
        {
          "internalType": "uint256",
          "name": "gameId",
          "type": "uint256"
        }
      ],
      "name": "startGame",
      "outputs": [],
      "stateMutability": "nonpayable",
      "type": "function"
    },
    {
      "inputs": [
        {
          "internalType": "uint256",
          "name": "gameId",
          "type": "uint256"
        }
      ],
      "name": "swapCard",
      "outputs": [],
      "stateMutability": "nonpayable",
      "type": "function"
    }
  ],
  "bytecode": "0x60a060405234801561001057600080fd5b5033606081901b6080526000818152600360205260408120805460ff1916600117905561356d9061006090396000818161070901528181611379015281816118660152611909015261356d6000f3fe608060405234801561001057600080fd5b50600436106101e45760003560e01c80634afe62b51161010f5780639c861bc5116100a2578063c493153a11610071578063c493153a146103fa578063e5ed1d5914610402578063efaa55a014610415578063fc2217c414610428576101e4565b80639c861bc5146103b9578063a410274c146103c1578063ba3a9520146103d4578063bff7a00b146103e7576101e4565b80637255d729116100de5780637255d7291461038c578063768aebde146103945780638da5cb5b1461039c578063935aae40146103b1576101e4565b80634afe62b514610349578063536a3ddc1461035c5780635d27e072146103645780636ba42aaa1461036c576101e4565b8063342ed956116101875780634032b72b116101565780634032b72b146102e65780634411b3eb146102f9578063460e20491461030e57806347e1d55014610321576101e4565b8063342ed9561461027b5780633a5ff2001461029b5780633ccd10e9146102ae5780633feef58a146102d3576101e4565b806314ae9f2e116101c357806314ae9f2e1461022f578063265026481461024257806330be62b214610255578063318ff5d114610268576101e4565b8062028e6e146101e957806309734764146102075780630aa400181461021c575b600080fd5b6101f1610430565b6040516101fe91906133f0565b60405180910390f35b61021a610215366004612bbb565b610435565b005b61021a61022a366004612bbb565b61059b565b61021a61023d366004612ba1565b6106fe565b61021a610250366004612bbb565b610767565b61021a610263366004612bbb565b610a42565b61021a610276366004612bbb565b610b5b565b61028e610289366004612bbb565b610dfb565b6040516101fe9190612c74565b6101f16102a9366004612ba1565b610f80565b6102c16102bc366004612bd3565b610f92565b6040516101fe96959493929190612ccc565b61021a6102e1366004612bbb565b61107f565b61021a6102f4366004612ba1565b61136e565b6103016113da565b6040516101fe91906133f9565b61028e61031c366004612bbb565b6113df565b61033461032f366004612bbb565b61147f565b6040516101fe99989796959493929190612cf8565b61021a610357366004612bfe565b61156e565b6101f16117d3565b6101f16113da565b61037f61037a366004612ba1565b6117d9565b6040516101fe9190612cc1565b6101f16117fb565b6101f1611902565b6103a4611907565b6040516101fe9190612c2d565b6101f161192b565b610301611930565b6101f16103cf366004612bbb565b611935565b61037f6103e2366004612bbb565b61197b565b61021a6103f5366004612bbb565b611ab1565b6101f1611d0e565b61021a610410366004612bbb565b611d14565b61021a610423366004612bbb565b611e8d565b6101f1612044565b607881565b3360009081526003602052604090205460ff1661046d5760405162461bcd60e51b815260040161046490612e51565b60405180910390fd5b6000818152600160205260409020548190811461049c5760405162461bcd60e51b81526004016104649061308b565b6000828152600160205260409020600c0154829060ff16156104d05760405162461bcd60e51b815260040161046490613276565b600083815260016020819052604090912090600182015460ff16600481111561050957634e487b7160e01b600052602160045260246000fd5b146105265760405162461bcd60e51b815260040161046490613063565b80600b015442101561054a5760405162461bcd60e51b8152600401610464906133b9565b61055661012c4261341b565b600b82015560018101805460ff1916600217905560405184907f359ad7e63db5f06f70341a18e68dba0ef153ef9adbff2af9293fc13daf6fc09590600090a250505050565b3360009081526003602052604090205460ff166105ca5760405162461bcd60e51b815260040161046490612e51565b600081815260016020526040902054819081146105f95760405162461bcd60e51b81526004016104649061308b565b6000828152600160205260409020600c0154829060ff161561062d5760405162461bcd60e51b815260040161046490613276565b60008381526001602052604090206004600182015460ff16600481111561066457634e487b7160e01b600052602160045260246000fd5b146106815760405162461bcd60e51b815260040161046490613364565b60005b60028201548110156106ea5760008260020182815481106106b557634e487b7160e01b600052603260045260246000fd5b60009182526020808320909101546001600160a01b0316825260029052604081205550806106e2816134a6565b915050610684565b50600c01805460ff19166001179055505050565b336001600160a01b037f000000000000000000000000000000000000000000000000000000000000000016146107465760405162461bcd60e51b81526004016104649061314c565b6001600160a01b03166000908152600360205260409020805460ff19169055565b600081815260016020526040902054819081146107965760405162461bcd60e51b81526004016104649061308b565b6000828152600160209081526040808320338452600401909152902054829060ff166107d45760405162461bcd60e51b815260040161046490612dfa565b6000838152600160205260409020600c0154839060ff16156108085760405162461bcd60e51b815260040161046490613276565b60008481526001602081815260408084203385526004810190925290922090600183015460ff16600481111561084e57634e487b7160e01b600052602160045260246000fd5b1461086b5760405162461bcd60e51b815260040161046490613063565b81600b0154421061088e5760405162461bcd60e51b815260040161046490612d99565b8054610100900460ff166108b45760405162461bcd60e51b815260040161046490613006565b805462010000900460ff16156108dc5760405162461bcd60e51b815260040161046490612d62565b6007816001015410156109015760405162461bcd60e51b815260040161046490612e25565b60018082018054600619019055815462ff000019166201000017808355426003840155600483018054909201909155640100000000900460ff166109458782612049565b60006109508861207e565b905060008160ff161180156109685750603460ff8216105b6109845760405162461bcd60e51b8152600401610464906131cd565b61098e88826121c5565b156109ab5760405162461bcd60e51b8152600401610464906132ff565b6109b588826121e8565b825464ff00000000191664010000000060ff83160217835560405188907f885764703e2aefc4846ebb38d0f5da9044c8ade279e4fa2f48f13d993f5fb3bf906109ff903390612c2d565b60405180910390a2336001600160a01b0316886000805160206135188339815191526007604051610a30919061303d565b60405180910390a35050505050505050565b3360009081526003602052604090205460ff16610a715760405162461bcd60e51b815260040161046490612e51565b60008181526001602052604090205481908114610aa05760405162461bcd60e51b81526004016104649061308b565b6000828152600160205260409020600c0154829060ff1615610ad45760405162461bcd60e51b815260040161046490613276565b60008381526001602052604090206002600182015460ff166004811115610b0b57634e487b7160e01b600052602160045260246000fd5b14610b285760405162461bcd60e51b815260040161046490612f47565b80600b0154421015610b4c5760405162461bcd60e51b815260040161046490613196565b610b5584612204565b50505050565b60008181526001602052604090205481908114610b8a5760405162461bcd60e51b81526004016104649061308b565b6000828152600160209081526040808320338452600401909152902054829060ff16610bc85760405162461bcd60e51b815260040161046490612dfa565b6000838152600160205260409020600c0154839060ff1615610bfc5760405162461bcd60e51b815260040161046490613276565b60008481526001602081815260408084203385526004810190925290922090600183015460ff166004811115610c4257634e487b7160e01b600052602160045260246000fd5b14610c5f5760405162461bcd60e51b815260040161046490613063565b81600b01544210610c825760405162461bcd60e51b815260040161046490612d99565b8054610100900460ff1615610ca95760405162461bcd60e51b8152600401610464906132d7565b600581600101541015610cce5760405162461bcd60e51b815260040161046490612e25565b60018082018054600419019055815461ff0019166101001780835542600384015560048301805490920190915560058301805464010000000090920460ff16916000919083908110610d3057634e487b7160e01b600052603260045260246000fd5b6000918252602091829020604080518082018252929091015460ff80821680855261010090920416938301849052905191935033927fbdf2f0687b7c6f0b8dde29a86969ba9a1e60ce7d560dc87e0bc637aead3a8c1c92610d92929190613407565b60405180910390a2877fbd3a6d7726f96a60006b9be9178cd721a199630ff7daaac35c2566c74e725fba33604051610dca9190612c2d565b60405180910390a2336001600160a01b0316886000805160206135188339815191526005604051610a3091906131fd565b60008181526001602052604090205460609082908114610e2d5760405162461bcd60e51b81526004016104649061308b565b6000838152600160205260409020600381015467ffffffffffffffff811115610e6657634e487b7160e01b600052604160045260246000fd5b604051908082528060200260200182016040528015610e8f578160200160208202803683370190505b509250806003015460001415610ea55750610f7a565b6000805b6002830154811015610f76576000836002018281548110610eda57634e487b7160e01b600052603260045260246000fd5b60009182526020808320909101546001600160a01b03168083526004870190915260409091205490915060ff630100000090910416610f635780868481518110610f3457634e487b7160e01b600052603260045260246000fd5b6001600160a01b039092166020928302919091019091015260038401546001909301928310610f635750610f76565b5080610f6e816134a6565b915050610ea9565b5050505b50919050565b60026020526000908152604090205481565b6000828152600160205260408120548190819081908190819088908114610fcb5760405162461bcd60e51b81526004016104649061308b565b60008981526001602090815260408083206001600160a01b038c16808552600482019093529220903314611039578054600182015460029092015460ff8083169b50610100830481169a50620100008304811699506301000000909204909116965090945092506110749050565b8054600182015460029092015460ff8083169b50610100830481169a5062010000830481169950630100000090920490911696509094509250505b509295509295509295565b600081815260016020526040902054819081146110ae5760405162461bcd60e51b81526004016104649061308b565b6000828152600160205260409020600c0154829060ff16156110e25760405162461bcd60e51b815260040161046490613276565b6000838152600160209081526040808320338452600481019092529091205460ff166111205760405162461bcd60e51b8152600401610464906130b3565b6000600182015460ff16600481111561114957634e487b7160e01b600052602160045260246000fd5b146111665760405162461bcd60e51b815260040161046490613336565b600a8101546001600160a01b031633141580611186575060028101546001145b6111a25760405162461bcd60e51b815260040161046490612e75565b60005b60028201548110156112ed57336001600160a01b03168260020182815481106111de57634e487b7160e01b600052603260045260246000fd5b6000918252602090912001546001600160a01b031614156112db5760028201805461120b90600190613433565b8154811061122957634e487b7160e01b600052603260045260246000fd5b6000918252602090912001546002830180546001600160a01b03909216918390811061126557634e487b7160e01b600052603260045260246000fd5b9060005260206000200160006101000a8154816001600160a01b0302191690836001600160a01b03160217905550816002018054806112b457634e487b7160e01b600052603160045260246000fd5b600082815260209020810160001990810180546001600160a01b03191690550190556112ed565b806112e5816134a6565b9150506111a5565b5060038082018054600019019055336000818152600480850160209081526040808420805464ffffffffff19168155600181018590556002808201869055968101859055909201839055939093528281208190559151909186916000805160206135188339815191529161136091613125565b60405180910390a350505050565b336001600160a01b037f000000000000000000000000000000000000000000000000000000000000000016146113b65760405162461bcd60e51b81526004016104649061314c565b6001600160a01b03166000908152600360205260409020805460ff19166001179055565b600581565b600081815260016020526040902054606090829081146114115760405162461bcd60e51b81526004016104649061308b565b6000838152600160209081526040918290206002018054835181840281018401909452808452909183018282801561147257602002820191906000526020600020905b81546001600160a01b03168152600190910190602001808311611454575b5050505050915050919050565b600080600080600080600080600089806001600083815260200190815260200160002060000154146114c35760405162461bcd60e51b81526004016104649061308b565b60008b8152600160205260408120600b8101549091904210156114f3574282600b01546114f09190613433565b90505b8160010160009054906101000a900460ff168260070154836008015484600b0154848660020180549050876003015488600a0160009054906101000a90046001600160a01b031689600c0160009054906101000a900460ff169b509b509b509b509b509b509b509b509b505050509193959799909294969850565b6000828152600160205260409020548290811461159d5760405162461bcd60e51b81526004016104649061308b565b6000838152600160209081526040808320338452600401909152902054839060ff166115db5760405162461bcd60e51b815260040161046490612dfa565b6000848152600160205260409020600c0154849060ff161561160f5760405162461bcd60e51b815260040161046490613276565b6000858152600160209081526040808320338452600481019092529091206002600183015460ff16600481111561165657634e487b7160e01b600052602160045260246000fd5b146116735760405162461bcd60e51b815260040161046490612f47565b81600b015442106116965760405162461bcd60e51b81526004016104649061338c565b80546301000000900460ff16156116bf5760405162461bcd60e51b815260040161046490613223565b60018610156116e05760405162461bcd60e51b81526004016104649061316f565b6002810154156117025760405162461bcd60e51b815260040161046490612ec0565b6008820154156117305781600801548610156117305760405162461bcd60e51b815260040161046490612eee565b85816001015410156117545760405162461bcd60e51b815260040161046490612e25565b6004810180546001908101909155810180548790039055600281018681556007830180548801905542600383015560088301549054111561179a57600281015460088301555b336001600160a01b031687600080516020613518833981519152886040516117c291906130dd565b60405180910390a350505050505050565b60005481565b6001600160a01b03811660009081526003602052604090205460ff165b919050565b33600090815260026020526040812054156118285760405162461bcd60e51b81526004016104649061324b565b60008054600190810180835580835260208290526040808420828155928301805460ff199081169091556009840180546001600160a01b03199081167f00000000000000000000000000000000000000000000000000000000000000006001600160a01b03811691909117909255600a86018054339216821790556003860196909655600c850180549092169091559051919384927f8946648bc1dbc670d3f07e2c4de91731227b6d4ccc53b8ab1e951e84d960577e926118ea929091612c41565b60405180910390a26118fc8233612259565b50905090565b600781565b7f000000000000000000000000000000000000000000000000000000000000000090565b600181565b603481565b600081815260016020526040812054829081146119645760405162461bcd60e51b81526004016104649061308b565b505060009081526001602052604090206003015490565b600081815260016020526040812054829081146119aa5760405162461bcd60e51b81526004016104649061308b565b60008381526001602052604090206002600182015460ff1660048111156119e157634e487b7160e01b600052602160045260246000fd5b146119f0576000925050610f7a565b60005b6002820154811015611aa6576000826002018281548110611a2457634e487b7160e01b600052603260045260246000fd5b60009182526020808320909101546001600160a01b03168083526004860190915260409091205490915060ff63010000009091041615611a645750611a94565b6001600160a01b0381166000908152600484016020526040902060020154611a925760009450505050610f7a565b505b80611a9e816134a6565b9150506119f3565b506001949350505050565b60008181526001602052604090205481908114611ae05760405162461bcd60e51b81526004016104649061308b565b6000828152600160209081526040808320338452600401909152902054829060ff16611b1e5760405162461bcd60e51b815260040161046490612dfa565b6000838152600160205260409020600c0154839060ff1615611b525760405162461bcd60e51b815260040161046490613276565b6000848152600160209081526040808320338452600481019092529091206002600183015460ff166004811115611b9957634e487b7160e01b600052602160045260246000fd5b14611bb65760405162461bcd60e51b815260040161046490612f47565b81600b01544210611bd95760405162461bcd60e51b81526004016104649061338c565b80546301000000900460ff1615611c025760405162461bcd60e51b815260040161046490613223565b6004810180546001019055805463ff0000001916630100000017815542600380830191909155820180546000190190556040513390879060008051602061351883398151915290611c5590600090612fe0565b60405180910390a3816003015460011415611d06576000611c7587612343565b6007840180546001600160a01b03831660009081526004808801602052604091829020600190810180549094019093559254918701805460ff191690931790925590519192509088907ff1898de79c348962fab7695532341027e5bceb0ea2a8785790fa7d7efeeee12990611ced9085908590612c5b565b60405180910390a2505060006007830181905560088301555b505050505050565b61012c81565b60008181526001602052604090205481908114611d435760405162461bcd60e51b81526004016104649061308b565b6000828152600160205260409020600c0154829060ff1615611d775760405162461bcd60e51b815260040161046490613276565b6000838152600160205260409020600a015483906001600160a01b03163314611db25760405162461bcd60e51b8152600401610464906132ad565b600084815260016020526040812090600182015460ff166004811115611de857634e487b7160e01b600052602160045260246000fd5b14611e055760405162461bcd60e51b815260040161046490612fa9565b6002818101541015611e295760405162461bcd60e51b815260040161046490612f1e565b611e3460784261341b565b600b8201556001808201805460ff19169091179055611e52856123f3565b611e5b8561257b565b60405185907f1a2ba96bf245728c460e13d78a1591bcb45e67de1240b6654190f8c0bbdd070090600090a25050505050565b60008181526001602052604090205481908114611ebc5760405162461bcd60e51b81526004016104649061308b565b6000828152600160205260409020600c0154829060ff1615611ef05760405162461bcd60e51b815260040161046490613276565b600083815260016020526040812090600182015460ff166004811115611f2657634e487b7160e01b600052602160045260246000fd5b14611f435760405162461bcd60e51b815260040161046490612fa9565b6002810154600511611f675760405162461bcd60e51b815260040161046490613102565b3360009081526002602052604090205415611f945760405162461bcd60e51b81526004016104649061324b565b60028082018054600181810183556000928352602080842090920180546001600160a01b03191633908117909155808452600480870184526040808620805460ff191685178155601981860155426003808301919091559281018790559690945293839020899055928501805490910190555186917f87969bc7faf902221a147b95ceba76e011c5efb0339a0a8ee7a2bb82d9cfbbd6916120359190612c2d565b60405180910390a25050505050565b601981565b6000828152600160205260409020600601546120659082612662565b6000928352600160205260409092206006019190915550565b6000818152600160209081526040808320815160348082526106a0820190935290928492908201610680803683370190505090506000805b600584015460ff8216101561212a576120cf86826121c5565b6121185780838361ffff16815181106120f857634e487b7160e01b600052603260045260246000fd5b60ff909216602092830291909101909101528161211481613484565b9250505b80612122816134c1565b9150506120b6565b5060008161ffff161161214f5760405162461bcd60e51b815260040161046490612f72565b60008161ffff164442604051602001612169929190612c1f565b6040516020818303038152906040528051906020012060001c61218c91906134e1565b9050828161ffff16815181106121b257634e487b7160e01b600052603260045260246000fd5b6020026020010151945050505050919050565b6000828152600160205260408120600601546121e19083612670565b9392505050565b600082815260016020526040902060060154612065908261267f565b6000818152600160208190526040808320918201805460ff1916600317905551909183917fcfeaa304021cfd684ad30c51a76ffd4139eb4b36c6e97d94cce4df46b71ee9779190a26122558261268c565b5050565b60008281526001602090815260408083206001600160a01b03851684526002909252909120541561228a5750612255565b60028181018054600180820183556000928352602080842090920180546001600160a01b0319166001600160a01b0388169081179091558352600480860183526040808520805460ff19168417815560198185015542600380830191909155928101869055959093529282902087905591840180549092019091555184907f87969bc7faf902221a147b95ceba76e011c5efb0339a0a8ee7a2bb82d9cfbbd690612335908690612c2d565b60405180910390a250505050565b6000818152600160205260408120815b60028201548110156123da57600082600201828154811061238457634e487b7160e01b600052603260045260246000fd5b60009182526020808320909101546001600160a01b03168083526004860190915260409091205490915060ff6301000000909104166123c75792506117f6915050565b50806123d2816134a6565b915050612353565b5060405162461bcd60e51b815260040161046490612dc3565b600081815260016020526040812090612410906005830190612b34565b6040805160348082526106a08201909252600091816020015b612431612b55565b8152602001906001900390816124295790505090506000805b60048160ff1610156124e15760025b600e8160ff16116124ce5760405180604001604052808260ff1681526020018360ff16815250848460ff16815181106124a257634e487b7160e01b600052603260045260246000fd5b602002602001018190525082806124b8906134c1565b93505080806124c6906134c1565b915050612459565b50806124d9816134c1565b91505061244a565b5060006124ed83612881565b905060005b6034811015611d06578460050182828151811061251f57634e487b7160e01b600052603260045260246000fd5b6020908102919091018101518254600181018455600093845292829020815193018054919092015160ff9081166101000261ff00199190941660ff19909216919091171691909117905580612573816134a6565b9150506124f2565b6000818152600160205260409020612592826129ab565b60005b600282015481101561265d5760008260020182815481106125c657634e487b7160e01b600052603260045260246000fd5b6000918252602080832091909101546001600160a01b0316808352600486019091526040909120805464ff00000000191664010000000060ff86160217905590508161261285826121e8565b6040516001600160a01b0383169086907fce005d12bca3b432651fa3635a44056e071a659e4c958fc7e9ad8ba2b6221a0490600090a350508080612655906134a6565b915050612595565b505050565b600160ff919091161b191690565b600160ff919091161b16151590565b600160ff919091161b1790565b6000818152600160205260408120906126a4836129c8565b905060005b60028301548110156127f05760008360020182815481106126da57634e487b7160e01b600052603260045260246000fd5b60009182526020808320909101546001600160a01b03168083526004870190915260409091205490915060ff6301000000909104161561271a57506127de565b6001600160a01b038116600090815260048501602052604081205460058601805464010000000090920460ff1692918390811061276757634e487b7160e01b600052603260045260246000fd5b6000918252602091829020604080518082018252929091015460ff8082168085526101009092041693830184905290519193506001600160a01b038616927fbdf2f0687b7c6f0b8dde29a86969ba9a1e60ce7d560dc87e0bc637aead3a8c1c926127d2929190613407565b60405180910390a25050505b806127e8816134a6565b9150506126a9565b506007820180546001600160a01b03831660009081526004808601602052604091829020600190810180549094019093559254918501805460ff1916909317909255905184907ff1898de79c348962fab7695532341027e5bceb0ea2a8785790fa7d7efeeee129906128659085908590612c5b565b60405180910390a2505060006007820181905560089091015550565b60604460006128926001603461344a565b60ff1690505b80156129a35760006128ab82600161341b565b83836040516020016128be929190612c1f565b6040516020818303038152906040528051906020012060001c6128e191906134e1565b9050600085838151811061290557634e487b7160e01b600052603260045260246000fd5b6020026020010151905085828151811061292f57634e487b7160e01b600052603260045260246000fd5b602002602001015186848151811061295757634e487b7160e01b600052603260045260246000fd5b60200260200101819052508086838151811061298357634e487b7160e01b600052603260045260246000fd5b60200260200101819052505050808061299b9061346d565b915050612898565b509192915050565b6129b3612b2f565b60009182526001602052604090912060060155565b6000818152600160205260408120818080805b6002850154811015612b24576000856002018281548110612a0c57634e487b7160e01b600052603260045260246000fd5b60009182526020808320909101546001600160a01b03168083526004890190915260409091205490915060ff63010000009091041615612a4c5750612b12565b6001600160a01b038116600090815260048701602052604081205460058801805464010000000090920460ff16929183908110612a9957634e487b7160e01b600052603260045260246000fd5b60009182526020918290206040805180820190915291015460ff8082168084526101009092048116938301939093529092509087161080612af757508560ff16816000015160ff16148015612af757508460ff16816020015160ff16115b15612b0e5780600001519550806020015194508296505b5050505b80612b1c816134a6565b9150506129db565b509195945050505050565b600090565b5080546000825590600052602060002090810190612b529190612b6c565b50565b604080518082019091526000808252602082015290565b5b80821115612b8657805461ffff19168155600101612b6d565b5090565b80356001600160a01b03811681146117f657600080fd5b600060208284031215612bb2578081fd5b6121e182612b8a565b600060208284031215612bcc578081fd5b5035919050565b60008060408385031215612be5578081fd5b82359150612bf560208401612b8a565b90509250929050565b60008060408385031215612c10578182fd5b50508035926020909101359150565b918252602082015260400190565b6001600160a01b0391909116815260200190565b6001600160a01b0392831681529116602082015260400190565b6001600160a01b03929092168252602082015260400190565b6020808252825182820181905260009190848201906040850190845b81811015612cb55783516001600160a01b031683529284019291840191600101612c90565b50909695505050505050565b901515815260200190565b95151586529315156020860152911515604085015215156060840152608083015260a082015260c00190565b610120810160058b10612d1b57634e487b7160e01b600052602160045260246000fd5b998152602081019890985260408801969096526060870194909452608086019290925260a085015260c08401526001600160a01b031660e083015215156101009091015290565b60208082526018908201527f416c726561647920757365642073776170206f7074696f6e0000000000000000604082015260600190565b60208082526010908201526f1419595ac81c1a185cd948195b99195960821b604082015260600190565b60208082526017908201527f4e6f2061637469766520706c617965727320666f756e64000000000000000000604082015260600190565b6020808252601190820152702737ba1030b1ba34bb3290383630bcb2b960791b604082015260600190565b602080825260129082015271496e73756666696369656e7420636869707360701b604082015260600190565b6020808252600a90820152692737ba1035b2b2b832b960b11b604082015260600190565b6020808252602b908201527f43726561746f722063616e2774206c656176652067616d652077697468206f7460408201526a68657220706c617965727360a81b606082015260800190565b602080825260149082015273105b1c9958591e481c1b1858d95908184818995d60621b604082015260600190565b602080825260169082015275135d5cdd081b585d18da0818dd5c9c995b9d0818995d60521b604082015260600190565b6020808252600f908201526e4e65656420322b20706c617965727360881b604082015260600190565b6020808252601190820152704e6f742062657474696e6720706861736560781b604082015260600190565b6020808252601b908201527f4e6f20617661696c61626c6520636172647320666f7220737761700000000000604082015260600190565b60208082526018908201527f47616d652068617320616c726561647920737461727465640000000000000000604082015260600190565b604080825260049082015263199bdb1960e21b6060820152602081019190915260800190565b60208082526017908201527f4d757374207065656b2061742063617264206669727374000000000000000000604082015260600190565b6040808252600490820152630737761760e41b6060820152602081019190915260800190565b6020808252600e908201526d4e6f74207065656b20706861736560901b604082015260600190565b6020808252600e908201526d11d85b59481b9bdd08199bdd5b9960921b604082015260600190565b60208082526010908201526f4e6f7420696e20746869732067616d6560801b604082015260600190565b60408082526003908201526218995d60ea1b6060820152602081019190915260800190565b60208082526009908201526811d85b5948199d5b1b60ba1b604082015260600190565b6040808252600590820152646c6561766560d81b6060820152602081019190915260800190565b6020808252600990820152682737ba1037bbb732b960b91b604082015260600190565b6020808252600d908201526c10995d081d1bdbc81cdb585b1b609a1b604082015260600190565b6020808252601a908201527f42657474696e67207068617365206e6f742066696e6973686564000000000000604082015260600190565b602080825260169082015275092dcecc2d8d2c840dccaee40c6c2e4c840d2dcc8caf60531b604082015260600190565b6040808252600490820152637065656b60e01b6060820152602081019190915260800190565b6020808252600e908201526d105b1c9958591e48199bdb19195960921b604082015260600190565b602080825260119082015270416c726561647920696e20612067616d6560781b604082015260600190565b60208082526017908201527f47616d6520616c726561647920636c65616e6564207570000000000000000000604082015260600190565b60208082526010908201526f2737ba1033b0b6b29031b932b0ba37b960811b604082015260600190565b6020808252600e908201526d105b1c9958591e481c19595ad95960921b604082015260600190565b60208082526019908201527f4e6577206361726420616c72656164792061737369676e656400000000000000604082015260600190565b60208082526014908201527311d85b5948185b1c9958591e481cdd185c9d195960621b604082015260600190565b6020808252600e908201526d11d85b59481b9bdd08195b99195960921b604082015260600190565b60208082526013908201527210995d1d1a5b99c81c1a185cd948195b991959606a1b604082015260600190565b60208082526017908201527f5065656b207068617365206e6f742066696e6973686564000000000000000000604082015260600190565b90815260200190565b60ff91909116815260200190565b60ff92831681529116602082015260400190565b6000821982111561342e5761342e613501565b500190565b60008282101561344557613445613501565b500390565b600060ff821660ff84168082101561346457613464613501565b90039392505050565b60008161347c5761347c613501565b506000190190565b600061ffff8083168181141561349c5761349c613501565b6001019392505050565b60006000198214156134ba576134ba613501565b5060010190565b600060ff821660ff8114156134d8576134d8613501565b60010192915050565b6000826134fc57634e487b7160e01b81526012600452602481fd5b500690565b634e487b7160e01b600052601160045260246000fdfef3d4f57e05aae06b4017c0b2ed81f62aa6f19deef046d6a78ad2a4223858c4f0a264697066735822122068e9aa47d11b68796542a148066a0bce6ead5705b991ccdb0734b622c52bcfd564736f6c63430008000033",
  "linkReferences": {},
  "deployedLinkReferences": {}
}