{
  "_format": "hh-sol-artifact-1",
  "contractName": "OneCard",
  "sourceName": "contracts/OneCard.sol",
  "abi": [
    {
      "inputs": [],
      "stateMutability": "nonpayable",
      "type": "constructor"
    },
    {
      "anonymous": false,
      "inputs": [
        {
          "indexed": true,
          "internalType": "address",
          "name": "player",
          "type": "address"
        },
        {
          "indexed": false,
          "internalType": "string",
          "name": "action",
          "type": "string"
        },
        {
          "indexed": false,
          "internalType": "uint256",
          "name": "amount",
          "type": "uint256"
        }
      ],
      "name": "BettingConfirmation",
      "type": "event"
    },
    {
      "anonymous": false,
      "inputs": [
        {
          "indexed": true,
          "internalType": "uint256",
          "name": "gameId",
          "type": "uint256"
        }
      ],
      "name": "BettingPhaseStarted",
      "type": "event"
    },
    {
      "anonymous": false,
      "inputs": [
        {
          "indexed": true,
          "internalType": "uint256",
          "name": "gameId",
          "type": "uint256"
        },
        {
          "indexed": false,
          "internalType": "enum GameLibrary.GameState",
          "name": "currentState",
          "type": "uint8"
        },
        {
          "indexed": false,
          "internalType": "enum GameLibrary.GameState",
          "name": "nextState",
          "type": "uint8"
        }
      ],
      "name": "BufferPeriodStarted",
      "type": "event"
    },
    {
      "anonymous": false,
      "inputs": [
        {
          "indexed": true,
          "internalType": "address",
          "name": "player",
          "type": "address"
        },
        {
          "indexed": false,
          "internalType": "uint8",
          "name": "value",
          "type": "uint8"
        },
        {
          "indexed": false,
          "internalType": "uint8",
          "name": "suit",
          "type": "uint8"
        }
      ],
      "name": "CardPeeked",
      "type": "event"
    },
    {
      "anonymous": false,
      "inputs": [
        {
          "indexed": true,
          "internalType": "address",
          "name": "player",
          "type": "address"
        },
        {
          "indexed": false,
          "internalType": "uint8",
          "name": "oldValue",
          "type": "uint8"
        },
        {
          "indexed": false,
          "internalType": "uint8",
          "name": "oldSuit",
          "type": "uint8"
        }
      ],
      "name": "CardSwapped",
      "type": "event"
    },
    {
      "anonymous": false,
      "inputs": [
        {
          "indexed": true,
          "internalType": "uint256",
          "name": "gameId",
          "type": "uint256"
        },
        {
          "indexed": false,
          "internalType": "address",
          "name": "keeper",
          "type": "address"
        }
      ],
      "name": "GameCreated",
      "type": "event"
    },
    {
      "anonymous": false,
      "inputs": [
        {
          "indexed": true,
          "internalType": "uint256",
          "name": "gameId",
          "type": "uint256"
        },
        {
          "indexed": false,
          "internalType": "address",
          "name": "winner",
          "type": "address"
        },
        {
          "indexed": false,
          "internalType": "uint256",
          "name": "potAmount",
          "type": "uint256"
        }
      ],
      "name": "GameEnded",
      "type": "event"
    },
    {
      "anonymous": false,
      "inputs": [
        {
          "indexed": true,
          "internalType": "uint256",
          "name": "gameId",
          "type": "uint256"
        }
      ],
      "name": "GameNoLongerSpectatable",
      "type": "event"
    },
    {
      "anonymous": false,
      "inputs": [
        {
          "indexed": true,
          "internalType": "uint256",
          "name": "gameId",
          "type": "uint256"
        },
        {
          "indexed": false,
          "internalType": "enum GameLibrary.GameState",
          "name": "state",
          "type": "uint8"
        },
        {
          "indexed": false,
          "internalType": "uint256",
          "name": "playerCount",
          "type": "uint256"
        }
      ],
      "name": "GameSpectatable",
      "type": "event"
    },
    {
      "anonymous": false,
      "inputs": [
        {
          "indexed": true,
          "internalType": "uint256",
          "name": "gameId",
          "type": "uint256"
        },
        {
          "indexed": false,
          "internalType": "enum GameLibrary.GameState",
          "name": "state",
          "type": "uint8"
        },
        {
          "indexed": false,
          "internalType": "uint256",
          "name": "potAmount",
          "type": "uint256"
        },
        {
          "indexed": false,
          "internalType": "uint256",
          "name": "currentBet",
          "type": "uint256"
        },
        {
          "indexed": false,
          "internalType": "uint256",
          "name": "stateVersion",
          "type": "uint256"
        }
      ],
      "name": "GameStateUpdated",
      "type": "event"
    },
    {
      "anonymous": false,
      "inputs": [
        {
          "indexed": true,
          "internalType": "uint256",
          "name": "gameId",
          "type": "uint256"
        }
      ],
      "name": "PeekPhaseStarted",
      "type": "event"
    },
    {
      "anonymous": false,
      "inputs": [
        {
          "indexed": true,
          "internalType": "uint256",
          "name": "gameId",
          "type": "uint256"
        },
        {
          "indexed": true,
          "internalType": "address",
          "name": "player",
          "type": "address"
        },
        {
          "indexed": false,
          "internalType": "string",
          "name": "action",
          "type": "string"
        },
        {
          "indexed": false,
          "internalType": "uint256",
          "name": "amount",
          "type": "uint256"
        },
        {
          "indexed": false,
          "internalType": "uint256",
          "name": "nonce",
          "type": "uint256"
        },
        {
          "indexed": false,
          "internalType": "string",
          "name": "rational",
          "type": "string"
        }
      ],
      "name": "PlayerActionDetails",
      "type": "event"
    },
    {
      "anonymous": false,
      "inputs": [
        {
          "indexed": true,
          "internalType": "uint256",
          "name": "gameId",
          "type": "uint256"
        },
        {
          "indexed": false,
          "internalType": "address",
          "name": "player",
          "type": "address"
        },
        {
          "indexed": false,
          "internalType": "string",
          "name": "actionType",
          "type": "string"
        }
      ],
      "name": "PlayerActionType",
      "type": "event"
    },
    {
      "anonymous": false,
      "inputs": [
        {
          "indexed": true,
          "internalType": "uint256",
          "name": "gameId",
          "type": "uint256"
        },
        {
          "indexed": false,
          "internalType": "address",
          "name": "player",
          "type": "address"
        }
      ],
      "name": "PlayerJoined",
      "type": "event"
    },
    {
      "anonymous": false,
      "inputs": [
        {
          "indexed": false,
          "internalType": "address[]",
          "name": "players",
          "type": "address[]"
        }
      ],
      "name": "PlayersRemovedFromWhitelist",
      "type": "event"
    },
    {
      "anonymous": false,
      "inputs": [
        {
          "indexed": false,
          "internalType": "address[]",
          "name": "players",
          "type": "address[]"
        }
      ],
      "name": "PlayersWhitelisted",
      "type": "event"
    },
    {
      "anonymous": false,
      "inputs": [
        {
          "indexed": true,
          "internalType": "uint256",
          "name": "gameId",
          "type": "uint256"
        }
      ],
      "name": "ShowdownStarted",
      "type": "event"
    },
    {
      "inputs": [
        {
          "internalType": "uint256",
          "name": "",
          "type": "uint256"
        }
      ],
      "name": "activeGames",
      "outputs": [
        {
          "internalType": "uint256",
          "name": "",
          "type": "uint256"
        }
      ],
      "stateMutability": "view",
      "type": "function"
    },
    {
      "inputs": [
        {
          "internalType": "address",
          "name": "keeper",
          "type": "address"
        }
      ],
      "name": "addKeeper",
      "outputs": [],
      "stateMutability": "nonpayable",
      "type": "function"
    },
    {
      "inputs": [
        {
          "internalType": "address[]",
          "name": "players",
          "type": "address[]"
        }
      ],
      "name": "addMultipleToWhitelist",
      "outputs": [],
      "stateMutability": "nonpayable",
      "type": "function"
    },
    {
      "inputs": [
        {
          "internalType": "uint256",
          "name": "gameId",
          "type": "uint256"
        },
        {
          "internalType": "address",
          "name": "player",
          "type": "address"
        }
      ],
      "name": "addPlayerToGame",
      "outputs": [],
      "stateMutability": "nonpayable",
      "type": "function"
    },
    {
      "inputs": [
        {
          "internalType": "uint256",
          "name": "gameId",
          "type": "uint256"
        }
      ],
      "name": "checkAllPlayersMatched",
      "outputs": [
        {
          "internalType": "bool",
          "name": "",
          "type": "bool"
        }
      ],
      "stateMutability": "view",
      "type": "function"
    },
    {
      "inputs": [
        {
          "internalType": "uint256",
          "name": "gameId",
          "type": "uint256"
        }
      ],
      "name": "cleanup",
      "outputs": [],
      "stateMutability": "nonpayable",
      "type": "function"
    },
    {
      "inputs": [],
      "name": "createGame",
      "outputs": [
        {
          "internalType": "uint256",
          "name": "",
          "type": "uint256"
        }
      ],
      "stateMutability": "nonpayable",
      "type": "function"
    },
    {
      "inputs": [],
      "name": "currentGameId",
      "outputs": [
        {
          "internalType": "uint256",
          "name": "",
          "type": "uint256"
        }
      ],
      "stateMutability": "view",
      "type": "function"
    },
    {
      "inputs": [
        {
          "internalType": "uint256",
          "name": "gameId",
          "type": "uint256"
        }
      ],
      "name": "endBettingPhase",
      "outputs": [],
      "stateMutability": "nonpayable",
      "type": "function"
    },
    {
      "inputs": [
        {
          "internalType": "uint256",
          "name": "gameId",
          "type": "uint256"
        }
      ],
      "name": "endPeekPhase",
      "outputs": [],
      "stateMutability": "nonpayable",
      "type": "function"
    },
    {
      "inputs": [
        {
          "internalType": "uint256",
          "name": "gameId",
          "type": "uint256"
        },
        {
          "internalType": "string",
          "name": "rational",
          "type": "string"
        }
      ],
      "name": "fold",
      "outputs": [],
      "stateMutability": "nonpayable",
      "type": "function"
    },
    {
      "inputs": [
        {
          "internalType": "uint256",
          "name": "gameId",
          "type": "uint256"
        }
      ],
      "name": "getActivePlayerCount",
      "outputs": [
        {
          "internalType": "uint256",
          "name": "",
          "type": "uint256"
        }
      ],
      "stateMutability": "view",
      "type": "function"
    },
    {
      "inputs": [
        {
          "internalType": "uint256",
          "name": "gameId",
          "type": "uint256"
        }
      ],
      "name": "getActivePlayers",
      "outputs": [
        {
          "internalType": "address[]",
          "name": "activePlayers",
          "type": "address[]"
        }
      ],
      "stateMutability": "view",
      "type": "function"
    },
    {
      "inputs": [
        {
          "internalType": "uint256",
          "name": "gameId",
          "type": "uint256"
        }
      ],
      "name": "getGameBasicInfo",
      "outputs": [
        {
          "internalType": "enum GameLibrary.GameState",
          "name": "state",
          "type": "uint8"
        },
        {
          "internalType": "uint256",
          "name": "potAmount",
          "type": "uint256"
        },
        {
          "internalType": "uint256",
          "name": "currentBet",
          "type": "uint256"
        },
        {
          "internalType": "uint256",
          "name": "phaseEndTime",
          "type": "uint256"
        },
        {
          "internalType": "uint256",
          "name": "bufferEndTime",
          "type": "uint256"
        },
        {
          "internalType": "uint256",
          "name": "playerCount",
          "type": "uint256"
        },
        {
          "internalType": "uint256",
          "name": "activeCount",
          "type": "uint256"
        },
        {
          "internalType": "uint256",
          "name": "stateVersion",
          "type": "uint256"
        },
        {
          "internalType": "bool",
          "name": "isCleanedUp",
          "type": "bool"
        }
      ],
      "stateMutability": "view",
      "type": "function"
    },
    {
      "inputs": [
        {
          "internalType": "uint256",
          "name": "gameId",
          "type": "uint256"
        }
      ],
      "name": "getGameInfo",
      "outputs": [
        {
          "internalType": "enum GameLibrary.GameState",
          "name": "state",
          "type": "uint8"
        },
        {
          "internalType": "uint256",
          "name": "potAmount",
          "type": "uint256"
        },
        {
          "internalType": "uint256",
          "name": "currentBet",
          "type": "uint256"
        },
        {
          "internalType": "uint256",
          "name": "phaseEndTime",
          "type": "uint256"
        },
        {
          "internalType": "uint256",
          "name": "bufferEndTime",
          "type": "uint256"
        },
        {
          "internalType": "uint256",
          "name": "remainingTime",
          "type": "uint256"
        },
        {
          "internalType": "uint256",
          "name": "playerCount",
          "type": "uint256"
        },
        {
          "internalType": "uint256",
          "name": "activeCount",
          "type": "uint256"
        },
        {
          "internalType": "address",
          "name": "gameKeeper",
          "type": "address"
        },
        {
          "internalType": "uint256",
          "name": "stateVersion",
          "type": "uint256"
        },
        {
          "internalType": "bool",
          "name": "isCleanedUp",
          "type": "bool"
        }
      ],
      "stateMutability": "view",
      "type": "function"
    },
    {
      "inputs": [
        {
          "internalType": "uint256",
          "name": "gameId",
          "type": "uint256"
        },
        {
          "internalType": "address",
          "name": "player",
          "type": "address"
        }
      ],
      "name": "getPlayerInfo",
      "outputs": [
        {
          "internalType": "bool",
          "name": "isActive",
          "type": "bool"
        },
        {
          "internalType": "bool",
          "name": "hasPeeked",
          "type": "bool"
        },
        {
          "internalType": "bool",
          "name": "hasSwappedCard",
          "type": "bool"
        },
        {
          "internalType": "bool",
          "name": "hasFolded",
          "type": "bool"
        },
        {
          "internalType": "uint256",
          "name": "chipBalance",
          "type": "uint256"
        },
        {
          "internalType": "uint256",
          "name": "currentBet",
          "type": "uint256"
        },
        {
          "internalType": "uint256",
          "name": "lastActionTime",
          "type": "uint256"
        },
        {
          "internalType": "uint256",
          "name": "actionNonce",
          "type": "uint256"
        },
        {
          "internalType": "string",
          "name": "lastActionRational",
          "type": "string"
        }
      ],
      "stateMutability": "view",
      "type": "function"
    },
    {
      "inputs": [
        {
          "internalType": "uint256",
          "name": "gameId",
          "type": "uint256"
        }
      ],
      "name": "getPlayers",
      "outputs": [
        {
          "internalType": "address[]",
          "name": "players",
          "type": "address[]"
        }
      ],
      "stateMutability": "view",
      "type": "function"
    },
    {
      "inputs": [
        {
          "internalType": "uint256",
          "name": "gameId",
          "type": "uint256"
        }
      ],
      "name": "getPlayersForSpectating",
      "outputs": [
        {
          "internalType": "address[]",
          "name": "playerAddresses",
          "type": "address[]"
        },
        {
          "internalType": "bool[]",
          "name": "playerActiveBits",
          "type": "bool[]"
        },
        {
          "internalType": "bool[]",
          "name": "playerFoldedBits",
          "type": "bool[]"
        },
        {
          "internalType": "uint256[]",
          "name": "playerChipBalances",
          "type": "uint256[]"
        },
        {
          "internalType": "uint256[]",
          "name": "playerCurrentBets",
          "type": "uint256[]"
        },
        {
          "internalType": "uint256[]",
          "name": "playerActionNonces",
          "type": "uint256[]"
        },
        {
          "internalType": "string[]",
          "name": "playerLastActionRationals",
          "type": "string[]"
        }
      ],
      "stateMutability": "view",
      "type": "function"
    },
    {
      "inputs": [
        {
          "internalType": "uint256",
          "name": "gameId",
          "type": "uint256"
        }
      ],
      "name": "getRevealedCardsForSpectating",
      "outputs": [
        {
          "internalType": "address[]",
          "name": "playerAddresses",
          "type": "address[]"
        },
        {
          "internalType": "uint8[]",
          "name": "cardValues",
          "type": "uint8[]"
        },
        {
          "internalType": "uint8[]",
          "name": "cardSuits",
          "type": "uint8[]"
        }
      ],
      "stateMutability": "view",
      "type": "function"
    },
    {
      "inputs": [
        {
          "internalType": "address",
          "name": "keeper",
          "type": "address"
        }
      ],
      "name": "isKeeper",
      "outputs": [
        {
          "internalType": "bool",
          "name": "",
          "type": "bool"
        }
      ],
      "stateMutability": "view",
      "type": "function"
    },
    {
      "inputs": [
        {
          "internalType": "uint256",
          "name": "gameId",
          "type": "uint256"
        }
      ],
      "name": "joinGame",
      "outputs": [],
      "stateMutability": "nonpayable",
      "type": "function"
    },
    {
      "inputs": [
        {
          "internalType": "uint256",
          "name": "gameId",
          "type": "uint256"
        },
        {
          "internalType": "string",
          "name": "rational",
          "type": "string"
        }
      ],
      "name": "leaveGame",
      "outputs": [],
      "stateMutability": "nonpayable",
      "type": "function"
    },
    {
      "inputs": [],
      "name": "owner",
      "outputs": [
        {
          "internalType": "address",
          "name": "",
          "type": "address"
        }
      ],
      "stateMutability": "view",
      "type": "function"
    },
    {
      "inputs": [
        {
          "internalType": "uint256",
          "name": "gameId",
          "type": "uint256"
        },
        {
          "internalType": "string",
          "name": "rational",
          "type": "string"
        }
      ],
      "name": "peekAtCard",
      "outputs": [],
      "stateMutability": "nonpayable",
      "type": "function"
    },
    {
      "inputs": [
        {
          "internalType": "uint256",
          "name": "gameId",
          "type": "uint256"
        },
        {
          "internalType": "uint256",
          "name": "betAmount",
          "type": "uint256"
        },
        {
          "internalType": "string",
          "name": "rational",
          "type": "string"
        }
      ],
      "name": "placeBet",
      "outputs": [],
      "stateMutability": "nonpayable",
      "type": "function"
    },
    {
      "inputs": [
        {
          "internalType": "address",
          "name": "",
          "type": "address"
        }
      ],
      "name": "playerCurrentGame",
      "outputs": [
        {
          "internalType": "uint256",
          "name": "",
          "type": "uint256"
        }
      ],
      "stateMutability": "view",
      "type": "function"
    },
    {
      "inputs": [
        {
          "internalType": "address",
          "name": "keeper",
          "type": "address"
        }
      ],
      "name": "removeKeeper",
      "outputs": [],
      "stateMutability": "nonpayable",
      "type": "function"
    },
    {
      "inputs": [
        {
          "internalType": "address[]",
          "name": "players",
          "type": "address[]"
        }
      ],
      "name": "removeMultipleFromWhitelist",
      "outputs": [],
      "stateMutability": "nonpayable",
      "type": "function"
    },
    {
      "inputs": [
        {
          "internalType": "address",
          "name": "_spectatorBettingContract",
          "type": "address"
        }
      ],
      "name": "setSpectatorBettingContract",
      "outputs": [],
      "stateMutability": "nonpayable",
      "type": "function"
    },
    {
      "inputs": [],
      "name": "spectatorBettingContract",
      "outputs": [
        {
          "internalType": "address",
          "name": "",
          "type": "address"
        }
      ],
      "stateMutability": "view",
      "type": "function"
    },
    {
      "inputs": [
        {
          "internalType": "uint256",
          "name": "gameId",
          "type": "uint256"
        }
      ],
      "name": "startPeekPhase",
      "outputs": [],
      "stateMutability": "nonpayable",
      "type": "function"
    },
    {
      "inputs": [
        {
          "internalType": "uint256",
          "name": "gameId",
          "type": "uint256"
        },
        {
          "internalType": "string",
          "name": "rational",
          "type": "string"
        }
      ],
      "name": "swapCard",
      "outputs": [],
      "stateMutability": "nonpayable",
      "type": "function"
    },
    {
      "inputs": [
        {
          "internalType": "address",
          "name": "",
          "type": "address"
        }
      ],
      "name": "whitelistedPlayers",
      "outputs": [
        {
          "internalType": "bool",
          "name": "",
          "type": "bool"
        }
      ],
      "stateMutability": "view",
      "type": "function"
    },
    {
      "inputs": [
        {
          "internalType": "uint256",
          "name": "",
          "type": "uint256"
        }
      ],
      "name": "whitelistedPlayersList",
      "outputs": [
        {
          "internalType": "address",
          "name": "",
          "type": "address"
        }
      ],
      "stateMutability": "view",
      "type": "function"
    }
  ],
  "bytecode": "0x60a060405234801561001057600080fd5b5033606081901b60805260008181526007602090815260408083208054600160ff199182168117909255928190529083208054909216811790915560028054918201815582527f405787fa12a823e0f2b7631cc41b3ba8828b3321ca811111fa75cd3aa3bb5ace0180546001600160a01b031916831790556155e690620000c4903960008181610b890152818161171001528181611baa01528181611d6a015281816128fc015261321001526155e66000f3fe608060405234801561001057600080fd5b50600436106102065760003560e01c80636ba42aaa1161011a578063cc12b4c8116100ad578063ef186e691161007c578063ef186e691461049e578063efaa55a0146104a6578063f0344e36146104b9578063f62a1a98146104e1578063fe972b5e146104f457610206565b8063cc12b4c814610452578063df9b0b7f14610465578063e63fd27f14610478578063ed732ddb1461048b57610206565b80639d36ac19116100e95780639d36ac19146103f35780639db800a614610406578063a410274c1461042c578063ba3a95201461043f57610206565b80636ba42aaa146103bd5780637255d729146103d05780638401f8d1146103d85780638da5cb5b146103eb57610206565b8063342ed9561161019d5780633e3c82e11161016c5780633e3c82e1146103455780634032b72b14610365578063460e20491461037857806347e1d5501461038b578063536a3ddc146103b557610206565b8063342ed956146102c857806335ac8a47146102e85780633a5ff2001461030a5780633ccd10e91461031d57610206565b806314ae9f2e116101d957806314ae9f2e1461026f57806315fcf900146102825780631f452a08146102a257806330be62b2146102b557610206565b8063097347641461020b5780630aa40018146102205780630b3dc5421461023357806313e4c71414610246575b600080fd5b61021e6102193660046146e2565b610507565b005b61021e61022e3660046146e2565b6106fa565b61021e610241366004614725565b6108e0565b6102596102543660046146e2565b610b5d565b60405161026691906153eb565b60405180910390f35b61021e61027d36600461465a565b610b7e565b61029561029036600461465a565b610be7565b6040516102669190614c01565b61021e6102b03660046146e2565b610bfc565b61021e6102c33660046146e2565b610e66565b6102db6102d63660046146e2565b610f7f565b6040516102669190614ad3565b6102fb6102f63660046146e2565b611103565b60405161026693929190614bbe565b61025961031836600461465a565b611535565b61033061032b3660046146fa565b611547565b60405161026699989796959493929190614c0c565b6103586103533660046146e2565b6116db565b60405161026691906149ab565b61021e61037336600461465a565b611705565b6102db6103863660046146e2565b611771565b61039e6103993660046146e2565b611811565b6040516102669b9a99989796959493929190614cc8565b610259611913565b6102956103cb36600461465a565b611919565b61025961193b565b61021e6103e6366004614674565b611b9f565b610358611d68565b61021e6104013660046146fa565b611d8c565b6104196104143660046146e2565b611f85565b6040516102669796959493929190614ae6565b61025961043a3660046146e2565b612471565b61029561044d3660046146e2565b6124b7565b61021e610460366004614725565b6125f4565b61021e61047336600461465a565b6128f1565b61021e610486366004614725565b61295b565b61021e61049936600461476e565b612c47565b610358612f98565b61021e6104b43660046146e2565b612fa7565b6104cc6104c73660046146e2565b613160565b60405161026699989796959493929190614d2f565b61021e6104ef366004614674565b613205565b61021e610502366004614725565b61335b565b3360009081526007602052604090205460ff1661053f5760405162461bcd60e51b815260040161053690614e9d565b60405180910390fd5b6000818152600460205260409020548190811461056e5760405162461bcd60e51b815260040161053690615080565b6000828152600460205260409020600d0154829060ff16156105a25760405162461bcd60e51b81526004016105369061529b565b600083815260046020526040902060018082015460ff1660048111156105d857634e487b7160e01b600052602160045260246000fd5b146105f55760405162461bcd60e51b815260040161053690615021565b80600a01544210156106195760405162461bcd60e51b8152600401610536906153b4565b610624601e4261541f565b600b82018190556106389061012c9061541f565b600a82015560018101805460ff191660021790556106558461363d565b837ff732482ea8c744f957ef9b24c1e98e8add28a3e5dc3deedc3e8419f527c19b9860016002604051610689929190614c69565b60405180910390a260078101546008820154600c8301546040518793600080516020615551833981519152936106c193600293614c9f565b60405180910390a260405184907f359ad7e63db5f06f70341a18e68dba0ef153ef9adbff2af9293fc13daf6fc09590600090a250505050565b3360009081526007602052604090205460ff166107295760405162461bcd60e51b815260040161053690614e9d565b600081815260046020526040902054819081146107585760405162461bcd60e51b815260040161053690615080565b6000828152600460205260409020600d0154829060ff161561078c5760405162461bcd60e51b81526004016105369061529b565b600083815260046020819052604090912090600182015460ff1660048111156107c557634e487b7160e01b600052602160045260246000fd5b146107e25760405162461bcd60e51b81526004016105369061535f565b60005b600282015481101561084b57600082600201828154811061081657634e487b7160e01b600052603260045260246000fd5b60009182526020808320909101546001600160a01b031682526005905260408120555080610843816154df565b9150506107e5565b50600d8101805460ff191660011790556108648461363d565b61086d84613657565b60405184907f35ea2f3c57b868de0f382fd562b24e0f9ef801f09c99190222df2cd1d4d6ddea90600090a2600181015460078201546008830154600c8401546040518894600080516020615551833981519152946108d29460ff909216939092614c9f565b60405180910390a250505050565b6000838152600460205260409020548390811461090f5760405162461bcd60e51b815260040161053690615080565b60008481526004602081815260408084203385529092019052902054849060ff1661094c5760405162461bcd60e51b815260040161053690614e46565b6000858152600460205260409020600b0154859042101561097f5760405162461bcd60e51b81526004016105369061512b565b6000868152600460205260409020600d0154869060ff16156109b35760405162461bcd60e51b81526004016105369061529b565b600087815260046020818152604080842033855292830190915290912060018083015460ff1660048111156109f857634e487b7160e01b600052602160045260246000fd5b14610a155760405162461bcd60e51b815260040161053690615021565b81600a01544210610a385760405162461bcd60e51b815260040161053690614de5565b8054610100900460ff16610a5e5760405162461bcd60e51b815260040161053690614fd8565b805462010000900460ff1615610a865760405162461bcd60e51b815260040161053690614dae565b600781600101541015610aab5760405162461bcd60e51b815260040161053690614e71565b60018082018054600619019055815462ff00001916620100001782554260038301556004820180549091019055610ae66005820189896144d6565b50610af1898261374d565b8860008051602061557183398151915233604051610b0f91906149e2565b60405180910390a2336001600160a01b031689600080516020615591833981519152600784600401548c8c604051610b4a949392919061500f565b60405180910390a3505050505050505050565b60068181548110610b6d57600080fd5b600091825260209091200154905081565b336001600160a01b037f00000000000000000000000000000000000000000000000000000000000000001614610bc65760405162461bcd60e51b815260040161053690615155565b6001600160a01b03166000908152600760205260409020805460ff19169055565b60016020526000908152604090205460ff1681565b3360009081526007602052604090205460ff16610c2b5760405162461bcd60e51b815260040161053690614e9d565b60008181526004602052604090205481908114610c5a5760405162461bcd60e51b815260040161053690615080565b6000828152600460205260409020600d0154829060ff1615610c8e5760405162461bcd60e51b81526004016105369061529b565b600083815260046020526040812090600182015460ff166004811115610cc457634e487b7160e01b600052602160045260246000fd5b14610ce15760405162461bcd60e51b815260040161053690614d7e565b6002818101541015610d055760405162461bcd60e51b815260040161053690614ef1565b6000546001600160a01b031615610d735760005460405163b4ad06a160e01b81526001600160a01b039091169063b4ad06a190610d469087906004016153eb565b600060405180830381600087803b158015610d6057600080fd5b505af1925050508015610d71575060015b505b610d7e601e4261541f565b600b8201819055610d919060789061541f565b600a8201556001808201805460ff19169091179055610daf8461392d565b610db884613abd565b610dc18461363d565b837ff732482ea8c744f957ef9b24c1e98e8add28a3e5dc3deedc3e8419f527c19b9860006001604051610df5929190614c69565b60405180910390a260078101546008820154600c830154604051879360008051602061555183398151915293610e2d93600193614c9f565b60405180910390a260405184907f1a2ba96bf245728c460e13d78a1591bcb45e67de1240b6654190f8c0bbdd070090600090a250505050565b3360009081526007602052604090205460ff16610e955760405162461bcd60e51b815260040161053690614e9d565b60008181526004602052604090205481908114610ec45760405162461bcd60e51b815260040161053690615080565b6000828152600460205260409020600d0154829060ff1615610ef85760405162461bcd60e51b81526004016105369061529b565b60008381526004602052604090206002600182015460ff166004811115610f2f57634e487b7160e01b600052602160045260246000fd5b14610f4c5760405162461bcd60e51b815260040161053690614f1a565b80600a0154421015610f705760405162461bcd60e51b81526004016105369061519f565b610f7984613b6d565b50505050565b60008181526004602052604090205460609082908114610fb15760405162461bcd60e51b815260040161053690615080565b600083815260046020526040902060038101546001600160401b03811115610fe957634e487b7160e01b600052604160045260246000fd5b604051908082528060200260200182016040528015611012578160200160208202803683370190505b50925080600301546000141561102857506110fd565b6000805b60028301548110156110f957600083600201828154811061105d57634e487b7160e01b600052603260045260246000fd5b60009182526020808320909101546001600160a01b03168083526004870190915260409091205490915060ff6301000000909104166110e657808684815181106110b757634e487b7160e01b600052603260045260246000fd5b6001600160a01b0390921660209283029190910190910152600384015460019093019283106110e657506110f9565b50806110f1816154df565b91505061102c565b5050505b50919050565b60008181526004602052604090205460609081908190849081146111395760405162461bcd60e51b815260040161053690615080565b60008581526004602052604090206003600182015460ff16600481111561117057634e487b7160e01b600052602160045260246000fd5b14806111a257506004600182015460ff1660048111156111a057634e487b7160e01b600052602160045260246000fd5b145b6111be5760405162461bcd60e51b8152600401610536906151d6565b60028101546001600160401b038111156111e857634e487b7160e01b600052604160045260246000fd5b604051908082528060200260200182016040528015611211578160200160208202803683370190505b5060028201549095506001600160401b0381111561123f57634e487b7160e01b600052604160045260246000fd5b604051908082528060200260200182016040528015611268578160200160208202803683370190505b5060028201549094506001600160401b0381111561129657634e487b7160e01b600052604160045260246000fd5b6040519080825280602002602001820160405280156112bf578160200160208202803683370190505b50925060005b600282015481101561152b5760008260020182815481106112f657634e487b7160e01b600052603260045260246000fd5b60009182526020808320909101546001600160a01b03168083526004860190915260409091205490915060ff630100000090910416156113e3578087838151811061135157634e487b7160e01b600052603260045260246000fd5b60200260200101906001600160a01b031690816001600160a01b031681525050600086838151811061139357634e487b7160e01b600052603260045260246000fd5b602002602001019060ff16908160ff168152505060008583815181106113c957634e487b7160e01b600052603260045260246000fd5b602002602001019060ff16908160ff168152505050611519565b6001600160a01b0381166000908152600484016020526040812054600585018054600160201b90920460ff1692918390811061142f57634e487b7160e01b600052603260045260246000fd5b60009182526020918290206040805180820190915291015460ff80821683526101009091041691810191909152895190915083908a908690811061148357634e487b7160e01b600052603260045260246000fd5b60200260200101906001600160a01b031690816001600160a01b03168152505080600001518885815181106114c857634e487b7160e01b600052603260045260246000fd5b602002602001019060ff16908160ff1681525050806020015187858151811061150157634e487b7160e01b600052603260045260246000fd5b602002602001019060ff16908160ff16815250505050505b80611523816154df565b9150506112c5565b5050509193909250565b60056020526000908152604090205481565b60008060008060008060008060608a8060046000838152602001908152602001600020600001541461158b5760405162461bcd60e51b815260040161053690615080565b6000600460008e8152602001908152602001600020905060008160040160008e6001600160a01b03166001600160a01b0316815260200190815260200160002090508060000160009054906101000a900460ff168160000160019054906101000a900460ff168260000160029054906101000a900460ff168360000160039054906101000a900460ff1684600101548560020154866003015487600401548860050180805461163990615488565b80601f016020809104026020016040519081016040528092919081815260200182805461166590615488565b80156116b25780601f10611687576101008083540402835291602001916116b2565b820191906000526020600020905b81548152906001019060200180831161169557829003601f168201915b505050505090509b509b509b509b509b509b509b509b509b505050509295985092959850929598565b600281815481106116eb57600080fd5b6000918252602090912001546001600160a01b0316905081565b336001600160a01b037f0000000000000000000000000000000000000000000000000000000000000000161461174d5760405162461bcd60e51b815260040161053690615155565b6001600160a01b03166000908152600760205260409020805460ff19166001179055565b600081815260046020526040902054606090829081146117a35760405162461bcd60e51b815260040161053690615080565b6000838152600460209081526040918290206002018054835181840281018401909452808452909183018282801561180457602002820191906000526020600020905b81546001600160a01b031681526001909101906020018083116117e6575b5050505050915050919050565b60008060008060008060008060008060008b806004600083815260200190815260200160002060000154146118585760405162461bcd60e51b815260040161053690615080565b60008d8152600460205260408120600a810154909190421015611888574282600a01546118859190615437565b90505b8160010160009054906101000a900460ff168260070154836008015484600a015485600b015485876002018054905088600301548960090160009054906101000a90046001600160a01b03168a600c01548b600d0160009054906101000a900460ff169d509d509d509d509d509d509d509d509d509d509d5050505091939597999b90929496989a50565b60035481565b6001600160a01b03811660009081526007602052604090205460ff165b919050565b3360009081526007602052604081205460ff1661196a5760405162461bcd60e51b815260040161053690614e9d565b600380546001908101808355600081815260046020526040808220838155808501805460ff199081169091556009820180546001600160a01b03191633908117909155968201849055600c8201869055600d8201805490911690556006805495860181559092527ff652222313e28459528d920b65115c16c04f3efc82aaedc97be59f3f377c0d3f9093018290559151909283917fc3e0f84839dc888c892a013d10c8f9d6dc05a21a879d0ce468ca558013e9121c91611a29916149ab565b60405180910390a2817ff8d27b7cf34386d5d1f7ad30b948b2c8e36bc20003707ce9463ab063cb1412fe600080604051611a64929190614c84565b60405180910390a26000546001600160a01b031615611ada5760005460405163396fc46f60e11b81526001600160a01b03909116906372df88de90611aad9085906004016153eb565b600060405180830381600087803b158015611ac757600080fd5b505af1925050508015611ad8575060015b505b60005b60025481108015611aee5750600581105b15611b9757600060028281548110611b1657634e487b7160e01b600052603260045260246000fd5b60009182526020808320909101546001600160a01b0316808352600190915260409091205490915060ff168015611b6357506001600160a01b038116600090815260056020526040902054155b15611b8457611b728482613bff565b6002830154600511611b845750611b97565b5080611b8f816154df565b915050611add565b509091505090565b336001600160a01b037f00000000000000000000000000000000000000000000000000000000000000001614611be75760405162461bcd60e51b815260040161053690615155565b60005b81811015611d2a5760016000848484818110611c1657634e487b7160e01b600052603260045260246000fd5b9050602002016020810190611c2b919061465a565b6001600160a01b0316815260208101919091526040016000205460ff16611d18576001806000858585818110611c7157634e487b7160e01b600052603260045260246000fd5b9050602002016020810190611c86919061465a565b6001600160a01b031681526020810191909152604001600020805460ff19169115159190911790556002838383818110611cd057634e487b7160e01b600052603260045260246000fd5b9050602002016020810190611ce5919061465a565b81546001810183556000928352602090922090910180546001600160a01b0319166001600160a01b039092169190911790555b80611d22816154df565b915050611bea565b507f1e9e37439d2273fafa47a6f54f27ffac0c65726bf94fd2846710e535902062ec8282604051611d5c929190614a87565b60405180910390a15050565b7f000000000000000000000000000000000000000000000000000000000000000090565b3360009081526007602052604090205460ff16611dbb5760405162461bcd60e51b815260040161053690614e9d565b60008281526004602052604090205482908114611dea5760405162461bcd60e51b815260040161053690615080565b6000838152600460205260409020600d0154839060ff1615611e1e5760405162461bcd60e51b81526004016105369061529b565b600084815260046020526040812090600182015460ff166004811115611e5457634e487b7160e01b600052602160045260246000fd5b14611e715760405162461bcd60e51b815260040161053690614d7e565b6002810154600511611e955760405162461bcd60e51b8152600401610536906150f6565b6001600160a01b03841660009081526005602052604090205415611ecb5760405162461bcd60e51b815260040161053690615049565b600281018054600180820183556000928352602080842090920180546001600160a01b0319166001600160a01b0389169081179091558352600480850183526040808520805460ff19168417815560198185015542600380830191909155928101869055600590945293849020899055840180549091019055905186907f87969bc7faf902221a147b95ceba76e011c5efb0339a0a8ee7a2bb82d9cfbbd690611f759088906149ab565b60405180910390a2505050505050565b60608060608060608060608780600460008381526020019081526020016000206000015414611fc65760405162461bcd60e51b815260040161053690615080565b60008981526004602090815260409182902060028101805484518185028101850190955280855291939192839083018282801561202c57602002820191906000526020600020905b81546001600160a01b0316815260019091019060200180831161200e575b50505050509950806001600160401b0381111561205957634e487b7160e01b600052604160045260246000fd5b604051908082528060200260200182016040528015612082578160200160208202803683370190505b509850806001600160401b038111156120ab57634e487b7160e01b600052604160045260246000fd5b6040519080825280602002602001820160405280156120d4578160200160208202803683370190505b509750806001600160401b038111156120fd57634e487b7160e01b600052604160045260246000fd5b604051908082528060200260200182016040528015612126578160200160208202803683370190505b509650806001600160401b0381111561214f57634e487b7160e01b600052604160045260246000fd5b604051908082528060200260200182016040528015612178578160200160208202803683370190505b509550806001600160401b038111156121a157634e487b7160e01b600052604160045260246000fd5b6040519080825280602002602001820160405280156121ca578160200160208202803683370190505b509450806001600160401b038111156121f357634e487b7160e01b600052604160045260246000fd5b60405190808252806020026020018201604052801561222657816020015b60608152602001906001900390816122115790505b50935060005b818110156124625760008b828151811061225657634e487b7160e01b600052603260045260246000fd5b6020908102919091018101516001600160a01b038116600090815260048701909252604090912080548d51929350909160ff909116908d90859081106122ac57634e487b7160e01b600052603260045260246000fd5b6020026020010190151590811515815250508060000160039054906101000a900460ff168b84815181106122f057634e487b7160e01b600052603260045260246000fd5b60200260200101901515908115158152505080600101548a848151811061232757634e487b7160e01b600052603260045260246000fd5b602002602001018181525050806002015489848151811061235857634e487b7160e01b600052603260045260246000fd5b602002602001018181525050806004015488848151811061238957634e487b7160e01b600052603260045260246000fd5b6020026020010181815250508060050180546123a490615488565b80601f01602080910402602001604051908101604052809291908181526020018280546123d090615488565b801561241d5780601f106123f25761010080835404028352916020019161241d565b820191906000526020600020905b81548152906001019060200180831161240057829003601f168201915b505050505087848151811061244257634e487b7160e01b600052603260045260246000fd5b60200260200101819052505050808061245a906154df565b91505061222c565b50505050919395979092949650565b600081815260046020526040812054829081146124a05760405162461bcd60e51b815260040161053690615080565b505060009081526004602052604090206003015490565b600081815260046020526040812054829081146124e65760405162461bcd60e51b815260040161053690615080565b60008381526004602052604090206002600182015460ff16600481111561251d57634e487b7160e01b600052602160045260246000fd5b1461252c5760009250506110fd565b60005b60028201548110156125e957600082600201828154811061256057634e487b7160e01b600052603260045260246000fd5b60009182526020808320909101546001600160a01b03168083526004860190915260409091205490915060ff630100000090910416156125a057506125d7565b60088301546001600160a01b038216600090815260048501602052604090206002015410156125d557600094505050506110fd565b505b806125e1816154df565b91505061252f565b506001949350505050565b600083815260046020526040902054839081146126235760405162461bcd60e51b815260040161053690615080565b6000848152600460205260409020600d0154849060ff16156126575760405162461bcd60e51b81526004016105369061529b565b60008581526004602081815260408084203385529283019091529091205460ff166126945760405162461bcd60e51b8152600401610536906150a8565b6000600182015460ff1660048111156126bd57634e487b7160e01b600052602160045260246000fd5b146126da5760405162461bcd60e51b815260040161053690615331565b60005b600282015481101561282557336001600160a01b031682600201828154811061271657634e487b7160e01b600052603260045260246000fd5b6000918252602090912001546001600160a01b031614156128135760028201805461274390600190615437565b8154811061276157634e487b7160e01b600052603260045260246000fd5b6000918252602090912001546002830180546001600160a01b03909216918390811061279d57634e487b7160e01b600052603260045260246000fd5b9060005260206000200160006101000a8154816001600160a01b0302191690836001600160a01b03160217905550816002018054806127ec57634e487b7160e01b600052603160045260246000fd5b600082815260209020810160001990810180546001600160a01b0319169055019055612825565b8061281d816154df565b9150506126dd565b5060038082018054600019019055336000908152600480840160205260408220805464ffffffffff1916815560018101839055600281018390559283018290558201819055612877600583018261455a565b50503360008181526005602052604080822091909155518791600080516020615571833981519152916128aa9190614a28565b60405180910390a2336001600160a01b03168660008051602061559183398151915260008089896040516128e19493929190615119565b60405180910390a3505050505050565b336001600160a01b037f000000000000000000000000000000000000000000000000000000000000000016146129395760405162461bcd60e51b815260040161053690615155565b600080546001600160a01b0319166001600160a01b0392909216919091179055565b6000838152600460205260409020548390811461298a5760405162461bcd60e51b815260040161053690615080565b60008481526004602081815260408084203385529092019052902054849060ff166129c75760405162461bcd60e51b815260040161053690614e46565b6000858152600460205260409020600b015485904210156129fa5760405162461bcd60e51b81526004016105369061512b565b6000868152600460205260409020600d0154869060ff1615612a2e5760405162461bcd60e51b81526004016105369061529b565b600087815260046020818152604080842033855292830190915290912060018083015460ff166004811115612a7357634e487b7160e01b600052602160045260246000fd5b14612a905760405162461bcd60e51b815260040161053690615021565b81600a01544210612ab35760405162461bcd60e51b815260040161053690614de5565b8054610100900460ff1615612ada5760405162461bcd60e51b8152600401610536906152d2565b600581600101541015612aff5760405162461bcd60e51b815260040161053690614e71565b60018082018054600419019055815461ff0019166101001782554260038301556004820180549091019055612b386005820189896144d6565b508054600583018054600160201b90920460ff16916000919083908110612b6f57634e487b7160e01b600052603260045260246000fd5b6000918252602091829020604080518082018252929091015460ff80821680855261010090920416938301849052905191935033927fbdf2f0687b7c6f0b8dde29a86969ba9a1e60ce7d560dc87e0bc637aead3a8c1c92612bd192919061540b565b60405180910390a28a60008051602061557183398151915233604051612bf79190614a4b565b60405180910390a2336001600160a01b03168b600080516020615591833981519152600586600401548e8e604051612c329493929190615236565b60405180910390a35050505050505050505050565b60008481526004602052604090205484908114612c765760405162461bcd60e51b815260040161053690615080565b60008581526004602081815260408084203385529092019052902054859060ff16612cb35760405162461bcd60e51b815260040161053690614e46565b6000868152600460205260409020600b01548690421015612ce65760405162461bcd60e51b81526004016105369061512b565b6000878152600460205260409020600d0154879060ff1615612d1a5760405162461bcd60e51b81526004016105369061529b565b60008881526004602081815260408084203385529283019091529091206002600183015460ff166004811115612d6057634e487b7160e01b600052602160045260246000fd5b14612d7d5760405162461bcd60e51b815260040161053690614f1a565b81600a01544210612da05760405162461bcd60e51b815260040161053690615387565b80546301000000900460ff1615612dc95760405162461bcd60e51b815260040161053690615248565b6001891015612dea5760405162461bcd60e51b815260040161053690615178565b600882015415612e2e57600081600201548360080154612e0a9190615437565b9050808a1015612e2c5760405162461bcd60e51b815260040161053690614ec1565b505b8881600101541015612e525760405162461bcd60e51b815260040161053690614e71565b6004810180546001019055612e6b6005820189896144d6565b506001810180548a900390556002810180548a0181556007830180548b019055426003830155600883015490541115612ea957600281015460088301555b8960008051602061557183398151915233604051612ec79190614a05565b60405180910390a2336001600160a01b03167f11eec890507507c368d59150c4fa973b573525a6356c31e1602dc63a0350f3d18a604051612f0891906150d2565b60405180910390a2336001600160a01b03168a6000805160206155918339815191528b84600401548c8c604051612f4294939291906150e4565b60405180910390a3600182015460078301546008840154600c8501546040518e9460008051602061555183398151915294612f849460ff909216939092614c9f565b60405180910390a250505050505050505050565b6000546001600160a01b031681565b60008181526004602052604090205481908114612fd65760405162461bcd60e51b815260040161053690615080565b6000828152600460205260409020600d0154829060ff161561300a5760405162461bcd60e51b81526004016105369061529b565b600083815260046020526040812090600182015460ff16600481111561304057634e487b7160e01b600052602160045260246000fd5b1461305d5760405162461bcd60e51b815260040161053690614d7e565b60028101546005116130815760405162461bcd60e51b8152600401610536906150f6565b33600090815260056020526040902054156130ae5760405162461bcd60e51b815260040161053690615270565b600281018054600181810183556000928352602080842090920180546001600160a01b03191633908117909155808452600480860184526040808620805460ff19168517815560198186015542600380830191909155928101879055600590955294859020899055850180549092019091559151909186917f87969bc7faf902221a147b95ceba76e011c5efb0339a0a8ee7a2bb82d9cfbbd691613151916149ab565b60405180910390a25050505050565b600080600080600080600080600089806004600083815260200190815260200160002060000154146131a45760405162461bcd60e51b815260040161053690615080565b50505060009788525050600460205250506040909320600181015460078201546008830154600a840154600b85015460028601546003870154600c880154600d9098015460ff9788169c969b50949950929750909590949193909290911690565b336001600160a01b037f0000000000000000000000000000000000000000000000000000000000000000161461324d5760405162461bcd60e51b815260040161053690615155565b60005b81811015613329576001600084848481811061327c57634e487b7160e01b600052603260045260246000fd5b9050602002016020810190613291919061465a565b6001600160a01b0316815260208101919091526040016000205460ff1615613317576000600160008585858181106132d957634e487b7160e01b600052603260045260246000fd5b90506020020160208101906132ee919061465a565b6001600160a01b031681526020810191909152604001600020805460ff19169115159190911790555b80613321816154df565b915050613250565b507fa907e2461cc5dad6c99bdb07ff6b11dafdf6752f8a1377e2070277d17d5e7f758282604051611d5c929190614a87565b6000838152600460205260409020548390811461338a5760405162461bcd60e51b815260040161053690615080565b60008481526004602081815260408084203385529092019052902054849060ff166133c75760405162461bcd60e51b815260040161053690614e46565b6000858152600460205260409020600b015485904210156133fa5760405162461bcd60e51b81526004016105369061512b565b6000868152600460205260409020600d0154869060ff161561342e5760405162461bcd60e51b81526004016105369061529b565b60008781526004602081815260408084203385529283019091529091206002600183015460ff16600481111561347457634e487b7160e01b600052602160045260246000fd5b146134915760405162461bcd60e51b815260040161053690614f1a565b81600a015442106134b45760405162461bcd60e51b815260040161053690615387565b80546301000000900460ff16156134dd5760405162461bcd60e51b815260040161053690615248565b60048101805460010190556134f66005820189896144d6565b50805463ff00000019166301000000178155426003808301919091558201805460001901905560405189906000805160206155718339815191529061353c9033906149bf565b60405180910390a2336001600160a01b03167f11eec890507507c368d59150c4fa973b573525a6356c31e1602dc63a0350f3d1600060405161357e9190614f7c565b60405180910390a2336001600160a01b031689600080516020615591833981519152600084600401548c8c6040516135b99493929190614f9c565b60405180910390a3600182015460078301546008840154600c8501546040518d94600080516020615551833981519152946135fb9460ff909216939092614c9f565b60405180910390a281600301546001141561363257600061361b8a613cda565b90506136268a613b6d565b6136308a82613d8a565b505b505050505050505050565b6000908152600460205260409020600c0180546001019055565b60005b60065481101561374957816006828154811061368657634e487b7160e01b600052603260045260246000fd5b9060005260206000200154141561373757600680546136a790600190615437565b815481106136c557634e487b7160e01b600052603260045260246000fd5b9060005260206000200154600682815481106136f157634e487b7160e01b600052603260045260246000fd5b600091825260209091200155600680548061371c57634e487b7160e01b600052603160045260246000fd5b60019003818190600052602060002001600090559055613749565b80613741816154df565b91505061365a565b5050565b600082815260046020526040812082546005820180549293600160201b90920460ff16928390811061378f57634e487b7160e01b600052603260045260246000fd5b60009182526020918290206040805180820190915291015460ff8082168352610100909104169181019190915290506137c88583613ed1565b60006137d386613f06565b905060008160ff161180156137eb5750603460ff8216105b6138075760405162461bcd60e51b815260040161053690615206565b613811868261404d565b1561382e5760405162461bcd60e51b8152600401610536906152fa565b6138388682614070565b845464ff000000001916600160201b60ff831690810291909117865560058501805460009290811061387a57634e487b7160e01b600052603260045260246000fd5b6000918252602091829020604080518082018252919092015460ff80821683526101009091041681840152855192860151915190935033927ffe748e915fede39fa62e562b277b19d5408ca26cfe0ab02ebf5c36861ccbb88b926138dd9261540b565b60405180910390a28051602082015160405133927fbdf2f0687b7c6f0b8dde29a86969ba9a1e60ce7d560dc87e0bc637aead3a8c1c9261391c9261540b565b60405180910390a250505050505050565b60008181526004602052604081209061394a906005830190614599565b6040805160348082526106a08201909252600091816020015b61396b6145b7565b8152602001906001900390816139635790505090506000805b60048160ff161015613a1b5760025b600e8160ff1611613a085760405180604001604052808260ff1681526020018360ff16815250848460ff16815181106139dc57634e487b7160e01b600052603260045260246000fd5b602002602001018190525082806139f2906154fa565b9350508080613a00906154fa565b915050613993565b5080613a13816154fa565b915050613984565b506000613a278361408c565b905060005b6034811015613ab55784600501828281518110613a5957634e487b7160e01b600052603260045260246000fd5b6020908102919091018101518254600181018455600093845292829020815193018054919092015160ff9081166101000261ff00199190941660ff19909216919091171691909117905580613aad816154df565b915050613a2c565b505050505050565b6000818152600460205260409020613ad4826141b6565b60005b6002820154811015613b68576000826002018281548110613b0857634e487b7160e01b600052603260045260246000fd5b6000918252602080832091909101546001600160a01b0316808352600486019091526040909120805464ff000000001916600160201b60ff861602179055905081613b538582614070565b50508080613b60906154df565b915050613ad7565b505050565b600081815260046020526040902060018101805460ff19166003179055613b938261363d565b60405182907fcfeaa304021cfd684ad30c51a76ffd4139eb4b36c6e97d94cce4df46b71ee97790600090a260078101546008820154600c830154604051859360008051602061555183398151915293613bee93600393614c9f565b60405180910390a2613749826141d3565b60008281526004602090815260408083206001600160a01b038516845260059092529091205415613c305750613749565b600281018054600180820183556000928352602080842090920180546001600160a01b0319166001600160a01b0387169081179091558352600480850183526040808520805460ff19168417815560198185015542600380830191909155928101869055600590945293849020879055840180549091019055905184907f87969bc7faf902221a147b95ceba76e011c5efb0339a0a8ee7a2bb82d9cfbbd6906108d29086906149ab565b6000818152600460205260408120815b6002820154811015613d71576000826002018281548110613d1b57634e487b7160e01b600052603260045260246000fd5b60009182526020808320909101546001600160a01b03168083526004860190915260409091205490915060ff630100000090910416613d5e579250611936915050565b5080613d69816154df565b915050613cea565b5060405162461bcd60e51b815260040161053690614e0f565b600082815260046020818152604080842060078101546001600160a01b03871686528185019093529320600190810180549092019091558201805460ff19169091179055613dd78361363d565b600781015460405184907ff1898de79c348962fab7695532341027e5bceb0ea2a8785790fa7d7efeeee12990613e109086908590614a6e565b60405180910390a283600080516020615551833981519152600483856008015486600c0154604051613e459493929190614c9f565b60405180910390a26000546001600160a01b031615613ebd57600054604051637a0e360560e11b81526001600160a01b039091169063f41c6c0a90613e9090879087906004016153f4565b600060405180830381600087803b158015613eaa57600080fd5b505af1925050508015613ebb575060015b505b506000600782018190556008909101555050565b600082815260046020526040902060060154613eed9082614341565b6000928352600460205260409092206006019190915550565b6000818152600460209081526040808320815160348082526106a0820190935290928492908201610680803683370190505090506000805b600584015460ff82161015613fb257613f57868261404d565b613fa05780838361ffff1681518110613f8057634e487b7160e01b600052603260045260246000fd5b60ff9092166020928302919091019091015281613f9c816154bd565b9250505b80613faa816154fa565b915050613f3e565b5060008161ffff1611613fd75760405162461bcd60e51b815260040161053690614f45565b60008161ffff164442604051602001613ff192919061499d565b6040516020818303038152906040528051906020012060001c614014919061551a565b9050828161ffff168151811061403a57634e487b7160e01b600052603260045260246000fd5b6020026020010151945050505050919050565b600082815260046020526040812060060154614069908361434f565b9392505050565b600082815260046020526040902060060154613eed908261435e565b606044600061409d6001603461544e565b60ff1690505b80156141ae5760006140b682600161541f565b83836040516020016140c992919061499d565b6040516020818303038152906040528051906020012060001c6140ec919061551a565b9050600085838151811061411057634e487b7160e01b600052603260045260246000fd5b6020026020010151905085828151811061413a57634e487b7160e01b600052603260045260246000fd5b602002602001015186848151811061416257634e487b7160e01b600052603260045260246000fd5b60200260200101819052508086838151811061418e57634e487b7160e01b600052603260045260246000fd5b6020026020010181905250505080806141a690615471565b9150506140a3565b509192915050565b6141be61436b565b60009182526004602052604090912060060155565b6000818152600460205260408120906141eb83614370565b905060005b600283015481101561433657600083600201828154811061422157634e487b7160e01b600052603260045260246000fd5b60009182526020808320909101546001600160a01b03168083526004870190915260409091205490915060ff630100000090910416156142615750614324565b6001600160a01b0381166000908152600485016020526040812054600586018054600160201b90920460ff169291839081106142ad57634e487b7160e01b600052603260045260246000fd5b6000918252602091829020604080518082018252929091015460ff8082168085526101009092041693830184905290519193506001600160a01b038616927fbdf2f0687b7c6f0b8dde29a86969ba9a1e60ce7d560dc87e0bc637aead3a8c1c9261431892919061540b565b60405180910390a25050505b8061432e816154df565b9150506141f0565b50613b688382613d8a565b600160ff919091161b191690565b600160ff919091161b16151590565b600160ff919091161b1790565b600090565b6000818152600460205260408120818080805b60028501548110156144cb5760008560020182815481106143b457634e487b7160e01b600052603260045260246000fd5b60009182526020808320909101546001600160a01b03168083526004890190915260409091205490915060ff630100000090910416156143f457506144b9565b6001600160a01b0381166000908152600487016020526040812054600588018054600160201b90920460ff1692918390811061444057634e487b7160e01b600052603260045260246000fd5b60009182526020918290206040805180820190915291015460ff808216808452610100909204811693830193909352909250908716108061449e57508560ff16816000015160ff1614801561449e57508460ff16816020015160ff16115b156144b55780600001519550806020015194508296505b5050505b806144c3816154df565b915050614383565b509195945050505050565b8280546144e290615488565b90600052602060002090601f016020900481019282614504576000855561454a565b82601f1061451d5782800160ff1982351617855561454a565b8280016001018555821561454a579182015b8281111561454a57823582559160200191906001019061452f565b506145569291506145ce565b5090565b50805461456690615488565b6000825580601f106145785750614596565b601f01602090049060005260206000209081019061459691906145ce565b50565b508054600082559060005260206000209081019061459691906145e3565b604080518082019091526000808252602082015290565b5b8082111561455657600081556001016145cf565b5b8082111561455657805461ffff191681556001016145e4565b80356001600160a01b038116811461193657600080fd5b60008083601f840112614625578182fd5b5081356001600160401b0381111561463b578182fd5b60208301915083602082850101111561465357600080fd5b9250929050565b60006020828403121561466b578081fd5b614069826145fd565b60008060208385031215614686578081fd5b82356001600160401b038082111561469c578283fd5b818501915085601f8301126146af578283fd5b8135818111156146bd578384fd5b86602080830285010111156146d0578384fd5b60209290920196919550909350505050565b6000602082840312156146f3578081fd5b5035919050565b6000806040838503121561470c578182fd5b8235915061471c602084016145fd565b90509250929050565b600080600060408486031215614739578081fd5b8335925060208401356001600160401b03811115614755578182fd5b61476186828701614614565b9497909650939450505050565b60008060008060608587031215614783578081fd5b843593506020850135925060408501356001600160401b038111156147a6578182fd5b6147b287828801614614565b95989497509550505050565b6000815180845260208085019450808401835b838110156147f65781516001600160a01b0316875295820195908201906001016147d1565b509495945050505050565b6000815180845260208085019450808401835b838110156147f6578151151587529582019590820190600101614814565b6000815180845260208085019450808401835b838110156147f657815187529582019590820190600101614845565b6000815180845260208085019450808401835b838110156147f657815160ff1687529582019590820190600101614874565b600581106148b157634e487b7160e01b600052602160045260246000fd5b9052565b60008284528282602086013780602084860101526020601f19601f85011685010190509392505050565b60008151808452815b81811015614904576020818501810151868301820152016148e8565b818111156149155782602083870101525b50601f01601f19169290920160200192915050565b6004815263199bdb1960e21b602082015260400190565b60048152630737761760e41b602082015260400190565b600381526218995d60ea1b602082015260400190565b60058152646c6561766560d81b602082015260400190565b60048152637065656b60e01b602082015260400190565b918252602082015260400190565b6001600160a01b0391909116815260200190565b6001600160a01b038216815260406020820181905260009061406990830161492a565b6001600160a01b0382168152604060208201819052600090614069908301614941565b6001600160a01b0382168152604060208201819052600090614069908301614958565b6001600160a01b038216815260406020820181905260009061406990830161496e565b6001600160a01b0382168152604060208201819052600090614069908301614986565b6001600160a01b03929092168252602082015260400190565b60208082528181018390526000908460408401835b86811015614ac8576001600160a01b03614ab5846145fd565b1682529183019190830190600101614a9c565b509695505050505050565b60006020825261406960208301846147be565b600060e08252614af960e083018a6147be565b602083820381850152614b0c828b614801565b91508382036040850152614b20828a614801565b91508382036060850152614b348289614832565b91508382036080850152614b488288614832565b915083820360a0850152614b5c8287614832565b84810360c086015285518082529092508183019082810284018301838801865b83811015614baa57601f19878403018552614b988383516148df565b94860194925090850190600101614b7c565b50909e9d5050505050505050505050505050565b600060608252614bd160608301866147be565b8281036020840152614be38186614861565b90508281036040840152614bf78185614861565b9695505050505050565b901515815260200190565b60006101208b151583528a15156020840152891515604084015288151560608401528760808401528660a08401528560c08401528460e084015280610100840152614c59818401856148df565b9c9b505050505050505050505050565b60408101614c778285614893565b6140696020830184614893565b60408101614c928285614893565b8260208301529392505050565b60808101614cad8287614893565b84602083015283604083015282606083015295945050505050565b6101608101614cd7828e614893565b602082019b909b5260408101999099526060890197909752608088019590955260a087019390935260c086019190915260e08501526001600160a01b0316610100840152610120830152151561014090910152919050565b6101208101614d3e828c614893565b602082019990995260408101979097526060870195909552608086019390935260a085019190915260c084015260e0830152151561010090910152919050565b6020808252601690820152754e6f7420726567697374726174696f6e20737461746560501b604082015260600190565b60208082526018908201527f416c726561647920757365642073776170206f7074696f6e0000000000000000604082015260600190565b60208082526010908201526f1419595ac81c1a185cd948195b99195960821b604082015260600190565b60208082526017908201527f4e6f2061637469766520706c617965727320666f756e64000000000000000000604082015260600190565b6020808252601190820152702737ba1030b1ba34bb3290383630bcb2b960791b604082015260600190565b602080825260129082015271496e73756666696369656e7420636869707360701b604082015260600190565b6020808252600a90820152692737ba1035b2b2b832b960b11b604082015260600190565b602080825260169082015275135d5cdd081b585d18da0818dd5c9c995b9d0818995d60521b604082015260600190565b6020808252600f908201526e4e65656420322b20706c617965727360881b604082015260600190565b6020808252601190820152704e6f742062657474696e6720706861736560781b604082015260600190565b6020808252601b908201527f4e6f20617661696c61626c6520636172647320666f7220737761700000000000604082015260600190565b600060408252614f8e6040830161492a565b905082602083015292915050565b600060808252614fae6080830161492a565b8660208401528560408401528281036060840152614fcd8185876148b5565b979650505050505050565b60208082526017908201527f4d757374207065656b2061742063617264206669727374000000000000000000604082015260600190565b600060808252614fae60808301614941565b6020808252600e908201526d4e6f74207065656b20706861736560901b604082015260600190565b60208082526018908201527f506c6179657220616c726561647920696e20612067616d650000000000000000604082015260600190565b6020808252600e908201526d11d85b59481b9bdd08199bdd5b9960921b604082015260600190565b60208082526010908201526f4e6f7420696e20746869732067616d6560801b604082015260600190565b600060408252614f8e60408301614958565b600060808252614fae60808301614958565b60208082526009908201526811d85b5948199d5b1b60ba1b604082015260600190565b600060808252614fae6080830161496e565b60208082526010908201526f125b88189d5999995c881c195c9a5bd960821b604082015260600190565b6020808252600990820152682737ba1037bbb732b960b91b604082015260600190565b6020808252600d908201526c10995d081d1bdbc81cdb585b1b609a1b604082015260600190565b6020808252601a908201527f42657474696e67207068617365206e6f742066696e6973686564000000000000604082015260600190565b60208082526016908201527510d85c991cc81b9bdd081e595d081c995d99585b195960521b604082015260600190565b602080825260169082015275092dcecc2d8d2c840dccaee40c6c2e4c840d2dcc8caf60531b604082015260600190565b600060808252614fae60808301614986565b6020808252600e908201526d105b1c9958591e48199bdb19195960921b604082015260600190565b602080825260119082015270416c726561647920696e20612067616d6560781b604082015260600190565b60208082526017908201527f47616d6520616c726561647920636c65616e6564207570000000000000000000604082015260600190565b6020808252600e908201526d105b1c9958591e481c19595ad95960921b604082015260600190565b60208082526019908201527f4e6577206361726420616c72656164792061737369676e656400000000000000604082015260600190565b60208082526014908201527311d85b5948185b1c9958591e481cdd185c9d195960621b604082015260600190565b6020808252600e908201526d11d85b59481b9bdd08195b99195960921b604082015260600190565b60208082526013908201527210995d1d1a5b99c81c1a185cd948195b991959606a1b604082015260600190565b60208082526017908201527f5065656b207068617365206e6f742066696e6973686564000000000000000000604082015260600190565b90815260200190565b9182526001600160a01b0316602082015260400190565b60ff92831681529116602082015260400190565b600082198211156154325761543261553a565b500190565b6000828210156154495761544961553a565b500390565b600060ff821660ff8416808210156154685761546861553a565b90039392505050565b6000816154805761548061553a565b506000190190565b60028104600182168061549c57607f821691505b602082108114156110fd57634e487b7160e01b600052602260045260246000fd5b600061ffff808316818114156154d5576154d561553a565b6001019392505050565b60006000198214156154f3576154f361553a565b5060010190565b600060ff821660ff8114156155115761551161553a565b60010192915050565b60008261553557634e487b7160e01b81526012600452602481fd5b500690565b634e487b7160e01b600052601160045260246000fdfe0607341721701a494da2223ee353609ce7a0d98c9c7a4f0d8f7e88da11755e8cc8c533d58ab15c7c763b7ce25fa59ea14e1e15f754349115d7cb245c559c3f94dbaaccdafebddfa37c81fb24ea4f86f8ab56bff529b624d84cd15018dbf37ddea2646970667358221220b5f4897289405c7d3a8aa12a0539f082b0d428b22f45f9fab414dddac4fb3b7764736f6c63430008000033",
  "linkReferences": {},
  "deployedLinkReferences": {}
}