{
  "_format": "hh-sol-artifact-1",
  "contractName": "OneCard",
  "sourceName": "contracts/OneCard.sol",
  "abi": [
    {
      "inputs": [],
      "stateMutability": "nonpayable",
      "type": "constructor"
    },
    {
      "anonymous": false,
      "inputs": [
        {
          "indexed": true,
          "internalType": "uint256",
          "name": "gameId",
          "type": "uint256"
        }
      ],
      "name": "BettingPhaseStarted",
      "type": "event"
    },
    {
      "anonymous": false,
      "inputs": [
        {
          "indexed": true,
          "internalType": "uint256",
          "name": "gameId",
          "type": "uint256"
        },
        {
          "indexed": false,
          "internalType": "enum GameLibrary.GameState",
          "name": "currentState",
          "type": "uint8"
        },
        {
          "indexed": false,
          "internalType": "enum GameLibrary.GameState",
          "name": "nextState",
          "type": "uint8"
        }
      ],
      "name": "BufferPeriodStarted",
      "type": "event"
    },
    {
      "anonymous": false,
      "inputs": [
        {
          "indexed": true,
          "internalType": "address",
          "name": "player",
          "type": "address"
        },
        {
          "indexed": false,
          "internalType": "uint8",
          "name": "value",
          "type": "uint8"
        },
        {
          "indexed": false,
          "internalType": "uint8",
          "name": "suit",
          "type": "uint8"
        }
      ],
      "name": "CardRevealed",
      "type": "event"
    },
    {
      "anonymous": false,
      "inputs": [
        {
          "indexed": true,
          "internalType": "uint256",
          "name": "gameId",
          "type": "uint256"
        },
        {
          "indexed": false,
          "internalType": "address",
          "name": "keeper",
          "type": "address"
        }
      ],
      "name": "GameCreated",
      "type": "event"
    },
    {
      "anonymous": false,
      "inputs": [
        {
          "indexed": true,
          "internalType": "uint256",
          "name": "gameId",
          "type": "uint256"
        },
        {
          "indexed": true,
          "internalType": "address",
          "name": "winner",
          "type": "address"
        },
        {
          "indexed": false,
          "internalType": "uint256",
          "name": "potAmount",
          "type": "uint256"
        }
      ],
      "name": "GameEnded",
      "type": "event"
    },
    {
      "anonymous": false,
      "inputs": [
        {
          "indexed": true,
          "internalType": "uint256",
          "name": "gameId",
          "type": "uint256"
        }
      ],
      "name": "GameNoLongerSpectatable",
      "type": "event"
    },
    {
      "anonymous": false,
      "inputs": [
        {
          "indexed": true,
          "internalType": "uint256",
          "name": "gameId",
          "type": "uint256"
        },
        {
          "indexed": false,
          "internalType": "enum GameLibrary.GameState",
          "name": "state",
          "type": "uint8"
        },
        {
          "indexed": false,
          "internalType": "uint256",
          "name": "playerCount",
          "type": "uint256"
        }
      ],
      "name": "GameSpectatable",
      "type": "event"
    },
    {
      "anonymous": false,
      "inputs": [
        {
          "indexed": true,
          "internalType": "uint256",
          "name": "gameId",
          "type": "uint256"
        },
        {
          "indexed": false,
          "internalType": "enum GameLibrary.GameState",
          "name": "state",
          "type": "uint8"
        },
        {
          "indexed": false,
          "internalType": "uint256",
          "name": "potAmount",
          "type": "uint256"
        },
        {
          "indexed": false,
          "internalType": "uint256",
          "name": "currentBet",
          "type": "uint256"
        },
        {
          "indexed": false,
          "internalType": "uint256",
          "name": "stateVersion",
          "type": "uint256"
        }
      ],
      "name": "GameStateUpdated",
      "type": "event"
    },
    {
      "anonymous": false,
      "inputs": [
        {
          "indexed": true,
          "internalType": "address",
          "name": "player",
          "type": "address"
        },
        {
          "indexed": false,
          "internalType": "uint8[]",
          "name": "values",
          "type": "uint8[]"
        },
        {
          "indexed": false,
          "internalType": "uint8[]",
          "name": "suits",
          "type": "uint8[]"
        }
      ],
      "name": "MontyHallCardsRevealed",
      "type": "event"
    },
    {
      "anonymous": false,
      "inputs": [
        {
          "indexed": true,
          "internalType": "address",
          "name": "player",
          "type": "address"
        },
        {
          "indexed": false,
          "internalType": "uint8",
          "name": "oldValue",
          "type": "uint8"
        },
        {
          "indexed": false,
          "internalType": "uint8",
          "name": "oldSuit",
          "type": "uint8"
        },
        {
          "indexed": false,
          "internalType": "uint8",
          "name": "newValue",
          "type": "uint8"
        },
        {
          "indexed": false,
          "internalType": "uint8",
          "name": "newSuit",
          "type": "uint8"
        }
      ],
      "name": "MontyHallSwapResult",
      "type": "event"
    },
    {
      "anonymous": false,
      "inputs": [
        {
          "indexed": true,
          "internalType": "uint256",
          "name": "gameId",
          "type": "uint256"
        }
      ],
      "name": "PeekPhaseStarted",
      "type": "event"
    },
    {
      "anonymous": false,
      "inputs": [
        {
          "indexed": true,
          "internalType": "uint256",
          "name": "gameId",
          "type": "uint256"
        },
        {
          "indexed": true,
          "internalType": "address",
          "name": "player",
          "type": "address"
        },
        {
          "indexed": false,
          "internalType": "string",
          "name": "action",
          "type": "string"
        },
        {
          "indexed": false,
          "internalType": "uint256",
          "name": "amount",
          "type": "uint256"
        },
        {
          "indexed": false,
          "internalType": "uint256",
          "name": "nonce",
          "type": "uint256"
        }
      ],
      "name": "PlayerAction",
      "type": "event"
    },
    {
      "anonymous": false,
      "inputs": [
        {
          "indexed": true,
          "internalType": "uint256",
          "name": "gameId",
          "type": "uint256"
        },
        {
          "indexed": true,
          "internalType": "address",
          "name": "player",
          "type": "address"
        }
      ],
      "name": "PlayerJoined",
      "type": "event"
    },
    {
      "anonymous": false,
      "inputs": [
        {
          "indexed": false,
          "internalType": "address[]",
          "name": "players",
          "type": "address[]"
        }
      ],
      "name": "PlayersRemovedFromWhitelist",
      "type": "event"
    },
    {
      "anonymous": false,
      "inputs": [
        {
          "indexed": false,
          "internalType": "address[]",
          "name": "players",
          "type": "address[]"
        }
      ],
      "name": "PlayersWhitelisted",
      "type": "event"
    },
    {
      "anonymous": false,
      "inputs": [
        {
          "indexed": true,
          "internalType": "uint256",
          "name": "gameId",
          "type": "uint256"
        }
      ],
      "name": "ShowdownStarted",
      "type": "event"
    },
    {
      "inputs": [
        {
          "internalType": "address",
          "name": "keeper",
          "type": "address"
        }
      ],
      "name": "addKeeper",
      "outputs": [],
      "stateMutability": "nonpayable",
      "type": "function"
    },
    {
      "inputs": [
        {
          "internalType": "address[]",
          "name": "players",
          "type": "address[]"
        }
      ],
      "name": "addMultipleToWhitelist",
      "outputs": [],
      "stateMutability": "nonpayable",
      "type": "function"
    },
    {
      "inputs": [
        {
          "internalType": "uint256",
          "name": "gameId",
          "type": "uint256"
        },
        {
          "internalType": "address",
          "name": "player",
          "type": "address"
        }
      ],
      "name": "addPlayerToGame",
      "outputs": [],
      "stateMutability": "nonpayable",
      "type": "function"
    },
    {
      "inputs": [
        {
          "internalType": "uint256",
          "name": "gameId",
          "type": "uint256"
        }
      ],
      "name": "checkAllPlayersMatched",
      "outputs": [
        {
          "internalType": "bool",
          "name": "",
          "type": "bool"
        }
      ],
      "stateMutability": "view",
      "type": "function"
    },
    {
      "inputs": [
        {
          "internalType": "uint256",
          "name": "gameId",
          "type": "uint256"
        }
      ],
      "name": "cleanup",
      "outputs": [],
      "stateMutability": "nonpayable",
      "type": "function"
    },
    {
      "inputs": [],
      "name": "createGame",
      "outputs": [
        {
          "internalType": "uint256",
          "name": "",
          "type": "uint256"
        }
      ],
      "stateMutability": "nonpayable",
      "type": "function"
    },
    {
      "inputs": [
        {
          "internalType": "uint256",
          "name": "gameId",
          "type": "uint256"
        }
      ],
      "name": "endBettingPhase",
      "outputs": [],
      "stateMutability": "nonpayable",
      "type": "function"
    },
    {
      "inputs": [
        {
          "internalType": "uint256",
          "name": "gameId",
          "type": "uint256"
        }
      ],
      "name": "endPeekPhase",
      "outputs": [],
      "stateMutability": "nonpayable",
      "type": "function"
    },
    {
      "inputs": [
        {
          "internalType": "uint256",
          "name": "gameId",
          "type": "uint256"
        }
      ],
      "name": "fold",
      "outputs": [],
      "stateMutability": "nonpayable",
      "type": "function"
    },
    {
      "inputs": [],
      "name": "getActiveGames",
      "outputs": [
        {
          "internalType": "uint256[]",
          "name": "",
          "type": "uint256[]"
        }
      ],
      "stateMutability": "view",
      "type": "function"
    },
    {
      "inputs": [
        {
          "internalType": "uint256",
          "name": "gameId",
          "type": "uint256"
        }
      ],
      "name": "getActivePlayerCount",
      "outputs": [
        {
          "internalType": "uint256",
          "name": "",
          "type": "uint256"
        }
      ],
      "stateMutability": "view",
      "type": "function"
    },
    {
      "inputs": [
        {
          "internalType": "uint256",
          "name": "gameId",
          "type": "uint256"
        }
      ],
      "name": "getActivePlayers",
      "outputs": [
        {
          "internalType": "address[]",
          "name": "activePlayers",
          "type": "address[]"
        }
      ],
      "stateMutability": "view",
      "type": "function"
    },
    {
      "inputs": [
        {
          "internalType": "uint256",
          "name": "gameId",
          "type": "uint256"
        }
      ],
      "name": "getGameBasicInfo",
      "outputs": [
        {
          "internalType": "enum GameLibrary.GameState",
          "name": "state",
          "type": "uint8"
        },
        {
          "internalType": "uint256",
          "name": "potAmount",
          "type": "uint256"
        },
        {
          "internalType": "uint256",
          "name": "currentBet",
          "type": "uint256"
        },
        {
          "internalType": "uint256",
          "name": "phaseEndTime",
          "type": "uint256"
        },
        {
          "internalType": "uint256",
          "name": "bufferEndTime",
          "type": "uint256"
        },
        {
          "internalType": "uint256",
          "name": "playerCount",
          "type": "uint256"
        },
        {
          "internalType": "uint256",
          "name": "activeCount",
          "type": "uint256"
        },
        {
          "internalType": "uint256",
          "name": "stateVersion",
          "type": "uint256"
        },
        {
          "internalType": "bool",
          "name": "isCleanedUp",
          "type": "bool"
        }
      ],
      "stateMutability": "view",
      "type": "function"
    },
    {
      "inputs": [
        {
          "internalType": "uint256",
          "name": "gameId",
          "type": "uint256"
        }
      ],
      "name": "getGameInfo",
      "outputs": [
        {
          "internalType": "enum GameLibrary.GameState",
          "name": "state",
          "type": "uint8"
        },
        {
          "internalType": "uint256",
          "name": "potAmount",
          "type": "uint256"
        },
        {
          "internalType": "uint256",
          "name": "currentBet",
          "type": "uint256"
        },
        {
          "internalType": "uint256",
          "name": "phaseEndTime",
          "type": "uint256"
        },
        {
          "internalType": "uint256",
          "name": "bufferEndTime",
          "type": "uint256"
        },
        {
          "internalType": "uint256",
          "name": "remainingTime",
          "type": "uint256"
        },
        {
          "internalType": "uint256",
          "name": "playerCount",
          "type": "uint256"
        },
        {
          "internalType": "uint256",
          "name": "activeCount",
          "type": "uint256"
        },
        {
          "internalType": "address",
          "name": "gameKeeper",
          "type": "address"
        },
        {
          "internalType": "uint256",
          "name": "stateVersion",
          "type": "uint256"
        },
        {
          "internalType": "bool",
          "name": "isCleanedUp",
          "type": "bool"
        }
      ],
      "stateMutability": "view",
      "type": "function"
    },
    {
      "inputs": [
        {
          "internalType": "uint256",
          "name": "gameId",
          "type": "uint256"
        },
        {
          "internalType": "address",
          "name": "player",
          "type": "address"
        }
      ],
      "name": "getPlayerInfo",
      "outputs": [
        {
          "internalType": "bool",
          "name": "isActive",
          "type": "bool"
        },
        {
          "internalType": "bool",
          "name": "hasPeeked",
          "type": "bool"
        },
        {
          "internalType": "bool",
          "name": "usedMontyHall",
          "type": "bool"
        },
        {
          "internalType": "bool",
          "name": "hasFolded",
          "type": "bool"
        },
        {
          "internalType": "uint256",
          "name": "chipBalance",
          "type": "uint256"
        },
        {
          "internalType": "uint256",
          "name": "currentBet",
          "type": "uint256"
        },
        {
          "internalType": "uint256",
          "name": "lastActionTime",
          "type": "uint256"
        },
        {
          "internalType": "uint256",
          "name": "actionNonce",
          "type": "uint256"
        }
      ],
      "stateMutability": "view",
      "type": "function"
    },
    {
      "inputs": [
        {
          "internalType": "uint256",
          "name": "gameId",
          "type": "uint256"
        }
      ],
      "name": "getPlayers",
      "outputs": [
        {
          "internalType": "address[]",
          "name": "players",
          "type": "address[]"
        }
      ],
      "stateMutability": "view",
      "type": "function"
    },
    {
      "inputs": [
        {
          "internalType": "uint256",
          "name": "gameId",
          "type": "uint256"
        }
      ],
      "name": "getPlayersForSpectating",
      "outputs": [
        {
          "internalType": "address[]",
          "name": "playerAddresses",
          "type": "address[]"
        },
        {
          "internalType": "bool[]",
          "name": "playerActiveBits",
          "type": "bool[]"
        },
        {
          "internalType": "bool[]",
          "name": "playerFoldedBits",
          "type": "bool[]"
        },
        {
          "internalType": "uint256[]",
          "name": "playerChipBalances",
          "type": "uint256[]"
        },
        {
          "internalType": "uint256[]",
          "name": "playerCurrentBets",
          "type": "uint256[]"
        },
        {
          "internalType": "uint256[]",
          "name": "playerActionNonces",
          "type": "uint256[]"
        }
      ],
      "stateMutability": "view",
      "type": "function"
    },
    {
      "inputs": [
        {
          "internalType": "uint256",
          "name": "gameId",
          "type": "uint256"
        }
      ],
      "name": "getRevealedCardsForSpectating",
      "outputs": [
        {
          "internalType": "address[]",
          "name": "playerAddresses",
          "type": "address[]"
        },
        {
          "internalType": "uint8[]",
          "name": "cardValues",
          "type": "uint8[]"
        },
        {
          "internalType": "uint8[]",
          "name": "cardSuits",
          "type": "uint8[]"
        }
      ],
      "stateMutability": "view",
      "type": "function"
    },
    {
      "inputs": [
        {
          "internalType": "address",
          "name": "keeper",
          "type": "address"
        }
      ],
      "name": "isKeeper",
      "outputs": [
        {
          "internalType": "bool",
          "name": "",
          "type": "bool"
        }
      ],
      "stateMutability": "view",
      "type": "function"
    },
    {
      "inputs": [
        {
          "internalType": "address",
          "name": "player",
          "type": "address"
        }
      ],
      "name": "isWhitelisted",
      "outputs": [
        {
          "internalType": "bool",
          "name": "",
          "type": "bool"
        }
      ],
      "stateMutability": "view",
      "type": "function"
    },
    {
      "inputs": [
        {
          "internalType": "uint256",
          "name": "gameId",
          "type": "uint256"
        }
      ],
      "name": "joinGame",
      "outputs": [],
      "stateMutability": "nonpayable",
      "type": "function"
    },
    {
      "inputs": [
        {
          "internalType": "uint256",
          "name": "gameId",
          "type": "uint256"
        }
      ],
      "name": "leaveGame",
      "outputs": [],
      "stateMutability": "nonpayable",
      "type": "function"
    },
    {
      "inputs": [
        {
          "internalType": "uint256",
          "name": "gameId",
          "type": "uint256"
        },
        {
          "internalType": "bool",
          "name": "swapCard",
          "type": "bool"
        }
      ],
      "name": "montyHallDecision",
      "outputs": [],
      "stateMutability": "nonpayable",
      "type": "function"
    },
    {
      "inputs": [],
      "name": "owner",
      "outputs": [
        {
          "internalType": "address",
          "name": "",
          "type": "address"
        }
      ],
      "stateMutability": "view",
      "type": "function"
    },
    {
      "inputs": [
        {
          "internalType": "uint256",
          "name": "gameId",
          "type": "uint256"
        }
      ],
      "name": "peekAtCard",
      "outputs": [],
      "stateMutability": "nonpayable",
      "type": "function"
    },
    {
      "inputs": [
        {
          "internalType": "uint256",
          "name": "gameId",
          "type": "uint256"
        },
        {
          "internalType": "uint256",
          "name": "betAmount",
          "type": "uint256"
        }
      ],
      "name": "placeBet",
      "outputs": [],
      "stateMutability": "nonpayable",
      "type": "function"
    },
    {
      "inputs": [
        {
          "internalType": "address",
          "name": "keeper",
          "type": "address"
        }
      ],
      "name": "removeKeeper",
      "outputs": [],
      "stateMutability": "nonpayable",
      "type": "function"
    },
    {
      "inputs": [
        {
          "internalType": "address[]",
          "name": "players",
          "type": "address[]"
        }
      ],
      "name": "removeMultipleFromWhitelist",
      "outputs": [],
      "stateMutability": "nonpayable",
      "type": "function"
    },
    {
      "inputs": [
        {
          "internalType": "address",
          "name": "_spectatorBettingContract",
          "type": "address"
        }
      ],
      "name": "setSpectatorBettingContract",
      "outputs": [],
      "stateMutability": "nonpayable",
      "type": "function"
    },
    {
      "inputs": [],
      "name": "spectatorBettingContract",
      "outputs": [
        {
          "internalType": "address",
          "name": "",
          "type": "address"
        }
      ],
      "stateMutability": "view",
      "type": "function"
    },
    {
      "inputs": [
        {
          "internalType": "uint256",
          "name": "gameId",
          "type": "uint256"
        }
      ],
      "name": "startPeekPhase",
      "outputs": [],
      "stateMutability": "nonpayable",
      "type": "function"
    },
    {
      "inputs": [
        {
          "internalType": "uint256",
          "name": "gameId",
          "type": "uint256"
        }
      ],
      "name": "useMontyHallOption",
      "outputs": [],
      "stateMutability": "nonpayable",
      "type": "function"
    }
  ],
  "bytecode": "0x60a060405234801561001057600080fd5b5033606081901b60805260008181526007602090815260408083208054600160ff199182168117909255928190529083208054909216811790915560028054918201815582527f405787fa12a823e0f2b7631cc41b3ba8828b3321ca811111fa75cd3aa3bb5ace0180546001600160a01b031916831790556158f890620000c4903960008181610cdd01528181611d1d01528181612483015281816126430152818161347e015261374701526158f86000f3fe608060405234801561001057600080fd5b50600436106101f05760003560e01c80634afe62b51161010f578063b419f9ab116100a2578063ef186e6911610071578063ef186e6914610480578063efaa55a014610488578063f0344e361461049b578063f62a1a98146104c3576101f0565b8063b419f9ab14610434578063ba3a952014610447578063bff7a00b1461045a578063df9b0b7f1461046d576101f0565b80638da5cb5b116100de5780638da5cb5b146103d45780639d36ac19146103e95780639db800a6146103fc578063a410274c14610421576101f0565b80634afe62b5146103865780636ba42aaa146103995780637255d729146103ac5780638401f8d1146103c1576101f0565b8063342ed956116101875780633feef58a116101565780633feef58a146103235780634032b72b14610336578063460e20491461034957806347e1d5501461035c576101f0565b8063342ed9561461029a57806335ac8a47146102ba5780633af32abf146102dc5780633ccd10e9146102fc576101f0565b80631b76929c116101c35780631b76929c146102435780631f452a081461026157806330be62b214610274578063318ff5d114610287576101f0565b806301e09cd8146101f5578063097347641461020a5780630aa400181461021d57806314ae9f2e14610230575b600080fd5b610208610203366004614ad6565b6104d6565b005b610208610218366004614a93565b610902565b61020861022b366004614a93565b610aec565b61020861023e366004614a0a565b610cd2565b61024b610d3b565b6040516102589190614d8a565b60405180910390f35b61020861026f366004614a93565b610d93565b610208610282366004614a93565b611006565b610208610295366004614a93565b61111f565b6102ad6102a8366004614a93565b6113d0565b6040516102589190614cb2565b6102cd6102c8366004614a93565b611555565b60405161025893929190614d47565b6102ef6102ea366004614a0a565b61198a565b6040516102589190614dcb565b61030f61030a366004614aab565b6119ac565b604051610258989796959493929190614dd6565b610208610331366004614a93565b611a5e565b610208610344366004614a0a565b611d12565b6102ad610357366004614a93565b611d7e565b61036f61036a366004614a93565b611e1e565b6040516102589b9a99989796959493929190614e6d565b610208610394366004614b09565b611f20565b6102ef6103a7366004614a0a565b6121f6565b6103b4612214565b60405161025891906156ec565b6102086103cf366004614a24565b612478565b6103dc612641565b6040516102589190614c52565b6102086103f7366004614aab565b612665565b61040f61040a366004614a93565b612852565b60405161025896959493929190614cc5565b6103b461042f366004614a93565b612c2b565b610208610442366004614a93565b612c71565b6102ef610455366004614a93565b6130dd565b610208610468366004614a93565b61321a565b61020861047b366004614a0a565b613473565b6103dc6134dd565b610208610496366004614a93565b6134ec565b6104ae6104a9366004614a93565b613697565b60405161025899989796959493929190614ed4565b6102086104d1366004614a24565b61373c565b6000828152600460205260409020548290811461050e5760405162461bcd60e51b8152600401610505906152b4565b60405180910390fd5b60008381526004602081815260408084203385529092019052902054839060ff1661054b5760405162461bcd60e51b81526004016105059061504f565b6000848152600460205260409020600c0154849042101561057e5760405162461bcd60e51b8152600401610505906153ae565b6000858152600460205260409020600e0154859060ff16156105b25760405162461bcd60e51b81526004016105059061559c565b600086815260046020818152604080842033855292830190915290912060018083015460ff1660048111156105f757634e487b7160e01b600052602160045260246000fd5b146106145760405162461bcd60e51b815260040161050590615255565b81600b015442106106375760405162461bcd60e51b815260040161050590614fb9565b805462010000900460ff1661065e5760405162461bcd60e51b815260040161050590614f52565b6004810180546001019055866106ac57426003820155600481015460405133918a916000805160206158a38339815191529161069d9160009190615306565b60405180910390a350506108fa565b8054600583018054600160201b90920460ff169160009190839081106106e257634e487b7160e01b600052603260045260246000fd5b60009182526020918290206040805180820190915291015460ff80821683526101009091041691810191909152905061071b8a83613892565b60006107268b6138c7565b905060008160ff1611801561073e5750603460ff8216105b61075a5760405162461bcd60e51b8152600401610505906154be565b6107648b82613a23565b156107815760405162461bcd60e51b8152600401610505906155fb565b61078b8b82613a46565b156107a85760405162461bcd60e51b8152600401610505906151f3565b6107b28b82613a62565b835464ff000000001916600160201b60ff83169081029190911785554260038601556005860180546000929081106107fa57634e487b7160e01b600052603260045260246000fd5b6000918252602091829020604080518082018252929091015460ff80821680855261010090920416838501819052875194880151925193955033947fcb7b1c01ca784066a42b03d3c78f5f655174c000da4c11e15ff44c5e56fb237494610865949193919290615720565b60405180910390a28454610100900460ff16156108bc578051602082015160405133927fe1299f54cce9bbbb7b050a7a2e071f3272e75f57d041e1cfb8cc88969634cf06926108b39261570c565b60405180910390a25b336001600160a01b03168c6000805160206158a3833981519152600088600401546040516108eb929190614f23565b60405180910390a35050505050505b505050505050565b3360009081526007602052604090205460ff166109315760405162461bcd60e51b8152600401610505906150dd565b600081815260046020526040902054819081146109605760405162461bcd60e51b8152600401610505906152b4565b6000828152600460205260409020600e0154829060ff16156109945760405162461bcd60e51b81526004016105059061559c565b600083815260046020526040902060018082015460ff1660048111156109ca57634e487b7160e01b600052602160045260246000fd5b146109e75760405162461bcd60e51b815260040161050590615255565b80600b0154421015610a0b5760405162461bcd60e51b8152600401610505906156b5565b610a16601e42615745565b600c8201819055610a2a9061012c90615745565b600b82015560018101805460ff19166002179055610a4784613a7e565b837ff732482ea8c744f957ef9b24c1e98e8add28a3e5dc3deedc3e8419f527c19b9860016002604051610a7b929190614e0e565b60405180910390a260088101546009820154600d830154604051879360008051602061588383398151915293610ab393600293614e44565b60405180910390a260405184907f359ad7e63db5f06f70341a18e68dba0ef153ef9adbff2af9293fc13daf6fc09590600090a250505050565b3360009081526007602052604090205460ff16610b1b5760405162461bcd60e51b8152600401610505906150dd565b60008181526004602052604090205481908114610b4a5760405162461bcd60e51b8152600401610505906152b4565b6000828152600460205260409020600e0154829060ff1615610b7e5760405162461bcd60e51b81526004016105059061559c565b600083815260046020819052604090912090600182015460ff166004811115610bb757634e487b7160e01b600052602160045260246000fd5b14610bd45760405162461bcd60e51b815260040161050590615660565b60005b6002820154811015610c3d576000826002018281548110610c0857634e487b7160e01b600052603260045260246000fd5b60009182526020808320909101546001600160a01b031682526005905260408120555080610c3581615811565b915050610bd7565b50600e8101805460ff19166001179055610c5684613a7e565b610c5f84613a98565b60405184907f35ea2f3c57b868de0f382fd562b24e0f9ef801f09c99190222df2cd1d4d6ddea90600090a2600181015460088201546009830154600d840154604051889460008051602061588383398151915294610cc49460ff909216939092614e44565b60405180910390a250505050565b336001600160a01b037f00000000000000000000000000000000000000000000000000000000000000001614610d1a5760405162461bcd60e51b8152600401610505906153d8565b6001600160a01b03166000908152600760205260409020805460ff19169055565b60606006805480602002602001604051908101604052809291908181526020018280548015610d8957602002820191906000526020600020905b815481526020019060010190808311610d75575b5050505050905090565b3360009081526007602052604090205460ff16610dc25760405162461bcd60e51b8152600401610505906150dd565b60008181526004602052604090205481908114610df15760405162461bcd60e51b8152600401610505906152b4565b6000828152600460205260409020600e0154829060ff1615610e255760405162461bcd60e51b81526004016105059061559c565b600083815260046020526040812090600182015460ff166004811115610e5b57634e487b7160e01b600052602160045260246000fd5b14610e785760405162461bcd60e51b815260040161050590614f89565b6002818101541015610e9c5760405162461bcd60e51b815260040161050590615168565b6000546001600160a01b031615610f0a5760005460405163b4ad06a160e01b81526001600160a01b039091169063b4ad06a190610edd9087906004016156ec565b600060405180830381600087803b158015610ef757600080fd5b505af1925050508015610f08575060015b505b610f15601e42615745565b600c8201819055610f2890607890615745565b600b8201556001808201805460ff19169091179055610f4684613b8e565b610f4f84613d16565b610f5884613dc6565b610f6184613a7e565b837ff732482ea8c744f957ef9b24c1e98e8add28a3e5dc3deedc3e8419f527c19b9860006001604051610f95929190614e0e565b60405180910390a260088101546009820154600d830154604051879360008051602061588383398151915293610fcd93600193614e44565b60405180910390a260405184907f1a2ba96bf245728c460e13d78a1591bcb45e67de1240b6654190f8c0bbdd070090600090a250505050565b3360009081526007602052604090205460ff166110355760405162461bcd60e51b8152600401610505906150dd565b600081815260046020526040902054819081146110645760405162461bcd60e51b8152600401610505906152b4565b6000828152600460205260409020600e0154829060ff16156110985760405162461bcd60e51b81526004016105059061559c565b60008381526004602052604090206002600182015460ff1660048111156110cf57634e487b7160e01b600052602160045260246000fd5b146110ec5760405162461bcd60e51b815260040161050590615191565b80600b01544210156111105760405162461bcd60e51b815260040161050590615457565b61111984613de3565b50505050565b6000818152600460205260409020548190811461114e5760405162461bcd60e51b8152600401610505906152b4565b60008281526004602081815260408084203385529092019052902054829060ff1661118b5760405162461bcd60e51b81526004016105059061504f565b6000838152600460205260409020600c015483904210156111be5760405162461bcd60e51b8152600401610505906153ae565b6000848152600460205260409020600e0154849060ff16156111f25760405162461bcd60e51b81526004016105059061559c565b600085815260046020818152604080842033855292830190915290912060018083015460ff16600481111561123757634e487b7160e01b600052602160045260246000fd5b146112545760405162461bcd60e51b815260040161050590615255565b81600b015442106112775760405162461bcd60e51b815260040161050590614fb9565b8054610100900460ff161561129e5760405162461bcd60e51b8152600401610505906155d3565b6005816001015410156112c35760405162461bcd60e51b8152600401610505906150b1565b60018082018054600419019055815461ff00191661010017808355426003840155600483018054909201909155600583018054600160201b90920460ff1691600091908390811061132457634e487b7160e01b600052603260045260246000fd5b6000918252602091829020604080518082018252929091015460ff80821680855261010090920416938301849052905191935033927fe1299f54cce9bbbb7b050a7a2e071f3272e75f57d041e1cfb8cc88969634cf069261138692919061570c565b60405180910390a2336001600160a01b0316896000805160206158a3833981519152600586600401546040516113bd9291906154ee565b60405180910390a3505050505050505050565b600081815260046020526040902054606090829081146114025760405162461bcd60e51b8152600401610505906152b4565b6000838152600460205260409020600381015467ffffffffffffffff81111561143b57634e487b7160e01b600052604160045260246000fd5b604051908082528060200260200182016040528015611464578160200160208202803683370190505b50925080600301546000141561147a575061154f565b6000805b600283015481101561154b5760008360020182815481106114af57634e487b7160e01b600052603260045260246000fd5b60009182526020808320909101546001600160a01b03168083526004870190915260409091205490915060ff630100000090910416611538578086848151811061150957634e487b7160e01b600052603260045260246000fd5b6001600160a01b039092166020928302919091019091015260038401546001909301928310611538575061154b565b508061154381615811565b91505061147e565b5050505b50919050565b600081815260046020526040902054606090819081908490811461158b5760405162461bcd60e51b8152600401610505906152b4565b60008581526004602052604090206003600182015460ff1660048111156115c257634e487b7160e01b600052602160045260246000fd5b14806115f457506004600182015460ff1660048111156115f257634e487b7160e01b600052602160045260246000fd5b145b6116105760405162461bcd60e51b81526004016105059061548e565b600281015467ffffffffffffffff81111561163b57634e487b7160e01b600052604160045260246000fd5b604051908082528060200260200182016040528015611664578160200160208202803683370190505b50600282015490955067ffffffffffffffff81111561169357634e487b7160e01b600052604160045260246000fd5b6040519080825280602002602001820160405280156116bc578160200160208202803683370190505b50600282015490945067ffffffffffffffff8111156116eb57634e487b7160e01b600052604160045260246000fd5b604051908082528060200260200182016040528015611714578160200160208202803683370190505b50925060005b600282015481101561198057600082600201828154811061174b57634e487b7160e01b600052603260045260246000fd5b60009182526020808320909101546001600160a01b03168083526004860190915260409091205490915060ff6301000000909104161561183857808783815181106117a657634e487b7160e01b600052603260045260246000fd5b60200260200101906001600160a01b031690816001600160a01b03168152505060008683815181106117e857634e487b7160e01b600052603260045260246000fd5b602002602001019060ff16908160ff1681525050600085838151811061181e57634e487b7160e01b600052603260045260246000fd5b602002602001019060ff16908160ff16815250505061196e565b6001600160a01b0381166000908152600484016020526040812054600585018054600160201b90920460ff1692918390811061188457634e487b7160e01b600052603260045260246000fd5b60009182526020918290206040805180820190915291015460ff80821683526101009091041691810191909152895190915083908a90869081106118d857634e487b7160e01b600052603260045260246000fd5b60200260200101906001600160a01b031690816001600160a01b031681525050806000015188858151811061191d57634e487b7160e01b600052603260045260246000fd5b602002602001019060ff16908160ff1681525050806020015187858151811061195657634e487b7160e01b600052603260045260246000fd5b602002602001019060ff16908160ff16815250505050505b8061197881615811565b91505061171a565b5050509193909250565b6001600160a01b03811660009081526001602052604090205460ff165b919050565b60008060008060008060008089806004600083815260200190815260200160002060000154146119ee5760405162461bcd60e51b8152600401610505906152b4565b505050600097885250506004602081815260408089206001600160a01b039890981689529682019052949095208054600182015460028301546003840154939097015460ff8084169a610100850482169a5062010000850482169963010000009095049091169750919550919350565b60008181526004602052604090205481908114611a8d5760405162461bcd60e51b8152600401610505906152b4565b6000828152600460205260409020600e0154829060ff1615611ac15760405162461bcd60e51b81526004016105059061559c565b60008381526004602081815260408084203385529283019091529091205460ff16611afe5760405162461bcd60e51b8152600401610505906152dc565b6000600182015460ff166004811115611b2757634e487b7160e01b600052602160045260246000fd5b14611b445760405162461bcd60e51b815260040161050590615632565b60005b6002820154811015611c8f57336001600160a01b0316826002018281548110611b8057634e487b7160e01b600052603260045260246000fd5b6000918252602090912001546001600160a01b03161415611c7d57600282018054611bad90600190615780565b81548110611bcb57634e487b7160e01b600052603260045260246000fd5b6000918252602090912001546002830180546001600160a01b039092169183908110611c0757634e487b7160e01b600052603260045260246000fd5b9060005260206000200160006101000a8154816001600160a01b0302191690836001600160a01b0316021790555081600201805480611c5657634e487b7160e01b600052603160045260246000fd5b600082815260209020810160001990810180546001600160a01b0319169055019055611c8f565b80611c8781615811565b915050611b47565b5060038082018054600019019055336000818152600480850160209081526040808420805464ffffffffff19168155600181018590556002810185905595860184905594909101829055600590528281208190559151909186916000805160206158a383398151915291611d04918190615382565b60405180910390a350505050565b336001600160a01b037f00000000000000000000000000000000000000000000000000000000000000001614611d5a5760405162461bcd60e51b8152600401610505906153d8565b6001600160a01b03166000908152600760205260409020805460ff19166001179055565b60008181526004602052604090205460609082908114611db05760405162461bcd60e51b8152600401610505906152b4565b60008381526004602090815260409182902060020180548351818402810184019094528084529091830182828015611e1157602002820191906000526020600020905b81546001600160a01b03168152600190910190602001808311611df3575b5050505050915050919050565b60008060008060008060008060008060008b80600460008381526020019081526020016000206000015414611e655760405162461bcd60e51b8152600401610505906152b4565b60008d8152600460205260408120600b810154909190421015611e95574282600b0154611e929190615780565b90505b8160010160009054906101000a900460ff168260080154836009015484600b015485600c0154858760020180549050886003015489600a0160009054906101000a90046001600160a01b03168a600d01548b600e0160009054906101000a900460ff169d509d509d509d509d509d509d509d509d509d509d5050505091939597999b90929496989a50565b60008281526004602052604090205482908114611f4f5760405162461bcd60e51b8152600401610505906152b4565b60008381526004602081815260408084203385529092019052902054839060ff16611f8c5760405162461bcd60e51b81526004016105059061504f565b6000848152600460205260409020600c01548490421015611fbf5760405162461bcd60e51b8152600401610505906153ae565b6000858152600460205260409020600e0154859060ff1615611ff35760405162461bcd60e51b81526004016105059061559c565b60008681526004602081815260408084203385529283019091529091206002600183015460ff16600481111561203957634e487b7160e01b600052602160045260246000fd5b146120565760405162461bcd60e51b815260040161050590615191565b81600b015442106120795760405162461bcd60e51b815260040161050590615688565b80546301000000900460ff16156120a25760405162461bcd60e51b815260040161050590615519565b60018710156120c35760405162461bcd60e51b8152600401610505906153fb565b600982015415612107576000816002015483600901546120e39190615780565b9050808810156121055760405162461bcd60e51b815260040161050590615138565b505b868160010154101561212b5760405162461bcd60e51b8152600401610505906150b1565b6004810180546001908101909155810180548890039055600281018054880181556008830180548901905542600383015560098301549054111561217457600281015460098301555b336001600160a01b0316886000805160206158a38339815191528984600401546040516121a2929190615335565b60405180910390a3600182015460088301546009840154600d8501546040518c94600080516020615883833981519152946121e49460ff909216939092614e44565b60405180910390a25050505050505050565b6001600160a01b031660009081526007602052604090205460ff1690565b3360009081526007602052604081205460ff166122435760405162461bcd60e51b8152600401610505906150dd565b600380546001908101808355600081815260046020526040808220838155808501805460ff19908116909155600a820180546001600160a01b03191633908117909155968201849055600d8201869055600e8201805490911690556006805495860181559092527ff652222313e28459528d920b65115c16c04f3efc82aaedc97be59f3f377c0d3f9093018290559151909283917fc3e0f84839dc888c892a013d10c8f9d6dc05a21a879d0ce468ca558013e9121c9161230291614c52565b60405180910390a2817ff8d27b7cf34386d5d1f7ad30b948b2c8e36bc20003707ce9463ab063cb1412fe60008060405161233d929190614e29565b60405180910390a26000546001600160a01b0316156123b35760005460405163396fc46f60e11b81526001600160a01b03909116906372df88de906123869085906004016156ec565b600060405180830381600087803b1580156123a057600080fd5b505af19250505080156123b1575060015b505b60005b600254811080156123c75750600581105b15612470576000600282815481106123ef57634e487b7160e01b600052603260045260246000fd5b60009182526020808320909101546001600160a01b0316808352600190915260409091205490915060ff16801561243c57506001600160a01b038116600090815260056020526040902054155b1561245d5761244b8482613e75565b600283015460051161245d5750612470565b508061246881615811565b9150506123b6565b509091505090565b336001600160a01b037f000000000000000000000000000000000000000000000000000000000000000016146124c05760405162461bcd60e51b8152600401610505906153d8565b60005b8181101561260357600160008484848181106124ef57634e487b7160e01b600052603260045260246000fd5b90506020020160208101906125049190614a0a565b6001600160a01b0316815260208101919091526040016000205460ff166125f157600180600085858581811061254a57634e487b7160e01b600052603260045260246000fd5b905060200201602081019061255f9190614a0a565b6001600160a01b031681526020810191909152604001600020805460ff191691151591909117905560028383838181106125a957634e487b7160e01b600052603260045260246000fd5b90506020020160208101906125be9190614a0a565b81546001810183556000928352602090922090910180546001600160a01b0319166001600160a01b039092169190911790555b806125fb81615811565b9150506124c3565b507f1e9e37439d2273fafa47a6f54f27ffac0c65726bf94fd2846710e535902062ec8282604051612635929190614c66565b60405180910390a15050565b7f000000000000000000000000000000000000000000000000000000000000000090565b3360009081526007602052604090205460ff166126945760405162461bcd60e51b8152600401610505906150dd565b600082815260046020526040902054829081146126c35760405162461bcd60e51b8152600401610505906152b4565b6000838152600460205260409020600e0154839060ff16156126f75760405162461bcd60e51b81526004016105059061559c565b600084815260046020526040812090600182015460ff16600481111561272d57634e487b7160e01b600052602160045260246000fd5b1461274a5760405162461bcd60e51b815260040161050590614f89565b600281015460051161276e5760405162461bcd60e51b81526004016105059061535f565b6001600160a01b038416600090815260056020526040902054156127a45760405162461bcd60e51b81526004016105059061527d565b600281018054600180820183556000928352602080842090920180546001600160a01b0319166001600160a01b038916908117909155808452600480860184526040808620805460ff1916851781556019818601554260038083019190915592810187905560059095528086208b9055908601805490930190925590519192909188917f87969bc7faf902221a147b95ceba76e011c5efb0339a0a8ee7a2bb82d9cfbbd691a3505050505050565b60608060608060608086806004600083815260200190815260200160002060000154146128915760405162461bcd60e51b8152600401610505906152b4565b6000888152600460209081526040918290206002810180548451818502810185019095528085529193919283908301828280156128f757602002820191906000526020600020905b81546001600160a01b031681526001909101906020018083116128d9575b505050505098508067ffffffffffffffff81111561292557634e487b7160e01b600052604160045260246000fd5b60405190808252806020026020018201604052801561294e578160200160208202803683370190505b5097508067ffffffffffffffff81111561297857634e487b7160e01b600052604160045260246000fd5b6040519080825280602002602001820160405280156129a1578160200160208202803683370190505b5096508067ffffffffffffffff8111156129cb57634e487b7160e01b600052604160045260246000fd5b6040519080825280602002602001820160405280156129f4578160200160208202803683370190505b5095508067ffffffffffffffff811115612a1e57634e487b7160e01b600052604160045260246000fd5b604051908082528060200260200182016040528015612a47578160200160208202803683370190505b5094508067ffffffffffffffff811115612a7157634e487b7160e01b600052604160045260246000fd5b604051908082528060200260200182016040528015612a9a578160200160208202803683370190505b50935060005b81811015612c1e5760008a8281518110612aca57634e487b7160e01b600052603260045260246000fd5b6020908102919091018101516001600160a01b038116600090815260048701909252604090912080548c51929350909160ff909116908c9085908110612b2057634e487b7160e01b600052603260045260246000fd5b6020026020010190151590811515815250508060000160039054906101000a900460ff168a8481518110612b6457634e487b7160e01b600052603260045260246000fd5b6020026020010190151590811515815250508060010154898481518110612b9b57634e487b7160e01b600052603260045260246000fd5b6020026020010181815250508060020154888481518110612bcc57634e487b7160e01b600052603260045260246000fd5b6020026020010181815250508060040154878481518110612bfd57634e487b7160e01b600052603260045260246000fd5b60200260200101818152505050508080612c1690615811565b915050612aa0565b5050505091939550919395565b60008181526004602052604081205482908114612c5a5760405162461bcd60e51b8152600401610505906152b4565b505060009081526004602052604090206003015490565b60008181526004602052604090205481908114612ca05760405162461bcd60e51b8152600401610505906152b4565b60008281526004602081815260408084203385529092019052902054829060ff16612cdd5760405162461bcd60e51b81526004016105059061504f565b6000838152600460205260409020600c01548390421015612d105760405162461bcd60e51b8152600401610505906153ae565b6000848152600460205260409020600e0154849060ff1615612d445760405162461bcd60e51b81526004016105059061559c565b600085815260046020818152604080842033855292830190915290912060018083015460ff166004811115612d8957634e487b7160e01b600052602160045260246000fd5b14612da65760405162461bcd60e51b815260040161050590615255565b81600b01544210612dc95760405162461bcd60e51b815260040161050590614fb9565b805462010000900460ff1615612df15760405162461bcd60e51b81526004016105059061507a565b600781600101541015612e165760405162461bcd60e51b8152600401610505906150b1565b60018181018054600619019055815462ff00001916620100001782554260038301556004820180549091019055604080516002808252606082018352600092602083019080368337505060408051600280825260608201835293945060009390925090602083019080368337505060408051600280825260608201835293945060009390925090602083019080368337019050509050612eba8a6002858585613f52565b60005b600260ff82161015612fca576000828260ff1681518110612eee57634e487b7160e01b600052603260045260246000fd5b602002602001015160ff1611612f165760405162461bcd60e51b815260040161050590615101565b612f4a8b838360ff1681518110612f3d57634e487b7160e01b600052603260045260246000fd5b6020026020010151613a23565b15612f675760405162461bcd60e51b815260040161050590614fe3565b612f9b8b838360ff1681518110612f8e57634e487b7160e01b600052603260045260246000fd5b6020026020010151613a46565b15612fb85760405162461bcd60e51b815260040161050590615422565b80612fc28161582c565b915050612ebd565b5060005b600260ff82161015613056576000828260ff1681518110612fff57634e487b7160e01b600052603260045260246000fd5b602002602001015160ff161115613044576130448b838360ff168151811061303757634e487b7160e01b600052603260045260246000fd5b602002602001015161431d565b8061304e8161582c565b915050612fce565b50336001600160a01b03167f6f8687dd1640e050bb18e188b1e58202e179c438a474793a246d4ca06aa56abd8484604051613092929190614d9d565b60405180910390a2336001600160a01b03168a6000805160206158a3833981519152600787600401546040516130c992919061556c565b60405180910390a350505050505050505050565b6000818152600460205260408120548290811461310c5760405162461bcd60e51b8152600401610505906152b4565b60008381526004602052604090206002600182015460ff16600481111561314357634e487b7160e01b600052602160045260246000fd5b1461315257600092505061154f565b60005b600282015481101561320f57600082600201828154811061318657634e487b7160e01b600052603260045260246000fd5b60009182526020808320909101546001600160a01b03168083526004860190915260409091205490915060ff630100000090910416156131c657506131fd565b60098301546001600160a01b038216600090815260048501602052604090206002015410156131fb576000945050505061154f565b505b8061320781615811565b915050613155565b506001949350505050565b600081815260046020526040902054819081146132495760405162461bcd60e51b8152600401610505906152b4565b60008281526004602081815260408084203385529092019052902054829060ff166132865760405162461bcd60e51b81526004016105059061504f565b6000838152600460205260409020600c015483904210156132b95760405162461bcd60e51b8152600401610505906153ae565b6000848152600460205260409020600e0154849060ff16156132ed5760405162461bcd60e51b81526004016105059061559c565b60008581526004602081815260408084203385529283019091529091206002600183015460ff16600481111561333357634e487b7160e01b600052602160045260246000fd5b146133505760405162461bcd60e51b815260040161050590615191565b81600b015442106133735760405162461bcd60e51b815260040161050590615688565b80546301000000900460ff161561339c5760405162461bcd60e51b815260040161050590615519565b6004810180546001018155815463ff00000019166301000000178255426003808401919091558301805460001901905554604051339189916000805160206158a3833981519152916133f1916000919061522a565b60405180910390a3600182015460088301546009840154600d8501546040518b94600080516020615883833981519152946134339460ff909216939092614e44565b60405180910390a281600301546001141561346a57600061345388614352565b905061345e88613de3565b6134688882614402565b505b50505050505050565b336001600160a01b037f000000000000000000000000000000000000000000000000000000000000000016146134bb5760405162461bcd60e51b8152600401610505906153d8565b600080546001600160a01b0319166001600160a01b0392909216919091179055565b6000546001600160a01b031681565b6000818152600460205260409020548190811461351b5760405162461bcd60e51b8152600401610505906152b4565b6000828152600460205260409020600e0154829060ff161561354f5760405162461bcd60e51b81526004016105059061559c565b600083815260046020526040812090600182015460ff16600481111561358557634e487b7160e01b600052602160045260246000fd5b146135a25760405162461bcd60e51b815260040161050590614f89565b60028101546005116135c65760405162461bcd60e51b81526004016105059061535f565b33600090815260056020526040902054156135f35760405162461bcd60e51b815260040161050590615541565b600281018054600181810183556000928352602080842090920180546001600160a01b03191633908117909155808452600480860184526040808620805460ff1916851781556019818601554260038083019190915592810187905560059095528086208a9055908601805490930190925590519192909187917f87969bc7faf902221a147b95ceba76e011c5efb0339a0a8ee7a2bb82d9cfbbd691a35050505050565b600080600080600080600080600089806004600083815260200190815260200160002060000154146136db5760405162461bcd60e51b8152600401610505906152b4565b50505060009788525050600460205250506040909320600181015460088201546009830154600b840154600c85015460028601546003870154600d880154600e9098015460ff9788169c969b50949950929750909590949193909290911690565b336001600160a01b037f000000000000000000000000000000000000000000000000000000000000000016146137845760405162461bcd60e51b8152600401610505906153d8565b60005b8181101561386057600160008484848181106137b357634e487b7160e01b600052603260045260246000fd5b90506020020160208101906137c89190614a0a565b6001600160a01b0316815260208101919091526040016000205460ff161561384e5760006001600085858581811061381057634e487b7160e01b600052603260045260246000fd5b90506020020160208101906138259190614a0a565b6001600160a01b031681526020810191909152604001600020805460ff19169115159190911790555b8061385881615811565b915050613787565b507fa907e2461cc5dad6c99bdb07ff6b11dafdf6752f8a1377e2070277d17d5e7f758282604051612635929190614c66565b6000828152600460205260409020600601546138ae9082614553565b6000928352600460205260409092206006019190915550565b6000818152600460209081526040808320815160348082526106a0820190935290928492908201610680803683370190505090506000805b600584015460ff82161015613988576139188682613a23565b15801561392c575061392a8682613a46565b155b156139765780838361ffff168151811061395657634e487b7160e01b600052603260045260246000fd5b60ff9092166020928302919091019091015281613972816157ef565b9250505b806139808161582c565b9150506138ff565b5060008161ffff16116139ad5760405162461bcd60e51b8152600401610505906151bc565b60008161ffff1644426040516020016139c7929190614c21565b6040516020818303038152906040528051906020012060001c6139ea919061584c565b9050828161ffff1681518110613a1057634e487b7160e01b600052603260045260246000fd5b6020026020010151945050505050919050565b600082815260046020526040812060060154613a3f9083614561565b9392505050565b600082815260046020526040812060070154613a3f9083614561565b6000828152600460205260409020600601546138ae9082614570565b6000908152600460205260409020600d0180546001019055565b60005b600654811015613b8a578160068281548110613ac757634e487b7160e01b600052603260045260246000fd5b90600052602060002001541415613b785760068054613ae890600190615780565b81548110613b0657634e487b7160e01b600052603260045260246000fd5b906000526020600020015460068281548110613b3257634e487b7160e01b600052603260045260246000fd5b6000918252602090912001556006805480613b5d57634e487b7160e01b600052603160045260246000fd5b60019003818190600052602060002001600090559055613b8a565b80613b8281615811565b915050613a9b565b5050565b600081815260046020526040812090613bab90600583019061499d565b6040805160348082526106a08201909252600091816020015b613bcc6149be565b815260200190600190039081613bc45790505090506000805b60048160ff161015613c7c5760025b600e8160ff1611613c695760405180604001604052808260ff1681526020018360ff16815250848460ff1681518110613c3d57634e487b7160e01b600052603260045260246000fd5b60200260200101819052508280613c539061582c565b9350508080613c619061582c565b915050613bf4565b5080613c748161582c565b915050613be5565b506000613c888361457d565b905060005b60348110156108fa5784600501828281518110613cba57634e487b7160e01b600052603260045260246000fd5b6020908102919091018101518254600181018455600093845292829020815193018054919092015160ff9081166101000261ff00199190941660ff19909216919091171691909117905580613d0e81615811565b915050613c8d565b6000818152600460205260409020613d2d826146a7565b60005b6002820154811015613dc1576000826002018281548110613d6157634e487b7160e01b600052603260045260246000fd5b6000918252602080832091909101546001600160a01b0316808352600486019091526040909120805464ff000000001916600160201b60ff861602179055905081613dac8582613a62565b50508080613db990615811565b915050613d30565b505050565b613dce6146c4565b60009182526004602052604090912060070155565b600081815260046020526040902060018101805460ff19166003179055613e0982613a7e565b60405182907fcfeaa304021cfd684ad30c51a76ffd4139eb4b36c6e97d94cce4df46b71ee97790600090a260088101546009820154600d830154604051859360008051602061588383398151915293613e6493600393614e44565b60405180910390a2613b8a826146c9565b60008281526004602090815260408083206001600160a01b038516845260059092529091205415613ea65750613b8a565b600281018054600180820183556000928352602080842090920180546001600160a01b0319166001600160a01b038716908117909155808452600480860184526040808620805460ff191685178155601981860155426003808301919091559281018790556005909552808620899055908601805490930190925590519192909186917f87969bc7faf902221a147b95ceba76e011c5efb0339a0a8ee7a2bb82d9cfbbd691a350505050565b600085815260046020526040808220815160348082526106a082019093529092918160200160208202803683370190505090506000805b600584015460ff8216101561401257613fa28982613a23565b158015613fb65750613fb48982613a46565b155b156140005780838361ffff1681518110613fe057634e487b7160e01b600052603260045260246000fd5b60ff9092166020928302919091019091015281613ffc816157ef565b9250505b8061400a8161582c565b915050613f89565b5060008760ff168261ffff1610614029578761402b565b815b90504460005b8260ff168160ff1610156142445760008461ffff1683834260405160200161405b93929190614c2f565b6040516020818303038152906040528051906020012060001c61407e919061584c565b90506000868261ffff16815181106140a657634e487b7160e01b600052603260045260246000fd5b602002602001015190506000886005018260ff16815481106140d857634e487b7160e01b600052603260045260246000fd5b60009182526020918290206040805180820190915291015460ff8082168084526101009092048116938301939093528e51919350918e9190871690811061412f57634e487b7160e01b600052603260045260246000fd5b602002602001019060ff16908160ff168152505080602001518b8560ff168151811061416b57634e487b7160e01b600052603260045260246000fd5b602002602001019060ff16908160ff1681525050818a8560ff16815181106141a357634e487b7160e01b600052603260045260246000fd5b60ff90921660209283029190910190910152876141c160018961575d565b61ffff16815181106141e357634e487b7160e01b600052603260045260246000fd5b6020026020010151888461ffff168151811061420f57634e487b7160e01b600052603260045260246000fd5b60ff909216602092830291909101909101528661422b816157ba565b975050505050808061423c9061582c565b915050614031565b50815b8960ff168160ff161015614310576000898260ff168151811061427a57634e487b7160e01b600052603260045260246000fd5b602002602001019060ff16908160ff16815250506000888260ff16815181106142b357634e487b7160e01b600052603260045260246000fd5b602002602001019060ff16908160ff16815250506000878260ff16815181106142ec57634e487b7160e01b600052603260045260246000fd5b60ff90921660209283029190910190910152806143088161582c565b915050614247565b5050505050505050505050565b6000828152600460205260409020600701546143399082614570565b6000928352600460205260409092206007019190915550565b6000818152600460205260408120815b60028201548110156143e957600082600201828154811061439357634e487b7160e01b600052603260045260246000fd5b60009182526020808320909101546001600160a01b03168083526004860190915260409091205490915060ff6301000000909104166143d65792506119a7915050565b50806143e181615811565b915050614362565b5060405162461bcd60e51b815260040161050590615018565b600082815260046020818152604080842060088101546001600160a01b03871686528185019093529320600190810180549092019091558201805460ff1916909117905561444f83613a7e565b600081600801549050826001600160a01b0316847ff1898de79c348962fab7695532341027e5bceb0ea2a8785790fa7d7efeeee1298360405161449291906156ec565b60405180910390a383600080516020615883833981519152600483856009015486600d01546040516144c79493929190614e44565b60405180910390a26000546001600160a01b03161561453f57600054604051637a0e360560e11b81526001600160a01b039091169063f41c6c0a9061451290879087906004016156f5565b600060405180830381600087803b15801561452c57600080fd5b505af192505050801561453d575060015b505b506000600882018190556009909101555050565b600160ff919091161b191690565b600160ff919091161b16151590565b600160ff919091161b1790565b606044600061458e60016034615797565b60ff1690505b801561469f5760006145a7826001615745565b83836040516020016145ba929190614c21565b6040516020818303038152906040528051906020012060001c6145dd919061584c565b9050600085838151811061460157634e487b7160e01b600052603260045260246000fd5b6020026020010151905085828151811061462b57634e487b7160e01b600052603260045260246000fd5b602002602001015186848151811061465357634e487b7160e01b600052603260045260246000fd5b60200260200101819052508086838151811061467f57634e487b7160e01b600052603260045260246000fd5b602002602001018190525050508080614697906157d8565b915050614594565b509192915050565b6146af6146c4565b60009182526004602052604090912060060155565b600090565b6000818152600460205260408120906146e183614837565b905060005b600283015481101561482c57600083600201828154811061471757634e487b7160e01b600052603260045260246000fd5b60009182526020808320909101546001600160a01b03168083526004870190915260409091205490915060ff63010000009091041615614757575061481a565b6001600160a01b0381166000908152600485016020526040812054600586018054600160201b90920460ff169291839081106147a357634e487b7160e01b600052603260045260246000fd5b6000918252602091829020604080518082018252929091015460ff8082168085526101009092041693830184905290519193506001600160a01b038616927fe1299f54cce9bbbb7b050a7a2e071f3272e75f57d041e1cfb8cc88969634cf069261480e92919061570c565b60405180910390a25050505b8061482481615811565b9150506146e6565b50613dc18382614402565b6000818152600460205260408120818080805b600285015481101561499257600085600201828154811061487b57634e487b7160e01b600052603260045260246000fd5b60009182526020808320909101546001600160a01b03168083526004890190915260409091205490915060ff630100000090910416156148bb5750614980565b6001600160a01b0381166000908152600487016020526040812054600588018054600160201b90920460ff1692918390811061490757634e487b7160e01b600052603260045260246000fd5b60009182526020918290206040805180820190915291015460ff808216808452610100909204811693830193909352909250908716108061496557508560ff16816000015160ff1614801561496557508460ff16816020015160ff16115b1561497c5780600001519550806020015194508296505b5050505b8061498a81615811565b91505061484a565b509195945050505050565b50805460008255906000526020600020908101906149bb91906149d5565b50565b604080518082019091526000808252602082015290565b5b808211156149ef57805461ffff191681556001016149d6565b5090565b80356001600160a01b03811681146119a757600080fd5b600060208284031215614a1b578081fd5b613a3f826149f3565b60008060208385031215614a36578081fd5b823567ffffffffffffffff80821115614a4d578283fd5b818501915085601f830112614a60578283fd5b813581811115614a6e578384fd5b8660208083028501011115614a81578384fd5b60209290920196919550909350505050565b600060208284031215614aa4578081fd5b5035919050565b60008060408385031215614abd578182fd5b82359150614acd602084016149f3565b90509250929050565b60008060408385031215614ae8578182fd5b8235915060208301358015158114614afe578182fd5b809150509250929050565b60008060408385031215614b1b578182fd5b50508035926020909101359150565b6000815180845260208085019450808401835b83811015614b625781516001600160a01b031687529582019590820190600101614b3d565b509495945050505050565b6000815180845260208085019450808401835b83811015614b62578151151587529582019590820190600101614b80565b6000815180845260208085019450808401835b83811015614b6257815187529582019590820190600101614bb1565b6000815180845260208085019450808401835b83811015614b6257815160ff1687529582019590820190600101614be0565b60058110614c1d57634e487b7160e01b600052602160045260246000fd5b9052565b918252602082015260400190565b92835260f89190911b6001600160f81b0319166020830152602182015260410190565b6001600160a01b0391909116815260200190565b60208082528181018390526000908460408401835b86811015614ca7576001600160a01b03614c94846149f3565b1682529183019190830190600101614c7b565b509695505050505050565b600060208252613a3f6020830184614b2a565b600060c08252614cd860c0830189614b2a565b8281036020840152614cea8189614b6d565b90508281036040840152614cfe8188614b6d565b90508281036060840152614d128187614b9e565b90508281036080840152614d268186614b9e565b905082810360a0840152614d3a8185614b9e565b9998505050505050505050565b600060608252614d5a6060830186614b2a565b8281036020840152614d6c8186614bcd565b90508281036040840152614d808185614bcd565b9695505050505050565b600060208252613a3f6020830184614b9e565b600060408252614db06040830185614bcd565b8281036020840152614dc28185614bcd565b95945050505050565b901515815260200190565b9715158852951515602088015293151560408701529115156060860152608085015260a084015260c083015260e08201526101000190565b60408101614e1c8285614bff565b613a3f6020830184614bff565b60408101614e378285614bff565b8260208301529392505050565b60808101614e528287614bff565b84602083015283604083015282606083015295945050505050565b6101608101614e7c828e614bff565b602082019b909b5260408101999099526060890197909752608088019590955260a087019390935260c086019190915260e08501526001600160a01b0316610100840152610120830152151561014090910152919050565b6101208101614ee3828c614bff565b602082019990995260408101979097526060870195909552608086019390935260a085019190915260c084015260e0830152151561010090910152919050565b6060808252600890820152671cddd85c10d85c9960c21b60808201526020810192909252604082015260a00190565b6020808252601a908201527f4d6f6e74792048616c6c206f7074696f6e206e6f742075736564000000000000604082015260600190565b6020808252601690820152754e6f7420726567697374726174696f6e20737461746560501b604082015260600190565b60208082526010908201526f1419595ac81c1a185cd948195b99195960821b604082015260600190565b6020808252818101527f4d6f6e74792048616c6c206361726420616c72656164792061737369676e6564604082015260600190565b60208082526017908201527f4e6f2061637469766520706c617965727320666f756e64000000000000000000604082015260600190565b6020808252601190820152702737ba1030b1ba34bb3290383630bcb2b960791b604082015260600190565b6020808252601e908201527f416c72656164792075736564204d6f6e74792048616c6c206f7074696f6e0000604082015260600190565b602080825260129082015271496e73756666696369656e7420636869707360701b604082015260600190565b6020808252600a90820152692737ba1035b2b2b832b960b11b604082015260600190565b6020808252601d908201527f496e76616c6964204d6f6e74792048616c6c206361726420696e646578000000604082015260600190565b602080825260169082015275135d5cdd081b585d18da0818dd5c9c995b9d0818995d60521b604082015260600190565b6020808252600f908201526e4e65656420322b20706c617965727360881b604082015260600190565b6020808252601190820152704e6f742062657474696e6720706861736560781b604082015260600190565b6020808252601b908201527f4e6f20617661696c61626c6520636172647320666f7220737761700000000000604082015260600190565b6020808252601d908201527f4e657720636172642077617320616c72656164792072657665616c6564000000604082015260600190565b606080825260049082015263199bdb1960e21b60808201526020810192909252604082015260a00190565b6020808252600e908201526d4e6f74207065656b20706861736560901b604082015260600190565b60208082526018908201527f506c6179657220616c726561647920696e20612067616d650000000000000000604082015260600190565b6020808252600e908201526d11d85b59481b9bdd08199bdd5b9960921b604082015260600190565b60208082526010908201526f4e6f7420696e20746869732067616d6560801b604082015260600190565b6060808252600890820152671ad9595c10d85c9960c21b60808201526020810192909252604082015260a00190565b60608082526003908201526218995d60ea1b60808201526020810192909252604082015260a00190565b60208082526009908201526811d85b5948199d5b1b60ba1b604082015260600190565b6060808252600590820152646c6561766560d81b60808201526020810192909252604082015260a00190565b60208082526010908201526f125b88189d5999995c881c195c9a5bd960821b604082015260600190565b6020808252600990820152682737ba1037bbb732b960b91b604082015260600190565b6020808252600d908201526c10995d081d1bdbc81cdb585b1b609a1b604082015260600190565b6020808252818101527f4d6f6e74792048616c6c206361726420616c72656164792072657665616c6564604082015260600190565b6020808252601a908201527f42657474696e67207068617365206e6f742066696e6973686564000000000000604082015260600190565b60208082526016908201527510d85c991cc81b9bdd081e595d081c995d99585b195960521b604082015260600190565b602080825260169082015275092dcecc2d8d2c840dccaee40c6c2e4c840d2dcc8caf60531b604082015260600190565b6060808252600490820152637065656b60e01b60808201526020810192909252604082015260a00190565b6020808252600e908201526d105b1c9958591e48199bdb19195960921b604082015260600190565b602080825260119082015270416c726561647920696e20612067616d6560781b604082015260600190565b6060808252600990820152681b5bdb9d1e52185b1b60ba1b60808201526020810192909252604082015260a00190565b60208082526017908201527f47616d6520616c726561647920636c65616e6564207570000000000000000000604082015260600190565b6020808252600e908201526d105b1c9958591e481c19595ad95960921b604082015260600190565b60208082526019908201527f4e6577206361726420616c72656164792061737369676e656400000000000000604082015260600190565b60208082526014908201527311d85b5948185b1c9958591e481cdd185c9d195960621b604082015260600190565b6020808252600e908201526d11d85b59481b9bdd08195b99195960921b604082015260600190565b60208082526013908201527210995d1d1a5b99c81c1a185cd948195b991959606a1b604082015260600190565b60208082526017908201527f5065656b207068617365206e6f742066696e6973686564000000000000000000604082015260600190565b90815260200190565b9182526001600160a01b0316602082015260400190565b60ff92831681529116602082015260400190565b60ff948516815292841660208401529083166040830152909116606082015260800190565b600082198211156157585761575861586c565b500190565b600061ffff838116908316818110156157785761577861586c565b039392505050565b6000828210156157925761579261586c565b500390565b600060ff821660ff8416808210156157b1576157b161586c565b90039392505050565b600061ffff8216806157ce576157ce61586c565b6000190192915050565b6000816157e7576157e761586c565b506000190190565b600061ffff808316818114156158075761580761586c565b6001019392505050565b60006000198214156158255761582561586c565b5060010190565b600060ff821660ff8114156158435761584361586c565b60010192915050565b60008261586757634e487b7160e01b81526012600452602481fd5b500690565b634e487b7160e01b600052601160045260246000fdfe0607341721701a494da2223ee353609ce7a0d98c9c7a4f0d8f7e88da11755e8c6f602f6212c12f2ee3d71aed536ee490592c8c673758d935d479b147252d0434a2646970667358221220b28fdfe358efa844c5841f1d886ba9c57a3a41ee5817e070f1858794c6cc762464736f6c63430008000033",
  "linkReferences": {},
  "deployedLinkReferences": {}
}