{
  "_format": "hh-sol-artifact-1",
  "contractName": "CardLibrary",
  "sourceName": "contracts/vanilla/PokerCardLibrary.sol",
  "abi": [
    {
      "inputs": [],
      "name": "STANDARD_DECK_SIZE",
      "outputs": [
        {
          "internalType": "uint8",
          "name": "",
          "type": "uint8"
        }
      ],
      "stateMutability": "view",
      "type": "function"
    }
  ],
  "bytecode": "0x609b610038600b82828239805160001a607314602b57634e487b7160e01b600052600060045260246000fd5b30600052607381538281f3fe730000000000000000000000000000000000000000301460806040526004361060335760003560e01c80639c861bc5146038575b600080fd5b603e6052565b604051604991906057565b60405180910390f35b603481565b60ff9190911681526020019056fea2646970667358221220c45f5b1ff11d136ac1f14f4873adbd3e492c14be544128819d11b1a036db8c6b64736f6c63430008000033",
  "linkReferences": {},
  "deployedLinkReferences": {}
}