{
  "_format": "hh-sol-artifact-1",
  "contractName": "PokerSpectatorView",
  "sourceName": "contracts/PokerSpectatorView.sol",
  "abi": [
    {
      "inputs": [
        {
          "internalType": "address",
          "name": "_pokerContractAddress",
          "type": "address"
        }
      ],
      "stateMutability": "nonpayable",
      "type": "constructor"
    },
    {
      "anonymous": false,
      "inputs": [
        {
          "indexed": true,
          "internalType": "uint256",
          "name": "gameId",
          "type": "uint256"
        }
      ],
      "name": "BettingPhaseStarted",
      "type": "event"
    },
    {
      "anonymous": false,
      "inputs": [
        {
          "indexed": true,
          "internalType": "uint256",
          "name": "gameId",
          "type": "uint256"
        },
        {
          "indexed": false,
          "internalType": "enum GameLibrary.GameState",
          "name": "currentState",
          "type": "uint8"
        },
        {
          "indexed": false,
          "internalType": "enum GameLibrary.GameState",
          "name": "nextState",
          "type": "uint8"
        }
      ],
      "name": "BufferPeriodStarted",
      "type": "event"
    },
    {
      "anonymous": false,
      "inputs": [
        {
          "indexed": true,
          "internalType": "uint256",
          "name": "gameId",
          "type": "uint256"
        },
        {
          "indexed": false,
          "internalType": "address",
          "name": "keeper",
          "type": "address"
        }
      ],
      "name": "GameCreated",
      "type": "event"
    },
    {
      "anonymous": false,
      "inputs": [
        {
          "indexed": true,
          "internalType": "uint256",
          "name": "gameId",
          "type": "uint256"
        },
        {
          "indexed": true,
          "internalType": "address",
          "name": "winner",
          "type": "address"
        },
        {
          "indexed": false,
          "internalType": "uint256",
          "name": "potAmount",
          "type": "uint256"
        }
      ],
      "name": "GameEnded",
      "type": "event"
    },
    {
      "anonymous": false,
      "inputs": [
        {
          "indexed": true,
          "internalType": "uint256",
          "name": "gameId",
          "type": "uint256"
        }
      ],
      "name": "GameNoLongerSpectatable",
      "type": "event"
    },
    {
      "anonymous": false,
      "inputs": [
        {
          "indexed": true,
          "internalType": "uint256",
          "name": "gameId",
          "type": "uint256"
        },
        {
          "indexed": false,
          "internalType": "enum GameLibrary.GameState",
          "name": "state",
          "type": "uint8"
        },
        {
          "indexed": false,
          "internalType": "uint256",
          "name": "playerCount",
          "type": "uint256"
        }
      ],
      "name": "GameSpectatable",
      "type": "event"
    },
    {
      "anonymous": false,
      "inputs": [
        {
          "indexed": true,
          "internalType": "uint256",
          "name": "gameId",
          "type": "uint256"
        },
        {
          "indexed": false,
          "internalType": "enum GameLibrary.GameState",
          "name": "state",
          "type": "uint8"
        },
        {
          "indexed": false,
          "internalType": "uint256",
          "name": "potAmount",
          "type": "uint256"
        },
        {
          "indexed": false,
          "internalType": "uint256",
          "name": "currentBet",
          "type": "uint256"
        },
        {
          "indexed": false,
          "internalType": "uint256",
          "name": "stateVersion",
          "type": "uint256"
        }
      ],
      "name": "GameStateUpdated",
      "type": "event"
    },
    {
      "anonymous": false,
      "inputs": [
        {
          "indexed": true,
          "internalType": "uint256",
          "name": "gameId",
          "type": "uint256"
        }
      ],
      "name": "PeekPhaseStarted",
      "type": "event"
    },
    {
      "anonymous": false,
      "inputs": [
        {
          "indexed": true,
          "internalType": "uint256",
          "name": "gameId",
          "type": "uint256"
        },
        {
          "indexed": true,
          "internalType": "address",
          "name": "player",
          "type": "address"
        },
        {
          "indexed": false,
          "internalType": "string",
          "name": "action",
          "type": "string"
        },
        {
          "indexed": false,
          "internalType": "uint256",
          "name": "amount",
          "type": "uint256"
        },
        {
          "indexed": false,
          "internalType": "uint256",
          "name": "nonce",
          "type": "uint256"
        }
      ],
      "name": "PlayerAction",
      "type": "event"
    },
    {
      "anonymous": false,
      "inputs": [
        {
          "indexed": true,
          "internalType": "uint256",
          "name": "gameId",
          "type": "uint256"
        },
        {
          "indexed": true,
          "internalType": "address",
          "name": "player",
          "type": "address"
        }
      ],
      "name": "PlayerJoined",
      "type": "event"
    },
    {
      "anonymous": false,
      "inputs": [
        {
          "indexed": true,
          "internalType": "uint256",
          "name": "gameId",
          "type": "uint256"
        }
      ],
      "name": "ShowdownStarted",
      "type": "event"
    },
    {
      "inputs": [
        {
          "internalType": "uint256",
          "name": "gameId",
          "type": "uint256"
        }
      ],
      "name": "areCardsViewable",
      "outputs": [
        {
          "internalType": "bool",
          "name": "",
          "type": "bool"
        }
      ],
      "stateMutability": "view",
      "type": "function"
    },
    {
      "inputs": [],
      "name": "getActiveGames",
      "outputs": [
        {
          "internalType": "uint256[]",
          "name": "",
          "type": "uint256[]"
        }
      ],
      "stateMutability": "view",
      "type": "function"
    },
    {
      "inputs": [
        {
          "internalType": "uint256",
          "name": "gameId",
          "type": "uint256"
        }
      ],
      "name": "getActivePlayerCount",
      "outputs": [
        {
          "internalType": "uint256",
          "name": "",
          "type": "uint256"
        }
      ],
      "stateMutability": "view",
      "type": "function"
    },
    {
      "inputs": [
        {
          "internalType": "uint256",
          "name": "gameId",
          "type": "uint256"
        }
      ],
      "name": "getActivePlayers",
      "outputs": [
        {
          "internalType": "address[]",
          "name": "",
          "type": "address[]"
        }
      ],
      "stateMutability": "view",
      "type": "function"
    },
    {
      "inputs": [
        {
          "internalType": "uint256",
          "name": "gameId",
          "type": "uint256"
        }
      ],
      "name": "getGameKeeper",
      "outputs": [
        {
          "internalType": "address",
          "name": "",
          "type": "address"
        }
      ],
      "stateMutability": "view",
      "type": "function"
    },
    {
      "inputs": [
        {
          "internalType": "uint256",
          "name": "gameId",
          "type": "uint256"
        }
      ],
      "name": "getGamePhase",
      "outputs": [
        {
          "internalType": "enum GameLibrary.GameState",
          "name": "",
          "type": "uint8"
        }
      ],
      "stateMutability": "view",
      "type": "function"
    },
    {
      "inputs": [
        {
          "internalType": "uint256",
          "name": "gameId",
          "type": "uint256"
        }
      ],
      "name": "getGameVersion",
      "outputs": [
        {
          "internalType": "uint256",
          "name": "stateVersion",
          "type": "uint256"
        },
        {
          "internalType": "bool",
          "name": "isCleanedUp",
          "type": "bool"
        }
      ],
      "stateMutability": "view",
      "type": "function"
    },
    {
      "inputs": [
        {
          "internalType": "uint256",
          "name": "gameId",
          "type": "uint256"
        }
      ],
      "name": "getPlayerCounts",
      "outputs": [
        {
          "internalType": "uint256",
          "name": "playerCount",
          "type": "uint256"
        },
        {
          "internalType": "uint256",
          "name": "activeCount",
          "type": "uint256"
        }
      ],
      "stateMutability": "view",
      "type": "function"
    },
    {
      "inputs": [
        {
          "internalType": "uint256",
          "name": "gameId",
          "type": "uint256"
        },
        {
          "internalType": "address",
          "name": "player",
          "type": "address"
        }
      ],
      "name": "getPlayerInfo",
      "outputs": [
        {
          "internalType": "bool",
          "name": "isActive",
          "type": "bool"
        },
        {
          "internalType": "bool",
          "name": "hasPeeked",
          "type": "bool"
        },
        {
          "internalType": "bool",
          "name": "usedMontyHall",
          "type": "bool"
        },
        {
          "internalType": "bool",
          "name": "hasFolded",
          "type": "bool"
        },
        {
          "internalType": "uint256",
          "name": "chipBalance",
          "type": "uint256"
        },
        {
          "internalType": "uint256",
          "name": "currentBet",
          "type": "uint256"
        },
        {
          "internalType": "uint256",
          "name": "lastActionTime",
          "type": "uint256"
        },
        {
          "internalType": "uint256",
          "name": "actionNonce",
          "type": "uint256"
        }
      ],
      "stateMutability": "view",
      "type": "function"
    },
    {
      "inputs": [
        {
          "internalType": "uint256",
          "name": "gameId",
          "type": "uint256"
        }
      ],
      "name": "getPlayers",
      "outputs": [
        {
          "internalType": "address[]",
          "name": "",
          "type": "address[]"
        }
      ],
      "stateMutability": "view",
      "type": "function"
    },
    {
      "inputs": [
        {
          "internalType": "uint256",
          "name": "gameId",
          "type": "uint256"
        }
      ],
      "name": "getPotInfo",
      "outputs": [
        {
          "internalType": "uint256",
          "name": "potAmount",
          "type": "uint256"
        },
        {
          "internalType": "uint256",
          "name": "currentBet",
          "type": "uint256"
        }
      ],
      "stateMutability": "view",
      "type": "function"
    },
    {
      "inputs": [
        {
          "internalType": "uint256",
          "name": "gameId",
          "type": "uint256"
        }
      ],
      "name": "getRemainingTime",
      "outputs": [
        {
          "internalType": "uint256",
          "name": "",
          "type": "uint256"
        }
      ],
      "stateMutability": "view",
      "type": "function"
    },
    {
      "inputs": [
        {
          "internalType": "uint256",
          "name": "gameId",
          "type": "uint256"
        }
      ],
      "name": "getSpectatorCardData",
      "outputs": [
        {
          "internalType": "address[]",
          "name": "playerAddresses",
          "type": "address[]"
        },
        {
          "internalType": "uint8[]",
          "name": "cardValues",
          "type": "uint8[]"
        },
        {
          "internalType": "uint8[]",
          "name": "cardSuits",
          "type": "uint8[]"
        }
      ],
      "stateMutability": "view",
      "type": "function"
    },
    {
      "inputs": [
        {
          "internalType": "uint256",
          "name": "gameId",
          "type": "uint256"
        }
      ],
      "name": "getSpectatorPlayerData",
      "outputs": [
        {
          "internalType": "address[]",
          "name": "playerAddresses",
          "type": "address[]"
        },
        {
          "internalType": "bool[]",
          "name": "playerActiveBits",
          "type": "bool[]"
        },
        {
          "internalType": "bool[]",
          "name": "playerFoldedBits",
          "type": "bool[]"
        },
        {
          "internalType": "uint256[]",
          "name": "playerChipBalances",
          "type": "uint256[]"
        },
        {
          "internalType": "uint256[]",
          "name": "playerCurrentBets",
          "type": "uint256[]"
        },
        {
          "internalType": "uint256[]",
          "name": "playerActionNonces",
          "type": "uint256[]"
        }
      ],
      "stateMutability": "view",
      "type": "function"
    },
    {
      "inputs": [
        {
          "internalType": "uint256",
          "name": "gameId",
          "type": "uint256"
        }
      ],
      "name": "getStateVersionQuick",
      "outputs": [
        {
          "internalType": "uint256",
          "name": "",
          "type": "uint256"
        }
      ],
      "stateMutability": "view",
      "type": "function"
    },
    {
      "inputs": [
        {
          "internalType": "uint256",
          "name": "gameId",
          "type": "uint256"
        }
      ],
      "name": "getTimingInfo",
      "outputs": [
        {
          "internalType": "uint256",
          "name": "phaseEndTime",
          "type": "uint256"
        },
        {
          "internalType": "uint256",
          "name": "bufferEndTime",
          "type": "uint256"
        }
      ],
      "stateMutability": "view",
      "type": "function"
    }
  ],
  "bytecode": "0x608060405234801561001057600080fd5b5060405161159338038061159383398101604081905261002f91610054565b600080546001600160a01b0319166001600160a01b0392909216919091179055610082565b600060208284031215610065578081fd5b81516001600160a01b038116811461007b578182fd5b9392505050565b611502806100916000396000f3fe608060405234801561001057600080fd5b50600436106101005760003560e01c80634a49ef82116100975780639d8690f9116100665780639d8690f91461026c578063a410274c1461027f578063bfe72b6114610292578063d36f68ca146102b257610100565b80634a49ef82146101ff5780636e1e277b1461022157806380ce40ee1461023457806389e60af11461024757610100565b8063217ad06e116100d3578063217ad06e14610184578063342ed956146101a55780633ccd10e9146101c5578063460e2049146101ec57610100565b80630a9a55b114610105578063181e01241461012f5780631b76929c1461014f578063213e5eb014610164575b600080fd5b61011861011336600461114a565b6102d2565b60405161012692919061141f565b60405180910390f35b61014261013d36600461114a565b61036c565b60405161012691906113ef565b610157610419565b6040516101269190611371565b61017761017236600461114a565b61049e565b604051610126919061127e565b61019761019236600461114a565b610532565b60405161012692919061140f565b6101b86101b336600461114a565b6105cb565b6040516101269190611292565b6101d86101d336600461117a565b610656565b60405161012698979695949392919061138f565b6101b86101fa36600461114a565b610703565b61021261020d36600461114a565b610734565b6040516101269392919061132e565b61011861022f36600461114a565b6107ca565b61014261024236600461114a565b610864565b61025a61025536600461114a565b6108f5565b604051610126969594939291906112ac565b61011861027a36600461114a565b61099a565b61014261028d36600461114a565b610a33565b6102a56102a036600461114a565b610ab4565b6040516101269190611384565b6102c56102c036600461114a565b610b9b565b60405161012691906113c7565b6000805460405163781a271b60e11b81528291829182916001600160a01b03169063f0344e36906103079088906004016113ef565b6101206040518083038186803b15801561032057600080fd5b505afa158015610334573d6000803e3d6000fd5b505050506040513d601f19601f8201168201806040525081019061035891906110d4565b50939a509198505050505050505050915091565b6000805460405163781a271b60e11b815282916001600160a01b03169063f0344e369061039d9086906004016113ef565b6101206040518083038186803b1580156103b657600080fd5b505afa1580156103ca573d6000803e3d6000fd5b505050506040513d601f19601f820116820180604052508101906103ee91906110d4565b50505050509350505050804210610406576000610410565b610410428261147b565b9150505b919050565b60008054604080516306dda4a760e21b815290516060936001600160a01b0390931692631b76929c9260048082019391829003018186803b15801561045d57600080fd5b505afa158015610471573d6000803e3d6000fd5b505050506040513d6000823e601f3d908101601f191682016040526104999190810190610f91565b905090565b6000805460405163047e1d5560e41b815282916001600160a01b0316906347e1d550906104cf9086906004016113ef565b6101606040518083038186803b1580156104e857600080fd5b505afa1580156104fc573d6000803e3d6000fd5b505050506040513d601f19601f82011682018060405250810190610520919061103e565b50909c9b505050505050505050505050565b6000805460405163781a271b60e11b81528291829182916001600160a01b03169063f0344e36906105679088906004016113ef565b6101206040518083038186803b15801561058057600080fd5b505afa158015610594573d6000803e3d6000fd5b505050506040513d601f19601f820116820180604052508101906105b891906110d4565b909b509950505050505050505050915091565b600054604051631a176cab60e11b81526060916001600160a01b03169063342ed956906105fc9085906004016113ef565b60006040518083038186803b15801561061457600080fd5b505afa158015610628573d6000803e3d6000fd5b505050506040513d6000823e601f3d908101601f191682016040526106509190810190610de4565b92915050565b60008054604051633ccd10e960e01b815282918291829182918291829182916001600160a01b031690633ccd10e990610695908d908d906004016113f8565b6101006040518083038186803b1580156106ae57600080fd5b505afa1580156106c2573d6000803e3d6000fd5b505050506040513d601f19601f820116820180604052508101906106e69190610fc4565b975097509750975097509750975097509295985092959890939650565b60005460405163460e204960e01b81526060916001600160a01b03169063460e2049906105fc9085906004016113ef565b6000546040516335ac8a4760e01b8152606091829182916001600160a01b0316906335ac8a47906107699087906004016113ef565b60006040518083038186803b15801561078157600080fd5b505afa158015610795573d6000803e3d6000fd5b505050506040513d6000823e601f3d908101601f191682016040526107bd9190810190610f0d565b9250925092509193909250565b6000805460405163781a271b60e11b81528291829182916001600160a01b03169063f0344e36906107ff9088906004016113ef565b6101206040518083038186803b15801561081857600080fd5b505afa15801561082c573d6000803e3d6000fd5b505050506040513d601f19601f8201168201806040525081019061085091906110d4565b50959a509398505050505050505050915091565b6000805460405163781a271b60e11b815282916001600160a01b03169063f0344e36906108959086906004016113ef565b6101206040518083038186803b1580156108ae57600080fd5b505afa1580156108c2573d6000803e3d6000fd5b505050506040513d601f19601f820116820180604052508101906108e691906110d4565b509a9950505050505050505050565b600054604051634edc005360e11b8152606091829182918291829182916001600160a01b0390911690639db800a690610932908a906004016113ef565b60006040518083038186803b15801561094a57600080fd5b505afa15801561095e573d6000803e3d6000fd5b505050506040513d6000823e601f3d908101601f191682016040526109869190810190610e1f565b949c939b5091995097509550909350915050565b6000805460405163781a271b60e11b81528291829182916001600160a01b03169063f0344e36906109cf9088906004016113ef565b6101206040518083038186803b1580156109e857600080fd5b505afa1580156109fc573d6000803e3d6000fd5b505050506040513d601f19601f82011682018060405250810190610a2091906110d4565b50919a5098505050505050505050915091565b6000805460405163290409d360e21b81526001600160a01b039091169063a410274c90610a649085906004016113ef565b60206040518083038186803b158015610a7c57600080fd5b505afa158015610a90573d6000803e3d6000fd5b505050506040513d601f19601f820116820180604052508101906106509190611162565b6000805460405163781a271b60e11b815282916001600160a01b03169063f0344e3690610ae59086906004016113ef565b6101206040518083038186803b158015610afe57600080fd5b505afa158015610b12573d6000803e3d6000fd5b505050506040513d601f19601f82011682018060405250810190610b3691906110d4565b5096975060039650610b4a95505050505050565b816004811115610b6a57634e487b7160e01b600052602160045260246000fd5b148061041057506004816004811115610b9357634e487b7160e01b600052602160045260246000fd5b149392505050565b6000805460405163781a271b60e11b815282916001600160a01b03169063f0344e3690610bcc9086906004016113ef565b6101206040518083038186803b158015610be557600080fd5b505afa158015610bf9573d6000803e3d6000fd5b505050506040513d601f19601f82011682018060405250810190610c1d91906110d4565b50969a9950505050505050505050565b600082601f830112610c3d578081fd5b81516020610c52610c4d83611457565b61142d565b8281528181019085830183850287018401881015610c6e578586fd5b855b85811015610c95578151610c83816114b4565b84529284019290840190600101610c70565b5090979650505050505050565b600082601f830112610cb2578081fd5b81516020610cc2610c4d83611457565b8281528181019085830183850287018401881015610cde578586fd5b855b85811015610c9557610cf182610dc5565b84529284019290840190600101610ce0565b600082601f830112610d13578081fd5b81516020610d23610c4d83611457565b8281528181019085830183850287018401881015610d3f578586fd5b855b85811015610c9557815184529284019290840190600101610d41565b600082601f830112610d6d578081fd5b81516020610d7d610c4d83611457565b8281528181019085830183850287018401881015610d99578586fd5b855b85811015610c9557815160ff81168114610db3578788fd5b84529284019290840190600101610d9b565b8051801515811461041457600080fd5b80516005811061041457600080fd5b600060208284031215610df5578081fd5b815167ffffffffffffffff811115610e0b578182fd5b610e1784828501610c2d565b949350505050565b60008060008060008060c08789031215610e37578182fd5b865167ffffffffffffffff80821115610e4e578384fd5b610e5a8a838b01610c2d565b97506020890151915080821115610e6f578384fd5b610e7b8a838b01610ca2565b96506040890151915080821115610e90578384fd5b610e9c8a838b01610ca2565b95506060890151915080821115610eb1578384fd5b610ebd8a838b01610d03565b94506080890151915080821115610ed2578384fd5b610ede8a838b01610d03565b935060a0890151915080821115610ef3578283fd5b50610f0089828a01610d03565b9150509295509295509295565b600080600060608486031215610f21578283fd5b835167ffffffffffffffff80821115610f38578485fd5b610f4487838801610c2d565b94506020860151915080821115610f59578384fd5b610f6587838801610d5d565b93506040860151915080821115610f7a578283fd5b50610f8786828701610d5d565b9150509250925092565b600060208284031215610fa2578081fd5b815167ffffffffffffffff811115610fb8578182fd5b610e1784828501610d03565b600080600080600080600080610100898b031215610fe0578182fd5b610fe989610dc5565b9750610ff760208a01610dc5565b965061100560408a01610dc5565b955061101360608a01610dc5565b94506080890151935060a0890151925060c0890151915060e089015190509295985092959890939650565b60008060008060008060008060008060006101608c8e03121561105f578485fd5b6110688c610dd5565b9a5060208c0151995060408c0151985060608c0151975060808c0151965060a08c0151955060c08c0151945060e08c015193506101008c01516110aa816114b4565b6101208d015190935091506110c26101408d01610dc5565b90509295989b509295989b9093969950565b60008060008060008060008060006101208a8c0312156110f2578283fd5b6110fb8a610dd5565b985060208a0151975060408a0151965060608a0151955060808a0151945060a08a0151935060c08a0151925060e08a0151915061113b6101008b01610dc5565b90509295985092959850929598565b60006020828403121561115b578081fd5b5035919050565b600060208284031215611173578081fd5b5051919050565b6000806040838503121561118c578182fd5b82359150602083013561119e816114b4565b809150509250929050565b6000815180845260208085019450808401835b838110156111e15781516001600160a01b0316875295820195908201906001016111bc565b509495945050505050565b6000815180845260208085019450808401835b838110156111e15781511515875295820195908201906001016111ff565b6000815180845260208085019450808401835b838110156111e157815187529582019590820190600101611230565b6000815180845260208085019450808401835b838110156111e157815160ff168752958201959082019060010161125f565b6001600160a01b0391909116815260200190565b6000602082526112a560208301846111a9565b9392505050565b600060c082526112bf60c08301896111a9565b82810360208401526112d181896111ec565b905082810360408401526112e581886111ec565b905082810360608401526112f9818761121d565b9050828103608084015261130d818661121d565b905082810360a0840152611321818561121d565b9998505050505050505050565b60006060825261134160608301866111a9565b8281036020840152611353818661124c565b90508281036040840152611367818561124c565b9695505050505050565b6000602082526112a5602083018461121d565b901515815260200190565b9715158852951515602088015293151560408701529115156060860152608085015260a084015260c083015260e08201526101000190565b60208101600583106113e957634e487b7160e01b600052602160045260246000fd5b91905290565b90815260200190565b9182526001600160a01b0316602082015260400190565b9182521515602082015260400190565b918252602082015260400190565b60405181810167ffffffffffffffff8111828210171561144f5761144f61149e565b604052919050565b600067ffffffffffffffff8211156114715761147161149e565b5060209081020190565b60008282101561149957634e487b7160e01b81526011600452602481fd5b500390565b634e487b7160e01b600052604160045260246000fd5b6001600160a01b03811681146114c957600080fd5b5056fea26469706673582212203d99527b790b89f56db5db02494023783cd312d363f21794d13699828b6e4e2964736f6c63430008000033",
  "linkReferences": {},
  "deployedLinkReferences": {}
}