{
  "_format": "hh-sol-artifact-1",
  "contractName": "SpectatorBetting",
  "sourceName": "contracts/SpectatorBetting.sol",
  "abi": [
    {
      "inputs": [
        {
          "internalType": "address",
          "name": "_oneCardContract",
          "type": "address"
        }
      ],
      "stateMutability": "nonpayable",
      "type": "constructor"
    },
    {
      "anonymous": false,
      "inputs": [
        {
          "indexed": true,
          "internalType": "uint256",
          "name": "gameId",
          "type": "uint256"
        },
        {
          "indexed": true,
          "internalType": "address",
          "name": "bettor",
          "type": "address"
        },
        {
          "indexed": true,
          "internalType": "address",
          "name": "playerBetOn",
          "type": "address"
        },
        {
          "indexed": false,
          "internalType": "uint256",
          "name": "amount",
          "type": "uint256"
        }
      ],
      "name": "BetPlaced",
      "type": "event"
    },
    {
      "anonymous": false,
      "inputs": [
        {
          "indexed": true,
          "internalType": "uint256",
          "name": "gameId",
          "type": "uint256"
        }
      ],
      "name": "BettingClosed",
      "type": "event"
    },
    {
      "anonymous": false,
      "inputs": [
        {
          "indexed": true,
          "internalType": "uint256",
          "name": "gameId",
          "type": "uint256"
        }
      ],
      "name": "BettingOpened",
      "type": "event"
    },
    {
      "anonymous": false,
      "inputs": [
        {
          "indexed": true,
          "internalType": "uint256",
          "name": "gameId",
          "type": "uint256"
        },
        {
          "indexed": true,
          "internalType": "address",
          "name": "winner",
          "type": "address"
        }
      ],
      "name": "ResultsProcessed",
      "type": "event"
    },
    {
      "anonymous": false,
      "inputs": [
        {
          "indexed": true,
          "internalType": "uint256",
          "name": "gameId",
          "type": "uint256"
        },
        {
          "indexed": true,
          "internalType": "address",
          "name": "bettor",
          "type": "address"
        },
        {
          "indexed": false,
          "internalType": "uint256",
          "name": "amount",
          "type": "uint256"
        }
      ],
      "name": "WinningsClaimed",
      "type": "event"
    },
    {
      "inputs": [
        {
          "internalType": "uint256",
          "name": "gameId",
          "type": "uint256"
        },
        {
          "internalType": "address",
          "name": "bettor",
          "type": "address"
        }
      ],
      "name": "checkWinnings",
      "outputs": [
        {
          "internalType": "bool",
          "name": "hasWinnings",
          "type": "bool"
        },
        {
          "internalType": "uint256",
          "name": "amount",
          "type": "uint256"
        }
      ],
      "stateMutability": "view",
      "type": "function"
    },
    {
      "inputs": [
        {
          "internalType": "uint256",
          "name": "gameId",
          "type": "uint256"
        }
      ],
      "name": "claimWinnings",
      "outputs": [],
      "stateMutability": "nonpayable",
      "type": "function"
    },
    {
      "inputs": [
        {
          "internalType": "uint256",
          "name": "gameId",
          "type": "uint256"
        }
      ],
      "name": "closeBetting",
      "outputs": [],
      "stateMutability": "nonpayable",
      "type": "function"
    },
    {
      "inputs": [
        {
          "internalType": "uint256",
          "name": "",
          "type": "uint256"
        }
      ],
      "name": "games",
      "outputs": [
        {
          "internalType": "uint256",
          "name": "gameId",
          "type": "uint256"
        },
        {
          "internalType": "bool",
          "name": "bettingOpen",
          "type": "bool"
        },
        {
          "internalType": "bool",
          "name": "resultsProcessed",
          "type": "bool"
        },
        {
          "internalType": "uint256",
          "name": "totalBetAmount",
          "type": "uint256"
        },
        {
          "internalType": "address",
          "name": "winner",
          "type": "address"
        }
      ],
      "stateMutability": "view",
      "type": "function"
    },
    {
      "inputs": [
        {
          "internalType": "uint256",
          "name": "gameId",
          "type": "uint256"
        },
        {
          "internalType": "address",
          "name": "bettor",
          "type": "address"
        }
      ],
      "name": "getBetInfo",
      "outputs": [
        {
          "internalType": "address",
          "name": "playerBetOn",
          "type": "address"
        },
        {
          "internalType": "uint256",
          "name": "amount",
          "type": "uint256"
        },
        {
          "internalType": "bool",
          "name": "claimed",
          "type": "bool"
        }
      ],
      "stateMutability": "view",
      "type": "function"
    },
    {
      "inputs": [
        {
          "internalType": "uint256",
          "name": "gameId",
          "type": "uint256"
        }
      ],
      "name": "getGameInfo",
      "outputs": [
        {
          "internalType": "bool",
          "name": "bettingOpen",
          "type": "bool"
        },
        {
          "internalType": "bool",
          "name": "resultsProcessed",
          "type": "bool"
        },
        {
          "internalType": "uint256",
          "name": "totalBetAmount",
          "type": "uint256"
        },
        {
          "internalType": "address",
          "name": "winner",
          "type": "address"
        }
      ],
      "stateMutability": "view",
      "type": "function"
    },
    {
      "inputs": [
        {
          "internalType": "uint256",
          "name": "gameId",
          "type": "uint256"
        },
        {
          "internalType": "address",
          "name": "player",
          "type": "address"
        }
      ],
      "name": "getTotalBetOnPlayer",
      "outputs": [
        {
          "internalType": "uint256",
          "name": "",
          "type": "uint256"
        }
      ],
      "stateMutability": "view",
      "type": "function"
    },
    {
      "inputs": [],
      "name": "oneCardContract",
      "outputs": [
        {
          "internalType": "address",
          "name": "",
          "type": "address"
        }
      ],
      "stateMutability": "view",
      "type": "function"
    },
    {
      "inputs": [
        {
          "internalType": "uint256",
          "name": "gameId",
          "type": "uint256"
        }
      ],
      "name": "openBetting",
      "outputs": [],
      "stateMutability": "nonpayable",
      "type": "function"
    },
    {
      "inputs": [],
      "name": "owner",
      "outputs": [
        {
          "internalType": "address",
          "name": "",
          "type": "address"
        }
      ],
      "stateMutability": "view",
      "type": "function"
    },
    {
      "inputs": [
        {
          "internalType": "uint256",
          "name": "gameId",
          "type": "uint256"
        },
        {
          "internalType": "address",
          "name": "playerToBetOn",
          "type": "address"
        }
      ],
      "name": "placeBet",
      "outputs": [],
      "stateMutability": "payable",
      "type": "function"
    },
    {
      "inputs": [
        {
          "internalType": "uint256",
          "name": "gameId",
          "type": "uint256"
        },
        {
          "internalType": "address",
          "name": "winner",
          "type": "address"
        }
      ],
      "name": "processResults",
      "outputs": [],
      "stateMutability": "nonpayable",
      "type": "function"
    }
  ],
  "bytecode": "0x60c060405234801561001057600080fd5b50604051610f3d380380610f3d83398101604081905261002f9161004c565b6001600160601b0319606091821b1660805233901b60a05261007a565b60006020828403121561005d578081fd5b81516001600160a01b0381168114610073578182fd5b9392505050565b60805160601c60a05160601c610e836100ba60003960006105c60152600081816102e7015281816105050152818161061d015261097e0152610e836000f3fe6080604052600436106100a75760003560e01c80638da5cb5b116100645780638da5cb5b146101a9578063b0cad3a5146101be578063b4ad06a1146101eb578063bc1b60621461020b578063e8fb8cd01461021e578063f41c6c0a1461024c576100a7565b80630e6c893a146100ac578063117a5b90146100e457806316a26db51461011557806347e1d55014610137578063677bd9ff1461016757806372df88de14610189575b600080fd5b3480156100b857600080fd5b506100cc6100c7366004610aac565b61026c565b6040516100db93929190610afa565b60405180910390f35b3480156100f057600080fd5b506101046100ff366004610a94565b6102a9565b6040516100db959493929190610db4565b34801561012157600080fd5b5061012a6102e5565b6040516100db9190610ae6565b34801561014357600080fd5b50610157610152366004610a94565b610309565b6040516100db9493929190610b1d565b34801561017357600080fd5b50610187610182366004610a94565b610344565b005b34801561019557600080fd5b506101876101a4366004610a94565b6104fa565b3480156101b557600080fd5b5061012a6105c4565b3480156101ca57600080fd5b506101de6101d9366004610aac565b6105e8565b6040516100db9190610dab565b3480156101f757600080fd5b50610187610206366004610a94565b610612565b610187610219366004610aac565b6106ce565b34801561022a57600080fd5b5061023e610239366004610aac565b610866565b6040516100db929190610b43565b34801561025857600080fd5b50610187610267366004610aac565b610973565b6000918252602082815260408084206001600160a01b03938416855260050190915290912080546001820154600290920154921692909160ff1690565b6000602081905290815260409020805460018201546002830154600390930154919260ff8083169361010090930416916001600160a01b031685565b7f000000000000000000000000000000000000000000000000000000000000000081565b60009081526020819052604090206001810154600282015460039092015460ff808316946101009093041692916001600160a01b0390911690565b600081815260208190526040902060010154610100900460ff166103835760405162461bcd60e51b815260040161037a90610cc4565b60405180910390fd5b600081815260208181526040808320338452600501909152902060018101546103be5760405162461bcd60e51b815260040161037a90610c66565b600281015460ff16156103e35760405162461bcd60e51b815260040161037a90610cfb565b60008281526020819052604090206003015481546001600160a01b0391821691168114156104e5576000838152602081815260408083206001600160a01b03851684526004810183529083205486845291839052600201546001850154919290918390610451908490610e18565b61045b9190610df8565b60028601805460ff19166001179055604051909150339082156108fc029083906000818181858888f1935050505015801561049a573d6000803e3d6000fd5b50336001600160a01b0316867f5380cf6fe903b40c6d5a9e0dfbca2f3a423f0a21520b4d5947ed5169bdba946d836040516104d59190610dab565b60405180910390a35050506104f5565b60028201805460ff191660011790555b505050565b336001600160a01b037f000000000000000000000000000000000000000000000000000000000000000016146105425760405162461bcd60e51b815260040161037a90610d32565b60008181526020819052604090206001015460ff16156105745760405162461bcd60e51b815260040161037a90610d69565b6000818152602081905260408082208381556001908101805460ff191690911761ff00191690555182917f9b4839cd96beecd8707537f988e2253e5b89e2cbf896be7557c7d30f6430b71c91a250565b7f000000000000000000000000000000000000000000000000000000000000000081565b6000828152602081815260408083206001600160a01b038516845260040190915290205492915050565b336001600160a01b037f0000000000000000000000000000000000000000000000000000000000000000161461065a5760405162461bcd60e51b815260040161037a90610d32565b60008181526020819052604090206001015460ff1661068b5760405162461bcd60e51b815260040161037a90610b53565b600081815260208190526040808220600101805460ff191690555182917feb7ecc3aa4dd407c7207677a2cbf861441d5c5e6c0dc70ad9692a980385c20d691a250565b60008281526020819052604090206001015460ff166106ff5760405162461bcd60e51b815260040161037a90610bee565b6000341161071f5760405162461bcd60e51b815260040161037a90610c25565b6000828152602081815260408083203384526005019091529020600101541561075a5760405162461bcd60e51b815260040161037a90610b7d565b604080516060810182526001600160a01b0383811680835234602080850182815260008688018181528a8252818452888220338352600581018552898320985189546001600160a01b03191698169790971788559151600188015590516002909601805460ff1916961515969096179095559184526004909201905291812080549091906107e9908490610de0565b90915550506000828152602081905260408120600201805434929061080f908490610de0565b92505081905550806001600160a01b0316336001600160a01b0316837f4108a54a721949460b35685fb714a531f3002d5f831f59a7c8214f72a054e4d23460405161085a9190610dab565b60405180910390a45050565b6000828152602081905260408120600101548190610100900460ff166108915750600090508061096c565b6000848152602081815260408083206001600160a01b03871684526005019091529020600181015415806108c95750600281015460ff165b156108db57600080925092505061096c565b60008581526020819052604090206003015481546001600160a01b03918216911681146109105760008093509350505061096c565b6000868152602081815260408083206001600160a01b03851684526004810183529083205489845291839052600201546001850154919290918390610956908490610e18565b6109609190610df8565b60019750955050505050505b9250929050565b336001600160a01b037f000000000000000000000000000000000000000000000000000000000000000016146109bb5760405162461bcd60e51b815260040161037a90610d32565b60008281526020819052604090206001015460ff16156109ed5760405162461bcd60e51b815260040161037a90610bbe565b600082815260208190526040902060010154610100900460ff1615610a245760405162461bcd60e51b815260040161037a90610c8d565b6000828152602081905260408082206003810180546001600160a01b0386166001600160a01b031990911681179091556001909101805461ff0019166101001790559051909184917f64456c009f9e9f5c0b5843cfa4ae7981c5e2483b76f3a278b5e0eda4ca6014749190a35050565b600060208284031215610aa5578081fd5b5035919050565b60008060408385031215610abe578081fd5b8235915060208301356001600160a01b0381168114610adb578182fd5b809150509250929050565b6001600160a01b0391909116815260200190565b6001600160a01b0393909316835260208301919091521515604082015260600190565b9315158452911515602084015260408301526001600160a01b0316606082015260800190565b9115158252602082015260400190565b60208082526010908201526f2132ba3a34b733903737ba1037b832b760811b604082015260600190565b60208082526021908201527f416c726561647920706c6163656420612062657420696e20746869732067616d6040820152606560f81b606082015260800190565b60208082526016908201527510995d1d1a5b99c81b5d5cdd0818994818db1bdcd95960521b604082015260600190565b6020808252601e908201527f42657474696e67206e6f74206f70656e20666f7220746869732067616d650000604082015260600190565b60208082526021908201527f42657420616d6f756e74206d7573742062652067726561746572207468616e206040820152600360fc1b606082015260800190565b6020808252600d908201526c139bc818995d081c1b1858d959609a1b604082015260600190565b60208082526019908201527f526573756c747320616c72656164792070726f63657373656400000000000000604082015260600190565b60208082526019908201527f526573756c7473206e6f742070726f6365737365642079657400000000000000604082015260600190565b60208082526018908201527f57696e6e696e677320616c726561647920636c61696d65640000000000000000604082015260600190565b6020808252601e908201527f4f6e6c79204f6e654361726420636f6e74726163742063616e2063616c6c0000604082015260600190565b60208082526022908201527f42657474696e6720616c7265616479206f70656e20666f7220746869732067616040820152616d6560f01b606082015260800190565b90815260200190565b9485529215156020850152901515604084015260608301526001600160a01b0316608082015260a00190565b60008219821115610df357610df3610e37565b500190565b600082610e1357634e487b7160e01b81526012600452602481fd5b500490565b6000816000190483118215151615610e3257610e32610e37565b500290565b634e487b7160e01b600052601160045260246000fdfea26469706673582212208fc02da92cacf6bdf24dff6ca0974a71696ded00cca0b2256d68e3d8c569ed3264736f6c63430008000033",
  "linkReferences": {},
  "deployedLinkReferences": {}
}