{
  "_format": "hh-sol-artifact-1",
  "contractName": "PokerSpectatorView",
  "sourceName": "contracts/AI/PokerSpectatorView.sol",
  "abi": [
    {
      "inputs": [
        {
          "internalType": "address",
          "name": "_pokerContractAddress",
          "type": "address"
        }
      ],
      "stateMutability": "nonpayable",
      "type": "constructor"
    },
    {
      "anonymous": false,
      "inputs": [
        {
          "indexed": true,
          "internalType": "uint256",
          "name": "gameId",
          "type": "uint256"
        }
      ],
      "name": "BettingPhaseStarted",
      "type": "event"
    },
    {
      "anonymous": false,
      "inputs": [
        {
          "indexed": true,
          "internalType": "uint256",
          "name": "gameId",
          "type": "uint256"
        },
        {
          "indexed": false,
          "internalType": "enum GameLibrary.GameState",
          "name": "currentState",
          "type": "uint8"
        },
        {
          "indexed": false,
          "internalType": "enum GameLibrary.GameState",
          "name": "nextState",
          "type": "uint8"
        }
      ],
      "name": "BufferPeriodStarted",
      "type": "event"
    },
    {
      "anonymous": false,
      "inputs": [
        {
          "indexed": true,
          "internalType": "address",
          "name": "player",
          "type": "address"
        },
        {
          "indexed": false,
          "internalType": "uint8",
          "name": "oldValue",
          "type": "uint8"
        },
        {
          "indexed": false,
          "internalType": "uint8",
          "name": "oldSuit",
          "type": "uint8"
        }
      ],
      "name": "CardSwapped",
      "type": "event"
    },
    {
      "anonymous": false,
      "inputs": [
        {
          "indexed": true,
          "internalType": "uint256",
          "name": "gameId",
          "type": "uint256"
        },
        {
          "indexed": false,
          "internalType": "address",
          "name": "keeper",
          "type": "address"
        }
      ],
      "name": "GameCreated",
      "type": "event"
    },
    {
      "anonymous": false,
      "inputs": [
        {
          "indexed": true,
          "internalType": "uint256",
          "name": "gameId",
          "type": "uint256"
        },
        {
          "indexed": true,
          "internalType": "address",
          "name": "winner",
          "type": "address"
        },
        {
          "indexed": false,
          "internalType": "uint256",
          "name": "potAmount",
          "type": "uint256"
        }
      ],
      "name": "GameEnded",
      "type": "event"
    },
    {
      "anonymous": false,
      "inputs": [
        {
          "indexed": true,
          "internalType": "uint256",
          "name": "gameId",
          "type": "uint256"
        }
      ],
      "name": "GameNoLongerSpectatable",
      "type": "event"
    },
    {
      "anonymous": false,
      "inputs": [
        {
          "indexed": true,
          "internalType": "uint256",
          "name": "gameId",
          "type": "uint256"
        },
        {
          "indexed": false,
          "internalType": "enum GameLibrary.GameState",
          "name": "state",
          "type": "uint8"
        },
        {
          "indexed": false,
          "internalType": "uint256",
          "name": "playerCount",
          "type": "uint256"
        }
      ],
      "name": "GameSpectatable",
      "type": "event"
    },
    {
      "anonymous": false,
      "inputs": [
        {
          "indexed": true,
          "internalType": "uint256",
          "name": "gameId",
          "type": "uint256"
        },
        {
          "indexed": false,
          "internalType": "enum GameLibrary.GameState",
          "name": "state",
          "type": "uint8"
        },
        {
          "indexed": false,
          "internalType": "uint256",
          "name": "potAmount",
          "type": "uint256"
        },
        {
          "indexed": false,
          "internalType": "uint256",
          "name": "currentBet",
          "type": "uint256"
        },
        {
          "indexed": false,
          "internalType": "uint256",
          "name": "stateVersion",
          "type": "uint256"
        }
      ],
      "name": "GameStateUpdated",
      "type": "event"
    },
    {
      "anonymous": false,
      "inputs": [
        {
          "indexed": true,
          "internalType": "uint256",
          "name": "gameId",
          "type": "uint256"
        }
      ],
      "name": "PeekPhaseStarted",
      "type": "event"
    },
    {
      "anonymous": false,
      "inputs": [
        {
          "indexed": true,
          "internalType": "uint256",
          "name": "gameId",
          "type": "uint256"
        },
        {
          "indexed": false,
          "internalType": "address",
          "name": "player",
          "type": "address"
        },
        {
          "indexed": false,
          "internalType": "string",
          "name": "actionType",
          "type": "string"
        }
      ],
      "name": "PlayerActionType",
      "type": "event"
    },
    {
      "anonymous": false,
      "inputs": [
        {
          "indexed": true,
          "internalType": "uint256",
          "name": "gameId",
          "type": "uint256"
        },
        {
          "indexed": true,
          "internalType": "address",
          "name": "player",
          "type": "address"
        }
      ],
      "name": "PlayerJoined",
      "type": "event"
    },
    {
      "anonymous": false,
      "inputs": [
        {
          "indexed": true,
          "internalType": "uint256",
          "name": "gameId",
          "type": "uint256"
        }
      ],
      "name": "ShowdownStarted",
      "type": "event"
    },
    {
      "inputs": [
        {
          "internalType": "uint256",
          "name": "gameId",
          "type": "uint256"
        }
      ],
      "name": "areCardsViewable",
      "outputs": [
        {
          "internalType": "bool",
          "name": "",
          "type": "bool"
        }
      ],
      "stateMutability": "view",
      "type": "function"
    },
    {
      "inputs": [],
      "name": "getActiveGames",
      "outputs": [
        {
          "internalType": "uint256[]",
          "name": "",
          "type": "uint256[]"
        }
      ],
      "stateMutability": "view",
      "type": "function"
    },
    {
      "inputs": [
        {
          "internalType": "uint256",
          "name": "gameId",
          "type": "uint256"
        }
      ],
      "name": "getActivePlayerCount",
      "outputs": [
        {
          "internalType": "uint256",
          "name": "",
          "type": "uint256"
        }
      ],
      "stateMutability": "view",
      "type": "function"
    },
    {
      "inputs": [
        {
          "internalType": "uint256",
          "name": "gameId",
          "type": "uint256"
        }
      ],
      "name": "getActivePlayers",
      "outputs": [
        {
          "internalType": "address[]",
          "name": "",
          "type": "address[]"
        }
      ],
      "stateMutability": "view",
      "type": "function"
    },
    {
      "inputs": [
        {
          "internalType": "uint256",
          "name": "gameId",
          "type": "uint256"
        }
      ],
      "name": "getGameKeeper",
      "outputs": [
        {
          "internalType": "address",
          "name": "",
          "type": "address"
        }
      ],
      "stateMutability": "view",
      "type": "function"
    },
    {
      "inputs": [
        {
          "internalType": "uint256",
          "name": "gameId",
          "type": "uint256"
        }
      ],
      "name": "getGamePhase",
      "outputs": [
        {
          "internalType": "enum GameLibrary.GameState",
          "name": "",
          "type": "uint8"
        }
      ],
      "stateMutability": "view",
      "type": "function"
    },
    {
      "inputs": [
        {
          "internalType": "uint256",
          "name": "gameId",
          "type": "uint256"
        }
      ],
      "name": "getGameVersion",
      "outputs": [
        {
          "internalType": "uint256",
          "name": "stateVersion",
          "type": "uint256"
        },
        {
          "internalType": "bool",
          "name": "isCleanedUp",
          "type": "bool"
        }
      ],
      "stateMutability": "view",
      "type": "function"
    },
    {
      "inputs": [
        {
          "internalType": "uint256",
          "name": "gameId",
          "type": "uint256"
        }
      ],
      "name": "getPlayerCounts",
      "outputs": [
        {
          "internalType": "uint256",
          "name": "playerCount",
          "type": "uint256"
        },
        {
          "internalType": "uint256",
          "name": "activeCount",
          "type": "uint256"
        }
      ],
      "stateMutability": "view",
      "type": "function"
    },
    {
      "inputs": [
        {
          "internalType": "uint256",
          "name": "gameId",
          "type": "uint256"
        },
        {
          "internalType": "address",
          "name": "player",
          "type": "address"
        }
      ],
      "name": "getPlayerInfo",
      "outputs": [
        {
          "internalType": "bool",
          "name": "isActive",
          "type": "bool"
        },
        {
          "internalType": "bool",
          "name": "hasPeeked",
          "type": "bool"
        },
        {
          "internalType": "bool",
          "name": "hasSwappedCard",
          "type": "bool"
        },
        {
          "internalType": "bool",
          "name": "hasFolded",
          "type": "bool"
        },
        {
          "internalType": "uint256",
          "name": "chipBalance",
          "type": "uint256"
        },
        {
          "internalType": "uint256",
          "name": "currentBet",
          "type": "uint256"
        },
        {
          "internalType": "uint256",
          "name": "lastActionTime",
          "type": "uint256"
        },
        {
          "internalType": "uint256",
          "name": "actionNonce",
          "type": "uint256"
        },
        {
          "internalType": "string",
          "name": "lastActionRational",
          "type": "string"
        }
      ],
      "stateMutability": "view",
      "type": "function"
    },
    {
      "inputs": [
        {
          "internalType": "uint256",
          "name": "gameId",
          "type": "uint256"
        }
      ],
      "name": "getPlayers",
      "outputs": [
        {
          "internalType": "address[]",
          "name": "",
          "type": "address[]"
        }
      ],
      "stateMutability": "view",
      "type": "function"
    },
    {
      "inputs": [
        {
          "internalType": "uint256",
          "name": "gameId",
          "type": "uint256"
        }
      ],
      "name": "getPotInfo",
      "outputs": [
        {
          "internalType": "uint256",
          "name": "potAmount",
          "type": "uint256"
        },
        {
          "internalType": "uint256",
          "name": "currentBet",
          "type": "uint256"
        }
      ],
      "stateMutability": "view",
      "type": "function"
    },
    {
      "inputs": [
        {
          "internalType": "uint256",
          "name": "gameId",
          "type": "uint256"
        }
      ],
      "name": "getRemainingTime",
      "outputs": [
        {
          "internalType": "uint256",
          "name": "",
          "type": "uint256"
        }
      ],
      "stateMutability": "view",
      "type": "function"
    },
    {
      "inputs": [
        {
          "internalType": "uint256",
          "name": "gameId",
          "type": "uint256"
        }
      ],
      "name": "getSpectatorCardData",
      "outputs": [
        {
          "internalType": "address[]",
          "name": "playerAddresses",
          "type": "address[]"
        },
        {
          "internalType": "uint8[]",
          "name": "cardValues",
          "type": "uint8[]"
        },
        {
          "internalType": "uint8[]",
          "name": "cardSuits",
          "type": "uint8[]"
        }
      ],
      "stateMutability": "view",
      "type": "function"
    },
    {
      "inputs": [
        {
          "internalType": "uint256",
          "name": "gameId",
          "type": "uint256"
        }
      ],
      "name": "getSpectatorPlayerData",
      "outputs": [
        {
          "internalType": "address[]",
          "name": "playerAddresses",
          "type": "address[]"
        },
        {
          "internalType": "bool[]",
          "name": "playerActiveBits",
          "type": "bool[]"
        },
        {
          "internalType": "bool[]",
          "name": "playerFoldedBits",
          "type": "bool[]"
        },
        {
          "internalType": "uint256[]",
          "name": "playerChipBalances",
          "type": "uint256[]"
        },
        {
          "internalType": "uint256[]",
          "name": "playerCurrentBets",
          "type": "uint256[]"
        },
        {
          "internalType": "uint256[]",
          "name": "playerActionNonces",
          "type": "uint256[]"
        },
        {
          "internalType": "string[]",
          "name": "playerLastActionRationals",
          "type": "string[]"
        }
      ],
      "stateMutability": "view",
      "type": "function"
    },
    {
      "inputs": [
        {
          "internalType": "uint256",
          "name": "gameId",
          "type": "uint256"
        }
      ],
      "name": "getStateVersionQuick",
      "outputs": [
        {
          "internalType": "uint256",
          "name": "",
          "type": "uint256"
        }
      ],
      "stateMutability": "view",
      "type": "function"
    },
    {
      "inputs": [
        {
          "internalType": "uint256",
          "name": "gameId",
          "type": "uint256"
        }
      ],
      "name": "getTimingInfo",
      "outputs": [
        {
          "internalType": "uint256",
          "name": "phaseEndTime",
          "type": "uint256"
        },
        {
          "internalType": "uint256",
          "name": "bufferEndTime",
          "type": "uint256"
        }
      ],
      "stateMutability": "view",
      "type": "function"
    }
  ],
  "bytecode": "0x608060405234801561001057600080fd5b5060405161178b38038061178b83398101604081905261002f91610054565b600080546001600160a01b0319166001600160a01b0392909216919091179055610082565b600060208284031215610065578081fd5b81516001600160a01b038116811461007b578182fd5b9392505050565b6116fa806100916000396000f3fe608060405234801561001057600080fd5b50600436106101005760003560e01c80634a49ef82116100975780639d8690f9116100665780639d8690f91461026e578063a410274c14610281578063bfe72b6114610294578063d36f68ca146102b457610100565b80634a49ef82146102005780636e1e277b1461022257806380ce40ee1461023557806389e60af11461024857610100565b8063217ad06e116100d3578063217ad06e14610184578063342ed956146101a55780633ccd10e9146101c5578063460e2049146101ed57610100565b80630a9a55b114610105578063181e01241461012f5780631b76929c1461014f578063213e5eb014610164575b600080fd5b61011861011336600461126b565b6102d4565b6040516101269291906115e7565b60405180910390f35b61014261013d36600461126b565b61036e565b60405161012691906115b7565b61015761041b565b6040516101269190611514565b61017761017236600461126b565b6104a0565b60405161012691906113cb565b61019761019236600461126b565b610534565b6040516101269291906115d7565b6101b86101b336600461126b565b6105cd565b60405161012691906113df565b6101d86101d336600461129b565b610658565b60405161012699989796959493929190611532565b6101b86101fb36600461126b565b61071a565b61021361020e36600461126b565b61074b565b604051610126939291906114d1565b61011861023036600461126b565b6107e1565b61014261024336600461126b565b61087b565b61025b61025636600461126b565b61090c565b60405161012697969594939291906113f9565b61011861027c36600461126b565b6109b4565b61014261028f36600461126b565b610a4d565b6102a76102a236600461126b565b610ace565b6040516101269190611527565b6102c76102c236600461126b565b610bb5565b604051610126919061158f565b6000805460405163781a271b60e11b81528291829182916001600160a01b03169063f0344e36906103099088906004016115b7565b6101206040518083038186803b15801561032257600080fd5b505afa158015610336573d6000803e3d6000fd5b505050506040513d601f19601f8201168201806040525081019061035a91906111f5565b50939a509198505050505050505050915091565b6000805460405163781a271b60e11b815282916001600160a01b03169063f0344e369061039f9086906004016115b7565b6101206040518083038186803b1580156103b857600080fd5b505afa1580156103cc573d6000803e3d6000fd5b505050506040513d601f19601f820116820180604052508101906103f091906111f5565b50505050509350505050804210610408576000610412565b6104124282611643565b9150505b919050565b60008054604080516306dda4a760e21b815290516060936001600160a01b0390931692631b76929c9260048082019391829003018186803b15801561045f57600080fd5b505afa158015610473573d6000803e3d6000fd5b505050506040513d6000823e601f3d908101601f1916820160405261049b9190810190611087565b905090565b6000805460405163047e1d5560e41b815282916001600160a01b0316906347e1d550906104d19086906004016115b7565b6101606040518083038186803b1580156104ea57600080fd5b505afa1580156104fe573d6000803e3d6000fd5b505050506040513d601f19601f82011682018060405250810190610522919061115f565b50909c9b505050505050505050505050565b6000805460405163781a271b60e11b81528291829182916001600160a01b03169063f0344e36906105699088906004016115b7565b6101206040518083038186803b15801561058257600080fd5b505afa158015610596573d6000803e3d6000fd5b505050506040513d601f19601f820116820180604052508101906105ba91906111f5565b909b509950505050505050505050915091565b600054604051631a176cab60e11b81526060916001600160a01b03169063342ed956906105fe9085906004016115b7565b60006040518083038186803b15801561061657600080fd5b505afa15801561062a573d6000803e3d6000fd5b505050506040513d6000823e601f3d908101601f191682016040526106529190810190610ebd565b92915050565b600080600080600080600080606060008054906101000a90046001600160a01b03166001600160a01b0316633ccd10e98c8c6040518363ffffffff1660e01b81526004016106a79291906115c0565b60006040518083038186803b1580156106bf57600080fd5b505afa1580156106d3573d6000803e3d6000fd5b505050506040513d6000823e601f3d908101601f191682016040526106fb91908101906110ba565b9850985098509850985098509850985098509295985092959850929598565b60005460405163460e204960e01b81526060916001600160a01b03169063460e2049906105fe9085906004016115b7565b6000546040516335ac8a4760e01b8152606091829182916001600160a01b0316906335ac8a47906107809087906004016115b7565b60006040518083038186803b15801561079857600080fd5b505afa1580156107ac573d6000803e3d6000fd5b505050506040513d6000823e601f3d908101601f191682016040526107d49190810190611003565b9250925092509193909250565b6000805460405163781a271b60e11b81528291829182916001600160a01b03169063f0344e36906108169088906004016115b7565b6101206040518083038186803b15801561082f57600080fd5b505afa158015610843573d6000803e3d6000fd5b505050506040513d601f19601f8201168201806040525081019061086791906111f5565b50959a509398505050505050505050915091565b6000805460405163781a271b60e11b815282916001600160a01b03169063f0344e36906108ac9086906004016115b7565b6101206040518083038186803b1580156108c557600080fd5b505afa1580156108d9573d6000803e3d6000fd5b505050506040513d601f19601f820116820180604052508101906108fd91906111f5565b509a9950505050505050505050565b600054604051634edc005360e11b81526060918291829182918291829182916001600160a01b031690639db800a690610949908b906004016115b7565b60006040518083038186803b15801561096157600080fd5b505afa158015610975573d6000803e3d6000fd5b505050506040513d6000823e601f3d908101601f1916820160405261099d9190810190610ef0565b959e949d50929b5090995097509550909350915050565b6000805460405163781a271b60e11b81528291829182916001600160a01b03169063f0344e36906109e99088906004016115b7565b6101206040518083038186803b158015610a0257600080fd5b505afa158015610a16573d6000803e3d6000fd5b505050506040513d601f19601f82011682018060405250810190610a3a91906111f5565b50919a5098505050505050505050915091565b6000805460405163290409d360e21b81526001600160a01b039091169063a410274c90610a7e9085906004016115b7565b60206040518083038186803b158015610a9657600080fd5b505afa158015610aaa573d6000803e3d6000fd5b505050506040513d601f19601f820116820180604052508101906106529190611283565b6000805460405163781a271b60e11b815282916001600160a01b03169063f0344e3690610aff9086906004016115b7565b6101206040518083038186803b158015610b1857600080fd5b505afa158015610b2c573d6000803e3d6000fd5b505050506040513d601f19601f82011682018060405250810190610b5091906111f5565b5096975060039650610b6495505050505050565b816004811115610b8457634e487b7160e01b600052602160045260246000fd5b148061041257506004816004811115610bad57634e487b7160e01b600052602160045260246000fd5b149392505050565b6000805460405163781a271b60e11b815282916001600160a01b03169063f0344e3690610be69086906004016115b7565b6101206040518083038186803b158015610bff57600080fd5b505afa158015610c13573d6000803e3d6000fd5b505050506040513d601f19601f82011682018060405250810190610c3791906111f5565b50969a9950505050505050505050565b600082601f830112610c57578081fd5b81516020610c6c610c678361161f565b6115f5565b8281528181019085830183850287018401881015610c88578586fd5b855b85811015610caf578151610c9d816116ac565b84529284019290840190600101610c8a565b5090979650505050505050565b600082601f830112610ccc578081fd5b81516020610cdc610c678361161f565b8281528181019085830183850287018401881015610cf8578586fd5b855b85811015610caf57610d0b82610e34565b84529284019290840190600101610cfa565b600082601f830112610d2d578081fd5b81516020610d3d610c678361161f565b82815281810190858301855b85811015610caf57610d60898684518b0101610e53565b84529284019290840190600101610d49565b600082601f830112610d82578081fd5b81516020610d92610c678361161f565b8281528181019085830183850287018401881015610dae578586fd5b855b85811015610caf57815184529284019290840190600101610db0565b600082601f830112610ddc578081fd5b81516020610dec610c678361161f565b8281528181019085830183850287018401881015610e08578586fd5b855b85811015610caf57815160ff81168114610e22578788fd5b84529284019290840190600101610e0a565b8051801515811461041657600080fd5b80516005811061041657600080fd5b600082601f830112610e63578081fd5b815167ffffffffffffffff811115610e7d57610e7d611696565b610e90601f8201601f19166020016115f5565b818152846020838601011115610ea4578283fd5b610eb5826020830160208701611666565b949350505050565b600060208284031215610ece578081fd5b815167ffffffffffffffff811115610ee4578182fd5b610eb584828501610c47565b600080600080600080600060e0888a031215610f0a578283fd5b875167ffffffffffffffff80821115610f21578485fd5b610f2d8b838c01610c47565b985060208a0151915080821115610f42578485fd5b610f4e8b838c01610cbc565b975060408a0151915080821115610f63578485fd5b610f6f8b838c01610cbc565b965060608a0151915080821115610f84578485fd5b610f908b838c01610d72565b955060808a0151915080821115610fa5578485fd5b610fb18b838c01610d72565b945060a08a0151915080821115610fc6578384fd5b610fd28b838c01610d72565b935060c08a0151915080821115610fe7578283fd5b50610ff48a828b01610d1d565b91505092959891949750929550565b600080600060608486031215611017578283fd5b835167ffffffffffffffff8082111561102e578485fd5b61103a87838801610c47565b9450602086015191508082111561104f578384fd5b61105b87838801610dcc565b93506040860151915080821115611070578283fd5b5061107d86828701610dcc565b9150509250925092565b600060208284031215611098578081fd5b815167ffffffffffffffff8111156110ae578182fd5b610eb584828501610d72565b60008060008060008060008060006101208a8c0312156110d8578283fd5b6110e18a610e34565b98506110ef60208b01610e34565b97506110fd60408b01610e34565b965061110b60608b01610e34565b955060808a0151945060a08a0151935060c08a0151925060e08a015191506101008a015167ffffffffffffffff811115611143578182fd5b61114f8c828d01610e53565b9150509295985092959850929598565b60008060008060008060008060008060006101608c8e031215611180578485fd5b6111898c610e44565b9a5060208c0151995060408c0151985060608c0151975060808c0151965060a08c0151955060c08c0151945060e08c015193506101008c01516111cb816116ac565b6101208d015190935091506111e36101408d01610e34565b90509295989b509295989b9093969950565b60008060008060008060008060006101208a8c031215611213578283fd5b61121c8a610e44565b985060208a0151975060408a0151965060608a0151955060808a0151945060a08a0151935060c08a0151925060e08a0151915061125c6101008b01610e34565b90509295985092959850929598565b60006020828403121561127c578081fd5b5035919050565b600060208284031215611294578081fd5b5051919050565b600080604083850312156112ad578182fd5b8235915060208301356112bf816116ac565b809150509250929050565b6000815180845260208085019450808401835b838110156113025781516001600160a01b0316875295820195908201906001016112dd565b509495945050505050565b6000815180845260208085019450808401835b83811015611302578151151587529582019590820190600101611320565b6000815180845260208085019450808401835b8381101561130257815187529582019590820190600101611351565b6000815180845260208085019450808401835b8381101561130257815160ff1687529582019590820190600101611380565b600081518084526113b7816020860160208601611666565b601f01601f19169290920160200192915050565b6001600160a01b0391909116815260200190565b6000602082526113f260208301846112ca565b9392505050565b600060e0825261140c60e083018a6112ca565b60208382038185015261141f828b61130d565b91508382036040850152611433828a61130d565b91508382036060850152611447828961133e565b9150838203608085015261145b828861133e565b915083820360a085015261146f828761133e565b84810360c086015285518082529092508183019082810284018301838801865b838110156114bd57601f198784030185526114ab83835161139f565b9486019492509085019060010161148f565b50909e9d5050505050505050505050505050565b6000606082526114e460608301866112ca565b82810360208401526114f6818661136d565b9050828103604084015261150a818561136d565b9695505050505050565b6000602082526113f2602083018461133e565b901515815260200190565b60006101208b151583528a15156020840152891515604084015288151560608401528760808401528660a08401528560c08401528460e08401528061010084015261157f8184018561139f565b9c9b505050505050505050505050565b60208101600583106115b157634e487b7160e01b600052602160045260246000fd5b91905290565b90815260200190565b9182526001600160a01b0316602082015260400190565b9182521515602082015260400190565b918252602082015260400190565b60405181810167ffffffffffffffff8111828210171561161757611617611696565b604052919050565b600067ffffffffffffffff82111561163957611639611696565b5060209081020190565b60008282101561166157634e487b7160e01b81526011600452602481fd5b500390565b60005b83811015611681578181015183820152602001611669565b83811115611690576000848401525b50505050565b634e487b7160e01b600052604160045260246000fd5b6001600160a01b03811681146116c157600080fd5b5056fea2646970667358221220ed9df0722caae179539f7c6fa89e4627673748445bf95d1dd09f6a4928913fb764736f6c63430008000033",
  "linkReferences": {},
  "deployedLinkReferences": {}
}